{
  "contractName": "AssetsManager",
  "abi": [
    {
      "constant": true,
      "inputs": [
        {
          "name": "_platform",
          "type": "address"
        },
        {
          "name": "_owner",
          "type": "address"
        }
      ],
      "name": "getAssetsForOwnerCount",
      "outputs": [
        {
          "name": "",
          "type": "uint256"
        }
      ],
      "payable": false,
      "stateMutability": "view",
      "type": "function"
    },
    {
      "constant": false,
      "inputs": [
        {
          "name": "_contractsManager",
          "type": "address"
        },
        {
          "name": "_tokenExtensionFactory",
          "type": "address"
        },
        {
          "name": "_tokenFactory",
          "type": "address"
        }
      ],
      "name": "init",
      "outputs": [
        {
          "name": "",
          "type": "uint256"
        }
      ],
      "payable": false,
      "stateMutability": "nonpayable",
      "type": "function"
    },
    {
      "constant": true,
      "inputs": [
        {
          "name": "_symbol",
          "type": "bytes32"
        },
        {
          "name": "_user",
          "type": "address"
        }
      ],
      "name": "isAssetOwner",
      "outputs": [
        {
          "name": "",
          "type": "bool"
        }
      ],
      "payable": false,
      "stateMutability": "view",
      "type": "function"
    },
    {
      "constant": false,
      "inputs": [
        {
          "name": "_symbol",
          "type": "bytes32"
        },
        {
          "name": "_platform",
          "type": "address"
        },
        {
          "name": "_owner",
          "type": "address"
        }
      ],
      "name": "assetOwnerRemoved",
      "outputs": [],
      "payable": false,
      "stateMutability": "nonpayable",
      "type": "function"
    },
    {
      "constant": true,
      "inputs": [
        {
          "name": "_symbol",
          "type": "bytes32"
        }
      ],
      "name": "getAssetBySymbol",
      "outputs": [
        {
          "name": "",
          "type": "address"
        }
      ],
      "payable": false,
      "stateMutability": "view",
      "type": "function"
    },
    {
      "constant": true,
      "inputs": [
        {
          "name": "_platform",
          "type": "address"
        },
        {
          "name": "_owner",
          "type": "address"
        },
        {
          "name": "_idx",
          "type": "uint256"
        }
      ],
      "name": "getAssetForOwnerAtIndex",
      "outputs": [
        {
          "name": "",
          "type": "bytes32"
        }
      ],
      "payable": false,
      "stateMutability": "view",
      "type": "function"
    },
    {
      "constant": false,
      "inputs": [
        {
          "name": "_tokenExtension",
          "type": "address"
        }
      ],
      "name": "emitTokenExtensionUnregistered",
      "outputs": [],
      "payable": false,
      "stateMutability": "nonpayable",
      "type": "function"
    },
    {
      "constant": false,
      "inputs": [
        {
          "name": "_tokenFactory",
          "type": "address"
        }
      ],
      "name": "setTokenFactory",
      "outputs": [
        {
          "name": "",
          "type": "uint256"
        }
      ],
      "payable": false,
      "stateMutability": "nonpayable",
      "type": "function"
    },
    {
      "constant": true,
      "inputs": [
        {
          "name": "_owner",
          "type": "address"
        }
      ],
      "name": "getManagers",
      "outputs": [
        {
          "name": "",
          "type": "address[]"
        }
      ],
      "payable": false,
      "stateMutability": "view",
      "type": "function"
    },
    {
      "constant": true,
      "inputs": [],
      "name": "getTokenExtensionFactory",
      "outputs": [
        {
          "name": "",
          "type": "address"
        }
      ],
      "payable": false,
      "stateMutability": "view",
      "type": "function"
    },
    {
      "constant": false,
      "inputs": [],
      "name": "claimContractOwnership",
      "outputs": [
        {
          "name": "",
          "type": "bool"
        }
      ],
      "payable": false,
      "stateMutability": "nonpayable",
      "type": "function"
    },
    {
      "constant": true,
      "inputs": [
        {
          "name": "_identifier",
          "type": "bytes32"
        }
      ],
      "name": "lookupManager",
      "outputs": [
        {
          "name": "manager",
          "type": "address"
        }
      ],
      "payable": false,
      "stateMutability": "view",
      "type": "function"
    },
    {
      "constant": true,
      "inputs": [],
      "name": "contractsManager",
      "outputs": [
        {
          "name": "",
          "type": "address"
        }
      ],
      "payable": false,
      "stateMutability": "view",
      "type": "function"
    },
    {
      "constant": false,
      "inputs": [
        {
          "name": "_to",
          "type": "address"
        }
      ],
      "name": "changeContractOwnership",
      "outputs": [
        {
          "name": "",
          "type": "bool"
        }
      ],
      "payable": false,
      "stateMutability": "nonpayable",
      "type": "function"
    },
    {
      "constant": true,
      "inputs": [
        {
          "name": "_owner",
          "type": "address"
        }
      ],
      "name": "getSystemAssetsForOwnerCount",
      "outputs": [
        {
          "name": "",
          "type": "uint256"
        }
      ],
      "payable": false,
      "stateMutability": "view",
      "type": "function"
    },
    {
      "constant": true,
      "inputs": [],
      "name": "pendingContractOwner",
      "outputs": [
        {
          "name": "",
          "type": "address"
        }
      ],
      "payable": false,
      "stateMutability": "view",
      "type": "function"
    },
    {
      "constant": false,
      "inputs": [
        {
          "name": "_eventsHistory",
          "type": "address"
        }
      ],
      "name": "setEventsHistory",
      "outputs": [],
      "payable": false,
      "stateMutability": "nonpayable",
      "type": "function"
    },
    {
      "constant": false,
      "inputs": [
        {
          "name": "_symbol",
          "type": "bytes32"
        },
        {
          "name": "_platform",
          "type": "address"
        },
        {
          "name": "_owner",
          "type": "address"
        }
      ],
      "name": "assetOwnerAdded",
      "outputs": [],
      "payable": false,
      "stateMutability": "nonpayable",
      "type": "function"
    },
    {
      "constant": true,
      "inputs": [
        {
          "name": "_owner",
          "type": "address"
        }
      ],
      "name": "getSystemAssetsForOwner",
      "outputs": [
        {
          "name": "_tokens",
          "type": "address[]"
        },
        {
          "name": "_tokenPlatforms",
          "type": "address[]"
        },
        {
          "name": "_totalSupplies",
          "type": "uint256[]"
        }
      ],
      "payable": false,
      "stateMutability": "view",
      "type": "function"
    },
    {
      "constant": true,
      "inputs": [
        {
          "name": "_tokenExtension",
          "type": "address"
        }
      ],
      "name": "containsTokenExtension",
      "outputs": [
        {
          "name": "",
          "type": "bool"
        }
      ],
      "payable": false,
      "stateMutability": "view",
      "type": "function"
    },
    {
      "constant": false,
      "inputs": [
        {
          "name": "_contractsManager",
          "type": "address"
        }
      ],
      "name": "setContractsManager",
      "outputs": [],
      "payable": false,
      "stateMutability": "nonpayable",
      "type": "function"
    },
    {
      "constant": false,
      "inputs": [],
      "name": "destroy",
      "outputs": [],
      "payable": false,
      "stateMutability": "nonpayable",
      "type": "function"
    },
    {
      "constant": false,
      "inputs": [
        {
          "name": "_tokenExtension",
          "type": "address"
        }
      ],
      "name": "registerTokenExtension",
      "outputs": [
        {
          "name": "",
          "type": "uint256"
        }
      ],
      "payable": false,
      "stateMutability": "nonpayable",
      "type": "function"
    },
    {
      "constant": false,
      "inputs": [
        {
          "name": "_platform",
          "type": "address"
        },
        {
          "name": "_tokenExtension",
          "type": "address"
        }
      ],
      "name": "emitTokenExtensionRegistered",
      "outputs": [],
      "payable": false,
      "stateMutability": "nonpayable",
      "type": "function"
    },
    {
      "constant": true,
      "inputs": [],
      "name": "getTokenFactory",
      "outputs": [
        {
          "name": "",
          "type": "address"
        }
      ],
      "payable": false,
      "stateMutability": "view",
      "type": "function"
    },
    {
      "constant": false,
      "inputs": [
        {
          "name": "_platform",
          "type": "address"
        },
        {
          "name": "_tokenExtension",
          "type": "address"
        }
      ],
      "name": "emitTokenExtensionRequested",
      "outputs": [],
      "payable": false,
      "stateMutability": "nonpayable",
      "type": "function"
    },
    {
      "constant": false,
      "inputs": [
        {
          "name": "_to",
          "type": "address"
        }
      ],
      "name": "transferContractOwnership",
      "outputs": [
        {
          "name": "",
          "type": "bool"
        }
      ],
      "payable": false,
      "stateMutability": "nonpayable",
      "type": "function"
    },
    {
      "constant": false,
      "inputs": [
        {
          "name": "_tokenExtensionFactory",
          "type": "address"
        }
      ],
      "name": "setTokenExtensionFactory",
      "outputs": [
        {
          "name": "",
          "type": "uint256"
        }
      ],
      "payable": false,
      "stateMutability": "nonpayable",
      "type": "function"
    },
    {
      "constant": true,
      "inputs": [
        {
          "name": "_symbol",
          "type": "bytes32"
        }
      ],
      "name": "getManagersForAssetSymbol",
      "outputs": [
        {
          "name": "_managers",
          "type": "address[]"
        }
      ],
      "payable": false,
      "stateMutability": "view",
      "type": "function"
    },
    {
      "constant": false,
      "inputs": [
        {
          "name": "_platform",
          "type": "address"
        }
      ],
      "name": "requestTokenExtension",
      "outputs": [
        {
          "name": "",
          "type": "uint256"
        }
      ],
      "payable": false,
      "stateMutability": "nonpayable",
      "type": "function"
    },
    {
      "constant": true,
      "inputs": [],
      "name": "contractOwner",
      "outputs": [
        {
          "name": "",
          "type": "address"
        }
      ],
      "payable": false,
      "stateMutability": "view",
      "type": "function"
    },
    {
      "constant": true,
      "inputs": [
        {
          "name": "_user",
          "type": "address"
        }
      ],
      "name": "getParticipatingPlatformsForUser",
      "outputs": [
        {
          "name": "_platforms",
          "type": "address[]"
        }
      ],
      "payable": false,
      "stateMutability": "view",
      "type": "function"
    },
    {
      "constant": true,
      "inputs": [
        {
          "name": "_symbol",
          "type": "bytes32"
        }
      ],
      "name": "isAssetSymbolExists",
      "outputs": [
        {
          "name": "",
          "type": "bool"
        }
      ],
      "payable": false,
      "stateMutability": "view",
      "type": "function"
    },
    {
      "constant": false,
      "inputs": [
        {
          "name": "tokens",
          "type": "address[]"
        },
        {
          "name": "_to",
          "type": "address"
        }
      ],
      "name": "withdrawnTokens",
      "outputs": [
        {
          "name": "",
          "type": "uint256"
        }
      ],
      "payable": false,
      "stateMutability": "nonpayable",
      "type": "function"
    },
    {
      "constant": false,
      "inputs": [
        {
          "name": "_tokenExtension",
          "type": "address"
        }
      ],
      "name": "unregisterTokenExtension",
      "outputs": [
        {
          "name": "",
          "type": "uint256"
        }
      ],
      "payable": false,
      "stateMutability": "nonpayable",
      "type": "function"
    },
    {
      "constant": false,
      "inputs": [
        {
          "name": "errorCode",
          "type": "uint256"
        }
      ],
      "name": "emitError",
      "outputs": [],
      "payable": false,
      "stateMutability": "nonpayable",
      "type": "function"
    },
    {
      "constant": true,
      "inputs": [
        {
          "name": "_platform",
          "type": "address"
        }
      ],
      "name": "getTokenExtension",
      "outputs": [
        {
          "name": "",
          "type": "address"
        }
      ],
      "payable": false,
      "stateMutability": "view",
      "type": "function"
    },
    {
      "constant": true,
      "inputs": [
        {
          "name": "key",
          "type": "address"
        }
      ],
      "name": "isAuthorized",
      "outputs": [
        {
          "name": "",
          "type": "bool"
        }
      ],
      "payable": false,
      "stateMutability": "view",
      "type": "function"
    },
    {
      "constant": true,
      "inputs": [],
      "name": "getEventsHistory",
      "outputs": [
        {
          "name": "",
          "type": "address"
        }
      ],
      "payable": false,
      "stateMutability": "view",
      "type": "function"
    },
    {
      "inputs": [
        {
          "name": "_store",
          "type": "address"
        },
        {
          "name": "_crate",
          "type": "bytes32"
        }
      ],
      "payable": false,
      "stateMutability": "nonpayable",
      "type": "constructor"
    },
    {
      "anonymous": false,
      "inputs": [
        {
          "indexed": true,
          "name": "self",
          "type": "address"
        },
        {
          "indexed": false,
          "name": "errorCode",
          "type": "uint256"
        }
      ],
      "name": "Error",
      "type": "event"
    },
    {
      "anonymous": false,
      "inputs": [
        {
          "indexed": true,
          "name": "self",
          "type": "address"
        },
        {
          "indexed": false,
          "name": "platform",
          "type": "address"
        },
        {
          "indexed": false,
          "name": "tokenExtension",
          "type": "address"
        }
      ],
      "name": "TokenExtensionRequested",
      "type": "event"
    },
    {
      "anonymous": false,
      "inputs": [
        {
          "indexed": true,
          "name": "self",
          "type": "address"
        },
        {
          "indexed": false,
          "name": "platform",
          "type": "address"
        },
        {
          "indexed": false,
          "name": "tokenExtension",
          "type": "address"
        }
      ],
      "name": "TokenExtensionRegistered",
      "type": "event"
    },
    {
      "anonymous": false,
      "inputs": [
        {
          "indexed": true,
          "name": "self",
          "type": "address"
        },
        {
          "indexed": false,
          "name": "tokenExtension",
          "type": "address"
        }
      ],
      "name": "TokenExtensionUnregistered",
      "type": "event"
    }
  ],
  "bytecode": "0x606060405234156200001057600080fd5b60405160408062003aeb83398101604052808051919060200180519150829050818181818162000051600083836401000000006200323d6200023082021704565b505060028054600160a060020a03338116600160a060020a03199283161790925560058054309093169290911691909117905550620000c69250600691507f746f6b656e457874656e73696f6e466163746f727900000000000000000000009050640100000000620032636200025682021704565b6200010160077f746f6b656e466163746f72790000000000000000000000000000000000000000640100000000620032636200025682021704565b6200013c60087f7631706c6174666f726d546f457874656e73696f6e0000000000000000000000640100000000620032736200027682021704565b6200017760097f7631746f6b656e457874656e73696f6e730000000000000000000000000000006401000000006200327d6200029482021704565b620001b2600e7f763175736572546f506172746963697061746564506c6174666f726d7300000064010000000062003287620002ae82021704565b620001ed60117f76317573657257697468506c6174666f726d546f4f776e656453796d626f6c736401000000006200328d620002c882021704565b6200022860147f763173796d626f6c57697468506c6174666f726d546f5573657273000000000064010000000062003287620002ae82021704565b5050620005c4565b8254600160a060020a031916600160a060020a0392909216919091178255600190910155565b815462000272908264010000000062003297620002e282021704565b9055565b620002908282640100000000620032636200025682021704565b5050565b620002908282640100000000620032b9620002fa82021704565b6200029082826401000000006200328d620002c882021704565b6200029082826401000000006200340a620004b982021704565b81151580620002ef575080155b156200029057600080fd5b6200035182826040519081527f75696e742f636f756e74000000000000000000000000000000000000000000006020820152602a016040518091039020620002566401000000000262003263176401000000009004565b620003ab82600101826040519081527f75696e742f6669727374000000000000000000000000000000000000000000006020820152602a016040518091039020620002566401000000000262003263176401000000009004565b6200040582600201826040519081527f75696e742f6c617374000000000000000000000000000000000000000000000060208201526029016040518091039020620002566401000000000262003263176401000000009004565b6200045f82600301826040519081527f75696e742f6e657874000000000000000000000000000000000000000000000060208201526029016040518091039020620002566401000000000262003263176401000000009004565b6200029082600401826040519081527f75696e742f70726576000000000000000000000000000000000000000000000060208201526029016040518091039020620002566401000000000262003263176401000000009004565b6200051082826040519081527f636f756e7400000000000000000000000000000000000000000000000000000060208201526025016040518091039020620002566401000000000262003263176401000000009004565b6200056a82600101826040519081527f696e64657865730000000000000000000000000000000000000000000000000060208201526027016040518091039020620002566401000000000262003263176401000000009004565b6200029082600201826040519081527f76616c756573000000000000000000000000000000000000000000000000000060208201526026016040518091039020620002566401000000000262003263176401000000009004565b61351780620005d46000396000f3006060604052600436106101c95763ffffffff60e060020a60003504166317db107181146101ce578063184b95591461020557806325742b4614610230578063260467431461026657806328aea08b146102905780632cd060ce146102c25780632d305c82146102ea5780632f73a9f814610309578063330602261461032857806344ef3ea51461039a5780634592cd1d146103ad5780634fe59012146103c057806353253d31146103d6578063557f4bc9146103e957806355e06a74146104085780635aa77d3c146104275780636521afd71461043a578063660a333e1461045957806368bf8b90146104815780636bc8acf51461057e57806371d3b5731461059d57806383197ef0146105bc57806389c165d0146105cf5780638f8068bb146105ee578063925d6ba2146106135780639e6c276514610626578063a843c51f1461064b578063b5fb84211461066a578063bb908ff014610689578063c97f57871461069f578063ce606ee0146106be578063d2920d42146106d1578063d5ed0d17146106f0578063d8f9659b14610706578063db06471f14610760578063df26ca081461077f578063e5ebb7a514610795578063fe9fbb80146107b4578063fff10aba146107d3575b600080fd5b34156101d957600080fd5b6101f3600160a060020a03600435811690602435166107e6565b60405190815260200160405180910390f35b341561021057600080fd5b6101f3600160a060020a0360043581169060243581169060443516610879565b341561023b57600080fd5b610252600435600160a060020a03602435166108de565b604051901515815260200160405180910390f35b341561027157600080fd5b61028e600435600160a060020a036024358116906044351661096c565b005b341561029b57600080fd5b6102a6600435610a9f565b604051600160a060020a03909116815260200160405180910390f35b34156102cd57600080fd5b6101f3600160a060020a0360043581169060243516604435610b3a565b34156102f557600080fd5b61028e600160a060020a0360043516610bd9565b341561031457600080fd5b6101f3600160a060020a0360043516610c2a565b341561033357600080fd5b610347600160a060020a0360043516610c74565b60405160208082528190810183818151815260200191508051906020019060200280838360005b8381101561038657808201518382015260200161036e565b505050509050019250505060405180910390f35b34156103a557600080fd5b6102a6610cb8565b34156103b857600080fd5b610252610cd1565b34156103cb57600080fd5b6102a6600435610d1d565b34156103e157600080fd5b6102a6610da1565b34156103f457600080fd5b610252600160a060020a0360043516610db0565b341561041357600080fd5b6101f3600160a060020a0360043516610e07565b341561043257600080fd5b6102a6610e93565b341561044557600080fd5b61028e600160a060020a0360043516610ea2565b341561046457600080fd5b61028e600435600160a060020a0360243581169060443516610ed8565b341561048c57600080fd5b6104a0600160a060020a0360043516610feb565b60405180806020018060200180602001848103845287818151815260200191508051906020019060200280838360005b838110156104e85780820151838201526020016104d0565b50505050905001848103835286818151815260200191508051906020019060200280838360005b8381101561052757808201518382015260200161050f565b50505050905001848103825285818151815260200191508051906020019060200280838360005b8381101561056657808201518382015260200161054e565b50505050905001965050505050505060405180910390f35b341561058957600080fd5b610252600160a060020a0360043516611291565b34156105a857600080fd5b61028e600160a060020a03600435166112a5565b34156105c757600080fd5b61028e6112dc565b34156105da57600080fd5b6101f3600160a060020a0360043516611372565b34156105f957600080fd5b61028e600160a060020a0360043581169060243516611529565b341561061e57600080fd5b6102a6611584565b341561063157600080fd5b61028e600160a060020a0360043581169060243516611597565b341561065657600080fd5b610252600160a060020a03600435166115f2565b341561067557600080fd5b6101f3600160a060020a036004351661166b565b341561069457600080fd5b6103476004356116ad565b34156106aa57600080fd5b6101f3600160a060020a0360043516611773565b34156106c957600080fd5b6102a6611841565b34156106dc57600080fd5b610347600160a060020a0360043516611850565b34156106fb57600080fd5b610252600435611a55565b341561071157600080fd5b6101f3600460248135818101908301358060208181020160405190810160405280939291908181526020018383602002808284375094965050509235600160a060020a03169250611a71915050565b341561076b57600080fd5b6101f3600160a060020a0360043516611bc2565b341561078a57600080fd5b61028e600435611dcf565b34156107a057600080fd5b6102a6600160a060020a0360043516611e16565b34156107bf57600080fd5b610252600160a060020a0360043516611e2a565b34156107de57600080fd5b6102a6611ec0565b600073__AssetsManagerAggregations_____________6317db107161080b85611e16565b8460006040516020015260405160e060020a63ffffffff8516028152600160a060020a0392831660048201529116602482015260440160206040518083038186803b151561085857600080fd5b6102c65a03f4151561086957600080fd5b5050506040518051949350505050565b60025460009033600160a060020a03908116911614156108d7576108bd847f4173736574734d616e6167657200000000000000000000000000000000000000611ecf565b506108c78361166b565b506108d182610c2a565b50600190505b9392505050565b600073__AssetsManagerAggregations_____________634231b30e600060088661090888610a9f565b8760006040516020015260405160e060020a63ffffffff8816028152600481019590955260248501939093526044840191909152600160a060020a03908116606484015216608482015260a40160206040518083038186803b151561085857600080fd5b600033600160a060020a03166109a17f41737365744f776e6572736869705265736f6c76657200000000000000000000610d1d565b600160a060020a03161415610a995781836040516c01000000000000000000000000600160a060020a03938416810282529190921602601482015260280160405190819003902090506109fe60006011838763ffffffff6120c016565b1515610a0957610a99565b610a1d60006011838763ffffffff6120d716565b610a30600060118363ffffffff6120e316565b1515610a5357610a536000600e600160a060020a0385168663ffffffff6120f016565b610a9960148585604051918252600160a060020a03166c01000000000000000000000000026020820152603401604051908190039020600091908563ffffffff6120f016565b50505050565b6000610aca7f45524332304d616e616765720000000000000000000000000000000000000000610d1d565b600160a060020a031663fa7fdeb78360006040516020015260405160e060020a63ffffffff84160281526004810191909152602401602060405180830381600087803b1515610b1857600080fd5b6102c65a03f11515610b2957600080fd5b50505060405180519150505b919050565b600073__AssetsManagerAggregations_____________632cd060ce610b5f86611e16565b858560006040516020015260405160e060020a63ffffffff8616028152600160a060020a039384166004820152919092166024820152604481019190915260640160206040518083038186803b1515610bb757600080fd5b6102c65a03f41515610bc857600080fd5b505050604051805195945050505050565b610be1612105565b600160a060020a03167f3f50f7daabc6e49127dd3b03b7f7326b60b1ae07a5f8956899da1fd1b51b055482604051600160a060020a03909116815260200160405180910390a250565b60025460009033600160a060020a0390811691161415610b3557600160a060020a0382161515610c5957600080fd5b610c6c600060078463ffffffff61210916565b506001919050565b610c7c61322b565b610cb260006014610cac7f506c6174666f726d734d616e6167657200000000000000000000000000000000610d1d565b8561218b565b92915050565b6000610ccb81600663ffffffff61230216565b90505b90565b60035460009033600160a060020a03908116911614610cf257506000610cce565b506003805460028054600160a060020a0319908116600160a060020a03841617909155169055600190565b600454600090600160a060020a031663bc65792783836040516020015260405160e060020a63ffffffff84160281526004810191909152602401602060405180830381600087803b1515610d7057600080fd5b6102c65a03f11515610d8157600080fd5b5050506040518051915050600160a060020a0381161515610b3557600080fd5b600454600160a060020a031681565b60025460009033600160a060020a0390811691161415610b3557600160a060020a0382161515610de257506000610b35565b5060038054600160a060020a038316600160a060020a03199091161790556001919050565b600073__AssetsManagerAggregations_____________638c569aac6000600e60118660006040516020015260405160e060020a63ffffffff8716028152600481019490945260248401929092526044830152600160a060020a0316606482015260840160206040518083038186803b1515610e8257600080fd5b6102c65a03f41515610b2957600080fd5b600354600160a060020a031681565b60025433600160a060020a0390811691161415610ed55760058054600160a060020a031916600160a060020a0383161790555b50565b600033600160a060020a0316610f0d7f41737365744f776e6572736869705265736f6c76657200000000000000000000610d1d565b600160a060020a03161415610a995781836040516c01000000000000000000000000600160a060020a0393841681028252919092160260148201526028016040519081900390209050610f6a60006011838763ffffffff6120c016565b15610f7457610a99565b610f916000600e600160a060020a0385168663ffffffff61236116565b610fa560006011838763ffffffff61237216565b610a9960148585604051918252600160a060020a03166c01000000000000000000000000026020820152603401604051908190039020600091908563ffffffff61236116565b610ff361322b565b610ffb61322b565b61100361322b565b600080600080600080600080600080600061101d8f610e07565b9a508a60405180591061102d5750595b90808252806020026020018201604052509d508a60405180591061104e5750595b90808252806020026020018201604052509c508a60405180591061106f5750595b90808252806020026020018201604052509b50600160a060020a038f1699506110a16000600e8c63ffffffff61237e16565b9850600094505b8885101561127f576110c46000600e8c8863ffffffff61238b16565b96508693508e876040516c01000000000000000000000000600160a060020a0393841681028252919092160260148201526028016040519081900390209550611116600060118863ffffffff6120e316565b9250821561114357868d898151811061112b57fe5b600160a060020a039092166020928302909101909101525b5060005b828110156112745761116360006011888463ffffffff61239516565b915083600160a060020a0316636932af368360006040516020015260405160e060020a63ffffffff84160281526004810191909152602401602060405180830381600087803b15156111b457600080fd5b6102c65a03f115156111c557600080fd5b505050604051805190508e89815181106111db57fe5b600160a060020a0392831660209182029092010152841663b524abcf8360006040516020015260405160e060020a63ffffffff84160281526004810191909152602401602060405180830381600087803b151561123757600080fd5b6102c65a03f1151561124857600080fd5b505050604051805190508c898151811061125e57fe5b6020908102909101015260019788019701611147565b8460010194506110a8565b50505050505050505050509193909250565b6000610cb28160098463ffffffff6123a316565b60025433600160a060020a0390811691161415610ed55760048054600160a060020a038316600160a060020a031990911617905550565b60025433600160a060020a039081169116141561137057600454600160a060020a031663c375c2ef3060006040516020015260405160e060020a63ffffffff8416028152600160a060020a039091166004820152602401602060405180830381600087803b151561134c57600080fd5b6102c65a03f1151561135d57600080fd5b50505060405180519050506113706123b9565b565b60008082600160a060020a0316634bde38c86000604051602001526040518163ffffffff1660e060020a028152600401602060405180830381600087803b15156113bb57600080fd5b6102c65a03f115156113cc57600080fd5b5050506040518051905033600160a060020a031681600160a060020a031663ce606ee06000604051602001526040518163ffffffff1660e060020a028152600401602060405180830381600087803b151561142657600080fd5b6102c65a03f1151561143757600080fd5b50505060405180519050600160a060020a0316141561152257611463600060098663ffffffff6123a316565b1561147a576114736175336123dc565b9250611522565b83600160a060020a0316634bde38c86000604051602001526040518163ffffffff1660e060020a028152600401602060405180830381600087803b15156114c057600080fd5b6102c65a03f115156114d157600080fd5b505050604051805192506114f09050600060088463ffffffff61244516565b600160a060020a031615611509576114736175336123dc565b611513828561245b565b61151d8285612507565b600192505b5050919050565b611531612105565b600160a060020a03167fadaec20b36aa073df965798f4aa38bd5cedd19491766793d87792ae08c4bae9d8383604051600160a060020a039283168152911660208201526040908101905180910390a25050565b6000610ccb81600763ffffffff61230216565b61159f612105565b600160a060020a03167ff149a753669bf8ae72a54d5becee2a0f78297c8513b9c74bac5aa1acd59a84268383604051600160a060020a039283168152911660208201526040908101905180910390a25050565b60025460009033600160a060020a0390811691161415610b3557600160a060020a038216151561162457506000610b35565b600354600160a060020a0316156116465760038054600160a060020a03191690555b5060028054600160a060020a038316600160a060020a03199091161790556001919050565b60025460009033600160a060020a0390811691161415610b3557600160a060020a038216151561169a57600080fd5b610c6c600060068463ffffffff61210916565b6116b561322b565b6000806116c184610a9f565b915081600160a060020a03166349752baf6000604051602001526040518163ffffffff1660e060020a028152600401602060405180830381600087803b151561170957600080fd5b6102c65a03f1151561171a57600080fd5b50505060405180519050905061176b60148583604051918252600160a060020a03166c010000000000000000000000000260208201526034016040519081900390206000919063ffffffff61257c16565b949350505050565b600080600061178184611e16565b9150600160a060020a038216156117a55761179c8483612597565b60019250611522565b6117b76000600663ffffffff61230216565b905080600160a060020a0316635218dbea8560006040516020015260405160e060020a63ffffffff8416028152600160a060020a039091166004820152602401602060405180830381600087803b151561181057600080fd5b6102c65a03f1151561182157600080fd5b505050604051805190509150611837848361245b565b61151d8483612597565b600254600160a060020a031681565b61185861322b565b6000806000806118877f506c6174666f726d734d616e6167657200000000000000000000000000000000610d1d565b93506118a56000600e600160a060020a03891663ffffffff61237e16565b92508284600160a060020a0316632197cc348860006040516020015260405160e060020a63ffffffff8416028152600160a060020a039091166004820152602401602060405180830381600087803b15156118ff57600080fd5b6102c65a03f1151561191057600080fd5b50505060405180519050016040518059106119285750595b90808252806020026020018201604052509450600091505b82821015611993576119656000600e600160a060020a0389168563ffffffff61238b16565b85838151811061197157fe5b600160a060020a03909216602092830290910190910152600190910190611940565b5060005b8451821015611a4c5783600160a060020a031663a43ee2eb878380600101945060006040516020015260405160e060020a63ffffffff8516028152600160a060020a0390921660048301526024820152604401602060405180830381600087803b1515611a0357600080fd5b6102c65a03f11515611a1457600080fd5b50505060405180519050858381518110611a2a57fe5b600160a060020a03909216602092830290910190910152600190910190611997565b50505050919050565b6000611a6082610a9f565b600160a060020a0316151592915050565b60025460009081908190819033600160a060020a0390811691161415611bb957600092505b8551831015611bb457858381518110611aab57fe5b90602001906020020151915081600160a060020a03166370a082313060006040516020015260405160e060020a63ffffffff8416028152600160a060020a039091166004820152602401602060405180830381600087803b1515611b0e57600080fd5b6102c65a03f11515611b1f57600080fd5b50505060405180519150508015611ba95781600160a060020a031663a9059cbb868360006040516020015260405160e060020a63ffffffff8516028152600160a060020a0390921660048301526024820152604401602060405180830381600087803b1515611b8d57600080fd5b6102c65a03f11515611b9e57600080fd5b505050604051805150505b600190920191611a96565b600193505b50505092915050565b600081600160a060020a0316634bde38c86000604051602001526040518163ffffffff1660e060020a028152600401602060405180830381600087803b1515611c0a57600080fd5b6102c65a03f11515611c1b57600080fd5b5050506040518051905033600160a060020a031681600160a060020a031663ce606ee06000604051602001526040518163ffffffff1660e060020a028152600401602060405180830381600087803b1515611c7557600080fd5b6102c65a03f11515611c8657600080fd5b50505060405180519050600160a060020a03161415611dc957611cb2600060098563ffffffff6123a316565b1515611cca57611cc36175326123dc565b9150611dc9565b611cdd600060098563ffffffff6125f416565b611d52600884600160a060020a0316634bde38c86000604051602001526040518163ffffffff1660e060020a028152600401602060405180830381600087803b1515611d2857600080fd5b6102c65a03f11515611d3957600080fd5b505050604051805160009291508263ffffffff61260d16565b611d5a611ec0565b600160a060020a031663ab0da5a98460405160e060020a63ffffffff8416028152600160a060020a039091166004820152602401600060405180830381600087803b1515611da757600080fd5b6102c65a03f11515611db857600080fd5b505050611dc483612625565b600191505b50919050565b611dd7612105565b600160a060020a03167f9cf38cf2dbf9139f5c32639950507b10775fbbe0421f3e168bc2d1bb1ae3208c8260405190815260200160405180910390a250565b6000610cb28160088463ffffffff61244516565b600080611e567f557365724d616e61676572000000000000000000000000000000000000000000610d1d565b905080600160a060020a0316632aa09e5a8460006040516020015260405160e060020a63ffffffff8416028152600160a060020a039091166004820152602401602060405180830381600087803b1515611eaf57600080fd5b6102c65a03f1151561086957600080fd5b600554600160a060020a031690565b60025460009081908190819033600160a060020a03908116911614611ef357600080fd5b600160a060020a0386161515611f0857600080fd5b600454600160a060020a0316158015935080611f325750600454600160a060020a03878116911614155b15611f535760048054600160a060020a031916600160a060020a0388161790555b600454600160a060020a031691508163bc65792760006040516020015260405160e060020a63ffffffff83160281527f4d756c74694576656e7473486973746f727900000000000000000000000000006004820152602401602060405180830381600087803b1515611fc457600080fd5b6102c65a03f11515611fd557600080fd5b5050506040518051915050600160a060020a038116158015906120065750600554600160a060020a03828116911614155b156120275760058054600160a060020a031916600160a060020a0383161790555b84156120ae5781600160a060020a031663b7c46cd5308760006040516020015260405160e060020a63ffffffff8516028152600160a060020a0390921660048301526024820152604401602060405180830381600087803b151561208a57600080fd5b6102c65a03f1151561209b57600080fd5b505050604051805160011490506120ae57fe5b8215611bb45760069695505050505050565b60006120ce8585858561268b565b95945050505050565b610a99848484846126a7565b600061176b848484612755565b610a99848484600160a060020a0385166120d7565b3390565b825460018401548354600160a060020a03909216916379a7cfee91908460405160e060020a63ffffffff861602815260048101939093526024830191909152600160a060020a03166044820152606401600060405180830381600087803b151561217257600080fd5b6102c65a03f1151561218357600080fd5b505050505050565b61219361322b565b60008060006121a061322b565b60008088955085600160a060020a0316632197cc348960006040516020015260405160e060020a63ffffffff8416028152600160a060020a039091166004820152602401602060405180830381600087803b15156121fd57600080fd5b6102c65a03f1151561220e57600080fd5b505050604051805190509450612224888a612762565b6040518059106122315750595b9080825280602002602001820160405250965060009350600091505b848210156122f45785600160a060020a031663a43ee2eb898460006040516020015260405160e060020a63ffffffff8516028152600160a060020a0390921660048301526024820152604401602060405180830381600087803b15156122b257600080fd5b6102c65a03f115156122c357600080fd5b5050506040518051905090506122da8b8b8361293c565b92506122e7838886612b1d565b935081600101915061224d565b505050505050949350505050565b815460018301548254600092600160a060020a03169163d3a3968691846040516020015260405160e060020a63ffffffff851602815260048101929092526024820152604401602060405180830381600087803b1515611eaf57600080fd5b610a99848484600160a060020a0385165b610a9984848484612ba2565b600061176b8484846120e3565b60006120ce858585855b60006120ce85858585612bf6565b600061176b8484600160a060020a038516612c0a565b60025433600160a060020a03908116911614156113705733600160a060020a0316ff5b60006123e6611ec0565b600160a060020a031663df26ca088360405160e060020a63ffffffff84160281526004810191909152602401600060405180830381600087803b151561242b57600080fd5b6102c65a03f1151561243c57600080fd5b50929392505050565b600061176b8484600160a060020a038516612c38565b612463611ec0565b600160a060020a031663b6a5d7de8260006040516020015260405160e060020a63ffffffff8416028152600160a060020a039091166004820152602401602060405180830381600087803b15156124b957600080fd5b6102c65a03f115156124ca57600080fd5b5050506040518051905015156124dc57fe5b6124ef600060098363ffffffff612cc116565b61250360006008848463ffffffff61260d16565b5050565b61250f611ec0565b600160a060020a0316638f8068bb838360405160e060020a63ffffffff8516028152600160a060020a03928316600482015291166024820152604401600060405180830381600087803b151561256457600080fd5b6102c65a03f1151561257557600080fd5b5050505050565b61258461322b565b61176b612592858585612cd5565b612ce8565b61259f611ec0565b600160a060020a0316639e6c2765838360405160e060020a63ffffffff8516028152600160a060020a03928316600482015291166024820152604401600060405180830381600087803b151561256457600080fd5b6126088383600160a060020a038416612d72565b505050565b610a998484600160a060020a03808616908516612d9e565b61262d611ec0565b600160a060020a0316632d305c828260405160e060020a63ffffffff8416028152600160a060020a039091166004820152602401600060405180830381600087803b151561267a57600080fd5b6102c65a03f11515610a9957600080fd5b600061269c85856001018585612e27565b151595945050505050565b60008060006126b88787878761268b565b15156126c35761274c565b6126ce878787612755565b92506126df87600288018786612e27565b91506126f087876001018787612e27565b90508281101561271a5761270a8760018801878585612e4c565b61271a8760028801878486612e4c565b61272b876001880187876000612e4c565b61273c876002880187866000612e4c565b61274c8787876000198701612e70565b50505050505050565b600061176b848484612ee8565b600081818080600160a060020a038416632197cc3488836040516020015260405160e060020a63ffffffff8416028152600160a060020a039091166004820152602401602060405180830381600087803b15156127be57600080fd5b6102c65a03f115156127cf57600080fd5b5050506040518051935060009250505b828210156129325783600160a060020a031663a43ee2eb888460006040516020015260405160e060020a63ffffffff8516028152600160a060020a0390921660048301526024820152604401602060405180830381600087803b151561284457600080fd5b6102c65a03f1151561285557600080fd5b5050506040518051915050600160a060020a03811663ecac7f4b6000604051602001526040518163ffffffff1660e060020a028152600401602060405180830381600087803b15156128a657600080fd5b6102c65a03f115156128b757600080fd5b5050506040518051905081600160a060020a0316636b4ed21b6000604051602001526040518163ffffffff1660e060020a028152600401602060405180830381600087803b151561290757600080fd5b6102c65a03f1151561291857600080fd5b5050506040518051905002850194508160010191506127df565b5050505092915050565b61294461322b565b600080600061295161322b565b60008087955085600160a060020a031663ecac7f4b6000604051602001526040518163ffffffff1660e060020a028152600401602060405180830381600087803b151561299d57600080fd5b6102c65a03f115156129ae57600080fd5b5050506040518051905094508488600160a060020a0316636b4ed21b6000604051602001526040518163ffffffff1660e060020a028152600401602060405180830381600087803b1515612a0157600080fd5b6102c65a03f11515612a1257600080fd5b5050506040518051905002604051805910612a2a5750595b90808252806020026020018201604052509650600090505b84811015612b105785600160a060020a031663ccce413b8260006040516020015260405160e060020a63ffffffff84160281526004810191909152602401602060405180830381600087803b1515612a9957600080fd5b6102c65a03f11515612aaa57600080fd5b505050604051805190509150612af989838a604051918252600160a060020a03166c010000000000000000000000000260208201526034016040519081900390208c919063ffffffff61257c16565b9250612b06838886612b1d565b9350600101612a42565b5050505050509392505050565b6000805b845181108015612b4e5750848181518110612b3857fe5b90602001906020020151600160a060020a031615155b15612b9957848181518110612b5f57fe5b906020019060200201516001840193859081518110612b7a57fe5b600160a060020a03909216602092830290910190910152600101612b21565b50909392505050565b6000612bb08585858561268b565b15612bba57612575565b612bc5858585612755565b6001019050612bda8560028601858486612e4c565b612bea8560018601858585612e4c565b61257585858584612e70565b60006120ce85600286018560018601612e27565b600061176b84847f6f7264657265645f73657400000000000000000000000000000000000000000085612f60565b825460018401548354600092600160a060020a0316916337d9d7fc9185604051918252602082015260409081019051809103902060006040516020015260405160e060020a63ffffffff851602815260048101929092526024820152604401602060405180830381600087803b1515612cb057600080fd5b6102c65a03f11515610bc857600080fd5b6126088383600160a060020a038416612f9c565b612cdd61322b565b61176b848484612fc8565b612cf061322b565b612cf861322b565b60008351604051805910612d095750595b90808252806020026020018201604052509150600090505b8351811015612d6b57838181518110612d3657fe5b90602001906020020151828281518110612d4c57fe5b600160a060020a03909216602092830290910190910152600101612d21565b5092915050565b61260883837f6f7264657265645f73657400000000000000000000000000000000000000000084613041565b835460018501548454600160a060020a039092169163a14ff85791908560405191825260208201526040908101905180910390208460405160e060020a63ffffffff8616028152600481019390935260248301919091526044820152606401600060405180830381600087803b1515612e1657600080fd5b6102c65a03f1151561274c57600080fd5b60006120ce858585856040519182526020820152604090810190518091039020612c38565b61257585858585604051918252602082015260409081019051809103902084612d9e565b835460018501548454600160a060020a03909216916353e7168b91908560405191825260208201526040908101905180910390208460405160e060020a63ffffffff8616028152600481019390935260248301919091526044820152606401600060405180830381600087803b1515612e1657600080fd5b825460018401548354600092600160a060020a0316916353aa3f5e9185604051918252602082015260409081019051809103902060006040516020015260405160e060020a63ffffffff851602815260048101929092526024820152604401602060405180830381600087803b1515612cb057600080fd5b600081158015906120ce5750612f7b85856003018585612e27565b1515806120ce575081612f92866002870186612c38565b1495945050505050565b61260883837f6f7264657265645f73657400000000000000000000000000000000000000000084613141565b612fd061322b565b600080612fde868686612755565b915081604051805910612fee5750595b90808252806020026020018201604052509250600090505b818110156130385761301a86868684612bf6565b83828151811061302657fe5b60209081029091010152600101613006565b50509392505050565b61304d84848484612f60565b151561305857610a99565b61308484846003018461307088886004018888612e27565b61307f89896003018989612e27565b613204565b6130ab84846004018461309c88886003018888612e27565b61307f89896004018989612e27565b6130b9848460010184612c38565b8114156130dd576130dd8484600101846130d888886003018888612e27565b612d9e565b6130eb848460020184612c38565b81141561310a5761310a8484600201846130d888886004018888612e27565b61311984846003018484613217565b61312884846004018484613217565b610a99848484600161313b848484612ee8565b03612e70565b80151561314d57600080fd5b61315984848484612f60565b1561316357610a99565b61316e848484612755565b15156131835761318384846001018484612d9e565b613191848460020184612c38565b156131cb576131b38484600301846131ad888860020188612c38565b85613204565b6131cb8484600401848461307f898960020189612c38565b6131dc846003850184846000613204565b6131eb84846002018484612d9e565b610a998484846131fc838383612ee8565b600101612e70565b8115612575576125758585858585612e4c565b8015610a9957610a99848484846000612e4c565b60206040519081016040526000815290565b8254600160a060020a031916600160a060020a0392909216919091178255600190910155565b815461326f9082613297565b9055565b6125038282613263565b61250382826132b9565b61250382825b612503828261340a565b811515806132a3575080155b1561250357600080fd5b815461326f9082613297565b6132fa82826040519081527f75696e742f636f756e74000000000000000000000000000000000000000000006020820152602a016040518091039020613263565b61333e82600101826040519081527f75696e742f6669727374000000000000000000000000000000000000000000006020820152602a016040518091039020613263565b61338282600201826040519081527f75696e742f6c617374000000000000000000000000000000000000000000000060208201526029016040518091039020613263565b6133c682600301826040519081527f75696e742f6e657874000000000000000000000000000000000000000000000060208201526029016040518091039020613263565b61250382600401826040519081527f75696e742f70726576000000000000000000000000000000000000000000000060208201526029016040518091039020613263565b61344b82826040519081527f636f756e7400000000000000000000000000000000000000000000000000000060208201526025016040518091039020613263565b61348f82600101826040519081527f696e64657865730000000000000000000000000000000000000000000000000060208201526027016040518091039020613263565b61250382600201826040519081527f76616c756573000000000000000000000000000000000000000000000000000060208201526026016040518091039020613263565b815461326f9082613297565b815461326f90826132975600a165627a7a72305820ecbad8e3a28b3ea48fc71771e4c771e93cd809a8bf1f9ef391297a3ef09b45360029",
  "source": "pragma solidity ^0.4.11;\n\nimport \"../core/common/BaseManager.sol\";\nimport \"../core/common/Once.sol\";\nimport \"../core/erc20/ERC20ManagerInterface.sol\";\nimport \"../core/platform/ChronoBankAssetProxyInterface.sol\";\nimport \"../core/platform/ChronoBankAssetOwnershipManager.sol\";\nimport \"../core/platform/ChronoBankPlatformInterface.sol\";\nimport \"../core/platform/ChronoBankPlatform.sol\";\nimport \"./TokenManagementInterface.sol\";\nimport \"./AssetsManagerInterface.sol\";\nimport \"./AssetsManagerEmitter.sol\";\nimport \"./PlatformsManagerInterface.sol\";\nimport \"../core/lib/AssetsManagerAggregations.sol\";\n\ncontract OwnedContract {\n    address public contractOwner;\n}\n\n\ncontract TokenExtensionsFactory {\n    function createTokenExtension(address _platform) returns (address);\n}\n\n\ncontract EventsHistory {\n    function authorize(address _eventEmitter) returns (bool);\n    function reject(address _eventEmitter);\n}\n\n\n/**\n* @title AssetsManager is a helper contract which allows centralized access to tokens' management\n* on top of chronobank platforms. It is used in pair with PlatformsManager and provides\n* a creation of token extensions for platforms.\n* Contract also has methods for quick access to token info such as:\n* - token address by symbol,\n* - if token exists in a system,\n* - if a user is a owner of a token.\n*\n* @dev This contract contains statistics getters but they are deprecated and will be removed soon.\n*\n*/\ncontract AssetsManager is AssetsManagerInterface, TokenExtensionRegistry, AssetOwningListener, BaseManager, AssetsManagerEmitter {\n\n    /** Error codes */\n\n    uint constant ERROR_ASSETS_MANAGER_SYMBOL_ALREADY_EXISTS = 30001;\n    uint constant ERROR_ASSETS_MANAGER_INVALID_INVOCATION = 30002;\n    uint constant ERROR_ASSETS_MANAGER_EXTENSION_ALREADY_EXISTS = 30003;\n\n    /** Storage keys */\n\n    /** @dev address of a token extension factory contract  */\n    StorageInterface.Address tokenExtensionFactory;\n\n    /** @dev address of a token and proxy factory contract */\n    StorageInterface.Address tokenFactory;\n\n    /** @dev mapping (address => address) stands for (platform => tokenExtension) */\n    StorageInterface.AddressAddressMapping platformToExtension;\n\n    /** @dev collection of addresses of token extensions registered in AssetsManager */\n    StorageInterface.OrderedAddressesSet tokenExtensions;\n\n    /** @dev mapping (address => set(address)) stands for (user => set(platform)) */\n    StorageInterface.AddressesSetMapping userToParticipatedPlatforms;\n\n    /** @dev mapping (bytes32 => set(bytes32)) stands for (hash(user,platform) => set(tokenSymbol)) */\n    StorageInterface.Bytes32SetMapping userWithPlatformToOwnedSymbols;\n\n    /** @dev mapping (bytes32 => set(address)) stands for (hash(tokenSymbol,platform) => set(user)) */\n    StorageInterface.AddressesSetMapping symbolWithPlatformToUsers;\n\n    /**\n    * @dev Guards methods for callers that are owners of a platform\n    */\n    modifier onlyPlatformOwner(address _platform) {\n        if (OwnedContract(_platform).contractOwner() == msg.sender) {\n            _;\n        }\n    }\n\n    /**\n    * @dev Guards methods where caller is AssetOwnershipResolver\n    */\n    modifier onlyResolver {\n        if (lookupManager(\"AssetOwnershipResolver\") == msg.sender) {\n            _;\n        }\n    }\n\n    /**\n    * Constructor function\n    *\n    * @param _store link to a global storage\n    * @param _crate namespace in a storage\n    */\n    function AssetsManager(Storage _store, bytes32 _crate) BaseManager(_store, _crate) {\n        tokenExtensionFactory.init(\"tokenExtensionFactory\");\n        tokenFactory.init(\"tokenFactory\");\n        platformToExtension.init(\"v1platformToExtension\");\n        tokenExtensions.init(\"v1tokenExtensions\");\n        userToParticipatedPlatforms.init(\"v1userToParticipatedPlatforms\");\n        userWithPlatformToOwnedSymbols.init(\"v1userWithPlatformToOwnedSymbols\");\n        symbolWithPlatformToUsers.init(\"v1symbolWithPlatformToUsers\");\n    }\n\n    /**\n    * @dev Initalizer. Used by contract owner to initialize and re-initialize contract after deploying new versions\n    * of related dependencies.\n    *\n    * @param _contractsManager contracts manager\n    * @param _tokenExtensionFactory token extension factory address\n    * @param _tokenFactory token and proxy factory address\n    *\n    * @return result code of an operation. `OK` if all went well\n    */\n    function init(address _contractsManager, address _tokenExtensionFactory, address _tokenFactory) onlyContractOwner public returns (uint) {\n        BaseManager.init(_contractsManager, \"AssetsManager\");\n        setTokenExtensionFactory(_tokenExtensionFactory);\n        setTokenFactory(_tokenFactory);\n\n        return OK;\n    }\n\n    /**\n    * @dev Gets an address of currenty used token extension factory\n    *\n    * @return address of a factory\n    */\n    function getTokenExtensionFactory() public constant returns (address) {\n        return store.get(tokenExtensionFactory);\n    }\n\n    /**\n    * @dev Sets a new address of token extension factory contract as currently used in AssetsManager\n    *\n    * @param _tokenExtensionFactory address of an updated token extension factory contract\n    *\n    * @return result code of an operation. `OK` if all went well\n    */\n    function setTokenExtensionFactory(address _tokenExtensionFactory) onlyContractOwner public returns (uint) {\n        require(_tokenExtensionFactory != 0x0);\n\n        store.set(tokenExtensionFactory, _tokenExtensionFactory);\n        return OK;\n    }\n\n    /**\n    * @dev Gets an address of currenty used token and proxy factory\n    *\n    * @return address of a factory\n    */\n    function getTokenFactory() public constant returns (address) {\n        return store.get(tokenFactory);\n    }\n\n    /**\n    * @dev Sets a new address of token and proxy factory contract as currently used in AssetsManager\n    *\n    * @param _tokenFactory address of an updated token and proxy factory contract\n    *\n    * @return result code of an operation. `OK` if all went well\n    */\n    function setTokenFactory(address _tokenFactory) onlyContractOwner public returns (uint) {\n        require(_tokenFactory != 0x0);\n\n        store.set(tokenFactory, _tokenFactory);\n        return OK;\n    }\n\n    /**\n    * @dev Checks if a provided token extension address is a part of the system\n    *\n    * @param _tokenExtension address of a token extension\n    *\n    * @return `true` if a token extension is inside AssetsManager, `false` otherwise\n    */\n    function containsTokenExtension(address _tokenExtension) public constant returns (bool) {\n        return store.includes(tokenExtensions, _tokenExtension);\n    }\n\n    /**\n    * @dev Implements AssetOwningListener interface to provide an ability to track asset ownership\n    * from chronobank platforms.\n    * Should be called when new owner of a symbol is added in a platform.\n    * Allowed to be invoked only by AssetOwnershipResolver.\n    *\n    * DEPRECATED. WILL BE REMOVED IN NEXT RELEASES\n    *\n    * @param _symbol token's associated symbol\n    * @param _platform address of a platform where asset's ownership had changed\n    * @param _owner user which was added as an owner of the token\n    */\n    function assetOwnerAdded(bytes32 _symbol, address _platform, address _owner) onlyResolver public {\n        bytes32 _symbolKey = keccak256(_owner, _platform);\n        if (store.includes(userWithPlatformToOwnedSymbols, _symbolKey, _symbol)) {\n            return;\n        }\n\n        store.add(userToParticipatedPlatforms, bytes32(_owner), _platform);\n        store.add(userWithPlatformToOwnedSymbols, _symbolKey, _symbol);\n        store.add(symbolWithPlatformToUsers, keccak256(_symbol, _platform), _owner);\n    }\n\n    /**\n    * @dev Implements AssetOwningListener interface to provide an ability to track asset ownership\n    * from chronobank platforms.\n    * Should be called when an existed owner of a symbol is removed in a platform.\n    * Allowed to be invoked only by AssetOwnershipResolver.\n    *\n    * DEPRECATED. WILL BE REMOVED IN NEXT RELEASES\n    *\n    * @param _symbol token's associated symbol\n    * @param _platform address of a platform where asset's ownership had changed\n    * @param _owner user which was removed from the token's ownership\n    */\n    function assetOwnerRemoved(bytes32 _symbol, address _platform, address _owner) onlyResolver public {\n        bytes32 _symbolKey = keccak256(_owner, _platform);\n        if (!store.includes(userWithPlatformToOwnedSymbols, _symbolKey, _symbol)) {\n            return;\n        }\n\n        store.remove(userWithPlatformToOwnedSymbols, _symbolKey, _symbol);\n\n        if (store.count(userWithPlatformToOwnedSymbols, _symbolKey) == 0) {\n            store.remove(userToParticipatedPlatforms, bytes32(_owner), _platform);\n        }\n        store.remove(symbolWithPlatformToUsers, keccak256(_symbol, _platform), _owner);\n    }\n\n    /**\n    * @dev Registers and stores token extension of a platform into the system. Mostly this method should be used\n    * when platform's token extention was removed manually from AssetsManager or there was no token extension at all.\n    * It is preferred to create token extension by calling requestTokenExtension: this will ensure that the latest\n    * version of token extension contract will be used.\n    * There might be ONLY ONE token extension at a time associated with a platform and be registered in the system.\n    * Can be used only by platform's owner associated with this token extension.\n    *\n    * @param _tokenExtension address of token extension\n    *\n    * @return result code of an operation. ERROR_ASSETS_MANAGER_EXTENSION_ALREADY_EXISTS, ERROR_ASSETS_MANAGER_EXTENSION_ALREADY_EXISTS\n    *           might be returned.\n    */\n    function registerTokenExtension(address _tokenExtension) onlyPlatformOwner(TokenManagementInterface(_tokenExtension).platform()) public returns (uint) {\n        if (store.includes(tokenExtensions, _tokenExtension)) {\n            return _emitError(ERROR_ASSETS_MANAGER_EXTENSION_ALREADY_EXISTS);\n        }\n\n        address _platform = TokenManagementInterface(_tokenExtension).platform();\n        if (store.get(platformToExtension, _platform) != 0x0) {\n            return _emitError(ERROR_ASSETS_MANAGER_EXTENSION_ALREADY_EXISTS);\n        }\n\n        _setupTokenExtension(_platform, _tokenExtension);\n        _emitTokenExtensionRegistered(_platform, _tokenExtension);\n        return OK;\n    }\n\n    /**\n    * @dev Unregisters and removes token extension from the system. It should be used when you know what are you doing,\n    * because it will remove record of token extension for a platform and to continue using an associated token extension\n    * with platform you should register a new token extension address or request a brand new one (see `requestTokenExtension` method).\n    * Can be used only by platform's owner associated with this token extension.\n    *\n    * @param _tokenExtension address of a token extension\n    *\n    * @return result code of an operation. ERROR_ASSETS_MANAGER_INVALID_INVOCATION might be returned.\n    */\n    function unregisterTokenExtension(address _tokenExtension) onlyPlatformOwner(TokenManagementInterface(_tokenExtension).platform()) public returns (uint) {\n        if (!store.includes(tokenExtensions, _tokenExtension)) {\n            return _emitError(ERROR_ASSETS_MANAGER_INVALID_INVOCATION);\n        }\n\n        store.remove(tokenExtensions, _tokenExtension);\n        store.set(platformToExtension, TokenManagementInterface(_tokenExtension).platform(), 0x0);\n        EventsHistory(getEventsHistory()).reject(_tokenExtension);\n\n        _emitTokenExtensionUnregistered(_tokenExtension);\n        return OK;\n    }\n\n    /**\n    * @dev Provides a way to \"request\" (meant check if a token extension exists for a passed platform and if it doesn't then\n    * create a new one).\n    *\n    * @param _platform address of a platform for which token extension is requested\n    *\n    * @return result code of an operation.\n    */\n    function requestTokenExtension(address _platform) public returns (uint) {\n        address _tokenExtension = getTokenExtension(_platform);\n        if (_tokenExtension != 0x0) {\n            _emitTokenExtensionRequested(_platform, _tokenExtension);\n            return OK;\n        }\n\n        TokenExtensionsFactory _extensionsFactory = TokenExtensionsFactory(store.get(tokenExtensionFactory));\n        _tokenExtension = _extensionsFactory.createTokenExtension(_platform);\n        _setupTokenExtension(_platform, _tokenExtension);\n\n        _emitTokenExtensionRequested(_platform, _tokenExtension);\n        return OK;\n    }\n\n    /**\n    * @dev Gets an associated token extension address with provided platform. If no token extension was found\n    * then return 0x0.\n    *\n    * @param _platform platform address for associated token extension\n    *\n    * @return address of found token extension\n    */\n    function getTokenExtension(address _platform) public constant returns (address) {\n        return store.get(platformToExtension, _platform);\n    }\n\n    /**\n    * @dev Checks if a user has access rights and an owner of a token with provided symbol\n    *\n    * @param _symbol symbol associated with some token\n    * @param _user a user which should be tested for ownership\n    *\n    * @return `true` if a user is an owner, `false` otherwise\n    */\n    function isAssetOwner(bytes32 _symbol, address _user) public constant returns (bool) {\n        return AssetsManagerAggregations.isAssetOwner(store, platformToExtension, _symbol, getAssetBySymbol(_symbol), _user);\n    }\n\n    /**\n    * @dev Checks if a token with such symbol is registered in the system\n    *\n    * @param _symbol symbol associated with some token\n    *\n    * @return `true` if token with passed symbol exists, `false` otherwise\n    */\n    function isAssetSymbolExists(bytes32 _symbol) public constant returns (bool) {\n        return getAssetBySymbol(_symbol) != 0x0;\n    }\n\n    /**\n    * @dev Gets token's address which is associated with a symbol\n    *\n    * @param _symbol symbol associated with some token\n    *\n    * @return address of a token with passed symbol\n    */\n    function getAssetBySymbol(bytes32 _symbol) public constant returns (address) {\n        return ERC20ManagerInterface(lookupManager(\"ERC20Manager\")).getTokenAddressBySymbol(_symbol);\n    }\n\n    /**\n    * @dev STATISTICS.\n    * Returns all platforms where user is participating: has an asset in ownership or owning the whole platform.\n    *\n    * DEPRECATED. WILL BE REMOVED IN NEXT RELEASES\n    *\n    * @param _user user\n    *\n    * @return _platforms list of platforms. Could contain repeated platforms so it is recommended to sift duplicates\n    */\n    function getParticipatingPlatformsForUser(address _user) public constant returns (address[] _platforms) {\n        PlatformsManagerInterface _platformsManager = PlatformsManagerInterface(lookupManager(\"PlatformsManager\"));\n        uint _partricipatedPlatformsCount = store.count(userToParticipatedPlatforms, bytes32(_user));\n        _platforms = new address[](_platformsManager.getPlatformsForUserCount(_user) + _partricipatedPlatformsCount);\n        uint _platformIdx;\n        for (_platformIdx = 0; _platformIdx < _partricipatedPlatformsCount; ++_platformIdx) {\n            _platforms[_platformIdx] = store.get(userToParticipatedPlatforms, bytes32(_user), _platformIdx);\n        }\n        for (uint _userPlatformIdx = 0; _platformIdx < _platforms.length; ++_platformIdx) {\n            _platforms[_platformIdx] = _platformsManager.getPlatformForUserAtIndex(_user, _userPlatformIdx++);\n        }\n    }\n\n    /**\n    * @dev Gets a number of assets in a platform where passed user is an owner.\n    *\n    * @param _platform hosting platform\n    * @param _owner user to be checked for ownership\n    *\n    * @return a number of assets in user's ownership\n    */\n    function getAssetsForOwnerCount(address _platform, address _owner) public constant returns (uint) {\n        return AssetsManagerAggregations.getAssetsForOwnerCount(getTokenExtension(_platform), _owner);\n    }\n\n    /**\n    * @dev Returns the exact asset symbol hosted in a platform with passed user as an owner by accessing it by index.\n    *\n    * @param _platform hosting platform\n    * @param _owner user to be checked for ownership\n    * @param _idx index of a symbol. Should no more than number of assets for this owner minus 1\n    *\n    * @return symbol of an asset\n    */\n    function getAssetForOwnerAtIndex(address _platform, address _owner, uint _idx) public constant returns (bytes32) {\n        return AssetsManagerAggregations.getAssetForOwnerAtIndex(getTokenExtension(_platform), _owner, _idx);\n    }\n\n    /**\n    * @dev STATISTICS.\n    * Returns number of assets that are in ownership by an owner regarding the whole system.\n    *\n    * DEPRECATED. WILL BE REMOVED IN NEXT RELEASES\n    *\n    * @param _owner user to be checked for ownership\n    *\n    * @return number of assets\n    */\n    function getSystemAssetsForOwnerCount(address _owner) public constant returns (uint) {\n        return AssetsManagerAggregations.getSystemAssetsForOwnerCount(store, userToParticipatedPlatforms, userWithPlatformToOwnedSymbols, _owner);\n    }\n\n    /**\n    * @dev STATISTICS.\n    * Returns assets that are in ownership by an owner regarding the whole system.\n    *\n    * DEPRECATED. WILL BE REMOVED IN NEXT RELEASES\n    *\n    * @param _owner user to be checked for ownership\n    *\n    * @return {\n    *   _tokens: list of tokens found in ownership of passed user\n    *   _tokenPlatforms: associated platforms where found tokens are hosted\n    *   _totalSupplies: associated total supplies for returned tokens\n    * }\n    */\n    function getSystemAssetsForOwner(address _owner) public constant returns (address[] _tokens, address[] _tokenPlatforms, uint[] _totalSupplies) {\n        uint _assetsCount = getSystemAssetsForOwnerCount(_owner);\n        _tokens = new address[](_assetsCount);\n        _tokenPlatforms = new address[](_assetsCount);\n        _totalSupplies = new uint[](_assetsCount);\n\n        bytes32 _ownerKey = bytes32(_owner);\n        uint _platformsCount = store.count(userToParticipatedPlatforms, _ownerKey);\n        uint _assetPointer;\n        address _platform;\n        bytes32 _symbolKey;\n        for (uint _platformIdx = 0; _platformIdx < _platformsCount; ++_platformIdx) {\n            _platform = store.get(userToParticipatedPlatforms, _ownerKey, _platformIdx);\n            ChronoBankPlatformInterface _chronoBankPlatform = ChronoBankPlatformInterface(_platform);\n            _symbolKey = keccak256(_owner, _platform);\n            uint _symbolsCount = store.count(userWithPlatformToOwnedSymbols, _symbolKey);\n            if (_symbolsCount != 0) {\n                _tokenPlatforms[_assetPointer] = _platform;\n            }\n            bytes32 _symbol;\n            for (uint _symbolIdx = 0; _symbolIdx < _symbolsCount; ++_symbolIdx) {\n                _symbol = store.get(userWithPlatformToOwnedSymbols, _symbolKey, _symbolIdx);\n                _tokens[_assetPointer] = _chronoBankPlatform.proxies(_symbol);\n                _totalSupplies[_assetPointer] = _chronoBankPlatform.totalSupply(_symbol);\n                _assetPointer += 1;\n            }\n        }\n    }\n\n    /**\n    * @dev STATISTICS.\n    * Returns list of owners (managers) that owns or has access rights to a token with passed symbolWithPlatformToUsers\n    *\n    * DEPRECATED. WILL BE REMOVED IN NEXT RELEASES\n    *\n    * @param _symbol symbol associated with some token\n    *\n    * @return _managers list of owners\n    */\n    function getManagersForAssetSymbol(bytes32 _symbol) public constant returns (address[] _managers) {\n        address _token = getAssetBySymbol(_symbol);\n        address _platform = ChronoBankAssetProxyInterface(_token).chronoBankPlatform();\n        _managers = store.get(symbolWithPlatformToUsers, keccak256(_symbol, _platform));\n    }\n\n    /**\n    * @dev STATISTICS.\n    * Returns owners (managers) that has something in ownership inside user's ecosystem (in platforms that passed user owns).\n    *\n    * DEPRECATED. WILL BE REMOVED IN NEXT RELEASES\n    *\n    * @param _owner user\n    *\n    * @return list of managers\n    */\n    function getManagers(address _owner) public constant returns (address[]) {\n        return AssetsManagerAggregations.getManagers(store, symbolWithPlatformToUsers, lookupManager(\"PlatformsManager\"), _owner);\n    }\n\n    /** Helper functions */\n\n    /**\n    * @dev Binds some internal variables during token extension setup.\n    * PRIVATE\n    */\n    function _setupTokenExtension(address _platform, address _tokenExtension) private {\n        assert(EventsHistory(getEventsHistory()).authorize(_tokenExtension));\n\n        store.add(tokenExtensions, _tokenExtension);\n        store.set(platformToExtension, _platform, _tokenExtension);\n    }\n\n    /** Events emitting */\n\n    function _emitError(uint _errorCode) private returns (uint) {\n        AssetsManagerEmitter(getEventsHistory()).emitError(_errorCode);\n        return _errorCode;\n    }\n\n    function _emitTokenExtensionRequested(address _platform, address _tokenExtension) private {\n        AssetsManagerEmitter(getEventsHistory()).emitTokenExtensionRequested(_platform, _tokenExtension);\n    }\n\n    function _emitTokenExtensionRegistered(address _platform, address _tokenExtension) private {\n        AssetsManagerEmitter(getEventsHistory()).emitTokenExtensionRegistered(_platform, _tokenExtension);\n    }\n\n    function _emitTokenExtensionUnregistered(address _tokenExtension) private {\n        AssetsManagerEmitter(getEventsHistory()).emitTokenExtensionUnregistered(_tokenExtension);\n    }\n}\n",
  "sourcePath": "/Users/mikefluff/Documents/Programming/Chronobank/test/SmartContracts/contracts/assets/AssetsManager.sol",
  "compiler": {
    "name": "solc",
    "version": "0.4.18+commit.9cf6e910.Emscripten.clang"
  },
  "schemaVersion": "1.0.1",
  "updatedAt": "2018-01-12T11:40:44.589Z"
}