{
  "contractName": "AssetsManagerAggregations",
  "abi": [
    {
      "constant": true,
      "inputs": [
        {
          "name": "_tokenExtensionAddr",
          "type": "address"
        },
        {
          "name": "_owner",
          "type": "address"
        }
      ],
      "name": "getAssetsForOwnerCount",
      "outputs": [
        {
          "name": "count",
          "type": "uint256"
        }
      ],
      "payable": false,
      "stateMutability": "view",
      "type": "function"
    },
    {
      "constant": true,
      "inputs": [
        {
          "name": "_tokenExtensionAddr",
          "type": "address"
        },
        {
          "name": "_owner",
          "type": "address"
        },
        {
          "name": "_idx",
          "type": "uint256"
        }
      ],
      "name": "getAssetForOwnerAtIndex",
      "outputs": [
        {
          "name": "",
          "type": "bytes32"
        }
      ],
      "payable": false,
      "stateMutability": "view",
      "type": "function"
    },
    {
      "constant": true,
      "inputs": [
        {
          "name": "store",
          "type": "StorageInterface.Config storage"
        },
        {
          "name": "_platformToExtension",
          "type": "StorageInterface.AddressAddressMapping storage"
        },
        {
          "name": "_symbol",
          "type": "bytes32"
        },
        {
          "name": "_token",
          "type": "address"
        },
        {
          "name": "_user",
          "type": "address"
        }
      ],
      "name": "isAssetOwner",
      "outputs": [
        {
          "name": "",
          "type": "bool"
        }
      ],
      "payable": false,
      "stateMutability": "view",
      "type": "function"
    },
    {
      "constant": true,
      "inputs": [
        {
          "name": "store",
          "type": "StorageInterface.Config storage"
        },
        {
          "name": "_userToPlatformsCollection",
          "type": "StorageInterface.AddressesSetMapping storage"
        },
        {
          "name": "_userWithPlatformToOwnedSymbols",
          "type": "StorageInterface.Bytes32SetMapping storage"
        },
        {
          "name": "_owner",
          "type": "address"
        }
      ],
      "name": "getSystemAssetsForOwnerCount",
      "outputs": [
        {
          "name": "count",
          "type": "uint256"
        }
      ],
      "payable": false,
      "stateMutability": "view",
      "type": "function"
    }
  ],
  "bytecode": "0x6060604052341561000f57600080fd5b6108ad8061001e6000396000f3006060604052600436106100485763ffffffff60e060020a60003504166317db1071811461004d5780632cd060ce146100795780634231b30e146100965780638c569aac146100cd575b600080fd5b610067600160a060020a03600435811690602435166100ea565b60405190815260200160405180910390f35b610067600160a060020a03600435811690602435166044356102c6565b6100b9600435602435604435600160a060020a03606435811690608435166104bd565b604051901515815260200160405180910390f35b610067600435602435604435600160a060020a0360643516610619565b60008281808080600160a060020a0385166394d0169f82604051602001526040518163ffffffff1660e060020a028152600401602060405180830381600087803b151561013657600080fd5b6102c65a03f1151561014757600080fd5b5050506040518051945050600160a060020a03841663ecac7f4b6000604051602001526040518163ffffffff1660e060020a028152600401602060405180830381600087803b151561019857600080fd5b6102c65a03f115156101a957600080fd5b5050506040518051935060009250505b828210156102bb5783600160a060020a031663ccce413b8360006040516020015260405160e060020a63ffffffff84160281526004810191909152602401602060405180830381600087803b151561021057600080fd5b6102c65a03f1151561022157600080fd5b5050506040518051915050600160a060020a03841663ccc11f11888360006040516020015260405160e060020a63ffffffff8516028152600160a060020a0390921660048301526024820152604401602060405180830381600087803b151561028957600080fd5b6102c65a03f1151561029a57600080fd5b50505060405180519050156102b0576001909501945b8160010191506101b9565b505050505092915050565b6000838180808080600160a060020a0386166394d0169f82604051602001526040518163ffffffff1660e060020a028152600401602060405180830381600087803b151561031357600080fd5b6102c65a03f1151561032457600080fd5b505050604051805195505060001988019350600160a060020a03851663ecac7f4b6000604051602001526040518163ffffffff1660e060020a028152600401602060405180830381600087803b151561037c57600080fd5b6102c65a03f1151561038d57600080fd5b50505060405180519350889250505b828210156104b05784600160a060020a031663ccce413b8360006040516020015260405160e060020a63ffffffff84160281526004810191909152602401602060405180830381600087803b15156103f357600080fd5b6102c65a03f1151561040457600080fd5b5050506040518051915050600160a060020a03851663ccc11f118a8360006040516020015260405160e060020a63ffffffff8516028152600160a060020a0390921660048301526024820152604401602060405180830381600087803b151561046c57600080fd5b6102c65a03f1151561047d57600080fd5b50505060405180519050801561049857508784600101945084145b156104a5578096506104b0565b81600101915061039c565b5050505050509392505050565b60008060008085600160a060020a03166349752baf6000604051602001526040518163ffffffff1660e060020a028152600401602060405180830381600087803b151561050957600080fd5b6102c65a03f1151561051a57600080fd5b5050506040518051905092506105318989856106b9565b915081600160a060020a03166394d0169f6000604051602001526040518163ffffffff1660e060020a028152600401602060405180830381600087803b151561057957600080fd5b6102c65a03f1151561058a57600080fd5b5050506040518051915050600160a060020a03811663ccc11f11868960006040516020015260405160e060020a63ffffffff8516028152600160a060020a0390921660048301526024820152604401602060405180830381600087803b15156105f257600080fd5b6102c65a03f1151561060357600080fd5b50505060405180519a9950505050505050505050565b6000600160a060020a038216818061063888888563ffffffff6106d416565b9150600090505b818110156106ae576106a2868661065e8b8b888763ffffffff6106e116565b6040516c01000000000000000000000000600160a060020a0393841681028252919092160260148201526028016040519081900390208a919063ffffffff6106f816565b9093019260010161063f565b505050949350505050565b60006106cc84848463ffffffff61070516565b949350505050565b60006106cc8484846106f8565b60006106ef8585858561071b565b95945050505050565b60006106cc848484610729565b60006106cc8484600160a060020a038516610736565b60006106ef858585856107d0565b60006106cc8484846107e4565b825460018401548354600092600160a060020a0316916337d9d7fc9185604051918252602082015260409081019051809103902060006040516020015260405160e060020a63ffffffff851602815260048101929092526024820152604401602060405180830381600087803b15156107ae57600080fd5b6102c65a03f115156107bf57600080fd5b505050604051805195945050505050565b60006106ef8560028601856001860161085c565b825460018401548354600092600160a060020a0316916353aa3f5e9185604051918252602082015260409081019051809103902060006040516020015260405160e060020a63ffffffff851602815260048101929092526024820152604401602060405180830381600087803b15156107ae57600080fd5b60006106ef8585858560405191825260208201526040908101905180910390206107365600a165627a7a72305820aeda4e5f2fb593cb8fbdbcff94ccd64e47ee55e33272f6f847061fdfa36048870029",
  "source": "pragma solidity ^0.4.11;\n\nimport \"../storage/Storage.sol\";\nimport \"../storage/StorageInterface.sol\";\nimport \"../platform/ChronoBankPlatformInterface.sol\";\nimport \"../platform/ChronoBankAssetOwnershipManager.sol\";\nimport \"../platform/ChronoBankAssetProxyInterface.sol\";\nimport \"../../assets/PlatformsManagerInterface.sol\";\nimport \"../../assets/TokenManagementInterface.sol\";\n\n\n/**\n* @title Contract serves as a library for AssetsManager to provide implementations for some statistics methods.\n* Since statistics methods are needed no more, they will be removed in future releases.\n*/\nlibrary AssetsManagerAggregations {\n\n    using StorageInterface for *;\n\n    function getTokenExtension(\n        StorageInterface.Config storage store,\n        StorageInterface.AddressAddressMapping storage _platformToExtension,\n        address _platform\n    )\n    internal constant returns (address)\n    {\n        return store.get(_platformToExtension, _platform);\n    }\n\n    /**\n    * @dev Checks if symbol is really in ownership of user\n    */\n    function isAssetOwner(\n        StorageInterface.Config storage store,\n        StorageInterface.AddressAddressMapping storage _platformToExtension,\n        bytes32 _symbol,\n        address _token,\n        address _user\n    )\n    public constant returns (bool)\n    {\n        address _platform = ChronoBankAssetProxyInterface(_token).chronoBankPlatform();\n        address _tokenExtension = getTokenExtension(store, _platformToExtension, _platform);\n        address _assetOwnershipManager = TokenManagementInterface(_tokenExtension).getAssetOwnershipManager();\n        return ChronoBankAssetOwnershipManager(_assetOwnershipManager).hasAssetRights(_user, _symbol);\n    }\n\n    /**\n    * @dev Gets asset from a list of assets for provided user\n    */\n    function getAssetForOwnerAtIndex(\n        address _tokenExtensionAddr,\n        address _owner,\n        uint _idx\n    )\n    public constant returns (bytes32)\n    {\n        TokenManagementInterface _tokenExtension = TokenManagementInterface(_tokenExtensionAddr);\n        ChronoBankAssetOwnershipManager _assetsOwnershipManager = ChronoBankAssetOwnershipManager(_tokenExtension.getAssetOwnershipManager());\n\n        uint currentIdx = _idx - 1;\n        uint symbolsCount = _assetsOwnershipManager.symbolsCount();\n        uint symbolsIdx;\n        bytes32 _symbol;\n        for (symbolsIdx = _idx; symbolsIdx < symbolsCount; ++symbolsIdx) {\n            _symbol = _assetsOwnershipManager.symbols(symbolsIdx);\n            if (_assetsOwnershipManager.hasAssetRights(_owner, _symbol) && ++currentIdx == _idx) {\n                return _symbol;\n            }\n        }\n    }\n\n    /**\n    * @dev Gets a number of assets in ownership of provided user\n    */\n    function getAssetsForOwnerCount(\n        address _tokenExtensionAddr,\n        address _owner\n    )\n    public constant returns (uint count)\n    {\n        TokenManagementInterface _tokenExtension = TokenManagementInterface(_tokenExtensionAddr);\n        ChronoBankAssetOwnershipManager _assetsOwnershipManager = ChronoBankAssetOwnershipManager(_tokenExtension.getAssetOwnershipManager());\n\n        uint symbolsCount = _assetsOwnershipManager.symbolsCount();\n        uint symbolsIdx;\n        bytes32 _symbol;\n        for (symbolsIdx = 0; symbolsIdx < symbolsCount; ++symbolsIdx) {\n            _symbol = _assetsOwnershipManager.symbols(symbolsIdx);\n            if (_assetsOwnershipManager.hasAssetRights(_owner, _symbol)) {\n                count++;\n            }\n        }\n    }\n\n    /**\n    * @dev DEPRECATED. WILL BE REMOVED IN NEXT RELEASES\n    */\n    function getSystemAssetsForOwnerCount(\n        StorageInterface.Config storage store,\n        StorageInterface.AddressesSetMapping storage _userToPlatformsCollection,\n        StorageInterface.Bytes32SetMapping storage _userWithPlatformToOwnedSymbols,\n        address _owner\n    )\n    public constant returns (uint count)\n    {\n        bytes32 _ownerKey = bytes32(_owner);\n        uint _platformsCount = store.count(_userToPlatformsCollection, _ownerKey);\n        for (uint _platformIdx = 0; _platformIdx < _platformsCount; ++_platformIdx) {\n            count += store.count(_userWithPlatformToOwnedSymbols, keccak256(_owner, store.get(_userToPlatformsCollection, _ownerKey, _platformIdx)));\n        }\n    }\n\n    /**\n    * @dev DEPRECATED. WILL BE REMOVED IN NEXT RELEASES\n    */\n    function getManagers(\n        StorageInterface.Config storage store,\n        StorageInterface.AddressesSetMapping storage _symbolWithPlatformToUsers,\n        address _platformsManager,\n        address _owner\n    )\n    internal constant returns (address[] _managers)\n    {\n        PlatformsManagerInterface _platformsManagerInterface = PlatformsManagerInterface(_platformsManager);\n        uint _platformsCount = _platformsManagerInterface.getPlatformsForUserCount(_owner);\n        _managers = new address[](_numberOfManagers(_owner, _platformsManager));\n        uint _managersPointer = 0;\n        address[] memory _platformManagers;\n        for (uint _platformIdx = 0; _platformIdx < _platformsCount; ++_platformIdx) {\n            address _platform = _platformsManagerInterface.getPlatformForUserAtIndex(_owner, _platformIdx);\n            _platformManagers = getManagersForPlatform(store, _symbolWithPlatformToUsers, _platform);\n            _managersPointer = _copyArrayIntoArray(_platformManagers, _managers, _managersPointer);\n        }\n    }\n\n    /**\n    * @dev DEPRECATED. WILL BE REMOVED IN NEXT RELEASES\n    */\n    function getManagersForPlatform(\n        StorageInterface.Config storage store,\n        StorageInterface.AddressesSetMapping storage _symbolWithPlatformToUsers,\n        address _platform\n    )\n    private constant returns (address[] _managers)\n    {\n        ChronoBankPlatformInterface _managersRegistry = ChronoBankPlatformInterface(_platform);\n\n        uint _symbolsCount = _managersRegistry.symbolsCount();\n        _managers = new address[](ChronoBankManagersRegistry(_platform).holdersCount() * _symbolsCount);\n        uint _managersPointer;\n        address[] memory _symbolManagers;\n        bytes32 _symbol;\n        for (uint _symbolIdx = 0; _symbolIdx < _symbolsCount; ++_symbolIdx) {\n            _symbol = _managersRegistry.symbols(_symbolIdx);\n            _symbolManagers = store.get(_symbolWithPlatformToUsers, keccak256(_symbol, _platform));\n            _managersPointer = _copyArrayIntoArray(_symbolManagers, _managers, _managersPointer);\n        }\n    }\n\n    /**\n    * @dev DEPRECATED. WILL BE REMOVED IN NEXT RELEASES\n    */\n    function _copyArrayIntoArray(address[] _origin, address[] _destination, uint _pointer) private returns (uint) {\n        for (uint _originIdx = 0; _originIdx < _origin.length && _origin[_originIdx] != 0x0; ++_originIdx) {\n            _destination[_pointer++] = _origin[_originIdx];\n        }\n        return _pointer;\n    }\n\n    /**\n    * @dev DEPRECATED. WILL BE REMOVED IN NEXT RELEASES\n    */\n    function _numberOfManagers(address _owner, address _platformsManager) private constant returns (uint _count) {\n        PlatformsManagerInterface _platformsManagerInterface = PlatformsManagerInterface(_platformsManager);\n        uint _platformsCount = _platformsManagerInterface.getPlatformsForUserCount(_owner);\n\n        for (uint _platformIdx = 0; _platformIdx < _platformsCount; ++_platformIdx) {\n            address _platform = _platformsManagerInterface.getPlatformForUserAtIndex(_owner, _platformIdx);\n            _count += ChronoBankManagersRegistry(_platform).holdersCount() * ChronoBankPlatformInterface(_platform).symbolsCount();\n        }\n    }\n}\n",
  "sourcePath": "/Users/mikefluff/Documents/Programming/Chronobank/test/SmartContracts/contracts/core/lib/AssetsManagerAggregations.sol",
  "compiler": {
    "name": "solc",
    "version": "0.4.18+commit.9cf6e910.Emscripten.clang"
  },
  "schemaVersion": "1.0.1",
  "updatedAt": "2018-01-12T11:40:45.177Z"
}