{
  "contractName": "AssetDonator",
  "abi": [
    {
      "constant": false,
      "inputs": [
        {
          "name": "_contractManager",
          "type": "address"
        }
      ],
      "name": "init",
      "outputs": [],
      "payable": false,
      "stateMutability": "nonpayable",
      "type": "function"
    },
    {
      "constant": true,
      "inputs": [
        {
          "name": "",
          "type": "address"
        }
      ],
      "name": "timeDonations",
      "outputs": [
        {
          "name": "",
          "type": "bool"
        }
      ],
      "payable": false,
      "stateMutability": "view",
      "type": "function"
    },
    {
      "constant": false,
      "inputs": [],
      "name": "sendTime",
      "outputs": [
        {
          "name": "",
          "type": "bool"
        }
      ],
      "payable": false,
      "stateMutability": "nonpayable",
      "type": "function"
    }
  ],
  "bytecode": "0x6060604052341561000f57600080fd5b61032a8061001e6000396000f30060606040526004361061003d5763ffffffff60e060020a60003504166319ab453c811461004257806378fe391c14610063578063aa58a5b014610096575b600080fd5b341561004d57600080fd5b610061600160a060020a03600435166100a9565b005b341561006e57600080fd5b610082600160a060020a03600435166100ed565b604051901515815260200160405180910390f35b34156100a157600080fd5b610082610102565b600160a060020a03811615156100be57600080fd5b6000805473ffffffffffffffffffffffffffffffffffffffff1916600160a060020a0392909216919091179055565b60016020526000908152604090205460ff1681565b600160a060020a0333166000908152600160205260408120548190819060ff161561013057600092506102f9565b60008054600160a060020a03169063bc657927906040516020015260405160e060020a63ffffffff83160281527f45524332304d616e6167657200000000000000000000000000000000000000006004820152602401602060405180830381600087803b151561019f57600080fd5b6102c65a03f115156101b057600080fd5b5050506040518051925050600160a060020a03821663fa7fdeb77f54494d450000000000000000000000000000000000000000000000000000000060006040516020015260405160e060020a63ffffffff84160281526004810191909152602401602060405180830381600087803b151561022a57600080fd5b6102c65a03f1151561023b57600080fd5b5050506040518051915050600160a060020a03811663a9059cbb33633b9aca0060006040516020015260405160e060020a63ffffffff8516028152600160a060020a0390921660048301526024820152604401602060405180830381600087803b15156102a757600080fd5b6102c65a03f115156102b857600080fd5b5050506040518051905015156102d157600092506102f9565b600160a060020a0333166000908152600160208190526040909120805460ff19168217905592505b5050905600a165627a7a72305820dcfde3bd4fabadbbad9b5c3a87de6be04787808bcc1659d6ddb0ba916b1c82140029",
  "source": "pragma solidity ^0.4.11;\n\nimport \"../core/contracts/ContractsManagerInterface.sol\";\nimport \"../core/erc20/ERC20Manager.sol\";\nimport \"../core/erc20/ERC20Interface.sol\";\n\n/**\n*  @title AssetDonator\n*\n*  @notice Created only for test purposes! Do not allow to deploy this contract\n*  in production network.\n*\n*/\ncontract AssetDonator {\n    address contractManager;\n    mapping (address => bool) public timeDonations;\n\n    function init(address _contractManager) public {\n        require(_contractManager != 0x0);\n        contractManager = _contractManager;\n    }\n\n    /**\n    *  @notice Sends 10 TIME to caller.\n    *  @notice It is permitted to send TIMEs only once.\n    *\n    *  @return success or not\n    */\n    function sendTime() public returns (bool) {\n        if (timeDonations[msg.sender]) {\n           return false;\n        }\n\n        address erc20Manager = ContractsManagerInterface(contractManager)\n              .getContractAddressByType(\"ERC20Manager\");\n        address token = ERC20Manager(erc20Manager).getTokenAddressBySymbol(bytes32(\"TIME\"));\n\n\n        if (!ERC20Interface(token).transfer(msg.sender, 1000000000)) {\n            return false;\n        }\n\n        timeDonations[msg.sender] = true;\n        return true;\n    }\n}\n",
  "sourcePath": "/Users/ahiatsevich/Development/chronobank/SmartContracts/contracts/helpers/AssetDonator.sol",
  "compiler": {
    "name": "solc",
    "version": "0.4.18+commit.9cf6e910.Emscripten.clang"
  },
  "schemaVersion": "1.0.1",
  "updatedAt": "2017-12-15T11:25:50.018Z"
}