{
  "contractName": "AssetOwnershipDelegateResolver",
  "abi": [
    {
      "constant": false,
      "inputs": [
        {
          "name": "_contractsManager",
          "type": "address"
        }
      ],
      "name": "init",
      "outputs": [
        {
          "name": "",
          "type": "uint256"
        }
      ],
      "payable": false,
      "stateMutability": "nonpayable",
      "type": "function"
    },
    {
      "constant": false,
      "inputs": [
        {
          "name": "_symbol",
          "type": "bytes32"
        },
        {
          "name": "_platform",
          "type": "address"
        },
        {
          "name": "_owner",
          "type": "address"
        }
      ],
      "name": "assetOwnerRemoved",
      "outputs": [],
      "payable": false,
      "stateMutability": "nonpayable",
      "type": "function"
    },
    {
      "constant": false,
      "inputs": [],
      "name": "claimContractOwnership",
      "outputs": [
        {
          "name": "",
          "type": "bool"
        }
      ],
      "payable": false,
      "stateMutability": "nonpayable",
      "type": "function"
    },
    {
      "constant": false,
      "inputs": [
        {
          "name": "_to",
          "type": "address"
        }
      ],
      "name": "changeContractOwnership",
      "outputs": [
        {
          "name": "",
          "type": "bool"
        }
      ],
      "payable": false,
      "stateMutability": "nonpayable",
      "type": "function"
    },
    {
      "constant": true,
      "inputs": [],
      "name": "pendingContractOwner",
      "outputs": [
        {
          "name": "",
          "type": "address"
        }
      ],
      "payable": false,
      "stateMutability": "view",
      "type": "function"
    },
    {
      "constant": false,
      "inputs": [
        {
          "name": "_symbol",
          "type": "bytes32"
        },
        {
          "name": "_platform",
          "type": "address"
        },
        {
          "name": "_owner",
          "type": "address"
        }
      ],
      "name": "assetOwnerAdded",
      "outputs": [],
      "payable": false,
      "stateMutability": "nonpayable",
      "type": "function"
    },
    {
      "constant": false,
      "inputs": [],
      "name": "destroy",
      "outputs": [],
      "payable": false,
      "stateMutability": "nonpayable",
      "type": "function"
    },
    {
      "constant": false,
      "inputs": [
        {
          "name": "_to",
          "type": "address"
        }
      ],
      "name": "transferContractOwnership",
      "outputs": [
        {
          "name": "",
          "type": "bool"
        }
      ],
      "payable": false,
      "stateMutability": "nonpayable",
      "type": "function"
    },
    {
      "constant": true,
      "inputs": [],
      "name": "contractOwner",
      "outputs": [
        {
          "name": "",
          "type": "address"
        }
      ],
      "payable": false,
      "stateMutability": "view",
      "type": "function"
    },
    {
      "inputs": [],
      "payable": false,
      "stateMutability": "nonpayable",
      "type": "constructor"
    }
  ],
  "bytecode": "0x6060604052341561000f57600080fd5b60008054600160a060020a033316600160a060020a03199091161790556107ce8061003b6000396000f30060606040526004361061007f5763ffffffff60e060020a60003504166319ab453c811461008457806326046743146100b55780634592cd1d146100df578063557f4bc9146101065780635aa77d3c14610125578063660a333e1461015457806383197ef01461017c578063a843c51f1461018f578063ce606ee0146101ae575b600080fd5b341561008f57600080fd5b6100a3600160a060020a03600435166101c1565b60405190815260200160405180910390f35b34156100c057600080fd5b6100dd600435600160a060020a03602435811690604435166102ae565b005b34156100ea57600080fd5b6100f261042e565b604051901515815260200160405180910390f35b341561011157600080fd5b6100f2600160a060020a0360043516610486565b341561013057600080fd5b6101386104e6565b604051600160a060020a03909116815260200160405180910390f35b341561015f57600080fd5b6100dd600435600160a060020a03602435811690604435166104f5565b341561018757600080fd5b6100dd610659565b341561019a57600080fd5b6100f2600160a060020a036004351661067e565b34156101b957600080fd5b61013861070f565b6000805433600160a060020a03908116911614156102a957600160a060020a03821615156101ee57600080fd5b6002805473ffffffffffffffffffffffffffffffffffffffff1916600160a060020a03841690811790915563b7c46cd53060006040516020015260405160e060020a63ffffffff8416028152600160a060020a0390911660048201527f41737365744f776e6572736869705265736f6c766572000000000000000000006024820152604401602060405180830381600087803b151561028c57600080fd5b6102c65a03f1151561029d57600080fd5b50505060405180519150505b919050565b8160006102da7f506c6174666f726d734d616e616765720000000000000000000000000000000061071e565b905033600160a060020a031682600160a060020a031614801561036b575080600160a060020a031663c7eff32e8360006040516020015260405160e060020a63ffffffff8416028152600160a060020a039091166004820152602401602060405180830381600087803b151561034f57600080fd5b6102c65a03f1151561036057600080fd5b505050604051805190505b80610387575080600160a060020a031633600160a060020a0316145b15610427576103b57f4173736574734d616e616765720000000000000000000000000000000000000061071e565b600160a060020a0316632604674386868660405160e060020a63ffffffff86160281526004810193909352600160a060020a039182166024840152166044820152606401600060405180830381600087803b151561041257600080fd5b6102c65a03f1151561042357600080fd5b5050505b5050505050565b60015460009033600160a060020a0390811691161461044f57506000610483565b50600180546000805473ffffffffffffffffffffffffffffffffffffffff19908116600160a060020a038416179091551681555b90565b6000805433600160a060020a03908116911614156102a957600160a060020a03821615156104b6575060006102a9565b5060018054600160a060020a03831673ffffffffffffffffffffffffffffffffffffffff19909116178155919050565b600154600160a060020a031681565b8160006105217f506c6174666f726d734d616e616765720000000000000000000000000000000061071e565b905033600160a060020a031682600160a060020a03161480156105b2575080600160a060020a031663c7eff32e8360006040516020015260405160e060020a63ffffffff8416028152600160a060020a039091166004820152602401602060405180830381600087803b151561059657600080fd5b6102c65a03f115156105a757600080fd5b505050604051805190505b806105ce575080600160a060020a031633600160a060020a0316145b15610427576105fc7f4173736574734d616e616765720000000000000000000000000000000000000061071e565b600160a060020a031663660a333e86868660405160e060020a63ffffffff86160281526004810193909352600160a060020a039182166024840152166044820152606401600060405180830381600087803b151561041257600080fd5b60005433600160a060020a039081169116141561067c5733600160a060020a0316ff5b565b6000805433600160a060020a03908116911614156102a957600160a060020a03821615156106ae575060006102a9565b600154600160a060020a0316156106dd576001805473ffffffffffffffffffffffffffffffffffffffff191690555b5060008054600160a060020a03831673ffffffffffffffffffffffffffffffffffffffff199091161790556001919050565b600054600160a060020a031681565b600254600090600160a060020a031663bc65792783836040516020015260405160e060020a63ffffffff84160281526004810191909152602401602060405180830381600087803b151561077157600080fd5b6102c65a03f1151561078257600080fd5b5050506040518051915050600160a060020a03811615156102a957600080fd00a165627a7a7230582055f3820d11aacfed3067ee762c281e3877c882f31b3b6c58a3bae0ec43ba15ad0029",
  "source": "pragma solidity ^0.4.11;\n\nimport \"./../core/common/Owned.sol\";\nimport \"./../core/contracts/ContractsManagerInterface.sol\";\nimport \"./extensions/PlatformTokenExtensionGatewayManagerEmitter.sol\";\nimport \"./../core/platform/ChronoBankPlatform.sol\";\nimport \"./PlatformsManagerInterface.sol\";\n\n/**\n* @title Serves as a middleware that passes asset ownership changes to AssetsManager.\n* Originally was designed as part of the system to provide a way to collect statistics\n* for a frontend.\n*\n* DEPRECATED.\n*/\ncontract AssetOwnershipDelegateResolver is Owned, AssetOwningListener {\n    uint constant OK = 1;\n\n    /** @dev address of ContractsManager contract interface */\n    address internal contractsManager;\n\n    /**\n    * @dev Guards methods to be called only by PlatformsManager or by ChronoBankPlatform instance\n    */\n    modifier onlyRegisteredPlatformOrManager(address _platform) {\n        address _platformManager = lookupManager(\"PlatformsManager\");\n        if ((_platform == msg.sender && PlatformsManagerInterface(_platformManager).isPlatformAttached(_platform)) ||\n            msg.sender == _platformManager)\n        {\n            _;\n        }\n    }\n\n    function AssetOwnershipDelegateResolver() public {\n    }\n\n    function init(address _contractsManager) onlyContractOwner public returns (uint) {\n        require(_contractsManager != 0x0);\n        contractsManager = _contractsManager;\n        return ContractsManagerInterface(_contractsManager).addContract(this, \"AssetOwnershipResolver\");\n    }\n\n    function lookupManager(bytes32 _identifier) private constant returns (address _manager) {\n        _manager = ContractsManagerInterface(contractsManager).getContractAddressByType(_identifier);\n        require(_manager != 0x0);\n    }\n\n    /**\n    * @dev Implementation of AssetOwningListener interface method. Redirects invocation to AssetsManager implementation.\n    *\n    * @param _symbol asset's symbol\n    * @param _platform platform involved\n    * @param _owner added owner to an asset in a platform\n    *\n    */\n    function assetOwnerAdded(bytes32 _symbol, address _platform, address _owner) onlyRegisteredPlatformOrManager(_platform) public {\n        AssetOwningListener(lookupManager(\"AssetsManager\")).assetOwnerAdded(_symbol, _platform, _owner);\n    }\n\n    /**\n    * @dev Implementation of AssetOwningListener interface method. Redirects invocation to AssetsManager implementation.\n    *\n    * @param _symbol asset's symbol\n    * @param _platform platform involved\n    * @param _owner removed owner to an asset in a platform\n    *\n    */\n    function assetOwnerRemoved(bytes32 _symbol, address _platform, address _owner) onlyRegisteredPlatformOrManager(_platform) public {\n        AssetOwningListener(lookupManager(\"AssetsManager\")).assetOwnerRemoved(_symbol, _platform, _owner);\n    }\n}\n",
  "sourcePath": "/Users/mikefluff/Documents/Programming/Chronobank/test/SmartContracts/contracts/assets/AssetOwnershipDelegateResolver.sol",
  "compiler": {
    "name": "solc",
    "version": "0.4.18+commit.9cf6e910.Emscripten.clang"
  },
  "schemaVersion": "1.0.1",
  "updatedAt": "2018-01-12T11:40:44.511Z"
}