{
  "contractName": "BlockLimitedCrowdsaleFactory",
  "abi": [
    {
      "constant": false,
      "inputs": [],
      "name": "claimContractOwnership",
      "outputs": [
        {
          "name": "",
          "type": "bool"
        }
      ],
      "payable": false,
      "stateMutability": "nonpayable",
      "type": "function"
    },
    {
      "constant": true,
      "inputs": [
        {
          "name": "_identifier",
          "type": "bytes32"
        }
      ],
      "name": "lookupManager",
      "outputs": [
        {
          "name": "manager",
          "type": "address"
        }
      ],
      "payable": false,
      "stateMutability": "view",
      "type": "function"
    },
    {
      "constant": true,
      "inputs": [],
      "name": "contractsManager",
      "outputs": [
        {
          "name": "",
          "type": "address"
        }
      ],
      "payable": false,
      "stateMutability": "view",
      "type": "function"
    },
    {
      "constant": false,
      "inputs": [
        {
          "name": "_to",
          "type": "address"
        }
      ],
      "name": "changeContractOwnership",
      "outputs": [
        {
          "name": "",
          "type": "bool"
        }
      ],
      "payable": false,
      "stateMutability": "nonpayable",
      "type": "function"
    },
    {
      "constant": true,
      "inputs": [],
      "name": "pendingContractOwner",
      "outputs": [
        {
          "name": "",
          "type": "address"
        }
      ],
      "payable": false,
      "stateMutability": "view",
      "type": "function"
    },
    {
      "constant": false,
      "inputs": [
        {
          "name": "_priceTiker",
          "type": "address"
        }
      ],
      "name": "setPriceTicker",
      "outputs": [],
      "payable": false,
      "stateMutability": "nonpayable",
      "type": "function"
    },
    {
      "constant": false,
      "inputs": [
        {
          "name": "_eventsHistory",
          "type": "address"
        }
      ],
      "name": "setEventsHistory",
      "outputs": [],
      "payable": false,
      "stateMutability": "nonpayable",
      "type": "function"
    },
    {
      "constant": false,
      "inputs": [
        {
          "name": "_contractsManager",
          "type": "address"
        }
      ],
      "name": "setContractsManager",
      "outputs": [],
      "payable": false,
      "stateMutability": "nonpayable",
      "type": "function"
    },
    {
      "constant": true,
      "inputs": [],
      "name": "getPriceTicker",
      "outputs": [
        {
          "name": "",
          "type": "address"
        }
      ],
      "payable": false,
      "stateMutability": "view",
      "type": "function"
    },
    {
      "constant": false,
      "inputs": [],
      "name": "destroy",
      "outputs": [],
      "payable": false,
      "stateMutability": "nonpayable",
      "type": "function"
    },
    {
      "constant": false,
      "inputs": [
        {
          "name": "_to",
          "type": "address"
        }
      ],
      "name": "transferContractOwnership",
      "outputs": [
        {
          "name": "",
          "type": "bool"
        }
      ],
      "payable": false,
      "stateMutability": "nonpayable",
      "type": "function"
    },
    {
      "constant": true,
      "inputs": [],
      "name": "contractOwner",
      "outputs": [
        {
          "name": "",
          "type": "address"
        }
      ],
      "payable": false,
      "stateMutability": "view",
      "type": "function"
    },
    {
      "constant": false,
      "inputs": [
        {
          "name": "tokens",
          "type": "address[]"
        },
        {
          "name": "_to",
          "type": "address"
        }
      ],
      "name": "withdrawnTokens",
      "outputs": [
        {
          "name": "",
          "type": "uint256"
        }
      ],
      "payable": false,
      "stateMutability": "nonpayable",
      "type": "function"
    },
    {
      "constant": false,
      "inputs": [
        {
          "name": "_contractsManager",
          "type": "address"
        },
        {
          "name": "_priceTiker",
          "type": "address"
        }
      ],
      "name": "init",
      "outputs": [
        {
          "name": "",
          "type": "uint256"
        }
      ],
      "payable": false,
      "stateMutability": "nonpayable",
      "type": "function"
    },
    {
      "constant": false,
      "inputs": [
        {
          "name": "_symbol",
          "type": "bytes32"
        }
      ],
      "name": "createCrowdsale",
      "outputs": [
        {
          "name": "",
          "type": "address"
        }
      ],
      "payable": false,
      "stateMutability": "nonpayable",
      "type": "function"
    },
    {
      "constant": true,
      "inputs": [
        {
          "name": "key",
          "type": "address"
        }
      ],
      "name": "isAuthorized",
      "outputs": [
        {
          "name": "",
          "type": "bool"
        }
      ],
      "payable": false,
      "stateMutability": "view",
      "type": "function"
    },
    {
      "constant": true,
      "inputs": [],
      "name": "getEventsHistory",
      "outputs": [
        {
          "name": "",
          "type": "address"
        }
      ],
      "payable": false,
      "stateMutability": "view",
      "type": "function"
    },
    {
      "inputs": [
        {
          "name": "_store",
          "type": "address"
        },
        {
          "name": "_crate",
          "type": "bytes32"
        }
      ],
      "payable": false,
      "stateMutability": "nonpayable",
      "type": "constructor"
    }
  ],
  "bytecode": "0x6060604052341561000f57600080fd5b604051604080613c28833981016040528080519190602001805191508290508181818181818161004e60008383640100000000610d386100c982021704565b505060028054600160a060020a03338116600160a060020a031992831617909255600580543090931692909116919091179055506100c09250600691507f707269636554696b6572000000000000000000000000000000000000000000009050640100000000610d5e6100ef82021704565b50505050610126565b8254600160a060020a031916600160a060020a0392909216919091178255600190910155565b81546101089082640100000000610d7061010c82021704565b9055565b81151580610118575080155b1561012257600080fd5b5050565b613af3806101356000396000f300606060405260043610620000e95763ffffffff60e060020a6000350416634592cd1d8114620000ee5780634fe59012146200011857806353253d31146200014d578063557f4bc914620001635780635aa77d3c14620001855780635e8fac66146200019b5780636521afd714620001bf57806371d3b57314620001e15780637ea91547146200020357806383197ef01462000219578063a843c51f146200022f578063ce606ee01462000251578063d8f9659b1462000267578063f09a401614620002d6578063f40444d714620002fe578063fe9fbb801462000317578063fff10aba1462000339575b600080fd5b3415620000fa57600080fd5b620001046200034f565b604051901515815260200160405180910390f35b34156200012457600080fd5b620001316004356200039e565b604051600160a060020a03909116815260200160405180910390f35b34156200015957600080fd5b620001316200042a565b34156200016f57600080fd5b62000104600160a060020a036004351662000439565b34156200019157600080fd5b6200013162000493565b3415620001a757600080fd5b620001bd600160a060020a0360043516620004a2565b005b3415620001cb57600080fd5b620001bd600160a060020a0360043516620004e8565b3415620001ed57600080fd5b620001bd600160a060020a036004351662000520565b34156200020f57600080fd5b6200013162000558565b34156200022557600080fd5b620001bd62000572565b34156200023b57600080fd5b62000104600160a060020a03600435166200060d565b34156200025d57600080fd5b620001316200068a565b34156200027357600080fd5b620002c4600460248135818101908301358060208181020160405190810160405280939291908181526020018383602002808284375094965050509235600160a060020a0316925062000699915050565b60405190815260200160405180910390f35b3415620002e257600080fd5b620002c4600160a060020a0360043581169060243516620007f3565b34156200030a57600080fd5b6200013160043562000835565b34156200032357600080fd5b62000104600160a060020a036004351662000968565b34156200034557600080fd5b6200013162000a12565b60035460009033600160a060020a0390811691161462000372575060006200039b565b506003805460028054600160a060020a0319908116600160a060020a0384161790915516905560015b90565b600454600090600160a060020a031663bc65792783836040516020015260405160e060020a63ffffffff84160281526004810191909152602401602060405180830381600087803b1515620003f257600080fd5b6102c65a03f115156200040457600080fd5b5050506040518051915050600160a060020a03811615156200042557600080fd5b919050565b600454600160a060020a031681565b60025460009033600160a060020a03908116911614156200042557600160a060020a03821615156200046e5750600062000425565b5060038054600160a060020a038316600160a060020a03199091161790556001919050565b600354600160a060020a031681565b60025433600160a060020a0390811691161415620004e557600160a060020a0381161515620004d057600080fd5b620004e5600060068363ffffffff62000a2116565b50565b60025433600160a060020a0390811691161415620004e55760058054600160a060020a038316600160a060020a031990911617905550565b60025433600160a060020a0390811691161415620004e55760048054600160a060020a038316600160a060020a031990911617905550565b60006200056d81600663ffffffff62000aa516565b905090565b60025433600160a060020a03908116911614156200060b57600454600160a060020a031663c375c2ef3060006040516020015260405160e060020a63ffffffff8416028152600160a060020a039091166004820152602401602060405180830381600087803b1515620005e457600080fd5b6102c65a03f11515620005f657600080fd5b50505060405180519050506200060b62000b05565b565b60025460009033600160a060020a03908116911614156200042557600160a060020a0382161515620006425750600062000425565b600354600160a060020a031615620006655760038054600160a060020a03191690555b5060028054600160a060020a038316600160a060020a03199091161790556001919050565b600254600160a060020a031681565b60025460009081908190819033600160a060020a0390811691161415620007ea57600092505b8551831015620007e557858381518110620006d657fe5b90602001906020020151915081600160a060020a03166370a082313060006040516020015260405160e060020a63ffffffff8416028152600160a060020a039091166004820152602401602060405180830381600087803b15156200073a57600080fd5b6102c65a03f115156200074c57600080fd5b50505060405180519150508015620007d95781600160a060020a031663a9059cbb868360006040516020015260405160e060020a63ffffffff8516028152600160a060020a0390921660048301526024820152604401602060405180830381600087803b1515620007bc57600080fd5b6102c65a03f11515620007ce57600080fd5b505050604051805150505b600190920191620006bf565b600193505b50505092915050565b60025460009033600160a060020a03908116911614156200082f576200081f8360006001015462000b29565b506200082b82620004a2565b5060015b92915050565b600080620008637f43726f776473616c654d616e61676572000000000000000000000000000000006200039e565b600160a060020a031633600160a060020a0316141562000962578215156200088a57600080fd5b600454600160a060020a031683620008a162000558565b620008ab62000d27565b600160a060020a039384168152602081019290925290911660408083019190915260609091019051809103906000f0801515620008e757600080fd5b905080600160a060020a031663557f4bc93360006040516020015260405160e060020a63ffffffff8416028152600160a060020a039091166004820152602401602060405180830381600087803b15156200094157600080fd5b6102c65a03f115156200095357600080fd5b50505060405180519050508091505b50919050565b600080620009967f557365724d616e616765720000000000000000000000000000000000000000006200039e565b905080600160a060020a0316632aa09e5a8460006040516020015260405160e060020a63ffffffff8416028152600160a060020a039091166004820152602401602060405180830381600087803b1515620009f057600080fd5b6102c65a03f1151562000a0257600080fd5b5050506040518051949350505050565b600554600160a060020a031690565b825460018401548354600160a060020a03909216916379a7cfee91908460405160e060020a63ffffffff861602815260048101939093526024830191909152600160a060020a03166044820152606401600060405180830381600087803b151562000a8b57600080fd5b6102c65a03f1151562000a9d57600080fd5b505050505050565b815460018301548254600092600160a060020a03169163d3a3968691846040516020015260405160e060020a63ffffffff851602815260048101929092526024820152604401602060405180830381600087803b1515620009f057600080fd5b60025433600160a060020a03908116911614156200060b5733600160a060020a0316ff5b60025460009081908190819033600160a060020a0390811691161462000b4e57600080fd5b600160a060020a038616151562000b6457600080fd5b600454600160a060020a031615801593508062000b8f5750600454600160a060020a03878116911614155b1562000bb15760048054600160a060020a031916600160a060020a0388161790555b600454600160a060020a031691508163bc65792760006040516020015260405160e060020a63ffffffff83160281527f4d756c74694576656e7473486973746f727900000000000000000000000000006004820152602401602060405180830381600087803b151562000c2357600080fd5b6102c65a03f1151562000c3557600080fd5b5050506040518051915050600160a060020a0381161580159062000c675750600554600160a060020a03828116911614155b1562000c895760058054600160a060020a031916600160a060020a0383161790555b841562000d145781600160a060020a031663b7c46cd5308760006040516020015260405160e060020a63ffffffff8516028152600160a060020a0390921660048301526024820152604401602060405180830381600087803b151562000cee57600080fd5b6102c65a03f1151562000d0057600080fd5b5050506040518051600114905062000d1457fe5b8215620007e55760069695505050505050565b604051612d3b8062000d8d83390190565b8254600160a060020a031916600160a060020a0392909216919091178255600190910155565b815462000d6c908262000d70565b9055565b8115158062000d7d575080155b1562000d8857600080fd5b505056006060604052600060035534156200001557600080fd5b60405160608062002d3b83398101604052808051919060200180519190602001805160008054600160a060020a03191633600160a060020a03908116919091179091559092508491508390839083908390839083908390821615156200007a57600080fd5b8015156200008757600080fd5b60048054600160a060020a031916600160a060020a038416179055620000ba640100000000620001938102620018be1704565b600160a060020a031663d5ed0d17826000604051602001526040517c010000000000000000000000000000000000000000000000000000000063ffffffff84160281526004810191909152602401602060405180830381600087803b15156200012257600080fd5b6102c65a03f115156200013457600080fd5b5050506040518051905015156200014a57600080fd5b60025550600160a060020a03811615156200016457600080fd5b60098054600160a060020a031916600160a060020a039290921691909117905550620002789650505050505050565b6000620001ce7f4173736574734d616e616765720000000000000000000000000000000000000064010000000062001960620001d382021704565b905090565b600454600090600160a060020a031663bc6579278383604051602001526040517c010000000000000000000000000000000000000000000000000000000063ffffffff84160281526004810191909152602401602060405180830381600087803b15156200024057600080fd5b6102c65a03f115156200025257600080fd5b5050506040518051915050600160a060020a03811615156200027357600080fd5b919050565b612ab380620002886000396000f3006060604052600436106101d45763ffffffff60e060020a6000350416631507040181146102be5780632014e5d1146102e35780632bac85ad1461030a57806337b6ee7e146103205780633ccfd60b146103425780634207ad67146103575780634592cd1d146103795780634b6585f11461038c578063522d8083146103db5780635471b709146103ee578063557f4bc914610410578063590e1ae31461042f5780635aa77d3c146104425780635e8fac661461047157806365ef326c14610490578063692a1960146104b85780636e94a629146104cb5780637123778e146104df5780637507db0a146104fe57806379502c55146105185780637ea915471461054357806381a73ad51461055657806383197ef0146105755780638522585a146105885780638fe858d91461059e578063a843c51f146105b1578063b0744a60146105d0578063b60d4288146105e6578063b97a7d24146105f9578063bfd7ae771461063d578063c18c35da14610653578063c91122d014610675578063ce606ee014610689578063d8f9659b1461069c578063ecb70fb7146106f6578063ee7c0db014610709578063f07d76f11461071c578063f41633401461076b578063f50bf0291461077e578063fc09e4931461079a575b6101dc6107ad565b15156101e757600080fd5b601154600160a060020a031615156101fe57600080fd5b30600160a060020a0316637507db0a333460405160e060020a63ffffffff8516028152600160a060020a039092166004830152602482015260eb60020a6208aa89026044820152606401600060405180830381600087803b151561026157600080fd5b6102c65a03f1151561027257600080fd5b50505033600160a060020a031630600160a060020a03167feeec398a06c4cfafcea2052bdb0817bab61da1505bf6b2a84e69deb00815f2933460405190815260200160405180910390a3005b34156102c957600080fd5b6102d16107d7565b60405190815260200160405180910390f35b34156102ee57600080fd5b6102f66107ad565b604051901515815260200160405180910390f35b341561031557600080fd5b6102d16004356107dd565b341561032b57600080fd5b6102d1600160a060020a03600435166024356107ef565b341561034d57600080fd5b610355610865565b005b341561036257600080fd5b610355600160a060020a0360043516602435610992565b341561038457600080fd5b6102f6610a27565b341561039757600080fd5b6102d16004602481358181019083013580602081810201604051908101604052809392919081815260200183836020028082843750949650610a7195505050505050565b34156103e657600080fd5b6102d1610bff565b34156103f957600080fd5b6102d1600435600160a060020a0360243516610cb1565b341561041b57600080fd5b6102f6600160a060020a0360043516610cce565b341561043a57600080fd5b610355610d20565b341561044d57600080fd5b610455610e32565b604051600160a060020a03909116815260200160405180910390f35b341561047c57600080fd5b610355600160a060020a0360043516610e41565b341561049b57600080fd5b61035560043560243560443560643560843560a43560c435610efd565b34156104c357600080fd5b6102f6611007565b610355600160a060020a0360043516611011565b34156104ea57600080fd5b6102d1600160a060020a0360043516611315565b610355600160a060020a03600435166024356044356113e9565b341561052357600080fd5b61052b61179b565b60405191825260208201526040908101905180910390f35b341561054e57600080fd5b6104556117a4565b341561056157600080fd5b6102d1600160a060020a03600435166117b3565b341561058057600080fd5b61035561186f565b341561059357600080fd5b6104556004356118a3565b34156105a957600080fd5b6104556118be565b34156105bc57600080fd5b6102f6600160a060020a03600435166118e9565b34156105db57600080fd5b610455600435611960565b34156105f157600080fd5b6104556119e4565b341561060457600080fd5b61060c6119f3565b60405194855260208501939093526040808501929092526060840152608083019190915260a0909101905180910390f35b341561064857600080fd5b610455600435611a09565b341561065e57600080fd5b610355600160a060020a0360043516602435611a24565b610355600160a060020a0360043516611ab5565b341561069457600080fd5b610455611dd5565b34156106a757600080fd5b6102d1600460248135818101908301358060208181020160405190810160405280939291908181526020018383602002808284375094965050509235600160a060020a03169250611de4915050565b341561070157600080fd5b6102f6611f33565b341561071457600080fd5b6102d1611f98565b341561072757600080fd5b6102d16004602481358181019083013580602081810201604051908101604052809392919081815260200183836020028082843750949650611f9e95505050505050565b341561077657600080fd5b6102f661211c565b341561078957600080fd5b610355600435602435604435612139565b34156107a557600080fd5b6104556122bf565b601354600090431180156107c2575060145443105b80156107d157506107d16122ea565b90505b90565b60025490565b60076020526000908152604090205481565b6000818152600860205260408120548190839033600160a060020a0390811691161461081a57600080fd5b61082261211c565b151561082d57600080fd5b6000848152600660209081526040808320600160a060020a0389168452909152902054915061085d8585846122f4565b509392505050565b600061086f611007565b151561087a57600080fd5b6108826118be565b600160a060020a03166325742b466002543360006040516020015260405160e060020a63ffffffff85160281526004810192909252600160a060020a03166024820152604401602060405180830381600087803b15156108e157600080fd5b6102c65a03f115156108f257600080fd5b505050604051805190501561098f57601154600160a060020a0316151561091857600080fd5b50601154600160a060020a0330811631911681156108fc0282604051600060405180830381858888f19350505050151561095157600080fd5b30600160a060020a03167fdb35132c111efe920cede025e819975671cfd1b8fcc1174762c8670c4e94c2118260405190815260200160405180910390a25b50565b61099a6118be565b600160a060020a03166325742b466002543360006040516020015260405160e060020a63ffffffff85160281526004810192909252600160a060020a03166024820152604401602060405180830381600087803b15156109f957600080fd5b6102c65a03f11515610a0a57600080fd5b5050506040518051905015610a2357610a238282612433565b5050565b60015460009033600160a060020a03908116911614610a48575060006107d4565b506001805460008054600160a060020a0319908116600160a060020a0384161790915516815590565b600080600080610a7f6118be565b600160a060020a03166325742b466002543360006040516020015260405160e060020a63ffffffff85160281526004810192909252600160a060020a03166024820152604401602060405180830381600087803b1515610ade57600080fd5b6102c65a03f11515610aef57600080fd5b5050506040518051905015610bf757610b066122bf565b9250600091505b8451821015610bf25782600160a060020a031663fa7fdeb7868481518110610b3157fe5b9060200190602002015160006040516020015260405160e060020a63ffffffff84160281526004810191909152602401602060405180830381600087803b1515610b7a57600080fd5b6102c65a03f11515610b8b57600080fd5b5050506040518051915050600160a060020a03811615610be757600160a060020a0381166000908152601260205260409020805460ff19166001179055610be730868481518110610bd857fe5b906020019060200201516124c6565b600190910190610b0d565b600193505b505050919050565b6000610c096118be565b600160a060020a03166325742b466002543360006040516020015260405160e060020a63ffffffff85160281526004810192909252600160a060020a03166024820152604401602060405180830381600087803b1515610c6857600080fd5b6102c65a03f11515610c7957600080fd5b50505060405180519050156107d45760118054600160a060020a0319169055610cab3060eb60020a6208aa8902612433565b50600190565b600660209081526000928352604080842090915290825290205481565b6000805433600160a060020a0390811691161415610d1b57600160a060020a0382161515610cfe57506000610d1b565b5060018054600160a060020a031916600160a060020a0383161781555b919050565b6000610d2a61211c565b1515610d3557600080fd5b30600160a060020a03166337b6ee7e3360006040516020015260405160e060020a63ffffffff8416028152600160a060020a03909116600482015260eb60020a6208aa89026024820152604401602060405180830381600087803b1515610d9b57600080fd5b6102c65a03f11515610dac57600080fd5b5050506040518051915050600160a060020a03331681156108fc0282604051600060405180830381858888f193505050501515610de857600080fd5b33600160a060020a031630600160a060020a03167f26fc102d9e9d6a9441e7a052f6e93961cbe7bc481f0453332f956352c6480aa28360405190815260200160405180910390a350565b600154600160a060020a031681565b610e496118be565b600160a060020a03166325742b466002543360006040516020015260405160e060020a63ffffffff85160281526004810192909252600160a060020a03166024820152604401602060405180830381600087803b1515610ea857600080fd5b6102c65a03f11515610eb957600080fd5b505050604051805190501561098f57600160a060020a0381161515610edd57600080fd5b60098054600160a060020a038316600160a060020a031990911617905550565b610f056118be565b600160a060020a03166325742b466002543360006040516020015260405160e060020a63ffffffff85160281526004810192909252600160a060020a03166024820152604401602060405180830381600087803b1515610f6457600080fd5b6102c65a03f11515610f7557600080fd5b5050506040518051905015610ffe5760008035600160e060020a03191681526005602052604090205460ff161515610ffe57818111610fb357600080fd5b43819010610fc057600080fd5b610fcd8787878787612561565b6013829055601481905560008035600160e060020a03191681526005602052604090208054600160ff199091161790555b50505050505050565b600c546010541190565b600080600061101e61211c565b151561102957600080fd5b600160a060020a038416151561103e57600080fd5b6110466122bf565b600160a060020a0316639ed4fa5a8560006040516020015260405160e060020a63ffffffff8416028152600160a060020a039091166004820152602401602060405180830381600087803b151561109c57600080fd5b6102c65a03f115156110ad57600080fd5b5050506040518051905015156110c257600080fd5b30600160a060020a03166337b6ee7e336110db876117b3565b60006040516020015260405160e060020a63ffffffff8516028152600160a060020a0390921660048301526024820152604401602060405180830381600087803b151561112757600080fd5b6102c65a03f1151561113857600080fd5b50505060405180519050925061114d846117b3565b915083600160a060020a03166370a082313060006040516020015260405160e060020a63ffffffff8416028152600160a060020a039091166004820152602401602060405180830381600087803b15156111a657600080fd5b6102c65a03f115156111b757600080fd5b5050506040518051915050600160a060020a03841663a9059cbb338560006040516020015260405160e060020a63ffffffff8516028152600160a060020a0390921660048301526024820152604401602060405180830381600087803b151561121f57600080fd5b6102c65a03f1151561123057600080fd5b50505060405180519050151561124557600080fd5b83600160a060020a03166370a082313060006040516020015260405160e060020a63ffffffff8416028152600160a060020a039091166004820152602401602060405180830381600087803b151561129c57600080fd5b6102c65a03f115156112ad57600080fd5b50505060405180518203841490506112c157fe5b33600160a060020a031630600160a060020a03167f3bfaaea2fb6654fc1575d7b03c0581fb4f6e32636c683a69f3b2ad35568a6e2e858560405191825260208201526040908101905180910390a350505050565b600061131f6118be565b600160a060020a03166325742b466002543360006040516020015260405160e060020a63ffffffff85160281526004810192909252600160a060020a03166024820152604401602060405180830381600087803b151561137e57600080fd5b6102c65a03f1151561138f57600080fd5b5050506040518051905015610d1b57600160a060020a03821615156113b357600080fd5b60118054600160a060020a031916600160a060020a0384161790556113e13060eb60020a6208aa89026124c6565b506001919050565b600081815260086020526040812054819081908190859033600160a060020a0390811691161461141857600080fd5b6114206107ad565b151561142b57600080fd5b600160a060020a038816151561144057600080fd5b85151561144c57600080fd5b6000868152600660209081526040808320600160a060020a038c16845290915290205461147f908863ffffffff61268316565b6000878152600660209081526040808320600160a060020a038d1684528252808320939093558882526007905220546114be908863ffffffff61268316565b60008781526007602052604080822092909255600954600b54600160a060020a039091169263e5a59e07928a9291516020015260405160e060020a63ffffffff851602815260048101929092526024820152604401602060405180830381600087803b151561152c57600080fd5b6102c65a03f1151561153d57600080fd5b505050604051805190501561163a57600954600b54600160a060020a0390911690637d5ecbab90889060006040516040015260405160e060020a63ffffffff8516028152600481019290925260248201526044016040805180830381600087803b15156115a957600080fd5b6102c65a03f115156115ba57600080fd5b50505060405180519060200180519050945094506115da88888787612699565b33600160a060020a03167f0fe32763974f828f27ba609ad471890fffc7812b1b048ba7c43434c4fb27ff3b898989604051600160a060020a03909316835260208301919091526040808301919091526060909101905180910390a2611791565b600954600b54600160a060020a03909116906306915ba390889060006040516040015260405160e060020a63ffffffff8516028152600481019290925260248201526044016040805180830381600087803b151561169757600080fd5b6102c65a03f115156116a857600080fd5b505050604051805190602001805191945090925050600182146116c757fe5b60606040519081016040908152600160a060020a038a16825260208083018990528183018a90526000868152600a9091522081518154600160a060020a031916600160a060020a039190911617815560208201516001820155604082015160029091015550600160a060020a0333167f5e131299f28a97769167a3143422eb7beea2089bbf30ff00e36501db77f541a789898987604051600160a060020a039094168452602084019290925260408084019190915260608301919091526080909101905180910390a25b5050505050505050565b60135460145482565b600954600160a060020a031690565b6000806000806000806000806117c76122bf565b600160a060020a0316637abccac98a600060405160e0015260405160e060020a63ffffffff8416028152600160a060020a03909116600482015260240160e060405180830381600087803b151561181d57600080fd5b6102c65a03f1151561182e57600080fd5b505050604051805190602001805190602001805190602001805190602001805190602001805190602001805150939f9e505050505050505050505050505050565b60005433600160a060020a03908116911614156118a15761188e611f33565b151561189957600080fd5b6118a1612711565b565b600860205260009081526040902054600160a060020a031681565b60006107d17f4173736574734d616e6167657200000000000000000000000000000000000000611960565b6000805433600160a060020a0390811691161415610d1b57600160a060020a038216151561191957506000610d1b565b600154600160a060020a03161561193b5760018054600160a060020a03191690555b5060008054600160a060020a038316600160a060020a03199091161790556001919050565b600454600090600160a060020a031663bc65792783836040516020015260405160e060020a63ffffffff84160281526004810191909152602401602060405180830381600087803b15156119b357600080fd5b6102c65a03f115156119c457600080fd5b5050506040518051915050600160a060020a0381161515610d1b57600080fd5b601154600160a060020a031681565b600b54600c54600d54600e54600f549091929394565b600090815260086020526040902054600160a060020a031690565b611a2c6118be565b600160a060020a03166325742b466002543360006040516020015260405160e060020a63ffffffff85160281526004810192909252600160a060020a03166024820152604401602060405180830381600087803b1515611a8b57600080fd5b6102c65a03f11515611a9c57600080fd5b5050506040518051905015610a2357610a2382826124c6565b6000806000611ac26107ad565b1515611acd57600080fd5b83600160a060020a0381161580611afd5750600160a060020a03811660009081526012602052604090205460ff16155b15611b0757600080fd5b84600160a060020a031663dd62ed3e333060006040516020015260405160e060020a63ffffffff8516028152600160a060020a03928316600482015291166024820152604401602060405180830381600087803b1515611b6657600080fd5b6102c65a03f11515611b7757600080fd5b505050604051805190509350611b8c856117b3565b925084600160a060020a03166370a082313060006040516020015260405160e060020a63ffffffff8416028152600160a060020a039091166004820152602401602060405180830381600087803b1515611be557600080fd5b6102c65a03f11515611bf657600080fd5b5050506040518051925050600160a060020a0385166323b872dd33308760006040516020015260405160e060020a63ffffffff8616028152600160a060020a0393841660048201529190921660248201526044810191909152606401602060405180830381600087803b1515611c6b57600080fd5b6102c65a03f11515611c7c57600080fd5b505050604051805190501515611c9157600080fd5b8185600160a060020a03166370a082313060006040516020015260405160e060020a63ffffffff8416028152600160a060020a039091166004820152602401602060405180830381600087803b1515611ce957600080fd5b6102c65a03f11515611cfa57600080fd5b505050604051805190500384141515611d0f57fe5b30600160a060020a0316637507db0a33868660405160e060020a63ffffffff8616028152600160a060020a03909316600484015260248301919091526044820152606401600060405180830381600087803b1515611d6c57600080fd5b6102c65a03f11515611d7d57600080fd5b50505033600160a060020a031630600160a060020a03167fd1ba297d0f06cabe07bab03006be067cb42e2655372ddc334314f806210c7eba868660405191825260208201526040908101905180910390a35050505050565b600054600160a060020a031681565b6000805481908190819033600160a060020a0390811691161415611f2a57600092505b8551831015611f2557858381518110611e1c57fe5b90602001906020020151915081600160a060020a03166370a082313060006040516020015260405160e060020a63ffffffff8416028152600160a060020a039091166004820152602401602060405180830381600087803b1515611e7f57600080fd5b6102c65a03f11515611e9057600080fd5b50505060405180519150508015611f1a5781600160a060020a031663a9059cbb868360006040516020015260405160e060020a63ffffffff8516028152600160a060020a0390921660048301526024820152604401602060405180830381600087803b1515611efe57600080fd5b6102c65a03f11515611f0f57600080fd5b505050604051805150505b600190920191611e07565b600193505b50505092915050565b6000611f3d611007565b8015611f535750600030600160a060020a031631115b15611f60575060006107d4565b611f6861211c565b8015611f7657506000600354115b15611f83575060006107d4565b611f8b6107ad565b15610cab575060006107d4565b60035490565b600080600080611fac6118be565b600160a060020a03166325742b466002543360006040516020015260405160e060020a63ffffffff85160281526004810192909252600160a060020a03166024820152604401602060405180830381600087803b151561200b57600080fd5b6102c65a03f1151561201c57600080fd5b5050506040518051905015610bf7576120336122bf565b9250600091505b8451821015610bf25782600160a060020a031663fa7fdeb786848151811061205e57fe5b9060200190602002015160006040516020015260405160e060020a63ffffffff84160281526004810191909152602401602060405180830381600087803b15156120a757600080fd5b6102c65a03f115156120b857600080fd5b5050506040518051915050600160a060020a0381161561211157600160a060020a0381166000908152601260205260409020805460ff191690556121113086848151811061210257fe5b90602001906020020151612433565b60019091019061203a565b601454600090431180156107d15750612133611007565b15905090565b612141612a67565b60095433600160a060020a0390811691161461215c57600080fd5b6000848152600a602052604090819020906060905190810160409081528254600160a060020a03168252600183015460208301526002909201549181019190915290508051600160a060020a031615156121b557600080fd5b6000831115612238576121cf815182604001518585612699565b600160a060020a0333167f0fe32763974f828f27ba609ad471890fffc7812b1b048ba7c43434c4fb27ff3b825183604001518460200151604051600160a060020a03909316835260208301919091526040808301919091526060909101905180910390a26122b9565b600160a060020a0333167fbd690f6d499e86a225f39764c1dfa72f9f877999f6615fb72bcb98bbd76d15aa82518360400151846020015188604051600160a060020a039094168452602084019290925260408084019190915260608301919091526080909101905180910390a26122b98151826020015183604001516122f4565b50505050565b60006107d17f45524332304d616e616765720000000000000000000000000000000000000000611960565b600d546010541090565b6000600160a060020a038416151561230b57600080fd5b82151561231757600080fd5b506000828152600660209081526040808320600160a060020a03871684529091529020548082111561234857600080fd5b6000838152600660209081526040808320600160a060020a038816845290915290205461237b908363ffffffff61273416565b6000848152600660209081526040808320600160a060020a03891684528252808320939093558582526007905220546123ba908363ffffffff61273416565b6000848152600760205260409020556123d284612746565b33600160a060020a03167f0ca340c7eb0c72255d18072bcd6ba161aaa02d6eeb2e444248c36cc1b2e1cd7f858486604051600160a060020a03909316835260208301919091526040808301919091526060909101905180910390a250505050565b600160a060020a038216151561244857600080fd5b80151561245457600080fd5b600081815260086020526040908190208054600160a060020a031916905533600160a060020a0316907fabca56d1f15a292caf4603c5e711645fa6e448a933e81739491bfd8396eb5bce908490849051600160a060020a03909216825260208201526040908101905180910390a25050565b600160a060020a03821615156124db57600080fd5b8015156124e757600080fd5b600081815260086020526040908190208054600160a060020a031916600160a060020a03858116919091179091553316907f3dbb1ba766df8e6bad32efd25596d9834cb129d8c22929c5f361e2dd25728084908490849051600160a060020a03909216825260208201526040908101905180910390a25050565b6125696118be565b600160a060020a03166325742b466002543360006040516020015260405160e060020a63ffffffff85160281526004810192909252600160a060020a03166024820152604401602060405180830381600087803b15156125c857600080fd5b6102c65a03f115156125d957600080fd5b505050604051805190501561267c5760008035600160e060020a03191681526005602052604090205460ff16151561267c5784151561261757600080fd5b83151561262357600080fd5b82151561262f57600080fd5b6000821161263c57600080fd5b600b859055600c849055600d839055600e829055600f81905560008035600160e060020a03191681526005602052604090208054600160ff199091161790555b5050505050565b60008282018381101561269257fe5b9392505050565b600080600a83900a6126b1868663ffffffff6127c216565b8115156126ba57fe5b0491506126d28260105461268390919063ffffffff16565b601055600f54600e54600a9190910a906126f390849063ffffffff6127c216565b8115156126fc57fe5b04905061270986826127e6565b505050505050565b60005433600160a060020a03908116911614156118a15733600160a060020a0316ff5b60008282111561274057fe5b50900390565b61274e61211c565b151561275957600080fd5b60035461276d90600063ffffffff61273416565b600355600160a060020a0330167f037238854fe57fbf51f09946f854fc3916fe83938d6521f09bd05463839f1304826000604051600160a060020a03909216825260208201526040908101905180910390a250565b60008282028315806127de57508284828115156127db57fe5b04145b151561269257fe5b60008060006127f36107ad565b15156127fe57600080fd5b600354612811908563ffffffff61268316565b60035561283d7f45524332304d616e616765720000000000000000000000000000000000000000611960565b925082600160a060020a031663fa7fdeb760025460006040516020015260405160e060020a63ffffffff84160281526004810191909152602401602060405180830381600087803b151561289057600080fd5b6102c65a03f115156128a157600080fd5b5050506040518051925050600160a060020a0382166349752baf6000604051602001526040518163ffffffff1660e060020a028152600401602060405180830381600087803b15156128f257600080fd5b6102c65a03f1151561290357600080fd5b505050604051805190509050600181600160a060020a031663e0873c066002548760006040516020015260405160e060020a63ffffffff851602815260048101929092526024820152604401602060405180830381600087803b151561296857600080fd5b6102c65a03f1151561297957600080fd5b5050506040518051905014151561298f57600080fd5b81600160a060020a031663a9059cbb868660006040516020015260405160e060020a63ffffffff8516028152600160a060020a0390921660048301526024820152604401602060405180830381600087803b15156129ec57600080fd5b6102c65a03f115156129fd57600080fd5b505050604051805190501515612a1257600080fd5b30600160a060020a03167f2912ae33cd67a6df1c3e8a1fe3899ad8722819df1ed47e86aae4ac8d85cfe0418686604051600160a060020a03909216825260208201526040908101905180910390a25050505050565b6060604051908101604090815260008083526020830181905290820152905600a165627a7a7230582062cc83becfa3f132087c51f314f7f0268fc7f47115813c0f5fa15326a3f71e540029a165627a7a72305820d7a591a93089e5b6f1804a4f7eb6a79c42d1a5014fb0a44e511defe4e53f2a0e0029",
  "source": "pragma solidity ^0.4.11;\n\nimport \"./crowdsales/BlockLimitedCrowdsale.sol\";\nimport \"./crowdsales/TimeLimitedCrowdsale.sol\";\nimport \"../core/common/BaseManager.sol\";\n\n/**\n*  @title CrowdsaleFactory\n*\n*  Is not designed for direct crowdsale creation via external calls from web application.\n*  Only CrowdsaleManager is authorised to create and delete crowdsale.\n*\n*  See CrowdsaleManager.\n*/\ncontract CrowdsaleFactory is BaseManager {\n    StorageInterface.Address priceTiker;\n\n    modifier onlyCrowdsaleManager() {\n        if (msg.sender == lookupManager(\"CrowdsaleManager\")) {\n            _;\n        }\n    }\n\n    function CrowdsaleFactory(Storage _store, bytes32 _crate) BaseManager(_store, _crate) {\n        priceTiker.init(\"priceTiker\");\n    }\n\n    function init(address _contractsManager, address _priceTiker) onlyContractOwner returns (uint) {\n        BaseManager.init(_contractsManager, store.crate);\n\n        setPriceTicker(_priceTiker);\n        return OK;\n    }\n\n    function setPriceTicker(address _priceTiker) onlyContractOwner {\n        require(_priceTiker != 0x0);\n\n        store.set(priceTiker, _priceTiker);\n    }\n\n    function createCrowdsale(bytes32 _symbol) returns (address);\n\n    function getPriceTicker() constant returns (address) {\n        return store.get(priceTiker);\n    }\n}\n\n/**\n*  @title TimeLimitedCrowdsaleFactory\n*\n*  Instantiates a TimeLimitedCrowdsale contract.\n*/\ncontract TimeLimitedCrowdsaleFactory is CrowdsaleFactory {\n    function TimeLimitedCrowdsaleFactory(Storage _store, bytes32 _crate) CrowdsaleFactory(_store, _crate) {\n    }\n\n    function createCrowdsale(bytes32 _symbol) onlyCrowdsaleManager returns (address) {\n        require(_symbol != 0x0);\n\n        address crowdsale = new TimeLimitedCrowdsale(contractsManager, _symbol, getPriceTicker());\n        BaseCrowdsale(crowdsale).changeContractOwnership(msg.sender);\n\n        return crowdsale;\n    }\n}\n\n/**\n*  @title BlockLimitedCrowdsaleFactory\n*\n*  Instantiates a BlockLimitedCrowdsale contract.\n*/\ncontract BlockLimitedCrowdsaleFactory is CrowdsaleFactory {\n    function BlockLimitedCrowdsaleFactory(Storage _store, bytes32 _crate) CrowdsaleFactory(_store, _crate) {\n    }\n\n    function createCrowdsale(bytes32 _symbol) onlyCrowdsaleManager returns (address) {\n        require(_symbol != 0x0);\n\n        address crowdsale = new BlockLimitedCrowdsale(contractsManager, _symbol, getPriceTicker());\n        BaseCrowdsale(crowdsale).changeContractOwnership(msg.sender);\n\n        return crowdsale;\n    }\n}\n",
  "sourcePath": "/Users/ahiatsevich/Development/chronobank/SmartContracts/contracts/crowdsale/CrowdsaleFactory.sol",
  "compiler": {
    "name": "solc",
    "version": "0.4.18+commit.9cf6e910.Emscripten.clang"
  },
  "schemaVersion": "1.0.1",
  "updatedAt": "2017-12-11T12:14:44.569Z"
}