{
  "contractName": "ChronoBankPlatformEmitter",
  "abi": [
    {
      "constant": false,
      "inputs": [
        {
          "name": "_from",
          "type": "address"
        },
        {
          "name": "_to",
          "type": "address"
        },
        {
          "name": "_symbol",
          "type": "bytes32"
        },
        {
          "name": "_value",
          "type": "uint256"
        },
        {
          "name": "_reference",
          "type": "string"
        }
      ],
      "name": "emitTransfer",
      "outputs": [],
      "payable": false,
      "stateMutability": "nonpayable",
      "type": "function"
    },
    {
      "constant": false,
      "inputs": [
        {
          "name": "_from",
          "type": "address"
        },
        {
          "name": "_to",
          "type": "address"
        },
        {
          "name": "_symbol",
          "type": "bytes32"
        }
      ],
      "name": "emitOwnershipChange",
      "outputs": [],
      "payable": false,
      "stateMutability": "nonpayable",
      "type": "function"
    },
    {
      "constant": false,
      "inputs": [
        {
          "name": "_symbol",
          "type": "bytes32"
        },
        {
          "name": "_value",
          "type": "uint256"
        },
        {
          "name": "_by",
          "type": "address"
        }
      ],
      "name": "emitIssue",
      "outputs": [],
      "payable": false,
      "stateMutability": "nonpayable",
      "type": "function"
    },
    {
      "constant": false,
      "inputs": [
        {
          "name": "_symbol",
          "type": "bytes32"
        },
        {
          "name": "_value",
          "type": "uint256"
        },
        {
          "name": "_by",
          "type": "address"
        }
      ],
      "name": "emitRevoke",
      "outputs": [],
      "payable": false,
      "stateMutability": "nonpayable",
      "type": "function"
    },
    {
      "constant": false,
      "inputs": [
        {
          "name": "_from",
          "type": "address"
        },
        {
          "name": "_spender",
          "type": "address"
        },
        {
          "name": "_symbol",
          "type": "bytes32"
        },
        {
          "name": "_value",
          "type": "uint256"
        }
      ],
      "name": "emitApprove",
      "outputs": [],
      "payable": false,
      "stateMutability": "nonpayable",
      "type": "function"
    },
    {
      "constant": false,
      "inputs": [
        {
          "name": "_errorCode",
          "type": "uint256"
        }
      ],
      "name": "emitError",
      "outputs": [],
      "payable": false,
      "stateMutability": "nonpayable",
      "type": "function"
    },
    {
      "constant": false,
      "inputs": [
        {
          "name": "_from",
          "type": "address"
        },
        {
          "name": "_to",
          "type": "address"
        },
        {
          "name": "_by",
          "type": "address"
        }
      ],
      "name": "emitRecovery",
      "outputs": [],
      "payable": false,
      "stateMutability": "nonpayable",
      "type": "function"
    },
    {
      "anonymous": false,
      "inputs": [
        {
          "indexed": true,
          "name": "from",
          "type": "address"
        },
        {
          "indexed": true,
          "name": "to",
          "type": "address"
        },
        {
          "indexed": true,
          "name": "symbol",
          "type": "bytes32"
        },
        {
          "indexed": false,
          "name": "value",
          "type": "uint256"
        },
        {
          "indexed": false,
          "name": "reference",
          "type": "string"
        }
      ],
      "name": "Transfer",
      "type": "event"
    },
    {
      "anonymous": false,
      "inputs": [
        {
          "indexed": true,
          "name": "symbol",
          "type": "bytes32"
        },
        {
          "indexed": false,
          "name": "value",
          "type": "uint256"
        },
        {
          "indexed": true,
          "name": "by",
          "type": "address"
        }
      ],
      "name": "Issue",
      "type": "event"
    },
    {
      "anonymous": false,
      "inputs": [
        {
          "indexed": true,
          "name": "symbol",
          "type": "bytes32"
        },
        {
          "indexed": false,
          "name": "value",
          "type": "uint256"
        },
        {
          "indexed": true,
          "name": "by",
          "type": "address"
        }
      ],
      "name": "Revoke",
      "type": "event"
    },
    {
      "anonymous": false,
      "inputs": [
        {
          "indexed": true,
          "name": "from",
          "type": "address"
        },
        {
          "indexed": true,
          "name": "to",
          "type": "address"
        },
        {
          "indexed": true,
          "name": "symbol",
          "type": "bytes32"
        }
      ],
      "name": "OwnershipChange",
      "type": "event"
    },
    {
      "anonymous": false,
      "inputs": [
        {
          "indexed": true,
          "name": "from",
          "type": "address"
        },
        {
          "indexed": true,
          "name": "spender",
          "type": "address"
        },
        {
          "indexed": true,
          "name": "symbol",
          "type": "bytes32"
        },
        {
          "indexed": false,
          "name": "value",
          "type": "uint256"
        }
      ],
      "name": "Approve",
      "type": "event"
    },
    {
      "anonymous": false,
      "inputs": [
        {
          "indexed": true,
          "name": "from",
          "type": "address"
        },
        {
          "indexed": true,
          "name": "to",
          "type": "address"
        },
        {
          "indexed": false,
          "name": "by",
          "type": "address"
        }
      ],
      "name": "Recovery",
      "type": "event"
    },
    {
      "anonymous": false,
      "inputs": [
        {
          "indexed": false,
          "name": "errorCode",
          "type": "uint256"
        }
      ],
      "name": "Error",
      "type": "event"
    }
  ],
  "bytecode": "0x6060604052341561000f57600080fd5b6104548061001e6000396000f3006060604052600436106100825763ffffffff7c0100000000000000000000000000000000000000000000000000000000600035041663515c14578114610087578063a9612f72146100fa578063abafaa1614610122578063c70bbc1314610147578063d54c8c871461016c578063df26ca0814610197578063ea14457e146101ad575b600080fd5b341561009257600080fd5b6100f8600160a060020a0360048035821691602480359091169160443591606435919060a49060843590810190830135806020601f820181900481020160405190810160405281815292919060208401838380828437509496506101d895505050505050565b005b341561010557600080fd5b6100f8600160a060020a036004358116906024351660443561028e565b341561012d57600080fd5b6100f8600435602435600160a060020a03604435166102ce565b341561015257600080fd5b6100f8600435602435600160a060020a0360443516610311565b341561017757600080fd5b6100f8600160a060020a0360043581169060243516604435606435610354565b34156101a257600080fd5b6100f860043561039c565b34156101b857600080fd5b6100f8600160a060020a03600435811690602435811690604435166103d2565b82600160a060020a038086169087167f8f1b83868d2ecc962fd90cfee71c9c52455fe10940937bc7571d90ba404c5c3b858560405182815260406020820181815290820183818151815260200191508051906020019080838360005b8381101561024c578082015183820152602001610234565b50505050905090810190601f1680156102795780820380516001836020036101000a031916815260200191505b50935050505060405180910390a45050505050565b80600160a060020a038084169085167f0de92ba2d86c482d7f947cc22a580692bb78d6277988023434905f44b8cd261a60405160405180910390a4505050565b600160a060020a038116837fd03c2206e12a8eb3553d780874e1a7941b9c67f3a726ce6edb4a9fd65e25ec988460405190815260200160405180910390a3505050565b600160a060020a038116837fa4e2520a41c90422e37fc8ba7153c519a427a62ea5f494a14a218a7b9bceb6ca8460405190815260200160405180910390a3505050565b81600160a060020a038085169086167f859b1cddb4da93a04541d62c27d7d83aa8173a1b37bbccd3c60ceb4ee19ee13e8460405190815260200160405180910390a450505050565b7f2e36a7093f25f22bd4cbdeb6040174c3ba4c5fe8f1abc04e7c3c48f26c7413e08160405190815260200160405180910390a150565b81600160a060020a031683600160a060020a03167f6c0468512076e943ed3d1c5aae1d6903c72162713d86aedd1381b3ac19e10cec83604051600160a060020a03909116815260200160405180910390a35050505600a165627a7a7230582030a5c9c4e1b1a42f8e39baaf47777538e544c43dcd58595444e4617b234fe8f60029",
  "source": "pragma solidity ^0.4.11;\n\nimport '../event/MultiEventsHistoryAdapter.sol';\n\n/**\n * @title ChronoBank Platform Emitter.\n *\n * Contains all the original event emitting function definitions and events.\n * In case of new events needed later, additional emitters can be developed.\n * All the functions is meant to be called using delegatecall.\n */\ncontract ChronoBankPlatformEmitter is MultiEventsHistoryAdapter {\n    event Transfer(address indexed from, address indexed to, bytes32 indexed symbol, uint value, string reference);\n    event Issue(bytes32 indexed symbol, uint value, address indexed by);\n    event Revoke(bytes32 indexed symbol, uint value, address indexed by);\n    event OwnershipChange(address indexed from, address indexed to, bytes32 indexed symbol);\n    event Approve(address indexed from, address indexed spender, bytes32 indexed symbol, uint value);\n    event Recovery(address indexed from, address indexed to, address by);\n    event Error(uint errorCode);\n\n    function emitTransfer(address _from, address _to, bytes32 _symbol, uint _value, string _reference) {\n        Transfer(_from, _to, _symbol, _value, _reference);\n    }\n\n    function emitIssue(bytes32 _symbol, uint _value, address _by) {\n        Issue(_symbol, _value, _by);\n    }\n\n    function emitRevoke(bytes32 _symbol, uint _value, address _by) {\n        Revoke(_symbol, _value, _by);\n    }\n\n    function emitOwnershipChange(address _from, address _to, bytes32 _symbol) {\n        OwnershipChange(_from, _to, _symbol);\n    }\n\n    function emitApprove(address _from, address _spender, bytes32 _symbol, uint _value) {\n        Approve(_from, _spender, _symbol, _value);\n    }\n\n    function emitRecovery(address _from, address _to, address _by) {\n        Recovery(_from, _to, _by);\n    }\n\n    function emitError(uint _errorCode) {\n        Error(_errorCode);\n    }\n}\n",
  "sourcePath": "/Users/ahiatsevich/Development/chronobank/SmartContracts/contracts/core/platform/ChronoBankPlatformEmitter.sol",
  "compiler": {
    "name": "solc",
    "version": "0.4.18+commit.9cf6e910.Emscripten.clang"
  },
  "schemaVersion": "1.0.1",
  "updatedAt": "2017-12-15T11:25:49.929Z"
}