{
  "contractName": "ChronoBankWalletFallbackSupporter",
  "abi": [
    {
      "constant": false,
      "inputs": [
        {
          "name": "_symbol",
          "type": "bytes32"
        }
      ],
      "name": "fallbackAsset",
      "outputs": [
        {
          "name": "",
          "type": "bool"
        }
      ],
      "payable": false,
      "stateMutability": "nonpayable",
      "type": "function"
    },
    {
      "constant": false,
      "inputs": [
        {
          "name": "_symbol",
          "type": "bytes32"
        },
        {
          "name": "_to",
          "type": "address"
        }
      ],
      "name": "fallbackAssetPassOwnership",
      "outputs": [
        {
          "name": "",
          "type": "bool"
        }
      ],
      "payable": false,
      "stateMutability": "nonpayable",
      "type": "function"
    },
    {
      "constant": false,
      "inputs": [],
      "name": "claimContractOwnership",
      "outputs": [
        {
          "name": "",
          "type": "bool"
        }
      ],
      "payable": false,
      "stateMutability": "nonpayable",
      "type": "function"
    },
    {
      "constant": true,
      "inputs": [
        {
          "name": "_identifier",
          "type": "bytes32"
        }
      ],
      "name": "lookupManager",
      "outputs": [
        {
          "name": "manager",
          "type": "address"
        }
      ],
      "payable": false,
      "stateMutability": "view",
      "type": "function"
    },
    {
      "constant": false,
      "inputs": [
        {
          "name": "_symbol",
          "type": "bytes32"
        },
        {
          "name": "_from",
          "type": "address"
        },
        {
          "name": "_data",
          "type": "bytes"
        }
      ],
      "name": "fallbackAssetInvoke",
      "outputs": [
        {
          "name": "",
          "type": "bool"
        }
      ],
      "payable": false,
      "stateMutability": "nonpayable",
      "type": "function"
    },
    {
      "constant": true,
      "inputs": [],
      "name": "contractsManager",
      "outputs": [
        {
          "name": "",
          "type": "address"
        }
      ],
      "payable": false,
      "stateMutability": "view",
      "type": "function"
    },
    {
      "constant": false,
      "inputs": [
        {
          "name": "_to",
          "type": "address"
        }
      ],
      "name": "changeContractOwnership",
      "outputs": [
        {
          "name": "",
          "type": "bool"
        }
      ],
      "payable": false,
      "stateMutability": "nonpayable",
      "type": "function"
    },
    {
      "constant": true,
      "inputs": [],
      "name": "pendingContractOwner",
      "outputs": [
        {
          "name": "",
          "type": "address"
        }
      ],
      "payable": false,
      "stateMutability": "view",
      "type": "function"
    },
    {
      "constant": false,
      "inputs": [
        {
          "name": "_contractsManager",
          "type": "address"
        }
      ],
      "name": "setContractsManager",
      "outputs": [],
      "payable": false,
      "stateMutability": "nonpayable",
      "type": "function"
    },
    {
      "constant": false,
      "inputs": [],
      "name": "destroy",
      "outputs": [],
      "payable": false,
      "stateMutability": "nonpayable",
      "type": "function"
    },
    {
      "constant": false,
      "inputs": [
        {
          "name": "_to",
          "type": "address"
        }
      ],
      "name": "transferContractOwnership",
      "outputs": [
        {
          "name": "",
          "type": "bool"
        }
      ],
      "payable": false,
      "stateMutability": "nonpayable",
      "type": "function"
    },
    {
      "constant": true,
      "inputs": [],
      "name": "contractOwner",
      "outputs": [
        {
          "name": "",
          "type": "address"
        }
      ],
      "payable": false,
      "stateMutability": "view",
      "type": "function"
    },
    {
      "constant": false,
      "inputs": [
        {
          "name": "tokens",
          "type": "address[]"
        },
        {
          "name": "_to",
          "type": "address"
        }
      ],
      "name": "withdrawnTokens",
      "outputs": [
        {
          "name": "",
          "type": "uint256"
        }
      ],
      "payable": false,
      "stateMutability": "nonpayable",
      "type": "function"
    },
    {
      "constant": true,
      "inputs": [
        {
          "name": "key",
          "type": "address"
        }
      ],
      "name": "isAuthorized",
      "outputs": [
        {
          "name": "",
          "type": "bool"
        }
      ],
      "payable": false,
      "stateMutability": "view",
      "type": "function"
    },
    {
      "inputs": [
        {
          "name": "_store",
          "type": "address"
        },
        {
          "name": "_crate",
          "type": "bytes32"
        }
      ],
      "payable": false,
      "stateMutability": "nonpayable",
      "type": "constructor"
    }
  ],
  "bytecode": "0x6060604052341561000f57600080fd5b604051604080610b688339810160405280805191906020018051915082905081818161004a60008383640100000000610a7061007182021704565b505060028054600160a060020a03191633600160a060020a03161790555061009792505050565b8254600160a060020a031916600160a060020a0392909216919091178255600190910155565b610ac2806100a66000396000f3006060604052600436106100b65763ffffffff60e060020a600035041663306a547d81146100bb57806344fc19cc146100e55780634592cd1d146101075780634fe590121461011a57806351ae07d91461014c57806353253d31146101b1578063557f4bc9146101c45780635aa77d3c146101e357806371d3b573146101f657806383197ef014610217578063a843c51f1461022a578063ce606ee014610249578063d8f9659b1461025c578063fe9fbb80146102c8575b600080fd5b34156100c657600080fd5b6100d16004356102e7565b604051901515815260200160405180910390f35b34156100f057600080fd5b6100d1600435600160a060020a0360243516610397565b341561011257600080fd5b6100d1610527565b341561012557600080fd5b610130600435610574565b604051600160a060020a03909116815260200160405180910390f35b341561015757600080fd5b6100d1600480359060248035600160a060020a0316919060649060443590810190830135806020601f820181900481020160405190810160405281815292919060208401838380828437509496506105f895505050505050565b34156101bc57600080fd5b610130610721565b34156101cf57600080fd5b6100d1600160a060020a0360043516610730565b34156101ee57600080fd5b610130610787565b341561020157600080fd5b610215600160a060020a0360043516610796565b005b341561022257600080fd5b6102156107cc565b341561023557600080fd5b6100d1600160a060020a03600435166107f1565b341561025457600080fd5b61013061086a565b341561026757600080fd5b6102b6600460248135818101908301358060208181020160405190810160405280939291908181526020018383602002808284375094965050509235600160a060020a03169250610879915050565b60405190815260200160405180910390f35b34156102d357600080fd5b6100d1600160a060020a03600435166109ca565b60006103127f4173736574734d616e6167657200000000000000000000000000000000000000610574565b600160a060020a0316636bc8acf53360006040516020015260405160e060020a63ffffffff8416028152600160a060020a039091166004820152602401602060405180830381600087803b151561036857600080fd5b6102c65a03f1151561037957600080fd5b50505060405180519050151561038e57600080fd5b5060015b919050565b6000806103c37f4173736574734d616e6167657200000000000000000000000000000000000000610574565b600160a060020a0316636bc8acf53360006040516020015260405160e060020a63ffffffff8416028152600160a060020a039091166004820152602401602060405180830381600087803b151561041957600080fd5b6102c65a03f1151561042a57600080fd5b50505060405180519050151561043f57600080fd5b33600160a060020a0316634bde38c86000604051602001526040518163ffffffff1660e060020a028152600401602060405180830381600087803b151561048557600080fd5b6102c65a03f1151561049657600080fd5b505050604051805190509050600181600160a060020a031663fd83915e868660006040516020015260405160e060020a63ffffffff85160281526004810192909252600160a060020a03166024820152604401602060405180830381600087803b151561050257600080fd5b6102c65a03f1151561051357600080fd5b505050604051805190501491505092915050565b60035460009033600160a060020a0390811691161461054857506000610571565b506003805460028054600160a060020a0319908116600160a060020a0384161790915516905560015b90565b600454600090600160a060020a031663bc65792783836040516020015260405160e060020a63ffffffff84160281526004810191909152602401602060405180830381600087803b15156105c757600080fd5b6102c65a03f115156105d857600080fd5b5050506040518051915050600160a060020a038116151561039257600080fd5b60006106237f4173736574734d616e6167657200000000000000000000000000000000000000610574565b600160a060020a0316636bc8acf53360006040516020015260405160e060020a63ffffffff8416028152600160a060020a039091166004820152602401602060405180830381600087803b151561067957600080fd5b6102c65a03f1151561068a57600080fd5b50505060405180519050151561069f57600080fd5b82600160a060020a03168260405180828051906020019080838360005b838110156106d45780820151838201526020016106bc565b50505050905090810190601f1680156107015780820380516001836020036101000a031916815260200191505b5091505060006040518083038160008661646e5a03f19695505050505050565b600454600160a060020a031681565b60025460009033600160a060020a039081169116141561039257600160a060020a038216151561076257506000610392565b5060038054600160a060020a038316600160a060020a03199091161790556001919050565b600354600160a060020a031681565b60025433600160a060020a03908116911614156107c95760048054600160a060020a031916600160a060020a0383161790555b50565b60025433600160a060020a03908116911614156107ef5733600160a060020a0316ff5b565b60025460009033600160a060020a039081169116141561039257600160a060020a038216151561082357506000610392565b600354600160a060020a0316156108455760038054600160a060020a03191690555b5060028054600160a060020a038316600160a060020a03199091161790556001919050565b600254600160a060020a031681565b60025460009081908190819033600160a060020a03908116911614156109c157600092505b85518310156109bc578583815181106108b357fe5b90602001906020020151915081600160a060020a03166370a082313060006040516020015260405160e060020a63ffffffff8416028152600160a060020a039091166004820152602401602060405180830381600087803b151561091657600080fd5b6102c65a03f1151561092757600080fd5b505050604051805191505080156109b15781600160a060020a031663a9059cbb868360006040516020015260405160e060020a63ffffffff8516028152600160a060020a0390921660048301526024820152604401602060405180830381600087803b151561099557600080fd5b6102c65a03f115156109a657600080fd5b505050604051805150505b60019092019161089e565b600193505b50505092915050565b6000806109f67f557365724d616e61676572000000000000000000000000000000000000000000610574565b905080600160a060020a0316632aa09e5a8460006040516020015260405160e060020a63ffffffff8416028152600160a060020a039091166004820152602401602060405180830381600087803b1515610a4f57600080fd5b6102c65a03f11515610a6057600080fd5b5050506040518051949350505050565b8254600160a060020a031916600160a060020a03929092169190911782556001909101555600a165627a7a72305820814b73f4186ef4af363de630638aa1ee6b874d2712361c362242c6f8a88066390029",
  "source": "pragma solidity ^0.4.11;\n\nimport \"./TokenExtensionFallbackInterface.sol\";\nimport \"../core/common/Managed.sol\";\nimport \"../core/platform/ChronoBankPlatformInterface.sol\";\nimport \"../assets/AssetsManagerInterface.sol\";\nimport \"../assets/TokenManagementInterface.sol\";\n\n/**\n* @title This contract is currently deprecated and should not be used througout the system.\n* Initial idea that stands behind its creation was supporting old implementation of\n* ChronoBankPlatform to be compatible with token extensions and assets manager. But since\n* this implementation is currently used only for hosting TIME tokens and all new tokens\n* will be created on another version of platform contract, so it is obvious not to use\n* it anymore\n*\n* DEPRECATED.\n*/\ncontract ChronoBankWalletFallbackSupporter is Managed, TokenExtensionFallbackInterface {\n\n    /**\n    * @dev Guards methods for calling only by one of platform token extensions.\n    */\n    modifier onlyTokenExtension() {\n        if (!TokenExtensionRegistry(lookupManager(\"AssetsManager\")).containsTokenExtension(msg.sender)) {\n            revert();\n        }\n        _;\n    }\n\n    function ChronoBankWalletFallbackSupporter(Storage _store, bytes32 _crate) Managed(_store, _crate) {\n    }\n\n    /**\n    * @dev Designed to check if a wallet supports fallback interface. Should be simple and return `true` or `false`\n    * depending on wether a contract wants to support this interface or not.\n    *\n    * @param _symbol asset's symbol\n    *\n    * @return `true` if a contract (wallet) supports fallback interface, `false` otherwise\n    */\n    function fallbackAsset(bytes32 _symbol) public onlyTokenExtension returns (bool)  {\n        return true;\n    }\n\n    /**\n    * @dev Defines main operation that will be performed throughout fallback interface. This method will be invoked only in case\n    * if `fallbackAsset` returns `true`. Purpose is to delegate invocation of any method that contract is allowed to call to\n    * a token extension.\n    *\n    * @param _symbol asset's symbol\n    * @param _from destination of calling. Contract that will be proposed to be called with data\n    * @param _data data passed to `call` on _from address\n    *\n    * @return `true` if call is successful, `false` otherwise\n    */\n    function fallbackAssetInvoke(bytes32 _symbol, address _from, bytes _data) public onlyTokenExtension returns (bool) {\n        return _from.call(_data);\n    }\n\n    /**\n    * @dev Helper method to provide a way to pass ownership of the platform after all operations are done to its real owner.\n    *\n    * @param _symbol asset's symbol\n    * @param _to real platform owner\n    *\n    * @return `true` if passing ownership is successful, `false` otherwise\n    */\n    function fallbackAssetPassOwnership(bytes32 _symbol, address _to) public onlyTokenExtension returns (bool) {\n        address _platform = TokenManagementInterface(msg.sender).platform();\n        return ChronoBankPlatformInterface(_platform).changeOwnership(_symbol, _to) == OK;\n    }\n}\n",
  "sourcePath": "/Users/mikefluff/Documents/Programming/Chronobank/test/SmartContracts/contracts/assets/ChronoBankWalletFallbackSupporter.sol",
  "compiler": {
    "name": "solc",
    "version": "0.4.18+commit.9cf6e910.Emscripten.clang"
  },
  "schemaVersion": "1.0.1",
  "updatedAt": "2018-01-12T11:40:45.081Z"
}