{
  "contractName": "ChronoBankAssetWithFee",
  "abi": [
    {
      "constant": false,
      "inputs": [
        {
          "name": "_proxy",
          "type": "address"
        }
      ],
      "name": "init",
      "outputs": [
        {
          "name": "",
          "type": "bool"
        }
      ],
      "payable": false,
      "stateMutability": "nonpayable",
      "type": "function"
    },
    {
      "constant": false,
      "inputs": [
        {
          "name": "_feePercent",
          "type": "uint32"
        }
      ],
      "name": "setFee",
      "outputs": [],
      "payable": false,
      "stateMutability": "nonpayable",
      "type": "function"
    },
    {
      "constant": true,
      "inputs": [],
      "name": "feeAddress",
      "outputs": [
        {
          "name": "",
          "type": "address"
        }
      ],
      "payable": false,
      "stateMutability": "view",
      "type": "function"
    },
    {
      "constant": false,
      "inputs": [],
      "name": "claimContractOwnership",
      "outputs": [
        {
          "name": "",
          "type": "bool"
        }
      ],
      "payable": false,
      "stateMutability": "nonpayable",
      "type": "function"
    },
    {
      "constant": false,
      "inputs": [
        {
          "name": "_to",
          "type": "address"
        }
      ],
      "name": "changeContractOwnership",
      "outputs": [
        {
          "name": "",
          "type": "bool"
        }
      ],
      "payable": false,
      "stateMutability": "nonpayable",
      "type": "function"
    },
    {
      "constant": true,
      "inputs": [],
      "name": "pendingContractOwner",
      "outputs": [
        {
          "name": "",
          "type": "address"
        }
      ],
      "payable": false,
      "stateMutability": "view",
      "type": "function"
    },
    {
      "constant": false,
      "inputs": [
        {
          "name": "_to",
          "type": "address"
        },
        {
          "name": "_value",
          "type": "uint256"
        },
        {
          "name": "_reference",
          "type": "string"
        },
        {
          "name": "_sender",
          "type": "address"
        }
      ],
      "name": "__transferWithReference",
      "outputs": [
        {
          "name": "",
          "type": "bool"
        }
      ],
      "payable": false,
      "stateMutability": "nonpayable",
      "type": "function"
    },
    {
      "constant": false,
      "inputs": [
        {
          "name": "_spender",
          "type": "address"
        },
        {
          "name": "_value",
          "type": "uint256"
        },
        {
          "name": "_sender",
          "type": "address"
        }
      ],
      "name": "__approve",
      "outputs": [
        {
          "name": "",
          "type": "bool"
        }
      ],
      "payable": false,
      "stateMutability": "nonpayable",
      "type": "function"
    },
    {
      "constant": true,
      "inputs": [],
      "name": "feePercent",
      "outputs": [
        {
          "name": "",
          "type": "uint32"
        }
      ],
      "payable": false,
      "stateMutability": "view",
      "type": "function"
    },
    {
      "constant": false,
      "inputs": [],
      "name": "destroy",
      "outputs": [],
      "payable": false,
      "stateMutability": "nonpayable",
      "type": "function"
    },
    {
      "constant": false,
      "inputs": [
        {
          "name": "_feeAddress",
          "type": "address"
        }
      ],
      "name": "setFeeAddress",
      "outputs": [
        {
          "name": "",
          "type": "bool"
        }
      ],
      "payable": false,
      "stateMutability": "nonpayable",
      "type": "function"
    },
    {
      "constant": true,
      "inputs": [
        {
          "name": "_value",
          "type": "uint256"
        }
      ],
      "name": "calculateFee",
      "outputs": [
        {
          "name": "",
          "type": "uint256"
        }
      ],
      "payable": false,
      "stateMutability": "view",
      "type": "function"
    },
    {
      "constant": false,
      "inputs": [
        {
          "name": "_to",
          "type": "address"
        }
      ],
      "name": "transferContractOwnership",
      "outputs": [
        {
          "name": "",
          "type": "bool"
        }
      ],
      "payable": false,
      "stateMutability": "nonpayable",
      "type": "function"
    },
    {
      "constant": false,
      "inputs": [
        {
          "name": "_feeAddress",
          "type": "address"
        },
        {
          "name": "_feePercent",
          "type": "uint32"
        }
      ],
      "name": "setupFee",
      "outputs": [
        {
          "name": "",
          "type": "bool"
        }
      ],
      "payable": false,
      "stateMutability": "nonpayable",
      "type": "function"
    },
    {
      "constant": true,
      "inputs": [],
      "name": "contractOwner",
      "outputs": [
        {
          "name": "",
          "type": "address"
        }
      ],
      "payable": false,
      "stateMutability": "view",
      "type": "function"
    },
    {
      "constant": true,
      "inputs": [],
      "name": "proxy",
      "outputs": [
        {
          "name": "",
          "type": "address"
        }
      ],
      "payable": false,
      "stateMutability": "view",
      "type": "function"
    },
    {
      "constant": false,
      "inputs": [
        {
          "name": "_from",
          "type": "address"
        },
        {
          "name": "_to",
          "type": "address"
        },
        {
          "name": "_value",
          "type": "uint256"
        },
        {
          "name": "_reference",
          "type": "string"
        },
        {
          "name": "_sender",
          "type": "address"
        }
      ],
      "name": "__transferFromWithReference",
      "outputs": [
        {
          "name": "",
          "type": "bool"
        }
      ],
      "payable": false,
      "stateMutability": "nonpayable",
      "type": "function"
    },
    {
      "constant": false,
      "inputs": [
        {
          "name": "_data",
          "type": "bytes"
        },
        {
          "name": "_sender",
          "type": "address"
        }
      ],
      "name": "__process",
      "outputs": [],
      "payable": true,
      "stateMutability": "payable",
      "type": "function"
    }
  ],
  "bytecode": "0x606060405260018054600160a060020a03191633600160a060020a0316179055610c0a8061002e6000396000f3006060604052600436106100e25763ffffffff60e060020a60003504166319ab453c81146100e75780631ab971ab1461011a57806341275358146101385780634592cd1d14610167578063557f4bc91461017a5780635aa77d3c146101995780636a630ee7146101ac5780637b7054c81461021c5780637fd6f15c1461024557806383197ef0146102715780638705fcd41461028457806399a5d747146102a3578063a843c51f146102cb578063ae8800fa146102ea578063ce606ee014610312578063ec55688914610325578063ec698a2814610338578063f2d6e0ab146103af575b600080fd5b34156100f257600080fd5b610106600160a060020a0360043516610400565b604051901515815260200160405180910390f35b341561012557600080fd5b61013663ffffffff6004351661043e565b005b341561014357600080fd5b61014b610499565b604051600160a060020a03909116815260200160405180910390f35b341561017257600080fd5b6101066104a8565b341561018557600080fd5b610106600160a060020a03600435166104f5565b34156101a457600080fd5b61014b61054c565b34156101b757600080fd5b61010660048035600160a060020a03169060248035919060649060443590810190830135806020601f8201819004810201604051908101604052818152929190602084018383808284375094965050509235600160a060020a0316925061055b915050565b341561022757600080fd5b610106600160a060020a03600435811690602435906044351661058a565b341561025057600080fd5b6102586105b7565b60405163ffffffff909116815260200160405180910390f35b341561027c57600080fd5b6101366105db565b341561028f57600080fd5b610106600160a060020a0360043516610600565b34156102ae57600080fd5b6102b960043561065d565b60405190815260200160405180910390f35b34156102d657600080fd5b610106600160a060020a03600435166106a7565b34156102f557600080fd5b610106600160a060020a036004351663ffffffff6024351661071e565b341561031d57600080fd5b61014b610753565b341561033057600080fd5b61014b610762565b341561034357600080fd5b610106600160a060020a036004803582169160248035909116916044359160849060643590810190830135806020601f8201819004810201604051908101604052818152929190602084018383808284375094965050509235600160a060020a03169250610771915050565b61013660046024813581810190830135806020601f8201819004810201604051908101604052818152929190602084018383808284375094965050509235600160a060020a031692506100e2915050565b60008054600160a060020a03161561041a57506000610439565b5060008054600160a060020a031916600160a060020a03831617905560015b919050565b60015433600160a060020a0390811691161415610496576003805477ffffffff000000000000000000000000000000000000000019167401000000000000000000000000000000000000000063ffffffff8416021790555b50565b600354600160a060020a031681565b60025460009033600160a060020a039081169116146104c9575060006104f2565b506002805460018054600160a060020a0319908116600160a060020a0384161782559091169091555b90565b60015460009033600160a060020a039081169116141561043957600160a060020a038216151561052757506000610439565b5060028054600160a060020a038316600160a060020a03199091161790556001919050565b600254600160a060020a031681565b6000805433600160a060020a03908116911614156105825761057f858585856107a2565b90505b949350505050565b6000805433600160a060020a03908116911614156105b0576105ad8484846107bf565b90505b9392505050565b60035474010000000000000000000000000000000000000000900463ffffffff1681565b60015433600160a060020a03908116911614156105fe5733600160a060020a0316ff5b565b60015460009033600160a060020a039081169116141561043957600354600160a060020a038381169116141561063857506000610439565b5060038054600160a060020a038316600160a060020a03199091161790556001919050565b60035460009074010000000000000000000000000000000000000000900463ffffffff168202612710810615610694576001610697565b60005b60ff166127108204019392505050565b60015460009033600160a060020a039081169116141561043957600160a060020a03821615156106d957506000610439565b600254600160a060020a0316156106fb5760028054600160a060020a03191690555b5060018054600160a060020a038316600160a060020a0319909116178155919050565b60015460009033600160a060020a039081169116141561074d576107418261043e565b61074a83610600565b90505b92915050565b600154600160a060020a031681565b600054600160a060020a031681565b6000805433600160a060020a039081169116141561079957610796868686868661084c565b90505b95945050505050565b600061057f8585858560206040519081016040526000815261086a565b60008054600160a060020a0316637b7054c8858585856040516020015260405160e060020a63ffffffff8616028152600160a060020a03938416600482015260248101929092529091166044820152606401602060405180830381600087803b151561082a57600080fd5b6102c65a03f1151561083b57600080fd5b505050604051805195945050505050565b600061079686868686866020604051908101604052600081526108bf565b60008285848461087b848484610916565b156108b25761088c8a8a8a8a610985565b151586528551945080511580156108a857506108a88484610a99565b156108b257600080fd5b5050505095945050505050565b6000868584846108d0848484610916565b15610908576108e28b8b8b8b8b610ad3565b151586528551945080511580156108fe57506108fe8484610a99565b1561090857600080fd5b505050509695505050505050565b60006109228484610a99565b1515610930575060016105b0565b6003546105ad908590600160a060020a031661094b8661065d565b60408051908101604052600f81527f5472616e73616374696f6e206665650000000000000000000000000000000000602082015286610ad3565b60008054600160a060020a0316636a630ee78686868686604051602001526040518563ffffffff1660e060020a0281526004018085600160a060020a0316600160a060020a031681526020018481526020018060200183600160a060020a0316600160a060020a03168152602001828103825284818151815260200191508051906020019080838360005b83811015610a28578082015183820152602001610a10565b50505050905090810190601f168015610a555780820380516001836020036101000a031916815260200191505b5095505050505050602060405180830381600087803b1515610a7657600080fd5b6102c65a03f11515610a8757600080fd5b50505060405180519695505050505050565b600354600090600160a060020a031615801590610ac45750600354600160a060020a03848116911614155b801561074a5750501515919050565b60008054600160a060020a031663ec698a288787878787876040516020015260405160e060020a63ffffffff8816028152600160a060020a0380871660048301908152868216602484015260448301869052908316608483015260a060648301908152909160a40184818151815260200191508051906020019080838360005b83811015610b6b578082015183820152602001610b53565b50505050905090810190601f168015610b985780820380516001836020036101000a031916815260200191505b509650505050505050602060405180830381600087803b1515610bba57600080fd5b6102c65a03f11515610bcb57600080fd5b50505060405180519796505050505050505600a165627a7a72305820948ca1a0eae06e6a51cd89429867d243800bcfb49c1d858b75f89ab06f93e5990029",
  "source": "pragma solidity ^0.4.11;\n\nimport \"./ChronoBankAsset.sol\";\nimport \"../common/Owned.sol\";\n\n/**\n * @title ChronoBank Asset With Fee implementation contract.\n *\n * Asset implementation contract that takes percent fee on top of every transfer.\n * Fee amount is always rounded up.\n *\n * Note: all the non constant functions return false instead of throwing in case if state change\n * didn't happen yet.\n */\ncontract ChronoBankAssetWithFee is ChronoBankAsset, Owned {\n    // Fee collecting address, immutable.\n    address public feeAddress;\n\n    // Fee percent, immutable. 1 is 0.01%, 10000 is 100%.\n    uint32 public feePercent;\n\n    /**\n     * Allows the call if fee was successfully taken, throws if the call failed in the end.\n     */\n    modifier takeFee(address _from, uint _fromValue, address _sender, bool[1] memory _success) {\n        if (_transferFee(_from, _fromValue, _sender)) {\n            _;\n            if (!_success[0] && _subjectToFees(_from, _fromValue)) {\n                revert();\n            }\n        }\n    }\n\n    /**\n     * Sets fee collecting address and fee percent.\n     *\n     * @param _feeAddress fee collecting address.\n     * @param _feePercent fee percent, 1 is 0.01%, 10000 is 100%.\n     *\n     * @return success.\n     */\n    function setupFee(address _feeAddress, uint32 _feePercent) onlyContractOwner public returns (bool) {\n        setFee(_feePercent);\n        return setFeeAddress(_feeAddress);\n    }\n\n    /**\n    * @dev Sets fee address separate from setting fee percent value. Can be set only once\n    *\n    * @param _feeAddress fee collecting address\n    *\n    * @return result of the operation\n    */\n    function setFeeAddress(address _feeAddress) onlyContractOwner public returns (bool) {\n        if (feeAddress == _feeAddress) {\n            return false;\n        }\n        feeAddress = _feeAddress;\n        return true;\n    }\n\n    /**\n    * @dev Sets fee percent value. Can be changed multiple times\n    *\n    * @param _feePercent fee percent, 1 is 0.01%, 10000 is 100%.\n    */\n    function setFee(uint32 _feePercent) onlyContractOwner public {\n        feePercent = _feePercent;\n    }\n\n    /**\n     * Passes execution into modified function with function-modifier partially shared scope.\n     *\n     * @return success.\n     */\n    function _transferWithReference(address _to, uint _value, string _reference, address _sender) internal returns(bool) {\n        return _transferWithReference(_to, _value, _reference, _sender, [false]);\n    }\n\n    /**\n     * Transfers asset balance from the specified sender to specified receiver adding specified comment.\n     *\n     * Will be executed only in case of successful fee payment from the sender.\n     *\n     * @param _to holder address to give to.\n     * @param _value amount to transfer.\n     * @param _reference transfer comment to be included in a platform's Transfer event.\n     * @param _sender initial caller.\n     * @param _success function-modifier shared scope, so that modifier knows the result of a call.\n     *\n     * @return success.\n     */\n    function _transferWithReference(address _to, uint _value, string _reference, address _sender, bool[1] memory _success) takeFee(_sender, _value, _sender, _success) internal returns(bool) {\n        _success[0] = super._transferWithReference(_to, _value, _reference, _sender);\n        return _success[0];\n    }\n\n    /**\n     * Passes execution into modified function with function-modifier partially shared scope.\n     *\n     * @return success.\n     */\n    function _transferFromWithReference(address _from, address _to, uint _value, string _reference, address _sender) internal returns(bool) {\n        return _transferFromWithReference(_from, _to, _value, _reference, _sender, [false]);\n    }\n\n    /**\n     * Performs allowance transfer of asset balance from the specified payer to specified receiver\n     * adding specified comment.\n     *\n     * Will be executed only in case of successful fee payment from the payer.\n     *\n     * @param _from holder address to take from.\n     * @param _to holder address to give to.\n     * @param _value amount to transfer.\n     * @param _reference transfer comment to be included in a platform's Transfer event.\n     * @param _sender initial caller.\n     * @param _success function-modifier shared scope, so that modifier knows the result of a call.\n     *\n     * @return success.\n     */\n    function _transferFromWithReference(address _from, address _to, uint _value, string _reference, address _sender, bool[1] memory _success) takeFee(_from, _value, _sender, _success) internal returns(bool) {\n        _success[0] = super._transferFromWithReference(_from, _to, _value, _reference, _sender);\n        return _success[0];\n    }\n\n    /**\n     * Transfers fee from the specified payer to fee collecting address.\n     *\n     * Will be executed only if payer and amount are subjects to fees.\n     *\n     * @param _feeFrom payer to take fee from.\n     * @param _fromValue amount to apply fee percent.\n     * @param _sender initial caller.\n     *\n     * @return success.\n     */\n    function _transferFee(address _feeFrom, uint _fromValue, address _sender) internal returns(bool) {\n        if (!_subjectToFees(_feeFrom, _fromValue)) {\n            return true;\n        }\n        return super._transferFromWithReference(_feeFrom, feeAddress, calculateFee(_fromValue), \"Transaction fee\", _sender);\n    }\n\n    /**\n     * Check if specified payer and amount are subjects to fees.\n     *\n     * Fee is not taken if:\n     *  - Fee collecting address is not set;\n     *  - Payer is fee collecting address itself;\n     *  - Amount equals 0;\n     *\n     * @return true if fee needs to be taken.\n     */\n    function _subjectToFees(address _feeFrom, uint _fromValue) internal returns(bool) {\n        return feeAddress != 0x0\n            && feeAddress != _feeFrom\n            && _fromValue != 0;\n    }\n\n    /**\n     * Return fee that needs to be taken based on specified amount.\n     *\n     * Fee amount is always rounded up.\n     *\n     * @return fee amount.\n     */\n    function calculateFee(uint _value) constant returns(uint) {\n        uint feeRaw = _value * feePercent;\n        return (feeRaw / 10000) + (feeRaw % 10000 == 0 ? 0 : 1);\n    }\n}\n",
  "sourcePath": "/Users/ahiatsevich/Development/chronobank/SmartContracts/contracts/core/platform/ChronoBankAssetWithFee.sol",
  "compiler": {
    "name": "solc",
    "version": "0.4.18+commit.9cf6e910.Emscripten.clang"
  },
  "schemaVersion": "1.0.1",
  "updatedAt": "2017-12-15T11:25:49.917Z"
}