{
  "contractName": "ChronoBankPlatformFactory",
  "abi": [
    {
      "constant": false,
      "inputs": [],
      "name": "claimContractOwnership",
      "outputs": [
        {
          "name": "",
          "type": "bool"
        }
      ],
      "payable": false,
      "stateMutability": "nonpayable",
      "type": "function"
    },
    {
      "constant": false,
      "inputs": [
        {
          "name": "_to",
          "type": "address"
        }
      ],
      "name": "changeContractOwnership",
      "outputs": [
        {
          "name": "",
          "type": "bool"
        }
      ],
      "payable": false,
      "stateMutability": "nonpayable",
      "type": "function"
    },
    {
      "constant": true,
      "inputs": [],
      "name": "pendingContractOwner",
      "outputs": [
        {
          "name": "",
          "type": "address"
        }
      ],
      "payable": false,
      "stateMutability": "view",
      "type": "function"
    },
    {
      "constant": false,
      "inputs": [],
      "name": "destroy",
      "outputs": [],
      "payable": false,
      "stateMutability": "nonpayable",
      "type": "function"
    },
    {
      "constant": false,
      "inputs": [
        {
          "name": "_ownershipResolver",
          "type": "address"
        }
      ],
      "name": "setOwnershipResolver",
      "outputs": [],
      "payable": false,
      "stateMutability": "nonpayable",
      "type": "function"
    },
    {
      "constant": false,
      "inputs": [
        {
          "name": "_to",
          "type": "address"
        }
      ],
      "name": "transferContractOwnership",
      "outputs": [
        {
          "name": "",
          "type": "bool"
        }
      ],
      "payable": false,
      "stateMutability": "nonpayable",
      "type": "function"
    },
    {
      "constant": false,
      "inputs": [
        {
          "name": "",
          "type": "address"
        },
        {
          "name": "eventsHistory",
          "type": "address"
        },
        {
          "name": "eventsHistoryAdmin",
          "type": "address"
        }
      ],
      "name": "createPlatform",
      "outputs": [
        {
          "name": "",
          "type": "address"
        }
      ],
      "payable": false,
      "stateMutability": "nonpayable",
      "type": "function"
    },
    {
      "constant": true,
      "inputs": [],
      "name": "contractOwner",
      "outputs": [
        {
          "name": "",
          "type": "address"
        }
      ],
      "payable": false,
      "stateMutability": "view",
      "type": "function"
    },
    {
      "inputs": [
        {
          "name": "_ownershipResolver",
          "type": "address"
        }
      ],
      "payable": false,
      "stateMutability": "nonpayable",
      "type": "constructor"
    }
  ],
  "bytecode": "0x6060604052341561000f57600080fd5b6040516020806131fd8339810160405280805160008054600160a060020a03191633600160a060020a039081169190911790915590925082161515905061005557600080fd5b60028054600160a060020a031916600160a060020a0392909216919091179055613179806100846000396000f3006060604052600436106100745763ffffffff60e060020a6000350416634592cd1d8114610079578063557f4bc9146100a05780635aa77d3c146100bf57806383197ef0146100ee578063a38dca5114610103578063a843c51f14610122578063af34be4014610141578063ce606ee01461016c575b600080fd5b341561008457600080fd5b61008c61017f565b604051901515815260200160405180910390f35b34156100ab57600080fd5b61008c600160a060020a03600435166101d7565b34156100ca57600080fd5b6100d2610236565b604051600160a060020a03909116815260200160405180910390f35b34156100f957600080fd5b610101610245565b005b341561010e57600080fd5b610101600160a060020a036004351661026a565b341561012d57600080fd5b61008c600160a060020a03600435166102c2565b341561014c57600080fd5b6100d2600160a060020a0360043581169060243581169060443516610353565b341561017757600080fd5b6100d26105bf565b60015460009033600160a060020a039081169116146101a0575060006101d4565b50600180546000805473ffffffffffffffffffffffffffffffffffffffff19908116600160a060020a038416179091551681555b90565b6000805433600160a060020a039081169116141561023157600160a060020a038216151561020757506000610231565b506001805473ffffffffffffffffffffffffffffffffffffffff1916600160a060020a0383161781555b919050565b600154600160a060020a031681565b60005433600160a060020a03908116911614156102685733600160a060020a0316ff5b565b60005433600160a060020a03908116911614156102bf57600160a060020a038116151561029657600080fd5b6002805473ffffffffffffffffffffffffffffffffffffffff1916600160a060020a0383161790555b50565b6000805433600160a060020a039081169116141561023157600160a060020a03821615156102f257506000610231565b600154600160a060020a031615610321576001805473ffffffffffffffffffffffffffffffffffffffff191690555b5060008054600160a060020a03831673ffffffffffffffffffffffffffffffffffffffff199091161790556001919050565b60008061035e6105ce565b604051809103906000f080151561037457600080fd5b905083600160a060020a031663b6a5d7de8260006040516020015260405160e060020a63ffffffff8416028152600160a060020a039091166004820152602401602060405180830381600087803b15156103cd57600080fd5b6102c65a03f115156103de57600080fd5b50505060405180515050600160a060020a03811663552f27f58460006040516020015260405160e060020a63ffffffff8416028152600160a060020a039091166004820152602401602060405180830381600087803b151561043f57600080fd5b6102c65a03f1151561045057600080fd5b50505060405180515050600160a060020a0381166302927d208560006040516020015260405160e060020a63ffffffff8416028152600160a060020a039091166004820152602401602060405180830381600087803b15156104b157600080fd5b6102c65a03f115156104c257600080fd5b50505060405180515050600254600160a060020a0380831691638dcff4f9911660006040516020015260405160e060020a63ffffffff8416028152600160a060020a039091166004820152602401602060405180830381600087803b151561052957600080fd5b6102c65a03f1151561053a57600080fd5b50505060405180515050600160a060020a03811663a843c51f3360006040516020015260405160e060020a63ffffffff8416028152600160a060020a039091166004820152602401602060405180830381600087803b151561059b57600080fd5b6102c65a03f115156105ac57600080fd5b5050506040518051509095945050505050565b600054600160a060020a031681565b604051612b6f806105df833901905600606060405260008054600160a060020a033316600160a060020a0319909116179055612b3f806100306000396000f30060606040526004361061028f5763ffffffff60e060020a60003504166302571be3811461029457806302927d20146102c6578063048ae1bb146102f7578063085a4705146103195780630af3e660146103c35780631286e393146103e257806314712e2f14610401578063161ff6621461042e5780631c8d5d38146104aa5780632a11ced0146104d25780632f553d31146104e85780634592cd1d146105125780634637d827146105255780634d30b6be14610544578063515c145714610566578063552f27f5146105d9578063557f4bc9146105f857806357a96dd0146106175780635aa77d3c1461068a5780635b7da3381461069d578063638a9ce9146106b6578063648bf774146106d85780636713e230146106fd5780636825c84314610722578063691f3431146107385780636932af36146107c55780636b4ed21b146107db57806383197ef0146107ee5780638dcff4f9146108015780639fda5b6614610820578063a3ff0ea21461095b578063a831751d14610a14578063a843c51f14610a33578063a9612f7214610a52578063abafaa1614610a7a578063b524abcf14610a9f578063bebcc04514610ab5578063c4eeeeb914610acb578063c70bbc1314610ae1578063ca448a8814610b06578063cb59646614610b1f578063ccc11f1114610b3e578063ccce413b14610b60578063ce606ee014610b76578063d54c8c8714610b89578063d8b163d014610bb4578063d8f9659b14610bc7578063dc86e6f014610c21578063df26ca0814610c4d578063e0873c0614610c63578063e96b462a14610c7c578063ea14457e14610c9e578063ec77809f14610cc9578063ecac7f4b14610ceb578063f07629f814610cfe578063f0c06aa514610d11578063fd83915e14610d30575b600080fd5b341561029f57600080fd5b6102aa600435610d52565b604051600160a060020a03909116815260200160405180910390f35b34156102d157600080fd5b6102e5600160a060020a0360043516610d7d565b60405190815260200160405180910390f35b341561030257600080fd5b6102e5600435600160a060020a0360243516610dd5565b341561032457600080fd5b6102e5600480359060248035919060649060443590810190830135806020601f8201819004810201604051908101604052818152929190602084018383808284378201915050505050509190803590602001908201803590602001908080601f0160208091040260200160405190810160405281815292919060208401838380828437509496505060ff853516946020013515159350610ea892505050565b34156103ce57600080fd5b6102e5600160a060020a0360043516610ec6565b34156103ed57600080fd5b6102e5600160a060020a0360043516610ee1565b341561040c57600080fd5b6102e5600160a060020a03600435811690602435906044359060643516610f1e565b341561043957600080fd5b6102e5600160a060020a0360048035821691602480359091169160443591606435919060a49060843590810190830135806020601f8201819004810201604051908101604052818152929190602084018383808284375094965050509235600160a060020a03169250610f6b915050565b34156104b557600080fd5b6102e5600160a060020a0360043581169060243516604435610fc4565b34156104dd57600080fd5b6102aa600435610fe9565b34156104f357600080fd5b6104fe600435611004565b604051901515815260200160405180910390f35b341561051d57600080fd5b6104fe611018565b341561053057600080fd5b6102e5600160a060020a0360043516611063565b341561054f57600080fd5b6102e5600160a060020a03600435166024356110e8565b341561057157600080fd5b6105d7600160a060020a0360048035821691602480359091169160443591606435919060a49060843590810190830135806020601f8201819004810201604051908101604052818152929190602084018383808284375094965061110595505050505050565b005b34156105e457600080fd5b6102e5600160a060020a03600435166111bb565b341561060357600080fd5b6104fe600160a060020a03600435166111f8565b341561062257600080fd5b6102e560048035600160a060020a03169060248035916044359160849060643590810190830135806020601f8201819004810201604051908101604052818152929190602084018383808284375094965050509235600160a060020a0316925061124b915050565b341561069557600080fd5b6102aa611289565b34156106a857600080fd5b6102e5600435602435611298565b34156106c157600080fd5b6102e5600160a060020a03600435166024356112b8565b34156106e357600080fd5b6102e5600160a060020a036004358116906024351661134b565b341561070857600080fd5b6104fe600160a060020a036004358116906024351661148d565b341561072d57600080fd5b6102aa6004356114d1565b341561074357600080fd5b61074e6004356114ec565b60405160208082528190810183818151815260200191508051906020019080838360005b8381101561078a578082015183820152602001610772565b50505050905090810190601f1680156107b75780820380516001836020036101000a031916815260200191505b509250505060405180910390f35b34156107d057600080fd5b6102aa6004356115b2565b34156107e657600080fd5b6102e56115cd565b34156107f957600080fd5b6105d76115d3565b341561080c57600080fd5b6102e5600160a060020a03600435166115f8565b341561082b57600080fd5b610836600435611650565b60405186815260208101869052821515608082015260ff821660a082015260c06040820181815286546002600019610100600184161502019091160491830182905290606083019060e0840190889080156108d25780601f106108a7576101008083540402835291602001916108d2565b820191906000526020600020905b8154815290600101906020018083116108b557829003601f168201915b50508381038252865460026000196101006001841615020190911604808252602090910190879080156109465780601f1061091b57610100808354040283529160200191610946565b820191906000526020600020905b81548152906001019060200180831161092957829003601f168201915b50509850505050505050505060405180910390f35b341561096657600080fd5b6102e5600480359060248035919060649060443590810190830135806020601f8201819004810201604051908101604052818152929190602084018383808284378201915050505050509190803590602001908201803590602001908080601f0160208091040260200160405190810160405281815292919060208401838380828437509496505050833560ff169360208101351515935060400135600160a060020a031691506116869050565b3415610a1f57600080fd5b6102e5600160a060020a03600435166118da565b3415610a3e57600080fd5b6104fe600160a060020a036004351661191b565b3415610a5d57600080fd5b6105d7600160a060020a0360043581169060243516604435611992565b3415610a8557600080fd5b6105d7600435602435600160a060020a03604435166119d2565b3415610aaa57600080fd5b6102e5600435611a15565b3415610ac057600080fd5b61074e600435611a2a565b3415610ad657600080fd5b6104fe600435611ab9565b3415610aec57600080fd5b6105d7600435602435600160a060020a0360443516611ad1565b3415610b1157600080fd5b6102e5600435602435611b14565b3415610b2a57600080fd5b6104fe600160a060020a0360043516611c51565b3415610b4957600080fd5b6104fe600160a060020a0360043516602435611c66565b3415610b6b57600080fd5b6102e5600435611cc2565b3415610b8157600080fd5b6102aa611ce1565b3415610b9457600080fd5b6105d7600160a060020a0360043581169060243516604435606435611cf0565b3415610bbf57600080fd5b6102aa611d38565b3415610bd257600080fd5b6102e5600460248135818101908301358060208181020160405190810160405280939291908181526020018383602002808284375094965050509235600160a060020a03169250611d47915050565b3415610c2c57600080fd5b610c37600435611e94565b60405160ff909116815260200160405180910390f35b3415610c5857600080fd5b6105d7600435611eb1565b3415610c6e57600080fd5b6102e5600435602435611ee7565b3415610c8757600080fd5b6104fe600160a060020a0360043516602435612032565b3415610ca957600080fd5b6105d7600160a060020a0360043581169060243581169060443516612065565b3415610cd457600080fd5b6102e5600435600160a060020a03602435166120bb565b3415610cf657600080fd5b6102e561216a565b3415610d0957600080fd5b6102aa612170565b3415610d1c57600080fd5b6102e5600160a060020a036004351661217f565b3415610d3b57600080fd5b6102e5600435600160a060020a03602435166121e5565b60008181526006602090815260408083205483526003909152902054600160a060020a03165b919050565b600a5460009033600160a060020a0390811691161480610dab575060005433600160a060020a039081169116145b15610d78575060098054600160a060020a038316600160a060020a03199091161790556001919050565b60008083610de33382611c66565b15610ea057610df1846122f7565b600086815260066020818152604080842085855290920190529020805460ff191660011790559150610e238585612362565b600954600160a060020a031663a9612f726000868860405160e060020a63ffffffff8616028152600160a060020a0393841660048201529190921660248201526044810191909152606401600060405180830381600087803b1515610e8757600080fd5b6102c65a03f11515610e9857600080fd5b505050600192505b505092915050565b6000610eb987878787878733611686565b90505b9695505050505050565b600160a060020a031660009081526004602052604090205490565b6000805433600160a060020a0390811691161415610d785750600160a060020a03166000908152600860205260409020805460ff19169055600190565b600082815260076020526040812054839033600160a060020a0390811691161415610f6257610f5f610f4f876122f7565b8686610f5a876122f7565b6123ec565b91505b50949350505050565b600083815260076020526040812054849033600160a060020a0390811691161415610fb957610fb6610f9c89610ec6565b610fa5896122f7565b888888610fb189610ec6565b6125d9565b91505b509695505050505050565b6000610fe1610fd285610ec6565b610fdb85610ec6565b846127da565b949350505050565b600360205260009081526040902054600160a060020a031681565b600090815260066020526040902054151590565b60015460009033600160a060020a0390811691161461103957506000611060565b506001805460008054600160a060020a0319908116600160a060020a038416179091551681555b90565b60008061106f336122f7565b905061107a83610ec6565b8114156110935761108c613a99612808565b91506110e2565b61109d338461148d565b156110ad5761108c613aa3612808565b6000818152600360209081526040808320600160a060020a03871684526001908101909252909120805460ff19168217905591505b50919050565b60006110fc6110f684610ec6565b83611298565b90505b92915050565b82600160a060020a038086169087167f8f1b83868d2ecc962fd90cfee71c9c52455fe10940937bc7571d90ba404c5c3b858560405182815260406020820181815290820183818151815260200191508051906020019080838360005b83811015611179578082015183820152602001611161565b50505050905090810190601f1680156111a65780820380516001836020036101000a031916815260200191505b50935050505060405180910390a45050505050565b6000805433600160a060020a0390811691161415610d785750600a8054600160a060020a038316600160a060020a03199091161790556001919050565b6000805433600160a060020a0390811691161415610d7857600160a060020a038216151561122857506000610d78565b5060018054600160a060020a038316600160a060020a0319909116178155919050565b600083815260076020526040812054849033600160a060020a039081169116141561127f5761127c610f9c84610ec6565b91505b5095945050505050565b600154600160a060020a031681565b600090815260066020908152604080832093835260059093019052205490565b6000805433600160a060020a03908116911614806112ee5750600160a060020a03331660009081526008602052604090205460ff165b156110ff57600082815260076020526040902054600160a060020a0316156113195750613a986110ff565b5060008181526007602052604090208054600160a060020a038416600160a060020a0319909116179055600192915050565b600080833361135a828261148d565b156114845761136885610ec6565b1561137f57611378613aa4612808565b9350611484565b6003600061138c88610ec6565b81526020810191909152604001600090812054600160a060020a0316935085906003906113b889610ec6565b815260208101919091526040016000208054600160a060020a031916600160a060020a03929092169190911790556113ef86610ec6565b600160a060020a038087166000908152600460205260409081902092909255600954169063ea14457e908590889033905160e060020a63ffffffff8616028152600160a060020a03938416600482015291831660248301529091166044820152606401600060405180830381600087803b151561146b57600080fd5b6102c65a03f1151561147c57600080fd5b505050600193505b50505092915050565b60006003600061149c85610ec6565b815260208082019290925260409081016000908120600160a060020a038616825260010190925290205460ff16905092915050565b600090815260036020526040902054600160a060020a031690565b6114f4612a40565b6006600083600019166000191681526020019081526020016000206002018054600181600116156101000203166002900480601f0160208091040260200160405190810160405280929190818152602001828054600181600116156101000203166002900480156115a65780601f1061157b576101008083540402835291602001916115a6565b820191906000526020600020905b81548152906001019060200180831161158957829003601f168201915b50505050509050919050565b600760205260009081526040902054600160a060020a031681565b60025481565b60005433600160a060020a03908116911614156115f65733600160a060020a0316ff5b565b600a5460009033600160a060020a0390811691161480611626575060005433600160a060020a039081169116145b15610d785750600b8054600160a060020a038316600160a060020a03199091161790556001919050565b60066020526000908152604090208054600182015460048301549192909160028201916003019060ff8082169161010090041686565b600080548190819033600160a060020a03908116911614806116c05750600160a060020a03331660009081526008602052604090205460ff165b156118cd57881580156116d1575084155b156116e8576116e1613a9e612808565b92506118cd565b6116f18a611004565b15611701576116e1613a9d612808565b61170a846122f7565b915033600160a060020a031684600160a060020a0316146117335761172e336122f7565b611735565b815b90506005805480600101828161174b9190612a52565b5060009182526020909120018a905560c0604051908101604090815282825260208083018c90528183018b9052606083018a9052871515608084015260ff891660a084015260008d815260069091522081518155602082015181600101556040820151816002019080516117c3929160200190612a7b565b506060820151816003019080516117de929160200190612a7b565b50608082015160048201805460ff191691151591909117905560a08201516004909101805460ff929092166101000261ff00199092169190911790555060008a8152600660209081526040808320858452600501909152902089905561184c8a611847836114d1565b612362565b600954600160a060020a031663abafaa168b8b611868866114d1565b60405160e060020a63ffffffff861602815260048101939093526024830191909152600160a060020a03166044820152606401600060405180830381600087803b15156118b457600080fd5b6102c65a03f115156118c557600080fd5b505050600192505b5050979650505050505050565b6000805433600160a060020a0390811691161415610d785750600160a060020a03166000908152600860205260409020805460ff1916600190811790915590565b6000805433600160a060020a0390811691161415610d7857600160a060020a038216151561194b57506000610d78565b600154600160a060020a03161561196d5760018054600160a060020a03191690555b5060008054600160a060020a038316600160a060020a03199091161790556001919050565b80600160a060020a038084169085167f0de92ba2d86c482d7f947cc22a580692bb78d6277988023434905f44b8cd261a60405160405180910390a4505050565b600160a060020a038116837fd03c2206e12a8eb3553d780874e1a7941b9c67f3a726ce6edb4a9fd65e25ec988460405190815260200160405180910390a3505050565b60009081526006602052604090206001015490565b611a32612a40565b6006600083600019166000191681526020019081526020016000206003018054600181600116156101000203166002900480601f0160208091040260200160405190810160405280929190818152602001828054600181600116156101000203166002900480156115a65780601f1061157b576101008083540402835291602001916115a6565b60009081526006602052604090206004015460ff1690565b600160a060020a038116837fa4e2520a41c90422e37fc8ba7153c519a427a62ea5f494a14a218a7b9bceb6ca8460405190815260200160405180910390a3505050565b60008080831515611b3157611b2a613a9a612808565b9250610ea0565b60008581526006602052604090209150611b4a33610ec6565b600081815260058401602052604090205490915084901015611b7157611b2a613aa1612808565b6000818152600583016020526040902054611b92908563ffffffff61286d16565b60008281526005840160205260409020556001820154611bb8908563ffffffff61286d16565b6001830155600954600160a060020a031663c70bbc138686611bd9856114d1565b60405160e060020a63ffffffff861602815260048101939093526024830191909152600160a060020a03166044820152606401600060405180830381600087803b1515611c2557600080fd5b6102c65a03f11515611c3657600080fd5b505050611c46816000868861287f565b506001949350505050565b60086020526000908152604090205460ff1681565b600080611c7284610ec6565b9050611c7d83611004565b8015610fe15750600083815260066020526040902054811480610fe157506000838152600660208181526040808420858552909201905290205460ff16949350505050565b6005805482908110611cd057fe5b600091825260209091200154905081565b600054600160a060020a031681565b81600160a060020a038085169086167f859b1cddb4da93a04541d62c27d7d83aa8173a1b37bbccd3c60ceb4ee19ee13e8460405190815260200160405180910390a450505050565b600a54600160a060020a031681565b6000805481908190819033600160a060020a039081169116141561148457600092505b8551831015611e8857858381518110611d7f57fe5b90602001906020020151915081600160a060020a03166370a082313060006040516020015260405160e060020a63ffffffff8416028152600160a060020a039091166004820152602401602060405180830381600087803b1515611de257600080fd5b6102c65a03f11515611df357600080fd5b50505060405180519150508015611e7d5781600160a060020a031663a9059cbb868360006040516020015260405160e060020a63ffffffff8516028152600160a060020a0390921660048301526024820152604401602060405180830381600087803b1515611e6157600080fd5b6102c65a03f11515611e7257600080fd5b505050604051805150505b600190920191611d6a565b50600195945050505050565b600090815260066020526040902060040154610100900460ff1690565b7f2e36a7093f25f22bd4cbdeb6040174c3ba4c5fe8f1abc04e7c3c48f26c7413e08160405190815260200160405180910390a150565b600080600084611ef73382611c66565b1561148457841515611f0e57611378613a9a612808565b6000868152600660205260409020600481015490935060ff161515611f3857611378613a9f612808565b60018301548581011015611f5157611378613aa0612808565b611f5a33610ec6565b6000818152600585016020526040902054909250611f7e908663ffffffff61293616565b60008381526005850160205260409020556001830154611fa4908663ffffffff61293616565b6001840155600954600160a060020a031663abafaa168787611fc5866114d1565b60405160e060020a63ffffffff861602815260048101939093526024830191909152600160a060020a03166044820152606401600060405180830381600087803b151561201157600080fd5b6102c65a03f1151561202257600080fd5b505050611e88600083878961287f565b600061203d82611004565b80156110fc575061204d83610ec6565b60008381526006602052604090205414905092915050565b81600160a060020a031683600160a060020a03167f6c0468512076e943ed3d1c5aae1d6903c72162713d86aedd1381b3ac19e10cec83604051600160a060020a03909116815260200160405180910390a3505050565b600080836120c93382611c66565b15610ea0576120d784610ec6565b600086815260066020818152604080842085855290920190529020805460ff191690559150612106858561294c565b600954600160a060020a031663a9612f728560008860405160e060020a63ffffffff8616028152600160a060020a0393841660048201529190921660248201526044810191909152606401600060405180830381600087803b1515610e8757600080fd5b60055490565b600954600160a060020a031681565b6000338261218d828261148d565b156121de576000600360006121a133610ec6565b815260208082019290925260409081016000908120600160a060020a0389168252600190810190935220805460ff19169215159290921790915592505b5050919050565b600080600080856121f63382612032565b156122ed57600160a060020a038616151561221d57612216613aa2612808565b94506122ed565b60008781526006602052604090209350612236866122f7565b845490935083141561224d57612216613a99612808565b8354612258906114d1565b8385559150612267878361294c565b6122718787612362565b600954600160a060020a031663a9612f7283888a60405160e060020a63ffffffff8616028152600160a060020a0393841660048201529190921660248201526044810191909152606401600060405180830381600087803b15156122d457600080fd5b6102c65a03f115156122e557600080fd5b505050600194505b5050505092915050565b600160a060020a0381166000908152600460205260408120548015156110ff5750600280546001019081905560008181526003602090815260408083208054600160a060020a031916600160a060020a03881690811790915583526004909152902081905592915050565b600b54600160a060020a0316156123e857600b54600160a060020a031663660a333e83308460405160e060020a63ffffffff86160281526004810193909352600160a060020a039182166024840152166044820152606401600060405180830381600087803b15156123d357600080fd5b6102c65a03f115156123e457600080fd5b5050505b5050565b60006123f783611004565b151561240f57612408613aa5612808565b9050610fe1565b8482141561242257612408613a99612808565b600083815260066020908152604080832085845260050182528083208884526001019091529020541580159061245757508315155b1561246757612408613aa9612808565b600083815260066020908152604080832085845260050182528083208884526001019091529020849055600954600160a060020a031663d54c8c876124ab846114d1565b6124b4886114d1565b868860405160e060020a63ffffffff8716028152600160a060020a03948516600482015292909316602483015260448201526064810191909152608401600060405180830381600087803b151561250a57600080fd5b6102c65a03f1151561251b57600080fd5b505050600083815260076020526040902054600160a060020a031615611c4657600083815260076020526040902054600160a060020a03166323385089612561846114d1565b61256a886114d1565b8760405160e060020a63ffffffff8616028152600160a060020a0393841660048201529190921660248201526044810191909152606401600060405180830381600087803b15156125ba57600080fd5b6102c65a03f115156125cb57600080fd5b505050506001949350505050565b6000858714156125f5576125ee613a99612808565b9050610ebc565b841515612607576125ee613a9a612808565b846126128886611298565b1015612623576125ee613a9b612808565b81871415801561263c57508461263a8884876127da565b105b1561264c576125ee613a9c612808565b612658878787876129bd565b8682146126c05760008481526006602090815260408083208a84526005018252808320858452600101909152902054612697908663ffffffff61286d16565b60008581526006602090815260408083208b845260050182528083208684526001019091529020555b600954600160a060020a031663515c14576126da896114d1565b6126e3896114d1565b87898860405160e060020a63ffffffff8816028152600160a060020a03808716600483019081529086166024830152604482018590526064820184905260a060848301908152909160a40183818151815260200191508051906020019080838360005b8381101561275e578082015183820152602001612746565b50505050905090810190601f16801561278b5780820380516001836020036101000a031916815260200191505b509650505050505050600060405180830381600087803b15156127ad57600080fd5b6102c65a03f115156127be57600080fd5b5050506127cd8787878761287f565b5060019695505050505050565b6000908152600660209081526040808320948352600590940181528382209282526001909201909152205490565b600954600090600160a060020a031663df26ca088360405160e060020a63ffffffff84160281526004810191909152602401600060405180830381600087803b151561285357600080fd5b6102c65a03f1151561286457600080fd5b50929392505050565b60008282111561287957fe5b50900390565b600081815260076020526040902054600160a060020a03161561293057600081815260076020526040902054600160a060020a03166323de66516128c2866114d1565b6128cb866114d1565b8560405160e060020a63ffffffff8616028152600160a060020a0393841660048201529190921660248201526044810191909152606401600060405180830381600087803b151561291b57600080fd5b6102c65a03f1151561292c57600080fd5b5050505b50505050565b60008282018381101561294557fe5b9392505050565b600b54600160a060020a0316156123e857600b54600160a060020a0316632604674383308460405160e060020a63ffffffff86160281526004810193909352600160a060020a039182166024840152166044820152606401600060405180830381600087803b15156123d357600080fd5b60008181526006602090815260408083208784526005019091529020546129ea908363ffffffff61286d16565b6000828152600660209081526040808320888452600501909152808220929092558481522054612a1a9083612936565b600091825260066020908152604080842095845260059095019052929020919091555050565b60206040519081016040526000815290565b815481835581811511612a7657600083815260209020612a76918101908301612af9565b505050565b828054600181600116156101000203166002900490600052602060002090601f016020900481019282601f10612abc57805160ff1916838001178555612ae9565b82800160010185558215612ae9579182015b82811115612ae9578251825591602001919060010190612ace565b50612af5929150612af9565b5090565b61106091905b80821115612af55760008155600101612aff5600a165627a7a723058202959784db2f034d76298bf8c6cdc6cb2c674bc459ceaf3d97b9e17725c9dc0fe0029a165627a7a723058205366dd13adc71ff8015d908ba3dda050db04ecea81b4ecd4c5d1e6b02b4ad3770029",
  "source": "pragma solidity ^0.4.11;\n\nimport \"./ChronoBankPlatform.sol\";\nimport \"../event/MultiEventsHistory.sol\";\nimport \"../common/Owned.sol\";\nimport \"../contracts/ContractsManagerInterface.sol\";\n\n/**\n* @title Implementation of platform factory to create exactly ChronoBankPlatform contract instances.\n*/\ncontract ChronoBankPlatformFactory is Owned {\n\n    /** @dev DEPRECATED. WILL BE REMOVED IN NEXT RELEASES */\n    address ownershipResolver;\n\n    function ChronoBankPlatformFactory(address _ownershipResolver) public {\n        require(_ownershipResolver != 0x0);\n\n        ownershipResolver = _ownershipResolver;\n    }\n\n    function setOwnershipResolver(address _ownershipResolver) onlyContractOwner public {\n        require(_ownershipResolver != 0x0);\n        ownershipResolver = _ownershipResolver;\n    }\n\n    /**\n    * @dev Creates a brand new platform and transfers platform ownership to msg.sender\n    */\n    function createPlatform(address, MultiEventsHistory eventsHistory, address eventsHistoryAdmin) public returns(address) {\n        ChronoBankPlatform platform = new ChronoBankPlatform();\n        eventsHistory.authorize(platform);\n        platform.setupEventsAdmin(eventsHistoryAdmin);\n        platform.setupEventsHistory(eventsHistory);\n        platform.setupAssetOwningListener(ownershipResolver);\n        platform.transferContractOwnership(msg.sender);\n        return platform;\n    }\n}\n",
  "sourcePath": "/Users/mikefluff/Documents/Programming/Chronobank/test/SmartContracts/contracts/core/platform/ChronoBankPlatformFactory.sol",
  "compiler": {
    "name": "solc",
    "version": "0.4.18+commit.9cf6e910.Emscripten.clang"
  },
  "schemaVersion": "1.0.1",
  "updatedAt": "2018-01-12T11:40:45.234Z"
}