{
  "contractName": "ChronoBankPlatformTestable",
  "abi": [
    {
      "constant": true,
      "inputs": [
        {
          "name": "_symbol",
          "type": "bytes32"
        }
      ],
      "name": "owner",
      "outputs": [
        {
          "name": "",
          "type": "address"
        }
      ],
      "payable": false,
      "stateMutability": "view",
      "type": "function"
    },
    {
      "constant": false,
      "inputs": [
        {
          "name": "_eventsHistory",
          "type": "address"
        }
      ],
      "name": "setupEventsHistory",
      "outputs": [
        {
          "name": "errorCode",
          "type": "uint256"
        }
      ],
      "payable": false,
      "stateMutability": "nonpayable",
      "type": "function"
    },
    {
      "constant": false,
      "inputs": [
        {
          "name": "_symbol",
          "type": "bytes32"
        },
        {
          "name": "_partowner",
          "type": "address"
        }
      ],
      "name": "addAssetPartOwner",
      "outputs": [
        {
          "name": "",
          "type": "uint256"
        }
      ],
      "payable": false,
      "stateMutability": "nonpayable",
      "type": "function"
    },
    {
      "constant": false,
      "inputs": [
        {
          "name": "_symbol",
          "type": "bytes32"
        },
        {
          "name": "_value",
          "type": "uint256"
        },
        {
          "name": "_name",
          "type": "string"
        },
        {
          "name": "_description",
          "type": "string"
        },
        {
          "name": "_baseUnit",
          "type": "uint8"
        },
        {
          "name": "_isReissuable",
          "type": "bool"
        }
      ],
      "name": "issueAsset",
      "outputs": [
        {
          "name": "",
          "type": "uint256"
        }
      ],
      "payable": false,
      "stateMutability": "nonpayable",
      "type": "function"
    },
    {
      "constant": true,
      "inputs": [
        {
          "name": "_holder",
          "type": "address"
        }
      ],
      "name": "getHolderId",
      "outputs": [
        {
          "name": "",
          "type": "uint256"
        }
      ],
      "payable": false,
      "stateMutability": "view",
      "type": "function"
    },
    {
      "constant": false,
      "inputs": [
        {
          "name": "_partowner",
          "type": "address"
        }
      ],
      "name": "removePartOwner",
      "outputs": [
        {
          "name": "",
          "type": "uint256"
        }
      ],
      "payable": false,
      "stateMutability": "nonpayable",
      "type": "function"
    },
    {
      "constant": false,
      "inputs": [
        {
          "name": "_spender",
          "type": "address"
        },
        {
          "name": "_value",
          "type": "uint256"
        },
        {
          "name": "_symbol",
          "type": "bytes32"
        },
        {
          "name": "_sender",
          "type": "address"
        }
      ],
      "name": "proxyApprove",
      "outputs": [
        {
          "name": "",
          "type": "uint256"
        }
      ],
      "payable": false,
      "stateMutability": "nonpayable",
      "type": "function"
    },
    {
      "constant": false,
      "inputs": [
        {
          "name": "_from",
          "type": "address"
        },
        {
          "name": "_to",
          "type": "address"
        },
        {
          "name": "_value",
          "type": "uint256"
        },
        {
          "name": "_symbol",
          "type": "bytes32"
        },
        {
          "name": "_reference",
          "type": "string"
        },
        {
          "name": "_sender",
          "type": "address"
        }
      ],
      "name": "proxyTransferFromWithReference",
      "outputs": [
        {
          "name": "",
          "type": "uint256"
        }
      ],
      "payable": false,
      "stateMutability": "nonpayable",
      "type": "function"
    },
    {
      "constant": true,
      "inputs": [
        {
          "name": "_from",
          "type": "address"
        },
        {
          "name": "_spender",
          "type": "address"
        },
        {
          "name": "_symbol",
          "type": "bytes32"
        }
      ],
      "name": "allowance",
      "outputs": [
        {
          "name": "",
          "type": "uint256"
        }
      ],
      "payable": false,
      "stateMutability": "view",
      "type": "function"
    },
    {
      "constant": true,
      "inputs": [
        {
          "name": "",
          "type": "uint256"
        }
      ],
      "name": "holders",
      "outputs": [
        {
          "name": "addr",
          "type": "address"
        }
      ],
      "payable": false,
      "stateMutability": "view",
      "type": "function"
    },
    {
      "constant": true,
      "inputs": [
        {
          "name": "_symbol",
          "type": "bytes32"
        }
      ],
      "name": "isCreated",
      "outputs": [
        {
          "name": "",
          "type": "bool"
        }
      ],
      "payable": false,
      "stateMutability": "view",
      "type": "function"
    },
    {
      "constant": false,
      "inputs": [
        {
          "name": "_from",
          "type": "address"
        },
        {
          "name": "_to",
          "type": "address"
        },
        {
          "name": "_value",
          "type": "uint256"
        },
        {
          "name": "_symbol",
          "type": "bytes32"
        },
        {
          "name": "_reference",
          "type": "string"
        }
      ],
      "name": "transferFromWithReference",
      "outputs": [
        {
          "name": "",
          "type": "bool"
        }
      ],
      "payable": false,
      "stateMutability": "nonpayable",
      "type": "function"
    },
    {
      "constant": false,
      "inputs": [
        {
          "name": "_from",
          "type": "address"
        },
        {
          "name": "_to",
          "type": "address"
        },
        {
          "name": "_value",
          "type": "uint256"
        },
        {
          "name": "_symbol",
          "type": "bytes32"
        }
      ],
      "name": "transferFrom",
      "outputs": [
        {
          "name": "",
          "type": "bool"
        }
      ],
      "payable": false,
      "stateMutability": "nonpayable",
      "type": "function"
    },
    {
      "constant": false,
      "inputs": [],
      "name": "claimContractOwnership",
      "outputs": [
        {
          "name": "",
          "type": "bool"
        }
      ],
      "payable": false,
      "stateMutability": "nonpayable",
      "type": "function"
    },
    {
      "constant": false,
      "inputs": [
        {
          "name": "_to",
          "type": "address"
        }
      ],
      "name": "trust",
      "outputs": [
        {
          "name": "",
          "type": "uint256"
        }
      ],
      "payable": false,
      "stateMutability": "nonpayable",
      "type": "function"
    },
    {
      "constant": true,
      "inputs": [
        {
          "name": "_holder",
          "type": "address"
        },
        {
          "name": "_symbol",
          "type": "bytes32"
        }
      ],
      "name": "balanceOf",
      "outputs": [
        {
          "name": "",
          "type": "uint256"
        }
      ],
      "payable": false,
      "stateMutability": "view",
      "type": "function"
    },
    {
      "constant": false,
      "inputs": [
        {
          "name": "_from",
          "type": "address"
        },
        {
          "name": "_to",
          "type": "address"
        },
        {
          "name": "_symbol",
          "type": "bytes32"
        },
        {
          "name": "_value",
          "type": "uint256"
        },
        {
          "name": "_reference",
          "type": "string"
        }
      ],
      "name": "emitTransfer",
      "outputs": [],
      "payable": false,
      "stateMutability": "nonpayable",
      "type": "function"
    },
    {
      "constant": false,
      "inputs": [
        {
          "name": "_eventsAdmin",
          "type": "address"
        }
      ],
      "name": "setupEventsAdmin",
      "outputs": [
        {
          "name": "errorCode",
          "type": "uint256"
        }
      ],
      "payable": false,
      "stateMutability": "nonpayable",
      "type": "function"
    },
    {
      "constant": false,
      "inputs": [
        {
          "name": "_to",
          "type": "address"
        }
      ],
      "name": "changeContractOwnership",
      "outputs": [
        {
          "name": "",
          "type": "bool"
        }
      ],
      "payable": false,
      "stateMutability": "nonpayable",
      "type": "function"
    },
    {
      "constant": false,
      "inputs": [
        {
          "name": "_to",
          "type": "address"
        },
        {
          "name": "_value",
          "type": "uint256"
        },
        {
          "name": "_symbol",
          "type": "bytes32"
        },
        {
          "name": "_reference",
          "type": "string"
        },
        {
          "name": "_sender",
          "type": "address"
        }
      ],
      "name": "proxyTransferWithReference",
      "outputs": [
        {
          "name": "",
          "type": "uint256"
        }
      ],
      "payable": false,
      "stateMutability": "nonpayable",
      "type": "function"
    },
    {
      "constant": false,
      "inputs": [
        {
          "name": "_to",
          "type": "address"
        },
        {
          "name": "_value",
          "type": "uint256"
        },
        {
          "name": "_symbol",
          "type": "bytes32"
        }
      ],
      "name": "transfer",
      "outputs": [
        {
          "name": "",
          "type": "bool"
        }
      ],
      "payable": false,
      "stateMutability": "nonpayable",
      "type": "function"
    },
    {
      "constant": true,
      "inputs": [],
      "name": "pendingContractOwner",
      "outputs": [
        {
          "name": "",
          "type": "address"
        }
      ],
      "payable": false,
      "stateMutability": "view",
      "type": "function"
    },
    {
      "constant": true,
      "inputs": [
        {
          "name": "_holderId",
          "type": "uint256"
        },
        {
          "name": "_symbol",
          "type": "bytes32"
        }
      ],
      "name": "_balanceOf",
      "outputs": [
        {
          "name": "",
          "type": "uint256"
        }
      ],
      "payable": false,
      "stateMutability": "view",
      "type": "function"
    },
    {
      "constant": false,
      "inputs": [
        {
          "name": "_proxyAddress",
          "type": "address"
        },
        {
          "name": "_symbol",
          "type": "bytes32"
        }
      ],
      "name": "setProxy",
      "outputs": [
        {
          "name": "",
          "type": "uint256"
        }
      ],
      "payable": false,
      "stateMutability": "nonpayable",
      "type": "function"
    },
    {
      "constant": false,
      "inputs": [
        {
          "name": "_from",
          "type": "address"
        },
        {
          "name": "_to",
          "type": "address"
        }
      ],
      "name": "recover",
      "outputs": [
        {
          "name": "errorCode",
          "type": "uint256"
        }
      ],
      "payable": false,
      "stateMutability": "nonpayable",
      "type": "function"
    },
    {
      "constant": true,
      "inputs": [
        {
          "name": "_from",
          "type": "address"
        },
        {
          "name": "_to",
          "type": "address"
        }
      ],
      "name": "isTrusted",
      "outputs": [
        {
          "name": "",
          "type": "bool"
        }
      ],
      "payable": false,
      "stateMutability": "view",
      "type": "function"
    },
    {
      "constant": true,
      "inputs": [
        {
          "name": "_holderId",
          "type": "uint256"
        }
      ],
      "name": "_address",
      "outputs": [
        {
          "name": "",
          "type": "address"
        }
      ],
      "payable": false,
      "stateMutability": "view",
      "type": "function"
    },
    {
      "constant": true,
      "inputs": [
        {
          "name": "_symbol",
          "type": "bytes32"
        }
      ],
      "name": "name",
      "outputs": [
        {
          "name": "",
          "type": "string"
        }
      ],
      "payable": false,
      "stateMutability": "view",
      "type": "function"
    },
    {
      "constant": true,
      "inputs": [
        {
          "name": "",
          "type": "bytes32"
        }
      ],
      "name": "proxies",
      "outputs": [
        {
          "name": "",
          "type": "address"
        }
      ],
      "payable": false,
      "stateMutability": "view",
      "type": "function"
    },
    {
      "constant": true,
      "inputs": [],
      "name": "holdersCount",
      "outputs": [
        {
          "name": "",
          "type": "uint256"
        }
      ],
      "payable": false,
      "stateMutability": "view",
      "type": "function"
    },
    {
      "constant": false,
      "inputs": [
        {
          "name": "_to",
          "type": "address"
        },
        {
          "name": "_value",
          "type": "uint256"
        },
        {
          "name": "_symbol",
          "type": "bytes32"
        },
        {
          "name": "_reference",
          "type": "string"
        }
      ],
      "name": "transferWithReference",
      "outputs": [
        {
          "name": "",
          "type": "bool"
        }
      ],
      "payable": false,
      "stateMutability": "nonpayable",
      "type": "function"
    },
    {
      "constant": false,
      "inputs": [
        {
          "name": "_spender",
          "type": "address"
        },
        {
          "name": "_value",
          "type": "uint256"
        },
        {
          "name": "_symbol",
          "type": "bytes32"
        }
      ],
      "name": "approve",
      "outputs": [
        {
          "name": "",
          "type": "bool"
        }
      ],
      "payable": false,
      "stateMutability": "nonpayable",
      "type": "function"
    },
    {
      "constant": false,
      "inputs": [],
      "name": "destroy",
      "outputs": [],
      "payable": false,
      "stateMutability": "nonpayable",
      "type": "function"
    },
    {
      "constant": false,
      "inputs": [
        {
          "name": "_listener",
          "type": "address"
        }
      ],
      "name": "setupAssetOwningListener",
      "outputs": [
        {
          "name": "",
          "type": "uint256"
        }
      ],
      "payable": false,
      "stateMutability": "nonpayable",
      "type": "function"
    },
    {
      "constant": true,
      "inputs": [
        {
          "name": "",
          "type": "bytes32"
        }
      ],
      "name": "assets",
      "outputs": [
        {
          "name": "owner",
          "type": "uint256"
        },
        {
          "name": "totalSupply",
          "type": "uint256"
        },
        {
          "name": "name",
          "type": "string"
        },
        {
          "name": "description",
          "type": "string"
        },
        {
          "name": "isReissuable",
          "type": "bool"
        },
        {
          "name": "baseUnit",
          "type": "uint8"
        }
      ],
      "payable": false,
      "stateMutability": "view",
      "type": "function"
    },
    {
      "constant": false,
      "inputs": [
        {
          "name": "_symbol",
          "type": "bytes32"
        },
        {
          "name": "_value",
          "type": "uint256"
        },
        {
          "name": "_name",
          "type": "string"
        },
        {
          "name": "_description",
          "type": "string"
        },
        {
          "name": "_baseUnit",
          "type": "uint8"
        },
        {
          "name": "_isReissuable",
          "type": "bool"
        },
        {
          "name": "_account",
          "type": "address"
        }
      ],
      "name": "issueAsset",
      "outputs": [
        {
          "name": "",
          "type": "uint256"
        }
      ],
      "payable": false,
      "stateMutability": "nonpayable",
      "type": "function"
    },
    {
      "constant": false,
      "inputs": [
        {
          "name": "_partowner",
          "type": "address"
        }
      ],
      "name": "addPartOwner",
      "outputs": [
        {
          "name": "",
          "type": "uint256"
        }
      ],
      "payable": false,
      "stateMutability": "nonpayable",
      "type": "function"
    },
    {
      "constant": false,
      "inputs": [
        {
          "name": "_to",
          "type": "address"
        }
      ],
      "name": "transferContractOwnership",
      "outputs": [
        {
          "name": "",
          "type": "bool"
        }
      ],
      "payable": false,
      "stateMutability": "nonpayable",
      "type": "function"
    },
    {
      "constant": false,
      "inputs": [
        {
          "name": "_from",
          "type": "address"
        },
        {
          "name": "_to",
          "type": "address"
        },
        {
          "name": "_symbol",
          "type": "bytes32"
        }
      ],
      "name": "emitOwnershipChange",
      "outputs": [],
      "payable": false,
      "stateMutability": "nonpayable",
      "type": "function"
    },
    {
      "constant": false,
      "inputs": [
        {
          "name": "_symbol",
          "type": "bytes32"
        },
        {
          "name": "_value",
          "type": "uint256"
        },
        {
          "name": "_by",
          "type": "address"
        }
      ],
      "name": "emitIssue",
      "outputs": [],
      "payable": false,
      "stateMutability": "nonpayable",
      "type": "function"
    },
    {
      "constant": true,
      "inputs": [
        {
          "name": "_symbol",
          "type": "bytes32"
        }
      ],
      "name": "totalSupply",
      "outputs": [
        {
          "name": "",
          "type": "uint256"
        }
      ],
      "payable": false,
      "stateMutability": "view",
      "type": "function"
    },
    {
      "constant": true,
      "inputs": [
        {
          "name": "_symbol",
          "type": "bytes32"
        }
      ],
      "name": "description",
      "outputs": [
        {
          "name": "",
          "type": "string"
        }
      ],
      "payable": false,
      "stateMutability": "view",
      "type": "function"
    },
    {
      "constant": true,
      "inputs": [
        {
          "name": "_symbol",
          "type": "bytes32"
        }
      ],
      "name": "isReissuable",
      "outputs": [
        {
          "name": "",
          "type": "bool"
        }
      ],
      "payable": false,
      "stateMutability": "view",
      "type": "function"
    },
    {
      "constant": false,
      "inputs": [
        {
          "name": "_symbol",
          "type": "bytes32"
        },
        {
          "name": "_value",
          "type": "uint256"
        },
        {
          "name": "_by",
          "type": "address"
        }
      ],
      "name": "emitRevoke",
      "outputs": [],
      "payable": false,
      "stateMutability": "nonpayable",
      "type": "function"
    },
    {
      "constant": false,
      "inputs": [
        {
          "name": "_symbol",
          "type": "bytes32"
        },
        {
          "name": "_value",
          "type": "uint256"
        }
      ],
      "name": "revokeAsset",
      "outputs": [
        {
          "name": "",
          "type": "uint256"
        }
      ],
      "payable": false,
      "stateMutability": "nonpayable",
      "type": "function"
    },
    {
      "constant": true,
      "inputs": [
        {
          "name": "",
          "type": "address"
        }
      ],
      "name": "partowners",
      "outputs": [
        {
          "name": "",
          "type": "bool"
        }
      ],
      "payable": false,
      "stateMutability": "view",
      "type": "function"
    },
    {
      "constant": true,
      "inputs": [
        {
          "name": "_owner",
          "type": "address"
        },
        {
          "name": "_symbol",
          "type": "bytes32"
        }
      ],
      "name": "hasAssetRights",
      "outputs": [
        {
          "name": "",
          "type": "bool"
        }
      ],
      "payable": false,
      "stateMutability": "view",
      "type": "function"
    },
    {
      "constant": true,
      "inputs": [
        {
          "name": "",
          "type": "uint256"
        }
      ],
      "name": "symbols",
      "outputs": [
        {
          "name": "",
          "type": "bytes32"
        }
      ],
      "payable": false,
      "stateMutability": "view",
      "type": "function"
    },
    {
      "constant": true,
      "inputs": [],
      "name": "contractOwner",
      "outputs": [
        {
          "name": "",
          "type": "address"
        }
      ],
      "payable": false,
      "stateMutability": "view",
      "type": "function"
    },
    {
      "constant": false,
      "inputs": [
        {
          "name": "_from",
          "type": "address"
        },
        {
          "name": "_spender",
          "type": "address"
        },
        {
          "name": "_symbol",
          "type": "bytes32"
        },
        {
          "name": "_value",
          "type": "uint256"
        }
      ],
      "name": "emitApprove",
      "outputs": [],
      "payable": false,
      "stateMutability": "nonpayable",
      "type": "function"
    },
    {
      "constant": true,
      "inputs": [],
      "name": "eventsAdmin",
      "outputs": [
        {
          "name": "",
          "type": "address"
        }
      ],
      "payable": false,
      "stateMutability": "view",
      "type": "function"
    },
    {
      "constant": false,
      "inputs": [
        {
          "name": "tokens",
          "type": "address[]"
        },
        {
          "name": "_to",
          "type": "address"
        }
      ],
      "name": "withdrawnTokens",
      "outputs": [
        {
          "name": "",
          "type": "uint256"
        }
      ],
      "payable": false,
      "stateMutability": "nonpayable",
      "type": "function"
    },
    {
      "constant": true,
      "inputs": [
        {
          "name": "_symbol",
          "type": "bytes32"
        }
      ],
      "name": "baseUnit",
      "outputs": [
        {
          "name": "",
          "type": "uint8"
        }
      ],
      "payable": false,
      "stateMutability": "view",
      "type": "function"
    },
    {
      "constant": false,
      "inputs": [
        {
          "name": "_errorCode",
          "type": "uint256"
        }
      ],
      "name": "emitError",
      "outputs": [],
      "payable": false,
      "stateMutability": "nonpayable",
      "type": "function"
    },
    {
      "constant": false,
      "inputs": [
        {
          "name": "_symbol",
          "type": "bytes32"
        },
        {
          "name": "_value",
          "type": "uint256"
        }
      ],
      "name": "reissueAsset",
      "outputs": [
        {
          "name": "",
          "type": "uint256"
        }
      ],
      "payable": false,
      "stateMutability": "nonpayable",
      "type": "function"
    },
    {
      "constant": true,
      "inputs": [
        {
          "name": "_owner",
          "type": "address"
        },
        {
          "name": "_symbol",
          "type": "bytes32"
        }
      ],
      "name": "isOwner",
      "outputs": [
        {
          "name": "",
          "type": "bool"
        }
      ],
      "payable": false,
      "stateMutability": "view",
      "type": "function"
    },
    {
      "constant": false,
      "inputs": [
        {
          "name": "_from",
          "type": "address"
        },
        {
          "name": "_to",
          "type": "address"
        },
        {
          "name": "_by",
          "type": "address"
        }
      ],
      "name": "emitRecovery",
      "outputs": [],
      "payable": false,
      "stateMutability": "nonpayable",
      "type": "function"
    },
    {
      "constant": false,
      "inputs": [
        {
          "name": "_symbol",
          "type": "bytes32"
        },
        {
          "name": "_partowner",
          "type": "address"
        }
      ],
      "name": "removeAssetPartOwner",
      "outputs": [
        {
          "name": "",
          "type": "uint256"
        }
      ],
      "payable": false,
      "stateMutability": "nonpayable",
      "type": "function"
    },
    {
      "constant": true,
      "inputs": [],
      "name": "symbolsCount",
      "outputs": [
        {
          "name": "",
          "type": "uint256"
        }
      ],
      "payable": false,
      "stateMutability": "view",
      "type": "function"
    },
    {
      "constant": true,
      "inputs": [],
      "name": "eventsHistory",
      "outputs": [
        {
          "name": "",
          "type": "address"
        }
      ],
      "payable": false,
      "stateMutability": "view",
      "type": "function"
    },
    {
      "constant": false,
      "inputs": [
        {
          "name": "_to",
          "type": "address"
        }
      ],
      "name": "distrust",
      "outputs": [
        {
          "name": "",
          "type": "uint256"
        }
      ],
      "payable": false,
      "stateMutability": "nonpayable",
      "type": "function"
    },
    {
      "constant": false,
      "inputs": [
        {
          "name": "_symbol",
          "type": "bytes32"
        },
        {
          "name": "_newOwner",
          "type": "address"
        }
      ],
      "name": "changeOwnership",
      "outputs": [
        {
          "name": "",
          "type": "uint256"
        }
      ],
      "payable": false,
      "stateMutability": "nonpayable",
      "type": "function"
    },
    {
      "anonymous": false,
      "inputs": [
        {
          "indexed": true,
          "name": "from",
          "type": "address"
        },
        {
          "indexed": true,
          "name": "to",
          "type": "address"
        },
        {
          "indexed": true,
          "name": "symbol",
          "type": "bytes32"
        },
        {
          "indexed": false,
          "name": "value",
          "type": "uint256"
        },
        {
          "indexed": false,
          "name": "reference",
          "type": "string"
        }
      ],
      "name": "Transfer",
      "type": "event"
    },
    {
      "anonymous": false,
      "inputs": [
        {
          "indexed": true,
          "name": "symbol",
          "type": "bytes32"
        },
        {
          "indexed": false,
          "name": "value",
          "type": "uint256"
        },
        {
          "indexed": true,
          "name": "by",
          "type": "address"
        }
      ],
      "name": "Issue",
      "type": "event"
    },
    {
      "anonymous": false,
      "inputs": [
        {
          "indexed": true,
          "name": "symbol",
          "type": "bytes32"
        },
        {
          "indexed": false,
          "name": "value",
          "type": "uint256"
        },
        {
          "indexed": true,
          "name": "by",
          "type": "address"
        }
      ],
      "name": "Revoke",
      "type": "event"
    },
    {
      "anonymous": false,
      "inputs": [
        {
          "indexed": true,
          "name": "from",
          "type": "address"
        },
        {
          "indexed": true,
          "name": "to",
          "type": "address"
        },
        {
          "indexed": true,
          "name": "symbol",
          "type": "bytes32"
        }
      ],
      "name": "OwnershipChange",
      "type": "event"
    },
    {
      "anonymous": false,
      "inputs": [
        {
          "indexed": true,
          "name": "from",
          "type": "address"
        },
        {
          "indexed": true,
          "name": "spender",
          "type": "address"
        },
        {
          "indexed": true,
          "name": "symbol",
          "type": "bytes32"
        },
        {
          "indexed": false,
          "name": "value",
          "type": "uint256"
        }
      ],
      "name": "Approve",
      "type": "event"
    },
    {
      "anonymous": false,
      "inputs": [
        {
          "indexed": true,
          "name": "from",
          "type": "address"
        },
        {
          "indexed": true,
          "name": "to",
          "type": "address"
        },
        {
          "indexed": false,
          "name": "by",
          "type": "address"
        }
      ],
      "name": "Recovery",
      "type": "event"
    },
    {
      "anonymous": false,
      "inputs": [
        {
          "indexed": false,
          "name": "errorCode",
          "type": "uint256"
        }
      ],
      "name": "Error",
      "type": "event"
    }
  ],
  "bytecode": "0x606060405260008054600160a060020a033316600160a060020a0319909116179055612d74806100306000396000f3006060604052600436106102c65763ffffffff60e060020a60003504166302571be381146102cb57806302927d20146102fd578063048ae1bb1461032e578063085a4705146103505780630af3e660146103fa5780631286e3931461041957806314712e2f14610438578063161ff662146104655780631c8d5d38146104e15780632a11ced0146105095780632f553d311461051f57806331c6c4cf14610549578063401e3367146105ba5780634592cd1d146105e55780634637d827146105f85780634d30b6be14610617578063515c145714610639578063552f27f5146106ac578063557f4bc9146106cb57806357a96dd0146106ea57806357cfeeee1461075d5780635aa77d3c146107825780635b7da33814610795578063638a9ce9146107ae578063648bf774146107d05780636713e230146107f55780636825c8431461081a578063691f3431146108305780636932af36146108bd5780636b4ed21b146108d35780636e293817146108e65780638180f2fc1461094e57806383197ef0146109735780638dcff4f9146109865780639fda5b66146109a5578063a3ff0ea214610ae0578063a831751d14610b99578063a843c51f14610bb8578063a9612f7214610bd7578063abafaa1614610bff578063b524abcf14610c24578063bebcc04514610c3a578063c4eeeeb914610c50578063c70bbc1314610c66578063ca448a8814610c8b578063cb59646614610ca4578063ccc11f1114610cc3578063ccce413b14610ce5578063ce606ee014610cfb578063d54c8c8714610d0e578063d8b163d014610d39578063d8f9659b14610d4c578063dc86e6f014610da6578063df26ca0814610dd2578063e0873c0614610de8578063e96b462a14610e01578063ea14457e14610e23578063ec77809f14610e4e578063ecac7f4b14610e70578063f07629f814610e83578063f0c06aa514610e96578063fd83915e14610eb5575b600080fd5b34156102d657600080fd5b6102e1600435610ed7565b604051600160a060020a03909116815260200160405180910390f35b341561030857600080fd5b61031c600160a060020a0360043516610f02565b60405190815260200160405180910390f35b341561033957600080fd5b61031c600435600160a060020a0360243516610f5a565b341561035b57600080fd5b61031c600480359060248035919060649060443590810190830135806020601f8201819004810201604051908101604052818152929190602084018383808284378201915050505050509190803590602001908201803590602001908080601f0160208091040260200160405190810160405281815292919060208401838380828437509496505060ff85351694602001351515935061102d92505050565b341561040557600080fd5b61031c600160a060020a036004351661104b565b341561042457600080fd5b61031c600160a060020a0360043516611066565b341561044357600080fd5b61031c600160a060020a036004358116906024359060443590606435166110a3565b341561047057600080fd5b61031c600160a060020a0360048035821691602480359091169160443591606435919060a49060843590810190830135806020601f8201819004810201604051908101604052818152929190602084018383808284375094965050509235600160a060020a031692506110f0915050565b34156104ec57600080fd5b61031c600160a060020a0360043581169060243516604435611149565b341561051457600080fd5b6102e160043561116e565b341561052a57600080fd5b610535600435611189565b604051901515815260200160405180910390f35b341561055457600080fd5b610535600160a060020a0360048035821691602480359091169160443591606435919060a49060843590810190830135806020601f8201819004810201604051908101604052818152929190602084018383808284375094965061119d95505050505050565b34156105c557600080fd5b610535600160a060020a03600435811690602435166044356064356111cd565b34156105f057600080fd5b6105356111f3565b341561060357600080fd5b61031c600160a060020a036004351661123e565b341561062257600080fd5b61031c600160a060020a03600435166024356112c3565b341561064457600080fd5b6106aa600160a060020a0360048035821691602480359091169160443591606435919060a49060843590810190830135806020601f820181900481020160405190810160405281815292919060208401838380828437509496506112e095505050505050565b005b34156106b757600080fd5b61031c600160a060020a0360043516611396565b34156106d657600080fd5b610535600160a060020a03600435166113d3565b34156106f557600080fd5b61031c60048035600160a060020a03169060248035916044359160849060643590810190830135806020601f8201819004810201604051908101604052818152929190602084018383808284375094965050509235600160a060020a03169250611426915050565b341561076857600080fd5b610535600160a060020a0360043516602435604435611464565b341561078d57600080fd5b6102e1611480565b34156107a057600080fd5b61031c60043560243561148f565b34156107b957600080fd5b61031c600160a060020a03600435166024356114af565b34156107db57600080fd5b61031c600160a060020a0360043581169060243516611542565b341561080057600080fd5b610535600160a060020a0360043581169060243516611684565b341561082557600080fd5b6102e16004356116c8565b341561083b57600080fd5b6108466004356116e3565b60405160208082528190810183818151815260200191508051906020019080838360005b8381101561088257808201518382015260200161086a565b50505050905090810190601f1680156108af5780820380516001836020036101000a031916815260200191505b509250505060405180910390f35b34156108c857600080fd5b6102e16004356117a9565b34156108de57600080fd5b61031c6117c4565b34156108f157600080fd5b61053560048035600160a060020a03169060248035916044359160849060643590810190830135806020601f820181900481020160405190810160405281815292919060208401838380828437509496506117ca95505050505050565b341561095957600080fd5b610535600160a060020a03600435166024356044356117e4565b341561097e57600080fd5b6106aa611808565b341561099157600080fd5b61031c600160a060020a036004351661182d565b34156109b057600080fd5b6109bb600435611885565b60405186815260208101869052821515608082015260ff821660a082015260c06040820181815286546002600019610100600184161502019091160491830182905290606083019060e084019088908015610a575780601f10610a2c57610100808354040283529160200191610a57565b820191906000526020600020905b815481529060010190602001808311610a3a57829003601f168201915b5050838103825286546002600019610100600184161502019091160480825260209091019087908015610acb5780601f10610aa057610100808354040283529160200191610acb565b820191906000526020600020905b815481529060010190602001808311610aae57829003601f168201915b50509850505050505050505060405180910390f35b3415610aeb57600080fd5b61031c600480359060248035919060649060443590810190830135806020601f8201819004810201604051908101604052818152929190602084018383808284378201915050505050509190803590602001908201803590602001908080601f0160208091040260200160405190810160405281815292919060208401838380828437509496505050833560ff169360208101351515935060400135600160a060020a031691506118bb9050565b3415610ba457600080fd5b61031c600160a060020a0360043516611b0f565b3415610bc357600080fd5b610535600160a060020a0360043516611b50565b3415610be257600080fd5b6106aa600160a060020a0360043581169060243516604435611bc7565b3415610c0a57600080fd5b6106aa600435602435600160a060020a0360443516611c07565b3415610c2f57600080fd5b61031c600435611c4a565b3415610c4557600080fd5b610846600435611c5f565b3415610c5b57600080fd5b610535600435611cee565b3415610c7157600080fd5b6106aa600435602435600160a060020a0360443516611d06565b3415610c9657600080fd5b61031c600435602435611d49565b3415610caf57600080fd5b610535600160a060020a0360043516611e86565b3415610cce57600080fd5b610535600160a060020a0360043516602435611e9b565b3415610cf057600080fd5b61031c600435611ef7565b3415610d0657600080fd5b6102e1611f16565b3415610d1957600080fd5b6106aa600160a060020a0360043581169060243516604435606435611f25565b3415610d4457600080fd5b6102e1611f6d565b3415610d5757600080fd5b61031c600460248135818101908301358060208181020160405190810160405280939291908181526020018383602002808284375094965050509235600160a060020a03169250611f7c915050565b3415610db157600080fd5b610dbc6004356120c9565b60405160ff909116815260200160405180910390f35b3415610ddd57600080fd5b6106aa6004356120e6565b3415610df357600080fd5b61031c60043560243561211c565b3415610e0c57600080fd5b610535600160a060020a0360043516602435612267565b3415610e2e57600080fd5b6106aa600160a060020a036004358116906024358116906044351661229a565b3415610e5957600080fd5b61031c600435600160a060020a03602435166122f0565b3415610e7b57600080fd5b61031c61239f565b3415610e8e57600080fd5b6102e16123a5565b3415610ea157600080fd5b61031c600160a060020a03600435166123b4565b3415610ec057600080fd5b61031c600435600160a060020a036024351661241a565b60008181526006602090815260408083205483526003909152902054600160a060020a03165b919050565b600a5460009033600160a060020a0390811691161480610f30575060005433600160a060020a039081169116145b15610efd575060098054600160a060020a038316600160a060020a03199091161790556001919050565b60008083610f683382611e9b565b1561102557610f768461252c565b600086815260066020818152604080842085855290920190529020805460ff191660011790559150610fa88585612597565b600954600160a060020a031663a9612f726000868860405160e060020a63ffffffff8616028152600160a060020a0393841660048201529190921660248201526044810191909152606401600060405180830381600087803b151561100c57600080fd5b6102c65a03f1151561101d57600080fd5b505050600192505b505092915050565b600061103e878787878787336118bb565b90505b9695505050505050565b600160a060020a031660009081526004602052604090205490565b6000805433600160a060020a0390811691161415610efd5750600160a060020a03166000908152600860205260409020805460ff19169055600190565b600082815260076020526040812054839033600160a060020a03908116911614156110e7576110e46110d48761252c565b86866110df8761252c565b612621565b91505b50949350505050565b600083815260076020526040812054849033600160a060020a039081169116141561113e5761113b6111218961104b565b61112a8961252c565b8888886111368961104b565b61280e565b91505b509695505050505050565b60006111666111578561104b565b6111608561104b565b84612a0f565b949350505050565b600360205260009081526040902054600160a060020a031681565b600090815260066020526040902054151590565b600060016111c26111ad8861104b565b6111b68861252c565b8787876111363361104b565b149695505050505050565b60006111ea8585858560206040519081016040526000815261119d565b95945050505050565b60015460009033600160a060020a039081169116146112145750600061123b565b506001805460008054600160a060020a0319908116600160a060020a038416179091551681555b90565b60008061124a3361252c565b90506112558361104b565b81141561126e57611267613a99612a3d565b91506112bd565b6112783384611684565b1561128857611267613aa3612a3d565b6000818152600360209081526040808320600160a060020a03871684526001908101909252909120805460ff19168217905591505b50919050565b60006112d76112d18461104b565b8361148f565b90505b92915050565b82600160a060020a038086169087167f8f1b83868d2ecc962fd90cfee71c9c52455fe10940937bc7571d90ba404c5c3b858560405182815260406020820181815290820183818151815260200191508051906020019080838360005b8381101561135457808201518382015260200161133c565b50505050905090810190601f1680156113815780820380516001836020036101000a031916815260200191505b50935050505060405180910390a45050505050565b6000805433600160a060020a0390811691161415610efd5750600a8054600160a060020a038316600160a060020a03199091161790556001919050565b6000805433600160a060020a0390811691161415610efd57600160a060020a038216151561140357506000610efd565b5060018054600160a060020a038316600160a060020a0319909116178155919050565b600083815260076020526040812054849033600160a060020a039081169116141561145a576114576111218461104b565b91505b5095945050505050565b60006111668484846020604051908101604052600081526117ca565b600154600160a060020a031681565b600090815260066020908152604080832093835260059093019052205490565b6000805433600160a060020a03908116911614806114e55750600160a060020a03331660009081526008602052604090205460ff165b156112da57600082815260076020526040902054600160a060020a0316156115105750613a986112da565b5060008181526007602052604090208054600160a060020a038416600160a060020a0319909116179055600192915050565b60008083336115518282611684565b1561167b5761155f8561104b565b156115765761156f613aa4612a3d565b935061167b565b600360006115838861104b565b81526020810191909152604001600090812054600160a060020a0316935085906003906115af8961104b565b815260208101919091526040016000208054600160a060020a031916600160a060020a03929092169190911790556115e68661104b565b600160a060020a038087166000908152600460205260409081902092909255600954169063ea14457e908590889033905160e060020a63ffffffff8616028152600160a060020a03938416600482015291831660248301529091166044820152606401600060405180830381600087803b151561166257600080fd5b6102c65a03f1151561167357600080fd5b505050600193505b50505092915050565b6000600360006116938561104b565b815260208082019290925260409081016000908120600160a060020a038616825260010190925290205460ff16905092915050565b600090815260036020526040902054600160a060020a031690565b6116eb612c75565b6006600083600019166000191681526020019081526020016000206002018054600181600116156101000203166002900480601f01602080910402602001604051908101604052809291908181526020018280546001816001161561010002031660029004801561179d5780601f106117725761010080835404028352916020019161179d565b820191906000526020600020905b81548152906001019060200180831161178057829003601f168201915b50505050509050919050565b600760205260009081526040902054600160a060020a031681565b60025481565b600060016117da6111ad3361104b565b1495945050505050565b600060016117ff6117f48661252c565b85856110df3361252c565b14949350505050565b60005433600160a060020a039081169116141561182b5733600160a060020a0316ff5b565b600a5460009033600160a060020a039081169116148061185b575060005433600160a060020a039081169116145b15610efd5750600b8054600160a060020a038316600160a060020a03199091161790556001919050565b60066020526000908152604090208054600182015460048301549192909160028201916003019060ff8082169161010090041686565b600080548190819033600160a060020a03908116911614806118f55750600160a060020a03331660009081526008602052604090205460ff165b15611b025788158015611906575084155b1561191d57611916613a9e612a3d565b9250611b02565b6119268a611189565b1561193657611916613a9d612a3d565b61193f8461252c565b915033600160a060020a031684600160a060020a031614611968576119633361252c565b61196a565b815b9050600580548060010182816119809190612c87565b5060009182526020909120018a905560c0604051908101604090815282825260208083018c90528183018b9052606083018a9052871515608084015260ff891660a084015260008d815260069091522081518155602082015181600101556040820151816002019080516119f8929160200190612cb0565b50606082015181600301908051611a13929160200190612cb0565b50608082015160048201805460ff191691151591909117905560a08201516004909101805460ff929092166101000261ff00199092169190911790555060008a81526006602090815260408083208584526005019091529020899055611a818a611a7c836116c8565b612597565b600954600160a060020a031663abafaa168b8b611a9d866116c8565b60405160e060020a63ffffffff861602815260048101939093526024830191909152600160a060020a03166044820152606401600060405180830381600087803b1515611ae957600080fd5b6102c65a03f11515611afa57600080fd5b505050600192505b5050979650505050505050565b6000805433600160a060020a0390811691161415610efd5750600160a060020a03166000908152600860205260409020805460ff1916600190811790915590565b6000805433600160a060020a0390811691161415610efd57600160a060020a0382161515611b8057506000610efd565b600154600160a060020a031615611ba25760018054600160a060020a03191690555b5060008054600160a060020a038316600160a060020a03199091161790556001919050565b80600160a060020a038084169085167f0de92ba2d86c482d7f947cc22a580692bb78d6277988023434905f44b8cd261a60405160405180910390a4505050565b600160a060020a038116837fd03c2206e12a8eb3553d780874e1a7941b9c67f3a726ce6edb4a9fd65e25ec988460405190815260200160405180910390a3505050565b60009081526006602052604090206001015490565b611c67612c75565b6006600083600019166000191681526020019081526020016000206003018054600181600116156101000203166002900480601f01602080910402602001604051908101604052809291908181526020018280546001816001161561010002031660029004801561179d5780601f106117725761010080835404028352916020019161179d565b60009081526006602052604090206004015460ff1690565b600160a060020a038116837fa4e2520a41c90422e37fc8ba7153c519a427a62ea5f494a14a218a7b9bceb6ca8460405190815260200160405180910390a3505050565b60008080831515611d6657611d5f613a9a612a3d565b9250611025565b60008581526006602052604090209150611d7f3361104b565b600081815260058401602052604090205490915084901015611da657611d5f613aa1612a3d565b6000818152600583016020526040902054611dc7908563ffffffff612aa216565b60008281526005840160205260409020556001820154611ded908563ffffffff612aa216565b6001830155600954600160a060020a031663c70bbc138686611e0e856116c8565b60405160e060020a63ffffffff861602815260048101939093526024830191909152600160a060020a03166044820152606401600060405180830381600087803b1515611e5a57600080fd5b6102c65a03f11515611e6b57600080fd5b505050611e7b8160008688612ab4565b506001949350505050565b60086020526000908152604090205460ff1681565b600080611ea78461104b565b9050611eb283611189565b8015611166575060008381526006602052604090205481148061116657506000838152600660208181526040808420858552909201905290205460ff16949350505050565b6005805482908110611f0557fe5b600091825260209091200154905081565b600054600160a060020a031681565b81600160a060020a038085169086167f859b1cddb4da93a04541d62c27d7d83aa8173a1b37bbccd3c60ceb4ee19ee13e8460405190815260200160405180910390a450505050565b600a54600160a060020a031681565b6000805481908190819033600160a060020a039081169116141561167b57600092505b85518310156120bd57858381518110611fb457fe5b90602001906020020151915081600160a060020a03166370a082313060006040516020015260405160e060020a63ffffffff8416028152600160a060020a039091166004820152602401602060405180830381600087803b151561201757600080fd5b6102c65a03f1151561202857600080fd5b505050604051805191505080156120b25781600160a060020a031663a9059cbb868360006040516020015260405160e060020a63ffffffff8516028152600160a060020a0390921660048301526024820152604401602060405180830381600087803b151561209657600080fd5b6102c65a03f115156120a757600080fd5b505050604051805150505b600190920191611f9f565b50600195945050505050565b600090815260066020526040902060040154610100900460ff1690565b7f2e36a7093f25f22bd4cbdeb6040174c3ba4c5fe8f1abc04e7c3c48f26c7413e08160405190815260200160405180910390a150565b60008060008461212c3382611e9b565b1561167b578415156121435761156f613a9a612a3d565b6000868152600660205260409020600481015490935060ff16151561216d5761156f613a9f612a3d565b600183015485810110156121865761156f613aa0612a3d565b61218f3361104b565b60008181526005850160205260409020549092506121b3908663ffffffff612b6b16565b600083815260058501602052604090205560018301546121d9908663ffffffff612b6b16565b6001840155600954600160a060020a031663abafaa1687876121fa866116c8565b60405160e060020a63ffffffff861602815260048101939093526024830191909152600160a060020a03166044820152606401600060405180830381600087803b151561224657600080fd5b6102c65a03f1151561225757600080fd5b5050506120bd6000838789612ab4565b600061227282611189565b80156112d757506122828361104b565b60008381526006602052604090205414905092915050565b81600160a060020a031683600160a060020a03167f6c0468512076e943ed3d1c5aae1d6903c72162713d86aedd1381b3ac19e10cec83604051600160a060020a03909116815260200160405180910390a3505050565b600080836122fe3382611e9b565b156110255761230c8461104b565b600086815260066020818152604080842085855290920190529020805460ff19169055915061233b8585612b81565b600954600160a060020a031663a9612f728560008860405160e060020a63ffffffff8616028152600160a060020a0393841660048201529190921660248201526044810191909152606401600060405180830381600087803b151561100c57600080fd5b60055490565b600954600160a060020a031681565b600033826123c28282611684565b15612413576000600360006123d63361104b565b815260208082019290925260409081016000908120600160a060020a0389168252600190810190935220805460ff19169215159290921790915592505b5050919050565b6000806000808561242b3382612267565b1561252257600160a060020a03861615156124525761244b613aa2612a3d565b9450612522565b6000878152600660205260409020935061246b8661252c565b84549093508314156124825761244b613a99612a3d565b835461248d906116c8565b838555915061249c8783612b81565b6124a68787612597565b600954600160a060020a031663a9612f7283888a60405160e060020a63ffffffff8616028152600160a060020a0393841660048201529190921660248201526044810191909152606401600060405180830381600087803b151561250957600080fd5b6102c65a03f1151561251a57600080fd5b505050600194505b5050505092915050565b600160a060020a0381166000908152600460205260408120548015156112da5750600280546001019081905560008181526003602090815260408083208054600160a060020a031916600160a060020a03881690811790915583526004909152902081905592915050565b600b54600160a060020a03161561261d57600b54600160a060020a031663660a333e83308460405160e060020a63ffffffff86160281526004810193909352600160a060020a039182166024840152166044820152606401600060405180830381600087803b151561260857600080fd5b6102c65a03f1151561261957600080fd5b5050505b5050565b600061262c83611189565b15156126445761263d613aa5612a3d565b9050611166565b848214156126575761263d613a99612a3d565b600083815260066020908152604080832085845260050182528083208884526001019091529020541580159061268c57508315155b1561269c5761263d613aa9612a3d565b600083815260066020908152604080832085845260050182528083208884526001019091529020849055600954600160a060020a031663d54c8c876126e0846116c8565b6126e9886116c8565b868860405160e060020a63ffffffff8716028152600160a060020a03948516600482015292909316602483015260448201526064810191909152608401600060405180830381600087803b151561273f57600080fd5b6102c65a03f1151561275057600080fd5b505050600083815260076020526040902054600160a060020a031615611e7b57600083815260076020526040902054600160a060020a03166323385089612796846116c8565b61279f886116c8565b8760405160e060020a63ffffffff8616028152600160a060020a0393841660048201529190921660248201526044810191909152606401600060405180830381600087803b15156127ef57600080fd5b6102c65a03f1151561280057600080fd5b505050506001949350505050565b60008587141561282a57612823613a99612a3d565b9050611041565b84151561283c57612823613a9a612a3d565b84612847888661148f565b101561285857612823613a9b612a3d565b81871415801561287157508461286f888487612a0f565b105b1561288157612823613a9c612a3d565b61288d87878787612bf2565b8682146128f55760008481526006602090815260408083208a845260050182528083208584526001019091529020546128cc908663ffffffff612aa216565b60008581526006602090815260408083208b845260050182528083208684526001019091529020555b600954600160a060020a031663515c145761290f896116c8565b612918896116c8565b87898860405160e060020a63ffffffff8816028152600160a060020a03808716600483019081529086166024830152604482018590526064820184905260a060848301908152909160a40183818151815260200191508051906020019080838360005b8381101561299357808201518382015260200161297b565b50505050905090810190601f1680156129c05780820380516001836020036101000a031916815260200191505b509650505050505050600060405180830381600087803b15156129e257600080fd5b6102c65a03f115156129f357600080fd5b505050612a0287878787612ab4565b5060019695505050505050565b6000908152600660209081526040808320948352600590940181528382209282526001909201909152205490565b600954600090600160a060020a031663df26ca088360405160e060020a63ffffffff84160281526004810191909152602401600060405180830381600087803b1515612a8857600080fd5b6102c65a03f11515612a9957600080fd5b50929392505050565b600082821115612aae57fe5b50900390565b600081815260076020526040902054600160a060020a031615612b6557600081815260076020526040902054600160a060020a03166323de6651612af7866116c8565b612b00866116c8565b8560405160e060020a63ffffffff8616028152600160a060020a0393841660048201529190921660248201526044810191909152606401600060405180830381600087803b1515612b5057600080fd5b6102c65a03f11515612b6157600080fd5b5050505b50505050565b600082820183811015612b7a57fe5b9392505050565b600b54600160a060020a03161561261d57600b54600160a060020a0316632604674383308460405160e060020a63ffffffff86160281526004810193909352600160a060020a039182166024840152166044820152606401600060405180830381600087803b151561260857600080fd5b6000818152600660209081526040808320878452600501909152902054612c1f908363ffffffff612aa216565b6000828152600660209081526040808320888452600501909152808220929092558481522054612c4f9083612b6b565b600091825260066020908152604080842095845260059095019052929020919091555050565b60206040519081016040526000815290565b815481835581811511612cab57600083815260209020612cab918101908301612d2e565b505050565b828054600181600116156101000203166002900490600052602060002090601f016020900481019282601f10612cf157805160ff1916838001178555612d1e565b82800160010185558215612d1e579182015b82811115612d1e578251825591602001919060010190612d03565b50612d2a929150612d2e565b5090565b61123b91905b80821115612d2a5760008155600101612d345600a165627a7a72305820135079b1227eef59b8b5c9e10893cc969f6427c33ec1a6b21f23c9f09469af1f0029",
  "source": "pragma solidity ^0.4.4;\n\nimport \"../core/platform/ChronoBankPlatform.sol\";\n\n// For testing purposes.\ncontract ChronoBankPlatformTestable is ChronoBankPlatform {\n    function transfer(address _to, uint _value, bytes32 _symbol) public returns (bool) {\n        return transferWithReference(_to, _value, _symbol, \"\");\n    }\n\n    function transferWithReference(address _to, uint _value, bytes32 _symbol, string _reference) public returns (bool) {\n        return _transfer(getHolderId(msg.sender), _createHolderId(_to), _value, _symbol, _reference, getHolderId(msg.sender)) == OK;\n    }\n\n    function approve(address _spender, uint _value, bytes32 _symbol) public returns (bool) {\n        return _approve(_createHolderId(_spender), _value, _symbol, _createHolderId(msg.sender)) == OK;\n    }\n\n    function transferFrom(address _from, address _to, uint _value, bytes32 _symbol) public returns (bool) {\n        return transferFromWithReference(_from, _to, _value, _symbol, \"\");\n    }\n\n    function transferFromWithReference(address _from, address _to, uint _value, bytes32 _symbol, string _reference) public returns (bool) {\n        return _transfer(getHolderId(_from), _createHolderId(_to), _value, _symbol, _reference, getHolderId(msg.sender)) == OK;\n    }\n}\n",
  "sourcePath": "/Users/mikefluff/Documents/Programming/Chronobank/test/SmartContracts/contracts/helpers/ChronoBankPlatformTestable.sol",
  "compiler": {
    "name": "solc",
    "version": "0.4.18+commit.9cf6e910.Emscripten.clang"
  },
  "schemaVersion": "1.0.1",
  "updatedAt": "2018-01-12T11:40:45.402Z"
}