{
  "contractName": "ChronoBankPlatform",
  "abi": [
    {
      "constant": true,
      "inputs": [
        {
          "name": "_symbol",
          "type": "bytes32"
        }
      ],
      "name": "owner",
      "outputs": [
        {
          "name": "",
          "type": "address"
        }
      ],
      "payable": false,
      "stateMutability": "view",
      "type": "function"
    },
    {
      "constant": false,
      "inputs": [
        {
          "name": "_eventsHistory",
          "type": "address"
        }
      ],
      "name": "setupEventsHistory",
      "outputs": [
        {
          "name": "errorCode",
          "type": "uint256"
        }
      ],
      "payable": false,
      "stateMutability": "nonpayable",
      "type": "function"
    },
    {
      "constant": false,
      "inputs": [
        {
          "name": "_symbol",
          "type": "bytes32"
        },
        {
          "name": "_partowner",
          "type": "address"
        }
      ],
      "name": "addAssetPartOwner",
      "outputs": [
        {
          "name": "",
          "type": "uint256"
        }
      ],
      "payable": false,
      "stateMutability": "nonpayable",
      "type": "function"
    },
    {
      "constant": false,
      "inputs": [
        {
          "name": "_symbol",
          "type": "bytes32"
        },
        {
          "name": "_value",
          "type": "uint256"
        },
        {
          "name": "_name",
          "type": "string"
        },
        {
          "name": "_description",
          "type": "string"
        },
        {
          "name": "_baseUnit",
          "type": "uint8"
        },
        {
          "name": "_isReissuable",
          "type": "bool"
        }
      ],
      "name": "issueAsset",
      "outputs": [
        {
          "name": "",
          "type": "uint256"
        }
      ],
      "payable": false,
      "stateMutability": "nonpayable",
      "type": "function"
    },
    {
      "constant": true,
      "inputs": [
        {
          "name": "_holder",
          "type": "address"
        }
      ],
      "name": "getHolderId",
      "outputs": [
        {
          "name": "",
          "type": "uint256"
        }
      ],
      "payable": false,
      "stateMutability": "view",
      "type": "function"
    },
    {
      "constant": false,
      "inputs": [
        {
          "name": "_partowner",
          "type": "address"
        }
      ],
      "name": "removePartOwner",
      "outputs": [
        {
          "name": "",
          "type": "uint256"
        }
      ],
      "payable": false,
      "stateMutability": "nonpayable",
      "type": "function"
    },
    {
      "constant": false,
      "inputs": [
        {
          "name": "_spender",
          "type": "address"
        },
        {
          "name": "_value",
          "type": "uint256"
        },
        {
          "name": "_symbol",
          "type": "bytes32"
        },
        {
          "name": "_sender",
          "type": "address"
        }
      ],
      "name": "proxyApprove",
      "outputs": [
        {
          "name": "",
          "type": "uint256"
        }
      ],
      "payable": false,
      "stateMutability": "nonpayable",
      "type": "function"
    },
    {
      "constant": false,
      "inputs": [
        {
          "name": "_from",
          "type": "address"
        },
        {
          "name": "_to",
          "type": "address"
        },
        {
          "name": "_value",
          "type": "uint256"
        },
        {
          "name": "_symbol",
          "type": "bytes32"
        },
        {
          "name": "_reference",
          "type": "string"
        },
        {
          "name": "_sender",
          "type": "address"
        }
      ],
      "name": "proxyTransferFromWithReference",
      "outputs": [
        {
          "name": "",
          "type": "uint256"
        }
      ],
      "payable": false,
      "stateMutability": "nonpayable",
      "type": "function"
    },
    {
      "constant": true,
      "inputs": [
        {
          "name": "_from",
          "type": "address"
        },
        {
          "name": "_spender",
          "type": "address"
        },
        {
          "name": "_symbol",
          "type": "bytes32"
        }
      ],
      "name": "allowance",
      "outputs": [
        {
          "name": "",
          "type": "uint256"
        }
      ],
      "payable": false,
      "stateMutability": "view",
      "type": "function"
    },
    {
      "constant": true,
      "inputs": [
        {
          "name": "",
          "type": "uint256"
        }
      ],
      "name": "holders",
      "outputs": [
        {
          "name": "addr",
          "type": "address"
        }
      ],
      "payable": false,
      "stateMutability": "view",
      "type": "function"
    },
    {
      "constant": true,
      "inputs": [
        {
          "name": "_symbol",
          "type": "bytes32"
        }
      ],
      "name": "isCreated",
      "outputs": [
        {
          "name": "",
          "type": "bool"
        }
      ],
      "payable": false,
      "stateMutability": "view",
      "type": "function"
    },
    {
      "constant": false,
      "inputs": [],
      "name": "claimContractOwnership",
      "outputs": [
        {
          "name": "",
          "type": "bool"
        }
      ],
      "payable": false,
      "stateMutability": "nonpayable",
      "type": "function"
    },
    {
      "constant": false,
      "inputs": [
        {
          "name": "_to",
          "type": "address"
        }
      ],
      "name": "trust",
      "outputs": [
        {
          "name": "",
          "type": "uint256"
        }
      ],
      "payable": false,
      "stateMutability": "nonpayable",
      "type": "function"
    },
    {
      "constant": true,
      "inputs": [
        {
          "name": "_holder",
          "type": "address"
        },
        {
          "name": "_symbol",
          "type": "bytes32"
        }
      ],
      "name": "balanceOf",
      "outputs": [
        {
          "name": "",
          "type": "uint256"
        }
      ],
      "payable": false,
      "stateMutability": "view",
      "type": "function"
    },
    {
      "constant": false,
      "inputs": [
        {
          "name": "_from",
          "type": "address"
        },
        {
          "name": "_to",
          "type": "address"
        },
        {
          "name": "_symbol",
          "type": "bytes32"
        },
        {
          "name": "_value",
          "type": "uint256"
        },
        {
          "name": "_reference",
          "type": "string"
        }
      ],
      "name": "emitTransfer",
      "outputs": [],
      "payable": false,
      "stateMutability": "nonpayable",
      "type": "function"
    },
    {
      "constant": false,
      "inputs": [
        {
          "name": "_eventsAdmin",
          "type": "address"
        }
      ],
      "name": "setupEventsAdmin",
      "outputs": [
        {
          "name": "errorCode",
          "type": "uint256"
        }
      ],
      "payable": false,
      "stateMutability": "nonpayable",
      "type": "function"
    },
    {
      "constant": false,
      "inputs": [
        {
          "name": "_to",
          "type": "address"
        }
      ],
      "name": "changeContractOwnership",
      "outputs": [
        {
          "name": "",
          "type": "bool"
        }
      ],
      "payable": false,
      "stateMutability": "nonpayable",
      "type": "function"
    },
    {
      "constant": false,
      "inputs": [
        {
          "name": "_to",
          "type": "address"
        },
        {
          "name": "_value",
          "type": "uint256"
        },
        {
          "name": "_symbol",
          "type": "bytes32"
        },
        {
          "name": "_reference",
          "type": "string"
        },
        {
          "name": "_sender",
          "type": "address"
        }
      ],
      "name": "proxyTransferWithReference",
      "outputs": [
        {
          "name": "",
          "type": "uint256"
        }
      ],
      "payable": false,
      "stateMutability": "nonpayable",
      "type": "function"
    },
    {
      "constant": true,
      "inputs": [],
      "name": "pendingContractOwner",
      "outputs": [
        {
          "name": "",
          "type": "address"
        }
      ],
      "payable": false,
      "stateMutability": "view",
      "type": "function"
    },
    {
      "constant": true,
      "inputs": [
        {
          "name": "_holderId",
          "type": "uint256"
        },
        {
          "name": "_symbol",
          "type": "bytes32"
        }
      ],
      "name": "_balanceOf",
      "outputs": [
        {
          "name": "",
          "type": "uint256"
        }
      ],
      "payable": false,
      "stateMutability": "view",
      "type": "function"
    },
    {
      "constant": false,
      "inputs": [
        {
          "name": "_proxyAddress",
          "type": "address"
        },
        {
          "name": "_symbol",
          "type": "bytes32"
        }
      ],
      "name": "setProxy",
      "outputs": [
        {
          "name": "",
          "type": "uint256"
        }
      ],
      "payable": false,
      "stateMutability": "nonpayable",
      "type": "function"
    },
    {
      "constant": false,
      "inputs": [
        {
          "name": "_from",
          "type": "address"
        },
        {
          "name": "_to",
          "type": "address"
        }
      ],
      "name": "recover",
      "outputs": [
        {
          "name": "errorCode",
          "type": "uint256"
        }
      ],
      "payable": false,
      "stateMutability": "nonpayable",
      "type": "function"
    },
    {
      "constant": true,
      "inputs": [
        {
          "name": "_from",
          "type": "address"
        },
        {
          "name": "_to",
          "type": "address"
        }
      ],
      "name": "isTrusted",
      "outputs": [
        {
          "name": "",
          "type": "bool"
        }
      ],
      "payable": false,
      "stateMutability": "view",
      "type": "function"
    },
    {
      "constant": true,
      "inputs": [
        {
          "name": "_holderId",
          "type": "uint256"
        }
      ],
      "name": "_address",
      "outputs": [
        {
          "name": "",
          "type": "address"
        }
      ],
      "payable": false,
      "stateMutability": "view",
      "type": "function"
    },
    {
      "constant": true,
      "inputs": [
        {
          "name": "_symbol",
          "type": "bytes32"
        }
      ],
      "name": "name",
      "outputs": [
        {
          "name": "",
          "type": "string"
        }
      ],
      "payable": false,
      "stateMutability": "view",
      "type": "function"
    },
    {
      "constant": true,
      "inputs": [
        {
          "name": "",
          "type": "bytes32"
        }
      ],
      "name": "proxies",
      "outputs": [
        {
          "name": "",
          "type": "address"
        }
      ],
      "payable": false,
      "stateMutability": "view",
      "type": "function"
    },
    {
      "constant": true,
      "inputs": [],
      "name": "holdersCount",
      "outputs": [
        {
          "name": "",
          "type": "uint256"
        }
      ],
      "payable": false,
      "stateMutability": "view",
      "type": "function"
    },
    {
      "constant": false,
      "inputs": [],
      "name": "destroy",
      "outputs": [],
      "payable": false,
      "stateMutability": "nonpayable",
      "type": "function"
    },
    {
      "constant": false,
      "inputs": [
        {
          "name": "_listener",
          "type": "address"
        }
      ],
      "name": "setupAssetOwningListener",
      "outputs": [
        {
          "name": "",
          "type": "uint256"
        }
      ],
      "payable": false,
      "stateMutability": "nonpayable",
      "type": "function"
    },
    {
      "constant": true,
      "inputs": [
        {
          "name": "",
          "type": "bytes32"
        }
      ],
      "name": "assets",
      "outputs": [
        {
          "name": "owner",
          "type": "uint256"
        },
        {
          "name": "totalSupply",
          "type": "uint256"
        },
        {
          "name": "name",
          "type": "string"
        },
        {
          "name": "description",
          "type": "string"
        },
        {
          "name": "isReissuable",
          "type": "bool"
        },
        {
          "name": "baseUnit",
          "type": "uint8"
        }
      ],
      "payable": false,
      "stateMutability": "view",
      "type": "function"
    },
    {
      "constant": false,
      "inputs": [
        {
          "name": "_symbol",
          "type": "bytes32"
        },
        {
          "name": "_value",
          "type": "uint256"
        },
        {
          "name": "_name",
          "type": "string"
        },
        {
          "name": "_description",
          "type": "string"
        },
        {
          "name": "_baseUnit",
          "type": "uint8"
        },
        {
          "name": "_isReissuable",
          "type": "bool"
        },
        {
          "name": "_account",
          "type": "address"
        }
      ],
      "name": "issueAsset",
      "outputs": [
        {
          "name": "",
          "type": "uint256"
        }
      ],
      "payable": false,
      "stateMutability": "nonpayable",
      "type": "function"
    },
    {
      "constant": false,
      "inputs": [
        {
          "name": "_partowner",
          "type": "address"
        }
      ],
      "name": "addPartOwner",
      "outputs": [
        {
          "name": "",
          "type": "uint256"
        }
      ],
      "payable": false,
      "stateMutability": "nonpayable",
      "type": "function"
    },
    {
      "constant": false,
      "inputs": [
        {
          "name": "_to",
          "type": "address"
        }
      ],
      "name": "transferContractOwnership",
      "outputs": [
        {
          "name": "",
          "type": "bool"
        }
      ],
      "payable": false,
      "stateMutability": "nonpayable",
      "type": "function"
    },
    {
      "constant": false,
      "inputs": [
        {
          "name": "_from",
          "type": "address"
        },
        {
          "name": "_to",
          "type": "address"
        },
        {
          "name": "_symbol",
          "type": "bytes32"
        }
      ],
      "name": "emitOwnershipChange",
      "outputs": [],
      "payable": false,
      "stateMutability": "nonpayable",
      "type": "function"
    },
    {
      "constant": false,
      "inputs": [
        {
          "name": "_symbol",
          "type": "bytes32"
        },
        {
          "name": "_value",
          "type": "uint256"
        },
        {
          "name": "_by",
          "type": "address"
        }
      ],
      "name": "emitIssue",
      "outputs": [],
      "payable": false,
      "stateMutability": "nonpayable",
      "type": "function"
    },
    {
      "constant": true,
      "inputs": [
        {
          "name": "_symbol",
          "type": "bytes32"
        }
      ],
      "name": "totalSupply",
      "outputs": [
        {
          "name": "",
          "type": "uint256"
        }
      ],
      "payable": false,
      "stateMutability": "view",
      "type": "function"
    },
    {
      "constant": true,
      "inputs": [
        {
          "name": "_symbol",
          "type": "bytes32"
        }
      ],
      "name": "description",
      "outputs": [
        {
          "name": "",
          "type": "string"
        }
      ],
      "payable": false,
      "stateMutability": "view",
      "type": "function"
    },
    {
      "constant": true,
      "inputs": [
        {
          "name": "_symbol",
          "type": "bytes32"
        }
      ],
      "name": "isReissuable",
      "outputs": [
        {
          "name": "",
          "type": "bool"
        }
      ],
      "payable": false,
      "stateMutability": "view",
      "type": "function"
    },
    {
      "constant": false,
      "inputs": [
        {
          "name": "_symbol",
          "type": "bytes32"
        },
        {
          "name": "_value",
          "type": "uint256"
        },
        {
          "name": "_by",
          "type": "address"
        }
      ],
      "name": "emitRevoke",
      "outputs": [],
      "payable": false,
      "stateMutability": "nonpayable",
      "type": "function"
    },
    {
      "constant": false,
      "inputs": [
        {
          "name": "_symbol",
          "type": "bytes32"
        },
        {
          "name": "_value",
          "type": "uint256"
        }
      ],
      "name": "revokeAsset",
      "outputs": [
        {
          "name": "",
          "type": "uint256"
        }
      ],
      "payable": false,
      "stateMutability": "nonpayable",
      "type": "function"
    },
    {
      "constant": true,
      "inputs": [
        {
          "name": "",
          "type": "address"
        }
      ],
      "name": "partowners",
      "outputs": [
        {
          "name": "",
          "type": "bool"
        }
      ],
      "payable": false,
      "stateMutability": "view",
      "type": "function"
    },
    {
      "constant": true,
      "inputs": [
        {
          "name": "_owner",
          "type": "address"
        },
        {
          "name": "_symbol",
          "type": "bytes32"
        }
      ],
      "name": "hasAssetRights",
      "outputs": [
        {
          "name": "",
          "type": "bool"
        }
      ],
      "payable": false,
      "stateMutability": "view",
      "type": "function"
    },
    {
      "constant": true,
      "inputs": [
        {
          "name": "",
          "type": "uint256"
        }
      ],
      "name": "symbols",
      "outputs": [
        {
          "name": "",
          "type": "bytes32"
        }
      ],
      "payable": false,
      "stateMutability": "view",
      "type": "function"
    },
    {
      "constant": true,
      "inputs": [],
      "name": "contractOwner",
      "outputs": [
        {
          "name": "",
          "type": "address"
        }
      ],
      "payable": false,
      "stateMutability": "view",
      "type": "function"
    },
    {
      "constant": false,
      "inputs": [
        {
          "name": "_from",
          "type": "address"
        },
        {
          "name": "_spender",
          "type": "address"
        },
        {
          "name": "_symbol",
          "type": "bytes32"
        },
        {
          "name": "_value",
          "type": "uint256"
        }
      ],
      "name": "emitApprove",
      "outputs": [],
      "payable": false,
      "stateMutability": "nonpayable",
      "type": "function"
    },
    {
      "constant": true,
      "inputs": [],
      "name": "eventsAdmin",
      "outputs": [
        {
          "name": "",
          "type": "address"
        }
      ],
      "payable": false,
      "stateMutability": "view",
      "type": "function"
    },
    {
      "constant": false,
      "inputs": [
        {
          "name": "tokens",
          "type": "address[]"
        },
        {
          "name": "_to",
          "type": "address"
        }
      ],
      "name": "withdrawnTokens",
      "outputs": [
        {
          "name": "",
          "type": "uint256"
        }
      ],
      "payable": false,
      "stateMutability": "nonpayable",
      "type": "function"
    },
    {
      "constant": true,
      "inputs": [
        {
          "name": "_symbol",
          "type": "bytes32"
        }
      ],
      "name": "baseUnit",
      "outputs": [
        {
          "name": "",
          "type": "uint8"
        }
      ],
      "payable": false,
      "stateMutability": "view",
      "type": "function"
    },
    {
      "constant": false,
      "inputs": [
        {
          "name": "_errorCode",
          "type": "uint256"
        }
      ],
      "name": "emitError",
      "outputs": [],
      "payable": false,
      "stateMutability": "nonpayable",
      "type": "function"
    },
    {
      "constant": false,
      "inputs": [
        {
          "name": "_symbol",
          "type": "bytes32"
        },
        {
          "name": "_value",
          "type": "uint256"
        }
      ],
      "name": "reissueAsset",
      "outputs": [
        {
          "name": "",
          "type": "uint256"
        }
      ],
      "payable": false,
      "stateMutability": "nonpayable",
      "type": "function"
    },
    {
      "constant": true,
      "inputs": [
        {
          "name": "_owner",
          "type": "address"
        },
        {
          "name": "_symbol",
          "type": "bytes32"
        }
      ],
      "name": "isOwner",
      "outputs": [
        {
          "name": "",
          "type": "bool"
        }
      ],
      "payable": false,
      "stateMutability": "view",
      "type": "function"
    },
    {
      "constant": false,
      "inputs": [
        {
          "name": "_from",
          "type": "address"
        },
        {
          "name": "_to",
          "type": "address"
        },
        {
          "name": "_by",
          "type": "address"
        }
      ],
      "name": "emitRecovery",
      "outputs": [],
      "payable": false,
      "stateMutability": "nonpayable",
      "type": "function"
    },
    {
      "constant": false,
      "inputs": [
        {
          "name": "_symbol",
          "type": "bytes32"
        },
        {
          "name": "_partowner",
          "type": "address"
        }
      ],
      "name": "removeAssetPartOwner",
      "outputs": [
        {
          "name": "",
          "type": "uint256"
        }
      ],
      "payable": false,
      "stateMutability": "nonpayable",
      "type": "function"
    },
    {
      "constant": true,
      "inputs": [],
      "name": "symbolsCount",
      "outputs": [
        {
          "name": "",
          "type": "uint256"
        }
      ],
      "payable": false,
      "stateMutability": "view",
      "type": "function"
    },
    {
      "constant": true,
      "inputs": [],
      "name": "eventsHistory",
      "outputs": [
        {
          "name": "",
          "type": "address"
        }
      ],
      "payable": false,
      "stateMutability": "view",
      "type": "function"
    },
    {
      "constant": false,
      "inputs": [
        {
          "name": "_to",
          "type": "address"
        }
      ],
      "name": "distrust",
      "outputs": [
        {
          "name": "",
          "type": "uint256"
        }
      ],
      "payable": false,
      "stateMutability": "nonpayable",
      "type": "function"
    },
    {
      "constant": false,
      "inputs": [
        {
          "name": "_symbol",
          "type": "bytes32"
        },
        {
          "name": "_newOwner",
          "type": "address"
        }
      ],
      "name": "changeOwnership",
      "outputs": [
        {
          "name": "",
          "type": "uint256"
        }
      ],
      "payable": false,
      "stateMutability": "nonpayable",
      "type": "function"
    },
    {
      "anonymous": false,
      "inputs": [
        {
          "indexed": true,
          "name": "from",
          "type": "address"
        },
        {
          "indexed": true,
          "name": "to",
          "type": "address"
        },
        {
          "indexed": true,
          "name": "symbol",
          "type": "bytes32"
        },
        {
          "indexed": false,
          "name": "value",
          "type": "uint256"
        },
        {
          "indexed": false,
          "name": "reference",
          "type": "string"
        }
      ],
      "name": "Transfer",
      "type": "event"
    },
    {
      "anonymous": false,
      "inputs": [
        {
          "indexed": true,
          "name": "symbol",
          "type": "bytes32"
        },
        {
          "indexed": false,
          "name": "value",
          "type": "uint256"
        },
        {
          "indexed": true,
          "name": "by",
          "type": "address"
        }
      ],
      "name": "Issue",
      "type": "event"
    },
    {
      "anonymous": false,
      "inputs": [
        {
          "indexed": true,
          "name": "symbol",
          "type": "bytes32"
        },
        {
          "indexed": false,
          "name": "value",
          "type": "uint256"
        },
        {
          "indexed": true,
          "name": "by",
          "type": "address"
        }
      ],
      "name": "Revoke",
      "type": "event"
    },
    {
      "anonymous": false,
      "inputs": [
        {
          "indexed": true,
          "name": "from",
          "type": "address"
        },
        {
          "indexed": true,
          "name": "to",
          "type": "address"
        },
        {
          "indexed": true,
          "name": "symbol",
          "type": "bytes32"
        }
      ],
      "name": "OwnershipChange",
      "type": "event"
    },
    {
      "anonymous": false,
      "inputs": [
        {
          "indexed": true,
          "name": "from",
          "type": "address"
        },
        {
          "indexed": true,
          "name": "spender",
          "type": "address"
        },
        {
          "indexed": true,
          "name": "symbol",
          "type": "bytes32"
        },
        {
          "indexed": false,
          "name": "value",
          "type": "uint256"
        }
      ],
      "name": "Approve",
      "type": "event"
    },
    {
      "anonymous": false,
      "inputs": [
        {
          "indexed": true,
          "name": "from",
          "type": "address"
        },
        {
          "indexed": true,
          "name": "to",
          "type": "address"
        },
        {
          "indexed": false,
          "name": "by",
          "type": "address"
        }
      ],
      "name": "Recovery",
      "type": "event"
    },
    {
      "anonymous": false,
      "inputs": [
        {
          "indexed": false,
          "name": "errorCode",
          "type": "uint256"
        }
      ],
      "name": "Error",
      "type": "event"
    }
  ],
  "bytecode": "0x606060405260008054600160a060020a033316600160a060020a0319909116179055612b3f806100306000396000f30060606040526004361061028f5763ffffffff60e060020a60003504166302571be3811461029457806302927d20146102c6578063048ae1bb146102f7578063085a4705146103195780630af3e660146103c35780631286e393146103e257806314712e2f14610401578063161ff6621461042e5780631c8d5d38146104aa5780632a11ced0146104d25780632f553d31146104e85780634592cd1d146105125780634637d827146105255780634d30b6be14610544578063515c145714610566578063552f27f5146105d9578063557f4bc9146105f857806357a96dd0146106175780635aa77d3c1461068a5780635b7da3381461069d578063638a9ce9146106b6578063648bf774146106d85780636713e230146106fd5780636825c84314610722578063691f3431146107385780636932af36146107c55780636b4ed21b146107db57806383197ef0146107ee5780638dcff4f9146108015780639fda5b6614610820578063a3ff0ea21461095b578063a831751d14610a14578063a843c51f14610a33578063a9612f7214610a52578063abafaa1614610a7a578063b524abcf14610a9f578063bebcc04514610ab5578063c4eeeeb914610acb578063c70bbc1314610ae1578063ca448a8814610b06578063cb59646614610b1f578063ccc11f1114610b3e578063ccce413b14610b60578063ce606ee014610b76578063d54c8c8714610b89578063d8b163d014610bb4578063d8f9659b14610bc7578063dc86e6f014610c21578063df26ca0814610c4d578063e0873c0614610c63578063e96b462a14610c7c578063ea14457e14610c9e578063ec77809f14610cc9578063ecac7f4b14610ceb578063f07629f814610cfe578063f0c06aa514610d11578063fd83915e14610d30575b600080fd5b341561029f57600080fd5b6102aa600435610d52565b604051600160a060020a03909116815260200160405180910390f35b34156102d157600080fd5b6102e5600160a060020a0360043516610d7d565b60405190815260200160405180910390f35b341561030257600080fd5b6102e5600435600160a060020a0360243516610dd5565b341561032457600080fd5b6102e5600480359060248035919060649060443590810190830135806020601f8201819004810201604051908101604052818152929190602084018383808284378201915050505050509190803590602001908201803590602001908080601f0160208091040260200160405190810160405281815292919060208401838380828437509496505060ff853516946020013515159350610ea892505050565b34156103ce57600080fd5b6102e5600160a060020a0360043516610ec6565b34156103ed57600080fd5b6102e5600160a060020a0360043516610ee1565b341561040c57600080fd5b6102e5600160a060020a03600435811690602435906044359060643516610f1e565b341561043957600080fd5b6102e5600160a060020a0360048035821691602480359091169160443591606435919060a49060843590810190830135806020601f8201819004810201604051908101604052818152929190602084018383808284375094965050509235600160a060020a03169250610f6b915050565b34156104b557600080fd5b6102e5600160a060020a0360043581169060243516604435610fc4565b34156104dd57600080fd5b6102aa600435610fe9565b34156104f357600080fd5b6104fe600435611004565b604051901515815260200160405180910390f35b341561051d57600080fd5b6104fe611018565b341561053057600080fd5b6102e5600160a060020a0360043516611063565b341561054f57600080fd5b6102e5600160a060020a03600435166024356110e8565b341561057157600080fd5b6105d7600160a060020a0360048035821691602480359091169160443591606435919060a49060843590810190830135806020601f8201819004810201604051908101604052818152929190602084018383808284375094965061110595505050505050565b005b34156105e457600080fd5b6102e5600160a060020a03600435166111bb565b341561060357600080fd5b6104fe600160a060020a03600435166111f8565b341561062257600080fd5b6102e560048035600160a060020a03169060248035916044359160849060643590810190830135806020601f8201819004810201604051908101604052818152929190602084018383808284375094965050509235600160a060020a0316925061124b915050565b341561069557600080fd5b6102aa611289565b34156106a857600080fd5b6102e5600435602435611298565b34156106c157600080fd5b6102e5600160a060020a03600435166024356112b8565b34156106e357600080fd5b6102e5600160a060020a036004358116906024351661134b565b341561070857600080fd5b6104fe600160a060020a036004358116906024351661148d565b341561072d57600080fd5b6102aa6004356114d1565b341561074357600080fd5b61074e6004356114ec565b60405160208082528190810183818151815260200191508051906020019080838360005b8381101561078a578082015183820152602001610772565b50505050905090810190601f1680156107b75780820380516001836020036101000a031916815260200191505b509250505060405180910390f35b34156107d057600080fd5b6102aa6004356115b2565b34156107e657600080fd5b6102e56115cd565b34156107f957600080fd5b6105d76115d3565b341561080c57600080fd5b6102e5600160a060020a03600435166115f8565b341561082b57600080fd5b610836600435611650565b60405186815260208101869052821515608082015260ff821660a082015260c06040820181815286546002600019610100600184161502019091160491830182905290606083019060e0840190889080156108d25780601f106108a7576101008083540402835291602001916108d2565b820191906000526020600020905b8154815290600101906020018083116108b557829003601f168201915b50508381038252865460026000196101006001841615020190911604808252602090910190879080156109465780601f1061091b57610100808354040283529160200191610946565b820191906000526020600020905b81548152906001019060200180831161092957829003601f168201915b50509850505050505050505060405180910390f35b341561096657600080fd5b6102e5600480359060248035919060649060443590810190830135806020601f8201819004810201604051908101604052818152929190602084018383808284378201915050505050509190803590602001908201803590602001908080601f0160208091040260200160405190810160405281815292919060208401838380828437509496505050833560ff169360208101351515935060400135600160a060020a031691506116869050565b3415610a1f57600080fd5b6102e5600160a060020a03600435166118da565b3415610a3e57600080fd5b6104fe600160a060020a036004351661191b565b3415610a5d57600080fd5b6105d7600160a060020a0360043581169060243516604435611992565b3415610a8557600080fd5b6105d7600435602435600160a060020a03604435166119d2565b3415610aaa57600080fd5b6102e5600435611a15565b3415610ac057600080fd5b61074e600435611a2a565b3415610ad657600080fd5b6104fe600435611ab9565b3415610aec57600080fd5b6105d7600435602435600160a060020a0360443516611ad1565b3415610b1157600080fd5b6102e5600435602435611b14565b3415610b2a57600080fd5b6104fe600160a060020a0360043516611c51565b3415610b4957600080fd5b6104fe600160a060020a0360043516602435611c66565b3415610b6b57600080fd5b6102e5600435611cc2565b3415610b8157600080fd5b6102aa611ce1565b3415610b9457600080fd5b6105d7600160a060020a0360043581169060243516604435606435611cf0565b3415610bbf57600080fd5b6102aa611d38565b3415610bd257600080fd5b6102e5600460248135818101908301358060208181020160405190810160405280939291908181526020018383602002808284375094965050509235600160a060020a03169250611d47915050565b3415610c2c57600080fd5b610c37600435611e94565b60405160ff909116815260200160405180910390f35b3415610c5857600080fd5b6105d7600435611eb1565b3415610c6e57600080fd5b6102e5600435602435611ee7565b3415610c8757600080fd5b6104fe600160a060020a0360043516602435612032565b3415610ca957600080fd5b6105d7600160a060020a0360043581169060243581169060443516612065565b3415610cd457600080fd5b6102e5600435600160a060020a03602435166120bb565b3415610cf657600080fd5b6102e561216a565b3415610d0957600080fd5b6102aa612170565b3415610d1c57600080fd5b6102e5600160a060020a036004351661217f565b3415610d3b57600080fd5b6102e5600435600160a060020a03602435166121e5565b60008181526006602090815260408083205483526003909152902054600160a060020a03165b919050565b600a5460009033600160a060020a0390811691161480610dab575060005433600160a060020a039081169116145b15610d78575060098054600160a060020a038316600160a060020a03199091161790556001919050565b60008083610de33382611c66565b15610ea057610df1846122f7565b600086815260066020818152604080842085855290920190529020805460ff191660011790559150610e238585612362565b600954600160a060020a031663a9612f726000868860405160e060020a63ffffffff8616028152600160a060020a0393841660048201529190921660248201526044810191909152606401600060405180830381600087803b1515610e8757600080fd5b6102c65a03f11515610e9857600080fd5b505050600192505b505092915050565b6000610eb987878787878733611686565b90505b9695505050505050565b600160a060020a031660009081526004602052604090205490565b6000805433600160a060020a0390811691161415610d785750600160a060020a03166000908152600860205260409020805460ff19169055600190565b600082815260076020526040812054839033600160a060020a0390811691161415610f6257610f5f610f4f876122f7565b8686610f5a876122f7565b6123ec565b91505b50949350505050565b600083815260076020526040812054849033600160a060020a0390811691161415610fb957610fb6610f9c89610ec6565b610fa5896122f7565b888888610fb189610ec6565b6125d9565b91505b509695505050505050565b6000610fe1610fd285610ec6565b610fdb85610ec6565b846127da565b949350505050565b600360205260009081526040902054600160a060020a031681565b600090815260066020526040902054151590565b60015460009033600160a060020a0390811691161461103957506000611060565b506001805460008054600160a060020a0319908116600160a060020a038416179091551681555b90565b60008061106f336122f7565b905061107a83610ec6565b8114156110935761108c613a99612808565b91506110e2565b61109d338461148d565b156110ad5761108c613aa3612808565b6000818152600360209081526040808320600160a060020a03871684526001908101909252909120805460ff19168217905591505b50919050565b60006110fc6110f684610ec6565b83611298565b90505b92915050565b82600160a060020a038086169087167f8f1b83868d2ecc962fd90cfee71c9c52455fe10940937bc7571d90ba404c5c3b858560405182815260406020820181815290820183818151815260200191508051906020019080838360005b83811015611179578082015183820152602001611161565b50505050905090810190601f1680156111a65780820380516001836020036101000a031916815260200191505b50935050505060405180910390a45050505050565b6000805433600160a060020a0390811691161415610d785750600a8054600160a060020a038316600160a060020a03199091161790556001919050565b6000805433600160a060020a0390811691161415610d7857600160a060020a038216151561122857506000610d78565b5060018054600160a060020a038316600160a060020a0319909116178155919050565b600083815260076020526040812054849033600160a060020a039081169116141561127f5761127c610f9c84610ec6565b91505b5095945050505050565b600154600160a060020a031681565b600090815260066020908152604080832093835260059093019052205490565b6000805433600160a060020a03908116911614806112ee5750600160a060020a03331660009081526008602052604090205460ff165b156110ff57600082815260076020526040902054600160a060020a0316156113195750613a986110ff565b5060008181526007602052604090208054600160a060020a038416600160a060020a0319909116179055600192915050565b600080833361135a828261148d565b156114845761136885610ec6565b1561137f57611378613aa4612808565b9350611484565b6003600061138c88610ec6565b81526020810191909152604001600090812054600160a060020a0316935085906003906113b889610ec6565b815260208101919091526040016000208054600160a060020a031916600160a060020a03929092169190911790556113ef86610ec6565b600160a060020a038087166000908152600460205260409081902092909255600954169063ea14457e908590889033905160e060020a63ffffffff8616028152600160a060020a03938416600482015291831660248301529091166044820152606401600060405180830381600087803b151561146b57600080fd5b6102c65a03f1151561147c57600080fd5b505050600193505b50505092915050565b60006003600061149c85610ec6565b815260208082019290925260409081016000908120600160a060020a038616825260010190925290205460ff16905092915050565b600090815260036020526040902054600160a060020a031690565b6114f4612a40565b6006600083600019166000191681526020019081526020016000206002018054600181600116156101000203166002900480601f0160208091040260200160405190810160405280929190818152602001828054600181600116156101000203166002900480156115a65780601f1061157b576101008083540402835291602001916115a6565b820191906000526020600020905b81548152906001019060200180831161158957829003601f168201915b50505050509050919050565b600760205260009081526040902054600160a060020a031681565b60025481565b60005433600160a060020a03908116911614156115f65733600160a060020a0316ff5b565b600a5460009033600160a060020a0390811691161480611626575060005433600160a060020a039081169116145b15610d785750600b8054600160a060020a038316600160a060020a03199091161790556001919050565b60066020526000908152604090208054600182015460048301549192909160028201916003019060ff8082169161010090041686565b600080548190819033600160a060020a03908116911614806116c05750600160a060020a03331660009081526008602052604090205460ff165b156118cd57881580156116d1575084155b156116e8576116e1613a9e612808565b92506118cd565b6116f18a611004565b15611701576116e1613a9d612808565b61170a846122f7565b915033600160a060020a031684600160a060020a0316146117335761172e336122f7565b611735565b815b90506005805480600101828161174b9190612a52565b5060009182526020909120018a905560c0604051908101604090815282825260208083018c90528183018b9052606083018a9052871515608084015260ff891660a084015260008d815260069091522081518155602082015181600101556040820151816002019080516117c3929160200190612a7b565b506060820151816003019080516117de929160200190612a7b565b50608082015160048201805460ff191691151591909117905560a08201516004909101805460ff929092166101000261ff00199092169190911790555060008a8152600660209081526040808320858452600501909152902089905561184c8a611847836114d1565b612362565b600954600160a060020a031663abafaa168b8b611868866114d1565b60405160e060020a63ffffffff861602815260048101939093526024830191909152600160a060020a03166044820152606401600060405180830381600087803b15156118b457600080fd5b6102c65a03f115156118c557600080fd5b505050600192505b5050979650505050505050565b6000805433600160a060020a0390811691161415610d785750600160a060020a03166000908152600860205260409020805460ff1916600190811790915590565b6000805433600160a060020a0390811691161415610d7857600160a060020a038216151561194b57506000610d78565b600154600160a060020a03161561196d5760018054600160a060020a03191690555b5060008054600160a060020a038316600160a060020a03199091161790556001919050565b80600160a060020a038084169085167f0de92ba2d86c482d7f947cc22a580692bb78d6277988023434905f44b8cd261a60405160405180910390a4505050565b600160a060020a038116837fd03c2206e12a8eb3553d780874e1a7941b9c67f3a726ce6edb4a9fd65e25ec988460405190815260200160405180910390a3505050565b60009081526006602052604090206001015490565b611a32612a40565b6006600083600019166000191681526020019081526020016000206003018054600181600116156101000203166002900480601f0160208091040260200160405190810160405280929190818152602001828054600181600116156101000203166002900480156115a65780601f1061157b576101008083540402835291602001916115a6565b60009081526006602052604090206004015460ff1690565b600160a060020a038116837fa4e2520a41c90422e37fc8ba7153c519a427a62ea5f494a14a218a7b9bceb6ca8460405190815260200160405180910390a3505050565b60008080831515611b3157611b2a613a9a612808565b9250610ea0565b60008581526006602052604090209150611b4a33610ec6565b600081815260058401602052604090205490915084901015611b7157611b2a613aa1612808565b6000818152600583016020526040902054611b92908563ffffffff61286d16565b60008281526005840160205260409020556001820154611bb8908563ffffffff61286d16565b6001830155600954600160a060020a031663c70bbc138686611bd9856114d1565b60405160e060020a63ffffffff861602815260048101939093526024830191909152600160a060020a03166044820152606401600060405180830381600087803b1515611c2557600080fd5b6102c65a03f11515611c3657600080fd5b505050611c46816000868861287f565b506001949350505050565b60086020526000908152604090205460ff1681565b600080611c7284610ec6565b9050611c7d83611004565b8015610fe15750600083815260066020526040902054811480610fe157506000838152600660208181526040808420858552909201905290205460ff16949350505050565b6005805482908110611cd057fe5b600091825260209091200154905081565b600054600160a060020a031681565b81600160a060020a038085169086167f859b1cddb4da93a04541d62c27d7d83aa8173a1b37bbccd3c60ceb4ee19ee13e8460405190815260200160405180910390a450505050565b600a54600160a060020a031681565b6000805481908190819033600160a060020a039081169116141561148457600092505b8551831015611e8857858381518110611d7f57fe5b90602001906020020151915081600160a060020a03166370a082313060006040516020015260405160e060020a63ffffffff8416028152600160a060020a039091166004820152602401602060405180830381600087803b1515611de257600080fd5b6102c65a03f11515611df357600080fd5b50505060405180519150508015611e7d5781600160a060020a031663a9059cbb868360006040516020015260405160e060020a63ffffffff8516028152600160a060020a0390921660048301526024820152604401602060405180830381600087803b1515611e6157600080fd5b6102c65a03f11515611e7257600080fd5b505050604051805150505b600190920191611d6a565b50600195945050505050565b600090815260066020526040902060040154610100900460ff1690565b7f2e36a7093f25f22bd4cbdeb6040174c3ba4c5fe8f1abc04e7c3c48f26c7413e08160405190815260200160405180910390a150565b600080600084611ef73382611c66565b1561148457841515611f0e57611378613a9a612808565b6000868152600660205260409020600481015490935060ff161515611f3857611378613a9f612808565b60018301548581011015611f5157611378613aa0612808565b611f5a33610ec6565b6000818152600585016020526040902054909250611f7e908663ffffffff61293616565b60008381526005850160205260409020556001830154611fa4908663ffffffff61293616565b6001840155600954600160a060020a031663abafaa168787611fc5866114d1565b60405160e060020a63ffffffff861602815260048101939093526024830191909152600160a060020a03166044820152606401600060405180830381600087803b151561201157600080fd5b6102c65a03f1151561202257600080fd5b505050611e88600083878961287f565b600061203d82611004565b80156110fc575061204d83610ec6565b60008381526006602052604090205414905092915050565b81600160a060020a031683600160a060020a03167f6c0468512076e943ed3d1c5aae1d6903c72162713d86aedd1381b3ac19e10cec83604051600160a060020a03909116815260200160405180910390a3505050565b600080836120c93382611c66565b15610ea0576120d784610ec6565b600086815260066020818152604080842085855290920190529020805460ff191690559150612106858561294c565b600954600160a060020a031663a9612f728560008860405160e060020a63ffffffff8616028152600160a060020a0393841660048201529190921660248201526044810191909152606401600060405180830381600087803b1515610e8757600080fd5b60055490565b600954600160a060020a031681565b6000338261218d828261148d565b156121de576000600360006121a133610ec6565b815260208082019290925260409081016000908120600160a060020a0389168252600190810190935220805460ff19169215159290921790915592505b5050919050565b600080600080856121f63382612032565b156122ed57600160a060020a038616151561221d57612216613aa2612808565b94506122ed565b60008781526006602052604090209350612236866122f7565b845490935083141561224d57612216613a99612808565b8354612258906114d1565b8385559150612267878361294c565b6122718787612362565b600954600160a060020a031663a9612f7283888a60405160e060020a63ffffffff8616028152600160a060020a0393841660048201529190921660248201526044810191909152606401600060405180830381600087803b15156122d457600080fd5b6102c65a03f115156122e557600080fd5b505050600194505b5050505092915050565b600160a060020a0381166000908152600460205260408120548015156110ff5750600280546001019081905560008181526003602090815260408083208054600160a060020a031916600160a060020a03881690811790915583526004909152902081905592915050565b600b54600160a060020a0316156123e857600b54600160a060020a031663660a333e83308460405160e060020a63ffffffff86160281526004810193909352600160a060020a039182166024840152166044820152606401600060405180830381600087803b15156123d357600080fd5b6102c65a03f115156123e457600080fd5b5050505b5050565b60006123f783611004565b151561240f57612408613aa5612808565b9050610fe1565b8482141561242257612408613a99612808565b600083815260066020908152604080832085845260050182528083208884526001019091529020541580159061245757508315155b1561246757612408613aa9612808565b600083815260066020908152604080832085845260050182528083208884526001019091529020849055600954600160a060020a031663d54c8c876124ab846114d1565b6124b4886114d1565b868860405160e060020a63ffffffff8716028152600160a060020a03948516600482015292909316602483015260448201526064810191909152608401600060405180830381600087803b151561250a57600080fd5b6102c65a03f1151561251b57600080fd5b505050600083815260076020526040902054600160a060020a031615611c4657600083815260076020526040902054600160a060020a03166323385089612561846114d1565b61256a886114d1565b8760405160e060020a63ffffffff8616028152600160a060020a0393841660048201529190921660248201526044810191909152606401600060405180830381600087803b15156125ba57600080fd5b6102c65a03f115156125cb57600080fd5b505050506001949350505050565b6000858714156125f5576125ee613a99612808565b9050610ebc565b841515612607576125ee613a9a612808565b846126128886611298565b1015612623576125ee613a9b612808565b81871415801561263c57508461263a8884876127da565b105b1561264c576125ee613a9c612808565b612658878787876129bd565b8682146126c05760008481526006602090815260408083208a84526005018252808320858452600101909152902054612697908663ffffffff61286d16565b60008581526006602090815260408083208b845260050182528083208684526001019091529020555b600954600160a060020a031663515c14576126da896114d1565b6126e3896114d1565b87898860405160e060020a63ffffffff8816028152600160a060020a03808716600483019081529086166024830152604482018590526064820184905260a060848301908152909160a40183818151815260200191508051906020019080838360005b8381101561275e578082015183820152602001612746565b50505050905090810190601f16801561278b5780820380516001836020036101000a031916815260200191505b509650505050505050600060405180830381600087803b15156127ad57600080fd5b6102c65a03f115156127be57600080fd5b5050506127cd8787878761287f565b5060019695505050505050565b6000908152600660209081526040808320948352600590940181528382209282526001909201909152205490565b600954600090600160a060020a031663df26ca088360405160e060020a63ffffffff84160281526004810191909152602401600060405180830381600087803b151561285357600080fd5b6102c65a03f1151561286457600080fd5b50929392505050565b60008282111561287957fe5b50900390565b600081815260076020526040902054600160a060020a03161561293057600081815260076020526040902054600160a060020a03166323de66516128c2866114d1565b6128cb866114d1565b8560405160e060020a63ffffffff8616028152600160a060020a0393841660048201529190921660248201526044810191909152606401600060405180830381600087803b151561291b57600080fd5b6102c65a03f1151561292c57600080fd5b5050505b50505050565b60008282018381101561294557fe5b9392505050565b600b54600160a060020a0316156123e857600b54600160a060020a0316632604674383308460405160e060020a63ffffffff86160281526004810193909352600160a060020a039182166024840152166044820152606401600060405180830381600087803b15156123d357600080fd5b60008181526006602090815260408083208784526005019091529020546129ea908363ffffffff61286d16565b6000828152600660209081526040808320888452600501909152808220929092558481522054612a1a9083612936565b600091825260066020908152604080842095845260059095019052929020919091555050565b60206040519081016040526000815290565b815481835581811511612a7657600083815260209020612a76918101908301612af9565b505050565b828054600181600116156101000203166002900490600052602060002090601f016020900481019282601f10612abc57805160ff1916838001178555612ae9565b82800160010185558215612ae9579182015b82811115612ae9578251825591602001919060010190612ace565b50612af5929150612af9565b5090565b61106091905b80821115612af55760008155600101612aff5600a165627a7a72305820bcd031d79a982800c0bf48ce28072696c1aea80678372690fbac307b213eeb130029",
  "source": "pragma solidity ^0.4.11;\n\nimport \"../common/Object.sol\";\nimport \"./ChronoBankPlatformEmitter.sol\";\nimport \"../lib/SafeMath.sol\";\n\ncontract ProxyEventsEmitter {\n    function emitTransfer(address _from, address _to, uint _value);\n    function emitApprove(address _from, address _spender, uint _value);\n}\n\n\ncontract AssetOwningListener {\n    function assetOwnerAdded(bytes32 _symbol, address _platform, address _owner);\n    function assetOwnerRemoved(bytes32 _symbol, address _platform, address _owner);\n}\n\n/**\n * @title ChronoBank Platform.\n *\n * The official ChronoBank assets platform powering TIME and LHT tokens, and possibly\n * other unknown tokens needed later.\n * Platform uses MultiEventsHistory contract to keep events, so that in case it needs to be redeployed\n * at some point, all the events keep appearing at the same place.\n *\n * Every asset is meant to be used through a proxy contract. Only one proxy contract have access\n * rights for a particular asset.\n *\n * Features: transfers, allowances, supply adjustments, lost wallet access recovery.\n *\n * Note: all the non constant functions return false instead of throwing in case if state change\n * didn't happen yet.\n */\ncontract ChronoBankPlatform is Object, ChronoBankPlatformEmitter {\n    using SafeMath for uint;\n\n    uint constant CHRONOBANK_PLATFORM_SCOPE = 15000;\n    uint constant CHRONOBANK_PLATFORM_PROXY_ALREADY_EXISTS = CHRONOBANK_PLATFORM_SCOPE + 0;\n    uint constant CHRONOBANK_PLATFORM_CANNOT_APPLY_TO_ONESELF = CHRONOBANK_PLATFORM_SCOPE + 1;\n    uint constant CHRONOBANK_PLATFORM_INVALID_VALUE = CHRONOBANK_PLATFORM_SCOPE + 2;\n    uint constant CHRONOBANK_PLATFORM_INSUFFICIENT_BALANCE = CHRONOBANK_PLATFORM_SCOPE + 3;\n    uint constant CHRONOBANK_PLATFORM_NOT_ENOUGH_ALLOWANCE = CHRONOBANK_PLATFORM_SCOPE + 4;\n    uint constant CHRONOBANK_PLATFORM_ASSET_ALREADY_ISSUED = CHRONOBANK_PLATFORM_SCOPE + 5;\n    uint constant CHRONOBANK_PLATFORM_CANNOT_ISSUE_FIXED_ASSET_WITH_INVALID_VALUE = CHRONOBANK_PLATFORM_SCOPE + 6;\n    uint constant CHRONOBANK_PLATFORM_CANNOT_REISSUE_FIXED_ASSET = CHRONOBANK_PLATFORM_SCOPE + 7;\n    uint constant CHRONOBANK_PLATFORM_SUPPLY_OVERFLOW = CHRONOBANK_PLATFORM_SCOPE + 8;\n    uint constant CHRONOBANK_PLATFORM_NOT_ENOUGH_TOKENS = CHRONOBANK_PLATFORM_SCOPE + 9;\n    uint constant CHRONOBANK_PLATFORM_INVALID_NEW_OWNER = CHRONOBANK_PLATFORM_SCOPE + 10;\n    uint constant CHRONOBANK_PLATFORM_ALREADY_TRUSTED = CHRONOBANK_PLATFORM_SCOPE + 11;\n    uint constant CHRONOBANK_PLATFORM_SHOULD_RECOVER_TO_NEW_ADDRESS = CHRONOBANK_PLATFORM_SCOPE + 12;\n    uint constant CHRONOBANK_PLATFORM_ASSET_IS_NOT_ISSUED = CHRONOBANK_PLATFORM_SCOPE + 13;\n    uint constant CHRONOBANK_PLATFORM_INVALID_INVOCATION = CHRONOBANK_PLATFORM_SCOPE + 17;\n\n    // Structure of a particular asset.\n    struct Asset {\n        uint owner;                       // Asset's owner id.\n        uint totalSupply;                 // Asset's total supply.\n        string name;                      // Asset's name, for information purposes.\n        string description;               // Asset's description, for information purposes.\n        bool isReissuable;                // Indicates if asset have dynamic or fixed supply.\n        uint8 baseUnit;                   // Proposed number of decimals.\n        mapping(uint => Wallet) wallets;  // Holders wallets.\n        mapping(uint => bool) partowners; // Part-owners of an asset; have less access rights than owner\n    }\n\n    // Structure of an asset holder wallet for particular asset.\n    struct Wallet {\n        uint balance;\n        mapping(uint => uint) allowance;\n    }\n\n    // Structure of an asset holder.\n    struct Holder {\n        address addr;                    // Current address of the holder.\n        mapping(address => bool) trust;  // Addresses that are trusted with recovery proocedure.\n    }\n\n    // Iterable mapping pattern is used for holders.\n    uint public holdersCount;\n    mapping(uint => Holder) public holders;\n\n    // This is an access address mapping. Many addresses may have access to a single holder.\n    mapping(address => uint) holderIndex;\n\n    // List of symbols that exist in a platform\n    bytes32[] public symbols;\n\n    // Asset symbol to asset mapping.\n    mapping(bytes32 => Asset) public assets;\n\n    // Asset symbol to asset proxy mapping.\n    mapping(bytes32 => address) public proxies;\n\n    /** Co-owners of a platform. Has less access rights than a root contract owner */\n    mapping(address => bool) public partowners;\n\n    // Should use interface of the emitter, but address of events history.\n    address public eventsHistory;\n    address public eventsAdmin;\n\n    address owningListener;\n\n    /**\n     * Emits Error event with specified error message.\n     *\n     * Should only be used if no state changes happened.\n     *\n     * @param _errorCode code of an error\n     */\n    function _error(uint _errorCode) internal returns(uint) {\n        ChronoBankPlatformEmitter(eventsHistory).emitError(_errorCode);\n        return _errorCode;\n    }\n\n    /**\n     * Emits Error if called not by asset owner.\n     */\n    modifier onlyOwner(bytes32 _symbol) {\n        if (isOwner(msg.sender, _symbol)) {\n            _;\n        }\n    }\n\n    /**\n     * Emits Error if called not by asset owner.\n     */\n    modifier onlyEventsAdmin() {\n        if (eventsAdmin == msg.sender || contractOwner == msg.sender) {\n            _;\n        }\n    }\n\n    /**\n    * @dev UNAUTHORIZED if called not by one of symbol's partowners or owner\n    */\n    modifier onlyOneOfOwners(bytes32 _symbol) {\n        if (hasAssetRights(msg.sender, _symbol)) {\n            _;\n        }\n    }\n\n    /**\n    * @dev UNAUTHORIZED if called not by one of partowners or contract's owner\n    */\n    modifier onlyOneOfContractOwners() {\n        if (contractOwner == msg.sender || partowners[msg.sender]) {\n            _;\n        }\n    }\n\n    /**\n     * Emits Error if called not by asset proxy.\n     */\n    modifier onlyProxy(bytes32 _symbol) {\n        if (proxies[_symbol] == msg.sender) {\n            _;\n        }\n    }\n\n    /**\n     * Emits Error if _from doesn't trust _to.\n     */\n    modifier checkTrust(address _from, address _to) {\n        if (isTrusted(_from, _to)) {\n            _;\n        }\n    }\n\n    /**\n    * Adds a co-owner of a contract. Might be more than one co-owner\n    * @dev Allowed to only contract onwer\n    *\n    * @param _partowner a co-owner of a contract\n    *\n    * @return result code of an operation\n    */\n    function addPartOwner(address _partowner) onlyContractOwner returns (uint) {\n        partowners[_partowner] = true;\n        return OK;\n    }\n\n    /**\n    * Removes a co-owner of a contract\n    * @dev Should be performed only by root contract owner\n    *\n    * @param _partowner a co-owner of a contract\n    *\n    * @return result code of an operation\n    */\n    function removePartOwner(address _partowner) onlyContractOwner returns (uint) {\n        delete partowners[_partowner];\n        return OK;\n    }\n\n    /**\n     * Sets EventsHstory contract address.\n     *\n     * Can be set only by events history admon or owner.\n     *\n     * @param _eventsHistory MultiEventsHistory contract address.\n     *\n     * @return success.\n     */\n    function setupEventsHistory(address _eventsHistory) onlyEventsAdmin returns (uint errorCode) {\n        eventsHistory = _eventsHistory;\n        return OK;\n    }\n\n    /**\n     * Sets EventsHstory contract admin address.\n     *\n     * Can be set only by contract owner.\n     *\n     * @param _eventsAdmin admin contract address.\n     *\n     * @return success.\n     */\n    function setupEventsAdmin(address _eventsAdmin) onlyContractOwner returns (uint errorCode) {\n        eventsAdmin = _eventsAdmin;\n        return OK;\n    }\n\n    /**\n    * @dev DEPRECATED. WILL BE REMOVED IN NEXT RELEASES\n    */\n    function setupAssetOwningListener(address _listener) onlyEventsAdmin public returns (uint) {\n        owningListener = _listener;\n        return OK;\n    }\n\n    /**\n    * Provides a cheap way to get number of symbols registered in a platform\n    *\n    * @return number of symbols\n    */\n    function symbolsCount() public constant returns (uint) {\n        return symbols.length;\n    }\n\n    /**\n     * Check asset existance.\n     *\n     * @param _symbol asset symbol.\n     *\n     * @return asset existance.\n     */\n    function isCreated(bytes32 _symbol) constant returns(bool) {\n        return assets[_symbol].owner != 0;\n    }\n\n    /**\n     * Returns asset decimals.\n     *\n     * @param _symbol asset symbol.\n     *\n     * @return asset decimals.\n     */\n    function baseUnit(bytes32 _symbol) constant returns(uint8) {\n        return assets[_symbol].baseUnit;\n    }\n\n    /**\n     * Returns asset name.\n     *\n     * @param _symbol asset symbol.\n     *\n     * @return asset name.\n     */\n    function name(bytes32 _symbol) constant returns(string) {\n        return assets[_symbol].name;\n    }\n\n    /**\n     * Returns asset description.\n     *\n     * @param _symbol asset symbol.\n     *\n     * @return asset description.\n     */\n    function description(bytes32 _symbol) constant returns(string) {\n        return assets[_symbol].description;\n    }\n\n    /**\n     * Returns asset reissuability.\n     *\n     * @param _symbol asset symbol.\n     *\n     * @return asset reissuability.\n     */\n    function isReissuable(bytes32 _symbol) constant returns(bool) {\n        return assets[_symbol].isReissuable;\n    }\n\n    /**\n     * Returns asset owner address.\n     *\n     * @param _symbol asset symbol.\n     *\n     * @return asset owner address.\n     */\n    function owner(bytes32 _symbol) constant returns(address) {\n        return holders[assets[_symbol].owner].addr;\n    }\n\n    /**\n     * Check if specified address has asset owner rights.\n     *\n     * @param _owner address to check.\n     * @param _symbol asset symbol.\n     *\n     * @return owner rights availability.\n     */\n    function isOwner(address _owner, bytes32 _symbol) constant returns(bool) {\n        return isCreated(_symbol) && (assets[_symbol].owner == getHolderId(_owner));\n    }\n\n    /**\n    * Checks if a specified address has asset owner or co-owner rights.\n    *\n    * @param _owner address to check.\n    * @param _symbol asset symbol.\n    *\n    * @return owner rights availability.\n    */\n    function hasAssetRights(address _owner, bytes32 _symbol) constant returns (bool) {\n        uint holderId = getHolderId(_owner);\n        return isCreated(_symbol) && (assets[_symbol].owner == holderId || assets[_symbol].partowners[holderId]);\n    }\n\n    /**\n     * Returns asset total supply.\n     *\n     * @param _symbol asset symbol.\n     *\n     * @return asset total supply.\n     */\n    function totalSupply(bytes32 _symbol) constant returns(uint) {\n        return assets[_symbol].totalSupply;\n    }\n\n    /**\n     * Returns asset balance for a particular holder.\n     *\n     * @param _holder holder address.\n     * @param _symbol asset symbol.\n     *\n     * @return holder balance.\n     */\n    function balanceOf(address _holder, bytes32 _symbol) constant returns(uint) {\n        return _balanceOf(getHolderId(_holder), _symbol);\n    }\n\n    /**\n     * Returns asset balance for a particular holder id.\n     *\n     * @param _holderId holder id.\n     * @param _symbol asset symbol.\n     *\n     * @return holder balance.\n     */\n    function _balanceOf(uint _holderId, bytes32 _symbol) constant returns(uint) {\n        return assets[_symbol].wallets[_holderId].balance;\n    }\n\n    /**\n     * Returns current address for a particular holder id.\n     *\n     * @param _holderId holder id.\n     *\n     * @return holder address.\n     */\n    function _address(uint _holderId) constant returns(address) {\n        return holders[_holderId].addr;\n    }\n\n    /**\n    * Adds a co-owner for an asset with provided symbol.\n    * @dev Should be performed by a contract owner or its co-owners\n    *\n    * @param _symbol asset's symbol\n    * @param _partowner a co-owner of an asset\n    *\n    * @return errorCode result code of an operation\n    */\n    function addAssetPartOwner(bytes32 _symbol, address _partowner) onlyOneOfOwners(_symbol) public returns (uint) {\n        uint holderId = _createHolderId(_partowner);\n        assets[_symbol].partowners[holderId] = true;\n        _delegateAssetOwnerAdded(_symbol, _partowner);\n        ChronoBankPlatformEmitter(eventsHistory).emitOwnershipChange(0x0, _partowner, _symbol);\n        return OK;\n    }\n\n    /**\n    * Removes a co-owner for an asset with provided symbol.\n    * @dev Should be performed by a contract owner or its co-owners\n    *\n    * @param _symbol asset's symbol\n    * @param _partowner a co-owner of an asset\n    *\n    * @return errorCode result code of an operation\n    */\n    function removeAssetPartOwner(bytes32 _symbol, address _partowner) onlyOneOfOwners(_symbol) public returns (uint) {\n        uint holderId = getHolderId(_partowner);\n        delete assets[_symbol].partowners[holderId];\n        _delegateAssetOwnerRemoved(_symbol, _partowner);\n        ChronoBankPlatformEmitter(eventsHistory).emitOwnershipChange(_partowner, 0x0, _symbol);\n        return OK;\n    }\n\n    /**\n     * Sets Proxy contract address for a particular asset.\n     *\n     * Can be set only once for each asset, and only by contract owner.\n     *\n     * @param _proxyAddress Proxy contract address.\n     * @param _symbol asset symbol.\n     *\n     * @return success.\n     */\n    function setProxy(address _proxyAddress, bytes32 _symbol) onlyOneOfContractOwners returns(uint) {\n        if (proxies[_symbol] != 0x0) {\n            return CHRONOBANK_PLATFORM_PROXY_ALREADY_EXISTS;\n        }\n\n        proxies[_symbol] = _proxyAddress;\n        return OK;\n    }\n\n    /**\n     * Transfers asset balance between holders wallets.\n     *\n     * @param _fromId holder id to take from.\n     * @param _toId holder id to give to.\n     * @param _value amount to transfer.\n     * @param _symbol asset symbol.\n     */\n    function _transferDirect(uint _fromId, uint _toId, uint _value, bytes32 _symbol) internal {\n        assets[_symbol].wallets[_fromId].balance = assets[_symbol].wallets[_fromId].balance.sub(_value);\n        assets[_symbol].wallets[_toId].balance = assets[_symbol].wallets[_toId].balance.add(_value);\n    }\n\n    /**\n     * Transfers asset balance between holders wallets.\n     *\n     * Performs sanity checks and takes care of allowances adjustment.\n     *\n     * @param _fromId holder id to take from.\n     * @param _toId holder id to give to.\n     * @param _value amount to transfer.\n     * @param _symbol asset symbol.\n     * @param _reference transfer comment to be included in a Transfer event.\n     * @param _senderId transfer initiator holder id.\n     *\n     * @return success.\n     */\n    function _transfer(uint _fromId, uint _toId, uint _value, bytes32 _symbol, string _reference, uint _senderId) internal returns(uint) {\n        // Should not allow to send to oneself.\n        if (_fromId == _toId) {\n            return _error(CHRONOBANK_PLATFORM_CANNOT_APPLY_TO_ONESELF);\n        }\n        // Should have positive value.\n        if (_value == 0) {\n            return _error(CHRONOBANK_PLATFORM_INVALID_VALUE);\n        }\n        // Should have enough balance.\n        if (_balanceOf(_fromId, _symbol) < _value) {\n            return _error(CHRONOBANK_PLATFORM_INSUFFICIENT_BALANCE);\n        }\n        // Should have enough allowance.\n        if (_fromId != _senderId && _allowance(_fromId, _senderId, _symbol) < _value) {\n            return _error(CHRONOBANK_PLATFORM_NOT_ENOUGH_ALLOWANCE);\n        }\n\n        _transferDirect(_fromId, _toId, _value, _symbol);\n        // Adjust allowance.\n        if (_fromId != _senderId) {\n            assets[_symbol].wallets[_fromId].allowance[_senderId] = assets[_symbol].wallets[_fromId].allowance[_senderId].sub(_value);\n        }\n        // Internal Out Of Gas/Throw: revert this transaction too;\n        // Call Stack Depth Limit reached: n/a after HF 4;\n        // Recursive Call: safe, all changes already made.\n        ChronoBankPlatformEmitter(eventsHistory).emitTransfer(_address(_fromId), _address(_toId), _symbol, _value, _reference);\n        _proxyTransferEvent(_fromId, _toId, _value, _symbol);\n        return OK;\n    }\n\n    /**\n     * Transfers asset balance between holders wallets.\n     *\n     * Can only be called by asset proxy.\n     *\n     * @param _to holder address to give to.\n     * @param _value amount to transfer.\n     * @param _symbol asset symbol.\n     * @param _reference transfer comment to be included in a Transfer event.\n     * @param _sender transfer initiator address.\n     *\n     * @return success.\n     */\n    function proxyTransferWithReference(address _to, uint _value, bytes32 _symbol, string _reference, address _sender) onlyProxy(_symbol) returns(uint) {\n        return _transfer(getHolderId(_sender), _createHolderId(_to), _value, _symbol, _reference, getHolderId(_sender));\n    }\n\n    /**\n     * Ask asset Proxy contract to emit ERC20 compliant Transfer event.\n     *\n     * @param _fromId holder id to take from.\n     * @param _toId holder id to give to.\n     * @param _value amount to transfer.\n     * @param _symbol asset symbol.\n     */\n    function _proxyTransferEvent(uint _fromId, uint _toId, uint _value, bytes32 _symbol) internal {\n        if (proxies[_symbol] != 0x0) {\n            // Internal Out Of Gas/Throw: revert this transaction too;\n            // Call Stack Depth Limit reached: n/a after HF 4;\n            // Recursive Call: safe, all changes already made.\n            ProxyEventsEmitter(proxies[_symbol]).emitTransfer(_address(_fromId), _address(_toId), _value);\n        }\n    }\n\n    /**\n     * Returns holder id for the specified address.\n     *\n     * @param _holder holder address.\n     *\n     * @return holder id.\n     */\n    function getHolderId(address _holder) constant returns(uint) {\n        return holderIndex[_holder];\n    }\n\n    /**\n     * Returns holder id for the specified address, creates it if needed.\n     *\n     * @param _holder holder address.\n     *\n     * @return holder id.\n     */\n    function _createHolderId(address _holder) internal returns(uint) {\n        uint holderId = holderIndex[_holder];\n        if (holderId == 0) {\n            holderId = ++holdersCount;\n            holders[holderId].addr = _holder;\n            holderIndex[_holder] = holderId;\n        }\n        return holderId;\n    }\n\n    /**\n     * Issues new asset token on the platform.\n     *\n     * Tokens issued with this call go straight to contract owner.\n     * Each symbol can be issued only once, and only by contract owner.\n     *\n     * @param _symbol asset symbol.\n     * @param _value amount of tokens to issue immediately.\n     * @param _name name of the asset.\n     * @param _description description for the asset.\n     * @param _baseUnit number of decimals.\n     * @param _isReissuable dynamic or fixed supply.\n     *\n     * @return success.\n     */\n    function issueAsset(bytes32 _symbol, uint _value, string _name, string _description, uint8 _baseUnit, bool _isReissuable) public returns(uint) {\n        return issueAsset(_symbol, _value, _name, _description, _baseUnit, _isReissuable, msg.sender);\n    }\n\n    /**\n     * Issues new asset token on the platform.\n     *\n     * Tokens issued with this call go straight to contract owner.\n     * Each symbol can be issued only once, and only by contract owner.\n     *\n     * @param _symbol asset symbol.\n     * @param _value amount of tokens to issue immediately.\n     * @param _name name of the asset.\n     * @param _description description for the asset.\n     * @param _baseUnit number of decimals.\n     * @param _isReissuable dynamic or fixed supply.\n     * @param _account address where issued balance will be held\n     *\n     * @return success.\n     */\n    function issueAsset(bytes32 _symbol, uint _value, string _name, string _description, uint8 _baseUnit, bool _isReissuable, address _account) onlyOneOfContractOwners public returns(uint) {\n        // Should have positive value if supply is going to be fixed.\n        if (_value == 0 && !_isReissuable) {\n            return _error(CHRONOBANK_PLATFORM_CANNOT_ISSUE_FIXED_ASSET_WITH_INVALID_VALUE);\n        }\n        // Should not be issued yet.\n        if (isCreated(_symbol)) {\n            return _error(CHRONOBANK_PLATFORM_ASSET_ALREADY_ISSUED);\n        }\n        uint holderId = _createHolderId(_account);\n        uint creatorId = _account == msg.sender ? holderId : _createHolderId(msg.sender);\n\n        symbols.push(_symbol);\n        assets[_symbol] = Asset(creatorId, _value, _name, _description, _isReissuable, _baseUnit);\n        assets[_symbol].wallets[holderId].balance = _value;\n        // Internal Out Of Gas/Throw: revert this transaction too;\n        // Call Stack Depth Limit reached: n/a after HF 4;\n        // Recursive Call: safe, all changes already made.\n        _delegateAssetOwnerAdded(_symbol, _address(creatorId));\n        ChronoBankPlatformEmitter(eventsHistory).emitIssue(_symbol, _value, _address(holderId));\n        return OK;\n    }\n\n    /**\n     * Issues additional asset tokens if the asset have dynamic supply.\n     *\n     * Tokens issued with this call go straight to asset owner.\n     * Can only be called by asset owner.\n     *\n     * @param _symbol asset symbol.\n     * @param _value amount of additional tokens to issue.\n     *\n     * @return success.\n     */\n    function reissueAsset(bytes32 _symbol, uint _value) onlyOneOfOwners(_symbol) public returns(uint) {\n        // Should have positive value.\n        if (_value == 0) {\n            return _error(CHRONOBANK_PLATFORM_INVALID_VALUE);\n        }\n        Asset storage asset = assets[_symbol];\n        // Should have dynamic supply.\n        if (!asset.isReissuable) {\n            return _error(CHRONOBANK_PLATFORM_CANNOT_REISSUE_FIXED_ASSET);\n        }\n        // Resulting total supply should not overflow.\n        if (asset.totalSupply + _value < asset.totalSupply) {\n            return _error(CHRONOBANK_PLATFORM_SUPPLY_OVERFLOW);\n        }\n        uint holderId = getHolderId(msg.sender);\n        asset.wallets[holderId].balance = asset.wallets[holderId].balance.add(_value);\n        asset.totalSupply = asset.totalSupply.add(_value);\n        // Internal Out Of Gas/Throw: revert this transaction too;\n        // Call Stack Depth Limit reached: n/a after HF 4;\n        // Recursive Call: safe, all changes already made.\n        ChronoBankPlatformEmitter(eventsHistory).emitIssue(_symbol, _value, _address(holderId));\n        _proxyTransferEvent(0, holderId, _value, _symbol);\n        return OK;\n    }\n\n    /**\n     * Destroys specified amount of senders asset tokens.\n     *\n     * @param _symbol asset symbol.\n     * @param _value amount of tokens to destroy.\n     *\n     * @return success.\n     */\n    function revokeAsset(bytes32 _symbol, uint _value) public returns(uint) {\n        // Should have positive value.\n        if (_value == 0) {\n            return _error(CHRONOBANK_PLATFORM_INVALID_VALUE);\n        }\n        Asset storage asset = assets[_symbol];\n        uint holderId = getHolderId(msg.sender);\n        // Should have enough tokens.\n        if (asset.wallets[holderId].balance < _value) {\n            return _error(CHRONOBANK_PLATFORM_NOT_ENOUGH_TOKENS);\n        }\n        asset.wallets[holderId].balance = asset.wallets[holderId].balance.sub(_value);\n        asset.totalSupply = asset.totalSupply.sub(_value);\n        // Internal Out Of Gas/Throw: revert this transaction too;\n        // Call Stack Depth Limit reached: n/a after HF 4;\n        // Recursive Call: safe, all changes already made.\n        ChronoBankPlatformEmitter(eventsHistory).emitRevoke(_symbol, _value, _address(holderId));\n        _proxyTransferEvent(holderId, 0, _value, _symbol);\n        return OK;\n    }\n\n    /**\n     * Passes asset ownership to specified address.\n     *\n     * Only ownership is changed, balances are not touched.\n     * Can only be called by asset owner.\n     *\n     * @param _symbol asset symbol.\n     * @param _newOwner address to become a new owner.\n     *\n     * @return success.\n     */\n    function changeOwnership(bytes32 _symbol, address _newOwner) onlyOwner(_symbol) public returns(uint) {\n        if (_newOwner == 0x0) {\n            return _error(CHRONOBANK_PLATFORM_INVALID_NEW_OWNER);\n        }\n\n        Asset storage asset = assets[_symbol];\n        uint newOwnerId = _createHolderId(_newOwner);\n        // Should pass ownership to another holder.\n        if (asset.owner == newOwnerId) {\n            return _error(CHRONOBANK_PLATFORM_CANNOT_APPLY_TO_ONESELF);\n        }\n        address oldOwner = _address(asset.owner);\n        asset.owner = newOwnerId;\n        // Internal Out Of Gas/Throw: revert this transaction too;\n        // Call Stack Depth Limit reached: n/a after HF 4;\n        // Recursive Call: safe, all changes already made.\n        _delegateAssetOwnerRemoved(_symbol, oldOwner);\n        _delegateAssetOwnerAdded(_symbol, _newOwner);\n        ChronoBankPlatformEmitter(eventsHistory).emitOwnershipChange(oldOwner, _newOwner, _symbol);\n        return OK;\n    }\n\n    /**\n     * Check if specified holder trusts an address with recovery procedure.\n     *\n     * @param _from truster.\n     * @param _to trustee.\n     *\n     * @return trust existance.\n     */\n    function isTrusted(address _from, address _to) constant returns(bool) {\n        return holders[getHolderId(_from)].trust[_to];\n    }\n\n    /**\n     * Trust an address to perform recovery procedure for the caller.\n     *\n     * @param _to trustee.\n     *\n     * @return success.\n     */\n    function trust(address _to) returns(uint) {\n        uint fromId = _createHolderId(msg.sender);\n        // Should trust to another address.\n        if (fromId == getHolderId(_to)) {\n            return _error(CHRONOBANK_PLATFORM_CANNOT_APPLY_TO_ONESELF);\n        }\n        // Should trust to yet untrusted.\n        if (isTrusted(msg.sender, _to)) {\n            return _error(CHRONOBANK_PLATFORM_ALREADY_TRUSTED);\n        }\n\n        holders[fromId].trust[_to] = true;\n        return OK;\n    }\n\n    /**\n     * Revoke trust to perform recovery procedure from an address.\n     *\n     * @param _to trustee.\n     *\n     * @return success.\n     */\n    function distrust(address _to) checkTrust(msg.sender, _to) public returns (uint) {\n        holders[getHolderId(msg.sender)].trust[_to] = false;\n        return OK;\n    }\n\n    /**\n     * Perform recovery procedure.\n     *\n     * This function logic is actually more of an addAccess(uint _holderId, address _to).\n     * It grants another address access to recovery subject wallets.\n     * Can only be called by trustee of recovery subject.\n     *\n     * @param _from holder address to recover from.\n     * @param _to address to grant access to.\n     *\n     * @return success.\n     */\n    function recover(address _from, address _to) checkTrust(_from, msg.sender) public returns (uint errorCode) {\n        // Should recover to previously unused address.\n        if (getHolderId(_to) != 0) {\n            return _error(CHRONOBANK_PLATFORM_SHOULD_RECOVER_TO_NEW_ADDRESS);\n        }\n        // We take current holder address because it might not equal _from.\n        // It is possible to recover from any old holder address, but event should have the current one.\n        address from = holders[getHolderId(_from)].addr;\n        holders[getHolderId(_from)].addr = _to;\n        holderIndex[_to] = getHolderId(_from);\n        // Internal Out Of Gas/Throw: revert this transaction too;\n        // Call Stack Depth Limit reached: revert this transaction too;\n        // Recursive Call: safe, all changes already made.\n        ChronoBankPlatformEmitter(eventsHistory).emitRecovery(from, _to, msg.sender);\n        return OK;\n    }\n\n    /**\n     * Sets asset spending allowance for a specified spender.\n     *\n     * Note: to revoke allowance, one needs to set allowance to 0.\n     *\n     * @param _spenderId holder id to set allowance for.\n     * @param _value amount to allow.\n     * @param _symbol asset symbol.\n     * @param _senderId approve initiator holder id.\n     *\n     * @return success.\n     */\n    function _approve(uint _spenderId, uint _value, bytes32 _symbol, uint _senderId) internal returns(uint) {\n        // Asset should exist.\n        if (!isCreated(_symbol)) {\n            return _error(CHRONOBANK_PLATFORM_ASSET_IS_NOT_ISSUED);\n        }\n        // Should allow to another holder.\n        if (_senderId == _spenderId) {\n            return _error(CHRONOBANK_PLATFORM_CANNOT_APPLY_TO_ONESELF);\n        }\n\n        // Double Spend Attack checkpoint\n        if (assets[_symbol].wallets[_senderId].allowance[_spenderId] != 0 && _value != 0) {\n            return _error(CHRONOBANK_PLATFORM_INVALID_INVOCATION);\n        }\n\n        assets[_symbol].wallets[_senderId].allowance[_spenderId] = _value;\n\n        // Internal Out Of Gas/Throw: revert this transaction too;\n        // Call Stack Depth Limit reached: revert this transaction too;\n        // Recursive Call: safe, all changes already made.\n        ChronoBankPlatformEmitter(eventsHistory).emitApprove(_address(_senderId), _address(_spenderId), _symbol, _value);\n        if (proxies[_symbol] != 0x0) {\n            // Internal Out Of Gas/Throw: revert this transaction too;\n            // Call Stack Depth Limit reached: n/a after HF 4;\n            // Recursive Call: safe, all changes already made.\n            ProxyEventsEmitter(proxies[_symbol]).emitApprove(_address(_senderId), _address(_spenderId), _value);\n        }\n        return OK;\n    }\n\n    /**\n     * Sets asset spending allowance for a specified spender.\n     *\n     * Can only be called by asset proxy.\n     *\n     * @param _spender holder address to set allowance to.\n     * @param _value amount to allow.\n     * @param _symbol asset symbol.\n     * @param _sender approve initiator address.\n     *\n     * @return success.\n     */\n    function proxyApprove(address _spender, uint _value, bytes32 _symbol, address _sender) onlyProxy(_symbol) public returns (uint) {\n        return _approve(_createHolderId(_spender), _value, _symbol, _createHolderId(_sender));\n    }\n\n    /**\n     * Returns asset allowance from one holder to another.\n     *\n     * @param _from holder that allowed spending.\n     * @param _spender holder that is allowed to spend.\n     * @param _symbol asset symbol.\n     *\n     * @return holder to spender allowance.\n     */\n    function allowance(address _from, address _spender, bytes32 _symbol) constant returns(uint) {\n        return _allowance(getHolderId(_from), getHolderId(_spender), _symbol);\n    }\n\n    /**\n     * Returns asset allowance from one holder to another.\n     *\n     * @param _fromId holder id that allowed spending.\n     * @param _toId holder id that is allowed to spend.\n     * @param _symbol asset symbol.\n     *\n     * @return holder to spender allowance.\n     */\n    function _allowance(uint _fromId, uint _toId, bytes32 _symbol) constant internal returns(uint) {\n        return assets[_symbol].wallets[_fromId].allowance[_toId];\n    }\n\n    /**\n     * Prforms allowance transfer of asset balance between holders wallets.\n     *\n     * Can only be called by asset proxy.\n     *\n     * @param _from holder address to take from.\n     * @param _to holder address to give to.\n     * @param _value amount to transfer.\n     * @param _symbol asset symbol.\n     * @param _reference transfer comment to be included in a Transfer event.\n     * @param _sender allowance transfer initiator address.\n     *\n     * @return success.\n     */\n    function proxyTransferFromWithReference(address _from, address _to, uint _value, bytes32 _symbol, string _reference, address _sender) onlyProxy(_symbol) public returns (uint) {\n        return _transfer(getHolderId(_from), _createHolderId(_to), _value, _symbol, _reference, getHolderId(_sender));\n    }\n\n    /**\n    * @dev DEPRECATED. WILL BE REMOVED IN NEXT RELEASES\n    */\n    function _delegateAssetOwnerAdded(bytes32 _symbol, address _owner) private {\n        if (owningListener != 0x0) {\n            AssetOwningListener(owningListener).assetOwnerAdded(_symbol, this, _owner);\n        }\n    }\n\n    /**\n    * @dev DEPRECATED. WILL BE REMOVED IN NEXT RELEASES\n    */\n    function _delegateAssetOwnerRemoved(bytes32 _symbol, address _owner) private {\n        if (owningListener != 0x0) {\n            AssetOwningListener(owningListener).assetOwnerRemoved(_symbol, this, _owner);\n        }\n    }\n}\n",
  "sourcePath": "/Users/ahiatsevich/Development/chronobank/SmartContracts/contracts/core/platform/ChronoBankPlatform.sol",
  "compiler": {
    "name": "solc",
    "version": "0.4.18+commit.9cf6e910.Emscripten.clang"
  },
  "schemaVersion": "1.0.1",
  "updatedAt": "2017-12-15T11:25:49.966Z"
}