{
  "contractName": "Clock",
  "abi": [
    {
      "constant": true,
      "inputs": [],
      "name": "time",
      "outputs": [
        {
          "name": "",
          "type": "uint256"
        }
      ],
      "payable": false,
      "stateMutability": "view",
      "type": "function"
    }
  ],
  "bytecode": "0x60606040523415600e57600080fd5b60958061001c6000396000f300606060405260043610603e5763ffffffff7c010000000000000000000000000000000000000000000000000000000060003504166316ada54781146043575b600080fd5b3415604d57600080fd5b60536065565b60405190815260200160405180910390f35b42905600a165627a7a72305820349212bce5da7d55a6ef7553edde6703e6c1a9265e8b5924ecd54897d1d6362a0029",
  "source": "pragma solidity ^0.4.11;\n\ncontract Clock {\n    function time() public view returns (uint) {\n        return now;\n    }\n}\n",
  "sourcePath": "/Users/mikefluff/Documents/Programming/Chronobank/test/SmartContracts/contracts/helpers/Clock.sol",
  "compiler": {
    "name": "solc",
    "version": "0.4.18+commit.9cf6e910.Emscripten.clang"
  },
  "schemaVersion": "1.0.1",
  "updatedAt": "2018-01-12T11:40:45.420Z"
}