{
  "contractName": "Clock",
  "abi": [
    {
      "constant": true,
      "inputs": [],
      "name": "time",
      "outputs": [
        {
          "name": "",
          "type": "uint256"
        }
      ],
      "payable": false,
      "stateMutability": "view",
      "type": "function"
    }
  ],
  "bytecode": "0x60606040523415600e57600080fd5b60958061001c6000396000f300606060405260043610603e5763ffffffff7c010000000000000000000000000000000000000000000000000000000060003504166316ada54781146043575b600080fd5b3415604d57600080fd5b60536065565b60405190815260200160405180910390f35b42905600a165627a7a7230582022fec42a5d07b8e32f6cecbf45380b7d90e6780b0bfe3ff5fbbc5b6df68d18d50029",
  "source": "pragma solidity ^0.4.11;\n\ncontract Clock {\n    function time() constant returns (uint) {\n        return now;\n    }\n}\n",
  "sourcePath": "/Users/ahiatsevich/Development/chronobank/SmartContracts/contracts/helpers/Clock.sol",
  "compiler": {
    "name": "solc",
    "version": "0.4.18+commit.9cf6e910.Emscripten.clang"
  },
  "schemaVersion": "1.0.1",
  "updatedAt": "2017-11-15T09:25:14.937Z"
}