{
  "contractName": "ContractsManager",
  "abi": [
    {
      "constant": false,
      "inputs": [],
      "name": "claimContractOwnership",
      "outputs": [
        {
          "name": "",
          "type": "bool"
        }
      ],
      "payable": false,
      "stateMutability": "nonpayable",
      "type": "function"
    },
    {
      "constant": false,
      "inputs": [
        {
          "name": "_to",
          "type": "address"
        }
      ],
      "name": "changeContractOwnership",
      "outputs": [
        {
          "name": "",
          "type": "bool"
        }
      ],
      "payable": false,
      "stateMutability": "nonpayable",
      "type": "function"
    },
    {
      "constant": true,
      "inputs": [],
      "name": "pendingContractOwner",
      "outputs": [
        {
          "name": "",
          "type": "address"
        }
      ],
      "payable": false,
      "stateMutability": "view",
      "type": "function"
    },
    {
      "constant": false,
      "inputs": [],
      "name": "destroy",
      "outputs": [],
      "payable": false,
      "stateMutability": "nonpayable",
      "type": "function"
    },
    {
      "constant": true,
      "inputs": [],
      "name": "getContractAddresses",
      "outputs": [
        {
          "name": "",
          "type": "address[]"
        }
      ],
      "payable": false,
      "stateMutability": "view",
      "type": "function"
    },
    {
      "constant": false,
      "inputs": [
        {
          "name": "_to",
          "type": "address"
        }
      ],
      "name": "transferContractOwnership",
      "outputs": [
        {
          "name": "",
          "type": "bool"
        }
      ],
      "payable": false,
      "stateMutability": "nonpayable",
      "type": "function"
    },
    {
      "constant": false,
      "inputs": [
        {
          "name": "_contract",
          "type": "address"
        },
        {
          "name": "_type",
          "type": "bytes32"
        }
      ],
      "name": "addContract",
      "outputs": [
        {
          "name": "",
          "type": "uint256"
        }
      ],
      "payable": false,
      "stateMutability": "nonpayable",
      "type": "function"
    },
    {
      "constant": true,
      "inputs": [
        {
          "name": "_type",
          "type": "bytes32"
        }
      ],
      "name": "getContractAddressByType",
      "outputs": [
        {
          "name": "contractAddress",
          "type": "address"
        }
      ],
      "payable": false,
      "stateMutability": "view",
      "type": "function"
    },
    {
      "constant": false,
      "inputs": [
        {
          "name": "_contract",
          "type": "address"
        }
      ],
      "name": "removeContract",
      "outputs": [
        {
          "name": "",
          "type": "uint256"
        }
      ],
      "payable": false,
      "stateMutability": "nonpayable",
      "type": "function"
    },
    {
      "constant": true,
      "inputs": [],
      "name": "contractOwner",
      "outputs": [
        {
          "name": "",
          "type": "address"
        }
      ],
      "payable": false,
      "stateMutability": "view",
      "type": "function"
    },
    {
      "constant": false,
      "inputs": [
        {
          "name": "tokens",
          "type": "address[]"
        },
        {
          "name": "_to",
          "type": "address"
        }
      ],
      "name": "withdrawnTokens",
      "outputs": [
        {
          "name": "",
          "type": "uint256"
        }
      ],
      "payable": false,
      "stateMutability": "nonpayable",
      "type": "function"
    },
    {
      "constant": true,
      "inputs": [
        {
          "name": "_contract",
          "type": "address"
        }
      ],
      "name": "isExists",
      "outputs": [
        {
          "name": "",
          "type": "bool"
        }
      ],
      "payable": false,
      "stateMutability": "view",
      "type": "function"
    },
    {
      "inputs": [
        {
          "name": "_store",
          "type": "address"
        },
        {
          "name": "_crate",
          "type": "bytes32"
        }
      ],
      "payable": false,
      "stateMutability": "nonpayable",
      "type": "constructor"
    },
    {
      "payable": false,
      "stateMutability": "nonpayable",
      "type": "fallback"
    },
    {
      "anonymous": false,
      "inputs": [
        {
          "indexed": true,
          "name": "contractAddress",
          "type": "address"
        },
        {
          "indexed": false,
          "name": "t",
          "type": "bytes32"
        }
      ],
      "name": "LogAddContract",
      "type": "event"
    },
    {
      "anonymous": false,
      "inputs": [
        {
          "indexed": true,
          "name": "contractAddress",
          "type": "address"
        },
        {
          "indexed": false,
          "name": "t",
          "type": "bytes32"
        }
      ],
      "name": "LogContractAddressChange",
      "type": "event"
    },
    {
      "anonymous": false,
      "inputs": [
        {
          "indexed": true,
          "name": "self",
          "type": "address"
        },
        {
          "indexed": false,
          "name": "errorCode",
          "type": "uint256"
        }
      ],
      "name": "Error",
      "type": "event"
    }
  ],
  "bytecode": "0x606060405234156200001057600080fd5b6040516040806200135f833981016040528080519190602001805160008054600160a060020a03191633600160a060020a03161790559150829050816200006860028383640100000000620000e9810262000f5b1704565b50620000a6905060047f636f6e747261637473000000000000000000000000000000000000000000000064010000000062000f8e6200010f82021704565b620000e160077f636f6e747261637454797065730000000000000000000000000000000000000064010000000062000f9c6200012d82021704565b50506200028a565b8254600160a060020a031916600160a060020a0392909216919091178255600190910155565b62000129828264010000000062000fa66200014782021704565b5050565b6200012982826401000000006200106b6200025282021704565b6200019e82826040519081527f636f756e740000000000000000000000000000000000000000000000000000006020820152602501604051809103902062000252640100000000026200106b176401000000009004565b620001f882600101826040519081527f696e6465786573000000000000000000000000000000000000000000000000006020820152602701604051809103902062000252640100000000026200106b176401000000009004565b6200012982600201826040519081527f76616c75657300000000000000000000000000000000000000000000000000006020820152602601604051809103902062000252640100000000026200106b176401000000009004565b81546200026e9082640100000000620010836200027282021704565b9055565b811515806200027f575080155b156200012957600080fd5b6110c5806200029a6000396000f3006060604052600436106100a05763ffffffff60e060020a6000350416634592cd1d81146100b0578063557f4bc9146100d75780635aa77d3c146100f657806383197ef014610125578063953874d21461013a578063a843c51f146101a0578063b7c46cd5146101bf578063bc657927146101f3578063c375c2ef14610209578063ce606ee014610228578063d8f9659b1461023b578063e0d4f1c314610295575b34156100ab57600080fd5b600080fd5b34156100bb57600080fd5b6100c36102b4565b604051901515815260200160405180910390f35b34156100e257600080fd5b6100c3600160a060020a036004351661030c565b341561010157600080fd5b61010961036b565b604051600160a060020a03909116815260200160405180910390f35b341561013057600080fd5b61013861037a565b005b341561014557600080fd5b61014d61039f565b60405160208082528190810183818151815260200191508051906020019060200280838360005b8381101561018c578082015183820152602001610174565b505050509050019250505060405180910390f35b34156101ab57600080fd5b6100c3600160a060020a03600435166103be565b34156101ca57600080fd5b6101e1600160a060020a036004351660243561044f565b60405190815260200160405180910390f35b34156101fe57600080fd5b61010960043561061f565b341561021457600080fd5b6101e1600160a060020a0360043516610634565b341561023357600080fd5b610109610763565b341561024657600080fd5b6101e1600460248135818101908301358060208181020160405190810160405280939291908181526020018383602002808284375094965050509235600160a060020a03169250610772915050565b34156102a057600080fd5b6100c3600160a060020a03600435166108c1565b60015460009033600160a060020a039081169116146102d557506000610309565b50600180546000805473ffffffffffffffffffffffffffffffffffffffff19908116600160a060020a038416179091551681555b90565b6000805433600160a060020a039081169116141561036657600160a060020a038216151561033c57506000610366565b506001805473ffffffffffffffffffffffffffffffffffffffff1916600160a060020a0383161781555b919050565b600154600160a060020a031681565b60005433600160a060020a039081169116141561039d5733600160a060020a0316ff5b565b6103a7610f49565b6103b96002600463ffffffff6108d616565b905090565b6000805433600160a060020a039081169116141561036657600160a060020a03821615156103ee57506000610366565b600154600160a060020a03161561041d576001805473ffffffffffffffffffffffffffffffffffffffff191690555b5060008054600160a060020a03831673ffffffffffffffffffffffffffffffffffffffff199091161790556001919050565b6000805433600160a060020a039081169116148061053d5750600254600160a060020a031663481c6a756000604051602001526040518163ffffffff1660e060020a028152600401602060405180830381600087803b15156104b057600080fd5b6102c65a03f115156104c157600080fd5b50505060405180519050600160a060020a03166395a078e83360006040516020015260405160e060020a63ffffffff8416028152600160a060020a039091166004820152602401602060405180830381600087803b151561052157600080fd5b6102c65a03f1151561053257600080fd5b505050604051805190505b156106195761054b836108c1565b156105625761055b6127106108f7565b9050610619565b610575600260078463ffffffff61093a16565b600160a060020a0316151561059c57610597600260048563ffffffff61094f16565b6105c4565b6105c460046105b4600260078663ffffffff61093a16565b600291908663ffffffff61096816565b6105d860026007848663ffffffff61098616565b82600160a060020a03167f78d9711b4e43a110a220145d4f6de39235c995d1f4a0054cd049d5273fe3faac8360405190815260200160405180910390a25060015b92915050565b6000610619600260078463ffffffff61093a16565b6000805433600160a060020a03908116911614806107225750600254600160a060020a031663481c6a756000604051602001526040518163ffffffff1660e060020a028152600401602060405180830381600087803b151561069557600080fd5b6102c65a03f115156106a657600080fd5b50505060405180519050600160a060020a03166395a078e83360006040516020015260405160e060020a63ffffffff8416028152600160a060020a039091166004820152602401602060405180830381600087803b151561070657600080fd5b6102c65a03f1151561071757600080fd5b505050604051805190505b1561036657610730826108c1565b1515610748576107416127116108f7565b9050610366565b61075b600260048463ffffffff61099b16565b506001919050565b600054600160a060020a031681565b6000805481908190819033600160a060020a03908116911614156108b857600092505b85518310156108b3578583815181106107aa57fe5b90602001906020020151915081600160a060020a03166370a082313060006040516020015260405160e060020a63ffffffff8416028152600160a060020a039091166004820152602401602060405180830381600087803b151561080d57600080fd5b6102c65a03f1151561081e57600080fd5b505050604051805191505080156108a85781600160a060020a031663a9059cbb868360006040516020015260405160e060020a63ffffffff8516028152600160a060020a0390921660048301526024820152604401602060405180830381600087803b151561088c57600080fd5b6102c65a03f1151561089d57600080fd5b505050604051805150505b600190920191610795565b600193505b50505092915050565b6000610619600260048463ffffffff6109af16565b6108de610f49565b6108f06108eb84846109c5565b6109e1565b9392505050565b600033600160a060020a03167f9cf38cf2dbf9139f5c32639950507b10775fbbe0421f3e168bc2d1bb1ae3208c8360405190815260200160405180910390a25090565b6000610947848484610a6b565b949350505050565b6109638383600160a060020a038416610b05565b505050565b6109808484600160a060020a03808616908516610b1a565b50505050565b610980848484600160a060020a038516610b30565b6109638383600160a060020a038416610bc2565b60006109478484600160a060020a038516610bd7565b6109cd610f49565b6108f0838360ea60020a621cd95d02610bee565b6109e9610f49565b6109f1610f49565b60008351604051805910610a025750595b90808252806020026020018201604052509150600090505b8351811015610a6457838181518110610a2f57fe5b90602001906020020151828281518110610a4557fe5b600160a060020a03909216602092830290910190910152600101610a1a565b5092915050565b825460018401548354600092600160a060020a0316916337d9d7fc9185604051918252602082015260409081019051809103902060006040516020015260405160e060020a63ffffffff851602815260048101929092526024820152604401602060405180830381600087803b1515610ae357600080fd5b6102c65a03f11515610af457600080fd5b505050604051805195945050505050565b610963838360ea60020a621cd95d0284610c67565b610980848460ea60020a621cd95d028585610cc2565b835460018501548454600160a060020a039092169163a14ff85791908560405191825260208201526040908101905180910390208460405160e060020a63ffffffff8616028152600481019390935260248301919091526044820152606401600060405180830381600087803b1515610ba857600080fd5b6102c65a03f11515610bb957600080fd5b50505050505050565b610963838360ea60020a621cd95d0284610d25565b6000610947848460ea60020a621cd95d0285610dca565b610bf6610f49565b600080610c04868686610de6565b915081604051805910610c145750595b90808252806020026020018201604052509250600090505b81811015610c5e57610c4086868684610df3565b838281518110610c4c57fe5b60209081029091010152600101610c2c565b50509392505050565b6000610c7585858585610dca565b15610c7f57610cbb565b610c8a858585610de6565b6001019050610c9f8560028601858486610e10565b610caf8560018601858585610e10565b610cbb85858584610e34565b5050505050565b6000610cd086868686610dca565b1515610cdb57610d1d565b610cea86866001018686610eac565b9050610cfc8660028701868486610e10565b610d0c8660018701868585610e10565b610d1d866001870186866000610e10565b505050505050565b6000806000610d3687878787610dca565b1515610d4157610bb9565b610d4c878787610de6565b9250610d5d87600288018786610eac565b9150610d6e87876001018787610eac565b905082811015610d9857610d888760018801878585610e10565b610d988760028801878486610e10565b610da9876001880187876000610e10565b610dba876002880187866000610e10565b610bb98787876000198701610e34565b6000610ddb85856001018585610eac565b151595945050505050565b6000610947848484610ed1565b6000610e0785600286018560018601610eac565b95945050505050565b610cbb85858585604051918252602082015260409081019051809103902084610b30565b835460018501548454600160a060020a03909216916353e7168b91908560405191825260208201526040908101905180910390208460405160e060020a63ffffffff8616028152600481019390935260248301919091526044820152606401600060405180830381600087803b1515610ba857600080fd5b6000610e07858585856040519182526020820152604090810190518091039020610a6b565b825460018401548354600092600160a060020a0316916353aa3f5e9185604051918252602082015260409081019051809103902060006040516020015260405160e060020a63ffffffff851602815260048101929092526024820152604401602060405180830381600087803b1515610ae357600080fd5b60206040519081016040526000815290565b825473ffffffffffffffffffffffffffffffffffffffff1916600160a060020a0392909216919091178255600190910155565b610f988282610fa6565b5050565b610f98828261106b565b610fe782826040519081527f636f756e740000000000000000000000000000000000000000000000000000006020820152602501604051809103902061106b565b61102b82600101826040519081527f696e6465786573000000000000000000000000000000000000000000000000006020820152602701604051809103902061106b565b610f9882600201826040519081527f76616c7565730000000000000000000000000000000000000000000000000000602082015260260160405180910390205b81546110779082611083565b9055565b815461107790825b8115158061108f575080155b15610f9857600080fd00a165627a7a7230582074b79ac695ccefdc5878da6b2a0ade96fa53551c46262c1a51ace7c7697d36880029",
  "source": "pragma solidity ^0.4.11;\n\nimport \"../common/Object.sol\";\nimport \"../storage/StorageAdapter.sol\";\nimport \"../common/OwnedInterface.sol\";\nimport \"./ContractsManagerInterface.sol\";\n\n/**\n*  @title ContractsManager\n*/\ncontract ContractsManager is Object, StorageAdapter, ContractsManagerInterface {\n    uint constant ERROR_CONTRACT_EXISTS = 10000;\n    uint constant ERROR_CONTRACT_NOT_EXISTS = 10001;\n\n    StorageInterface.AddressesSet contractsAddresses;\n    StorageInterface.Bytes32AddressMapping contractsTypes;\n\n    event LogAddContract(address indexed contractAddress, bytes32 t);\n    event LogContractAddressChange(address indexed contractAddress, bytes32 t);\n    event Error(address indexed self, uint errorCode);\n\n    /**\n    *  @notice Constructor that sets `storage` and `crate` to given values.\n    */\n    function ContractsManager(Storage _store, bytes32 _crate) StorageAdapter(_store, _crate) {\n        contractsAddresses.init('contracts');\n        contractsTypes.init('contractTypes');\n    }\n\n    /**\n    *   @dev Returns an array containing all contracts addresses.\n    *   @return Array of token addresses.\n    */\n    function getContractAddresses() constant returns (address[]) {\n        return store.get(contractsAddresses);\n    }\n\n    /**\n    *   @dev Returns a contracts address by given type.\n    *   @return contractAddress\n    */\n    function getContractAddressByType(bytes32 _type) constant returns (address contractAddress) {\n        return store.get(contractsTypes, _type);\n    }\n\n    /**\n    *  @dev Allow owner to add new contract\n    *\n    *  @param _contract contacts address\n    *  @param _type contracts type\n    *\n    *  @return result code, 1 if success, otherwise error code\n    */\n    function addContract(address _contract, bytes32 _type) onlyAllowed() returns (uint) {\n        if (isExists(_contract)) {\n            return emitError(ERROR_CONTRACT_EXISTS);\n        }\n\n        if (store.get(contractsTypes, _type) == 0x0) {\n            store.add(contractsAddresses, _contract);\n        } else {\n            store.set(contractsAddresses, store.get(contractsTypes, _type), _contract);\n        }\n\n        store.set(contractsTypes, _type, _contract);\n\n        LogAddContract(_contract, _type);\n        return OK;\n    }\n\n    /**\n    *  @dev Allow owner to add new contract\n    *\n    *  @param _contract contacts address\n    *\n    *  @return result code, 1 if success, otherwise error code\n    */\n    function removeContract(address _contract) onlyAllowed() returns (uint) {\n        if (!isExists(_contract)) {\n            return emitError(ERROR_CONTRACT_NOT_EXISTS);\n        }\n\n        store.remove(contractsAddresses, _contract);\n        //store.set(contractsTypes, _type, 0x0); TODO: ahiatsevich: remove type\n\n        return OK;\n    }\n\n    /**\n    *  @dev Tells whether a contract wit a given address exists.\n    *\n    *  @return `true` if a contract has been registers, otherwise `false`\n    */\n    function isExists(address _contract) constant returns (bool) {\n        return store.includes(contractsAddresses, _contract);\n    }\n\n    /**\n    *  @dev Util function which throws error event with a given error\n    */\n    function emitError(uint e) private returns (uint)  {\n        Error(msg.sender, e);\n        return e;\n    }\n\n    /**\n    *  @return true if `caller` is  a contact owner or authorized to make changes in Storage\n    */\n    modifier onlyAllowed() {\n        if (contractOwner == msg.sender ||\n                store.store.manager().hasAccess(msg.sender)) {\n            _;\n        }\n    }\n\n    /**\n    *  Default fallback function.\n    */\n    function() {\n        throw;\n    }\n}\n",
  "sourcePath": "/Users/ahiatsevich/Development/chronobank/SmartContracts/contracts/core/contracts/ContractsManager.sol",
  "compiler": {
    "name": "solc",
    "version": "0.4.18+commit.9cf6e910.Emscripten.clang"
  },
  "schemaVersion": "1.0.1",
  "updatedAt": "2018-01-11T22:47:43.408Z"
}