{
  "contractName": "CrowdsaleManager",
  "abi": [
    {
      "constant": false,
      "inputs": [
        {
          "name": "crowdsale",
          "type": "address"
        }
      ],
      "name": "emitCrowdsaleDeleted",
      "outputs": [],
      "payable": false,
      "stateMutability": "nonpayable",
      "type": "function"
    },
    {
      "constant": false,
      "inputs": [
        {
          "name": "_contractsManager",
          "type": "address"
        }
      ],
      "name": "init",
      "outputs": [
        {
          "name": "",
          "type": "uint256"
        }
      ],
      "payable": false,
      "stateMutability": "nonpayable",
      "type": "function"
    },
    {
      "constant": false,
      "inputs": [],
      "name": "claimContractOwnership",
      "outputs": [
        {
          "name": "",
          "type": "bool"
        }
      ],
      "payable": false,
      "stateMutability": "nonpayable",
      "type": "function"
    },
    {
      "constant": true,
      "inputs": [
        {
          "name": "_identifier",
          "type": "bytes32"
        }
      ],
      "name": "lookupManager",
      "outputs": [
        {
          "name": "manager",
          "type": "address"
        }
      ],
      "payable": false,
      "stateMutability": "view",
      "type": "function"
    },
    {
      "constant": true,
      "inputs": [],
      "name": "contractsManager",
      "outputs": [
        {
          "name": "",
          "type": "address"
        }
      ],
      "payable": false,
      "stateMutability": "view",
      "type": "function"
    },
    {
      "constant": false,
      "inputs": [
        {
          "name": "_to",
          "type": "address"
        }
      ],
      "name": "changeContractOwnership",
      "outputs": [
        {
          "name": "",
          "type": "bool"
        }
      ],
      "payable": false,
      "stateMutability": "nonpayable",
      "type": "function"
    },
    {
      "constant": true,
      "inputs": [],
      "name": "pendingContractOwner",
      "outputs": [
        {
          "name": "",
          "type": "address"
        }
      ],
      "payable": false,
      "stateMutability": "view",
      "type": "function"
    },
    {
      "constant": false,
      "inputs": [
        {
          "name": "_eventsHistory",
          "type": "address"
        }
      ],
      "name": "setEventsHistory",
      "outputs": [],
      "payable": false,
      "stateMutability": "nonpayable",
      "type": "function"
    },
    {
      "constant": false,
      "inputs": [
        {
          "name": "_creator",
          "type": "address"
        },
        {
          "name": "_symbol",
          "type": "bytes32"
        },
        {
          "name": "_factoryName",
          "type": "bytes32"
        }
      ],
      "name": "createCrowdsale",
      "outputs": [
        {
          "name": "",
          "type": "address"
        },
        {
          "name": "",
          "type": "uint256"
        }
      ],
      "payable": false,
      "stateMutability": "nonpayable",
      "type": "function"
    },
    {
      "constant": false,
      "inputs": [
        {
          "name": "_contractsManager",
          "type": "address"
        }
      ],
      "name": "setContractsManager",
      "outputs": [],
      "payable": false,
      "stateMutability": "nonpayable",
      "type": "function"
    },
    {
      "constant": false,
      "inputs": [],
      "name": "destroy",
      "outputs": [],
      "payable": false,
      "stateMutability": "nonpayable",
      "type": "function"
    },
    {
      "constant": false,
      "inputs": [
        {
          "name": "creator",
          "type": "address"
        },
        {
          "name": "symbol",
          "type": "bytes32"
        },
        {
          "name": "crowdsale",
          "type": "address"
        }
      ],
      "name": "emitCrowdsaleCreated",
      "outputs": [],
      "payable": false,
      "stateMutability": "nonpayable",
      "type": "function"
    },
    {
      "constant": false,
      "inputs": [
        {
          "name": "_to",
          "type": "address"
        }
      ],
      "name": "transferContractOwnership",
      "outputs": [
        {
          "name": "",
          "type": "bool"
        }
      ],
      "payable": false,
      "stateMutability": "nonpayable",
      "type": "function"
    },
    {
      "constant": true,
      "inputs": [],
      "name": "contractOwner",
      "outputs": [
        {
          "name": "",
          "type": "address"
        }
      ],
      "payable": false,
      "stateMutability": "view",
      "type": "function"
    },
    {
      "constant": false,
      "inputs": [
        {
          "name": "tokens",
          "type": "address[]"
        },
        {
          "name": "_to",
          "type": "address"
        }
      ],
      "name": "withdrawnTokens",
      "outputs": [
        {
          "name": "",
          "type": "uint256"
        }
      ],
      "payable": false,
      "stateMutability": "nonpayable",
      "type": "function"
    },
    {
      "constant": false,
      "inputs": [
        {
          "name": "errorCode",
          "type": "uint256"
        }
      ],
      "name": "emitError",
      "outputs": [],
      "payable": false,
      "stateMutability": "nonpayable",
      "type": "function"
    },
    {
      "constant": true,
      "inputs": [
        {
          "name": "_factoryName",
          "type": "bytes32"
        }
      ],
      "name": "getCrowdsaleFactory",
      "outputs": [
        {
          "name": "",
          "type": "address"
        }
      ],
      "payable": false,
      "stateMutability": "view",
      "type": "function"
    },
    {
      "constant": false,
      "inputs": [
        {
          "name": "crowdsale",
          "type": "address"
        }
      ],
      "name": "deleteCrowdsale",
      "outputs": [
        {
          "name": "",
          "type": "uint256"
        }
      ],
      "payable": false,
      "stateMutability": "nonpayable",
      "type": "function"
    },
    {
      "constant": true,
      "inputs": [
        {
          "name": "key",
          "type": "address"
        }
      ],
      "name": "isAuthorized",
      "outputs": [
        {
          "name": "",
          "type": "bool"
        }
      ],
      "payable": false,
      "stateMutability": "view",
      "type": "function"
    },
    {
      "constant": true,
      "inputs": [],
      "name": "getEventsHistory",
      "outputs": [
        {
          "name": "",
          "type": "address"
        }
      ],
      "payable": false,
      "stateMutability": "view",
      "type": "function"
    },
    {
      "inputs": [
        {
          "name": "_store",
          "type": "address"
        },
        {
          "name": "_crate",
          "type": "bytes32"
        }
      ],
      "payable": false,
      "stateMutability": "nonpayable",
      "type": "constructor"
    },
    {
      "anonymous": false,
      "inputs": [
        {
          "indexed": true,
          "name": "self",
          "type": "address"
        },
        {
          "indexed": true,
          "name": "creator",
          "type": "address"
        },
        {
          "indexed": false,
          "name": "symbol",
          "type": "bytes32"
        },
        {
          "indexed": false,
          "name": "crowdsale",
          "type": "address"
        }
      ],
      "name": "CrowdsaleCreated",
      "type": "event"
    },
    {
      "anonymous": false,
      "inputs": [
        {
          "indexed": true,
          "name": "self",
          "type": "address"
        },
        {
          "indexed": false,
          "name": "crowdsale",
          "type": "address"
        }
      ],
      "name": "CrowdsaleDeleted",
      "type": "event"
    },
    {
      "anonymous": false,
      "inputs": [
        {
          "indexed": true,
          "name": "self",
          "type": "address"
        },
        {
          "indexed": false,
          "name": "errorCode",
          "type": "uint256"
        }
      ],
      "name": "Error",
      "type": "event"
    }
  ],
  "bytecode": "0x606060405234156200001057600080fd5b60405160408062001aad8339810160405280805191906020018051915082905081818181816200005160008383640100000000620016f5620000ce82021704565b505060028054600160a060020a03338116600160a060020a03199283161790925560058054309093169290911691909117905550620000c69250600691507f636f6d7061696e7300000000000000000000000000000000000000000000000090506401000000006200171b620000f482021704565b505062000255565b8254600160a060020a031916600160a060020a0392909216919091178255600190910155565b6200010e8282640100000000620017296200011282021704565b5050565b6200016982826040519081527f636f756e74000000000000000000000000000000000000000000000000000000602082015260250160405180910390206200021d64010000000002620017ee176401000000009004565b620001c382600101826040519081527f696e646578657300000000000000000000000000000000000000000000000000602082015260270160405180910390206200021d64010000000002620017ee176401000000009004565b6200010e82600201826040519081527f76616c7565730000000000000000000000000000000000000000000000000000602082015260260160405180910390206200021d64010000000002620017ee176401000000009004565b8154620002399082640100000000620018066200023d82021704565b9055565b811515806200024a575080155b156200010e57600080fd5b61184880620002656000396000f3006060604052600436106100f85763ffffffff60e060020a60003504166307a4394881146100fd57806319ab453c1461011e5780634592cd1d1461014f5780634fe590121461017657806353253d31146101a8578063557f4bc9146101bb5780635aa77d3c146101da5780636521afd7146101ed578063690719ff1461020c57806371d3b5731461025357806383197ef01461027257806388df7f0814610285578063a843c51f146102ae578063ce606ee0146102cd578063d8f9659b146102e0578063df26ca081461033a578063e7c360c114610350578063eae224b614610366578063fe9fbb8014610385578063fff10aba146103a4575b600080fd5b341561010857600080fd5b61011c600160a060020a03600435166103b7565b005b341561012957600080fd5b61013d600160a060020a0360043516610408565b60405190815260200160405180910390f35b341561015a57600080fd5b610162610457565b604051901515815260200160405180910390f35b341561018157600080fd5b61018c6004356104a4565b604051600160a060020a03909116815260200160405180910390f35b34156101b357600080fd5b61018c610528565b34156101c657600080fd5b610162600160a060020a0360043516610537565b34156101e557600080fd5b61018c61058e565b34156101f857600080fd5b61011c600160a060020a036004351661059d565b341561021757600080fd5b610231600160a060020a03600435166024356044356105d3565b604051600160a060020a03909216825260208201526040908101905180910390f35b341561025e57600080fd5b61011c600160a060020a0360043516610830565b341561027d57600080fd5b61011c610867565b341561029057600080fd5b61011c600160a060020a0360043581169060243590604435166108fd565b34156102b957600080fd5b610162600160a060020a0360043516610960565b34156102d857600080fd5b61018c6109d9565b34156102eb57600080fd5b61013d600460248135818101908301358060208181020160405190810160405280939291908181526020018383602002808284375094965050509235600160a060020a031692506109e8915050565b341561034557600080fd5b61011c600435610b39565b341561035b57600080fd5b61018c600435610b80565b341561037157600080fd5b61013d600160a060020a0360043516610b91565b341561039057600080fd5b610162600160a060020a0360043516610e3b565b34156103af57600080fd5b61018c610ee1565b6103bf610ef0565b600160a060020a03167f699a26ba1c584c971265ac63a760223314dfca6b4324db7107d1a507feafa32982604051600160a060020a03909116815260200160405180910390a250565b60025460009033600160a060020a03908116911614156104525761044c827f43726f776473616c654d616e6167657200000000000000000000000000000000610ef4565b50600190505b919050565b60035460009033600160a060020a03908116911614610478575060006104a1565b506003805460028054600160a060020a0319908116600160a060020a0384161790915516905560015b90565b600454600090600160a060020a031663bc65792783836040516020015260405160e060020a63ffffffff84160281526004810191909152602401602060405180830381600087803b15156104f757600080fd5b6102c65a03f1151561050857600080fd5b5050506040518051915050600160a060020a038116151561045257600080fd5b600454600160a060020a031681565b60025460009033600160a060020a039081169116141561045257600160a060020a038216151561056957506000610452565b5060038054600160a060020a038316600160a060020a03199091161790556001919050565b600354600160a060020a031681565b60025433600160a060020a03908116911614156105d05760058054600160a060020a031916600160a060020a0383161790555b50565b60008060006106017f4173736574734d616e61676572000000000000000000000000000000000000006104a4565b600160a060020a0316636bc8acf53360006040516020015260405160e060020a63ffffffff8416028152600160a060020a039091166004820152602401602060405180830381600087803b151561065757600080fd5b6102c65a03f1151561066857600080fd5b50505060405180519050151561067d57610827565b6106856110e5565b600160a060020a03166325742b46868860006040516020015260405160e060020a63ffffffff85160281526004810192909252600160a060020a03166024820152604401602060405180830381600087803b15156106e257600080fd5b6102c65a03f115156106f357600080fd5b50505060405180519050151561071a576000610710610bba611115565b9093509150610827565b61072384610b80565b600160a060020a031663f40444d78660006040516020015260405160e060020a63ffffffff84160281526004810191909152602401602060405180830381600087803b151561077157600080fd5b6102c65a03f1151561078257600080fd5b5050506040518051915050600160a060020a038116634592cd1d6000604051602001526040518163ffffffff1660e060020a028152600401602060405180830381600087803b15156107d357600080fd5b6102c65a03f115156107e457600080fd5b505050604051805190501515610801576000610710610bb8611115565b610814600060068363ffffffff61117e16565b61081f868683611197565b806001925092505b50935093915050565b60025433600160a060020a03908116911614156105d05760048054600160a060020a038316600160a060020a031990911617905550565b60025433600160a060020a03908116911614156108fb57600454600160a060020a031663c375c2ef3060006040516020015260405160e060020a63ffffffff8416028152600160a060020a039091166004820152602401602060405180830381600087803b15156108d757600080fd5b6102c65a03f115156108e857600080fd5b50505060405180519050506108fb611217565b565b82600160a060020a031661090f610ef0565b600160a060020a03167f7426fc132caba2be6bfdce63e05224374c024756fbd57f886c45ffd4a54020d38484604051918252600160a060020a031660208201526040908101905180910390a3505050565b60025460009033600160a060020a039081169116141561045257600160a060020a038216151561099257506000610452565b600354600160a060020a0316156109b45760038054600160a060020a03191690555b5060028054600160a060020a038316600160a060020a03199091161790556001919050565b600254600160a060020a031681565b60025460009081908190819033600160a060020a0390811691161415610b3057600092505b8551831015610b2b57858381518110610a2257fe5b90602001906020020151915081600160a060020a03166370a082313060006040516020015260405160e060020a63ffffffff8416028152600160a060020a039091166004820152602401602060405180830381600087803b1515610a8557600080fd5b6102c65a03f11515610a9657600080fd5b50505060405180519150508015610b205781600160a060020a031663a9059cbb868360006040516020015260405160e060020a63ffffffff8516028152600160a060020a0390921660048301526024820152604401602060405180830381600087803b1515610b0457600080fd5b6102c65a03f11515610b1557600080fd5b505050604051805150505b600190920191610a0d565b600193505b50505092915050565b610b41610ef0565b600160a060020a03167f9cf38cf2dbf9139f5c32639950507b10775fbbe0421f3e168bc2d1bb1ae3208c8260405190815260200160405180910390a250565b6000610b8b826104a4565b92915050565b6000610bbc7f4173736574734d616e61676572000000000000000000000000000000000000006104a4565b600160a060020a0316636bc8acf53360006040516020015260405160e060020a63ffffffff8416028152600160a060020a039091166004820152602401602060405180830381600087803b1515610c1257600080fd5b6102c65a03f11515610c2357600080fd5b505050604051805190501515610c3857610452565b610c406110e5565b600160a060020a03166325742b4683600160a060020a031663150704016000604051602001526040518163ffffffff1660e060020a028152600401602060405180830381600087803b1515610c9457600080fd5b6102c65a03f11515610ca557600080fd5b505050604051805190508460006040516020015260405160e060020a63ffffffff85160281526004810192909252600160a060020a03166024820152604401602060405180830381600087803b1515610cfd57600080fd5b6102c65a03f11515610d0e57600080fd5b505050604051805190501515610d3057610d29610bba611115565b9050610452565b610d43600060068463ffffffff61123a16565b1515610d5457610d29610bbb611115565b81600160a060020a031663ecb70fb76000604051602001526040518163ffffffff1660e060020a028152600401602060405180830381600087803b1515610d9a57600080fd5b6102c65a03f11515610dab57600080fd5b505050604051805190501515610dc657610d29610bb8611115565b610dd9600060068463ffffffff61125816565b81600160a060020a03166383197ef06040518163ffffffff1660e060020a028152600401600060405180830381600087803b1515610e1657600080fd5b6102c65a03f11515610e2757600080fd5b505050610e338261126c565b506001919050565b600080610e677f557365724d616e616765720000000000000000000000000000000000000000006104a4565b905080600160a060020a0316632aa09e5a8460006040516020015260405160e060020a63ffffffff8416028152600160a060020a039091166004820152602401602060405180830381600087803b1515610ec057600080fd5b6102c65a03f11515610ed157600080fd5b5050506040518051949350505050565b600554600160a060020a031690565b3390565b60025460009081908190819033600160a060020a03908116911614610f1857600080fd5b600160a060020a0386161515610f2d57600080fd5b600454600160a060020a0316158015935080610f575750600454600160a060020a03878116911614155b15610f785760048054600160a060020a031916600160a060020a0388161790555b600454600160a060020a031691508163bc65792760006040516020015260405160e060020a63ffffffff83160281527f4d756c74694576656e7473486973746f727900000000000000000000000000006004820152602401602060405180830381600087803b1515610fe957600080fd5b6102c65a03f11515610ffa57600080fd5b5050506040518051915050600160a060020a0381161580159061102b5750600554600160a060020a03828116911614155b1561104c5760058054600160a060020a031916600160a060020a0383161790555b84156110d35781600160a060020a031663b7c46cd5308760006040516020015260405160e060020a63ffffffff8516028152600160a060020a0390921660048301526024820152604401602060405180830381600087803b15156110af57600080fd5b6102c65a03f115156110c057600080fd5b505050604051805160011490506110d357fe5b8215610b2b5760069695505050505050565b60006111107f4173736574734d616e61676572000000000000000000000000000000000000006104a4565b905090565b600061111f610ee1565b600160a060020a031663df26ca088360405160e060020a63ffffffff84160281526004810191909152602401600060405180830381600087803b151561116457600080fd5b6102c65a03f1151561117557600080fd5b50929392505050565b6111928383600160a060020a0384166112d8565b505050565b61119f610ee1565b600160a060020a03166388df7f0884848460405160e060020a63ffffffff8616028152600160a060020a03938416600482015260248101929092529091166044820152606401600060405180830381600087803b15156111fe57600080fd5b6102c65a03f1151561120f57600080fd5b505050505050565b60025433600160a060020a03908116911614156108fb5733600160a060020a0316ff5b60006112508484600160a060020a038516611304565b949350505050565b6111928383600160a060020a038416611332565b611274610ee1565b600160a060020a03166307a439488260405160e060020a63ffffffff8416028152600160a060020a039091166004820152602401600060405180830381600087803b15156112c157600080fd5b6102c65a03f115156112d257600080fd5b50505050565b61119283837f73657400000000000000000000000000000000000000000000000000000000008461135e565b600061125084847f7365740000000000000000000000000000000000000000000000000000000000856113b9565b61119283837f7365740000000000000000000000000000000000000000000000000000000000846113d5565b600061136c858585856113b9565b15611376576113b2565b611381858585611483565b60010190506113968560028601858486611490565b6113a68560018601858585611490565b6113b2858585846114b4565b5050505050565b60006113ca8585600101858561153d565b151595945050505050565b60008060006113e6878787876113b9565b15156113f15761147a565b6113fc878787611483565b925061140d8760028801878661153d565b915061141e8787600101878761153d565b905082811015611448576114388760018801878585611490565b6114488760028801878486611490565b611459876001880187876000611490565b61146a876002880187866000611490565b61147a87878760001987016114b4565b50505050505050565b600061125084848461156b565b6113b285858585604051918252602082015260409081019051809103902084611605565b835460018501548454600160a060020a03909216916353e7168b91908560405191825260208201526040908101905180910390208460405160e060020a63ffffffff8616028152600481019390935260248301919091526044820152606401600060405180830381600087803b151561152c57600080fd5b6102c65a03f1151561147a57600080fd5b600061156285858585604051918252602082015260409081019051809103902061167d565b95945050505050565b825460018401548354600092600160a060020a0316916353aa3f5e9185604051918252602082015260409081019051809103902060006040516020015260405160e060020a63ffffffff851602815260048101929092526024820152604401602060405180830381600087803b15156115e357600080fd5b6102c65a03f115156115f457600080fd5b505050604051805195945050505050565b835460018501548454600160a060020a039092169163a14ff85791908560405191825260208201526040908101905180910390208460405160e060020a63ffffffff8616028152600481019390935260248301919091526044820152606401600060405180830381600087803b151561152c57600080fd5b825460018401548354600092600160a060020a0316916337d9d7fc9185604051918252602082015260409081019051809103902060006040516020015260405160e060020a63ffffffff851602815260048101929092526024820152604401602060405180830381600087803b15156115e357600080fd5b8254600160a060020a031916600160a060020a0392909216919091178255600190910155565b6117258282611729565b5050565b61176a82826040519081527f636f756e74000000000000000000000000000000000000000000000000000000602082015260250160405180910390206117ee565b6117ae82600101826040519081527f696e646578657300000000000000000000000000000000000000000000000000602082015260270160405180910390206117ee565b61172582600201826040519081527f76616c7565730000000000000000000000000000000000000000000000000000602082015260260160405180910390205b81546117fa9082611806565b9055565b81546117fa90825b81151580611812575080155b1561172557600080fd00a165627a7a7230582080ad7494104460d8230b90e22c29714b84e5539dee6756de5c7da99d388941260029",
  "source": "pragma solidity ^0.4.11;\n\nimport \"../core/common/BaseManager.sol\";\nimport \"../assets/AssetsManagerInterface.sol\";\nimport \"./base/BaseCrowdsale.sol\";\nimport \"./CrowdsaleFactory.sol\";\nimport \"./CrowdsaleManagerEmitter.sol\";\n\n/**\n *  @title CrowdsaleManager\n *\n *  Is not designed for direct crowdsale management via external calls\n *  from web application.\n *\n *  Only AssetsManager is authorised to execute CrowdsaleManager's methods.\n */\ncontract CrowdsaleManager is CrowdsaleManagerEmitter, BaseManager {\n    uint constant ERROR_CROWDFUNDING_INVALID_INVOCATION = 3000;\n    uint constant ERROR_CROWDFUNDING_ADD_CONTRACT = 3001;\n    uint constant ERROR_CROWDFUNDING_NOT_ASSET_OWNER = 3002;\n    uint constant ERROR_CROWDFUNDING_DOES_NOT_EXIST = 3003;\n\n    StorageInterface.AddressesSet compains;\n\n    modifier onlyAssetAuthorizedContract() {\n        if (!TokenExtensionRegistry(lookupManager(\"AssetsManager\")).containsTokenExtension(msg.sender)) return;\n        _;\n    }\n\n    /**\n    *  Constructor\n    */\n    function CrowdsaleManager(Storage _store, bytes32 _crate) BaseManager(_store, _crate) {\n        compains.init('compains');\n    }\n\n    /**\n    *  Initialize\n    */\n    function init(address _contractsManager) onlyContractOwner returns (uint) {\n        BaseManager.init(_contractsManager, \"CrowdsaleManager\");\n\n        return OK;\n    }\n\n    /**\n    *  Creates Crowdsale with a type produced by CrowdsaleFactory with given _factoryName.\n    */\n    function createCrowdsale(address _creator, bytes32 _symbol, bytes32 _factoryName)\n    onlyAssetAuthorizedContract\n    returns (address, uint) {\n        if (!lookupAssetsManager().isAssetOwner(_symbol, _creator)) {\n            return (0x0, _emitError(ERROR_CROWDFUNDING_NOT_ASSET_OWNER));\n        }\n\n        address crowdsale = getCrowdsaleFactory(_factoryName).createCrowdsale(_symbol);\n\n        if (!BaseCrowdsale(crowdsale).claimContractOwnership()) {\n            return (0x0, _emitError(ERROR_CROWDFUNDING_INVALID_INVOCATION));\n        }\n\n        store.add(compains, crowdsale);\n        _emitCrowdsaleCreated(_creator, _symbol, crowdsale);\n\n        return (crowdsale, OK);\n    }\n\n    /**\n    *  Deletes Crowdsale if It is allowed.\n    */\n    function deleteCrowdsale(address crowdsale) onlyAssetAuthorizedContract returns (uint) {\n        if (!lookupAssetsManager().isAssetOwner(BaseCrowdsale(crowdsale).getSymbol(), crowdsale)) {\n            return _emitError(ERROR_CROWDFUNDING_NOT_ASSET_OWNER);\n        }\n\n        if (!store.includes(compains, crowdsale)) {\n            return _emitError(ERROR_CROWDFUNDING_DOES_NOT_EXIST);\n        }\n\n        if (!BaseCrowdsale(crowdsale).hasEnded()) {\n            return _emitError(ERROR_CROWDFUNDING_INVALID_INVOCATION);\n        }\n\n        store.remove(compains, crowdsale);\n\n        BaseCrowdsale(crowdsale).destroy(); // TODO: @ahiatsevich refund to CrowdsaleManager??\n\n        _emitCrowdsaleDeleted(crowdsale);\n        return OK;\n    }\n\n    /**\n    *  Returns CrowdsaleFactory by given _factoryName.\n    */\n    function getCrowdsaleFactory(bytes32 _factoryName) constant returns (CrowdsaleFactory) {\n        return CrowdsaleFactory(lookupManager(_factoryName));\n    }\n\n    /**\n    *  Returns AssetsManager.\n    */\n    function lookupAssetsManager() internal constant returns (AssetsManagerInterface) {\n        return AssetsManagerInterface(lookupManager(\"AssetsManager\"));\n    }\n\n    function _emitCrowdsaleCreated(address creator, bytes32 symbol, address crowdsale) internal {\n        CrowdsaleManager(getEventsHistory()).emitCrowdsaleCreated(creator, symbol, crowdsale);\n    }\n\n    function _emitCrowdsaleDeleted(address crowdsale) internal {\n        CrowdsaleManager(getEventsHistory()).emitCrowdsaleDeleted(crowdsale);\n    }\n\n    function _emitError(uint error) internal returns (uint) {\n        CrowdsaleManager(getEventsHistory()).emitError(error);\n        return error;\n    }\n}\n",
  "sourcePath": "/Users/mikefluff/Documents/Programming/Chronobank/test/SmartContracts/contracts/crowdsale/CrowdsaleManager.sol",
  "compiler": {
    "name": "solc",
    "version": "0.4.18+commit.9cf6e910.Emscripten.clang"
  },
  "schemaVersion": "1.0.1",
  "updatedAt": "2018-01-12T11:40:45.042Z"
}