{
  "contractName": "CryptocomparePriceTicker",
  "abi": [
    {
      "constant": false,
      "inputs": [
        {
          "name": "_fsym",
          "type": "bytes32"
        },
        {
          "name": "_tsym",
          "type": "bytes32"
        }
      ],
      "name": "requestPrice",
      "outputs": [
        {
          "name": "",
          "type": "bytes32"
        },
        {
          "name": "",
          "type": "uint256"
        }
      ],
      "payable": true,
      "stateMutability": "payable",
      "type": "function"
    },
    {
      "constant": false,
      "inputs": [
        {
          "name": "_queryId",
          "type": "bytes32"
        },
        {
          "name": "_result",
          "type": "string"
        }
      ],
      "name": "__callback",
      "outputs": [],
      "payable": false,
      "stateMutability": "nonpayable",
      "type": "function"
    },
    {
      "constant": false,
      "inputs": [],
      "name": "claimContractOwnership",
      "outputs": [
        {
          "name": "",
          "type": "bool"
        }
      ],
      "payable": false,
      "stateMutability": "nonpayable",
      "type": "function"
    },
    {
      "constant": false,
      "inputs": [
        {
          "name": "_to",
          "type": "address"
        }
      ],
      "name": "changeContractOwnership",
      "outputs": [
        {
          "name": "",
          "type": "bool"
        }
      ],
      "payable": false,
      "stateMutability": "nonpayable",
      "type": "function"
    },
    {
      "constant": true,
      "inputs": [],
      "name": "pendingContractOwner",
      "outputs": [
        {
          "name": "",
          "type": "address"
        }
      ],
      "payable": false,
      "stateMutability": "view",
      "type": "function"
    },
    {
      "constant": true,
      "inputs": [
        {
          "name": "_fsym",
          "type": "bytes32"
        },
        {
          "name": "_tsym",
          "type": "bytes32"
        }
      ],
      "name": "price",
      "outputs": [
        {
          "name": "",
          "type": "uint256"
        },
        {
          "name": "",
          "type": "uint256"
        }
      ],
      "payable": false,
      "stateMutability": "view",
      "type": "function"
    },
    {
      "constant": false,
      "inputs": [],
      "name": "destroy",
      "outputs": [],
      "payable": false,
      "stateMutability": "nonpayable",
      "type": "function"
    },
    {
      "constant": false,
      "inputs": [
        {
          "name": "_to",
          "type": "address"
        }
      ],
      "name": "transferContractOwnership",
      "outputs": [
        {
          "name": "",
          "type": "bool"
        }
      ],
      "payable": false,
      "stateMutability": "nonpayable",
      "type": "function"
    },
    {
      "constant": true,
      "inputs": [],
      "name": "contractOwner",
      "outputs": [
        {
          "name": "",
          "type": "address"
        }
      ],
      "payable": false,
      "stateMutability": "view",
      "type": "function"
    },
    {
      "constant": false,
      "inputs": [
        {
          "name": "tokens",
          "type": "address[]"
        },
        {
          "name": "_to",
          "type": "address"
        }
      ],
      "name": "withdrawnTokens",
      "outputs": [
        {
          "name": "",
          "type": "uint256"
        }
      ],
      "payable": false,
      "stateMutability": "nonpayable",
      "type": "function"
    },
    {
      "constant": true,
      "inputs": [
        {
          "name": "_fsym",
          "type": "bytes32"
        },
        {
          "name": "_tsym",
          "type": "bytes32"
        }
      ],
      "name": "isPriceAvailable",
      "outputs": [
        {
          "name": "",
          "type": "bool"
        }
      ],
      "payable": false,
      "stateMutability": "view",
      "type": "function"
    }
  ],
  "bytecode": "0x606060405260008054600160a060020a033316600160a060020a031990911617905561080f806100306000396000f3006060604052600436106100955763ffffffff60e060020a60003504166306915ba3811461009a57806327dc297e146100c05780634592cd1d14610118578063557f4bc91461013f5780635aa77d3c1461015e5780637d5ecbab1461018d57806383197ef0146101a6578063a843c51f146101b9578063ce606ee0146101d8578063d8f9659b146101eb578063e5a59e0714610257575b600080fd5b6100a8600435602435610270565b60405191825260208201526040908101905180910390f35b34156100cb57600080fd5b610116600480359060446024803590810190830135806020601f8201819004810201604051908101604052818152929190602084018383808284375094965061009595505050505050565b005b341561012357600080fd5b61012b6102ed565b604051901515815260200160405180910390f35b341561014a57600080fd5b61012b600160a060020a0360043516610345565b341561016957600080fd5b6101716103a4565b604051600160a060020a03909116815260200160405180910390f35b341561019857600080fd5b6100a86004356024356103b3565b34156101b157600080fd5b610116610435565b34156101c457600080fd5b61012b600160a060020a036004351661045a565b34156101e357600080fd5b6101716104eb565b34156101f657600080fd5b610245600460248135818101908301358060208181020160405190810160405280939291908181526020018383602002808284375094965050509235600160a060020a031692506104fa915050565b60405190815260200160405180910390f35b341561026257600080fd5b61012b600435602435610649565b60008060008061028086866106c6565b1561028757fe5b8585141561029c5760009350600492506102e4565b6102a68686610649565b156102b85760009350600492506102e4565b6102c3868633610798565b9092509050600181146102dc57600093509150816102e4565b816001935093505b50509250929050565b60015460009033600160a060020a0390811691161461030e57506000610342565b50600180546000805473ffffffffffffffffffffffffffffffffffffffff19908116600160a060020a038416179091551681555b90565b6000805433600160a060020a039081169116141561039f57600160a060020a03821615156103755750600061039f565b506001805473ffffffffffffffffffffffffffffffffffffffff1916600160a060020a0383161781555b919050565b600154600160a060020a031681565b6000806103be6107cc565b6103c885856106c6565b156103da57600192506000915061042d565b600260008686604051918252602082015260409081019051908190039020815260208101919091526040908101600020908051908101604052815481526001909101546020820152905080516012925092505b509250929050565b60005433600160a060020a03908116911614156104585733600160a060020a0316ff5b565b6000805433600160a060020a039081169116141561039f57600160a060020a038216151561048a5750600061039f565b600154600160a060020a0316156104b9576001805473ffffffffffffffffffffffffffffffffffffffff191690555b5060008054600160a060020a03831673ffffffffffffffffffffffffffffffffffffffff199091161790556001919050565b600054600160a060020a031681565b6000805481908190819033600160a060020a039081169116141561064057600092505b855183101561063b5785838151811061053257fe5b90602001906020020151915081600160a060020a03166370a082313060006040516020015260405160e060020a63ffffffff8416028152600160a060020a039091166004820152602401602060405180830381600087803b151561059557600080fd5b6102c65a03f115156105a657600080fd5b505050604051805191505080156106305781600160a060020a031663a9059cbb868360006040516020015260405160e060020a63ffffffff8516028152600160a060020a0390921660048301526024820152604401602060405180830381600087803b151561061457600080fd5b6102c65a03f1151561062557600080fd5b505050604051805150505b60019092019161051d565b600193505b50505092915050565b60006106536107cc565b61065d84846106c6565b1561066b57600191506106bf565b60026000858560405191825260208201526040908101905190819003902081526020810191909152604090810160002090805190810160405281548152600190910154602082019081529091504290511091505b5092915050565b6000828214156106d857506001610792565b7f45746865720000000000000000000000000000000000000000000000000000008314801561072657507f455448000000000000000000000000000000000000000000000000000000000082145b1561073357506001610792565b7f45544800000000000000000000000000000000000000000000000000000000008314801561078157507f457468657200000000000000000000000000000000000000000000000000000082145b1561078e57506001610792565b5060005b92915050565b6000806107a585856106c6565b156107ac57fe5b600160a060020a03831615156107be57fe5b506000946004945092505050565b6040805190810160405260008082526020820152905600a165627a7a723058206219e9f157a3b63baabbb8af38787ad0e0ab478c507672d88b3d307ecfe9b8c50029",
  "source": "pragma solidity ^0.4.11;\n\nimport \"../../core/common/Object.sol\";\nimport \"../base/PriceTicker.sol\";\n\n/**\n*  @title CryptoCompare Price Ticker\n*/\ncontract CryptocomparePriceTicker is PriceTicker, Object {\n    uint constant EXCHANGE_RATE_DECIMALS = 18;\n    uint constant TTL = 60000;\n\n    struct ExchangePrice {\n        uint rate;\n        uint expiry;\n    }\n\n    struct Query {\n        address sender;\n        bytes32 hash;\n    }\n\n    /* bytes32(from, to) -> price * 10**EXCHANGE_RATE_DECIMALS */\n    mapping (bytes32 => ExchangePrice) exchangePrices;\n    /* query id -> original sender */\n    mapping (bytes32 => Query) queries;\n\n    /**\n    *  Only Oraclize access rights checks\n    */\n    modifier onlyOraclize() {\n        _;\n    }\n\n    /**\n    *  Implement PriceTicker interface.\n    */\n    function isPriceAvailable(bytes32 _fsym, bytes32 _tsym) constant returns (bool) {\n        if (isEquivalentSymbol(_fsym, _tsym)) return true;\n\n        ExchangePrice memory exchangePrice = exchangePrices[sha3(_fsym, _tsym)];\n        return exchangePrice.expiry < now;\n    }\n\n    /**\n    *  Implement PriceTicker interface.\n    */\n    function price(bytes32 _fsym, bytes32 _tsym) constant returns (uint, uint) {\n        if (isEquivalentSymbol(_fsym, _tsym)) return (1, 0);\n\n        ExchangePrice memory exchangePrice = exchangePrices[sha3(_fsym, _tsym)];\n        return (exchangePrice.rate, EXCHANGE_RATE_DECIMALS);\n    }\n\n    /**\n    *  Implement PriceTicker interface.\n    */\n    function requestPrice(bytes32 _fsym, bytes32 _tsym) payable returns (bytes32, uint) {\n        assert(!isEquivalentSymbol(_fsym, _tsym));\n\n        if (_fsym == _tsym) {\n            return (0x0, PRICE_TICKER_INVALID_INVOCATION);\n        }\n\n        if (isPriceAvailable(_fsym, _tsym)) {\n            return (0x0, PRICE_TICKER_INVALID_INVOCATION);\n        }\n\n        var (queryId, resultCode) = updatePrice(_fsym, _tsym, msg.sender);\n        if (resultCode != OK) {\n            return (0x0, resultCode);\n        }\n\n        return (queryId, OK);\n    }\n\n    /**\n    *  Oraclize query callback.\n    */\n    function __callback(bytes32 _queryId, string _result) onlyOraclize {\n        revert();\n    }\n\n    /**\n    *\n    */\n    function updatePrice(bytes32 _fsym, bytes32 _tsym, address _sender) internal returns (bytes32, uint) {\n        assert(!isEquivalentSymbol(_fsym, _tsym));\n        assert(_sender != 0x0);\n\n        return (0x0, PRICE_TICKER_INVALID_INVOCATION);\n    }\n\n    function isEquivalentSymbol(bytes32 _fsym, bytes32 _tsym) internal constant returns (bool) {\n        if (_fsym == _tsym) return true;\n        if (_fsym == \"Ether\" && _tsym == \"ETH\") return true;\n        if (_fsym == \"ETH\" && _tsym == \"Ether\") return true;\n\n        return false;\n    }\n}\n",
  "sourcePath": "/Users/ahiatsevich/Development/chronobank/SmartContracts/contracts/crowdsale/pricetickers/CryptocomparePriceTicker.sol",
  "compiler": {
    "name": "solc",
    "version": "0.4.18+commit.9cf6e910.Emscripten.clang"
  },
  "schemaVersion": "1.0.1",
  "updatedAt": "2017-11-15T09:25:14.928Z"
}