{
  "contractName": "ERC20ManagerEmitter",
  "abi": [
    {
      "constant": false,
      "inputs": [
        {
          "name": "error",
          "type": "uint256"
        }
      ],
      "name": "emitError",
      "outputs": [],
      "payable": false,
      "stateMutability": "nonpayable",
      "type": "function"
    },
    {
      "anonymous": false,
      "inputs": [
        {
          "indexed": true,
          "name": "self",
          "type": "address"
        },
        {
          "indexed": false,
          "name": "errorCode",
          "type": "uint256"
        }
      ],
      "name": "Error",
      "type": "event"
    }
  ],
  "bytecode": "0x6060604052341561000f57600080fd5b60da8061001d6000396000f300606060405260043610603e5763ffffffff7c0100000000000000000000000000000000000000000000000000000000600035041663df26ca0881146043575b600080fd5b3415604d57600080fd5b60566004356058565b005b605e60aa565b73ffffffffffffffffffffffffffffffffffffffff167f9cf38cf2dbf9139f5c32639950507b10775fbbe0421f3e168bc2d1bb1ae3208c8260405190815260200160405180910390a250565b33905600a165627a7a72305820c2f81160eaf2be52c5811747c8b8f8357380c795a759cd123392e5bd015d3fa80029",
  "source": "pragma solidity ^0.4.11;\n\nimport '../event/MultiEventsHistoryAdapter.sol';\n\ncontract ERC20ManagerEmitter is MultiEventsHistoryAdapter {\n\n    event Error(address indexed self, uint errorCode);\n\n    function emitError(uint error) {\n        Error(_self(), error);\n    }\n}\n",
  "sourcePath": "/Users/ahiatsevich/Development/chronobank/SmartContracts/contracts/core/erc20/ERC20ManagerEmitter.sol",
  "compiler": {
    "name": "solc",
    "version": "0.4.18+commit.9cf6e910.Emscripten.clang"
  },
  "schemaVersion": "1.0.1",
  "updatedAt": "2018-01-11T22:35:11.412Z"
}