{
  "contractName": "ERC20Manager",
  "abi": [
    {
      "constant": false,
      "inputs": [
        {
          "name": "_contractsManager",
          "type": "address"
        }
      ],
      "name": "init",
      "outputs": [
        {
          "name": "",
          "type": "uint256"
        }
      ],
      "payable": false,
      "stateMutability": "nonpayable",
      "type": "function"
    },
    {
      "constant": false,
      "inputs": [
        {
          "name": "_token",
          "type": "address"
        },
        {
          "name": "_name",
          "type": "bytes32"
        },
        {
          "name": "_symbol",
          "type": "bytes32"
        },
        {
          "name": "_url",
          "type": "bytes32"
        },
        {
          "name": "_decimals",
          "type": "uint8"
        },
        {
          "name": "_ipfsHash",
          "type": "bytes32"
        },
        {
          "name": "_swarmHash",
          "type": "bytes32"
        }
      ],
      "name": "addToken",
      "outputs": [
        {
          "name": "",
          "type": "uint256"
        }
      ],
      "payable": false,
      "stateMutability": "nonpayable",
      "type": "function"
    },
    {
      "constant": true,
      "inputs": [
        {
          "name": "_symbol",
          "type": "bytes32"
        }
      ],
      "name": "getTokenBySymbol",
      "outputs": [
        {
          "name": "tokenAddress",
          "type": "address"
        },
        {
          "name": "name",
          "type": "bytes32"
        },
        {
          "name": "symbol",
          "type": "bytes32"
        },
        {
          "name": "url",
          "type": "bytes32"
        },
        {
          "name": "decimals",
          "type": "uint8"
        },
        {
          "name": "ipfsHash",
          "type": "bytes32"
        },
        {
          "name": "swarmHash",
          "type": "bytes32"
        }
      ],
      "payable": false,
      "stateMutability": "view",
      "type": "function"
    },
    {
      "constant": true,
      "inputs": [
        {
          "name": "_addresses",
          "type": "address[]"
        }
      ],
      "name": "getTokens",
      "outputs": [
        {
          "name": "_tokensAddresses",
          "type": "address[]"
        },
        {
          "name": "_names",
          "type": "bytes32[]"
        },
        {
          "name": "_symbols",
          "type": "bytes32[]"
        },
        {
          "name": "_urls",
          "type": "bytes32[]"
        },
        {
          "name": "_decimalsArr",
          "type": "uint8[]"
        },
        {
          "name": "_ipfsHashes",
          "type": "bytes32[]"
        },
        {
          "name": "_swarmHashes",
          "type": "bytes32[]"
        }
      ],
      "payable": false,
      "stateMutability": "view",
      "type": "function"
    },
    {
      "constant": false,
      "inputs": [],
      "name": "claimContractOwnership",
      "outputs": [
        {
          "name": "",
          "type": "bool"
        }
      ],
      "payable": false,
      "stateMutability": "nonpayable",
      "type": "function"
    },
    {
      "constant": true,
      "inputs": [
        {
          "name": "_identifier",
          "type": "bytes32"
        }
      ],
      "name": "lookupManager",
      "outputs": [
        {
          "name": "manager",
          "type": "address"
        }
      ],
      "payable": false,
      "stateMutability": "view",
      "type": "function"
    },
    {
      "constant": true,
      "inputs": [],
      "name": "contractsManager",
      "outputs": [
        {
          "name": "",
          "type": "address"
        }
      ],
      "payable": false,
      "stateMutability": "view",
      "type": "function"
    },
    {
      "constant": false,
      "inputs": [
        {
          "name": "_to",
          "type": "address"
        }
      ],
      "name": "changeContractOwnership",
      "outputs": [
        {
          "name": "",
          "type": "bool"
        }
      ],
      "payable": false,
      "stateMutability": "nonpayable",
      "type": "function"
    },
    {
      "constant": true,
      "inputs": [],
      "name": "pendingContractOwner",
      "outputs": [
        {
          "name": "",
          "type": "address"
        }
      ],
      "payable": false,
      "stateMutability": "view",
      "type": "function"
    },
    {
      "constant": false,
      "inputs": [
        {
          "name": "_token",
          "type": "address"
        }
      ],
      "name": "removeToken",
      "outputs": [
        {
          "name": "",
          "type": "uint256"
        }
      ],
      "payable": false,
      "stateMutability": "nonpayable",
      "type": "function"
    },
    {
      "constant": false,
      "inputs": [
        {
          "name": "_eventsHistory",
          "type": "address"
        }
      ],
      "name": "setEventsHistory",
      "outputs": [],
      "payable": false,
      "stateMutability": "nonpayable",
      "type": "function"
    },
    {
      "constant": false,
      "inputs": [
        {
          "name": "_contractsManager",
          "type": "address"
        }
      ],
      "name": "setContractsManager",
      "outputs": [],
      "payable": false,
      "stateMutability": "nonpayable",
      "type": "function"
    },
    {
      "constant": true,
      "inputs": [
        {
          "name": "_token",
          "type": "address"
        }
      ],
      "name": "getTokenMetaData",
      "outputs": [
        {
          "name": "_tokenAddress",
          "type": "address"
        },
        {
          "name": "_name",
          "type": "bytes32"
        },
        {
          "name": "_symbol",
          "type": "bytes32"
        },
        {
          "name": "_url",
          "type": "bytes32"
        },
        {
          "name": "_decimals",
          "type": "uint8"
        },
        {
          "name": "_ipfsHash",
          "type": "bytes32"
        },
        {
          "name": "_swarmHash",
          "type": "bytes32"
        }
      ],
      "payable": false,
      "stateMutability": "view",
      "type": "function"
    },
    {
      "constant": false,
      "inputs": [],
      "name": "destroy",
      "outputs": [],
      "payable": false,
      "stateMutability": "nonpayable",
      "type": "function"
    },
    {
      "constant": true,
      "inputs": [
        {
          "name": "_id",
          "type": "uint256"
        }
      ],
      "name": "getAddressById",
      "outputs": [
        {
          "name": "",
          "type": "address"
        }
      ],
      "payable": false,
      "stateMutability": "view",
      "type": "function"
    },
    {
      "constant": true,
      "inputs": [
        {
          "name": "_token",
          "type": "address"
        }
      ],
      "name": "isTokenExists",
      "outputs": [
        {
          "name": "",
          "type": "bool"
        }
      ],
      "payable": false,
      "stateMutability": "view",
      "type": "function"
    },
    {
      "constant": true,
      "inputs": [],
      "name": "tokensCount",
      "outputs": [
        {
          "name": "",
          "type": "uint256"
        }
      ],
      "payable": false,
      "stateMutability": "view",
      "type": "function"
    },
    {
      "constant": false,
      "inputs": [
        {
          "name": "_to",
          "type": "address"
        }
      ],
      "name": "transferContractOwnership",
      "outputs": [
        {
          "name": "",
          "type": "bool"
        }
      ],
      "payable": false,
      "stateMutability": "nonpayable",
      "type": "function"
    },
    {
      "constant": false,
      "inputs": [
        {
          "name": "_token",
          "type": "address"
        },
        {
          "name": "_newToken",
          "type": "address"
        },
        {
          "name": "_name",
          "type": "bytes32"
        },
        {
          "name": "_symbol",
          "type": "bytes32"
        },
        {
          "name": "_url",
          "type": "bytes32"
        },
        {
          "name": "_decimals",
          "type": "uint8"
        },
        {
          "name": "_ipfsHash",
          "type": "bytes32"
        },
        {
          "name": "_swarmHash",
          "type": "bytes32"
        }
      ],
      "name": "setToken",
      "outputs": [
        {
          "name": "",
          "type": "uint256"
        }
      ],
      "payable": false,
      "stateMutability": "nonpayable",
      "type": "function"
    },
    {
      "constant": true,
      "inputs": [
        {
          "name": "_token",
          "type": "address"
        }
      ],
      "name": "isTokenValid",
      "outputs": [
        {
          "name": "",
          "type": "bool"
        }
      ],
      "payable": false,
      "stateMutability": "view",
      "type": "function"
    },
    {
      "constant": true,
      "inputs": [],
      "name": "contractOwner",
      "outputs": [
        {
          "name": "",
          "type": "address"
        }
      ],
      "payable": false,
      "stateMutability": "view",
      "type": "function"
    },
    {
      "constant": false,
      "inputs": [
        {
          "name": "tokens",
          "type": "address[]"
        },
        {
          "name": "_to",
          "type": "address"
        }
      ],
      "name": "withdrawnTokens",
      "outputs": [
        {
          "name": "",
          "type": "uint256"
        }
      ],
      "payable": false,
      "stateMutability": "nonpayable",
      "type": "function"
    },
    {
      "constant": false,
      "inputs": [
        {
          "name": "_symbol",
          "type": "bytes32"
        }
      ],
      "name": "removeTokenBySymbol",
      "outputs": [
        {
          "name": "",
          "type": "uint256"
        }
      ],
      "payable": false,
      "stateMutability": "nonpayable",
      "type": "function"
    },
    {
      "constant": false,
      "inputs": [
        {
          "name": "error",
          "type": "uint256"
        }
      ],
      "name": "emitError",
      "outputs": [],
      "payable": false,
      "stateMutability": "nonpayable",
      "type": "function"
    },
    {
      "constant": true,
      "inputs": [],
      "name": "getTokenAddresses",
      "outputs": [
        {
          "name": "",
          "type": "address[]"
        }
      ],
      "payable": false,
      "stateMutability": "view",
      "type": "function"
    },
    {
      "constant": true,
      "inputs": [
        {
          "name": "_symbol",
          "type": "bytes32"
        }
      ],
      "name": "getTokenAddressBySymbol",
      "outputs": [
        {
          "name": "tokenAddress",
          "type": "address"
        }
      ],
      "payable": false,
      "stateMutability": "view",
      "type": "function"
    },
    {
      "constant": false,
      "inputs": [
        {
          "name": "_tokenVerifier",
          "type": "address"
        }
      ],
      "name": "setTokenVerifier",
      "outputs": [],
      "payable": false,
      "stateMutability": "nonpayable",
      "type": "function"
    },
    {
      "constant": true,
      "inputs": [
        {
          "name": "key",
          "type": "address"
        }
      ],
      "name": "isAuthorized",
      "outputs": [
        {
          "name": "",
          "type": "bool"
        }
      ],
      "payable": false,
      "stateMutability": "view",
      "type": "function"
    },
    {
      "constant": true,
      "inputs": [],
      "name": "getEventsHistory",
      "outputs": [
        {
          "name": "",
          "type": "address"
        }
      ],
      "payable": false,
      "stateMutability": "view",
      "type": "function"
    },
    {
      "inputs": [
        {
          "name": "_store",
          "type": "address"
        },
        {
          "name": "_crate",
          "type": "bytes32"
        }
      ],
      "payable": false,
      "stateMutability": "nonpayable",
      "type": "constructor"
    },
    {
      "anonymous": false,
      "inputs": [
        {
          "indexed": false,
          "name": "token",
          "type": "address"
        },
        {
          "indexed": false,
          "name": "name",
          "type": "bytes32"
        },
        {
          "indexed": false,
          "name": "symbol",
          "type": "bytes32"
        },
        {
          "indexed": false,
          "name": "url",
          "type": "bytes32"
        },
        {
          "indexed": false,
          "name": "decimals",
          "type": "uint8"
        },
        {
          "indexed": false,
          "name": "ipfsHash",
          "type": "bytes32"
        },
        {
          "indexed": false,
          "name": "swarmHash",
          "type": "bytes32"
        }
      ],
      "name": "LogAddToken",
      "type": "event"
    },
    {
      "anonymous": false,
      "inputs": [
        {
          "indexed": false,
          "name": "oldToken",
          "type": "address"
        },
        {
          "indexed": false,
          "name": "token",
          "type": "address"
        },
        {
          "indexed": false,
          "name": "name",
          "type": "bytes32"
        },
        {
          "indexed": false,
          "name": "symbol",
          "type": "bytes32"
        },
        {
          "indexed": false,
          "name": "url",
          "type": "bytes32"
        },
        {
          "indexed": false,
          "name": "decimals",
          "type": "uint8"
        },
        {
          "indexed": false,
          "name": "ipfsHash",
          "type": "bytes32"
        },
        {
          "indexed": false,
          "name": "swarmHash",
          "type": "bytes32"
        }
      ],
      "name": "LogTokenChange",
      "type": "event"
    },
    {
      "anonymous": false,
      "inputs": [
        {
          "indexed": false,
          "name": "token",
          "type": "address"
        },
        {
          "indexed": false,
          "name": "name",
          "type": "bytes32"
        },
        {
          "indexed": false,
          "name": "symbol",
          "type": "bytes32"
        },
        {
          "indexed": false,
          "name": "url",
          "type": "bytes32"
        },
        {
          "indexed": false,
          "name": "decimals",
          "type": "uint8"
        },
        {
          "indexed": false,
          "name": "ipfsHash",
          "type": "bytes32"
        },
        {
          "indexed": false,
          "name": "swarmHash",
          "type": "bytes32"
        }
      ],
      "name": "LogRemoveToken",
      "type": "event"
    },
    {
      "anonymous": false,
      "inputs": [
        {
          "indexed": false,
          "name": "token",
          "type": "address"
        },
        {
          "indexed": false,
          "name": "oldName",
          "type": "bytes32"
        },
        {
          "indexed": false,
          "name": "newName",
          "type": "bytes32"
        }
      ],
      "name": "LogTokenNameChange",
      "type": "event"
    },
    {
      "anonymous": false,
      "inputs": [
        {
          "indexed": false,
          "name": "token",
          "type": "address"
        },
        {
          "indexed": false,
          "name": "oldSymbol",
          "type": "bytes32"
        },
        {
          "indexed": false,
          "name": "newSymbol",
          "type": "bytes32"
        }
      ],
      "name": "LogTokenSymbolChange",
      "type": "event"
    },
    {
      "anonymous": false,
      "inputs": [
        {
          "indexed": false,
          "name": "token",
          "type": "address"
        },
        {
          "indexed": false,
          "name": "oldUrl",
          "type": "bytes32"
        },
        {
          "indexed": false,
          "name": "newUrl",
          "type": "bytes32"
        }
      ],
      "name": "LogTokenUrlChange",
      "type": "event"
    },
    {
      "anonymous": false,
      "inputs": [
        {
          "indexed": false,
          "name": "token",
          "type": "address"
        },
        {
          "indexed": false,
          "name": "oldIpfsHash",
          "type": "bytes32"
        },
        {
          "indexed": false,
          "name": "newIpfsHash",
          "type": "bytes32"
        }
      ],
      "name": "LogTokenIpfsHashChange",
      "type": "event"
    },
    {
      "anonymous": false,
      "inputs": [
        {
          "indexed": false,
          "name": "token",
          "type": "address"
        },
        {
          "indexed": false,
          "name": "oldSwarmHash",
          "type": "bytes32"
        },
        {
          "indexed": false,
          "name": "newSwarmHash",
          "type": "bytes32"
        }
      ],
      "name": "LogTokenSwarmHashChange",
      "type": "event"
    },
    {
      "anonymous": false,
      "inputs": [
        {
          "indexed": true,
          "name": "self",
          "type": "address"
        },
        {
          "indexed": false,
          "name": "errorCode",
          "type": "uint256"
        }
      ],
      "name": "Error",
      "type": "event"
    }
  ],
  "bytecode": "0x606060405234156200001057600080fd5b604051604080620028c48339810160405280805191906020018051915082905081818181816200005160008383640100000000620022f0620002a682021704565b505060028054600160a060020a03338116600160a060020a03199283161790925560058054309093169290911691909117905550620000c69250600691507f746f6b656e416464726573736573000000000000000000000000000000000000905064010000000062002316620002cc82021704565b6200010160097f746f6b65427953796d626f6c000000000000000000000000000000000000000064010000000062002324620002ea82021704565b6200013c600a7f6e616d650000000000000000000000000000000000000000000000000000000064010000000062002324620002ea82021704565b62000177600b7f73796d626f6c000000000000000000000000000000000000000000000000000064010000000062002324620002ea82021704565b620001b2600c7f75726c000000000000000000000000000000000000000000000000000000000064010000000062002324620002ea82021704565b620001ed600d7f697066734861736800000000000000000000000000000000000000000000000064010000000062002324620002ea82021704565b62000228600e7f737761726d48617368000000000000000000000000000000000000000000000064010000000062002324620002ea82021704565b62000263600f7f646563696d616c7300000000000000000000000000000000000000000000000064010000000062002324620002ea82021704565b6200029e60107f746f6b656e5665726966696572000000000000000000000000000000000000006401000000006200233e6200030482021704565b505062000447565b8254600160a060020a031916600160a060020a0392909216919091178255600190910155565b620002e682826401000000006200234e6200032482021704565b5050565b620002e682826401000000006200233e6200030482021704565b81546200032090826401000000006200241f6200042f82021704565b9055565b6200037b82826040519081527f636f756e740000000000000000000000000000000000000000000000000000006020820152602501604051809103902062000304640100000000026200233e176401000000009004565b620003d582600101826040519081527f696e6465786573000000000000000000000000000000000000000000000000006020820152602701604051809103902062000304640100000000026200233e176401000000009004565b620002e682600201826040519081527f76616c75657300000000000000000000000000000000000000000000000000006020820152602601604051809103902062000304640100000000026200233e176401000000009004565b811515806200043c575080155b15620002e657600080fd5b61246d80620004576000396000f30060606040526004361061015b5763ffffffff60e060020a60003504166319ab453c81146101605780631e6154a2146101915780631f76fa34146101c5578063273a94aa146102265780634592cd1d146104675780634fe590121461048e57806353253d31146104c0578063557f4bc9146104d35780635aa77d3c146104f25780635fa7b584146105055780636521afd71461052457806371d3b573146105455780637abccac91461056457806383197ef0146105835780638d80c922146105965780639ed4fa5a146105ac578063a64ed8ba146105cb578063a843c51f146105de578063b2c3f8a2146105fd578063c15e26ba14610637578063ce606ee014610656578063d8f9659b14610669578063db236e24146106c3578063df26ca08146106d9578063ee8c24b8146106ef578063fa7fdeb714610755578063fd9541a91461076b578063fe9fbb801461078a578063fff10aba146107a9575b600080fd5b341561016b57600080fd5b61017f600160a060020a03600435166107bc565b60405190815260200160405180910390f35b341561019c57600080fd5b61017f600160a060020a036004351660243560443560643560ff6084351660a43560c43561080b565b34156101d057600080fd5b6101db600435610983565b604051600160a060020a0390971687526020870195909552604080870194909452606086019290925260ff16608085015260a084015260c083019190915260e0909101905180910390f35b341561023157600080fd5b61027560046024813581810190830135806020818102016040519081016040528093929190818152602001838360200280828437509496506109dc95505050505050565b604051808060200180602001806020018060200180602001806020018060200188810388528f818151815260200191508051906020019060200280838360005b838110156102cd5780820151838201526020016102b5565b5050505090500188810387528e818151815260200191508051906020019060200280838360005b8381101561030c5780820151838201526020016102f4565b5050505090500188810386528d818151815260200191508051906020019060200280838360005b8381101561034b578082015183820152602001610333565b5050505090500188810385528c818151815260200191508051906020019060200280838360005b8381101561038a578082015183820152602001610372565b5050505090500188810384528b818151815260200191508051906020019060200280838360005b838110156103c95780820151838201526020016103b1565b5050505090500188810383528a818151815260200191508051906020019060200280838360005b838110156104085780820151838201526020016103f0565b50505050905001888103825289818151815260200191508051906020019060200280838360005b8381101561044757808201518382015260200161042f565b505050509050019e50505050505050505050505050505060405180910390f35b341561047257600080fd5b61047a610c18565b604051901515815260200160405180910390f35b341561049957600080fd5b6104a4600435610c65565b604051600160a060020a03909116815260200160405180910390f35b34156104cb57600080fd5b6104a4610ce9565b34156104de57600080fd5b61047a600160a060020a0360043516610cf8565b34156104fd57600080fd5b6104a4610d4f565b341561051057600080fd5b61017f600160a060020a0360043516610d5e565b341561052f57600080fd5b610543600160a060020a0360043516610d9e565b005b341561055057600080fd5b610543600160a060020a0360043516610dd4565b341561056f57600080fd5b6101db600160a060020a0360043516610e0b565b341561058e57600080fd5b610543610eb7565b34156105a157600080fd5b6104a4600435610f4d565b34156105b757600080fd5b61047a600160a060020a0360043516610f61565b34156105d657600080fd5b61017f610f75565b34156105e957600080fd5b61047a600160a060020a0360043516610f8d565b341561060857600080fd5b61017f600160a060020a036004358116906024351660443560643560843560ff60a4351660c43560e435611006565b341561064257600080fd5b61047a600160a060020a03600435166113f8565b341561066157600080fd5b6104a46114b2565b341561067457600080fd5b61017f600460248135818101908301358060208181020160405190810160405280939291908181526020018383602002808284375094965050509235600160a060020a031692506114c1915050565b34156106ce57600080fd5b61017f600435611612565b34156106e457600080fd5b610543600435611657565b34156106fa57600080fd5b61070261169e565b60405160208082528190810183818151815260200191508051906020019060200280838360005b83811015610741578082015183820152602001610729565b505050509050019250505060405180910390f35b341561076057600080fd5b6104a46004356116b8565b341561077657600080fd5b610543600160a060020a03600435166116cc565b341561079557600080fd5b61047a600160a060020a03600435166116f6565b34156107b457600080fd5b6104a461179c565b60025460009033600160a060020a039081169116141561080657610800827f45524332304d616e6167657200000000000000000000000000000000000000006117ab565b50600190505b919050565b600061081688610f61565b1561082d576108266132cd61199c565b9050610978565b61083686611a05565b15610846576108266132cc61199c565b61084f886113f8565b1515610860576108266132c861199c565b610873600060068a63ffffffff611a2b16565b61088760006009888b63ffffffff611a4416565b61089b6000600a8a8a63ffffffff611a5f16565b6108af6000600b8a8963ffffffff611a5f16565b6108c36000600c8a8863ffffffff611a5f16565b6108da6000600f8a60ff881663ffffffff611a5f16565b6108ee6000600d8a8663ffffffff611a5f16565b6109026000600e8a8563ffffffff611a5f16565b7f73609df94f0cdda7cefeb2582bd51608ff83c3695a495443f92e63e455966f2688888888888888604051600160a060020a0390971687526020870195909552604080870194909452606086019290925260ff16608085015260a084015260c083019190915260e0909101905180910390a15060015b979650505050505050565b60008060008060008060008061099889611a05565b15156109a3576109d0565b6109b6600060098b63ffffffff611a7416565b90506109c181610e0b565b97509750975097509750975097505b50919395979092949650565b6109e46122de565b6109ec6122de565b6109f46122de565b6109fc6122de565b610a046122de565b610a0c6122de565b610a146122de565b600088511515610a2957610a2661169e565b98505b8897508851604051805910610a3b5750595b908082528060200260200182016040525096508851604051805910610a5d5750595b908082528060200260200182016040525095508851604051805910610a7f5750595b908082528060200260200182016040525094508851604051805910610aa15750595b908082528060200260200182016040525093508851604051805910610ac35750595b908082528060200260200182016040525092508851604051805910610ae55750595b90808252806020026020018201604052509150600090505b88518110156109d057610b30600a8a8381518110610b1757fe5b906020019060200201516000919063ffffffff611a8916565b878281518110610b3c57fe5b60209081029091010152610b57600b8a8381518110610b1757fe5b868281518110610b6357fe5b60209081029091010152610b7e600c8a8381518110610b1757fe5b858281518110610b8a57fe5b60209081029091010152610ba5600f8a8381518110610b1757fe5b848281518110610bb157fe5b60ff909216602092830290910190910152610bd3600d8a8381518110610b1757fe5b838281518110610bdf57fe5b60209081029091010152610bfa600e8a8381518110610b1757fe5b828281518110610c0657fe5b60209081029091010152600101610afd565b60035460009033600160a060020a03908116911614610c3957506000610c62565b506003805460028054600160a060020a0319908116600160a060020a0384161790915516905560015b90565b600454600090600160a060020a031663bc65792783836040516020015260405160e060020a63ffffffff84160281526004810191909152602401602060405180830381600087803b1515610cb857600080fd5b6102c65a03f11515610cc957600080fd5b5050506040518051915050600160a060020a038116151561080657600080fd5b600454600160a060020a031681565b60025460009033600160a060020a039081169116141561080657600160a060020a0382161515610d2a57506000610806565b5060038054600160a060020a038316600160a060020a03199091161790556001919050565b600354600160a060020a031681565b6000610d69336116f6565b1561080657610d7782610f61565b1515610d8f57610d886132cb61199c565b9050610806565b610d9882611a9f565b92915050565b60025433600160a060020a0390811691161415610dd15760058054600160a060020a031916600160a060020a0383161790555b50565b60025433600160a060020a0390811691161415610dd15760048054600160a060020a038316600160a060020a031990911617905550565b6000806000806000806000610e1f88610f61565b1515610e2a57610eac565b610e3d6000600a8a63ffffffff611a8916565b9550610e526000600b8a63ffffffff611a8916565b9450610e676000600c8a63ffffffff611a8916565b9350610e7c6000600f8a63ffffffff611a8916565b9250610e916000600d8a63ffffffff611a8916565b9150610ea66000600e8a63ffffffff611a8916565b88975090505b919395979092949650565b60025433600160a060020a0390811691161415610f4b57600454600160a060020a031663c375c2ef3060006040516020015260405160e060020a63ffffffff8416028152600160a060020a039091166004820152602401602060405180830381600087803b1515610f2757600080fd5b6102c65a03f11515610f3857600080fd5b5050506040518051905050610f4b611bb1565b565b6000610d988160068463ffffffff611bd416565b6000610d988160068463ffffffff611be116565b6000610f8881600663ffffffff611bf716565b905090565b60025460009033600160a060020a039081169116141561080657600160a060020a0382161515610fbf57506000610806565b600354600160a060020a031615610fe15760038054600160a060020a03191690555b5060028054600160a060020a038316600160a060020a03199091161790556001919050565b600080611012336116f6565b156113eb576110208a610f61565b1515611038576110316132cb61199c565b91506113eb565b611041896113f8565b1515611052576110316132c861199c565b6110656000600b8c63ffffffff611a8916565b871461113157600061107f8160098a63ffffffff611a7416565b600160a060020a03161415611126576110b660096110a66000600b8e63ffffffff611a8916565b600091908263ffffffff611a4416565b600160a060020a038a8116908a16146110f6576110dd60006009898c63ffffffff611a4416565b6110f16000600b8b8a63ffffffff611a5f16565b61111e565b61110a60006009898d63ffffffff611a4416565b61111e6000600b8c8a63ffffffff611a5f16565b506001611131565b6110316132ce61199c565b600160a060020a038a8116908a16146112585788600160a060020a03166318160ddd6000604051602001526040518163ffffffff1660e060020a028152600401602060405180830381600087803b151561118a57600080fd5b6102c65a03f1151561119b57600080fd5b5050506040518051506111ba9050600060068c8c63ffffffff611c0a16565b8015156111e9576111d560006009898c63ffffffff611a4416565b6111e96000600b8b8a63ffffffff611a5f16565b6111fd6000600a8b8b63ffffffff611a5f16565b6112116000600c8b8963ffffffff611a5f16565b6112286000600f8b60ff891663ffffffff611a5f16565b61123c6000600d8b8763ffffffff611a5f16565b6112506000600e8b8663ffffffff611a5f16565b889950600190505b8761126c6000600a8d63ffffffff611a8916565b14611289576112856000600a8c8b63ffffffff611a5f16565b5060015b60ff85166112a06000600f8d63ffffffff611a8916565b146112c0576112bc6000600f8c60ff891663ffffffff611a5f16565b5060015b856112d46000600c8d63ffffffff611a8916565b146112f1576112ed6000600c8c8963ffffffff611a5f16565b5060015b836113056000600d8d63ffffffff611a8916565b146113225761131e6000600d8c8763ffffffff611a5f16565b5060015b826113366000600e8d63ffffffff611a8916565b146113535761134f6000600e8c8663ffffffff611a5f16565b5060015b80156113dd577f53fe1ea0801d7db69e52461a8651ad2383b8393708265ab1ee003bc4543dbfac8a8a8a8a8a8a8a8a604051600160a060020a0398891681529690971660208701526040808701959095526060860193909352608085019190915260ff1660a084015260c083015260e082019290925261010001905180910390a1600191506113eb565b6113e86132ce61199c565b91505b5098975050505050505050565b60008061140c81601063ffffffff611c2216565b600160a060020a0316156114a75761142c6000601063ffffffff611c2216565b905080600160a060020a03166363a9c3d78460006040516020015260405160e060020a63ffffffff8416028152600160a060020a039091166004820152602401602060405180830381600087803b151561148557600080fd5b6102c65a03f1151561149657600080fd5b5050506040518051905091506114ac565b600191505b50919050565b600254600160a060020a031681565b60025460009081908190819033600160a060020a039081169116141561160957600092505b8551831015611604578583815181106114fb57fe5b90602001906020020151915081600160a060020a03166370a082313060006040516020015260405160e060020a63ffffffff8416028152600160a060020a039091166004820152602401602060405180830381600087803b151561155e57600080fd5b6102c65a03f1151561156f57600080fd5b505050604051805191505080156115f95781600160a060020a031663a9059cbb868360006040516020015260405160e060020a63ffffffff8516028152600160a060020a0390921660048301526024820152604401602060405180830381600087803b15156115dd57600080fd5b6102c65a03f115156115ee57600080fd5b505050604051805150505b6001909201916114e6565b600193505b50505092915050565b600061161d336116f6565b156108065761162b82611a05565b151561163c57610d886132ca61199c565b610d98611652600060098563ffffffff611a7416565b611a9f565b61165f611c81565b600160a060020a03167f9cf38cf2dbf9139f5c32639950507b10775fbbe0421f3e168bc2d1bb1ae3208c8260405190815260200160405180910390a250565b6116a66122de565b610f886000600663ffffffff611c8516565b6000610d988160098463ffffffff611a7416565b60025433600160a060020a0390811691161415610dd157610dd1600060108363ffffffff611c9f16565b6000806117227f557365724d616e61676572000000000000000000000000000000000000000000610c65565b905080600160a060020a0316632aa09e5a8460006040516020015260405160e060020a63ffffffff8416028152600160a060020a039091166004820152602401602060405180830381600087803b151561177b57600080fd5b6102c65a03f1151561178c57600080fd5b5050506040518051949350505050565b600554600160a060020a031690565b60025460009081908190819033600160a060020a039081169116146117cf57600080fd5b600160a060020a03861615156117e457600080fd5b600454600160a060020a031615801593508061180e5750600454600160a060020a03878116911614155b1561182f5760048054600160a060020a031916600160a060020a0388161790555b600454600160a060020a031691508163bc65792760006040516020015260405160e060020a63ffffffff83160281527f4d756c74694576656e7473486973746f727900000000000000000000000000006004820152602401602060405180830381600087803b15156118a057600080fd5b6102c65a03f115156118b157600080fd5b5050506040518051915050600160a060020a038116158015906118e25750600554600160a060020a03828116911614155b156119035760058054600160a060020a031916600160a060020a0383161790555b841561198a5781600160a060020a031663b7c46cd5308760006040516020015260405160e060020a63ffffffff8516028152600160a060020a0390921660048301526024820152604401602060405180830381600087803b151561196657600080fd5b6102c65a03f1151561197757600080fd5b5050506040518051600114905061198a57fe5b82156116045760069695505050505050565b60006119a661179c565b600160a060020a031663df26ca088360405160e060020a63ffffffff84160281526004810191909152602401600060405180830381600087803b15156119eb57600080fd5b6102c65a03f115156119fc57600080fd5b50929392505050565b600080611a1a8160098563ffffffff611a7416565b600160a060020a0316141592915050565b611a3f8383600160a060020a038416611d21565b505050565b611a59848484600160a060020a038516611d36565b50505050565b611a598484600160a060020a03851684611d36565b6000611a81848484611dc8565b949350505050565b6000611a818484600160a060020a038516611dc8565b60007f4ccdcd8814db6192247498559fa8327074683d742535a83effa9481f4cd2f99e82611ad583600a8363ffffffff611a8916565b611ae86000600b8763ffffffff611a8916565b611afb6000600c8863ffffffff611a8916565b611b0e6000600f8963ffffffff611a8916565b611b216000600d8a63ffffffff611a8916565b611b346000600e8b63ffffffff611a8916565b604051600160a060020a0390971687526020870195909552604080870194909452606086019290925260ff16608085015260a084015260c083019190915260e0909101905180910390a1611b9660096110a66000600b8663ffffffff611a8916565b611ba9600060068463ffffffff611e6216565b506001919050565b60025433600160a060020a0390811691161415610f4b5733600160a060020a0316ff5b6000611a81848484611e76565b6000611a818484600160a060020a038516611e8d565b6000611c038383611ea4565b9392505050565b611a598484600160a060020a03808616908516611eba565b815460018301548254600092600160a060020a03169163d3a3968691846040516020015260405160e060020a63ffffffff851602815260048101929092526024820152604401602060405180830381600087803b151561177b57600080fd5b3390565b611c8d6122de565b611c03611c9a8484611ed0565b611eec565b825460018401548354600160a060020a03909216916379a7cfee91908460405160e060020a63ffffffff861602815260048101939093526024830191909152600160a060020a03166044820152606401600060405180830381600087803b1515611d0857600080fd5b6102c65a03f11515611d1957600080fd5b505050505050565b611a3f838360ea60020a621cd95d0284611f76565b835460018501548454600160a060020a039092169163a14ff85791908560405191825260208201526040908101905180910390208460405160e060020a63ffffffff8616028152600481019390935260248301919091526044820152606401600060405180830381600087803b1515611dae57600080fd5b6102c65a03f11515611dbf57600080fd5b50505050505050565b825460018401548354600092600160a060020a0316916337d9d7fc9185604051918252602082015260409081019051809103902060006040516020015260405160e060020a63ffffffff851602815260048101929092526024820152604401602060405180830381600087803b1515611e4057600080fd5b6102c65a03f11515611e5157600080fd5b505050604051805195945050505050565b611a3f8383600160a060020a038416611fd1565b6000611a81848460ea60020a621cd95d0285611fe6565b6000611a81848460ea60020a621cd95d0285612003565b6000611c03838360ea60020a621cd95d0261201f565b611a59848460ea60020a621cd95d02858561202c565b611ed86122de565b611c03838360ea60020a621cd95d02612087565b611ef46122de565b611efc6122de565b60008351604051805910611f0d5750595b90808252806020026020018201604052509150600090505b8351811015611f6f57838181518110611f3a57fe5b90602001906020020151828281518110611f5057fe5b600160a060020a03909216602092830290910190910152600101611f25565b5092915050565b6000611f8485858585612003565b15611f8e57611fca565b611f9985858561201f565b6001019050611fae8560028601858486612100565b611fbe8560018601858585612100565b611fca85858584612124565b5050505050565b611a3f838360ea60020a621cd95d028461219c565b6000611ffa85600286018560018601612241565b95945050505050565b600061201485856001018585612241565b151595945050505050565b6000611a81848484612266565b600061203a86868686612003565b151561204557611d19565b61205486866001018686612241565b90506120668660028701868486612100565b6120768660018701868585612100565b611d19866001870186866000612100565b61208f6122de565b60008061209d86868661201f565b9150816040518059106120ad5750595b90808252806020026020018201604052509250600090505b818110156120f7576120d986868684611fe6565b8382815181106120e557fe5b602090810290910101526001016120c5565b50509392505050565b611fca85858585604051918252602082015260409081019051809103902084611d36565b835460018501548454600160a060020a03909216916353e7168b91908560405191825260208201526040908101905180910390208460405160e060020a63ffffffff8616028152600481019390935260248301919091526044820152606401600060405180830381600087803b1515611dae57600080fd5b60008060006121ad87878787612003565b15156121b857611dbf565b6121c387878761201f565b92506121d487600288018786612241565b91506121e587876001018787612241565b90508281101561220f576121ff8760018801878585612100565b61220f8760028801878486612100565b612220876001880187876000612100565b612231876002880187866000612100565b611dbf8787876000198701612124565b6000611ffa858585856040519182526020820152604090810190518091039020611dc8565b825460018401548354600092600160a060020a0316916353aa3f5e9185604051918252602082015260409081019051809103902060006040516020015260405160e060020a63ffffffff851602815260048101929092526024820152604401602060405180830381600087803b1515611e4057600080fd5b60206040519081016040526000815290565b8254600160a060020a031916600160a060020a0392909216919091178255600190910155565b612320828261234e565b5050565b612320828261233e565b612320828261233e565b61232082825b815461234a908261241f565b9055565b61238f82826040519081527f636f756e740000000000000000000000000000000000000000000000000000006020820152602501604051809103902061233e565b6123d382600101826040519081527f696e6465786573000000000000000000000000000000000000000000000000006020820152602701604051809103902061233e565b61232082600201826040519081527f76616c75657300000000000000000000000000000000000000000000000000006020820152602601604051809103902061233e565b815461234a90825b8115158061242b575080155b1561232057600080fd5b815461234a908261241f5600a165627a7a72305820f914827ae908a129edb9b44e670ce685a24c8a431c2acf15ac2b3a96a70e7dbc0029",
  "source": "pragma solidity ^0.4.11;\n\nimport \"../common/BaseManager.sol\";\nimport {ERC20Interface as Asset} from \"./ERC20Interface.sol\";\nimport \"./ERC20ManagerEmitter.sol\";\n\ncontract ERC20TokenVerifier {\n    function verify(address token) returns (bool);\n}\n\ncontract ERC20Manager is ERC20ManagerEmitter, BaseManager {\n\n    event LogAddToken(\n    address token,\n    bytes32 name,\n    bytes32 symbol,\n    bytes32 url,\n    uint8 decimals,\n    bytes32 ipfsHash,\n    bytes32 swarmHash\n    );\n\n    event LogTokenChange (\n    address oldToken,\n    address token,\n    bytes32 name,\n    bytes32 symbol,\n    bytes32 url,\n    uint8 decimals,\n    bytes32 ipfsHash,\n    bytes32 swarmHash\n    );\n\n    event LogRemoveToken(\n    address token,\n    bytes32 name,\n    bytes32 symbol,\n    bytes32 url,\n    uint8 decimals,\n    bytes32 ipfsHash,\n    bytes32 swarmHash\n    );\n\n    event LogTokenNameChange(address token, bytes32 oldName, bytes32 newName);\n    event LogTokenSymbolChange(address token, bytes32 oldSymbol, bytes32 newSymbol);\n    event LogTokenUrlChange(address token, bytes32 oldUrl, bytes32 newUrl);\n    event LogTokenIpfsHashChange(address token, bytes32 oldIpfsHash, bytes32 newIpfsHash);\n    event LogTokenSwarmHashChange(address token, bytes32 oldSwarmHash, bytes32 newSwarmHash);\n\n    uint constant ERROR_ERCMANAGER_INVALID_INVOCATION = 13000;\n    uint constant ERROR_ERCMANAGER_INVALID_STATE = 13001;\n    uint constant ERROR_ERCMANAGER_TOKEN_SYMBOL_NOT_EXISTS = 13002;\n    uint constant ERROR_ERCMANAGER_TOKEN_NOT_EXISTS = 13003;\n    uint constant ERROR_ERCMANAGER_TOKEN_SYMBOL_ALREADY_EXISTS = 13004;\n    uint constant ERROR_ERCMANAGER_TOKEN_ALREADY_EXISTS = 13005;\n    uint constant ERROR_ERCMANAGER_TOKEN_UNCHANGED = 13006;\n\n    StorageInterface.AddressesSet tokenAddresses;\n    StorageInterface.Bytes32AddressMapping tokenBySymbol;\n    StorageInterface.AddressBytes32Mapping name;\n    StorageInterface.AddressBytes32Mapping symbol;\n    StorageInterface.AddressBytes32Mapping url;\n    StorageInterface.AddressBytes32Mapping ipfsHash;\n    StorageInterface.AddressBytes32Mapping swarmHash;\n    StorageInterface.AddressUIntMapping decimals;\n    StorageInterface.Address tokenVerifier;\n\n    function ERC20Manager(Storage _store, bytes32 _crate) BaseManager(_store, _crate) {\n        tokenAddresses.init('tokenAddresses');\n        tokenBySymbol.init('tokeBySymbol');\n        name.init('name');\n        symbol.init('symbol');\n        url.init('url');\n        ipfsHash.init('ipfsHash');\n        swarmHash.init('swarmHash');\n        decimals.init('decimals');\n        tokenVerifier.init('tokenVerifier');\n    }\n\n    function init(address _contractsManager) onlyContractOwner returns (uint) {\n        BaseManager.init(_contractsManager, \"ERC20Manager\");\n\n        return OK;\n    }\n\n    function setTokenVerifier(address _tokenVerifier) onlyContractOwner {\n        store.set(tokenVerifier, _tokenVerifier);\n    }\n\n    /// @dev Allows owner to add a new token to the registry.\n    /// @param _token Address of new token.\n    /// @param _name Name of new token.\n    /// @param _symbol Symbol for new token.\n    /// @param _url Token's project URL.\n    /// @param _decimals Number of decimals, divisibility of new token.\n    /// @param _ipfsHash IPFS hash of token icon.\n    /// @param _swarmHash Swarm hash of token icon.\n    function addToken(\n        address _token,\n        bytes32 _name,\n        bytes32 _symbol,\n        bytes32 _url,\n        uint8 _decimals,\n        bytes32 _ipfsHash,\n        bytes32 _swarmHash)\n    returns (uint) {\n        if (isTokenExists(_token)) {\n            return _emitError(ERROR_ERCMANAGER_TOKEN_ALREADY_EXISTS);\n        }\n\n        if (isTokenSymbolExists(_symbol)) {\n            return _emitError(ERROR_ERCMANAGER_TOKEN_SYMBOL_ALREADY_EXISTS);\n        }\n\n        if (!isTokenValid(_token)) {\n            return _emitError(ERROR_ERCMANAGER_INVALID_INVOCATION);\n        }\n\n        store.add(tokenAddresses,_token);\n        store.set(tokenBySymbol,_symbol,_token);\n        store.set(name,_token,_name);\n        store.set(symbol,_token,_symbol);\n        store.set(url,_token,_url);\n        store.set(decimals,_token,_decimals);\n        store.set(ipfsHash,_token,_ipfsHash);\n        store.set(swarmHash,_token,_swarmHash);\n\n        LogAddToken(_token, _name, _symbol, _url, _decimals, _ipfsHash, _swarmHash);\n        return OK;\n    }\n\n    function setToken(\n        address _token,\n        address _newToken,\n        bytes32 _name,\n        bytes32 _symbol,\n        bytes32 _url,\n        uint8 _decimals,\n        bytes32 _ipfsHash,\n        bytes32 _swarmHash)\n    public\n    onlyAuthorized\n    returns (uint)\n    {\n        if (!isTokenExists(_token)) {\n            return _emitError(ERROR_ERCMANAGER_TOKEN_NOT_EXISTS);\n        }\n\n        if (!isTokenValid(_newToken)) {\n            return _emitError(ERROR_ERCMANAGER_INVALID_INVOCATION);\n        }\n\n        bool changed;\n        if(_symbol != store.get(symbol,_token)) {\n            if (store.get(tokenBySymbol,_symbol) == address(0)) {\n                store.set(tokenBySymbol,store.get(symbol,_token),address(0));\n                if(_token != _newToken) {\n                    store.set(tokenBySymbol,_symbol,_newToken);\n                    store.set(symbol,_newToken,_symbol);\n                } else {\n                    store.set(tokenBySymbol,_symbol,_token);\n                    store.set(symbol,_token,_symbol);\n                }\n                changed = true;\n            } else {\n                return _emitError(ERROR_ERCMANAGER_TOKEN_UNCHANGED);\n            }\n        }\n        if(_token != _newToken) {\n            Asset(_newToken).totalSupply();\n            store.set(tokenAddresses,_token,_newToken);\n            if(!changed) {\n                store.set(tokenBySymbol,_symbol,_newToken);\n                store.set(symbol,_newToken,_symbol);\n            }\n            store.set(name,_newToken,_name);\n            store.set(url,_newToken,_url);\n            store.set(decimals,_newToken,_decimals);\n            store.set(ipfsHash,_newToken,_ipfsHash);\n            store.set(swarmHash,_newToken,_swarmHash);\n            _token = _newToken;\n            changed = true;\n        }\n\n        if(store.get(name,_token) != _name) {\n            store.set(name,_token,_name);\n            changed = true;\n        }\n\n        if(store.get(decimals,_token) != _decimals) {\n            store.set(decimals,_token,_decimals);\n            changed = true;\n        }\n        if(store.get(url,_token) != _url) {\n            store.set(url,_token,_url);\n            changed = true;\n        }\n        if(store.get(ipfsHash,_token) != _ipfsHash) {\n            store.set(ipfsHash,_token,_ipfsHash);\n            changed = true;\n        }\n        if(store.get(swarmHash,_token) != _swarmHash) {\n            store.set(swarmHash,_token,_swarmHash);\n            changed = true;\n        }\n\n        if(changed) {\n            LogTokenChange(_token, _newToken, _name, _symbol, _url, _decimals, _ipfsHash, _swarmHash);\n            return OK;\n        }\n\n        return _emitError(ERROR_ERCMANAGER_TOKEN_UNCHANGED);\n    }\n\n    /// @dev Allows owner to remove an existing token from the registry.\n    /// @param _token Address of existing token.\n    function removeToken(address _token) onlyAuthorized returns (uint) {\n        if (!isTokenExists(_token)) {\n            return _emitError(ERROR_ERCMANAGER_TOKEN_NOT_EXISTS);\n        }\n\n        return removeTokenInt(_token);\n    }\n\n    /// @dev Allows owner to remove an existing token from the registry.\n    /// @param _symbol Symbol of existing token.\n    function removeTokenBySymbol(bytes32 _symbol) onlyAuthorized returns (uint) {\n        if (!isTokenSymbolExists(_symbol)) {\n            return _emitError(ERROR_ERCMANAGER_TOKEN_SYMBOL_NOT_EXISTS);\n        }\n\n        return removeTokenInt(store.get(tokenBySymbol,_symbol));\n    }\n\n    /// @dev Allows owner to remove an existing token from the registry.\n    /// @param _token Address of existing token.\n    function removeTokenInt(address _token) internal returns (uint) {\n        LogRemoveToken(\n        _token,\n        store.get(name,_token),\n        store.get(symbol,_token),\n        store.get(url,_token),\n        uint8(store.get(decimals,_token)),\n        store.get(ipfsHash,_token),\n        store.get(swarmHash,_token)\n        );\n\n        store.set(tokenBySymbol,store.get(symbol,_token),address(0));\n        store.remove(tokenAddresses,_token);\n        return OK;\n    }\n\n    function getAddressById(uint _id) constant returns (address) {\n        return store.get(tokenAddresses, _id);\n    }\n\n    /// @dev Provides a registered token's address when given the token symbol.\n    /// @param _symbol Symbol of registered token.\n    /// @return Token's address.\n    function getTokenAddressBySymbol(bytes32 _symbol) constant returns (address tokenAddress) {\n        return store.get(tokenBySymbol,_symbol);\n    }\n\n    /// @dev Provides a registered token's metadata, looked up by address.\n    /// @param _token Address of registered token.\n    /// @return Token metadata.\n    function getTokenMetaData(address _token) constant\n    returns (\n      address _tokenAddress,\n      bytes32 _name,\n      bytes32 _symbol,\n      bytes32 _url,\n      uint8 _decimals,\n      bytes32 _ipfsHash,\n      bytes32 _swarmHash\n    )\n    {\n        if (!isTokenExists(_token)) {\n            return;\n        }\n\n        _name = store.get(name,_token);\n        _symbol = store.get(symbol,_token);\n        _url = store.get(url,_token);\n        _decimals = uint8(store.get(decimals,_token));\n        _ipfsHash = store.get(ipfsHash,_token);\n        _swarmHash = store.get(swarmHash,_token);\n\n        return (_token, _name, _symbol, _url, _decimals, _ipfsHash, _swarmHash);\n    }\n\n    function tokensCount() constant returns (uint) {\n        return store.count(tokenAddresses);\n    }\n\n    function getTokens(address[] _addresses) constant\n    returns (\n      address[] _tokensAddresses,\n      bytes32[] _names,\n      bytes32[] _symbols,\n      bytes32[] _urls,\n      uint8[] _decimalsArr,\n      bytes32[] _ipfsHashes,\n      bytes32[] _swarmHashes\n    )\n    {\n        if (_addresses.length == 0) {\n            _addresses = getTokenAddresses();\n        }\n        _tokensAddresses = _addresses;\n        _names = new bytes32[](_addresses.length);\n        _symbols = new bytes32[](_addresses.length);\n        _urls = new bytes32[](_addresses.length);\n        _decimalsArr = new uint8[](_addresses.length);\n        _ipfsHashes = new bytes32[](_addresses.length);\n        _swarmHashes = new bytes32[](_addresses.length);\n\n        for (uint i = 0; i < _addresses.length; i++) {\n            _names[i] = store.get(name, _addresses[i]);\n            _symbols[i] = store.get(symbol, _addresses[i]);\n            _urls[i] = store.get(url, _addresses[i]);\n            _decimalsArr[i] = uint8(store.get(decimals, _addresses[i]));\n            _ipfsHashes[i] = store.get(ipfsHash, _addresses[i]);\n            _swarmHashes[i] = store.get(swarmHash, _addresses[i]);\n        }\n\n        return (_tokensAddresses, _names, _symbols, _urls, _decimalsArr, _ipfsHashes, _swarmHashes);\n    }\n\n    /// @dev Provides a registered token's metadata, looked up by symbol.\n    /// @param _symbol Symbol of registered token.\n    /// @return Token metadata.\n    function getTokenBySymbol(bytes32 _symbol) constant\n    returns (\n      address tokenAddress,\n      bytes32 name,\n      bytes32 symbol,\n      bytes32 url,\n      uint8 decimals,\n      bytes32 ipfsHash,\n      bytes32 swarmHash\n    )\n    {\n        if (!isTokenSymbolExists(_symbol)) {\n          return;\n        }\n\n        address _token = store.get(tokenBySymbol,_symbol);\n        return getTokenMetaData(_token);\n    }\n\n    /// @dev Returns an array containing all token addresses.\n    /// @return Array of token addresses.\n    function getTokenAddresses() constant returns (address[]) {\n        return store.get(tokenAddresses);\n    }\n\n    function _emitError(uint e) private returns (uint)   {\n        ERC20Manager(getEventsHistory()).emitError(e);\n        return e;\n    }\n\n    function isTokenExists(address _token) constant returns (bool) {\n        return store.includes(tokenAddresses, _token);\n    }\n\n    function isTokenValid(address _token) constant returns (bool) {\n      if (store.get(tokenVerifier) != 0x0) {\n          ERC20TokenVerifier verifier = ERC20TokenVerifier(store.get(tokenVerifier));\n          return verifier.verify(_token);\n      }\n\n      return true;\n    }\n\n    function isTokenSymbolExists(bytes32 _symbol) private constant returns (bool) {\n        return (store.get(tokenBySymbol, _symbol) != address(0));\n    }\n}\n",
  "sourcePath": "/Users/ahiatsevich/Development/chronobank/SmartContracts/contracts/core/erc20/ERC20Manager.sol",
  "compiler": {
    "name": "solc",
    "version": "0.4.18+commit.9cf6e910.Emscripten.clang"
  },
  "schemaVersion": "1.0.1",
  "updatedAt": "2017-12-15T11:25:49.896Z"
}