{
  "contractName": "Exchange",
  "abi": [
    {
      "constant": false,
      "inputs": [
        {
          "name": "_eventsHistory",
          "type": "address"
        }
      ],
      "name": "setupEventsHistory",
      "outputs": [
        {
          "name": "",
          "type": "uint256"
        }
      ],
      "payable": false,
      "stateMutability": "nonpayable",
      "type": "function"
    },
    {
      "constant": false,
      "inputs": [
        {
          "name": "_buyPrice",
          "type": "uint256"
        },
        {
          "name": "_sellPrice",
          "type": "uint256"
        }
      ],
      "name": "setPrices",
      "outputs": [
        {
          "name": "",
          "type": "uint256"
        }
      ],
      "payable": false,
      "stateMutability": "nonpayable",
      "type": "function"
    },
    {
      "constant": false,
      "inputs": [
        {
          "name": "_recipient",
          "type": "address"
        },
        {
          "name": "_amount",
          "type": "uint256"
        }
      ],
      "name": "withdrawTokens",
      "outputs": [
        {
          "name": "",
          "type": "uint256"
        }
      ],
      "payable": false,
      "stateMutability": "nonpayable",
      "type": "function"
    },
    {
      "constant": false,
      "inputs": [
        {
          "name": "_recipient",
          "type": "address"
        },
        {
          "name": "_amount",
          "type": "uint256"
        }
      ],
      "name": "withdrawEth",
      "outputs": [
        {
          "name": "",
          "type": "uint256"
        }
      ],
      "payable": false,
      "stateMutability": "nonpayable",
      "type": "function"
    },
    {
      "constant": true,
      "inputs": [],
      "name": "isActive",
      "outputs": [
        {
          "name": "",
          "type": "bool"
        }
      ],
      "payable": false,
      "stateMutability": "view",
      "type": "function"
    },
    {
      "constant": true,
      "inputs": [],
      "name": "asset",
      "outputs": [
        {
          "name": "",
          "type": "address"
        }
      ],
      "payable": false,
      "stateMutability": "view",
      "type": "function"
    },
    {
      "constant": false,
      "inputs": [],
      "name": "claimContractOwnership",
      "outputs": [
        {
          "name": "",
          "type": "bool"
        }
      ],
      "payable": false,
      "stateMutability": "nonpayable",
      "type": "function"
    },
    {
      "constant": false,
      "inputs": [
        {
          "name": "_asset",
          "type": "address"
        },
        {
          "name": "_rewards",
          "type": "address"
        },
        {
          "name": "_delegate",
          "type": "address"
        },
        {
          "name": "_fee",
          "type": "uint256"
        }
      ],
      "name": "init",
      "outputs": [
        {
          "name": "errorCode",
          "type": "uint256"
        }
      ],
      "payable": false,
      "stateMutability": "nonpayable",
      "type": "function"
    },
    {
      "constant": true,
      "inputs": [],
      "name": "sellPrice",
      "outputs": [
        {
          "name": "",
          "type": "uint256"
        }
      ],
      "payable": false,
      "stateMutability": "view",
      "type": "function"
    },
    {
      "constant": false,
      "inputs": [
        {
          "name": "_to",
          "type": "address"
        }
      ],
      "name": "changeContractOwnership",
      "outputs": [
        {
          "name": "",
          "type": "bool"
        }
      ],
      "payable": false,
      "stateMutability": "nonpayable",
      "type": "function"
    },
    {
      "constant": true,
      "inputs": [],
      "name": "pendingContractOwner",
      "outputs": [
        {
          "name": "",
          "type": "address"
        }
      ],
      "payable": false,
      "stateMutability": "view",
      "type": "function"
    },
    {
      "constant": true,
      "inputs": [],
      "name": "maxAmount",
      "outputs": [
        {
          "name": "",
          "type": "uint256"
        }
      ],
      "payable": false,
      "stateMutability": "view",
      "type": "function"
    },
    {
      "constant": false,
      "inputs": [
        {
          "name": "feePercent",
          "type": "uint256"
        }
      ],
      "name": "emitFeeUpdated",
      "outputs": [],
      "payable": false,
      "stateMutability": "nonpayable",
      "type": "function"
    },
    {
      "constant": true,
      "inputs": [],
      "name": "feePercent",
      "outputs": [
        {
          "name": "",
          "type": "uint256"
        }
      ],
      "payable": false,
      "stateMutability": "view",
      "type": "function"
    },
    {
      "constant": false,
      "inputs": [],
      "name": "destroy",
      "outputs": [],
      "payable": false,
      "stateMutability": "nonpayable",
      "type": "function"
    },
    {
      "constant": false,
      "inputs": [
        {
          "name": "isActive",
          "type": "bool"
        }
      ],
      "name": "emitActiveChanged",
      "outputs": [],
      "payable": false,
      "stateMutability": "nonpayable",
      "type": "function"
    },
    {
      "constant": true,
      "inputs": [],
      "name": "buyPrice",
      "outputs": [
        {
          "name": "",
          "type": "uint256"
        }
      ],
      "payable": false,
      "stateMutability": "view",
      "type": "function"
    },
    {
      "constant": false,
      "inputs": [
        {
          "name": "buyPrice",
          "type": "uint256"
        },
        {
          "name": "sellPrice",
          "type": "uint256"
        }
      ],
      "name": "emitPricesUpdated",
      "outputs": [],
      "payable": false,
      "stateMutability": "nonpayable",
      "type": "function"
    },
    {
      "constant": true,
      "inputs": [],
      "name": "minAmount",
      "outputs": [
        {
          "name": "",
          "type": "uint256"
        }
      ],
      "payable": false,
      "stateMutability": "view",
      "type": "function"
    },
    {
      "constant": false,
      "inputs": [
        {
          "name": "_to",
          "type": "address"
        }
      ],
      "name": "transferContractOwnership",
      "outputs": [
        {
          "name": "",
          "type": "bool"
        }
      ],
      "payable": false,
      "stateMutability": "nonpayable",
      "type": "function"
    },
    {
      "constant": false,
      "inputs": [
        {
          "name": "_recipient",
          "type": "address"
        }
      ],
      "name": "withdrawAllTokens",
      "outputs": [
        {
          "name": "",
          "type": "uint256"
        }
      ],
      "payable": false,
      "stateMutability": "nonpayable",
      "type": "function"
    },
    {
      "constant": false,
      "inputs": [
        {
          "name": "_active",
          "type": "bool"
        }
      ],
      "name": "setActive",
      "outputs": [
        {
          "name": "",
          "type": "uint256"
        }
      ],
      "payable": false,
      "stateMutability": "nonpayable",
      "type": "function"
    },
    {
      "constant": true,
      "inputs": [],
      "name": "contractOwner",
      "outputs": [
        {
          "name": "",
          "type": "address"
        }
      ],
      "payable": false,
      "stateMutability": "view",
      "type": "function"
    },
    {
      "constant": false,
      "inputs": [
        {
          "name": "_recipient",
          "type": "address"
        }
      ],
      "name": "withdrawAllEth",
      "outputs": [
        {
          "name": "",
          "type": "uint256"
        }
      ],
      "payable": false,
      "stateMutability": "nonpayable",
      "type": "function"
    },
    {
      "constant": false,
      "inputs": [
        {
          "name": "_amount",
          "type": "uint256"
        },
        {
          "name": "_price",
          "type": "uint256"
        }
      ],
      "name": "buy",
      "outputs": [
        {
          "name": "",
          "type": "uint256"
        }
      ],
      "payable": true,
      "stateMutability": "payable",
      "type": "function"
    },
    {
      "constant": false,
      "inputs": [
        {
          "name": "_amount",
          "type": "uint256"
        },
        {
          "name": "_price",
          "type": "uint256"
        }
      ],
      "name": "sell",
      "outputs": [
        {
          "name": "",
          "type": "uint256"
        }
      ],
      "payable": false,
      "stateMutability": "nonpayable",
      "type": "function"
    },
    {
      "constant": false,
      "inputs": [
        {
          "name": "tokens",
          "type": "address[]"
        },
        {
          "name": "_to",
          "type": "address"
        }
      ],
      "name": "withdrawnTokens",
      "outputs": [
        {
          "name": "",
          "type": "uint256"
        }
      ],
      "payable": false,
      "stateMutability": "nonpayable",
      "type": "function"
    },
    {
      "constant": false,
      "inputs": [
        {
          "name": "errorCode",
          "type": "uint256"
        }
      ],
      "name": "emitError",
      "outputs": [],
      "payable": false,
      "stateMutability": "nonpayable",
      "type": "function"
    },
    {
      "constant": true,
      "inputs": [],
      "name": "eventsHistory",
      "outputs": [
        {
          "name": "",
          "type": "address"
        }
      ],
      "payable": false,
      "stateMutability": "view",
      "type": "function"
    },
    {
      "constant": false,
      "inputs": [
        {
          "name": "_recipient",
          "type": "address"
        }
      ],
      "name": "withdrawAll",
      "outputs": [
        {
          "name": "",
          "type": "uint256"
        }
      ],
      "payable": false,
      "stateMutability": "nonpayable",
      "type": "function"
    },
    {
      "constant": true,
      "inputs": [],
      "name": "getEventsHistory",
      "outputs": [
        {
          "name": "",
          "type": "address"
        }
      ],
      "payable": false,
      "stateMutability": "view",
      "type": "function"
    },
    {
      "payable": true,
      "stateMutability": "payable",
      "type": "fallback"
    },
    {
      "anonymous": false,
      "inputs": [
        {
          "indexed": true,
          "name": "who",
          "type": "address"
        },
        {
          "indexed": false,
          "name": "token",
          "type": "uint256"
        },
        {
          "indexed": false,
          "name": "eth",
          "type": "uint256"
        }
      ],
      "name": "Sell",
      "type": "event"
    },
    {
      "anonymous": false,
      "inputs": [
        {
          "indexed": true,
          "name": "who",
          "type": "address"
        },
        {
          "indexed": false,
          "name": "token",
          "type": "uint256"
        },
        {
          "indexed": false,
          "name": "eth",
          "type": "uint256"
        }
      ],
      "name": "Buy",
      "type": "event"
    },
    {
      "anonymous": false,
      "inputs": [
        {
          "indexed": true,
          "name": "recipient",
          "type": "address"
        },
        {
          "indexed": false,
          "name": "amount",
          "type": "uint256"
        }
      ],
      "name": "WithdrawTokens",
      "type": "event"
    },
    {
      "anonymous": false,
      "inputs": [
        {
          "indexed": true,
          "name": "recipient",
          "type": "address"
        },
        {
          "indexed": false,
          "name": "amount",
          "type": "uint256"
        }
      ],
      "name": "WithdrawEth",
      "type": "event"
    },
    {
      "anonymous": false,
      "inputs": [
        {
          "indexed": true,
          "name": "self",
          "type": "address"
        },
        {
          "indexed": false,
          "name": "feeValue",
          "type": "uint256"
        }
      ],
      "name": "FeeUpdated",
      "type": "event"
    },
    {
      "anonymous": false,
      "inputs": [
        {
          "indexed": true,
          "name": "self",
          "type": "address"
        },
        {
          "indexed": false,
          "name": "buyPrice",
          "type": "uint256"
        },
        {
          "indexed": false,
          "name": "sellPrice",
          "type": "uint256"
        }
      ],
      "name": "PricesUpdated",
      "type": "event"
    },
    {
      "anonymous": false,
      "inputs": [
        {
          "indexed": true,
          "name": "self",
          "type": "address"
        },
        {
          "indexed": false,
          "name": "isActive",
          "type": "bool"
        }
      ],
      "name": "ActiveChanged",
      "type": "event"
    },
    {
      "anonymous": false,
      "inputs": [
        {
          "indexed": false,
          "name": "errorCode",
          "type": "uint256"
        }
      ],
      "name": "Error",
      "type": "event"
    },
    {
      "anonymous": false,
      "inputs": [
        {
          "indexed": true,
          "name": "sender",
          "type": "address"
        },
        {
          "indexed": true,
          "name": "amount",
          "type": "uint256"
        }
      ],
      "name": "ReceivedEther",
      "type": "event"
    }
  ],
  "bytecode": "0x60606040526001600555600260065561271060095560008054600160a060020a033316600160a060020a0319909116179055611426806100406000396000f3006060604052600436106101715763ffffffff60e060020a60003504166302927d2081146101ba57806305fefda7146101eb57806306b091f9146102045780631b9a91a41461022657806322f3e2d41461024857806338d52e0f1461026f5780634592cd1d1461029e57806346639dba146102b15780634b750334146102df578063557f4bc9146102f25780635aa77d3c146103115780635f48f393146103245780636ddfd403146103375780637fd6f15c1461034d57806383197ef014610360578063850a4621146103735780638620410b1461038b578063975be2311461039e5780639b2cb5d8146103b7578063a843c51f146103ca578063a878aee6146103e9578063acec338a14610408578063ce606ee014610420578063d46d79bb14610433578063d6febde814610452578063d79875eb14610460578063d8f9659b14610479578063df26ca08146104d3578063f07629f8146104e9578063fa09e630146104fc578063fff10aba1461051b575b34156101b3573433600160a060020a03167fa419615bc8fda4c87663805ee2a3597a6d71c1d476911d9892f340d965bc7bf160405160405180910390a36101b8565b600080fd5b005b34156101c557600080fd5b6101d9600160a060020a036004351661052e565b60405190815260200160405180910390f35b34156101f657600080fd5b6101d960043560243561058d565b341561020f57600080fd5b6101d9600160a060020a03600435166024356105dd565b341561023157600080fd5b6101d9600160a060020a036004351660243561079d565b341561025357600080fd5b61025b61089c565b604051901515815260200160405180910390f35b341561027a57600080fd5b6102826108ac565b604051600160a060020a03909116815260200160405180910390f35b34156102a957600080fd5b61025b6108bb565b34156102bc57600080fd5b6101d9600160a060020a0360043581169060243581169060443516606435610906565b34156102ea57600080fd5b6101d96109dc565b34156102fd57600080fd5b61025b600160a060020a03600435166109e2565b341561031c57600080fd5b610282610a35565b341561032f57600080fd5b6101d9610a44565b341561034257600080fd5b6101b8600435610a4a565b341561035857600080fd5b6101d9610a8a565b341561036b57600080fd5b6101b8610a90565b341561037e57600080fd5b6101b86004351515610ab5565b341561039657600080fd5b6101d9610af7565b34156103a957600080fd5b6101b8600435602435610afd565b34156103c257600080fd5b6101d9610b45565b34156103d557600080fd5b61025b600160a060020a0360043516610b4b565b34156103f457600080fd5b6101d9600160a060020a0360043516610bc2565b341561041357600080fd5b6101d96004351515610bec565b341561042b57600080fd5b610282610c57565b341561043e57600080fd5b6101d9600160a060020a0360043516610c66565b6101d9600435602435610c92565b341561046b57600080fd5b6101d9600435602435610ddc565b341561048457600080fd5b6101d9600460248135818101908301358060208181020160405190810160405280939291908181526020018383602002808284375094965050509235600160a060020a03169250610f6f915050565b34156104de57600080fd5b6101b86004356110be565b34156104f457600080fd5b6102826110f4565b341561050757600080fd5b6101d9600160a060020a0360043516611103565b341561052657600080fd5b610282611161565b6000805433600160a060020a039081169116141561058857600a54600160a060020a0316156105695761056261177161118e565b9050610588565b50600a8054600160a060020a031916600160a060020a03831617905560015b919050565b6000805433600160a060020a03908116911614156105d757828210156105bf576105b861177361118e565b90506105d7565b600583905560068290556105d383836111f7565b5060015b92915050565b60008054819033600160a060020a0390811691161415610796578261060130611262565b10156106195761061261177761118e565b9150610796565b60095461271001836127100281151561062e57fe5b6002549190049150600160a060020a031663a9059cbb858360006040516020015260405160e060020a63ffffffff8516028152600160a060020a0390921660048301526024820152604401602060405180830381600087803b151561069257600080fd5b6102c65a03f115156106a357600080fd5b5050506040518051905015156106be5761061261177a61118e565b83600160a060020a03167f680f2e4f4032ebf1774e8cdbaddcb1b617a5a606411c8ca96257ada338d3833c8260405190815260200160405180910390a2600254600354600160a060020a039182169163a9059cbb911683860360006040516020015260405160e060020a63ffffffff8516028152600160a060020a0390921660048301526024820152604401602060405180830381600087803b151561076357600080fd5b6102c65a03f1151561077457600080fd5b5050506040518051905015156107915761078f61177b61118e565b505b600191505b5092915050565b60008054819033600160a060020a0390811691161415610796578230600160a060020a03163110156107d45761061261177861118e565b6009546127100183612710028115156107e957fe5b049050600160a060020a03841681156108fc0282604051600060405180830381858888f1935050505015156108235761061261177a61118e565b83600160a060020a03167fccbd99ba6da8f29b2a4f65e474e3c3973564d356c162c08d45f3dc7f0cb5b3aa8260405190815260200160405180910390a2600354600160a060020a031681840380156108fc0290604051600060405180830381858888f1935050505015156107915761061261177b61118e565b60045460a060020a900460ff1681565b600254600160a060020a031681565b60015460009033600160a060020a039081169116146108dc57506000610903565b506001805460008054600160a060020a0319908116600160a060020a038416179091551681555b90565b60008054819033600160a060020a03908116911614156109d357600254600160a060020a03161515806109435750600354600160a060020a031615155b1561095a5761095361177161118e565b91506109d3565b60028054600160a060020a03808916600160a060020a0319928316179092556003805488841690831617905560048054928716929091169190911790556109a0836112dd565b905080915060018114156109d3576004805474ff0000000000000000000000000000000000000000191660a060020a1790555b50949350505050565b60065481565b6000805433600160a060020a039081169116141561058857600160a060020a0382161515610a1257506000610588565b5060018054600160a060020a038316600160a060020a0319909116178155919050565b600154600160a060020a031681565b60085481565b33600160a060020a03167f6f0eaf2c2f89fb4cfe96a1dee5e764d60b52c7f48aaa590f0850e308aa1b953a8260405190815260200160405180910390a250565b60095481565b60005433600160a060020a0390811691161415610ab35733600160a060020a0316ff5b565b33600160a060020a03167f1e9e694913ebc22589cb624c7ef8683055f578186b4a28e55d8412342921d7f382604051901515815260200160405180910390a250565b60055481565b33600160a060020a03167f8182173c5ec5828b584f228420d06be6e62aa539b8e093e4f41756d238ed35c3838360405191825260208201526040908101905180910390a25050565b60075481565b6000805433600160a060020a039081169116141561058857600160a060020a0382161515610b7b57506000610588565b600154600160a060020a031615610b9d5760018054600160a060020a03191690555b5060008054600160a060020a038316600160a060020a03199091161790556001919050565b6000805433600160a060020a0390811691161415610588576105d782610be730611262565b6105dd565b6000805433600160a060020a03908116911614156105885760045460ff60a060020a90910416151582151514610c2557610c2582611319565b506004805482151560a060020a0274ff0000000000000000000000000000000000000000199091161790556001919050565b600054600160a060020a031681565b6000805433600160a060020a0390811691161415610588576105d78230600160a060020a03163161079d565b600454600090819060a060020a900460ff161515610cb55761061261177461118e565b600654831015610cca5761061261177661118e565b83610cd430611262565b1015610ce55761061261177761118e565b610cef848461137d565b9050348114610d035761061261177861118e565b600254600160a060020a031663a9059cbb338660006040516020015260405160e060020a63ffffffff8516028152600160a060020a0390921660048301526024820152604401602060405180830381600087803b1515610d6257600080fd5b6102c65a03f11515610d7357600080fd5b505050604051805190501515610d8e5761061261177a61118e565b33600160a060020a03167f1cbc5ab135991bd2b6a4b034a04aa2aa086dac1371cb9b16b8b5e2ed6b036bed858360405191825260208201526040908101905180910390a25060019392505050565b600454600090819060a060020a900460ff161515610dff5761061261177461118e565b600554831115610e145761061261177561118e565b83610e1e33611262565b1015610e2f5761061261177761118e565b610e39848461137d565b90508030600160a060020a0316311015610e585761061261177861118e565b600254600160a060020a03166323b872dd33308760006040516020015260405160e060020a63ffffffff8616028152600160a060020a0393841660048201529190921660248201526044810191909152606401602060405180830381600087803b1515610ec457600080fd5b6102c65a03f11515610ed557600080fd5b505050604051805190501515610ef05761061261177961118e565b600160a060020a03331681156108fc0282604051600060405180830381858888f193505050501515610f2157600080fd5b33600160a060020a03167fed7a144fad14804d5c249145e3e0e2b63a9eb455b76aee5bc92d711e9bba3e4a858360405191825260208201526040908101905180910390a25060019392505050565b6000805481908190819033600160a060020a03908116911614156110b557600092505b85518310156110b057858381518110610fa757fe5b90602001906020020151915081600160a060020a03166370a082313060006040516020015260405160e060020a63ffffffff8416028152600160a060020a039091166004820152602401602060405180830381600087803b151561100a57600080fd5b6102c65a03f1151561101b57600080fd5b505050604051805191505080156110a55781600160a060020a031663a9059cbb868360006040516020015260405160e060020a63ffffffff8516028152600160a060020a0390921660048301526024820152604401602060405180830381600087803b151561108957600080fd5b6102c65a03f1151561109a57600080fd5b505050604051805150505b600190920191610f92565b600193505b50505092915050565b7f2e36a7093f25f22bd4cbdeb6040174c3ba4c5fe8f1abc04e7c3c48f26c7413e08160405190815260200160405180910390a150565b600a54600160a060020a031681565b600080548190819033600160a060020a039081169116141561115a5761112884610bc2565b91506001821461113a5781925061115a565b61114384610c66565b9050600181146111555780925061115a565b600192505b5050919050565b600a54600090600160a060020a0316151561117c5730611189565b600a54600160a060020a03165b905090565b6000611198611161565b600160a060020a031663df26ca088360405160e060020a63ffffffff84160281526004810191909152602401600060405180830381600087803b15156111dd57600080fd5b6102c65a03f115156111ee57600080fd5b50929392505050565b6111ff611161565b600160a060020a031663975be231838360405160e060020a63ffffffff851602815260048101929092526024820152604401600060405180830381600087803b151561124a57600080fd5b6102c65a03f1151561125b57600080fd5b5050505050565b600254600090600160a060020a03166370a0823183836040516020015260405160e060020a63ffffffff8416028152600160a060020a039091166004820152602401602060405180830381600087803b15156112bd57600080fd5b6102c65a03f115156112ce57600080fd5b50505060405180519392505050565b6000600160095410806112f35750612710600954115b156113035761056261177261118e565b6009829055611311826113ad565b506001919050565b611321611161565b600160a060020a031663850a46218260405160e060020a63ffffffff84160281529015156004820152602401600060405180830381600087803b151561136657600080fd5b6102c65a03f1151561137757600080fd5b50505050565b6000828202831580159061139c575082848281151561139857fe5b0414155b156113a657600080fd5b9392505050565b6113b5611161565b600160a060020a0316636ddfd4038260405160e060020a63ffffffff84160281526004810191909152602401600060405180830381600087803b151561136657600080fd00a165627a7a72305820820d3f039520854cb6b82632a40f8b2a50b0d4fc1b8773566f78bef53e77136c0029",
  "source": "pragma solidity ^0.4.11;\n\nimport \"../core/common/Object.sol\";\nimport {ERC20Interface as Asset} from \"../core/erc20/ERC20Interface.sol\";\n\ncontract ExchangeEmitter {\n    function emitError(uint errorCode);\n    function emitFeeUpdated(uint feeValue);\n    function emitPricesUpdated(uint buyPrice, uint sellPrice);\n    function emitActiveChanged(bool isActive);\n}\n\n\n/**\n * @title ERC20-Ether exchange contract.\n *\n * Users are able to buy/sell assigned ERC20 token for ether, as long as there is available\n * supply. Contract owner maintains sufficient token and ether supply, and sets buy/sell prices.\n *\n * In order to be able to sell tokens, user needs to create allowance for this contract, using\n * standard ERC20 approve() function, so that exchange can take tokens from the user, when user\n * orders a sell.\n *\n * Note: all the non constant functions return false instead of throwing in case if state change\n * didn't happen yet.\n */\ncontract Exchange is Object {\n\n    uint constant ERROR_EXCHANGE_INVALID_PARAMETER = 6000;\n    uint constant ERROR_EXCHANGE_INVALID_INVOCATION = 6001;\n    uint constant ERROR_EXCHANGE_INVALID_FEE_PERCENT = 6002;\n    uint constant ERROR_EXCHANGE_INVALID_PRICE = 6003;\n    uint constant ERROR_EXCHANGE_MAINTENANCE_MODE = 6004;\n    uint constant ERROR_EXCHANGE_TOO_HIGH_PRICE = 6005;\n    uint constant ERROR_EXCHANGE_TOO_LOW_PRICE = 6006;\n    uint constant ERROR_EXCHANGE_INSUFFICIENT_BALANCE = 6007;\n    uint constant ERROR_EXCHANGE_INSUFFICIENT_ETHER_SUPPLY = 6008;\n    uint constant ERROR_EXCHANGE_PAYMENT_FAILED = 6009;\n    uint constant ERROR_EXCHANGE_TRANSFER_FAILED = 6010;\n    uint constant ERROR_EXCHANGE_FEE_TRANSFER_FAILED = 6011;\n\n    // Assigned ERC20 token.\n    Asset public asset;\n    address rewards;\n    address delegate;\n    //Switch for turn on and off the exchange operations\n    bool public isActive;\n    // Price in wei at which exchange buys tokens.\n    uint public buyPrice = 1;\n    // Price in wei at which exchange sells tokens.\n    uint public sellPrice = 2;\n    uint public minAmount;\n    uint public maxAmount;\n    // Fee value for operations 10000 is 0.01.\n    uint public feePercent = 10000;\n    // User sold tokens and received wei.\n    event Sell(address indexed who, uint token, uint eth);\n    // User bought tokens and payed wei.\n    event Buy(address indexed who, uint token, uint eth);\n    event WithdrawTokens(address indexed recipient, uint amount);\n    event WithdrawEth(address indexed recipient, uint amount);\n    event FeeUpdated(address indexed self, uint feeValue);\n    event PricesUpdated(address indexed self, uint buyPrice, uint sellPrice);\n    event ActiveChanged(address indexed self, bool isActive);\n    event Error(uint errorCode);\n\n    /**\n     * @dev On received ethers\n     * @param sender Ether sender\n     * @param amount Ether value\n     */\n    event ReceivedEther(address indexed sender, uint256 indexed amount);\n\n    // Should use interface of the emitter, but address of events history.\n    ExchangeEmitter public eventsHistory;\n\n    /**\n     * Emits Error event with specified error message.\n     *\n     * Should only be used if no state changes happened.\n     *\n     * @param error error from Errors library.\n     */\n    function _error(uint error) internal returns (uint) {\n        getEventsHistory().emitError(error);\n        return error;\n    }\n\n    function _emitFeeUpdated(uint feePercent) internal {\n        getEventsHistory().emitFeeUpdated(feePercent);\n    }\n\n    function _emitPricesUpdated(uint buyPrice, uint sellPrice) internal {\n        getEventsHistory().emitPricesUpdated(buyPrice, sellPrice);\n    }\n\n    function _emitActiveChanged(bool isActive) internal {\n        getEventsHistory().emitActiveChanged(isActive);\n    }\n\n    /**\n     * Sets EventsHstory contract address.\n     *\n     * Can be set only once, and only by contract owner.\n     *\n     * @param _eventsHistory MultiEventsHistory contract address.\n     *\n     * @return success.\n     */\n    function setupEventsHistory(address _eventsHistory) onlyContractOwner returns (uint) {\n        if (address(eventsHistory) != 0x0) {\n            return _error(ERROR_EXCHANGE_INVALID_INVOCATION);\n        }\n\n        eventsHistory = ExchangeEmitter(_eventsHistory);\n        return OK;\n    }\n\n    /**\n     * Assigns ERC20 token for exchange.\n     *\n     * Can be set only once, and only by contract owner.\n     *\n     * @param _asset ERC20 token address.\n     *\n     * @return success.\n     */\n    function init(Asset _asset, address _rewards, address _delegate, uint _fee) onlyContractOwner returns (uint errorCode) {\n        if (address(asset) != 0x0 || rewards != 0x0) {\n            return _error(ERROR_EXCHANGE_INVALID_INVOCATION);\n        }\n\n        asset = _asset;\n        rewards = _rewards;\n        delegate = _delegate;\n        uint feeResult = setFee(_fee);\n        errorCode = feeResult;\n        if (feeResult == OK) {\n            isActive = true;\n        }\n    }\n\n    function setFee(uint _feePercent) internal returns (uint) {\n        if (feePercent < 1 || feePercent > 10000) {\n            return _error(ERROR_EXCHANGE_INVALID_FEE_PERCENT);\n        }\n\n        feePercent = _feePercent;\n        _emitFeeUpdated(feePercent);\n        return OK;\n    }\n\n    function setActive(bool _active) onlyContractOwner returns (uint) {\n        if (isActive != _active) {\n            _emitActiveChanged(_active);\n        }\n\n        isActive = _active;\n        return OK;\n    }\n\n    /**\n     * Set exchange operation prices.\n     * Sell price cannot be less than buy price.\n     *\n     * Can be set only by contract owner.\n     *\n     * @param _buyPrice price in wei at which exchange buys tokens.\n     * @param _sellPrice price in wei at which exchange sells tokens.\n     *\n     * @return success.\n     */\n    function setPrices(uint _buyPrice, uint _sellPrice) onlyContractOwner returns (uint) {\n        if (_sellPrice < _buyPrice) {\n            return _error(ERROR_EXCHANGE_INVALID_PRICE);\n        }\n\n        buyPrice = _buyPrice;\n        sellPrice = _sellPrice;\n        _emitPricesUpdated(_buyPrice, _sellPrice);\n\n        return OK;\n    }\n\n    /**\n     * Returns assigned token address balance.\n     *\n     * @param _address address to get balance.\n     *\n     * @return token balance.\n     */\n    function _balanceOf(address _address) constant internal returns (uint) {\n        return asset.balanceOf(_address);\n    }\n\n    /**\n     * Sell tokens for ether at specified price. Tokens are taken from caller\n     * though an allowance logic.\n     * Amount should be less than or equal to current allowance value.\n     * Price should be less than or equal to current exchange buyPrice.\n     *\n     * @param _amount amount of tokens to sell.\n     * @param _price price in wei at which sell will happen.\n     *\n     * @return success.\n     */\n    function sell(uint _amount, uint _price) returns (uint) {\n        if (!isActive) {\n            return _error(ERROR_EXCHANGE_MAINTENANCE_MODE);\n        }\n\n        if (_price > buyPrice) {\n            return _error(ERROR_EXCHANGE_TOO_HIGH_PRICE);\n        }\n\n        if (_balanceOf(msg.sender) < _amount) {\n            return _error(ERROR_EXCHANGE_INSUFFICIENT_BALANCE);\n        }\n\n        uint total = _mul(_amount, _price);\n        if (this.balance < total) {\n            return _error(ERROR_EXCHANGE_INSUFFICIENT_ETHER_SUPPLY);\n        }\n\n        if (!asset.transferFrom(msg.sender, this, _amount)) {\n            return _error(ERROR_EXCHANGE_PAYMENT_FAILED);\n        }\n\n        if (!msg.sender.send(total)) {\n            throw;\n        }\n\n        Sell(msg.sender, _amount, total);\n\n        return OK;\n    }\n\n    /**\n     * Buy tokens for ether at specified price. Payment needs to be sent along\n     * with the call, and should equal amount * price.\n     * Price should be greater than or equal to current exchange sellPrice.\n     *\n     * @param _amount amount of tokens to buy.\n     * @param _price price in wei at which buy will happen.\n     *\n     * @return success.\n     */\n    function buy(uint _amount, uint _price) payable returns (uint) {\n        if (!isActive) {\n            return _error(ERROR_EXCHANGE_MAINTENANCE_MODE);\n        }\n\n        if (_price < sellPrice) {\n            return _error(ERROR_EXCHANGE_TOO_LOW_PRICE);\n        }\n\n        if (_balanceOf(this) < _amount) {\n            return _error(ERROR_EXCHANGE_INSUFFICIENT_BALANCE);\n        }\n\n        uint total = _mul(_amount, _price);\n        if (msg.value != total) {\n            return _error(ERROR_EXCHANGE_INSUFFICIENT_ETHER_SUPPLY);\n        }\n\n        if (!asset.transfer(msg.sender, _amount)) {\n            return _error(ERROR_EXCHANGE_TRANSFER_FAILED);\n        }\n\n        Buy(msg.sender, _amount, total);\n\n        return OK;\n    }\n\n    /**\n     * Transfer specified amount of tokens from exchange to specified address.\n     *\n     * Can be called only by contract owner.\n     *\n     * @param _recipient address to transfer tokens to.\n     * @param _amount amount of tokens to transfer.\n     *\n     * @return success.\n     */\n    function withdrawTokens(address _recipient, uint _amount) onlyContractOwner returns (uint) {\n        if (_balanceOf(this) < _amount) {\n            return _error(ERROR_EXCHANGE_INSUFFICIENT_BALANCE);\n        }\n\n        uint amount = (_amount * 10000) / (10000 + feePercent);\n        if (!asset.transfer(_recipient, amount)) {\n            return _error(ERROR_EXCHANGE_TRANSFER_FAILED);\n        }\n\n        WithdrawTokens(_recipient, amount);\n\n        if (!asset.transfer(rewards, _amount - amount)) {\n            _error(ERROR_EXCHANGE_FEE_TRANSFER_FAILED);\n        }\n\n        return OK;\n    }\n\n    /**\n     * Transfer all tokens from exchange to specified address.\n     *\n     * Can be called only by contract owner.\n     *\n     * @param _recipient address to transfer tokens to.\n     *\n     * @return success.\n     */\n    function withdrawAllTokens(address _recipient) onlyContractOwner returns (uint) {\n        return withdrawTokens(_recipient, _balanceOf(this));\n    }\n\n    /**\n     * Transfer specified amount of wei from exchange to specified address.\n     *\n     * Can be called only by contract owner.\n     *\n     * @param _recipient address to transfer wei to.\n     * @param _amount amount of wei to transfer.\n     *\n     * @return success.\n     */\n    function withdrawEth(address _recipient, uint _amount) onlyContractOwner returns (uint) {\n        if (this.balance < _amount) {\n            return _error(ERROR_EXCHANGE_INSUFFICIENT_ETHER_SUPPLY);\n        }\n\n        uint amount = (_amount * 10000) / (10000 + feePercent);\n\n        if (!_recipient.send(amount)) {\n            return _error(ERROR_EXCHANGE_TRANSFER_FAILED);\n        }\n\n        WithdrawEth(_recipient, amount);\n\n        if (!rewards.send(_amount - amount)) {\n            return _error(ERROR_EXCHANGE_FEE_TRANSFER_FAILED);\n        }\n\n        return OK;\n    }\n\n    /**\n     * Transfer all wei from exchange to specified address.\n     *\n     * Can be called only by contract owner.\n     *\n     * @param _recipient address to transfer wei to.\n     *\n     * @return success.\n     */\n    function withdrawAllEth(address _recipient) onlyContractOwner() returns (uint) {\n        return withdrawEth(_recipient, this.balance);\n    }\n\n    /**\n     * Transfer all tokens and wei from exchange to specified address.\n     *\n     * Can be called only by contract owner.\n     *\n     * @param _recipient address to transfer tokens and wei to.\n     *\n     * @return success.\n     */\n    function withdrawAll(address _recipient) onlyContractOwner returns (uint) {\n        uint withdrawAllTokensResult = withdrawAllTokens(_recipient);\n        if (withdrawAllTokensResult != OK) {\n            return withdrawAllTokensResult;\n        }\n\n        uint withdrawAllEthResult = withdrawAllEth(_recipient);\n        if (withdrawAllEthResult != OK) {\n            return withdrawAllEthResult;\n        }\n\n        return OK;\n    }\n\n    function emitError(uint errorCode) {\n        Error(errorCode);\n    }\n\n    function emitFeeUpdated(uint feePercent) {\n        FeeUpdated(msg.sender, feePercent);\n    }\n\n    function emitPricesUpdated(uint buyPrice, uint sellPrice) {\n        PricesUpdated(msg.sender, buyPrice, sellPrice);\n    }\n\n    function emitActiveChanged(bool isActive) {\n        ActiveChanged(msg.sender, isActive);\n    }\n\n    function getEventsHistory() constant returns (ExchangeEmitter) {\n        return address(eventsHistory) != 0x0 ? eventsHistory : ExchangeEmitter(this);\n    }\n    /**\n     * Overflow-safe multiplication.\n     *\n     * Throws in case of value overflow.\n     *\n     * @param _a first operand.\n     * @param _b second operand.\n     *\n     * @return multiplication result.\n     */\n    function _mul(uint _a, uint _b) internal constant returns (uint) {\n        uint result = _a * _b;\n        if (_a != 0 && result / _a != _b) {\n            throw;\n        }\n        return result;\n    }\n\n    /**\n     * Accept all ether to maintain exchange supply.\n     */\n    function() payable {\n        if (msg.value != 0) {\n            ReceivedEther(msg.sender, msg.value);\n        } else {\n            throw;\n        }\n    }\n}\n",
  "sourcePath": "/Users/ahiatsevich/Development/chronobank/SmartContracts/contracts/exchange/Exchange.sol",
  "compiler": {
    "name": "solc",
    "version": "0.4.18+commit.9cf6e910.Emscripten.clang"
  },
  "schemaVersion": "1.0.1",
  "updatedAt": "2017-11-15T09:25:14.929Z"
}