{
  "contractName": "ExchangeManager",
  "abi": [
    {
      "constant": false,
      "inputs": [
        {
          "name": "exchange",
          "type": "address"
        },
        {
          "name": "symbol",
          "type": "bytes32"
        }
      ],
      "name": "emitExchangeRemoved",
      "outputs": [],
      "payable": false,
      "stateMutability": "nonpayable",
      "type": "function"
    },
    {
      "constant": false,
      "inputs": [
        {
          "name": "user",
          "type": "address"
        },
        {
          "name": "exchange",
          "type": "address"
        },
        {
          "name": "symbol",
          "type": "bytes32"
        }
      ],
      "name": "emitExchangeCreated",
      "outputs": [],
      "payable": false,
      "stateMutability": "nonpayable",
      "type": "function"
    },
    {
      "constant": false,
      "inputs": [],
      "name": "claimContractOwnership",
      "outputs": [
        {
          "name": "",
          "type": "bool"
        }
      ],
      "payable": false,
      "stateMutability": "nonpayable",
      "type": "function"
    },
    {
      "constant": false,
      "inputs": [],
      "name": "removeExchange",
      "outputs": [
        {
          "name": "errorCode",
          "type": "uint256"
        }
      ],
      "payable": false,
      "stateMutability": "nonpayable",
      "type": "function"
    },
    {
      "constant": true,
      "inputs": [
        {
          "name": "_identifier",
          "type": "bytes32"
        }
      ],
      "name": "lookupManager",
      "outputs": [
        {
          "name": "manager",
          "type": "address"
        }
      ],
      "payable": false,
      "stateMutability": "view",
      "type": "function"
    },
    {
      "constant": true,
      "inputs": [],
      "name": "contractsManager",
      "outputs": [
        {
          "name": "",
          "type": "address"
        }
      ],
      "payable": false,
      "stateMutability": "view",
      "type": "function"
    },
    {
      "constant": false,
      "inputs": [
        {
          "name": "_symbol",
          "type": "bytes32"
        },
        {
          "name": "_buyPrice",
          "type": "uint256"
        },
        {
          "name": "_sellPrice",
          "type": "uint256"
        },
        {
          "name": "_useExternalPriceTicker",
          "type": "bool"
        },
        {
          "name": "_authorizedManager",
          "type": "address"
        },
        {
          "name": "_isActive",
          "type": "bool"
        }
      ],
      "name": "createExchange",
      "outputs": [
        {
          "name": "errorCode",
          "type": "uint256"
        }
      ],
      "payable": false,
      "stateMutability": "nonpayable",
      "type": "function"
    },
    {
      "constant": false,
      "inputs": [
        {
          "name": "_to",
          "type": "address"
        }
      ],
      "name": "changeContractOwnership",
      "outputs": [
        {
          "name": "",
          "type": "bool"
        }
      ],
      "payable": false,
      "stateMutability": "nonpayable",
      "type": "function"
    },
    {
      "constant": true,
      "inputs": [
        {
          "name": "_exchange",
          "type": "address"
        }
      ],
      "name": "isExchangeExists",
      "outputs": [
        {
          "name": "",
          "type": "bool"
        }
      ],
      "payable": false,
      "stateMutability": "view",
      "type": "function"
    },
    {
      "constant": true,
      "inputs": [],
      "name": "pendingContractOwner",
      "outputs": [
        {
          "name": "",
          "type": "address"
        }
      ],
      "payable": false,
      "stateMutability": "view",
      "type": "function"
    },
    {
      "constant": true,
      "inputs": [],
      "name": "getExchangeFactory",
      "outputs": [
        {
          "name": "",
          "type": "address"
        }
      ],
      "payable": false,
      "stateMutability": "view",
      "type": "function"
    },
    {
      "constant": false,
      "inputs": [
        {
          "name": "_eventsHistory",
          "type": "address"
        }
      ],
      "name": "setEventsHistory",
      "outputs": [],
      "payable": false,
      "stateMutability": "nonpayable",
      "type": "function"
    },
    {
      "constant": false,
      "inputs": [
        {
          "name": "_fee",
          "type": "uint256"
        }
      ],
      "name": "setFee",
      "outputs": [
        {
          "name": "",
          "type": "uint256"
        }
      ],
      "payable": false,
      "stateMutability": "nonpayable",
      "type": "function"
    },
    {
      "constant": false,
      "inputs": [
        {
          "name": "_contractsManager",
          "type": "address"
        }
      ],
      "name": "setContractsManager",
      "outputs": [],
      "payable": false,
      "stateMutability": "nonpayable",
      "type": "function"
    },
    {
      "constant": true,
      "inputs": [
        {
          "name": "_owner",
          "type": "address"
        }
      ],
      "name": "getExchangesForOwner",
      "outputs": [
        {
          "name": "",
          "type": "address[]"
        }
      ],
      "payable": false,
      "stateMutability": "view",
      "type": "function"
    },
    {
      "constant": true,
      "inputs": [
        {
          "name": "_exchanges",
          "type": "address[]"
        }
      ],
      "name": "getExchangeData",
      "outputs": [
        {
          "name": "symbols",
          "type": "bytes32[]"
        },
        {
          "name": "buyPrices",
          "type": "uint256[]"
        },
        {
          "name": "sellPrices",
          "type": "uint256[]"
        },
        {
          "name": "assetBalances",
          "type": "uint256[]"
        },
        {
          "name": "ethBalances",
          "type": "uint256[]"
        }
      ],
      "payable": false,
      "stateMutability": "view",
      "type": "function"
    },
    {
      "constant": false,
      "inputs": [],
      "name": "destroy",
      "outputs": [],
      "payable": false,
      "stateMutability": "nonpayable",
      "type": "function"
    },
    {
      "constant": true,
      "inputs": [],
      "name": "getExchangesCount",
      "outputs": [
        {
          "name": "",
          "type": "uint256"
        }
      ],
      "payable": false,
      "stateMutability": "view",
      "type": "function"
    },
    {
      "constant": false,
      "inputs": [
        {
          "name": "user",
          "type": "address"
        },
        {
          "name": "exchange",
          "type": "address"
        },
        {
          "name": "symbol",
          "type": "bytes32"
        }
      ],
      "name": "emitExchangeAdded",
      "outputs": [],
      "payable": false,
      "stateMutability": "nonpayable",
      "type": "function"
    },
    {
      "constant": false,
      "inputs": [
        {
          "name": "_to",
          "type": "address"
        }
      ],
      "name": "transferContractOwnership",
      "outputs": [
        {
          "name": "",
          "type": "bool"
        }
      ],
      "payable": false,
      "stateMutability": "nonpayable",
      "type": "function"
    },
    {
      "constant": true,
      "inputs": [
        {
          "name": "_fromIdx",
          "type": "uint256"
        },
        {
          "name": "_length",
          "type": "uint256"
        }
      ],
      "name": "getExchanges",
      "outputs": [
        {
          "name": "result",
          "type": "address[]"
        }
      ],
      "payable": false,
      "stateMutability": "view",
      "type": "function"
    },
    {
      "constant": true,
      "inputs": [],
      "name": "contractOwner",
      "outputs": [
        {
          "name": "",
          "type": "address"
        }
      ],
      "payable": false,
      "stateMutability": "view",
      "type": "function"
    },
    {
      "constant": true,
      "inputs": [],
      "name": "getFee",
      "outputs": [
        {
          "name": "",
          "type": "uint256"
        }
      ],
      "payable": false,
      "stateMutability": "view",
      "type": "function"
    },
    {
      "constant": false,
      "inputs": [
        {
          "name": "_exchangeFactory",
          "type": "address"
        }
      ],
      "name": "setExchangeFactory",
      "outputs": [
        {
          "name": "",
          "type": "uint256"
        }
      ],
      "payable": false,
      "stateMutability": "nonpayable",
      "type": "function"
    },
    {
      "constant": false,
      "inputs": [
        {
          "name": "tokens",
          "type": "address[]"
        },
        {
          "name": "_to",
          "type": "address"
        }
      ],
      "name": "withdrawnTokens",
      "outputs": [
        {
          "name": "",
          "type": "uint256"
        }
      ],
      "payable": false,
      "stateMutability": "nonpayable",
      "type": "function"
    },
    {
      "constant": false,
      "inputs": [
        {
          "name": "errorCode",
          "type": "uint256"
        }
      ],
      "name": "emitError",
      "outputs": [],
      "payable": false,
      "stateMutability": "nonpayable",
      "type": "function"
    },
    {
      "constant": true,
      "inputs": [
        {
          "name": "_owner",
          "type": "address"
        }
      ],
      "name": "getExchangesForOwnerCount",
      "outputs": [
        {
          "name": "",
          "type": "uint256"
        }
      ],
      "payable": false,
      "stateMutability": "view",
      "type": "function"
    },
    {
      "constant": false,
      "inputs": [
        {
          "name": "_contractsManager",
          "type": "address"
        },
        {
          "name": "_exchangeFactory",
          "type": "address"
        }
      ],
      "name": "init",
      "outputs": [
        {
          "name": "",
          "type": "uint256"
        }
      ],
      "payable": false,
      "stateMutability": "nonpayable",
      "type": "function"
    },
    {
      "constant": true,
      "inputs": [
        {
          "name": "key",
          "type": "address"
        }
      ],
      "name": "isAuthorized",
      "outputs": [
        {
          "name": "",
          "type": "bool"
        }
      ],
      "payable": false,
      "stateMutability": "view",
      "type": "function"
    },
    {
      "constant": true,
      "inputs": [],
      "name": "getEventsHistory",
      "outputs": [
        {
          "name": "",
          "type": "address"
        }
      ],
      "payable": false,
      "stateMutability": "view",
      "type": "function"
    },
    {
      "inputs": [
        {
          "name": "_store",
          "type": "address"
        },
        {
          "name": "_crate",
          "type": "bytes32"
        }
      ],
      "payable": false,
      "stateMutability": "nonpayable",
      "type": "constructor"
    },
    {
      "anonymous": false,
      "inputs": [
        {
          "indexed": true,
          "name": "self",
          "type": "address"
        },
        {
          "indexed": true,
          "name": "user",
          "type": "address"
        },
        {
          "indexed": false,
          "name": "exchange",
          "type": "address"
        },
        {
          "indexed": false,
          "name": "symbol",
          "type": "bytes32"
        }
      ],
      "name": "ExchangeCreated",
      "type": "event"
    },
    {
      "anonymous": false,
      "inputs": [
        {
          "indexed": true,
          "name": "self",
          "type": "address"
        },
        {
          "indexed": true,
          "name": "user",
          "type": "address"
        },
        {
          "indexed": false,
          "name": "exchange",
          "type": "address"
        },
        {
          "indexed": false,
          "name": "symbol",
          "type": "bytes32"
        }
      ],
      "name": "ExchangeAdded",
      "type": "event"
    },
    {
      "anonymous": false,
      "inputs": [
        {
          "indexed": true,
          "name": "self",
          "type": "address"
        },
        {
          "indexed": false,
          "name": "exchange",
          "type": "address"
        },
        {
          "indexed": false,
          "name": "symbol",
          "type": "bytes32"
        }
      ],
      "name": "ExchangeRemoved",
      "type": "event"
    },
    {
      "anonymous": false,
      "inputs": [
        {
          "indexed": true,
          "name": "self",
          "type": "address"
        },
        {
          "indexed": false,
          "name": "errorCode",
          "type": "uint256"
        }
      ],
      "name": "Error",
      "type": "event"
    }
  ],
  "bytecode": "0x606060405234156200001057600080fd5b60405160408062002c558339810160405280805191906020018051915082905081818181816200005160008383640100000000620027b46200017f82021704565b505060028054600160a060020a03338116600160a060020a03199283161790925560058054309093169290911691909117905550620000c69250600791507f65785f6d5f65786368616e6765730000000000000000000000000000000000009050640100000000620027da620001a582021704565b62000101600a7f65785f6d5f6f776e657273000000000000000000000000000000000000000000640100000000620028a7620002b482021704565b6200013c60067f65785f6d5f65786368616e6765466163746f7279000000000000000000000000640100000000620028b1620002ce82021704565b62000177600d7f65785f6d5f666565000000000000000000000000000000000000000000000000640100000000620028b1620002ce82021704565b505062000320565b8254600160a060020a031916600160a060020a0392909216919091178255600190910155565b620001fc82826040519081527f636f756e7400000000000000000000000000000000000000000000000000000060208201526025016040518091039020620002ce64010000000002620028b1176401000000009004565b6200025682600101826040519081527f696e64657865730000000000000000000000000000000000000000000000000060208201526027016040518091039020620002ce64010000000002620028b1176401000000009004565b620002b082600201826040519081527f76616c756573000000000000000000000000000000000000000000000000000060208201526026016040518091039020620002ce64010000000002620028b1176401000000009004565b5050565b620002b08282640100000000620028d9620002ee82021704565b8154620002ea9082640100000000620028e36200030882021704565b9055565b620002b08282640100000000620027da620001a582021704565b8115158062000315575080155b15620002b057600080fd5b61292580620003306000396000f3006060604052600436106101665763ffffffff60e060020a6000350416630c629c27811461016b57806338aef6ec1461018f5780634592cd1d146101b75780634ea3b642146101de5780634fe590121461020357806353253d3114610235578063551d483014610248578063557f4bc91461027a57806358f09007146102995780635aa77d3c146102b85780635ddcdc67146102cb5780636521afd7146102de57806369fe0e2d146102fd57806371d3b5731461031357806372ffb5431461033257806379f4289a146103a457806383197ef01461052a578063a64f51d31461053d578063a82ca7e614610550578063a843c51f14610578578063c1f8ab5a14610597578063ce606ee0146105b0578063ced72f87146105c3578063d12ebeaa146105d6578063d8f9659b146105f5578063df26ca081461064f578063e425c90714610665578063f09a401614610684578063fe9fbb80146106a9578063fff10aba146106c8575b600080fd5b341561017657600080fd5b61018d600160a060020a03600435166024356106db565b005b341561019a57600080fd5b61018d600160a060020a0360043581169060243516604435610734565b34156101c257600080fd5b6101ca610798565b604051901515815260200160405180910390f35b34156101e957600080fd5b6101f16107e5565b60405190815260200160405180910390f35b341561020e57600080fd5b610219600435610920565b604051600160a060020a03909116815260200160405180910390f35b341561024057600080fd5b6102196109a9565b341561025357600080fd5b6101f16004356024356044356064351515600160a060020a036084351660a43515156109b8565b341561028557600080fd5b6101ca600160a060020a03600435166109e2565b34156102a457600080fd5b6101ca600160a060020a0360043516610a39565b34156102c357600080fd5b610219610a5c565b34156102d657600080fd5b610219610a6b565b34156102e957600080fd5b61018d600160a060020a0360043516610a83565b341561030857600080fd5b6101f1600435610ab9565b341561031e57600080fd5b61018d600160a060020a0360043516610af2565b341561033d57600080fd5b610351600160a060020a0360043516610b29565b60405160208082528190810183818151815260200191508051906020019060200280838360005b83811015610390578082015183820152602001610378565b505050509050019250505060405180910390f35b34156103af57600080fd5b6103c26004803560248101910135610b4d565b60405180806020018060200180602001806020018060200186810386528b818151815260200191508051906020019060200280838360005b838110156104125780820151838201526020016103fa565b5050505090500186810385528a818151815260200191508051906020019060200280838360005b83811015610451578082015183820152602001610439565b50505050905001868103845289818151815260200191508051906020019060200280838360005b83811015610490578082015183820152602001610478565b50505050905001868103835288818151815260200191508051906020019060200280838360005b838110156104cf5780820151838201526020016104b7565b50505050905001868103825287818151815260200191508051906020019060200280838360005b8381101561050e5780820151838201526020016104f6565b505050509050019a505050505050505050505060405180910390f35b341561053557600080fd5b61018d610e8e565b341561054857600080fd5b6101f1610f24565b341561055b57600080fd5b61018d600160a060020a0360043581169060243516604435610f37565b341561058357600080fd5b6101ca600160a060020a0360043516610f9b565b34156105a257600080fd5b610351600435602435611014565b34156105bb57600080fd5b610219611093565b34156105ce57600080fd5b6101f16110a2565b34156105e157600080fd5b6101f1600160a060020a03600435166110b5565b341561060057600080fd5b6101f1600460248135818101908301358060208181020160405190810160405280939291908181526020018383602002808284375094965050509235600160a060020a031692506110f7915050565b341561065a57600080fd5b61018d600435611248565b341561067057600080fd5b6101f1600160a060020a036004351661128f565b341561068f57600080fd5b6101f1600160a060020a03600435811690602435166112ac565b34156106b457600080fd5b6101ca600160a060020a036004351661130f565b34156106d357600080fd5b6102196113b5565b6106e36113c4565b600160a060020a03167fff447254e8eb62495d621adbd4899248f7483073cd7c918298b2b7afe6bdf6228383604051600160a060020a03909216825260208201526040908101905180910390a25050565b82600160a060020a03166107466113c4565b600160a060020a03167f6a84675961d2628de8cb5e74e0aa70bec82c75c587b2eeb89377315ff8cab8cf8484604051600160a060020a03909216825260208201526040908101905180910390a3505050565b60035460009033600160a060020a039081169116146107b9575060006107e2565b506003805460028054600160a060020a0319908116600160a060020a0384161790915516905560015b90565b6000806107f133610a39565b151561080957610802611b586113c8565b915061091c565b61082560006007600160a060020a03331663ffffffff61143116565b61082d6113b5565b600160a060020a031663ab0da5a93360405160e060020a63ffffffff8416028152600160a060020a039091166004820152602401600060405180830381600087803b151561087a57600080fd5b6102c65a03f1151561088b57600080fd5b50505033600160a060020a031663ce606ee06000604051602001526040518163ffffffff1660e060020a028152600401602060405180830381600087803b15156108d457600080fd5b6102c65a03f115156108e557600080fd5b5050506040518051915061090e90506000600a600160a060020a0384163363ffffffff61144b16565b61091733611466565b600191505b5090565b600454600090600160a060020a031663bc65792783836040516020015260405160e060020a63ffffffff84160281526004810191909152602401602060405180830381600087803b151561097357600080fd5b6102c65a03f1151561098457600080fd5b5050506040518051915050600160a060020a03811615156109a457600080fd5b919050565b600454600160a060020a031681565b60006109d7878787878787602060405190810160405260008152611546565b979650505050505050565b60025460009033600160a060020a03908116911614156109a457600160a060020a0382161515610a14575060006109a4565b5060038054600160a060020a038316600160a060020a03199091161790556001919050565b6000610a56816007600160a060020a03851663ffffffff611d0616565b92915050565b600354600160a060020a031681565b6000610a7e81600663ffffffff611d2516565b905090565b60025433600160a060020a0390811691161415610ab65760058054600160a060020a031916600160a060020a0383161790555b50565b6000610ac43361130f565b156109a4576127108210610ad757600080fd5b610aea6000600d8463ffffffff611d8416565b506001919050565b60025433600160a060020a0390811691161415610ab65760048054600160a060020a038316600160a060020a031990911617905550565b610b316127a2565b610a566000600a600160a060020a03851663ffffffff611dfd16565b610b556127a2565b610b5d6127a2565b610b656127a2565b610b6d6127a2565b610b756127a2565b60008087604051805910610b865750595b9080825280602002602001820160405250965087604051805910610ba75750595b9080825280602002602001820160405250955087604051805910610bc85750595b9080825280602002602001820160405250945087604051805910610be95750595b9080825280602002602001820160405250935087604051805910610c0a5750595b90808252806020026020018201604052509250600091505b87821015610e8257610c4e898984818110610c3957fe5b90506020020135600160a060020a0316610a39565b15610e7757888883818110610c5f57fe5b90506020020135600160a060020a03169050610cda81600160a060020a03166338d52e0f6000604051602001526040518163ffffffff1660e060020a028152600401602060405180830381600087803b1515610cba57600080fd5b6102c65a03f11515610ccb57600080fd5b50505060405180519050611e18565b878381518110610ce657fe5b60209081029091010152600160a060020a038116638620410b6000604051602001526040518163ffffffff1660e060020a028152600401602060405180830381600087803b1515610d3657600080fd5b6102c65a03f11515610d4757600080fd5b50505060405180519050868381518110610d5d57fe5b60209081029091010152600160a060020a038116634b7503346000604051602001526040518163ffffffff1660e060020a028152600401602060405180830381600087803b1515610dad57600080fd5b6102c65a03f11515610dbe57600080fd5b50505060405180519050858381518110610dd457fe5b60209081029091010152600160a060020a03811663c66f24556000604051602001526040518163ffffffff1660e060020a028152600401602060405180830381600087803b1515610e2457600080fd5b6102c65a03f11515610e3557600080fd5b50505060405180519050848381518110610e4b57fe5b60209081029091010152600160a060020a03811631838381518110610e6c57fe5b602090810290910101525b600190910190610c22565b50509295509295909350565b60025433600160a060020a0390811691161415610f2257600454600160a060020a031663c375c2ef3060006040516020015260405160e060020a63ffffffff8416028152600160a060020a039091166004820152602401602060405180830381600087803b1515610efe57600080fd5b6102c65a03f11515610f0f57600080fd5b5050506040518051905050610f22611ec5565b565b6000610a7e81600763ffffffff611ee816565b82600160a060020a0316610f496113c4565b600160a060020a03167fb929f1a44cd381443aa85ced960a716b8d3325963a64da27f16621f61baa23f38484604051600160a060020a03909216825260208201526040908101905180910390a3505050565b60025460009033600160a060020a03908116911614156109a457600160a060020a0382161515610fcd575060006109a4565b600354600160a060020a031615610fef5760038054600160a060020a03191690555b5060028054600160a060020a038316600160a060020a03199091161790556001919050565b61101c6127a2565b60008260405180591061102c5750595b90808252806020026020018201604052509150600090505b8281101561108c576110616000600783870163ffffffff611f0516565b82828151811061106d57fe5b600160a060020a03909216602092830290910190910152600101611044565b5092915050565b600254600160a060020a031681565b6000610a7e81600d63ffffffff611f1c16565b60025460009033600160a060020a03908116911614156109a457600160a060020a03821615156110e457600080fd5b610aea600060068463ffffffff611f7b16565b60025460009081908190819033600160a060020a039081169116141561123f57600092505b855183101561123a5785838151811061113157fe5b90602001906020020151915081600160a060020a03166370a082313060006040516020015260405160e060020a63ffffffff8416028152600160a060020a039091166004820152602401602060405180830381600087803b151561119457600080fd5b6102c65a03f115156111a557600080fd5b5050506040518051915050801561122f5781600160a060020a031663a9059cbb868360006040516020015260405160e060020a63ffffffff8516028152600160a060020a0390921660048301526024820152604401602060405180830381600087803b151561121357600080fd5b6102c65a03f1151561122457600080fd5b505050604051805150505b60019092019161111c565b600193505b50505092915050565b6112506113c4565b600160a060020a03167f9cf38cf2dbf9139f5c32639950507b10775fbbe0421f3e168bc2d1bb1ae3208c8260405190815260200160405180910390a250565b6000610a5681600a600160a060020a03851663ffffffff611fe416565b60025460009033600160a060020a0390811691161415610a56576112f0837f45786368616e67654d616e616765720000000000000000000000000000000000611ff1565b5060016112fc836110b5565b1461130657600080fd5b50600192915050565b60008061133b7f557365724d616e61676572000000000000000000000000000000000000000000610920565b905080600160a060020a0316632aa09e5a8460006040516020015260405160e060020a63ffffffff8416028152600160a060020a039091166004820152602401602060405180830381600087803b151561139457600080fd5b6102c65a03f115156113a557600080fd5b5050506040518051949350505050565b600554600160a060020a031690565b3390565b60006113d26113b5565b600160a060020a031663df26ca088360405160e060020a63ffffffff84160281526004810191909152602401600060405180830381600087803b151561141757600080fd5b6102c65a03f1151561142857600080fd5b50929392505050565b611446838360ea60020a621cd95d02846121e2565b505050565b611460848484600160a060020a038516612290565b50505050565b600081600160a060020a03166338d52e0f6000604051602001526040518163ffffffff1660e060020a028152600401602060405180830381600087803b15156114ae57600080fd5b6102c65a03f115156114bf57600080fd5b5050506040518051905090506114d36113b5565b600160a060020a0316630c629c27836114eb84611e18565b60405160e060020a63ffffffff8516028152600160a060020a0390921660048301526024820152604401600060405180830381600087803b151561152e57600080fd5b6102c65a03f1151561153f57600080fd5b5050505050565b6000806000808461155561229c565b600160a060020a031663709586c13330600035600160e060020a03191660006040516020015260405160e060020a63ffffffff8616028152600160a060020a039384166004820152919092166024820152600160e060020a03199091166044820152606401602060405180830381600087803b15156115d357600080fd5b6102c65a03f115156115e457600080fd5b505050604051805190501515611600576155f060005260206000f35b6116086122c7565b600160a060020a031663fa7fdeb78d60006040516020015260405160e060020a63ffffffff84160281526004810191909152602401602060405180830381600087803b151561165657600080fd5b6102c65a03f1151561166757600080fd5b5050506040518051945050600160a060020a03841615156116945761168d611b5a6113c8565b9450611c3b565b6116bd7f5265776172647300000000000000000000000000000000000000000000000000610920565b9250600160a060020a03831615156116da5761168d611b596113c8565b6116e2610a6b565b600160a060020a0316637d3af3a46000604051602001526040518163ffffffff1660e060020a028152600401602060405180830381600087803b151561172757600080fd5b6102c65a03f1151561173857600080fd5b50505060405180519050915061174c6113b5565b600160a060020a031663b6a5d7de8360006040516020015260405160e060020a63ffffffff8416028152600160a060020a039091166004820152602401602060405180830381600087803b15156117a257600080fd5b6102c65a03f115156117b357600080fd5b5050506040518051905015156117c857600080fd5b600454600160a060020a03808416916346639dba911686866117e86110a2565b60006040516020015260405160e060020a63ffffffff8716028152600160a060020a0394851660048201529284166024840152921660448201526064810191909152608401602060405180830381600087803b151561184657600080fd5b6102c65a03f1151561185757600080fd5b5050506040518051505060008b118015611871575060008a115b156118ff57600182600160a060020a031663935bb7678d8d8d60006040516020015260405160e060020a63ffffffff86160281526004810193909352602483019190915215156044820152606401602060405180830381600087803b15156118d857600080fd5b6102c65a03f115156118e957600080fd5b505050604051805190501415156118ff57600080fd5b600160a060020a0388161561198e57600182600160a060020a03166394f3ed318a60006040516020015260405160e060020a63ffffffff8416028152600160a060020a039091166004820152602401602060405180830381600087803b151561196757600080fd5b6102c65a03f1151561197857600080fd5b5050506040518051905014151561198e57600080fd5b600182600160a060020a031663acec338a8960006040516020015260405160e060020a63ffffffff84160281529015156004820152602401602060405180830381600087803b15156119df57600080fd5b6102c65a03f115156119f057600080fd5b50505060405180519050141515611a0657600080fd5b81600160a060020a031663a843c51f3360006040516020015260405160e060020a63ffffffff8416028152600160a060020a039091166004820152602401602060405180830381600087803b1515611a5d57600080fd5b6102c65a03f11515611a6e57600080fd5b505050604051805190501515611a8357600080fd5b611a9f60006007600160a060020a03851663ffffffff6122f216565b611abc6000600a600160a060020a0333168563ffffffff61230716565b33600160a060020a031682600160a060020a031663ce606ee06000604051602001526040518163ffffffff1660e060020a028152600401602060405180830381600087803b1515611b0c57600080fd5b6102c65a03f11515611b1d57600080fd5b50505060405180519050600160a060020a0316141515611b3957fe5b82600160a060020a031682600160a060020a0316639ec5a8946000604051602001526040518163ffffffff1660e060020a028152600401602060405180830381600087803b1515611b8957600080fd5b6102c65a03f11515611b9a57600080fd5b50505060405180519050600160a060020a0316141515611bb657fe5b611bbe6110a2565b82600160a060020a0316637fd6f15c6000604051602001526040518163ffffffff1660e060020a028152600401602060405180830381600087803b1515611c0457600080fd5b6102c65a03f11515611c1557600080fd5b50505060405180519050141515611c2857fe5b611c3333838e61231c565b600180875294505b60018151148015611ced57506001611c5161229c565b600160a060020a03166384509ca83330600035600160e060020a03191660006040516020015260405160e060020a63ffffffff8616028152600160a060020a039384166004820152919092166024820152600160e060020a03199091166044820152606401602060405180830381600087803b1515611ccf57600080fd5b6102c65a03f11515611ce057600080fd5b5050506040518051905014155b15611cf757600080fd5b50505050979650505050505050565b6000611d1d848460ea60020a621cd95d0285612384565b949350505050565b815460018301548254600092600160a060020a03169163d3a3968691846040516020015260405160e060020a63ffffffff851602815260048101929092526024820152604401602060405180830381600087803b151561139457600080fd5b825460018401548354600160a060020a03909216916353e7168b91908460405160e060020a63ffffffff8616028152600481019390935260248301919091526044820152606401600060405180830381600087803b1515611de457600080fd5b6102c65a03f11515611df557600080fd5b505050505050565b611e056127a2565b611d1d611e138585856123a0565b6123b3565b600080611e236122c7565b600160a060020a0316637abccac984600060405160e0015260405160e060020a63ffffffff8416028152600160a060020a03909116600482015260240160e060405180830381600087803b1515611e7957600080fd5b6102c65a03f11515611e8a57600080fd5b505050604051805190602001805190602001805190602001805190602001805190602001805190602001805150939998505050505050505050565b60025433600160a060020a0390811691161415610f225733600160a060020a0316ff5b6000611efe838360ea60020a621cd95d02612436565b9392505050565b6000611d1d848460ea60020a621cd95d0285612443565b815460018301548254600092600160a060020a0316916353aa3f5e91846040516020015260405160e060020a63ffffffff851602815260048101929092526024820152604401602060405180830381600087803b151561139457600080fd5b825460018401548354600160a060020a03909216916379a7cfee91908460405160e060020a63ffffffff861602815260048101939093526024830191909152600160a060020a03166044820152606401600060405180830381600087803b1515611de457600080fd5b6000611d1d848484612460565b60025460009081908190819033600160a060020a0390811691161461201557600080fd5b600160a060020a038616151561202a57600080fd5b600454600160a060020a03161580159350806120545750600454600160a060020a03878116911614155b156120755760048054600160a060020a031916600160a060020a0388161790555b600454600160a060020a031691508163bc65792760006040516020015260405160e060020a63ffffffff83160281527f4d756c74694576656e7473486973746f727900000000000000000000000000006004820152602401602060405180830381600087803b15156120e657600080fd5b6102c65a03f115156120f757600080fd5b5050506040518051915050600160a060020a038116158015906121285750600554600160a060020a03828116911614155b156121495760058054600160a060020a031916600160a060020a0383161790555b84156121d05781600160a060020a031663b7c46cd5308760006040516020015260405160e060020a63ffffffff8516028152600160a060020a0390921660048301526024820152604401602060405180830381600087803b15156121ac57600080fd5b6102c65a03f115156121bd57600080fd5b505050604051805160011490506121d057fe5b821561123a5760069695505050505050565b60008060006121f387878787612384565b15156121fe57612287565b612209878787612436565b925061221a8760028801878661246d565b915061222b8787600101878761246d565b905082811015612255576122458760018801878585612492565b6122558760028801878486612492565b612266876001880187876000612492565b612277876002880187866000612492565b61228787878760001987016124b6565b50505050505050565b611460848484846121e2565b6000610a7e7f466561747572654665654d616e61676572000000000000000000000000000000610920565b6000610a7e7f45524332304d616e616765720000000000000000000000000000000000000000610920565b611446838360ea60020a621cd95d028461253f565b611460848484600160a060020a038516612593565b6123246113b5565b600160a060020a03166338aef6ec84848460405160e060020a63ffffffff8616028152600160a060020a0393841660048201529190921660248201526044810191909152606401600060405180830381600087803b1515611de457600080fd5b60006123958585600101858561246d565b151595945050505050565b6123a86127a2565b611d1d84848461259f565b6123bb6127a2565b6123c36127a2565b600083516040518059106123d45750595b90808252806020026020018201604052509150600090505b835181101561108c5783818151811061240157fe5b9060200190602002015182828151811061241757fe5b600160a060020a039092166020928302909101909101526001016123ec565b6000611d1d848484612618565b60006124578560028601856001860161246d565b95945050505050565b6000611d1d848484612436565b60006124578585858560405191825260208201526040908101905180910390206126b2565b61153f8585858560405191825260208201526040908101905180910390208461272a565b835460018501548454600160a060020a03909216916353e7168b91908560405191825260208201526040908101905180910390208460405160e060020a63ffffffff8616028152600481019390935260248301919091526044820152606401600060405180830381600087803b151561252e57600080fd5b6102c65a03f1151561228757600080fd5b600061254d85858585612384565b156125575761153f565b612562858585612436565b60010190506125778560028601858486612492565b6125878560018601858585612492565b61153f858585846124b6565b6114608484848461253f565b6125a76127a2565b6000806125b5868686612436565b9150816040518059106125c55750595b90808252806020026020018201604052509250600090505b8181101561260f576125f186868684612443565b8382815181106125fd57fe5b602090810290910101526001016125dd565b50509392505050565b825460018401548354600092600160a060020a0316916353aa3f5e9185604051918252602082015260409081019051809103902060006040516020015260405160e060020a63ffffffff851602815260048101929092526024820152604401602060405180830381600087803b151561269057600080fd5b6102c65a03f115156126a157600080fd5b505050604051805195945050505050565b825460018401548354600092600160a060020a0316916337d9d7fc9185604051918252602082015260409081019051809103902060006040516020015260405160e060020a63ffffffff851602815260048101929092526024820152604401602060405180830381600087803b151561269057600080fd5b835460018501548454600160a060020a039092169163a14ff85791908560405191825260208201526040908101905180910390208460405160e060020a63ffffffff8616028152600481019390935260248301919091526044820152606401600060405180830381600087803b151561252e57600080fd5b60206040519081016040526000815290565b8254600160a060020a031916600160a060020a0392909216919091178255600190910155565b61281b82826040519081527f636f756e74000000000000000000000000000000000000000000000000000000602082015260250160405180910390206128b1565b61285f82600101826040519081527f696e646578657300000000000000000000000000000000000000000000000000602082015260270160405180910390206128b1565b6128a382600201826040519081527f76616c7565730000000000000000000000000000000000000000000000000000602082015260260160405180910390206128b1565b5050565b6128a382826128d9565b81546128bd90826128e3565b9055565b81546128bd90826128e3565b81546128bd90826128e3565b6128a382826127da565b811515806128ef575080155b156128a357600080fd00a165627a7a723058204b6c68fafb68b2d030f418fa387574e08686a851f47c677a2894ef8dbed8f9d60029",
  "source": "pragma solidity ^0.4.11;\n\nimport \"../core/common/BaseManager.sol\";\nimport \"../core/erc20/ERC20Manager.sol\";\nimport \"../core/event/MultiEventsHistory.sol\";\nimport {ERC20Interface as Asset} from \"../core/erc20/ERC20Interface.sol\";\n\nimport \"./Exchange.sol\";\nimport \"./ExchangeManagerEmitter.sol\";\nimport \"./ExchangeFactory.sol\";\nimport \"../timeholder/FeatureFeeAdapter.sol\";\n\n/// @title ExchangeManager\n///\n/// @notice ExchangeManager contract is the exchange registry which holds info\n/// about created exchanges and provides some util methods for managing it.\n///\n/// The entry point for creating new exchanges.\n///\n/// CBE users are permited to manage fee value against which an exchange will calculate fee.\ncontract ExchangeManager is FeatureFeeAdapter, ExchangeManagerEmitter, BaseManager {\n    uint constant ERROR_EXCHANGE_STOCK_NOT_FOUND = 7000;\n    uint constant ERROR_EXCHANGE_STOCK_INTERNAL = 7001;\n    uint constant ERROR_EXCHANGE_STOCK_UNKNOWN_SYMBOL = 7002;\n\n    StorageInterface.Address exchangeFactory;\n    StorageInterface.Set exchanges; // (exchange [])\n    StorageInterface.AddressesSetMapping owners; // (owner => exchange [])\n    StorageInterface.UInt fee;\n\n    modifier onlyExchangeContractOwner(address _exchange) {\n        if (Exchange(_exchange).contractOwner() == msg.sender) {\n            _;\n        }\n    }\n\n    /// Contructor\n    function ExchangeManager(Storage _store, bytes32 _crate) BaseManager(_store, _crate) public {\n        exchanges.init(\"ex_m_exchanges\");\n        owners.init(\"ex_m_owners\");\n        exchangeFactory.init(\"ex_m_exchangeFactory\");\n        fee.init(\"ex_m_fee\");\n    }\n\n    /// Initialises an exchange with the given params\n    function init(address _contractsManager, address _exchangeFactory)\n    public\n    onlyContractOwner\n    returns (uint)\n    {\n        BaseManager.init(_contractsManager, \"ExchangeManager\");\n        if (setExchangeFactory(_exchangeFactory) != OK) {\n            revert();\n        }\n        return OK;\n    }\n\n    /// Sets fee value against which the exchange should calculate fee.\n    ///\n    /// Note, only CBE members are allowed to set this value.\n    function setFee(uint _fee)\n    public\n    onlyAuthorized\n    returns (uint)\n    {\n        require(_fee < 10000);\n        store.set(fee, _fee);\n        return OK;\n    }\n\n    /// Sets the Exchange Factory address\n    function setExchangeFactory(address _exchangeFactory)\n    public\n    onlyContractOwner\n    returns (uint)\n    {\n        require(_exchangeFactory != 0x0);\n        store.set(exchangeFactory, _exchangeFactory);\n        return OK;\n    }\n\n    /// Creates a new exchange with the given params.\n    function createExchange(\n        bytes32 _symbol,\n        uint _buyPrice,\n        uint _sellPrice,\n        bool _useExternalPriceTicker,\n        address _authorizedManager,\n        bool _isActive)\n    public\n    returns (uint errorCode) {\n        return _createExchange(_symbol, _buyPrice, _sellPrice, _useExternalPriceTicker, _authorizedManager, _isActive, [uint(0)]);\n    }\n\n    function _createExchange(\n        bytes32 _symbol,\n        uint _buyPrice,\n        uint _sellPrice,\n        bool _useExternalPriceTicker,\n        address _authorizedManager,\n        bool _isActive,\n        uint[1] memory _result)\n    private\n    featured(_result)\n    returns (uint errorCode)\n    {\n        address token = lookupERC20Manager().getTokenAddressBySymbol(_symbol);\n        if (token == 0x0) {\n            return _emitError(ERROR_EXCHANGE_STOCK_UNKNOWN_SYMBOL);\n        }\n\n        address rewards = lookupManager(\"Rewards\");\n        if (rewards == 0x0) {\n            return _emitError(ERROR_EXCHANGE_STOCK_INTERNAL);\n        }\n\n        Exchange exchange = Exchange(getExchangeFactory().createExchange());\n\n        if (!MultiEventsHistory(getEventsHistory()).authorize(exchange)) {\n            revert();\n        }\n\n        exchange.init(contractsManager, token, rewards, getFee());\n\n        if (_buyPrice > 0 && _sellPrice > 0) {\n            if (exchange.setPrices(_buyPrice, _sellPrice, _useExternalPriceTicker) != OK) {\n                revert();\n            }\n        }\n\n        if (_authorizedManager != 0x0) {\n            if (exchange.grantAuthorized(_authorizedManager) != OK) {\n                revert();\n            }\n        }\n\n        if (exchange.setActive(_isActive) != OK) {\n            revert();\n        }\n\n        if (!exchange.transferContractOwnership(msg.sender)) {\n            revert();\n        }\n\n        store.add(exchanges, bytes32(address(exchange)));\n        store.add(owners, bytes32(msg.sender), address(exchange));\n\n        assert(exchange.contractOwner() == msg.sender);\n        assert(exchange.rewards() == rewards);\n        assert(exchange.feePercent() == getFee());\n\n        _emitExchangeCreated(msg.sender, exchange, _symbol);\n\n        _result[0] = OK;\n        return OK;\n    }\n\n    /// Deletes msg.sender from the exchange list.\n    /// Note: Designed to be called only by exchange contract.\n    function removeExchange()\n    public\n    returns (uint errorCode)\n    {\n        if (!isExchangeExists(msg.sender)) {\n            return _emitError(ERROR_EXCHANGE_STOCK_NOT_FOUND);\n        }\n\n        store.remove(exchanges, bytes32(msg.sender));\n        MultiEventsHistory(getEventsHistory()).reject(msg.sender);\n\n        address owner = Exchange(msg.sender).contractOwner();\n        store.remove(owners, bytes32(owner), msg.sender);\n\n        _emitExchangeRemoved(msg.sender);\n        return OK;\n    }\n\n    /// Tells whether the given _exchange is in registry.\n    function isExchangeExists(address _exchange) public view returns (bool) {\n        return store.includes(exchanges, bytes32(_exchange));\n    }\n\n    /// Returns the paginated array of excnhages, starting from _fromIdx and len _length.\n    function getExchanges(uint _fromIdx, uint _length) public view returns (address [] result) {\n        result = new address [] (_length);\n        for (uint idx = 0; idx < _length; idx++) {\n            result[idx] = address(store.get(exchanges, idx + _fromIdx));\n        }\n    }\n\n    /// Returns the count of the registered exchanges.\n    function getExchangesCount() public view returns (uint) {\n        return store.count(exchanges);\n    }\n\n    /// Returns the exchanges which belongs to the given _owner\n    function getExchangesForOwner(address _owner) public view returns (address []) {\n        return store.get(owners, bytes32(_owner));\n    }\n\n    /// Returns the number of exchanges which belongs to the given _owner\n    function getExchangesForOwnerCount(address _owner) public view returns (uint) {\n        return store.count(owners, bytes32(_owner));\n    }\n\n    /// The fee value against which the exchange should calculate fee.\n    function getFee() public view returns (uint) {\n        return store.get(fee);\n    }\n\n    /// Util method which returns agregated data for given _exchanges.\n    function getExchangeData(address [] _exchanges)\n    external\n    view\n    returns (bytes32 [] symbols,\n             uint [] buyPrices,\n             uint [] sellPrices,\n             uint [] assetBalances,\n             uint [] ethBalances)\n    {\n        symbols = new bytes32 [] (_exchanges.length);\n        buyPrices = new uint [] (_exchanges.length);\n        sellPrices = new uint [] (_exchanges.length);\n        assetBalances = new uint [] (_exchanges.length);\n        ethBalances = new uint [] (_exchanges.length);\n\n        for (uint idx = 0; idx < _exchanges.length; idx++) {\n            if (isExchangeExists(_exchanges[idx])) {\n                Exchange exchange = Exchange(_exchanges[idx]);\n\n                symbols[idx] = getSymbol(address(exchange.asset()));\n                buyPrices[idx] = exchange.buyPrice();\n                sellPrices[idx] = exchange.sellPrice();\n                assetBalances[idx] = exchange.assetBalance();\n                ethBalances[idx] = exchange.balance;\n            }\n        }\n    }\n\n    /// Returns the Exchange Factory address\n    function getExchangeFactory() public view returns (ExchangeFactory) {\n        return ExchangeFactory(store.get(exchangeFactory));\n    }\n\n    /// Retturns ERC20Manager address\n    function lookupERC20Manager() internal view returns (ERC20Manager) {\n        return ERC20Manager(lookupManager(\"ERC20Manager\"));\n    }\n\n    /// Returns the symbol of the given token\n    function getSymbol(address _token) internal view returns (bytes32) {\n        var (,,symbol,,,,) = lookupERC20Manager().getTokenMetaData(_token);\n        return symbol;\n    }\n\n    /* Events History util methods */\n\n    function _emitExchangeRemoved(address _exchange) internal {\n        Asset asset = Exchange(_exchange).asset();\n        ExchangeManagerEmitter(getEventsHistory())\n            .emitExchangeRemoved(_exchange, getSymbol(address(asset)));\n    }\n\n    function _emitExchangeAdded(address _user, address _exchange) internal {\n        Asset asset = Exchange(_exchange).asset();\n        ExchangeManagerEmitter(getEventsHistory())\n            .emitExchangeAdded(_user, _exchange, getSymbol(address(asset)));\n    }\n\n    function _emitExchangeCreated(\n        address _user,\n        address _exchange,\n        bytes32 _symbol)\n    internal\n    {\n        ExchangeManagerEmitter(getEventsHistory())\n            .emitExchangeCreated(_user, _exchange, _symbol);\n    }\n\n    function _emitError(uint error) internal returns (uint) {\n        ExchangeManagerEmitter(getEventsHistory()).emitError(error);\n        return error;\n    }\n}\n",
  "sourcePath": "/Users/ahiatsevich/Development/chronobank/SmartContracts/contracts/exchange/ExchangeManager.sol",
  "compiler": {
    "name": "solc",
    "version": "0.4.18+commit.9cf6e910.Emscripten.clang"
  },
  "schemaVersion": "1.0.1",
  "updatedAt": "2018-01-11T22:41:27.339Z"
}