{
  "contractName": "ExchangeManager",
  "abi": [
    {
      "constant": false,
      "inputs": [
        {
          "name": "_symbol",
          "type": "bytes32"
        },
        {
          "name": "_buyPrice",
          "type": "uint256"
        },
        {
          "name": "_buyDecimals",
          "type": "uint256"
        },
        {
          "name": "_sellPrice",
          "type": "uint256"
        },
        {
          "name": "_sellDecimals",
          "type": "uint256"
        },
        {
          "name": "_authorizedManager",
          "type": "address"
        },
        {
          "name": "_isActive",
          "type": "bool"
        }
      ],
      "name": "createExchange",
      "outputs": [
        {
          "name": "errorCode",
          "type": "uint256"
        }
      ],
      "payable": false,
      "stateMutability": "nonpayable",
      "type": "function"
    },
    {
      "constant": false,
      "inputs": [
        {
          "name": "user",
          "type": "address"
        },
        {
          "name": "exchange",
          "type": "address"
        },
        {
          "name": "asset",
          "type": "address"
        }
      ],
      "name": "emitExchangeAdded",
      "outputs": [],
      "payable": false,
      "stateMutability": "nonpayable",
      "type": "function"
    },
    {
      "constant": false,
      "inputs": [],
      "name": "claimContractOwnership",
      "outputs": [
        {
          "name": "",
          "type": "bool"
        }
      ],
      "payable": false,
      "stateMutability": "nonpayable",
      "type": "function"
    },
    {
      "constant": false,
      "inputs": [],
      "name": "removeExchange",
      "outputs": [
        {
          "name": "errorCode",
          "type": "uint256"
        }
      ],
      "payable": false,
      "stateMutability": "nonpayable",
      "type": "function"
    },
    {
      "constant": true,
      "inputs": [
        {
          "name": "_identifier",
          "type": "bytes32"
        }
      ],
      "name": "lookupManager",
      "outputs": [
        {
          "name": "manager",
          "type": "address"
        }
      ],
      "payable": false,
      "stateMutability": "view",
      "type": "function"
    },
    {
      "constant": true,
      "inputs": [],
      "name": "contractsManager",
      "outputs": [
        {
          "name": "",
          "type": "address"
        }
      ],
      "payable": false,
      "stateMutability": "view",
      "type": "function"
    },
    {
      "constant": false,
      "inputs": [
        {
          "name": "_to",
          "type": "address"
        }
      ],
      "name": "changeContractOwnership",
      "outputs": [
        {
          "name": "",
          "type": "bool"
        }
      ],
      "payable": false,
      "stateMutability": "nonpayable",
      "type": "function"
    },
    {
      "constant": true,
      "inputs": [
        {
          "name": "_exchange",
          "type": "address"
        }
      ],
      "name": "isExchangeExists",
      "outputs": [
        {
          "name": "",
          "type": "bool"
        }
      ],
      "payable": false,
      "stateMutability": "view",
      "type": "function"
    },
    {
      "constant": true,
      "inputs": [],
      "name": "pendingContractOwner",
      "outputs": [
        {
          "name": "",
          "type": "address"
        }
      ],
      "payable": false,
      "stateMutability": "view",
      "type": "function"
    },
    {
      "constant": true,
      "inputs": [],
      "name": "getExchangeFactory",
      "outputs": [
        {
          "name": "",
          "type": "address"
        }
      ],
      "payable": false,
      "stateMutability": "view",
      "type": "function"
    },
    {
      "constant": false,
      "inputs": [
        {
          "name": "_eventsHistory",
          "type": "address"
        }
      ],
      "name": "setEventsHistory",
      "outputs": [],
      "payable": false,
      "stateMutability": "nonpayable",
      "type": "function"
    },
    {
      "constant": false,
      "inputs": [
        {
          "name": "_fee",
          "type": "uint256"
        }
      ],
      "name": "setFee",
      "outputs": [
        {
          "name": "",
          "type": "uint256"
        }
      ],
      "payable": false,
      "stateMutability": "nonpayable",
      "type": "function"
    },
    {
      "constant": false,
      "inputs": [
        {
          "name": "user",
          "type": "address"
        },
        {
          "name": "exchange",
          "type": "address"
        },
        {
          "name": "asset",
          "type": "address"
        }
      ],
      "name": "emitExchangeCreated",
      "outputs": [],
      "payable": false,
      "stateMutability": "nonpayable",
      "type": "function"
    },
    {
      "constant": false,
      "inputs": [
        {
          "name": "_contractsManager",
          "type": "address"
        }
      ],
      "name": "setContractsManager",
      "outputs": [],
      "payable": false,
      "stateMutability": "nonpayable",
      "type": "function"
    },
    {
      "constant": true,
      "inputs": [
        {
          "name": "_owner",
          "type": "address"
        }
      ],
      "name": "getExchangesForOwner",
      "outputs": [
        {
          "name": "",
          "type": "address[]"
        }
      ],
      "payable": false,
      "stateMutability": "view",
      "type": "function"
    },
    {
      "constant": true,
      "inputs": [
        {
          "name": "_exchanges",
          "type": "address[]"
        }
      ],
      "name": "getExchangeData",
      "outputs": [
        {
          "name": "assets",
          "type": "address[]"
        },
        {
          "name": "buyPrices",
          "type": "uint256[]"
        },
        {
          "name": "buyDecimals",
          "type": "uint256[]"
        },
        {
          "name": "sellPrices",
          "type": "uint256[]"
        },
        {
          "name": "sellDecimals",
          "type": "uint256[]"
        },
        {
          "name": "assetBalances",
          "type": "uint256[]"
        },
        {
          "name": "ethBalances",
          "type": "uint256[]"
        }
      ],
      "payable": false,
      "stateMutability": "view",
      "type": "function"
    },
    {
      "constant": false,
      "inputs": [],
      "name": "destroy",
      "outputs": [],
      "payable": false,
      "stateMutability": "nonpayable",
      "type": "function"
    },
    {
      "constant": true,
      "inputs": [],
      "name": "getExchangesCount",
      "outputs": [
        {
          "name": "",
          "type": "uint256"
        }
      ],
      "payable": false,
      "stateMutability": "view",
      "type": "function"
    },
    {
      "constant": false,
      "inputs": [
        {
          "name": "_to",
          "type": "address"
        }
      ],
      "name": "transferContractOwnership",
      "outputs": [
        {
          "name": "",
          "type": "bool"
        }
      ],
      "payable": false,
      "stateMutability": "nonpayable",
      "type": "function"
    },
    {
      "constant": false,
      "inputs": [
        {
          "name": "exchange",
          "type": "address"
        },
        {
          "name": "asset",
          "type": "address"
        }
      ],
      "name": "emitExchangeRemoved",
      "outputs": [],
      "payable": false,
      "stateMutability": "nonpayable",
      "type": "function"
    },
    {
      "constant": true,
      "inputs": [
        {
          "name": "_fromIdx",
          "type": "uint256"
        },
        {
          "name": "_length",
          "type": "uint256"
        }
      ],
      "name": "getExchanges",
      "outputs": [
        {
          "name": "result",
          "type": "address[]"
        }
      ],
      "payable": false,
      "stateMutability": "view",
      "type": "function"
    },
    {
      "constant": true,
      "inputs": [],
      "name": "contractOwner",
      "outputs": [
        {
          "name": "",
          "type": "address"
        }
      ],
      "payable": false,
      "stateMutability": "view",
      "type": "function"
    },
    {
      "constant": true,
      "inputs": [],
      "name": "getFee",
      "outputs": [
        {
          "name": "",
          "type": "uint256"
        }
      ],
      "payable": false,
      "stateMutability": "view",
      "type": "function"
    },
    {
      "constant": false,
      "inputs": [
        {
          "name": "_exchangeFactory",
          "type": "address"
        }
      ],
      "name": "setExchangeFactory",
      "outputs": [
        {
          "name": "",
          "type": "uint256"
        }
      ],
      "payable": false,
      "stateMutability": "nonpayable",
      "type": "function"
    },
    {
      "constant": false,
      "inputs": [
        {
          "name": "tokens",
          "type": "address[]"
        },
        {
          "name": "_to",
          "type": "address"
        }
      ],
      "name": "withdrawnTokens",
      "outputs": [
        {
          "name": "",
          "type": "uint256"
        }
      ],
      "payable": false,
      "stateMutability": "nonpayable",
      "type": "function"
    },
    {
      "constant": false,
      "inputs": [
        {
          "name": "errorCode",
          "type": "uint256"
        }
      ],
      "name": "emitError",
      "outputs": [],
      "payable": false,
      "stateMutability": "nonpayable",
      "type": "function"
    },
    {
      "constant": true,
      "inputs": [
        {
          "name": "_owner",
          "type": "address"
        }
      ],
      "name": "getExchangesForOwnerCount",
      "outputs": [
        {
          "name": "",
          "type": "uint256"
        }
      ],
      "payable": false,
      "stateMutability": "view",
      "type": "function"
    },
    {
      "constant": false,
      "inputs": [
        {
          "name": "_contractsManager",
          "type": "address"
        },
        {
          "name": "_exchangeFactory",
          "type": "address"
        }
      ],
      "name": "init",
      "outputs": [
        {
          "name": "",
          "type": "uint256"
        }
      ],
      "payable": false,
      "stateMutability": "nonpayable",
      "type": "function"
    },
    {
      "constant": true,
      "inputs": [
        {
          "name": "key",
          "type": "address"
        }
      ],
      "name": "isAuthorized",
      "outputs": [
        {
          "name": "",
          "type": "bool"
        }
      ],
      "payable": false,
      "stateMutability": "view",
      "type": "function"
    },
    {
      "constant": true,
      "inputs": [],
      "name": "getEventsHistory",
      "outputs": [
        {
          "name": "",
          "type": "address"
        }
      ],
      "payable": false,
      "stateMutability": "view",
      "type": "function"
    },
    {
      "inputs": [
        {
          "name": "_store",
          "type": "address"
        },
        {
          "name": "_crate",
          "type": "bytes32"
        }
      ],
      "payable": false,
      "stateMutability": "nonpayable",
      "type": "constructor"
    },
    {
      "anonymous": false,
      "inputs": [
        {
          "indexed": true,
          "name": "self",
          "type": "address"
        },
        {
          "indexed": true,
          "name": "user",
          "type": "address"
        },
        {
          "indexed": false,
          "name": "exchange",
          "type": "address"
        },
        {
          "indexed": false,
          "name": "asset",
          "type": "address"
        }
      ],
      "name": "ExchangeCreated",
      "type": "event"
    },
    {
      "anonymous": false,
      "inputs": [
        {
          "indexed": true,
          "name": "self",
          "type": "address"
        },
        {
          "indexed": true,
          "name": "user",
          "type": "address"
        },
        {
          "indexed": false,
          "name": "exchange",
          "type": "address"
        },
        {
          "indexed": false,
          "name": "asset",
          "type": "address"
        }
      ],
      "name": "ExchangeAdded",
      "type": "event"
    },
    {
      "anonymous": false,
      "inputs": [
        {
          "indexed": true,
          "name": "self",
          "type": "address"
        },
        {
          "indexed": false,
          "name": "exchange",
          "type": "address"
        },
        {
          "indexed": false,
          "name": "asset",
          "type": "address"
        }
      ],
      "name": "ExchangeRemoved",
      "type": "event"
    },
    {
      "anonymous": false,
      "inputs": [
        {
          "indexed": true,
          "name": "self",
          "type": "address"
        },
        {
          "indexed": false,
          "name": "errorCode",
          "type": "uint256"
        }
      ],
      "name": "Error",
      "type": "event"
    }
  ],
  "bytecode": "0x606060405234156200001057600080fd5b60405160408062002d318339810160405280805191906020018051915082905081818181816200005160008383640100000000620028906200017f82021704565b505060028054600160a060020a03338116600160a060020a03199283161790925560058054309093169290911691909117905550620000c69250600791507f65785f6d5f65786368616e6765730000000000000000000000000000000000009050640100000000620028b6620001a582021704565b62000101600a7f65785f6d5f6f776e65727300000000000000000000000000000000000000000064010000000062002983620002b482021704565b6200013c60067f65785f6d5f65786368616e6765466163746f72790000000000000000000000006401000000006200298d620002ce82021704565b62000177600d7f65785f6d5f6665650000000000000000000000000000000000000000000000006401000000006200298d620002ce82021704565b505062000320565b8254600160a060020a031916600160a060020a0392909216919091178255600190910155565b620001fc82826040519081527f636f756e7400000000000000000000000000000000000000000000000000000060208201526025016040518091039020620002ce640100000000026200298d176401000000009004565b6200025682600101826040519081527f696e64657865730000000000000000000000000000000000000000000000000060208201526027016040518091039020620002ce640100000000026200298d176401000000009004565b620002b082600201826040519081527f76616c756573000000000000000000000000000000000000000000000000000060208201526026016040518091039020620002ce640100000000026200298d176401000000009004565b5050565b620002b08282640100000000620029b5620002ee82021704565b8154620002ea9082640100000000620029bf6200030882021704565b9055565b620002b08282640100000000620028b6620001a582021704565b8115158062000315575080155b15620002b057600080fd5b612a0180620003306000396000f3006060604052600436106101665763ffffffff60e060020a60003504166314178fbd811461016b5780631f58d52a146101b05780634592cd1d146101dd5780634ea3b642146102045780634fe590121461021757806353253d3114610249578063557f4bc91461025c57806358f090071461027b5780635aa77d3c1461029a5780635ddcdc67146102ad5780636521afd7146102c057806369fe0e2d146102df578063714a4d66146102f557806371d3b5731461032057806372ffb5431461033f57806379f4289a146103b157806383197ef0146105c1578063a64f51d3146105d4578063a843c51f146105e7578063a899ebcd14610606578063c1f8ab5a1461062b578063ce606ee014610644578063ced72f8714610657578063d12ebeaa1461066a578063d8f9659b14610689578063df26ca08146106e3578063e425c907146106f9578063f09a401614610718578063fe9fbb801461073d578063fff10aba1461075c575b600080fd5b341561017657600080fd5b61019e600435602435604435606435608435600160a060020a0360a4351660c435151561076f565b60405190815260200160405180910390f35b34156101bb57600080fd5b6101db600160a060020a036004358116906024358116906044351661079b565b005b34156101e857600080fd5b6101f0610801565b604051901515815260200160405180910390f35b341561020f57600080fd5b61019e61084e565b341561022257600080fd5b61022d600435610989565b604051600160a060020a03909116815260200160405180910390f35b341561025457600080fd5b61022d610a12565b341561026757600080fd5b6101f0600160a060020a0360043516610a21565b341561028657600080fd5b6101f0600160a060020a0360043516610a78565b34156102a557600080fd5b61022d610a9b565b34156102b857600080fd5b61022d610aaa565b34156102cb57600080fd5b6101db600160a060020a0360043516610ac2565b34156102ea57600080fd5b61019e600435610af8565b341561030057600080fd5b6101db600160a060020a0360043581169060243581169060443516610b31565b341561032b57600080fd5b6101db600160a060020a0360043516610b97565b341561034a57600080fd5b61035e600160a060020a0360043516610bce565b60405160208082528190810183818151815260200191508051906020019060200280838360005b8381101561039d578082015183820152602001610385565b505050509050019250505060405180910390f35b34156103bc57600080fd5b6103cf6004803560248101910135610bf2565b604051808060200180602001806020018060200180602001806020018060200188810388528f818151815260200191508051906020019060200280838360005b8381101561042757808201518382015260200161040f565b5050505090500188810387528e818151815260200191508051906020019060200280838360005b8381101561046657808201518382015260200161044e565b5050505090500188810386528d818151815260200191508051906020019060200280838360005b838110156104a557808201518382015260200161048d565b5050505090500188810385528c818151815260200191508051906020019060200280838360005b838110156104e45780820151838201526020016104cc565b5050505090500188810384528b818151815260200191508051906020019060200280838360005b8381101561052357808201518382015260200161050b565b5050505090500188810383528a818151815260200191508051906020019060200280838360005b8381101561056257808201518382015260200161054a565b50505050905001888103825289818151815260200191508051906020019060200280838360005b838110156105a1578082015183820152602001610589565b505050509050019e50505050505050505050505050505060405180910390f35b34156105cc57600080fd5b6101db610fbe565b34156105df57600080fd5b61019e611054565b34156105f257600080fd5b6101f0600160a060020a0360043516611067565b341561061157600080fd5b6101db600160a060020a03600435811690602435166110e0565b341561063657600080fd5b61035e60043560243561113b565b341561064f57600080fd5b61022d6111ba565b341561066257600080fd5b61019e6111c9565b341561067557600080fd5b61019e600160a060020a03600435166111dc565b341561069457600080fd5b61019e600460248135818101908301358060208181020160405190810160405280939291908181526020018383602002808284375094965050509235600160a060020a0316925061121e915050565b34156106ee57600080fd5b6101db60043561136f565b341561070457600080fd5b61019e600160a060020a03600435166113b6565b341561072357600080fd5b61019e600160a060020a03600435811690602435166113d3565b341561074857600080fd5b6101f0600160a060020a0360043516611436565b341561076757600080fd5b61022d6114dc565b600061078f888888888888886020604051908101604052600081526114eb565b98975050505050505050565b82600160a060020a03166107ad611caf565b600160a060020a03167f0a3307a02fc265645972c8e076d45a4c916215400b1c0f3c94ba754e80ad8be48484604051600160a060020a039283168152911660208201526040908101905180910390a3505050565b60035460009033600160a060020a039081169116146108225750600061084b565b506003805460028054600160a060020a0319908116600160a060020a0384161790915516905560015b90565b60008061085a33610a78565b15156108725761086b611b58611cb3565b9150610985565b61088e60006007600160a060020a03331663ffffffff611d1c16565b6108966114dc565b600160a060020a031663ab0da5a93360405160e060020a63ffffffff8416028152600160a060020a039091166004820152602401600060405180830381600087803b15156108e357600080fd5b6102c65a03f115156108f457600080fd5b50505033600160a060020a031663ce606ee06000604051602001526040518163ffffffff1660e060020a028152600401602060405180830381600087803b151561093d57600080fd5b6102c65a03f1151561094e57600080fd5b5050506040518051915061097790506000600a600160a060020a0384163363ffffffff611d3616565b61098033611d51565b600191505b5090565b600454600090600160a060020a031663bc65792783836040516020015260405160e060020a63ffffffff84160281526004810191909152602401602060405180830381600087803b15156109dc57600080fd5b6102c65a03f115156109ed57600080fd5b5050506040518051915050600160a060020a0381161515610a0d57600080fd5b919050565b600454600160a060020a031681565b60025460009033600160a060020a0390811691161415610a0d57600160a060020a0382161515610a5357506000610a0d565b5060038054600160a060020a038316600160a060020a03199091161790556001919050565b6000610a95816007600160a060020a03851663ffffffff611e2b16565b92915050565b600354600160a060020a031681565b6000610abd81600663ffffffff611e4a16565b905090565b60025433600160a060020a0390811691161415610af55760058054600160a060020a031916600160a060020a0383161790555b50565b6000610b0333611436565b15610a0d576127108210610b1657600080fd5b610b296000600d8463ffffffff611ea916565b506001919050565b82600160a060020a0316610b43611caf565b600160a060020a03167fe6c96f91775b208c31528b64e2ab6d654c8f1c64103c9ab66c9d68974a26d64a8484604051600160a060020a039283168152911660208201526040908101905180910390a3505050565b60025433600160a060020a0390811691161415610af55760048054600160a060020a038316600160a060020a031990911617905550565b610bd661287e565b610a956000600a600160a060020a03851663ffffffff611f2216565b610bfa61287e565b610c0261287e565b610c0a61287e565b610c1261287e565b610c1a61287e565b610c2261287e565b610c2a61287e565b60008089604051805910610c3b5750595b9080825280602002602001820160405250985089604051805910610c5c5750595b9080825280602002602001820160405250975089604051805910610c7d5750595b9080825280602002602001820160405250965089604051805910610c9e5750595b9080825280602002602001820160405250955089604051805910610cbf5750595b9080825280602002602001820160405250945089604051805910610ce05750595b9080825280602002602001820160405250935089604051805910610d015750595b90808252806020026020018201604052509250600091505b89821015610fb057610d458b8b84818110610d3057fe5b90506020020135600160a060020a0316610a78565b15610fa5578a8a83818110610d5657fe5b90506020020135600160a060020a0316905080600160a060020a03166338d52e0f6000604051602001526040518163ffffffff1660e060020a028152600401602060405180830381600087803b1515610dae57600080fd5b6102c65a03f11515610dbf57600080fd5b50505060405180519050898381518110610dd557fe5b600160a060020a0392831660209182029092010152811663018a25e86000604051604001526040518163ffffffff1660e060020a0281526004016040805180830381600087803b1515610e2757600080fd5b6102c65a03f11515610e3857600080fd5b50505060405180519060200180519050898481518110610e5457fe5b906020019060200201898581518110610e6957fe5b6020908102909101019190915252600160a060020a0381166343d32e9c6000604051604001526040518163ffffffff1660e060020a0281526004016040805180830381600087803b1515610ebc57600080fd5b6102c65a03f11515610ecd57600080fd5b50505060405180519060200180519050878481518110610ee957fe5b906020019060200201878581518110610efe57fe5b6020908102909101019190915252600160a060020a03811663c66f24556000604051602001526040518163ffffffff1660e060020a028152600401602060405180830381600087803b1515610f5257600080fd5b6102c65a03f11515610f6357600080fd5b50505060405180519050848381518110610f7957fe5b60209081029091010152600160a060020a03811631838381518110610f9a57fe5b602090810290910101525b600190910190610d19565b505092959891949750929550565b60025433600160a060020a039081169116141561105257600454600160a060020a031663c375c2ef3060006040516020015260405160e060020a63ffffffff8416028152600160a060020a039091166004820152602401602060405180830381600087803b151561102e57600080fd5b6102c65a03f1151561103f57600080fd5b5050506040518051905050611052611f3d565b565b6000610abd81600763ffffffff611f6016565b60025460009033600160a060020a0390811691161415610a0d57600160a060020a038216151561109957506000610a0d565b600354600160a060020a0316156110bb5760038054600160a060020a03191690555b5060028054600160a060020a038316600160a060020a03199091161790556001919050565b6110e8611caf565b600160a060020a03167fca8635f861d7d46674a4a9fe54ae651789412ed8624a466c07b2f0c3eb141f878383604051600160a060020a039283168152911660208201526040908101905180910390a25050565b61114361287e565b6000826040518059106111535750595b90808252806020026020018201604052509150600090505b828110156111b3576111886000600783870163ffffffff611f7d16565b82828151811061119457fe5b600160a060020a0390921660209283029091019091015260010161116b565b5092915050565b600254600160a060020a031681565b6000610abd81600d63ffffffff611f9416565b60025460009033600160a060020a0390811691161415610a0d57600160a060020a038216151561120b57600080fd5b610b29600060068463ffffffff611ff316565b60025460009081908190819033600160a060020a039081169116141561136657600092505b85518310156113615785838151811061125857fe5b90602001906020020151915081600160a060020a03166370a082313060006040516020015260405160e060020a63ffffffff8416028152600160a060020a039091166004820152602401602060405180830381600087803b15156112bb57600080fd5b6102c65a03f115156112cc57600080fd5b505050604051805191505080156113565781600160a060020a031663a9059cbb868360006040516020015260405160e060020a63ffffffff8516028152600160a060020a0390921660048301526024820152604401602060405180830381600087803b151561133a57600080fd5b6102c65a03f1151561134b57600080fd5b505050604051805150505b600190920191611243565b600193505b50505092915050565b611377611caf565b600160a060020a03167f9cf38cf2dbf9139f5c32639950507b10775fbbe0421f3e168bc2d1bb1ae3208c8260405190815260200160405180910390a250565b6000610a9581600a600160a060020a03851663ffffffff61205c16565b60025460009033600160a060020a0390811691161415610a9557611417837f45786368616e67654d616e616765720000000000000000000000000000000000612069565b506001611423836111dc565b1461142d57600080fd5b50600192915050565b6000806114627f557365724d616e61676572000000000000000000000000000000000000000000610989565b905080600160a060020a0316632aa09e5a8460006040516020015260405160e060020a63ffffffff8416028152600160a060020a039091166004820152602401602060405180830381600087803b15156114bb57600080fd5b6102c65a03f115156114cc57600080fd5b5050506040518051949350505050565b600554600160a060020a031690565b600080600080846114fa61225a565b600160a060020a031663709586c13330600035600160e060020a03191660006040516020015260405160e060020a63ffffffff8616028152600160a060020a039384166004820152919092166024820152600160e060020a03199091166044820152606401602060405180830381600087803b151561157857600080fd5b6102c65a03f1151561158957600080fd5b5050506040518051905015156115a5576155f060005260206000f35b6115ad612285565b600160a060020a031663fa7fdeb78e60006040516020015260405160e060020a63ffffffff84160281526004810191909152602401602060405180830381600087803b15156115fb57600080fd5b6102c65a03f1151561160c57600080fd5b5050506040518051945050600160a060020a038416151561163957611632611b5a611cb3565b9450611be3565b6116627f5265776172647300000000000000000000000000000000000000000000000000610989565b9250600160a060020a038316151561167f57611632611b59611cb3565b611687610aaa565b600160a060020a0316637d3af3a46000604051602001526040518163ffffffff1660e060020a028152600401602060405180830381600087803b15156116cc57600080fd5b6102c65a03f115156116dd57600080fd5b5050506040518051905091506116f16114dc565b600160a060020a031663b6a5d7de8360006040516020015260405160e060020a63ffffffff8416028152600160a060020a039091166004820152602401602060405180830381600087803b151561174757600080fd5b6102c65a03f1151561175857600080fd5b50505060405180519050151561176d57600080fd5b600454600160a060020a03808416916346639dba9116868661178d6111c9565b60006040516020015260405160e060020a63ffffffff8716028152600160a060020a0394851660048201529284166024840152921660448201526064810191909152608401602060405180830381600087803b15156117eb57600080fd5b6102c65a03f115156117fc57600080fd5b5050506040518051505060008c118015611816575060008a115b156118a857600182600160a060020a031663d8e868548e8e8e8e60006040516020015260405160e060020a63ffffffff87160281526004810194909452602484019290925260448301526064820152608401602060405180830381600087803b151561188157600080fd5b6102c65a03f1151561189257600080fd5b505050604051805190501415156118a857600080fd5b600160a060020a0388161561193757600182600160a060020a03166394f3ed318a60006040516020015260405160e060020a63ffffffff8416028152600160a060020a039091166004820152602401602060405180830381600087803b151561191057600080fd5b6102c65a03f1151561192157600080fd5b5050506040518051905014151561193757600080fd5b600182600160a060020a031663acec338a8960006040516020015260405160e060020a63ffffffff84160281529015156004820152602401602060405180830381600087803b151561198857600080fd5b6102c65a03f1151561199957600080fd5b505050604051805190501415156119af57600080fd5b81600160a060020a031663a843c51f3360006040516020015260405160e060020a63ffffffff8416028152600160a060020a039091166004820152602401602060405180830381600087803b1515611a0657600080fd5b6102c65a03f11515611a1757600080fd5b505050604051805190501515611a2c57600080fd5b611a4860006007600160a060020a03851663ffffffff6122b016565b611a656000600a600160a060020a0333168563ffffffff6122c516565b33600160a060020a031682600160a060020a031663ce606ee06000604051602001526040518163ffffffff1660e060020a028152600401602060405180830381600087803b1515611ab557600080fd5b6102c65a03f11515611ac657600080fd5b50505060405180519050600160a060020a0316141515611ae257fe5b82600160a060020a031682600160a060020a0316639ec5a8946000604051602001526040518163ffffffff1660e060020a028152600401602060405180830381600087803b1515611b3257600080fd5b6102c65a03f11515611b4357600080fd5b50505060405180519050600160a060020a0316141515611b5f57fe5b611b676111c9565b82600160a060020a0316637fd6f15c6000604051602001526040518163ffffffff1660e060020a028152600401602060405180830381600087803b1515611bad57600080fd5b6102c65a03f11515611bbe57600080fd5b50505060405180519050141515611bd157fe5b611bdb33836122da565b600180875294505b60018151148015611c9557506001611bf961225a565b600160a060020a03166384509ca83330600035600160e060020a03191660006040516020015260405160e060020a63ffffffff8616028152600160a060020a039384166004820152919092166024820152600160e060020a03199091166044820152606401602060405180830381600087803b1515611c7757600080fd5b6102c65a03f11515611c8857600080fd5b5050506040518051905014155b15611c9f57600080fd5b5050505098975050505050505050565b3390565b6000611cbd6114dc565b600160a060020a031663df26ca088360405160e060020a63ffffffff84160281526004810191909152602401600060405180830381600087803b1515611d0257600080fd5b6102c65a03f11515611d1357600080fd5b50929392505050565b611d31838360ea60020a621cd95d02846123a6565b505050565b611d4b848484600160a060020a038516612454565b50505050565b600081600160a060020a03166338d52e0f6000604051602001526040518163ffffffff1660e060020a028152600401602060405180830381600087803b1515611d9957600080fd5b6102c65a03f11515611daa57600080fd5b505050604051805190509050611dbe6114dc565b600160a060020a031663a899ebcd838360405160e060020a63ffffffff8516028152600160a060020a03928316600482015291166024820152604401600060405180830381600087803b1515611e1357600080fd5b6102c65a03f11515611e2457600080fd5b5050505050565b6000611e42848460ea60020a621cd95d0285612460565b949350505050565b815460018301548254600092600160a060020a03169163d3a3968691846040516020015260405160e060020a63ffffffff851602815260048101929092526024820152604401602060405180830381600087803b15156114bb57600080fd5b825460018401548354600160a060020a03909216916353e7168b91908460405160e060020a63ffffffff8616028152600481019390935260248301919091526044820152606401600060405180830381600087803b1515611f0957600080fd5b6102c65a03f11515611f1a57600080fd5b505050505050565b611f2a61287e565b611e42611f3885858561247c565b61248f565b60025433600160a060020a03908116911614156110525733600160a060020a0316ff5b6000611f76838360ea60020a621cd95d02612512565b9392505050565b6000611e42848460ea60020a621cd95d028561251f565b815460018301548254600092600160a060020a0316916353aa3f5e91846040516020015260405160e060020a63ffffffff851602815260048101929092526024820152604401602060405180830381600087803b15156114bb57600080fd5b825460018401548354600160a060020a03909216916379a7cfee91908460405160e060020a63ffffffff861602815260048101939093526024830191909152600160a060020a03166044820152606401600060405180830381600087803b1515611f0957600080fd5b6000611e4284848461253c565b60025460009081908190819033600160a060020a0390811691161461208d57600080fd5b600160a060020a03861615156120a257600080fd5b600454600160a060020a03161580159350806120cc5750600454600160a060020a03878116911614155b156120ed5760048054600160a060020a031916600160a060020a0388161790555b600454600160a060020a031691508163bc65792760006040516020015260405160e060020a63ffffffff83160281527f4d756c74694576656e7473486973746f727900000000000000000000000000006004820152602401602060405180830381600087803b151561215e57600080fd5b6102c65a03f1151561216f57600080fd5b5050506040518051915050600160a060020a038116158015906121a05750600554600160a060020a03828116911614155b156121c15760058054600160a060020a031916600160a060020a0383161790555b84156122485781600160a060020a031663b7c46cd5308760006040516020015260405160e060020a63ffffffff8516028152600160a060020a0390921660048301526024820152604401602060405180830381600087803b151561222457600080fd5b6102c65a03f1151561223557600080fd5b5050506040518051600114905061224857fe5b82156113615760069695505050505050565b6000610abd7f466561747572654665654d616e61676572000000000000000000000000000000610989565b6000610abd7f45524332304d616e616765720000000000000000000000000000000000000000610989565b611d31838360ea60020a621cd95d0284612549565b611d4b848484600160a060020a03851661259d565b600081600160a060020a03166338d52e0f6000604051602001526040518163ffffffff1660e060020a028152600401602060405180830381600087803b151561232257600080fd5b6102c65a03f1151561233357600080fd5b5050506040518051905090506123476114dc565b600160a060020a031663714a4d6684848460405160e060020a63ffffffff8616028152600160a060020a03938416600482015291831660248301529091166044820152606401600060405180830381600087803b1515611f0957600080fd5b60008060006123b787878787612460565b15156123c25761244b565b6123cd878787612512565b92506123de876002880187866125a9565b91506123ef878760010187876125a9565b9050828110156124195761240987600188018785856125ce565b61241987600288018784866125ce565b61242a8760018801878760006125ce565b61243b8760028801878660006125ce565b61244b87878760001987016125f2565b50505050505050565b611d4b848484846123a6565b6000612471858560010185856125a9565b151595945050505050565b61248461287e565b611e4284848461267b565b61249761287e565b61249f61287e565b600083516040518059106124b05750595b90808252806020026020018201604052509150600090505b83518110156111b3578381815181106124dd57fe5b906020019060200201518282815181106124f357fe5b600160a060020a039092166020928302909101909101526001016124c8565b6000611e428484846126f4565b6000612533856002860185600186016125a9565b95945050505050565b6000611e42848484612512565b600061255785858585612460565b1561256157611e24565b61256c858585612512565b600101905061258185600286018584866125ce565b61259185600186018585856125ce565b611e24858585846125f2565b611d4b84848484612549565b600061253385858585604051918252602082015260409081019051809103902061278e565b611e2485858585604051918252602082015260409081019051809103902084612806565b835460018501548454600160a060020a03909216916353e7168b91908560405191825260208201526040908101905180910390208460405160e060020a63ffffffff8616028152600481019390935260248301919091526044820152606401600060405180830381600087803b151561266a57600080fd5b6102c65a03f1151561244b57600080fd5b61268361287e565b600080612691868686612512565b9150816040518059106126a15750595b90808252806020026020018201604052509250600090505b818110156126eb576126cd8686868461251f565b8382815181106126d957fe5b602090810290910101526001016126b9565b50509392505050565b825460018401548354600092600160a060020a0316916353aa3f5e9185604051918252602082015260409081019051809103902060006040516020015260405160e060020a63ffffffff851602815260048101929092526024820152604401602060405180830381600087803b151561276c57600080fd5b6102c65a03f1151561277d57600080fd5b505050604051805195945050505050565b825460018401548354600092600160a060020a0316916337d9d7fc9185604051918252602082015260409081019051809103902060006040516020015260405160e060020a63ffffffff851602815260048101929092526024820152604401602060405180830381600087803b151561276c57600080fd5b835460018501548454600160a060020a039092169163a14ff85791908560405191825260208201526040908101905180910390208460405160e060020a63ffffffff8616028152600481019390935260248301919091526044820152606401600060405180830381600087803b151561266a57600080fd5b60206040519081016040526000815290565b8254600160a060020a031916600160a060020a0392909216919091178255600190910155565b6128f782826040519081527f636f756e740000000000000000000000000000000000000000000000000000006020820152602501604051809103902061298d565b61293b82600101826040519081527f696e6465786573000000000000000000000000000000000000000000000000006020820152602701604051809103902061298d565b61297f82600201826040519081527f76616c75657300000000000000000000000000000000000000000000000000006020820152602601604051809103902061298d565b5050565b61297f82826129b5565b815461299990826129bf565b9055565b815461299990826129bf565b815461299990826129bf565b61297f82826128b6565b811515806129cb575080155b1561297f57600080fd00a165627a7a723058201ce9d9e01d72204131ac05a3ea0f95cca74932fb370cc29cd8d557596412d7bc0029",
  "source": "pragma solidity ^0.4.11;\n\nimport \"../core/common/BaseManager.sol\";\nimport \"../core/erc20/ERC20Manager.sol\";\nimport \"../core/event/MultiEventsHistory.sol\";\nimport {ERC20Interface as Asset} from \"../core/erc20/ERC20Interface.sol\";\n\nimport \"./Exchange.sol\";\nimport \"./ExchangeManagerEmitter.sol\";\nimport \"./ExchangeFactory.sol\";\nimport \"../timeholder/FeatureFeeAdapter.sol\";\n\n/// @title ExchangeManager\n///\n/// @notice ExchangeManager contract is the exchange registry which holds info\n/// about created exchanges and provides some util methods for managing it.\n///\n/// The entry point for creating new exchanges.\n///\n/// CBE users are permited to manage fee value against which an exchange will calculate fee.\ncontract ExchangeManager is FeatureFeeAdapter, ExchangeManagerEmitter, BaseManager {\n    uint constant ERROR_EXCHANGE_STOCK_NOT_FOUND = 7000;\n    uint constant ERROR_EXCHANGE_STOCK_INTERNAL = 7001;\n    uint constant ERROR_EXCHANGE_STOCK_UNKNOWN_SYMBOL = 7002;\n\n    StorageInterface.Address exchangeFactory;\n    StorageInterface.Set exchanges; // (exchange [])\n    StorageInterface.AddressesSetMapping owners; // (owner => exchange [])\n    StorageInterface.UInt fee;\n\n    modifier onlyExchangeContractOwner(address _exchange) {\n        if (Exchange(_exchange).contractOwner() == msg.sender) {\n            _;\n        }\n    }\n\n    /// Contructor\n    function ExchangeManager(Storage _store, bytes32 _crate) BaseManager(_store, _crate) public {\n        exchanges.init(\"ex_m_exchanges\");\n        owners.init(\"ex_m_owners\");\n        exchangeFactory.init(\"ex_m_exchangeFactory\");\n        fee.init(\"ex_m_fee\");\n    }\n\n    /// Initialises an exchange with the given params\n    function init(address _contractsManager, address _exchangeFactory)\n    public\n    onlyContractOwner\n    returns (uint)\n    {\n        BaseManager.init(_contractsManager, \"ExchangeManager\");\n        if (setExchangeFactory(_exchangeFactory) != OK) {\n            revert();\n        }\n        return OK;\n    }\n\n    /// Sets fee value against which the exchange should calculate fee.\n    ///\n    /// Note, only CBE members are allowed to set this value.\n    function setFee(uint _fee)\n    public\n    onlyAuthorized\n    returns (uint)\n    {\n        require(_fee < 10000);\n        store.set(fee, _fee);\n        return OK;\n    }\n\n    /// Sets the Exchange Factory address\n    function setExchangeFactory(address _exchangeFactory)\n    public\n    onlyContractOwner\n    returns (uint)\n    {\n        require(_exchangeFactory != 0x0);\n        store.set(exchangeFactory, _exchangeFactory);\n        return OK;\n    }\n\n    /// Creates a new exchange with the given params.\n    function createExchange(\n        bytes32 _symbol,\n        uint _buyPrice,\n        uint _buyDecimals,\n        uint _sellPrice,\n        uint _sellDecimals,\n        address _authorizedManager,\n        bool _isActive)\n    public\n    returns (uint errorCode) {\n        return _createExchange(_symbol, _buyPrice, _buyDecimals, _sellPrice, _sellDecimals, _authorizedManager, _isActive, [uint(0)]);\n    }\n\n    function _createExchange(\n        bytes32 _symbol,\n        uint _buyPrice,\n        uint _buyDecimals,\n        uint _sellPrice,\n        uint _sellDecimals,\n        address _authorizedManager,\n        bool _isActive,\n        uint[1] memory _result)\n    private\n    featured(_result)\n    returns (uint errorCode)\n    {\n        address token = lookupERC20Manager().getTokenAddressBySymbol(_symbol);\n        if (token == 0x0) {\n            return _emitError(ERROR_EXCHANGE_STOCK_UNKNOWN_SYMBOL);\n        }\n\n        address rewards = lookupManager(\"Rewards\");\n        if (rewards == 0x0) {\n            return _emitError(ERROR_EXCHANGE_STOCK_INTERNAL);\n        }\n\n        Exchange exchange = Exchange(getExchangeFactory().createExchange());\n\n        if (!MultiEventsHistory(getEventsHistory()).authorize(exchange)) {\n            revert();\n        }\n\n        exchange.init(contractsManager, token, rewards, getFee());\n\n        if (_buyPrice > 0 && _sellPrice > 0) {\n            if (exchange.setPrices(_buyPrice, _buyDecimals, _sellPrice, _sellDecimals) != OK) {\n                revert();\n            }\n        }\n\n        if (_authorizedManager != 0x0) {\n            if (exchange.grantAuthorized(_authorizedManager) != OK) {\n                revert();\n            }\n        }\n\n        if (exchange.setActive(_isActive) != OK) {\n            revert();\n        }\n\n        if (!exchange.transferContractOwnership(msg.sender)) {\n            revert();\n        }\n\n        store.add(exchanges, bytes32(address(exchange)));\n        store.add(owners, bytes32(msg.sender), address(exchange));\n\n        assert(exchange.contractOwner() == msg.sender);\n        assert(exchange.rewards() == rewards);\n        assert(exchange.feePercent() == getFee());\n\n        _emitExchangeCreated(msg.sender, exchange);\n\n        _result[0] = OK;\n        return OK;\n    }\n\n    /// Deletes msg.sender from the exchange list.\n    /// Note: Designed to be called only by exchange contract.\n    function removeExchange()\n    public\n    returns (uint errorCode)\n    {\n        if (!isExchangeExists(msg.sender)) {\n            return _emitError(ERROR_EXCHANGE_STOCK_NOT_FOUND);\n        }\n\n        store.remove(exchanges, bytes32(msg.sender));\n        MultiEventsHistory(getEventsHistory()).reject(msg.sender);\n\n        address owner = Exchange(msg.sender).contractOwner();\n        store.remove(owners, bytes32(owner), msg.sender);\n\n        _emitExchangeRemoved(msg.sender);\n        return OK;\n    }\n\n    /// Tells whether the given _exchange is in registry.\n    function isExchangeExists(address _exchange) public view returns (bool) {\n        return store.includes(exchanges, bytes32(_exchange));\n    }\n\n    /// Returns the paginated array of excnhages, starting from _fromIdx and len _length.\n    function getExchanges(uint _fromIdx, uint _length) public view returns (address [] result) {\n        result = new address [] (_length);\n        for (uint idx = 0; idx < _length; idx++) {\n            result[idx] = address(store.get(exchanges, idx + _fromIdx));\n        }\n    }\n\n    /// Returns the count of the registered exchanges.\n    function getExchangesCount() public view returns (uint) {\n        return store.count(exchanges);\n    }\n\n    /// Returns the exchanges which belongs to the given _owner\n    function getExchangesForOwner(address _owner) public view returns (address []) {\n        return store.get(owners, bytes32(_owner));\n    }\n\n    /// Returns the number of exchanges which belongs to the given _owner\n    function getExchangesForOwnerCount(address _owner) public view returns (uint) {\n        return store.count(owners, bytes32(_owner));\n    }\n\n    /// The fee value against which the exchange should calculate fee.\n    function getFee() public view returns (uint) {\n        return store.get(fee);\n    }\n\n    /// Util method which returns agregated data for given _exchanges.\n    function getExchangeData(address [] _exchanges)\n    external\n    view\n    returns (address [] assets,\n             uint [] buyPrices,\n             uint [] buyDecimals,\n             uint [] sellPrices,\n             uint [] sellDecimals,\n             uint [] assetBalances,\n             uint [] ethBalances)\n    {\n        assets = new address [] (_exchanges.length);\n        buyPrices = new uint [] (_exchanges.length);\n        buyDecimals = new uint [] (_exchanges.length);\n        sellPrices = new uint [] (_exchanges.length);\n        sellDecimals = new uint [] (_exchanges.length);\n        assetBalances = new uint [] (_exchanges.length);\n        ethBalances = new uint [] (_exchanges.length);\n\n        for (uint idx = 0; idx < _exchanges.length; idx++) {\n            if (isExchangeExists(_exchanges[idx])) {\n                Exchange exchange = Exchange(_exchanges[idx]);\n\n                assets[idx] = address(exchange.asset());\n                (buyPrices[idx], buyDecimals[idx]) = exchange.getBuyPrice();\n                (sellPrices[idx], sellDecimals[idx]) = exchange.getSellPrice();\n                assetBalances[idx] = exchange.assetBalance();\n                ethBalances[idx] = exchange.balance;\n            }\n        }\n    }\n\n    /// Returns the Exchange Factory address\n    function getExchangeFactory() public view returns (ExchangeFactory) {\n        return ExchangeFactory(store.get(exchangeFactory));\n    }\n\n    /// Retturns ERC20Manager address\n    function lookupERC20Manager() internal view returns (ERC20Manager) {\n        return ERC20Manager(lookupManager(\"ERC20Manager\"));\n    }\n\n    /* Events History util methods */\n\n    function _emitExchangeRemoved(address _exchange) internal {\n        Asset asset = Exchange(_exchange).asset();\n        ExchangeManagerEmitter(getEventsHistory())\n            .emitExchangeRemoved(_exchange, address(asset));\n    }\n\n    function _emitExchangeAdded(address _user, address _exchange) internal {\n        Asset asset = Exchange(_exchange).asset();\n        ExchangeManagerEmitter(getEventsHistory())\n            .emitExchangeAdded(_user, _exchange, address(asset));\n    }\n\n    function _emitExchangeCreated(\n        address _user,\n        address _exchange)\n    internal\n    {\n        Asset asset = Exchange(_exchange).asset();\n        ExchangeManagerEmitter(getEventsHistory())\n            .emitExchangeCreated(_user, _exchange, address(asset));\n    }\n\n    function _emitError(uint error) internal returns (uint) {\n        ExchangeManagerEmitter(getEventsHistory()).emitError(error);\n        return error;\n    }\n}\n",
  "sourcePath": "/Users/ahiatsevich/Development/chronobank/SmartContracts/contracts/exchange/ExchangeManager.sol",
  "compiler": {
    "name": "solc",
    "version": "0.4.18+commit.9cf6e910.Emscripten.clang"
  },
  "schemaVersion": "1.0.1",
  "updatedAt": "2017-12-15T10:40:17.814Z"
}