{
  "contractName": "ExchangeManager",
  "abi": [
    {
      "constant": false,
      "inputs": [
        {
          "name": "_contractsManager",
          "type": "address"
        }
      ],
      "name": "init",
      "outputs": [
        {
          "name": "",
          "type": "uint256"
        }
      ],
      "payable": false,
      "stateMutability": "nonpayable",
      "type": "function"
    },
    {
      "constant": true,
      "inputs": [
        {
          "name": "",
          "type": "uint256"
        }
      ],
      "name": "exchanges",
      "outputs": [
        {
          "name": "",
          "type": "address"
        }
      ],
      "payable": false,
      "stateMutability": "view",
      "type": "function"
    },
    {
      "constant": false,
      "inputs": [],
      "name": "claimContractOwnership",
      "outputs": [
        {
          "name": "",
          "type": "bool"
        }
      ],
      "payable": false,
      "stateMutability": "nonpayable",
      "type": "function"
    },
    {
      "constant": true,
      "inputs": [
        {
          "name": "_exchange",
          "type": "address"
        },
        {
          "name": "_owner",
          "type": "address"
        }
      ],
      "name": "isExchangeOwner",
      "outputs": [
        {
          "name": "",
          "type": "bool"
        }
      ],
      "payable": false,
      "stateMutability": "view",
      "type": "function"
    },
    {
      "constant": true,
      "inputs": [
        {
          "name": "_identifier",
          "type": "bytes32"
        }
      ],
      "name": "lookupManager",
      "outputs": [
        {
          "name": "manager",
          "type": "address"
        }
      ],
      "payable": false,
      "stateMutability": "view",
      "type": "function"
    },
    {
      "constant": true,
      "inputs": [],
      "name": "contractsManager",
      "outputs": [
        {
          "name": "",
          "type": "address"
        }
      ],
      "payable": false,
      "stateMutability": "view",
      "type": "function"
    },
    {
      "constant": false,
      "inputs": [
        {
          "name": "_to",
          "type": "address"
        }
      ],
      "name": "changeContractOwnership",
      "outputs": [
        {
          "name": "",
          "type": "bool"
        }
      ],
      "payable": false,
      "stateMutability": "nonpayable",
      "type": "function"
    },
    {
      "constant": true,
      "inputs": [],
      "name": "pendingContractOwner",
      "outputs": [
        {
          "name": "",
          "type": "address"
        }
      ],
      "payable": false,
      "stateMutability": "view",
      "type": "function"
    },
    {
      "constant": false,
      "inputs": [
        {
          "name": "_eventsHistory",
          "type": "address"
        }
      ],
      "name": "setEventsHistory",
      "outputs": [],
      "payable": false,
      "stateMutability": "nonpayable",
      "type": "function"
    },
    {
      "constant": false,
      "inputs": [
        {
          "name": "user",
          "type": "address"
        },
        {
          "name": "oldExchange",
          "type": "address"
        },
        {
          "name": "newExchange",
          "type": "address"
        }
      ],
      "name": "emitExchangeEdited",
      "outputs": [],
      "payable": false,
      "stateMutability": "nonpayable",
      "type": "function"
    },
    {
      "constant": false,
      "inputs": [
        {
          "name": "_exchange",
          "type": "address"
        },
        {
          "name": "_owner",
          "type": "address"
        }
      ],
      "name": "addExchangeOwner",
      "outputs": [
        {
          "name": "errorCode",
          "type": "uint256"
        }
      ],
      "payable": false,
      "stateMutability": "nonpayable",
      "type": "function"
    },
    {
      "constant": false,
      "inputs": [
        {
          "name": "user",
          "type": "address"
        },
        {
          "name": "exchange",
          "type": "address"
        },
        {
          "name": "count",
          "type": "uint256"
        }
      ],
      "name": "emitExchangeAdded",
      "outputs": [],
      "payable": false,
      "stateMutability": "nonpayable",
      "type": "function"
    },
    {
      "constant": false,
      "inputs": [
        {
          "name": "_exchange",
          "type": "address"
        },
        {
          "name": "data",
          "type": "bytes"
        }
      ],
      "name": "forward",
      "outputs": [
        {
          "name": "errorCode",
          "type": "uint256"
        }
      ],
      "payable": false,
      "stateMutability": "nonpayable",
      "type": "function"
    },
    {
      "constant": false,
      "inputs": [
        {
          "name": "_contractsManager",
          "type": "address"
        }
      ],
      "name": "setContractsManager",
      "outputs": [],
      "payable": false,
      "stateMutability": "nonpayable",
      "type": "function"
    },
    {
      "constant": true,
      "inputs": [
        {
          "name": "owner",
          "type": "address"
        }
      ],
      "name": "getExchangesForOwner",
      "outputs": [
        {
          "name": "",
          "type": "address[]"
        }
      ],
      "payable": false,
      "stateMutability": "view",
      "type": "function"
    },
    {
      "constant": false,
      "inputs": [
        {
          "name": "user",
          "type": "address"
        },
        {
          "name": "exchange",
          "type": "address"
        },
        {
          "name": "count",
          "type": "uint256"
        }
      ],
      "name": "emitExchangeCreated",
      "outputs": [],
      "payable": false,
      "stateMutability": "nonpayable",
      "type": "function"
    },
    {
      "constant": true,
      "inputs": [
        {
          "name": "_exchange",
          "type": "address"
        }
      ],
      "name": "getExchangeOwners",
      "outputs": [
        {
          "name": "",
          "type": "address[]"
        }
      ],
      "payable": false,
      "stateMutability": "view",
      "type": "function"
    },
    {
      "constant": false,
      "inputs": [],
      "name": "destroy",
      "outputs": [],
      "payable": false,
      "stateMutability": "nonpayable",
      "type": "function"
    },
    {
      "constant": false,
      "inputs": [
        {
          "name": "_exchange",
          "type": "address"
        }
      ],
      "name": "removeExchange",
      "outputs": [
        {
          "name": "errorCode",
          "type": "uint256"
        }
      ],
      "payable": false,
      "stateMutability": "nonpayable",
      "type": "function"
    },
    {
      "constant": false,
      "inputs": [
        {
          "name": "user",
          "type": "address"
        },
        {
          "name": "owner",
          "type": "address"
        },
        {
          "name": "exchange",
          "type": "address"
        }
      ],
      "name": "emitExchangeOwnerAdded",
      "outputs": [],
      "payable": false,
      "stateMutability": "nonpayable",
      "type": "function"
    },
    {
      "constant": false,
      "inputs": [
        {
          "name": "_to",
          "type": "address"
        }
      ],
      "name": "transferContractOwnership",
      "outputs": [
        {
          "name": "",
          "type": "bool"
        }
      ],
      "payable": false,
      "stateMutability": "nonpayable",
      "type": "function"
    },
    {
      "constant": false,
      "inputs": [
        {
          "name": "user",
          "type": "address"
        },
        {
          "name": "exchange",
          "type": "address"
        }
      ],
      "name": "emitExchangeRemoved",
      "outputs": [],
      "payable": false,
      "stateMutability": "nonpayable",
      "type": "function"
    },
    {
      "constant": false,
      "inputs": [
        {
          "name": "_exchange",
          "type": "address"
        }
      ],
      "name": "addExchange",
      "outputs": [
        {
          "name": "errorCode",
          "type": "uint256"
        }
      ],
      "payable": false,
      "stateMutability": "nonpayable",
      "type": "function"
    },
    {
      "constant": false,
      "inputs": [
        {
          "name": "user",
          "type": "address"
        },
        {
          "name": "owner",
          "type": "address"
        },
        {
          "name": "exchange",
          "type": "address"
        }
      ],
      "name": "emitExchangeOwnerRemoved",
      "outputs": [],
      "payable": false,
      "stateMutability": "nonpayable",
      "type": "function"
    },
    {
      "constant": false,
      "inputs": [
        {
          "name": "_exchange",
          "type": "address"
        },
        {
          "name": "_owner",
          "type": "address"
        }
      ],
      "name": "removeExchangeOwner",
      "outputs": [
        {
          "name": "errorCode",
          "type": "uint256"
        }
      ],
      "payable": false,
      "stateMutability": "nonpayable",
      "type": "function"
    },
    {
      "constant": true,
      "inputs": [],
      "name": "contractOwner",
      "outputs": [
        {
          "name": "",
          "type": "address"
        }
      ],
      "payable": false,
      "stateMutability": "view",
      "type": "function"
    },
    {
      "constant": false,
      "inputs": [
        {
          "name": "tokens",
          "type": "address[]"
        },
        {
          "name": "_to",
          "type": "address"
        }
      ],
      "name": "withdrawnTokens",
      "outputs": [
        {
          "name": "",
          "type": "uint256"
        }
      ],
      "payable": false,
      "stateMutability": "nonpayable",
      "type": "function"
    },
    {
      "constant": false,
      "inputs": [
        {
          "name": "_symbol",
          "type": "bytes32"
        },
        {
          "name": "_useTicker",
          "type": "bool"
        }
      ],
      "name": "createExchange",
      "outputs": [
        {
          "name": "errorCode",
          "type": "uint256"
        }
      ],
      "payable": false,
      "stateMutability": "nonpayable",
      "type": "function"
    },
    {
      "constant": false,
      "inputs": [
        {
          "name": "errorCode",
          "type": "uint256"
        }
      ],
      "name": "emitError",
      "outputs": [],
      "payable": false,
      "stateMutability": "nonpayable",
      "type": "function"
    },
    {
      "constant": false,
      "inputs": [
        {
          "name": "_exchangeOld",
          "type": "address"
        },
        {
          "name": "_exchangeNew",
          "type": "address"
        }
      ],
      "name": "editExchange",
      "outputs": [
        {
          "name": "errorCode",
          "type": "uint256"
        }
      ],
      "payable": false,
      "stateMutability": "nonpayable",
      "type": "function"
    },
    {
      "constant": true,
      "inputs": [
        {
          "name": "key",
          "type": "address"
        }
      ],
      "name": "isAuthorized",
      "outputs": [
        {
          "name": "",
          "type": "bool"
        }
      ],
      "payable": false,
      "stateMutability": "view",
      "type": "function"
    },
    {
      "constant": true,
      "inputs": [],
      "name": "getEventsHistory",
      "outputs": [
        {
          "name": "",
          "type": "address"
        }
      ],
      "payable": false,
      "stateMutability": "view",
      "type": "function"
    },
    {
      "inputs": [
        {
          "name": "_store",
          "type": "address"
        },
        {
          "name": "_crate",
          "type": "bytes32"
        }
      ],
      "payable": false,
      "stateMutability": "nonpayable",
      "type": "constructor"
    },
    {
      "anonymous": false,
      "inputs": [
        {
          "indexed": true,
          "name": "self",
          "type": "address"
        },
        {
          "indexed": true,
          "name": "user",
          "type": "address"
        },
        {
          "indexed": false,
          "name": "exchange",
          "type": "address"
        }
      ],
      "name": "ExchangeRemoved",
      "type": "event"
    },
    {
      "anonymous": false,
      "inputs": [
        {
          "indexed": true,
          "name": "self",
          "type": "address"
        },
        {
          "indexed": true,
          "name": "user",
          "type": "address"
        },
        {
          "indexed": false,
          "name": "exchange",
          "type": "address"
        },
        {
          "indexed": false,
          "name": "count",
          "type": "uint256"
        }
      ],
      "name": "ExchangeAdded",
      "type": "event"
    },
    {
      "anonymous": false,
      "inputs": [
        {
          "indexed": true,
          "name": "self",
          "type": "address"
        },
        {
          "indexed": true,
          "name": "user",
          "type": "address"
        },
        {
          "indexed": false,
          "name": "oldExchange",
          "type": "address"
        },
        {
          "indexed": false,
          "name": "newExchange",
          "type": "address"
        }
      ],
      "name": "ExchangeEdited",
      "type": "event"
    },
    {
      "anonymous": false,
      "inputs": [
        {
          "indexed": true,
          "name": "self",
          "type": "address"
        },
        {
          "indexed": true,
          "name": "user",
          "type": "address"
        },
        {
          "indexed": false,
          "name": "exchange",
          "type": "address"
        },
        {
          "indexed": false,
          "name": "count",
          "type": "uint256"
        }
      ],
      "name": "ExchangeCreated",
      "type": "event"
    },
    {
      "anonymous": false,
      "inputs": [
        {
          "indexed": true,
          "name": "self",
          "type": "address"
        },
        {
          "indexed": true,
          "name": "user",
          "type": "address"
        },
        {
          "indexed": false,
          "name": "owner",
          "type": "address"
        },
        {
          "indexed": false,
          "name": "exchange",
          "type": "address"
        }
      ],
      "name": "ExchangeOwnerAdded",
      "type": "event"
    },
    {
      "anonymous": false,
      "inputs": [
        {
          "indexed": true,
          "name": "self",
          "type": "address"
        },
        {
          "indexed": true,
          "name": "user",
          "type": "address"
        },
        {
          "indexed": false,
          "name": "owner",
          "type": "address"
        },
        {
          "indexed": false,
          "name": "exchange",
          "type": "address"
        }
      ],
      "name": "ExchangeOwnerRemoved",
      "type": "event"
    },
    {
      "anonymous": false,
      "inputs": [
        {
          "indexed": true,
          "name": "self",
          "type": "address"
        },
        {
          "indexed": false,
          "name": "errorCode",
          "type": "uint256"
        }
      ],
      "name": "Error",
      "type": "event"
    }
  ],
  "bytecode": "0x6060604052341561000f57600080fd5b6040516040806134b883398101604052808051919060200180519150829050818181818161004c60008383640100000000611f4061008b82021704565b505060028054600160a060020a03338116600160a060020a031992831617909255600580543090931692909116919091179055506100b1945050505050565b8254600160a060020a031916600160a060020a0392909216919091178255600190910155565b6133f8806100c06000396000f30060606040526004361061017c5763ffffffff60e060020a60003504166319ab453c81146101815780632839fc29146101b25780634592cd1d146101e45780634f5a70ee1461020b5780634fe590121461023057806353253d3114610246578063557f4bc9146102595780635aa77d3c146102785780636521afd71461028b57806366706c87146102ac5780636c597549146102d75780636d231495146102fc5780636fadcf721461032457806371d3b5731461038357806372ffb543146103a25780637c31ceda146104145780637fec4bb21461043c57806383197ef01461045b5780638e0be3691461046e578063931927e31461048d578063a843c51f146104b8578063a899ebcd146104d7578063aa10ce22146104fc578063b3836a111461051b578063b5a4879114610546578063ce606ee01461056b578063d8f9659b1461057e578063ddb38f70146105d8578063df26ca08146105f3578063fd83cfac14610609578063fe9fbb801461062e578063fff10aba1461064d575b600080fd5b341561018c57600080fd5b6101a0600160a060020a0360043516610660565b60405190815260200160405180910390f35b34156101bd57600080fd5b6101c86004356106af565b604051600160a060020a03909116815260200160405180910390f35b34156101ef57600080fd5b6101f76106d7565b604051901515815260200160405180910390f35b341561021657600080fd5b6101f7600160a060020a0360043581169060243516610724565b341561023b57600080fd5b6101c86004356107a9565b341561025157600080fd5b6101c861082d565b341561026457600080fd5b6101f7600160a060020a036004351661083c565b341561028357600080fd5b6101c8610893565b341561029657600080fd5b6102aa600160a060020a03600435166108a2565b005b34156102b757600080fd5b6102aa600160a060020a03600435811690602435811690604435166108d8565b34156102e257600080fd5b6101a0600160a060020a036004358116906024351661093e565b341561030757600080fd5b6102aa600160a060020a0360043581169060243516604435610a3c565b341561032f57600080fd5b6101a060048035600160a060020a03169060446024803590810190830135806020601f82018190048102016040519081016040528181529291906020840183838082843750949650610aa095505050505050565b341561038e57600080fd5b6102aa600160a060020a0360043516610b42565b34156103ad57600080fd5b6103c1600160a060020a0360043516610b79565b60405160208082528190810183818151815260200191508051906020019060200280838360005b838110156104005780820151838201526020016103e8565b505050509050019250505060405180910390f35b341561041f57600080fd5b6102aa600160a060020a0360043581169060243516604435610c8a565b341561044757600080fd5b6103c1600160a060020a0360043516610cee565b341561046657600080fd5b6102aa610d7b565b341561047957600080fd5b6101a0600160a060020a0360043516610e11565b341561049857600080fd5b6102aa600160a060020a0360043581169060243581169060443516610f23565b34156104c357600080fd5b6101f7600160a060020a0360043516610f89565b34156104e257600080fd5b6102aa600160a060020a0360043581169060243516611002565b341561050757600080fd5b6101a0600160a060020a036004351661105e565b341561052657600080fd5b6102aa600160a060020a03600435811690602435811690604435166111ea565b341561055157600080fd5b6101a0600160a060020a0360043581169060243516611250565b341561057657600080fd5b6101c86113cb565b341561058957600080fd5b6101a0600460248135818101908301358060208181020160405190810160405280939291908181526020018383602002808284375094965050509235600160a060020a031692506113da915050565b34156105e357600080fd5b6101a0600435602435151561152b565b34156105fe57600080fd5b6102aa6004356117f0565b341561061457600080fd5b6101a0600160a060020a0360043581169060243516611837565b341561063957600080fd5b6101f7600160a060020a03600435166118f0565b341561065857600080fd5b6101c8611996565b60025460009033600160a060020a03908116911614156106aa576106a4827f45786368616e67654d616e6167657200000000000000000000000000000000006119a5565b50600190505b919050565b60068054829081106106bd57fe5b600091825260209091200154600160a060020a0316905081565b60035460009033600160a060020a039081169116146106f857506000610721565b506003805460028054600160a060020a0319908116600160a060020a0384161790915516905560015b90565b6000805b600160a060020a03841660009081526007602052604090205481101561079d57600160a060020a0384811660009081526007602052604090208054918516918390811061077157fe5b600091825260209091200154600160a060020a0316141561079557600191506107a2565b600101610728565b600091505b5092915050565b600454600090600160a060020a031663bc65792783836040516020015260405160e060020a63ffffffff84160281526004810191909152602401602060405180830381600087803b15156107fc57600080fd5b6102c65a03f1151561080d57600080fd5b5050506040518051915050600160a060020a03811615156106aa57600080fd5b600454600160a060020a031681565b60025460009033600160a060020a03908116911614156106aa57600160a060020a038216151561086e575060006106aa565b5060038054600160a060020a038316600160a060020a03199091161790556001919050565b600354600160a060020a031681565b60025433600160a060020a03908116911614156108d55760058054600160a060020a031916600160a060020a0383161790555b50565b82600160a060020a03166108ea611b96565b600160a060020a03167f12fff04f1bd52bb3584b47bab1bbf594e105a8a1727f99689e194b0f95cd18a78484604051600160a060020a039283168152911660208201526040908101905180910390a3505050565b6000808361094c8133610724565b15610a3457600091505b600160a060020a0385166000908152600760205260409020548210156109d757600160a060020a0385811660009081526007602052604090208054918616918490811061099f57fe5b600091825260209091200154600160a060020a031614156109cc576109c5611b59611b9a565b9250610a34565b600190910190610956565b600160a060020a03851660009081526007602052604090208054600181016109ff8382611eb9565b5060009182526020909120018054600160a060020a031916600160a060020a038616179055610a2f338587611c03565b600192505b505092915050565b82600160a060020a0316610a4e611b96565b600160a060020a03167fdcf10ae57be6f6d02ae3cc35750483d7f191f48aec92652a721b50ce5279ef2d8484604051600160a060020a03909216825260208201526040908101905180910390a3505050565b600082610aad8133610724565b156107a25783600160a060020a03168360405180828051906020019080838360005b83811015610ae7578082015183820152602001610acf565b50505050905090810190601f168015610b145780820380516001836020036101000a031916815260200191505b5091505060006040518083038160008661646e5a03f19150501515610b3857600080fd5b5060019392505050565b60025433600160a060020a03908116911614156108d55760048054600160a060020a038316600160a060020a031990911617905550565b610b81611ee2565b600080610b8c611ee2565b600091505b600654821015610bdf57610bc8600683815481101515610bad57fe5b600091825260209091200154600160a060020a031686610724565b15610bd4576001909201915b600190910190610b91565b82604051805910610bed5750595b9080825280602002602001820160405250905060009250600091505b600654821015610c8257610c25600683815481101515610bad57fe5b15610c77576006805483908110610c3857fe5b600091825260209091200154600160a060020a0316818481518110610c5957fe5b600160a060020a039092166020928302909101909101526001909201915b600190910190610c09565b949350505050565b82600160a060020a0316610c9c611b96565b600160a060020a03167fae72fcb3a03816c7f6d7d3eeee19497e5df191daed620ae5d7c1431dfa0194888484604051600160a060020a03909216825260208201526040908101905180910390a3505050565b610cf6611ee2565b6007600083600160a060020a0316600160a060020a03168152602001908152602001600020805480602002602001604051908101604052809291908181526020018280548015610d6f57602002820191906000526020600020905b8154600160a060020a03168152600190910190602001808311610d51575b50505050509050919050565b60025433600160a060020a0390811691161415610e0f57600454600160a060020a031663c375c2ef3060006040516020015260405160e060020a63ffffffff8416028152600160a060020a039091166004820152602401602060405180830381600087803b1515610deb57600080fd5b6102c65a03f11515610dfc57600080fd5b5050506040518051905050610e0f611c83565b565b60008082610e1f8133610724565b15610f1c57600091505b600654821015610eec5783600160a060020a0316600683815481101515610e4c57fe5b600091825260209091200154600160a060020a03161415610ee157600680546000198101908110610e7957fe5b60009182526020909120015460068054600160a060020a039092169184908110610e9f57fe5b60009182526020909120018054600160a060020a031916600160a060020a0392909216919091179055600680546000190190610edb9082611eb9565b50610eec565b600190910190610e29565b600160a060020a0384166000908152600760205260408120610f0d91611ef4565b610f173385611ca6565b600192505b5050919050565b82600160a060020a0316610f35611b96565b600160a060020a03167f7f1fa1fa2da289247703799f5cfbf9957a0122fe19aa9b26feeae4736de7652a8484604051600160a060020a039283168152911660208201526040908101905180910390a3505050565b60025460009033600160a060020a03908116911614156106aa57600160a060020a0382161515610fbb575060006106aa565b600354600160a060020a031615610fdd5760038054600160a060020a03191690555b5060028054600160a060020a038316600160a060020a03199091161790556001919050565b81600160a060020a0316611014611b96565b600160a060020a03167fca8635f861d7d46674a4a9fe54ae651789412ed8624a466c07b2f0c3eb141f8783604051600160a060020a03909116815260200160405180910390a35050565b600081600160a060020a0316638620410b6000604051602001526040518163ffffffff1660e060020a028152600401602060405180830381600087803b15156110a657600080fd5b6102c65a03f115156110b757600080fd5b50505060405180515050600160a060020a038216634b7503346000604051602001526040518163ffffffff1660e060020a028152600401602060405180830381600087803b151561110757600080fd5b6102c65a03f1151561111857600080fd5b50505060405180515050600160a060020a03821660009081526007602052604090205415156111d95760068054600181016111538382611eb9565b5060009182526020808320919091018054600160a060020a031916600160a060020a038616908117909155825260079052604090208054600181016111988382611eb9565b5060009182526020909120018054600160a060020a03191633600160a060020a038116919091179091556006546111d191908490611d1b565b5060016106aa565b6111e4611b59611b9a565b92915050565b82600160a060020a03166111fc611b96565b600160a060020a03167fcf88c159e70f503976d612b76365646b85c7742ca802852ab1d305af87c135928484604051600160a060020a039283168152911660208201526040908101905180910390a3505050565b6000808361125e8133610724565b15610a345733600160a060020a031684600160a060020a03161415611288576109c5611b59611b9a565b600091505b600160a060020a0385166000908152600760205260409020548210156113b757600160a060020a038581166000908152600760205260409020805491861691849081106112d657fe5b600091825260209091200154600160a060020a031614156113ac57600160a060020a03851660009081526007602052604090208054600019810190811061131957fe5b6000918252602080832090910154600160a060020a0388811684526007909252604090922080549190921691908490811061135057fe5b60009182526020808320919091018054600160a060020a031916600160a060020a039485161790559187168152600790915260409020805490611397906000198301611eb9565b506113a3338587611d83565b60019250610a34565b60019091019061128d565b6113c2611b58611b9a565b95945050505050565b600254600160a060020a031681565b60025460009081908190819033600160a060020a039081169116141561152257600092505b855183101561151d5785838151811061141457fe5b90602001906020020151915081600160a060020a03166370a082313060006040516020015260405160e060020a63ffffffff8416028152600160a060020a039091166004820152602401602060405180830381600087803b151561147757600080fd5b6102c65a03f1151561148857600080fd5b505050604051805191505080156115125781600160a060020a031663a9059cbb868360006040516020015260405160e060020a63ffffffff8516028152600160a060020a0390921660048301526024820152604401602060405180830381600087803b15156114f657600080fd5b6102c65a03f1151561150757600080fd5b505050604051805150505b6001909201916113ff565b600193505b50505092915050565b60008060008060008061155d7f45524332304d616e6167657200000000000000000000000000000000000000006107a9565b945084600160a060020a031663fa7fdeb78960006040516020015260405160e060020a63ffffffff84160281526004810191909152602401602060405180830381600087803b15156115ae57600080fd5b6102c65a03f115156115bf57600080fd5b5050506040518051905093506115f47f52657761726473000000000000000000000000000000000000000000000000006107a9565b9250600160a060020a03841615806116135750600160a060020a038316155b1561162a57611623611b5c611b9a565b95506117e5565b611632611f12565b604051809103906000f080151561164857600080fd5b915081600160a060020a03166302927d20611661611996565b60006040516020015260405160e060020a63ffffffff8416028152600160a060020a039091166004820152602401602060405180830381600087803b15156116a857600080fd5b6102c65a03f115156116b957600080fd5b50505060405180515050600160a060020a0382166346639dba858584600a60006040516020015260405160e060020a63ffffffff8716028152600160a060020a0394851660048201529284166024840152921660448201526064810191909152608401602060405180830381600087803b151561173557600080fd5b6102c65a03f1151561174657600080fd5b5050506040518051505060068054600181016117628382611eb9565b5060009182526020808320919091018054600160a060020a031916600160a060020a038616908117909155825260079052604090208054600181016117a78382611eb9565b5060009182526020909120018054600160a060020a03191633600160a060020a038116919091179091556006546117e091908490611dea565b600195505b505050505092915050565b6117f8611b96565b600160a060020a03167f9cf38cf2dbf9139f5c32639950507b10775fbbe0421f3e168bc2d1bb1ae3208c8260405190815260200160405180910390a250565b600080836118458133610724565b15610a3457600091505b6006548210156113b75784600160a060020a031660068381548110151561187257fe5b600091825260209091200154600160a060020a031614156118e5578360068381548110151561189d57fe5b60009182526020909120018054600160a060020a031916600160a060020a03929092169190911790556006805460001901906118d99082611eb9565b506113a3338686611e52565b60019091019061184f565b60008061191c7f557365724d616e616765720000000000000000000000000000000000000000006107a9565b905080600160a060020a0316632aa09e5a8460006040516020015260405160e060020a63ffffffff8416028152600160a060020a039091166004820152602401602060405180830381600087803b151561197557600080fd5b6102c65a03f1151561198657600080fd5b5050506040518051949350505050565b600554600160a060020a031690565b60025460009081908190819033600160a060020a039081169116146119c957600080fd5b600160a060020a03861615156119de57600080fd5b600454600160a060020a0316158015935080611a085750600454600160a060020a03878116911614155b15611a295760048054600160a060020a031916600160a060020a0388161790555b600454600160a060020a031691508163bc65792760006040516020015260405160e060020a63ffffffff83160281527f4d756c74694576656e7473486973746f727900000000000000000000000000006004820152602401602060405180830381600087803b1515611a9a57600080fd5b6102c65a03f11515611aab57600080fd5b5050506040518051915050600160a060020a03811615801590611adc5750600554600160a060020a03828116911614155b15611afd5760058054600160a060020a031916600160a060020a0383161790555b8415611b845781600160a060020a031663b7c46cd5308760006040516020015260405160e060020a63ffffffff8516028152600160a060020a0390921660048301526024820152604401602060405180830381600087803b1515611b6057600080fd5b6102c65a03f11515611b7157600080fd5b50505060405180516001149050611b8457fe5b821561151d5760069695505050505050565b3390565b6000611ba4611996565b600160a060020a031663df26ca088360405160e060020a63ffffffff84160281526004810191909152602401600060405180830381600087803b1515611be957600080fd5b6102c65a03f11515611bfa57600080fd5b50929392505050565b611c0b611996565b600160a060020a031663931927e384848460405160e060020a63ffffffff8616028152600160a060020a03938416600482015291831660248301529091166044820152606401600060405180830381600087803b1515611c6a57600080fd5b6102c65a03f11515611c7b57600080fd5b505050505050565b60025433600160a060020a0390811691161415610e0f5733600160a060020a0316ff5b611cae611996565b600160a060020a031663a899ebcd838360405160e060020a63ffffffff8516028152600160a060020a03928316600482015291166024820152604401600060405180830381600087803b1515611d0357600080fd5b6102c65a03f11515611d1457600080fd5b5050505050565b611d23611996565b600160a060020a0316636d23149584848460405160e060020a63ffffffff8616028152600160a060020a0393841660048201529190921660248201526044810191909152606401600060405180830381600087803b1515611c6a57600080fd5b611d8b611996565b600160a060020a031663b3836a1184848460405160e060020a63ffffffff8616028152600160a060020a03938416600482015291831660248301529091166044820152606401600060405180830381600087803b1515611c6a57600080fd5b611df2611996565b600160a060020a0316637c31ceda84848460405160e060020a63ffffffff8616028152600160a060020a0393841660048201529190921660248201526044810191909152606401600060405180830381600087803b1515611c6a57600080fd5b611e5a611996565b600160a060020a03166366706c8784848460405160e060020a63ffffffff8616028152600160a060020a03938416600482015291831660248301529091166044820152606401600060405180830381600087803b1515611c6a57600080fd5b815481835581811511611edd57600083815260209020611edd918101908301611f22565b505050565b60206040519081016040526000815290565b50805460008255906000526020600020908101906108d59190611f22565b60405161146680611f6783390190565b61072191905b80821115611f3c5760008155600101611f28565b5090565b8254600160a060020a031916600160a060020a0392909216919091178255600190910155560060606040526001600555600260065561271060095560008054600160a060020a033316600160a060020a0319909116179055611426806100406000396000f3006060604052600436106101715763ffffffff60e060020a60003504166302927d2081146101ba57806305fefda7146101eb57806306b091f9146102045780631b9a91a41461022657806322f3e2d41461024857806338d52e0f1461026f5780634592cd1d1461029e57806346639dba146102b15780634b750334146102df578063557f4bc9146102f25780635aa77d3c146103115780635f48f393146103245780636ddfd403146103375780637fd6f15c1461034d57806383197ef014610360578063850a4621146103735780638620410b1461038b578063975be2311461039e5780639b2cb5d8146103b7578063a843c51f146103ca578063a878aee6146103e9578063acec338a14610408578063ce606ee014610420578063d46d79bb14610433578063d6febde814610452578063d79875eb14610460578063d8f9659b14610479578063df26ca08146104d3578063f07629f8146104e9578063fa09e630146104fc578063fff10aba1461051b575b34156101b3573433600160a060020a03167fa419615bc8fda4c87663805ee2a3597a6d71c1d476911d9892f340d965bc7bf160405160405180910390a36101b8565b600080fd5b005b34156101c557600080fd5b6101d9600160a060020a036004351661052e565b60405190815260200160405180910390f35b34156101f657600080fd5b6101d960043560243561058d565b341561020f57600080fd5b6101d9600160a060020a03600435166024356105dd565b341561023157600080fd5b6101d9600160a060020a036004351660243561079d565b341561025357600080fd5b61025b61089c565b604051901515815260200160405180910390f35b341561027a57600080fd5b6102826108ac565b604051600160a060020a03909116815260200160405180910390f35b34156102a957600080fd5b61025b6108bb565b34156102bc57600080fd5b6101d9600160a060020a0360043581169060243581169060443516606435610906565b34156102ea57600080fd5b6101d96109dc565b34156102fd57600080fd5b61025b600160a060020a03600435166109e2565b341561031c57600080fd5b610282610a35565b341561032f57600080fd5b6101d9610a44565b341561034257600080fd5b6101b8600435610a4a565b341561035857600080fd5b6101d9610a8a565b341561036b57600080fd5b6101b8610a90565b341561037e57600080fd5b6101b86004351515610ab5565b341561039657600080fd5b6101d9610af7565b34156103a957600080fd5b6101b8600435602435610afd565b34156103c257600080fd5b6101d9610b45565b34156103d557600080fd5b61025b600160a060020a0360043516610b4b565b34156103f457600080fd5b6101d9600160a060020a0360043516610bc2565b341561041357600080fd5b6101d96004351515610bec565b341561042b57600080fd5b610282610c57565b341561043e57600080fd5b6101d9600160a060020a0360043516610c66565b6101d9600435602435610c92565b341561046b57600080fd5b6101d9600435602435610ddc565b341561048457600080fd5b6101d9600460248135818101908301358060208181020160405190810160405280939291908181526020018383602002808284375094965050509235600160a060020a03169250610f6f915050565b34156104de57600080fd5b6101b86004356110be565b34156104f457600080fd5b6102826110f4565b341561050757600080fd5b6101d9600160a060020a0360043516611103565b341561052657600080fd5b610282611161565b6000805433600160a060020a039081169116141561058857600a54600160a060020a0316156105695761056261177161118e565b9050610588565b50600a8054600160a060020a031916600160a060020a03831617905560015b919050565b6000805433600160a060020a03908116911614156105d757828210156105bf576105b861177361118e565b90506105d7565b600583905560068290556105d383836111f7565b5060015b92915050565b60008054819033600160a060020a0390811691161415610796578261060130611262565b10156106195761061261177761118e565b9150610796565b60095461271001836127100281151561062e57fe5b6002549190049150600160a060020a031663a9059cbb858360006040516020015260405160e060020a63ffffffff8516028152600160a060020a0390921660048301526024820152604401602060405180830381600087803b151561069257600080fd5b6102c65a03f115156106a357600080fd5b5050506040518051905015156106be5761061261177a61118e565b83600160a060020a03167f680f2e4f4032ebf1774e8cdbaddcb1b617a5a606411c8ca96257ada338d3833c8260405190815260200160405180910390a2600254600354600160a060020a039182169163a9059cbb911683860360006040516020015260405160e060020a63ffffffff8516028152600160a060020a0390921660048301526024820152604401602060405180830381600087803b151561076357600080fd5b6102c65a03f1151561077457600080fd5b5050506040518051905015156107915761078f61177b61118e565b505b600191505b5092915050565b60008054819033600160a060020a0390811691161415610796578230600160a060020a03163110156107d45761061261177861118e565b6009546127100183612710028115156107e957fe5b049050600160a060020a03841681156108fc0282604051600060405180830381858888f1935050505015156108235761061261177a61118e565b83600160a060020a03167fccbd99ba6da8f29b2a4f65e474e3c3973564d356c162c08d45f3dc7f0cb5b3aa8260405190815260200160405180910390a2600354600160a060020a031681840380156108fc0290604051600060405180830381858888f1935050505015156107915761061261177b61118e565b60045460a060020a900460ff1681565b600254600160a060020a031681565b60015460009033600160a060020a039081169116146108dc57506000610903565b506001805460008054600160a060020a0319908116600160a060020a038416179091551681555b90565b60008054819033600160a060020a03908116911614156109d357600254600160a060020a03161515806109435750600354600160a060020a031615155b1561095a5761095361177161118e565b91506109d3565b60028054600160a060020a03808916600160a060020a0319928316179092556003805488841690831617905560048054928716929091169190911790556109a0836112dd565b905080915060018114156109d3576004805474ff0000000000000000000000000000000000000000191660a060020a1790555b50949350505050565b60065481565b6000805433600160a060020a039081169116141561058857600160a060020a0382161515610a1257506000610588565b5060018054600160a060020a038316600160a060020a0319909116178155919050565b600154600160a060020a031681565b60085481565b33600160a060020a03167f6f0eaf2c2f89fb4cfe96a1dee5e764d60b52c7f48aaa590f0850e308aa1b953a8260405190815260200160405180910390a250565b60095481565b60005433600160a060020a0390811691161415610ab35733600160a060020a0316ff5b565b33600160a060020a03167f1e9e694913ebc22589cb624c7ef8683055f578186b4a28e55d8412342921d7f382604051901515815260200160405180910390a250565b60055481565b33600160a060020a03167f8182173c5ec5828b584f228420d06be6e62aa539b8e093e4f41756d238ed35c3838360405191825260208201526040908101905180910390a25050565b60075481565b6000805433600160a060020a039081169116141561058857600160a060020a0382161515610b7b57506000610588565b600154600160a060020a031615610b9d5760018054600160a060020a03191690555b5060008054600160a060020a038316600160a060020a03199091161790556001919050565b6000805433600160a060020a0390811691161415610588576105d782610be730611262565b6105dd565b6000805433600160a060020a03908116911614156105885760045460ff60a060020a90910416151582151514610c2557610c2582611319565b506004805482151560a060020a0274ff0000000000000000000000000000000000000000199091161790556001919050565b600054600160a060020a031681565b6000805433600160a060020a0390811691161415610588576105d78230600160a060020a03163161079d565b600454600090819060a060020a900460ff161515610cb55761061261177461118e565b600654831015610cca5761061261177661118e565b83610cd430611262565b1015610ce55761061261177761118e565b610cef848461137d565b9050348114610d035761061261177861118e565b600254600160a060020a031663a9059cbb338660006040516020015260405160e060020a63ffffffff8516028152600160a060020a0390921660048301526024820152604401602060405180830381600087803b1515610d6257600080fd5b6102c65a03f11515610d7357600080fd5b505050604051805190501515610d8e5761061261177a61118e565b33600160a060020a03167f1cbc5ab135991bd2b6a4b034a04aa2aa086dac1371cb9b16b8b5e2ed6b036bed858360405191825260208201526040908101905180910390a25060019392505050565b600454600090819060a060020a900460ff161515610dff5761061261177461118e565b600554831115610e145761061261177561118e565b83610e1e33611262565b1015610e2f5761061261177761118e565b610e39848461137d565b90508030600160a060020a0316311015610e585761061261177861118e565b600254600160a060020a03166323b872dd33308760006040516020015260405160e060020a63ffffffff8616028152600160a060020a0393841660048201529190921660248201526044810191909152606401602060405180830381600087803b1515610ec457600080fd5b6102c65a03f11515610ed557600080fd5b505050604051805190501515610ef05761061261177961118e565b600160a060020a03331681156108fc0282604051600060405180830381858888f193505050501515610f2157600080fd5b33600160a060020a03167fed7a144fad14804d5c249145e3e0e2b63a9eb455b76aee5bc92d711e9bba3e4a858360405191825260208201526040908101905180910390a25060019392505050565b6000805481908190819033600160a060020a03908116911614156110b557600092505b85518310156110b057858381518110610fa757fe5b90602001906020020151915081600160a060020a03166370a082313060006040516020015260405160e060020a63ffffffff8416028152600160a060020a039091166004820152602401602060405180830381600087803b151561100a57600080fd5b6102c65a03f1151561101b57600080fd5b505050604051805191505080156110a55781600160a060020a031663a9059cbb868360006040516020015260405160e060020a63ffffffff8516028152600160a060020a0390921660048301526024820152604401602060405180830381600087803b151561108957600080fd5b6102c65a03f1151561109a57600080fd5b505050604051805150505b600190920191610f92565b600193505b50505092915050565b7f2e36a7093f25f22bd4cbdeb6040174c3ba4c5fe8f1abc04e7c3c48f26c7413e08160405190815260200160405180910390a150565b600a54600160a060020a031681565b600080548190819033600160a060020a039081169116141561115a5761112884610bc2565b91506001821461113a5781925061115a565b61114384610c66565b9050600181146111555780925061115a565b600192505b5050919050565b600a54600090600160a060020a0316151561117c5730611189565b600a54600160a060020a03165b905090565b6000611198611161565b600160a060020a031663df26ca088360405160e060020a63ffffffff84160281526004810191909152602401600060405180830381600087803b15156111dd57600080fd5b6102c65a03f115156111ee57600080fd5b50929392505050565b6111ff611161565b600160a060020a031663975be231838360405160e060020a63ffffffff851602815260048101929092526024820152604401600060405180830381600087803b151561124a57600080fd5b6102c65a03f1151561125b57600080fd5b5050505050565b600254600090600160a060020a03166370a0823183836040516020015260405160e060020a63ffffffff8416028152600160a060020a039091166004820152602401602060405180830381600087803b15156112bd57600080fd5b6102c65a03f115156112ce57600080fd5b50505060405180519392505050565b6000600160095410806112f35750612710600954115b156113035761056261177261118e565b6009829055611311826113ad565b506001919050565b611321611161565b600160a060020a031663850a46218260405160e060020a63ffffffff84160281529015156004820152602401600060405180830381600087803b151561136657600080fd5b6102c65a03f1151561137757600080fd5b50505050565b6000828202831580159061139c575082848281151561139857fe5b0414155b156113a657600080fd5b9392505050565b6113b5611161565b600160a060020a0316636ddfd4038260405160e060020a63ffffffff84160281526004810191909152602401600060405180830381600087803b151561136657600080fd00a165627a7a72305820820d3f039520854cb6b82632a40f8b2a50b0d4fc1b8773566f78bef53e77136c0029a165627a7a72305820291efad3a9e36f3db1cafdf031ee49558907f9cd0e1d5d9dedb924ae114225300029",
  "source": "pragma solidity ^0.4.11;\n\nimport \"../core/common/BaseManager.sol\";\nimport \"./Exchange.sol\";\nimport {ERC20ManagerInterface as ERC20Manager} from \"../core/erc20/ERC20ManagerInterface.sol\";\nimport {ERC20Interface as Asset} from \"../core/erc20/ERC20Interface.sol\";\nimport \"./ExchangeManagerEmitter.sol\";\n\n\ncontract ExchangeManager is ExchangeManagerEmitter, BaseManager {\n  // Exchange Manager errors\n    uint constant ERROR_EXCHANGE_STOCK_NOT_FOUND = 7000;\n    uint constant ERROR_EXCHANGE_STOCK_INVALID_PARAMETER = 7001;\n    uint constant ERROR_EXCHANGE_STOCK_INVALID_INVOCATION = 7002;\n    uint constant ERROR_EXCHANGE_STOCK_ADD_CONTRACT = 7003;\n    uint constant ERROR_EXCHANGE_STOCK_UNABLE_CREATE_EXCHANGE = 7004;\n\n    address[] public exchanges;\n    mapping (address => address[]) owners;\n\n    //Exchanges APIs for rate tracking array\n    //string[] public URLs;\n    //mapping(bytes32 => bool) URLexsist;\n\n    modifier onlyExchangeOwner(address _exchange) {\n        if (isExchangeOwner(_exchange, msg.sender)) {\n            _;\n        }\n    }\n\n    function isExchangeOwner(address _exchange, address _owner) constant returns (bool) {\n        for (uint i = 0; i < owners[_exchange].length; i++) {\n            if (owners[_exchange][i] == _owner) {return true;}\n        }\n        return false;\n    }\n\n    function ExchangeManager(Storage _store, bytes32 _crate) BaseManager(_store, _crate) {\n\n    }\n\n    function init(address _contractsManager) onlyContractOwner returns (uint) {\n        BaseManager.init(_contractsManager, \"ExchangeManager\");\n\n        return OK;\n    }\n\n    function forward(address _exchange, bytes data) onlyExchangeOwner(_exchange) returns (uint errorCode) {\n        if (!Exchange(_exchange).call(data)) {\n            throw;\n        }\n\n        errorCode = OK;\n    }\n\n    function addExchange(address _exchange) returns (uint errorCode) {\n        Exchange(_exchange).buyPrice();\n        Exchange(_exchange).sellPrice();\n        if (owners[_exchange].length == 0) {\n            exchanges.push(_exchange);\n            owners[_exchange].push(msg.sender);\n            _emitExchangeAdded(msg.sender, _exchange, exchanges.length);\n            errorCode = OK;\n        } else {\n            errorCode = _emitError(ERROR_EXCHANGE_STOCK_INVALID_PARAMETER);\n        }\n    }\n\n    function editExchange(address _exchangeOld, address _exchangeNew) onlyExchangeOwner(_exchangeOld) returns (uint errorCode) {\n        for (uint i = 0; i < exchanges.length; i++) {\n            if (exchanges[i] == _exchangeOld) {\n                exchanges[i] = _exchangeNew;\n                exchanges.length -= 1;\n                _emitExchangeEdited(msg.sender, _exchangeOld, _exchangeNew);\n                return OK;\n            }\n        }\n\n        errorCode = _emitError(ERROR_EXCHANGE_STOCK_NOT_FOUND);\n    }\n\n    function removeExchange(address _exchange) onlyExchangeOwner(_exchange) returns (uint errorCode) {\n        for (uint i = 0; i < exchanges.length; i++) {\n            if (exchanges[i] == _exchange) {\n                exchanges[i] = exchanges[exchanges.length - 1];\n                exchanges.length -= 1;\n                break;\n            }\n        }\n        delete owners[_exchange];\n        _emitExchangeRemoved(msg.sender, _exchange);\n        return OK;\n    }\n\n    function createExchange(bytes32 _symbol, bool _useTicker) returns (uint errorCode) {\n        address _erc20Manager = lookupManager(\"ERC20Manager\");\n        address tokenAddr = ERC20Manager(_erc20Manager).getTokenAddressBySymbol(_symbol);\n        address rewards = lookupManager(\"Rewards\");\n\n        if (tokenAddr == 0x0 || rewards == 0x0) {\n            return _emitError(ERROR_EXCHANGE_STOCK_UNABLE_CREATE_EXCHANGE);\n        }\n\n        address exchangeAddr = new Exchange();\n        address tickerAddr;\n        if (_useTicker) {\n            //address tickerAddr = new KrakenPriceTicker();\n        }\n\n        Exchange(exchangeAddr).setupEventsHistory(getEventsHistory());\n        Exchange(exchangeAddr).init(Asset(tokenAddr), rewards, tickerAddr, 10);\n        exchanges.push(exchangeAddr);\n        owners[exchangeAddr].push(msg.sender);\n\n        _emitExchangeCreated(msg.sender, exchangeAddr, exchanges.length);\n        errorCode = OK;\n    }\n\n    function addExchangeOwner(address _exchange, address _owner) onlyExchangeOwner(_exchange) returns (uint errorCode) {\n        for (uint i = 0; i < owners[_exchange].length; i++) {\n            if (owners[_exchange][i] == _owner) {\n                return _emitError(ERROR_EXCHANGE_STOCK_INVALID_PARAMETER);\n            }\n        }\n        owners[_exchange].push(_owner);\n        _emitExchangeOwnerAdded(msg.sender, _owner, _exchange);\n        return OK;\n    }\n\n    function removeExchangeOwner(address _exchange, address _owner) onlyExchangeOwner(_exchange) returns (uint errorCode) {\n        if (_owner == msg.sender) {\n            return _emitError(ERROR_EXCHANGE_STOCK_INVALID_PARAMETER);\n        }\n\n        for (uint i = 0; i < owners[_exchange].length; i++) {\n            if (owners[_exchange][i] == _owner) {\n                owners[_exchange][i] = owners[_exchange][owners[_exchange].length - 1];\n                owners[_exchange].length--;\n                _emitExchangeOwnerRemoved(msg.sender, _owner, _exchange);\n                return OK;\n            }\n        }\n\n        errorCode = _emitError(ERROR_EXCHANGE_STOCK_NOT_FOUND);\n    }\n\n    function getExchangeOwners(address _exchange) constant returns (address[]) {\n        return owners[_exchange];\n    }\n\n    function getExchangesForOwner(address owner) constant returns (address[]) {\n        uint counter;\n        uint i;\n        for (i = 0; i < exchanges.length; i++) {\n            if (isExchangeOwner(exchanges[i], owner))\n            counter++;\n        }\n        address[] memory result = new address[](counter);\n        counter = 0;\n        for (i = 0; i < exchanges.length; i++) {\n            if (isExchangeOwner(exchanges[i], owner)) {\n                result[counter] = exchanges[i];\n                counter++;\n            }\n        }\n        return result;\n    }\n\n    function _emitExchangeRemoved(address user, address exchange) internal {\n        ExchangeManager(getEventsHistory()).emitExchangeRemoved(user, exchange);\n    }\n\n    function _emitExchangeAdded(address user, address exchange, uint count) internal {\n        ExchangeManager(getEventsHistory()).emitExchangeAdded(user, exchange, count);\n    }\n\n    function _emitExchangeEdited(address user, address oldExchange, address newExchange) internal {\n        ExchangeManager(getEventsHistory()).emitExchangeEdited(user, oldExchange, newExchange);\n    }\n\n    function _emitExchangeCreated(address user, address exchange, uint count) internal {\n        ExchangeManager(getEventsHistory()).emitExchangeCreated(user, exchange, count);\n    }\n\n    function _emitExchangeOwnerAdded(address user, address owner, address exchange) internal {\n        ExchangeManager(getEventsHistory()).emitExchangeOwnerAdded(user, owner, exchange);\n    }\n\n    function _emitExchangeOwnerRemoved(address user, address owner, address exchange) internal {\n        ExchangeManager(getEventsHistory()).emitExchangeOwnerRemoved(user, owner, exchange);\n    }\n\n    function _emitError(uint error) internal returns (uint) {\n        ExchangeManager(getEventsHistory()).emitError(error);\n        return error;\n    }\n}\n",
  "sourcePath": "/Users/ahiatsevich/Development/chronobank/SmartContracts/contracts/exchange/ExchangeManager.sol",
  "compiler": {
    "name": "solc",
    "version": "0.4.18+commit.9cf6e910.Emscripten.clang"
  },
  "schemaVersion": "1.0.1",
  "updatedAt": "2017-11-15T09:25:14.933Z"
}