{
  "contractName": "ExchangeFactory",
  "abi": [
    {
      "constant": false,
      "inputs": [],
      "name": "createExchange",
      "outputs": [
        {
          "name": "",
          "type": "address"
        }
      ],
      "payable": false,
      "stateMutability": "nonpayable",
      "type": "function"
    }
  ],
  "bytecode": "0x6060604052341561000f57600080fd5b611e3c8061001e6000396000f3006060604052600436106100405763ffffffff7c01000000000000000000000000000000000000000000000000000000006000350416637d3af3a48114610045575b600080fd5b341561005057600080fd5b610058610081565b60405173ffffffffffffffffffffffffffffffffffffffff909116815260200160405180910390f35b60008061008c610159565b604051809103906000f08015156100a257600080fd5b90508073ffffffffffffffffffffffffffffffffffffffff1663a843c51f336000604051602001526040517c010000000000000000000000000000000000000000000000000000000063ffffffff841602815273ffffffffffffffffffffffffffffffffffffffff9091166004820152602401602060405180830381600087803b151561012e57600080fd5b6102c65a03f1151561013f57600080fd5b50505060405180519050151561015457600080fd5b919050565b604051611ca78061016a833901905600606060405260008054600160a060020a033316600160a060020a0319909116179055611c77806100306000396000f3006060604052600436106101be5763ffffffff60e060020a600035041663018a25e881146101da57806302927d201461020557806306b091f9146102365780631b9a91a41461025857806322f3e2d41461027a57806338d52e0f146102a15780633f48be2d146102d057806340993b26146102ef57806341c0e1b51461030057806343d32e9c146103135780634592cd1d1461032657806346639dba146103395780634e3f0a0114610367578063557f4bc91461038c5780635aa77d3c146103ab5780637fd6f15c146103be578063808700f5146103d157806383197ef0146103fa57806388ae3c6b1461040d57806394f3ed31146104325780639ec5a89414610451578063a64abab914610464578063a843c51f1461048d578063a878aee6146104ac578063acec338a146104cb578063c1538d45146104e3578063c3ec20141461050c578063c66f245514610537578063c81e79081461054a578063ce606ee01461056c578063d3c9727c1461057f578063d46d79bb1461059b578063d8e86854146105ba578063d8f9659b146105d9578063db3dccc014610633578063df26ca0814610657578063fa09e6301461066d578063fe9fbb801461068c575b34156101d3576101ce33346106ab565b6101d8565b600080fd5b005b34156101e557600080fd5b6101ed610719565b60405191825260208201526040908101905180910390f35b341561021057600080fd5b610224600160a060020a0360043516610723565b60405190815260200160405180910390f35b341561024157600080fd5b610224600160a060020a0360043516602435610774565b341561026357600080fd5b610224600160a060020a0360043516602435610915565b341561028557600080fd5b61028d6109f8565b604051901515815260200160405180910390f35b34156102ac57600080fd5b6102b4610a08565b604051600160a060020a03909116815260200160405180910390f35b34156102db57600080fd5b610224600160a060020a0360043516610a17565b610224600435602435604435610a54565b341561030b57600080fd5b610224610b95565b341561031e57600080fd5b6101ed610d64565b341561033157600080fd5b61028d610d6e565b341561034457600080fd5b610224600160a060020a0360043581169060243581169060443516606435610db9565b341561037257600080fd5b6101d8600160a060020a0360043516602435604435610e63565b341561039757600080fd5b61028d600160a060020a0360043516610eb6565b34156103b657600080fd5b6102b4610f09565b34156103c957600080fd5b610224610f18565b34156103dc57600080fd5b6101d8600160a060020a036004358116906024359060443516610f1e565b341561040557600080fd5b6101d8610f7b565b341561041857600080fd5b6101d8600160a060020a0360043516602435604435610f99565b341561043d57600080fd5b610224600160a060020a0360043516610fec565b341561045c57600080fd5b6102b461102d565b341561046f57600080fd5b6101d8600160a060020a03600435811690602435906044351661103c565b341561049857600080fd5b61028d600160a060020a0360043516611092565b34156104b757600080fd5b610224600160a060020a0360043516611109565b34156104d657600080fd5b6102246004351515611139565b34156104ee57600080fd5b6101d8600160a060020a03600435811690602435906044351661118b565b341561051757600080fd5b6101d8600435602435604435606435600160a060020a03608435166111e1565b341561054257600080fd5b61022461124b565b341561055557600080fd5b6101d8600160a060020a036004351660243561125b565b341561057757600080fd5b6102b46112a0565b341561058a57600080fd5b6102246004356024356044356112af565b34156105a657600080fd5b610224600160a060020a036004351661142b565b34156105c557600080fd5b610224600435602435604435606435611457565b34156105e457600080fd5b610224600460248135818101908301358060208181020160405190810160405280939291908181526020018383602002808284375094965050509235600160a060020a03169250611569915050565b341561063e57600080fd5b6101d86004351515600160a060020a03602435166116b8565b341561066257600080fd5b610224600435611705565b341561067857600080fd5b610224600160a060020a0360043516611748565b341561069757600080fd5b61028d600160a060020a0360043516611790565b600a54600160a060020a031663c81e7908838360405160e060020a63ffffffff8516028152600160a060020a0390921660048301526024820152604401600060405180830381600087803b151561070157600080fd5b6102c65a03f1151561071257600080fd5b5050505050565b6003546004549091565b6000805433600160a060020a039081169116141561076f57600160a060020a038216151561075057600080fd5b50600a8054600160a060020a031916600160a060020a03831617905560015b919050565b60008054819033600160a060020a039081169116141561090e5782610798306117ae565b10156107b0576107a9611774611829565b915061090e565b6008546127100183612710028115156107c557fe5b6002549190049150600160a060020a031663a9059cbb858360006040516020015260405160e060020a63ffffffff8516028152600160a060020a0390921660048301526024820152604401602060405180830381600087803b151561082957600080fd5b6102c65a03f1151561083a57600080fd5b505050604051805190501515610855576107a9611777611829565b60006008541180156108f45750600254600754600160a060020a039182169163a9059cbb911661088b868563ffffffff61189d16565b60006040516020015260405160e060020a63ffffffff8516028152600160a060020a0390921660048301526024820152604401602060405180830381600087803b15156108d757600080fd5b6102c65a03f115156108e857600080fd5b50505060405180519050155b156108fe57600080fd5b6109098482336118af565b600191505b5092915050565b60008054819033600160a060020a039081169116141561090e578230600160a060020a031631101561094c576107a9611775611829565b60085461271001836127100281151561096157fe5b049050600160a060020a03841681156108fc0282604051600060405180830381858888f19350505050151561099b576107a9611777611829565b60006008541180156109e35750600754600160a060020a03166108fc6109c7858463ffffffff61189d16565b9081150290604051600060405180830381858888f19350505050155b156109ed57600080fd5b61090984823361192a565b60025460a060020a900460ff1681565b600254600160a060020a031681565b6000805433600160a060020a039081169116141561076f5750600160a060020a03166000908152600960205260409020805460ff19169055600190565b600254600090819060a060020a900460ff161515610a7e57610a77611771611829565b9150610b8d565b60055484141580610a9157506006548314155b15610aa157610a77611772611829565b84610aab306117ae565b1015610abc57610a77611774611829565b600654600554600a9190910a90610ada90879063ffffffff61198c16565b811515610ae357fe5b049050348114610af857610a77611775611829565b600254600160a060020a031663a9059cbb338760006040516020015260405160e060020a63ffffffff8516028152600160a060020a0390921660048301526024820152604401602060405180830381600087803b1515610b5757600080fd5b6102c65a03f11515610b6857600080fd5b505050604051805190501515610b7d57600080fd5b610b883386836119b7565b600191505b509392505050565b60008054819033600160a060020a0390811691161415610d6057600030600160a060020a0316311115610bd457610bcd611770611829565b9150610d60565b600254600090600160a060020a03166370a0823130836040516020015260405160e060020a63ffffffff8416028152600160a060020a039091166004820152602401602060405180830381600087803b1515610c2f57600080fd5b6102c65a03f11515610c4057600080fd5b505050604051805190501115610c5b57610bcd611770611829565b600b54600160a060020a031663bc65792760006040516020015260405160e060020a63ffffffff83160281527f45786368616e67654d616e6167657200000000000000000000000000000000006004820152602401602060405180830381600087803b1515610cc957600080fd5b6102c65a03f11515610cda57600080fd5b5050506040518051915050600160a060020a038116634ea3b6426000604051602001526040518163ffffffff1660e060020a028152600401602060405180830381600087803b1515610d2b57600080fd5b6102c65a03f11515610d3c57600080fd5b505050604051805192505060018214610d5857610bcd82611829565b610d60611a16565b5090565b6005546006549091565b60015460009033600160a060020a03908116911614610d8f57506000610db6565b506001805460008054600160a060020a0319908116600160a060020a038416179091551681555b90565b6000805433600160a060020a0390811691161415610e5b57600160a060020a0385161515610de657600080fd5b600160a060020a0384161515610dfb57600080fd5b600254600160a060020a031615610e1157600080fd5b60028054600160a060020a03808716600160a060020a031992831617909255600b805492881692909116919091179055610e4b8383611a39565b600114610e5757600080fd5b5060015b949350505050565b82600160a060020a031633600160a060020a03167f666f2a1e08c169c211c892572663a806f972e3acff2cd9f77800dc571bbba75d848460405191825260208201526040908101905180910390a3505050565b6000805433600160a060020a039081169116141561076f57600160a060020a0382161515610ee65750600061076f565b5060018054600160a060020a038316600160a060020a0319909116178155919050565b600154600160a060020a031681565b60085481565b80600160a060020a031633600160a060020a03167f8de091a31d887fca78e516d802e86c94de30b8e6ca4bf6473b2f09dc32dcaf168585604051600160a060020a03909216825260208201526040908101905180910390a3505050565b60005433600160a060020a0390811691161415610f9757600080fd5b565b82600160a060020a031633600160a060020a03167f9396518c54820bdf393c15c6607d2e106a0c8a4a1bd7a3a3fd3ca3e5485a2005848460405191825260208201526040908101905180910390a3505050565b6000805433600160a060020a039081169116141561076f5750600160a060020a03166000908152600960205260409020805460ff1916600190811790915590565b600754600160a060020a031681565b80600160a060020a031683600160a060020a031633600160a060020a03167f33a424bf05c7821d38f7d44e569ac0bc10a7275bec4c54c6fa1b97bf76064a788560405190815260200160405180910390a4505050565b6000805433600160a060020a039081169116141561076f57600160a060020a03821615156110c25750600061076f565b600154600160a060020a0316156110e45760018054600160a060020a03191690555b5060008054600160a060020a038316600160a060020a03199091161790556001919050565b6000805433600160a060020a039081169116141561076f576111338261112e306117ae565b610774565b92915050565b6000805433600160a060020a039081169116141561076f576002805474ff0000000000000000000000000000000000000000191660a060020a841515021790556111838233611a92565b506001919050565b80600160a060020a031683600160a060020a031633600160a060020a03167fe44fa178c47224ba610def9fa4b501e725e66cfe4cc46f29a1530aee872864138560405190815260200160405180910390a4505050565b80600160a060020a031633600160a060020a03167fb1341f01c56c36e22641e178401a0ca02920498d529c6716447cb5f5c8a7b6c2878787876040518085815260200184815260200183815260200182815260200194505050505060405180910390a35050505050565b6000611256306117ae565b905090565b8082600160a060020a031633600160a060020a03167f6442135644857b16c2b6a9be3374103b3f77dd4d82bb1ebc0f243748f54a565a60405160405180910390a45050565b600054600160a060020a031681565b600254600090819060a060020a900460ff1615156112d257610a77611771611829565b600354841415806112e557506004548314155b156112f557610a77611772611829565b846112ff336117ae565b101561131057610a77611774611829565b600454600354600a9190910a9061132e90879063ffffffff61198c16565b81151561133757fe5b0490508030600160a060020a031631101561135757610a77611775611829565b600254600160a060020a03166323b872dd33308860006040516020015260405160e060020a63ffffffff8616028152600160a060020a0393841660048201529190921660248201526044810191909152606401602060405180830381600087803b15156113c357600080fd5b6102c65a03f115156113d457600080fd5b5050506040518051905015156113ef57610a77611776611829565b600160a060020a03331681156108fc0282604051600060405180830381858888f19350505050151561142057600080fd5b610b88338683611ae9565b6000805433600160a060020a039081169116141561076f576111338230600160a060020a031631610915565b60008054819033600160a060020a039081169116148061148f5750600160a060020a03331660009081526009602052604090205460ff165b156115605761149e8584611b48565b600a0a905082600a0a8185028115156114b357fe5b0485600a0a8288028115156114c457fe5b0411156114d057600080fd5b600354861415806114e357506004548514155b1561150f5760408051908101604052868152602081018690526003815181556020820151600190910155505b6005548414158061152257506006548314155b1561154e5760408051908101604052848152602081018490526005815181556020820151600190910155505b61155b8686868633611b5f565b600191505b50949350505050565b6000805481908190819033600160a060020a03908116911614156116af57600092505b85518310156116aa578583815181106115a157fe5b90602001906020020151915081600160a060020a03166370a082313060006040516020015260405160e060020a63ffffffff8416028152600160a060020a039091166004820152602401602060405180830381600087803b151561160457600080fd5b6102c65a03f1151561161557600080fd5b5050506040518051915050801561169f5781600160a060020a031663a9059cbb868360006040516020015260405160e060020a63ffffffff8516028152600160a060020a0390921660048301526024820152604401602060405180830381600087803b151561168357600080fd5b6102c65a03f1151561169457600080fd5b505050604051805150505b60019092019161158c565b600193505b50505092915050565b80600160a060020a031633600160a060020a03167ff7477d3997f5237a55f24f86e82fcb23c791c7a2424b7175f15e91214281b08784604051901515815260200160405180910390a35050565b600033600160a060020a03167f9cf38cf2dbf9139f5c32639950507b10775fbbe0421f3e168bc2d1bb1ae3208c8360405190815260200160405180910390a25090565b6000805433600160a060020a039081169116141561076f5761176982611109565b9050600181146117785761076f565b6117818261142b565b9050600181146111835761076f565b600160a060020a031660009081526009602052604090205460ff1690565b600254600090600160a060020a03166370a0823183836040516020015260405160e060020a63ffffffff8416028152600160a060020a039091166004820152602401602060405180830381600087803b151561180957600080fd5b6102c65a03f1151561181a57600080fd5b50505060405180519392505050565b600a54600090600160a060020a031663df26ca0883836040516020015260405160e060020a63ffffffff84160281526004810191909152602401602060405180830381600087803b151561187c57600080fd5b6102c65a03f1151561188d57600080fd5b5050506040518051509192915050565b6000828211156118a957fe5b50900390565b600a54600160a060020a031663a64abab984848460405160e060020a63ffffffff8616028152600160a060020a03938416600482015260248101929092529091166044820152606401600060405180830381600087803b151561191157600080fd5b6102c65a03f1151561192257600080fd5b505050505050565b600a54600160a060020a031663c1538d4584848460405160e060020a63ffffffff8616028152600160a060020a03938416600482015260248101929092529091166044820152606401600060405180830381600087803b151561191157600080fd5b60008282028315806119a857508284828115156119a557fe5b04145b15156119b057fe5b9392505050565b600a54600160a060020a0316634e3f0a0184848460405160e060020a63ffffffff8616028152600160a060020a03909316600484015260248301919091526044820152606401600060405180830381600087803b151561191157600080fd5b60005433600160a060020a0390811691161415610f975733600160a060020a0316ff5b6000600160a060020a0383161515611a5057600080fd5b6127108210611a5e57600080fd5b60078054600160a060020a031916600160a060020a0385161790556008829055611a89838333611be9565b50600192915050565b600a54600160a060020a031663db3dccc0838360405160e060020a63ffffffff85160281529115156004830152600160a060020a03166024820152604401600060405180830381600087803b151561070157600080fd5b600a54600160a060020a03166388ae3c6b84848460405160e060020a63ffffffff8616028152600160a060020a03909316600484015260248301919091526044820152606401600060405180830381600087803b151561191157600080fd5b600081831015611b5857816119b0565b5090919050565b600a54600160a060020a031663c3ec2014868686868660405160e060020a63ffffffff88160281526004810195909552602485019390935260448401919091526064830152600160a060020a0316608482015260a401600060405180830381600087803b1515611bce57600080fd5b6102c65a03f11515611bdf57600080fd5b5050505050505050565b600a54600160a060020a031663808700f584848460405160e060020a63ffffffff8616028152600160a060020a03938416600482015260248101929092529091166044820152606401600060405180830381600087803b151561191157600080fd00a165627a7a7230582037b3528593e2423b3355da7bbd863dd58b195fb9353974b2b12ace95866e893b0029a165627a7a72305820419aff2798663850f71ab8e2224aef6c8a12e5ac122692a7ed459aa596dc01ed0029",
  "source": "pragma solidity ^0.4.15;\n\nimport \"./Exchange.sol\";\n\n/// @title Exchange Factory contract\n///\n/// @notice Just util contract used for Exchange creation\ncontract ExchangeFactory {\n    /// @notice Creates Exchange contract and transfers ownership to sender\n    /// @return exchange's address\n    function createExchange() public returns (address) {\n        Exchange exchange = new Exchange();\n        if (!exchange.transferContractOwnership(msg.sender)) {\n            revert();\n        }\n\n        return exchange;\n    }\n}\n",
  "sourcePath": "/Users/ahiatsevich/Development/chronobank/SmartContracts/contracts/exchange/ExchangeFactory.sol",
  "compiler": {
    "name": "solc",
    "version": "0.4.18+commit.9cf6e910.Emscripten.clang"
  },
  "schemaVersion": "1.0.1",
  "updatedAt": "2017-12-11T15:29:19.660Z"
}