{
  "contractName": "Exchange",
  "abi": [
    {
      "constant": true,
      "inputs": [],
      "name": "getBuyPrice",
      "outputs": [
        {
          "name": "base",
          "type": "uint256"
        },
        {
          "name": "decimals",
          "type": "uint256"
        }
      ],
      "payable": false,
      "stateMutability": "view",
      "type": "function"
    },
    {
      "constant": false,
      "inputs": [
        {
          "name": "_eventsHistory",
          "type": "address"
        }
      ],
      "name": "setupEventsHistory",
      "outputs": [
        {
          "name": "",
          "type": "uint256"
        }
      ],
      "payable": false,
      "stateMutability": "nonpayable",
      "type": "function"
    },
    {
      "constant": false,
      "inputs": [
        {
          "name": "_recipient",
          "type": "address"
        },
        {
          "name": "_amount",
          "type": "uint256"
        }
      ],
      "name": "withdrawTokens",
      "outputs": [
        {
          "name": "",
          "type": "uint256"
        }
      ],
      "payable": false,
      "stateMutability": "nonpayable",
      "type": "function"
    },
    {
      "constant": false,
      "inputs": [
        {
          "name": "_recipient",
          "type": "address"
        },
        {
          "name": "_amount",
          "type": "uint256"
        }
      ],
      "name": "withdrawEth",
      "outputs": [
        {
          "name": "",
          "type": "uint256"
        }
      ],
      "payable": false,
      "stateMutability": "nonpayable",
      "type": "function"
    },
    {
      "constant": true,
      "inputs": [],
      "name": "isActive",
      "outputs": [
        {
          "name": "",
          "type": "bool"
        }
      ],
      "payable": false,
      "stateMutability": "view",
      "type": "function"
    },
    {
      "constant": true,
      "inputs": [],
      "name": "asset",
      "outputs": [
        {
          "name": "",
          "type": "address"
        }
      ],
      "payable": false,
      "stateMutability": "view",
      "type": "function"
    },
    {
      "constant": false,
      "inputs": [
        {
          "name": "_authorized",
          "type": "address"
        }
      ],
      "name": "revokeAuthorized",
      "outputs": [
        {
          "name": "",
          "type": "uint256"
        }
      ],
      "payable": false,
      "stateMutability": "nonpayable",
      "type": "function"
    },
    {
      "constant": false,
      "inputs": [
        {
          "name": "_amount",
          "type": "uint256"
        },
        {
          "name": "_price",
          "type": "uint256"
        },
        {
          "name": "_priceDecimals",
          "type": "uint256"
        }
      ],
      "name": "buy",
      "outputs": [
        {
          "name": "",
          "type": "uint256"
        }
      ],
      "payable": true,
      "stateMutability": "payable",
      "type": "function"
    },
    {
      "constant": false,
      "inputs": [],
      "name": "kill",
      "outputs": [
        {
          "name": "errorCode",
          "type": "uint256"
        }
      ],
      "payable": false,
      "stateMutability": "nonpayable",
      "type": "function"
    },
    {
      "constant": true,
      "inputs": [],
      "name": "getSellPrice",
      "outputs": [
        {
          "name": "base",
          "type": "uint256"
        },
        {
          "name": "decimals",
          "type": "uint256"
        }
      ],
      "payable": false,
      "stateMutability": "view",
      "type": "function"
    },
    {
      "constant": false,
      "inputs": [],
      "name": "claimContractOwnership",
      "outputs": [
        {
          "name": "",
          "type": "bool"
        }
      ],
      "payable": false,
      "stateMutability": "nonpayable",
      "type": "function"
    },
    {
      "constant": false,
      "inputs": [
        {
          "name": "_contractsManager",
          "type": "address"
        },
        {
          "name": "_asset",
          "type": "address"
        },
        {
          "name": "_rewards",
          "type": "address"
        },
        {
          "name": "_fee",
          "type": "uint256"
        }
      ],
      "name": "init",
      "outputs": [
        {
          "name": "errorCode",
          "type": "uint256"
        }
      ],
      "payable": false,
      "stateMutability": "nonpayable",
      "type": "function"
    },
    {
      "constant": false,
      "inputs": [
        {
          "name": "_who",
          "type": "address"
        },
        {
          "name": "_token",
          "type": "uint256"
        },
        {
          "name": "_eth",
          "type": "uint256"
        }
      ],
      "name": "emitBuy",
      "outputs": [],
      "payable": false,
      "stateMutability": "nonpayable",
      "type": "function"
    },
    {
      "constant": false,
      "inputs": [
        {
          "name": "_to",
          "type": "address"
        }
      ],
      "name": "changeContractOwnership",
      "outputs": [
        {
          "name": "",
          "type": "bool"
        }
      ],
      "payable": false,
      "stateMutability": "nonpayable",
      "type": "function"
    },
    {
      "constant": true,
      "inputs": [],
      "name": "pendingContractOwner",
      "outputs": [
        {
          "name": "",
          "type": "address"
        }
      ],
      "payable": false,
      "stateMutability": "view",
      "type": "function"
    },
    {
      "constant": true,
      "inputs": [],
      "name": "feePercent",
      "outputs": [
        {
          "name": "",
          "type": "uint256"
        }
      ],
      "payable": false,
      "stateMutability": "view",
      "type": "function"
    },
    {
      "constant": false,
      "inputs": [
        {
          "name": "_rewards",
          "type": "address"
        },
        {
          "name": "_feePercent",
          "type": "uint256"
        },
        {
          "name": "_by",
          "type": "address"
        }
      ],
      "name": "emitFeeUpdated",
      "outputs": [],
      "payable": false,
      "stateMutability": "nonpayable",
      "type": "function"
    },
    {
      "constant": false,
      "inputs": [],
      "name": "destroy",
      "outputs": [],
      "payable": false,
      "stateMutability": "nonpayable",
      "type": "function"
    },
    {
      "constant": false,
      "inputs": [
        {
          "name": "_who",
          "type": "address"
        },
        {
          "name": "_token",
          "type": "uint256"
        },
        {
          "name": "_eth",
          "type": "uint256"
        }
      ],
      "name": "emitSell",
      "outputs": [],
      "payable": false,
      "stateMutability": "nonpayable",
      "type": "function"
    },
    {
      "constant": false,
      "inputs": [
        {
          "name": "_authorized",
          "type": "address"
        }
      ],
      "name": "grantAuthorized",
      "outputs": [
        {
          "name": "",
          "type": "uint256"
        }
      ],
      "payable": false,
      "stateMutability": "nonpayable",
      "type": "function"
    },
    {
      "constant": true,
      "inputs": [],
      "name": "rewards",
      "outputs": [
        {
          "name": "",
          "type": "address"
        }
      ],
      "payable": false,
      "stateMutability": "view",
      "type": "function"
    },
    {
      "constant": false,
      "inputs": [
        {
          "name": "_recipient",
          "type": "address"
        },
        {
          "name": "_amount",
          "type": "uint256"
        },
        {
          "name": "_by",
          "type": "address"
        }
      ],
      "name": "emitWithdrawTokens",
      "outputs": [],
      "payable": false,
      "stateMutability": "nonpayable",
      "type": "function"
    },
    {
      "constant": false,
      "inputs": [
        {
          "name": "_to",
          "type": "address"
        }
      ],
      "name": "transferContractOwnership",
      "outputs": [
        {
          "name": "",
          "type": "bool"
        }
      ],
      "payable": false,
      "stateMutability": "nonpayable",
      "type": "function"
    },
    {
      "constant": false,
      "inputs": [
        {
          "name": "_recipient",
          "type": "address"
        }
      ],
      "name": "withdrawAllTokens",
      "outputs": [
        {
          "name": "",
          "type": "uint256"
        }
      ],
      "payable": false,
      "stateMutability": "nonpayable",
      "type": "function"
    },
    {
      "constant": false,
      "inputs": [
        {
          "name": "_active",
          "type": "bool"
        }
      ],
      "name": "setActive",
      "outputs": [
        {
          "name": "",
          "type": "uint256"
        }
      ],
      "payable": false,
      "stateMutability": "nonpayable",
      "type": "function"
    },
    {
      "constant": false,
      "inputs": [
        {
          "name": "_recipient",
          "type": "address"
        },
        {
          "name": "_amount",
          "type": "uint256"
        },
        {
          "name": "_by",
          "type": "address"
        }
      ],
      "name": "emitWithdrawEther",
      "outputs": [],
      "payable": false,
      "stateMutability": "nonpayable",
      "type": "function"
    },
    {
      "constant": false,
      "inputs": [
        {
          "name": "_buyPrice",
          "type": "uint256"
        },
        {
          "name": "_buyDecimals",
          "type": "uint256"
        },
        {
          "name": "_sellPrice",
          "type": "uint256"
        },
        {
          "name": "_sellDecimals",
          "type": "uint256"
        },
        {
          "name": "_by",
          "type": "address"
        }
      ],
      "name": "emitPricesUpdated",
      "outputs": [],
      "payable": false,
      "stateMutability": "nonpayable",
      "type": "function"
    },
    {
      "constant": true,
      "inputs": [],
      "name": "assetBalance",
      "outputs": [
        {
          "name": "",
          "type": "uint256"
        }
      ],
      "payable": false,
      "stateMutability": "view",
      "type": "function"
    },
    {
      "constant": false,
      "inputs": [
        {
          "name": "_sender",
          "type": "address"
        },
        {
          "name": "_amount",
          "type": "uint256"
        }
      ],
      "name": "emitReceivedEther",
      "outputs": [],
      "payable": false,
      "stateMutability": "nonpayable",
      "type": "function"
    },
    {
      "constant": true,
      "inputs": [],
      "name": "contractOwner",
      "outputs": [
        {
          "name": "",
          "type": "address"
        }
      ],
      "payable": false,
      "stateMutability": "view",
      "type": "function"
    },
    {
      "constant": false,
      "inputs": [
        {
          "name": "_amount",
          "type": "uint256"
        },
        {
          "name": "_price",
          "type": "uint256"
        },
        {
          "name": "_priceDecimals",
          "type": "uint256"
        }
      ],
      "name": "sell",
      "outputs": [
        {
          "name": "",
          "type": "uint256"
        }
      ],
      "payable": false,
      "stateMutability": "nonpayable",
      "type": "function"
    },
    {
      "constant": false,
      "inputs": [
        {
          "name": "_recipient",
          "type": "address"
        }
      ],
      "name": "withdrawAllEth",
      "outputs": [
        {
          "name": "",
          "type": "uint256"
        }
      ],
      "payable": false,
      "stateMutability": "nonpayable",
      "type": "function"
    },
    {
      "constant": false,
      "inputs": [
        {
          "name": "_buyPrice",
          "type": "uint256"
        },
        {
          "name": "_buyDecimals",
          "type": "uint256"
        },
        {
          "name": "_sellPrice",
          "type": "uint256"
        },
        {
          "name": "_sellDecimals",
          "type": "uint256"
        }
      ],
      "name": "setPrices",
      "outputs": [
        {
          "name": "",
          "type": "uint256"
        }
      ],
      "payable": false,
      "stateMutability": "nonpayable",
      "type": "function"
    },
    {
      "constant": false,
      "inputs": [
        {
          "name": "tokens",
          "type": "address[]"
        },
        {
          "name": "_to",
          "type": "address"
        }
      ],
      "name": "withdrawnTokens",
      "outputs": [
        {
          "name": "",
          "type": "uint256"
        }
      ],
      "payable": false,
      "stateMutability": "nonpayable",
      "type": "function"
    },
    {
      "constant": false,
      "inputs": [
        {
          "name": "_isActive",
          "type": "bool"
        },
        {
          "name": "_by",
          "type": "address"
        }
      ],
      "name": "emitActiveChanged",
      "outputs": [],
      "payable": false,
      "stateMutability": "nonpayable",
      "type": "function"
    },
    {
      "constant": false,
      "inputs": [
        {
          "name": "_errorCode",
          "type": "uint256"
        }
      ],
      "name": "emitError",
      "outputs": [
        {
          "name": "",
          "type": "uint256"
        }
      ],
      "payable": false,
      "stateMutability": "nonpayable",
      "type": "function"
    },
    {
      "constant": false,
      "inputs": [
        {
          "name": "_recipient",
          "type": "address"
        }
      ],
      "name": "withdrawAll",
      "outputs": [
        {
          "name": "result",
          "type": "uint256"
        }
      ],
      "payable": false,
      "stateMutability": "nonpayable",
      "type": "function"
    },
    {
      "constant": true,
      "inputs": [
        {
          "name": "_authorized",
          "type": "address"
        }
      ],
      "name": "isAuthorized",
      "outputs": [
        {
          "name": "",
          "type": "bool"
        }
      ],
      "payable": false,
      "stateMutability": "view",
      "type": "function"
    },
    {
      "payable": true,
      "stateMutability": "payable",
      "type": "fallback"
    },
    {
      "anonymous": false,
      "inputs": [
        {
          "indexed": true,
          "name": "exchange",
          "type": "address"
        },
        {
          "indexed": true,
          "name": "who",
          "type": "address"
        },
        {
          "indexed": false,
          "name": "token",
          "type": "uint256"
        },
        {
          "indexed": false,
          "name": "eth",
          "type": "uint256"
        }
      ],
      "name": "ExchangeSell",
      "type": "event"
    },
    {
      "anonymous": false,
      "inputs": [
        {
          "indexed": true,
          "name": "exchange",
          "type": "address"
        },
        {
          "indexed": true,
          "name": "who",
          "type": "address"
        },
        {
          "indexed": false,
          "name": "token",
          "type": "uint256"
        },
        {
          "indexed": false,
          "name": "eth",
          "type": "uint256"
        }
      ],
      "name": "ExchangeBuy",
      "type": "event"
    },
    {
      "anonymous": false,
      "inputs": [
        {
          "indexed": true,
          "name": "exchange",
          "type": "address"
        },
        {
          "indexed": true,
          "name": "sender",
          "type": "address"
        },
        {
          "indexed": true,
          "name": "amount",
          "type": "uint256"
        }
      ],
      "name": "ExchangeReceivedEther",
      "type": "event"
    },
    {
      "anonymous": false,
      "inputs": [
        {
          "indexed": true,
          "name": "exchange",
          "type": "address"
        },
        {
          "indexed": true,
          "name": "recipient",
          "type": "address"
        },
        {
          "indexed": false,
          "name": "amount",
          "type": "uint256"
        },
        {
          "indexed": true,
          "name": "by",
          "type": "address"
        }
      ],
      "name": "ExchangeWithdrawTokens",
      "type": "event"
    },
    {
      "anonymous": false,
      "inputs": [
        {
          "indexed": true,
          "name": "exchange",
          "type": "address"
        },
        {
          "indexed": true,
          "name": "recipient",
          "type": "address"
        },
        {
          "indexed": false,
          "name": "amount",
          "type": "uint256"
        },
        {
          "indexed": true,
          "name": "by",
          "type": "address"
        }
      ],
      "name": "ExchangeWithdrawEther",
      "type": "event"
    },
    {
      "anonymous": false,
      "inputs": [
        {
          "indexed": true,
          "name": "exchange",
          "type": "address"
        },
        {
          "indexed": false,
          "name": "rewards",
          "type": "address"
        },
        {
          "indexed": false,
          "name": "feeValue",
          "type": "uint256"
        },
        {
          "indexed": true,
          "name": "by",
          "type": "address"
        }
      ],
      "name": "ExchangeFeeUpdated",
      "type": "event"
    },
    {
      "anonymous": false,
      "inputs": [
        {
          "indexed": true,
          "name": "exchange",
          "type": "address"
        },
        {
          "indexed": false,
          "name": "buyPrice",
          "type": "uint256"
        },
        {
          "indexed": false,
          "name": "buyDecimals",
          "type": "uint256"
        },
        {
          "indexed": false,
          "name": "sellPrice",
          "type": "uint256"
        },
        {
          "indexed": false,
          "name": "sellDecimals",
          "type": "uint256"
        },
        {
          "indexed": true,
          "name": "by",
          "type": "address"
        }
      ],
      "name": "ExchangePricesUpdated",
      "type": "event"
    },
    {
      "anonymous": false,
      "inputs": [
        {
          "indexed": true,
          "name": "exchange",
          "type": "address"
        },
        {
          "indexed": false,
          "name": "isActive",
          "type": "bool"
        },
        {
          "indexed": true,
          "name": "by",
          "type": "address"
        }
      ],
      "name": "ExchangeActiveChanged",
      "type": "event"
    },
    {
      "anonymous": false,
      "inputs": [
        {
          "indexed": true,
          "name": "exchange",
          "type": "address"
        },
        {
          "indexed": false,
          "name": "errorCode",
          "type": "uint256"
        }
      ],
      "name": "Error",
      "type": "event"
    }
  ],
  "bytecode": "0x606060405260008054600160a060020a033316600160a060020a0319909116179055611c77806100306000396000f3006060604052600436106101be5763ffffffff60e060020a600035041663018a25e881146101da57806302927d201461020557806306b091f9146102365780631b9a91a41461025857806322f3e2d41461027a57806338d52e0f146102a15780633f48be2d146102d057806340993b26146102ef57806341c0e1b51461030057806343d32e9c146103135780634592cd1d1461032657806346639dba146103395780634e3f0a0114610367578063557f4bc91461038c5780635aa77d3c146103ab5780637fd6f15c146103be578063808700f5146103d157806383197ef0146103fa57806388ae3c6b1461040d57806394f3ed31146104325780639ec5a89414610451578063a64abab914610464578063a843c51f1461048d578063a878aee6146104ac578063acec338a146104cb578063c1538d45146104e3578063c3ec20141461050c578063c66f245514610537578063c81e79081461054a578063ce606ee01461056c578063d3c9727c1461057f578063d46d79bb1461059b578063d8e86854146105ba578063d8f9659b146105d9578063db3dccc014610633578063df26ca0814610657578063fa09e6301461066d578063fe9fbb801461068c575b34156101d3576101ce33346106ab565b6101d8565b600080fd5b005b34156101e557600080fd5b6101ed610719565b60405191825260208201526040908101905180910390f35b341561021057600080fd5b610224600160a060020a0360043516610723565b60405190815260200160405180910390f35b341561024157600080fd5b610224600160a060020a0360043516602435610774565b341561026357600080fd5b610224600160a060020a0360043516602435610915565b341561028557600080fd5b61028d6109f8565b604051901515815260200160405180910390f35b34156102ac57600080fd5b6102b4610a08565b604051600160a060020a03909116815260200160405180910390f35b34156102db57600080fd5b610224600160a060020a0360043516610a17565b610224600435602435604435610a54565b341561030b57600080fd5b610224610b95565b341561031e57600080fd5b6101ed610d64565b341561033157600080fd5b61028d610d6e565b341561034457600080fd5b610224600160a060020a0360043581169060243581169060443516606435610db9565b341561037257600080fd5b6101d8600160a060020a0360043516602435604435610e63565b341561039757600080fd5b61028d600160a060020a0360043516610eb6565b34156103b657600080fd5b6102b4610f09565b34156103c957600080fd5b610224610f18565b34156103dc57600080fd5b6101d8600160a060020a036004358116906024359060443516610f1e565b341561040557600080fd5b6101d8610f7b565b341561041857600080fd5b6101d8600160a060020a0360043516602435604435610f99565b341561043d57600080fd5b610224600160a060020a0360043516610fec565b341561045c57600080fd5b6102b461102d565b341561046f57600080fd5b6101d8600160a060020a03600435811690602435906044351661103c565b341561049857600080fd5b61028d600160a060020a0360043516611092565b34156104b757600080fd5b610224600160a060020a0360043516611109565b34156104d657600080fd5b6102246004351515611139565b34156104ee57600080fd5b6101d8600160a060020a03600435811690602435906044351661118b565b341561051757600080fd5b6101d8600435602435604435606435600160a060020a03608435166111e1565b341561054257600080fd5b61022461124b565b341561055557600080fd5b6101d8600160a060020a036004351660243561125b565b341561057757600080fd5b6102b46112a0565b341561058a57600080fd5b6102246004356024356044356112af565b34156105a657600080fd5b610224600160a060020a036004351661142b565b34156105c557600080fd5b610224600435602435604435606435611457565b34156105e457600080fd5b610224600460248135818101908301358060208181020160405190810160405280939291908181526020018383602002808284375094965050509235600160a060020a03169250611569915050565b341561063e57600080fd5b6101d86004351515600160a060020a03602435166116b8565b341561066257600080fd5b610224600435611705565b341561067857600080fd5b610224600160a060020a0360043516611748565b341561069757600080fd5b61028d600160a060020a0360043516611790565b600a54600160a060020a031663c81e7908838360405160e060020a63ffffffff8516028152600160a060020a0390921660048301526024820152604401600060405180830381600087803b151561070157600080fd5b6102c65a03f1151561071257600080fd5b5050505050565b6003546004549091565b6000805433600160a060020a039081169116141561076f57600160a060020a038216151561075057600080fd5b50600a8054600160a060020a031916600160a060020a03831617905560015b919050565b60008054819033600160a060020a039081169116141561090e5782610798306117ae565b10156107b0576107a9611774611829565b915061090e565b6008546127100183612710028115156107c557fe5b6002549190049150600160a060020a031663a9059cbb858360006040516020015260405160e060020a63ffffffff8516028152600160a060020a0390921660048301526024820152604401602060405180830381600087803b151561082957600080fd5b6102c65a03f1151561083a57600080fd5b505050604051805190501515610855576107a9611777611829565b60006008541180156108f45750600254600754600160a060020a039182169163a9059cbb911661088b868563ffffffff61189d16565b60006040516020015260405160e060020a63ffffffff8516028152600160a060020a0390921660048301526024820152604401602060405180830381600087803b15156108d757600080fd5b6102c65a03f115156108e857600080fd5b50505060405180519050155b156108fe57600080fd5b6109098482336118af565b600191505b5092915050565b60008054819033600160a060020a039081169116141561090e578230600160a060020a031631101561094c576107a9611775611829565b60085461271001836127100281151561096157fe5b049050600160a060020a03841681156108fc0282604051600060405180830381858888f19350505050151561099b576107a9611777611829565b60006008541180156109e35750600754600160a060020a03166108fc6109c7858463ffffffff61189d16565b9081150290604051600060405180830381858888f19350505050155b156109ed57600080fd5b61090984823361192a565b60025460a060020a900460ff1681565b600254600160a060020a031681565b6000805433600160a060020a039081169116141561076f5750600160a060020a03166000908152600960205260409020805460ff19169055600190565b600254600090819060a060020a900460ff161515610a7e57610a77611771611829565b9150610b8d565b60055484141580610a9157506006548314155b15610aa157610a77611772611829565b84610aab306117ae565b1015610abc57610a77611774611829565b600654600554600a9190910a90610ada90879063ffffffff61198c16565b811515610ae357fe5b049050348114610af857610a77611775611829565b600254600160a060020a031663a9059cbb338760006040516020015260405160e060020a63ffffffff8516028152600160a060020a0390921660048301526024820152604401602060405180830381600087803b1515610b5757600080fd5b6102c65a03f11515610b6857600080fd5b505050604051805190501515610b7d57600080fd5b610b883386836119b7565b600191505b509392505050565b60008054819033600160a060020a0390811691161415610d6057600030600160a060020a0316311115610bd457610bcd611770611829565b9150610d60565b600254600090600160a060020a03166370a0823130836040516020015260405160e060020a63ffffffff8416028152600160a060020a039091166004820152602401602060405180830381600087803b1515610c2f57600080fd5b6102c65a03f11515610c4057600080fd5b505050604051805190501115610c5b57610bcd611770611829565b600b54600160a060020a031663bc65792760006040516020015260405160e060020a63ffffffff83160281527f45786368616e67654d616e6167657200000000000000000000000000000000006004820152602401602060405180830381600087803b1515610cc957600080fd5b6102c65a03f11515610cda57600080fd5b5050506040518051915050600160a060020a038116634ea3b6426000604051602001526040518163ffffffff1660e060020a028152600401602060405180830381600087803b1515610d2b57600080fd5b6102c65a03f11515610d3c57600080fd5b505050604051805192505060018214610d5857610bcd82611829565b610d60611a16565b5090565b6005546006549091565b60015460009033600160a060020a03908116911614610d8f57506000610db6565b506001805460008054600160a060020a0319908116600160a060020a038416179091551681555b90565b6000805433600160a060020a0390811691161415610e5b57600160a060020a0385161515610de657600080fd5b600160a060020a0384161515610dfb57600080fd5b600254600160a060020a031615610e1157600080fd5b60028054600160a060020a03808716600160a060020a031992831617909255600b805492881692909116919091179055610e4b8383611a39565b600114610e5757600080fd5b5060015b949350505050565b82600160a060020a031633600160a060020a03167f666f2a1e08c169c211c892572663a806f972e3acff2cd9f77800dc571bbba75d848460405191825260208201526040908101905180910390a3505050565b6000805433600160a060020a039081169116141561076f57600160a060020a0382161515610ee65750600061076f565b5060018054600160a060020a038316600160a060020a0319909116178155919050565b600154600160a060020a031681565b60085481565b80600160a060020a031633600160a060020a03167f8de091a31d887fca78e516d802e86c94de30b8e6ca4bf6473b2f09dc32dcaf168585604051600160a060020a03909216825260208201526040908101905180910390a3505050565b60005433600160a060020a0390811691161415610f9757600080fd5b565b82600160a060020a031633600160a060020a03167f9396518c54820bdf393c15c6607d2e106a0c8a4a1bd7a3a3fd3ca3e5485a2005848460405191825260208201526040908101905180910390a3505050565b6000805433600160a060020a039081169116141561076f5750600160a060020a03166000908152600960205260409020805460ff1916600190811790915590565b600754600160a060020a031681565b80600160a060020a031683600160a060020a031633600160a060020a03167f33a424bf05c7821d38f7d44e569ac0bc10a7275bec4c54c6fa1b97bf76064a788560405190815260200160405180910390a4505050565b6000805433600160a060020a039081169116141561076f57600160a060020a03821615156110c25750600061076f565b600154600160a060020a0316156110e45760018054600160a060020a03191690555b5060008054600160a060020a038316600160a060020a03199091161790556001919050565b6000805433600160a060020a039081169116141561076f576111338261112e306117ae565b610774565b92915050565b6000805433600160a060020a039081169116141561076f576002805474ff0000000000000000000000000000000000000000191660a060020a841515021790556111838233611a92565b506001919050565b80600160a060020a031683600160a060020a031633600160a060020a03167fe44fa178c47224ba610def9fa4b501e725e66cfe4cc46f29a1530aee872864138560405190815260200160405180910390a4505050565b80600160a060020a031633600160a060020a03167fb1341f01c56c36e22641e178401a0ca02920498d529c6716447cb5f5c8a7b6c2878787876040518085815260200184815260200183815260200182815260200194505050505060405180910390a35050505050565b6000611256306117ae565b905090565b8082600160a060020a031633600160a060020a03167f6442135644857b16c2b6a9be3374103b3f77dd4d82bb1ebc0f243748f54a565a60405160405180910390a45050565b600054600160a060020a031681565b600254600090819060a060020a900460ff1615156112d257610a77611771611829565b600354841415806112e557506004548314155b156112f557610a77611772611829565b846112ff336117ae565b101561131057610a77611774611829565b600454600354600a9190910a9061132e90879063ffffffff61198c16565b81151561133757fe5b0490508030600160a060020a031631101561135757610a77611775611829565b600254600160a060020a03166323b872dd33308860006040516020015260405160e060020a63ffffffff8616028152600160a060020a0393841660048201529190921660248201526044810191909152606401602060405180830381600087803b15156113c357600080fd5b6102c65a03f115156113d457600080fd5b5050506040518051905015156113ef57610a77611776611829565b600160a060020a03331681156108fc0282604051600060405180830381858888f19350505050151561142057600080fd5b610b88338683611ae9565b6000805433600160a060020a039081169116141561076f576111338230600160a060020a031631610915565b60008054819033600160a060020a039081169116148061148f5750600160a060020a03331660009081526009602052604090205460ff165b156115605761149e8584611b48565b600a0a905082600a0a8185028115156114b357fe5b0485600a0a8288028115156114c457fe5b0411156114d057600080fd5b600354861415806114e357506004548514155b1561150f5760408051908101604052868152602081018690526003815181556020820151600190910155505b6005548414158061152257506006548314155b1561154e5760408051908101604052848152602081018490526005815181556020820151600190910155505b61155b8686868633611b5f565b600191505b50949350505050565b6000805481908190819033600160a060020a03908116911614156116af57600092505b85518310156116aa578583815181106115a157fe5b90602001906020020151915081600160a060020a03166370a082313060006040516020015260405160e060020a63ffffffff8416028152600160a060020a039091166004820152602401602060405180830381600087803b151561160457600080fd5b6102c65a03f1151561161557600080fd5b5050506040518051915050801561169f5781600160a060020a031663a9059cbb868360006040516020015260405160e060020a63ffffffff8516028152600160a060020a0390921660048301526024820152604401602060405180830381600087803b151561168357600080fd5b6102c65a03f1151561169457600080fd5b505050604051805150505b60019092019161158c565b600193505b50505092915050565b80600160a060020a031633600160a060020a03167ff7477d3997f5237a55f24f86e82fcb23c791c7a2424b7175f15e91214281b08784604051901515815260200160405180910390a35050565b600033600160a060020a03167f9cf38cf2dbf9139f5c32639950507b10775fbbe0421f3e168bc2d1bb1ae3208c8360405190815260200160405180910390a25090565b6000805433600160a060020a039081169116141561076f5761176982611109565b9050600181146117785761076f565b6117818261142b565b9050600181146111835761076f565b600160a060020a031660009081526009602052604090205460ff1690565b600254600090600160a060020a03166370a0823183836040516020015260405160e060020a63ffffffff8416028152600160a060020a039091166004820152602401602060405180830381600087803b151561180957600080fd5b6102c65a03f1151561181a57600080fd5b50505060405180519392505050565b600a54600090600160a060020a031663df26ca0883836040516020015260405160e060020a63ffffffff84160281526004810191909152602401602060405180830381600087803b151561187c57600080fd5b6102c65a03f1151561188d57600080fd5b5050506040518051509192915050565b6000828211156118a957fe5b50900390565b600a54600160a060020a031663a64abab984848460405160e060020a63ffffffff8616028152600160a060020a03938416600482015260248101929092529091166044820152606401600060405180830381600087803b151561191157600080fd5b6102c65a03f1151561192257600080fd5b505050505050565b600a54600160a060020a031663c1538d4584848460405160e060020a63ffffffff8616028152600160a060020a03938416600482015260248101929092529091166044820152606401600060405180830381600087803b151561191157600080fd5b60008282028315806119a857508284828115156119a557fe5b04145b15156119b057fe5b9392505050565b600a54600160a060020a0316634e3f0a0184848460405160e060020a63ffffffff8616028152600160a060020a03909316600484015260248301919091526044820152606401600060405180830381600087803b151561191157600080fd5b60005433600160a060020a0390811691161415610f975733600160a060020a0316ff5b6000600160a060020a0383161515611a5057600080fd5b6127108210611a5e57600080fd5b60078054600160a060020a031916600160a060020a0385161790556008829055611a89838333611be9565b50600192915050565b600a54600160a060020a031663db3dccc0838360405160e060020a63ffffffff85160281529115156004830152600160a060020a03166024820152604401600060405180830381600087803b151561070157600080fd5b600a54600160a060020a03166388ae3c6b84848460405160e060020a63ffffffff8616028152600160a060020a03909316600484015260248301919091526044820152606401600060405180830381600087803b151561191157600080fd5b600081831015611b5857816119b0565b5090919050565b600a54600160a060020a031663c3ec2014868686868660405160e060020a63ffffffff88160281526004810195909552602485019390935260448401919091526064830152600160a060020a0316608482015260a401600060405180830381600087803b1515611bce57600080fd5b6102c65a03f11515611bdf57600080fd5b5050505050505050565b600a54600160a060020a031663808700f584848460405160e060020a63ffffffff8616028152600160a060020a03938416600482015260248101929092529091166044820152606401600060405180830381600087803b151561191157600080fd00a165627a7a7230582037b3528593e2423b3355da7bbd863dd58b195fb9353974b2b12ace95866e893b0029",
  "source": "pragma solidity ^0.4.11;\n\nimport \"../core/common/Object.sol\";\nimport \"../core/lib/SafeMath.sol\";\nimport {ERC20Interface as Asset} from \"../core/erc20/ERC20Interface.sol\";\nimport \"../core/contracts/ContractsManager.sol\";\n\ncontract ExchangeEmitter {\n    function emitError(uint errorCode) public returns (uint);\n    function emitFeeUpdated(address rewards, uint feePercent, address by) public;\n    function emitPricesUpdated(uint buyPrice, uint buyDecimals, uint sellPrice, uint sellDecimals, address by) public;\n    function emitActiveChanged(bool isActive, address by) public;\n    function emitBuy(address who, uint token, uint eth) public;\n    function emitSell(address who, uint token, uint eth) public;\n    function emitWithdrawEther(address recipient, uint amount, address by) public;\n    function emitWithdrawTokens(address recipient, uint amount, address by) public;\n    function emitReceivedEther(address sender, uint amount) public;\n}\n\ncontract IExchangeManager {\n    function removeExchange() public returns (uint errorCode);\n}\n\n/// @title ERC20-Ether exchange contract.\n///\n/// @notice Users are able to buy/sell assigned ERC20 token for ether,\n/// as long as there is available supply. Contract owner maintains\n/// sufficient token and ether supply, and sets buy/sell prices.\n///\n/// In order to be able to sell tokens, user needs to create allowance\n/// for this contract, using standard ERC20 approve() function,\n/// so that exchange can take tokens from the user, when user\n/// orders a sell.\n///\n/// Note: all the non constant functions return false instead of\n/// throwing in case if state change didn't happen yet.\ncontract Exchange is Object {\n    using SafeMath for uint;\n    uint constant ERROR_EXCHANGE_INVALID_INVOCATION = 6000;\n    uint constant ERROR_EXCHANGE_MAINTENANCE_MODE = 6001;\n    uint constant ERROR_EXCHANGE_INVALID_PRICE = 6002;\n    uint constant ERROR_EXCHANGE_INSUFFICIENT_BALANCE = 6004;\n    uint constant ERROR_EXCHANGE_INSUFFICIENT_ETHER_SUPPLY = 6005;\n    uint constant ERROR_EXCHANGE_PAYMENT_FAILED = 6006;\n    uint constant ERROR_EXCHANGE_TRANSFER_FAILED = 6007;\n\n    /// Price structure. Price representation: 1.1 == 11* 10^1 == Price(10, 1)\n    struct Price {\n        uint base;\n        uint decimals;\n    }\n    /// Assigned ERC20 token.\n    Asset public asset;\n    //Switch for turn on and off the exchange operations\n    bool public isActive;\n    /// Price in wei at which exchange buys tokens.\n    Price buyPrice;\n    /// Price in wei at which exchange sells tokens.\n    Price sellPrice;\n    /// Fee wallet\n    address public rewards;\n    /// Fee value for operations 10000 is 0.01.\n    uint public feePercent;\n    /// Authorized price managers\n    mapping (address => bool) authorized;\n\n    /// User sold tokens and received wei.\n    event ExchangeSell(address indexed exchange, address indexed who, uint token, uint eth);\n    /// User bought tokens and payed wei.\n    event ExchangeBuy(address indexed exchange, address indexed who, uint token, uint eth);\n    /// On received ethers\n    event ExchangeReceivedEther(address indexed exchange, address indexed sender, uint256 indexed amount);\n    /// On tokens withdraw\n    event ExchangeWithdrawTokens(address indexed exchange, address indexed recipient, uint amount, address indexed by);\n    /// On eth withdraw\n    event ExchangeWithdrawEther(address indexed exchange, address indexed recipient, uint amount, address indexed by);\n    /// On Fee updated\n    event ExchangeFeeUpdated(address indexed exchange, address rewards, uint feeValue, address indexed by);\n    /// On prices updated\n    event ExchangePricesUpdated(address indexed exchange, uint buyPrice, uint buyDecimals, uint sellPrice, uint sellDecimals, address indexed by);\n    /// On state changed\n    event ExchangeActiveChanged(address indexed exchange, bool isActive, address indexed by);\n    /// On error\n    event Error(address indexed exchange, uint errorCode);\n\n    /// Should use interface of the emitter, but address of events history.\n    ExchangeEmitter eventsHistory;\n    /// service registry\n    address contractsManager;\n\n    /// @notice only authorized account are permitted to call\n    modifier onlyAuthorized() {\n        if (msg.sender == contractOwner || authorized[msg.sender]) {\n            _;\n        }\n    }\n\n    /// @notice Assigns ERC20 token for exchange.\n    ///\n    /// Can be set only once, and only by contract owner.\n    ///\n    /// @param _asset ERC20 token address.\n    ///\n    /// @return OK if success.\n    function init(\n        address _contractsManager,\n        address _asset,\n        address _rewards,\n        uint _fee)\n    public\n    onlyContractOwner\n    returns (uint errorCode)\n    {\n        require(_contractsManager != 0x0);\n        require(_asset != 0x0);\n        require(address(asset) == 0x0);\n\n        asset = Asset(_asset);\n        contractsManager = _contractsManager;\n\n        if (OK != setFee(_rewards, _fee)) {\n            revert();\n        }\n\n        return OK;\n    }\n\n    /// @notice Sets EventsHstory contract address.\n    /// Can be set only once, and only by contract owner.\n    ///\n    /// @param _eventsHistory MultiEventsHistory contract address.\n    ///\n    /// @return OK if success.\n    function setupEventsHistory(address _eventsHistory)\n    public\n    onlyContractOwner\n    returns (uint)\n    {\n        require(_eventsHistory != 0x0);\n        eventsHistory = ExchangeEmitter(_eventsHistory);\n        return OK;\n    }\n\n    /// @notice Authorizes given address to execute restricted methods.\n    /// @dev Can be called only by contract owner.\n    ///\n    /// @return OK if success.\n    function grantAuthorized(address _authorized)\n    public\n    onlyContractOwner\n    returns (uint) {\n        authorized[_authorized] = true;\n        return OK;\n    }\n\n    /// @notice Revokes granted access rights.\n    /// @dev Can be called only by contract owner.\n    ///\n    /// @return OK if success.\n    function revokeAuthorized(address _authorized)\n    public\n    onlyContractOwner\n    returns (uint) {\n        delete authorized[_authorized];\n        return OK;\n    }\n\n    /// @notice Tells whether given address is authorized or not\n    ///\n    /// @return `true` if given address is authorized to make secured changes.\n    function isAuthorized(address _authorized) public constant returns (bool) {\n        return authorized[_authorized];\n    }\n\n    /// @notice Set exchange operation prices.\n    /// Sell price cannot be less than buy price.\n    ///\n    /// Can be set only by contract owner.\n    ///\n    /// @param _buyPrice price in wei at which exchange buys tokens.\n    /// @param _sellPrice price in wei at which exchange sells tokens.\n    ///\n    /// @return OK if success.\n    function setPrices(uint _buyPrice, uint _buyDecimals, uint _sellPrice, uint _sellDecimals)\n    public\n    onlyAuthorized\n    returns (uint)\n    {\n        // buy price <= sell price\n        uint max_dec = 10**max(_buyDecimals, _sellDecimals);\n        require(_buyPrice * max_dec / 10**_buyDecimals <= _sellPrice * max_dec / 10**_sellDecimals);\n\n        if (buyPrice.base != _buyPrice || buyPrice.decimals != _buyDecimals) {\n            buyPrice = Price(_buyPrice, _buyDecimals);\n        }\n\n        if (sellPrice.base != _sellPrice || sellPrice.decimals != _sellDecimals) {\n            sellPrice = Price(_sellPrice, _sellDecimals);\n        }\n\n        _emitPricesUpdated(_buyPrice, _buyDecimals, _sellPrice, _sellDecimals, msg.sender);\n        return OK;\n    }\n\n    /// @notice Exchange must be activated before using.\n    ///\n    /// Note: An exchange is not activated `by default` after init().\n    /// Make sure that prices are valid before activation.\n    ///\n    /// @return OK if success.\n    function setActive(bool _active)\n    public\n    onlyContractOwner\n    returns (uint)\n    {\n        isActive = _active;\n\n        _emitActiveChanged(_active, msg.sender);\n        return OK;\n    }\n\n    /// @notice Returns ERC20 balance of an exchange\n    /// @return balance.\n    function assetBalance() public constant returns (uint) {\n        return _balanceOf(this);\n    }\n\n    /// @notice Returns assigned token address balance.\n    ///\n    /// @param _address address to get balance.\n    ///\n    /// @return token balance.\n    function _balanceOf(address _address) constant internal returns (uint) {\n        return asset.balanceOf(_address);\n    }\n\n    /// @notice Returns sell price\n    function getSellPrice() public view returns (uint base, uint decimals) {\n        return (sellPrice.base, sellPrice.decimals);\n    }\n\n    /// @notice Returns buy price\n    function getBuyPrice() public view returns (uint base, uint decimals) {\n        return (buyPrice.base, buyPrice.decimals);\n    }\n\n    /// @notice Sell tokens for ether at specified price. Tokens are taken from caller\n    /// though an allowance logic.\n    /// Amount should be less than or equal to current allowance value.\n    /// Price should be less than or equal to current exchange buyPrice.\n    ///\n    /// @param _amount amount of tokens to sell.\n    /// @param _price price in wei at which sell will happen.\n    ///\n    /// @return OK if success.\n    function sell(uint _amount, uint _price, uint _priceDecimals) public returns (uint) {\n        if (!isActive) {\n            return _emitError(ERROR_EXCHANGE_MAINTENANCE_MODE);\n        }\n\n        if (_price != buyPrice.base || _priceDecimals != buyPrice.decimals) {\n            return _emitError(ERROR_EXCHANGE_INVALID_PRICE);\n        }\n\n        if (_balanceOf(msg.sender) < _amount) {\n            return _emitError(ERROR_EXCHANGE_INSUFFICIENT_BALANCE);\n        }\n\n        uint total = _amount.mul(buyPrice.base) / 10**buyPrice.decimals;\n        if (this.balance < total) {\n            return _emitError(ERROR_EXCHANGE_INSUFFICIENT_ETHER_SUPPLY);\n        }\n\n        if (!asset.transferFrom(msg.sender, this, _amount)) {\n            return _emitError(ERROR_EXCHANGE_PAYMENT_FAILED);\n        }\n\n        if (!msg.sender.send(total)) {\n            revert();\n        }\n\n        _emitSell(msg.sender, _amount, total);\n        return OK;\n    }\n\n    /// @notice Buy tokens for ether at specified price. Payment needs to be sent along\n    /// with the call, and should equal amount * price.\n    /// Price should be greater than or equal to current exchange sellPrice.\n    ///\n    /// @param _amount amount of tokens to buy.\n    /// @param _price price in wei at which buy will happen.\n    ///\n    /// @return OK if success.\n    function buy(uint _amount, uint _price, uint _priceDecimals) payable public returns (uint) {\n        if (!isActive) {\n            return _emitError(ERROR_EXCHANGE_MAINTENANCE_MODE);\n        }\n\n        if (_price != sellPrice.base || _priceDecimals != sellPrice.decimals) {\n            return _emitError(ERROR_EXCHANGE_INVALID_PRICE);\n        }\n\n        if (_balanceOf(this) < _amount) {\n            return _emitError(ERROR_EXCHANGE_INSUFFICIENT_BALANCE);\n        }\n\n        uint total = _amount.mul(sellPrice.base) / 10**sellPrice.decimals;\n        if (msg.value != total) {\n            return _emitError(ERROR_EXCHANGE_INSUFFICIENT_ETHER_SUPPLY);\n        }\n\n        if (!asset.transfer(msg.sender, _amount)) {\n            revert();\n        }\n\n        _emitBuy(msg.sender, _amount, total);\n        return OK;\n    }\n\n    /// @notice Transfer specified amount of tokens from exchange to specified address.\n    ///\n    /// Can be called only by contract owner.\n    ///\n    /// @param _recipient address to transfer tokens to.\n    /// @param _amount amount of tokens to transfer.\n    ///\n    /// @return OK if success.\n    function withdrawTokens(address _recipient, uint _amount) public onlyContractOwner returns (uint) {\n        if (_balanceOf(this) < _amount) {\n            return _emitError(ERROR_EXCHANGE_INSUFFICIENT_BALANCE);\n        }\n\n        uint amount = (_amount * 10000) / (10000 + feePercent);\n        if (!asset.transfer(_recipient, amount)) {\n            return _emitError(ERROR_EXCHANGE_TRANSFER_FAILED);\n        }\n\n        if (feePercent > 0 && !asset.transfer(rewards, _amount.sub(amount))) {\n            revert();\n        }\n\n        _emitWithdrawTokens(_recipient, amount, msg.sender);\n        return OK;\n    }\n\n    /// @notice Transfer all tokens from exchange to specified address.\n    ///\n    /// Can be called only by contract owner.\n    ///\n    /// @param _recipient address to transfer tokens to.\n    ///\n    /// @return OK if success.\n    function withdrawAllTokens(address _recipient) public onlyContractOwner returns (uint) {\n        return withdrawTokens(_recipient, _balanceOf(this));\n    }\n\n    /// @notice Transfer specified amount of wei from exchange to specified address.\n    ///\n    /// Can be called only by contract owner.\n    ///\n    /// @param _recipient address to transfer wei to.\n    /// @param _amount amount of wei to transfer.\n    ///\n    /// @return OK if success.\n    function withdrawEth(address _recipient, uint _amount) public onlyContractOwner returns (uint) {\n        if (this.balance < _amount) {\n            return _emitError(ERROR_EXCHANGE_INSUFFICIENT_ETHER_SUPPLY);\n        }\n\n        uint amount = (_amount * 10000) / (10000 + feePercent);\n\n        if (!_recipient.send(amount)) {\n            return _emitError(ERROR_EXCHANGE_TRANSFER_FAILED);\n        }\n\n        if (feePercent > 0 && !rewards.send(_amount.sub(amount))) {\n            revert();\n        }\n\n        _emitWithdrawEther(_recipient, amount, msg.sender);\n        return OK;\n    }\n\n    /// @notice Transfer all wei from exchange to specified address.\n    ///\n    /// Can be called only by contract owner.\n    ///\n    /// @param _recipient address to transfer wei to.\n    ///\n    /// @return OK if success.\n    function withdrawAllEth(address _recipient) public onlyContractOwner returns (uint) {\n        return withdrawEth(_recipient, this.balance);\n    }\n\n    /// @notice Transfer all tokens and wei from exchange to specified address.\n    ///\n    /// Can be called only by contract owner.\n    ///\n    /// @param _recipient address to transfer tokens and wei to.\n    ///\n    /// @return OK if success.\n    function withdrawAll(address _recipient) public onlyContractOwner returns (uint result) {\n        result = withdrawAllTokens(_recipient);\n        if (result != OK) {\n            return result;\n        }\n\n        result = withdrawAllEth(_recipient);\n        if (result != OK) {\n            return result;\n        }\n\n        return OK;\n    }\n\n    /// @notice Use kill() instead of destroy() to prevent accidental ether/ERC20 loosing\n    function destroy() public onlyContractOwner {\n        revert();\n    }\n\n    /// @notice Kills an exchnage contract.\n    ///\n    /// Checks balances of an exchange before destroying.\n    /// Destroys an exchange only if balances are empty.\n    ///\n    /// @return OK if success.\n    function kill() public onlyContractOwner returns (uint errorCode) {\n        if (this.balance > 0) {\n            return _emitError(ERROR_EXCHANGE_INVALID_INVOCATION);\n        }\n\n        if (asset.balanceOf(this) > 0) {\n            return _emitError(ERROR_EXCHANGE_INVALID_INVOCATION);\n        }\n\n        address exchangeManager = ContractsManager(contractsManager).getContractAddressByType(\"ExchangeManager\");\n        errorCode = IExchangeManager(exchangeManager).removeExchange();\n        if (errorCode != OK) {\n            return _emitError(errorCode);\n        }\n\n        Owned.destroy();\n    }\n\n    function setFee(address _rewards, uint _feePercent)\n    internal\n    returns (uint)\n    {\n        require(_rewards != 0x0);\n        require(/*_feePercent > 1 && */ _feePercent < 10000);\n\n        rewards = _rewards;\n        feePercent = _feePercent;\n\n        _emitFeeUpdated(_rewards, _feePercent, msg.sender);\n        return OK;\n    }\n\n    /* Events helpers */\n\n    function _emitError(uint _errorCode) internal returns (uint) {\n        eventsHistory.emitError(_errorCode);\n        return _errorCode;\n    }\n\n    function _emitFeeUpdated(address _rewards, uint _feePercent, address _by) internal {\n        eventsHistory.emitFeeUpdated(_rewards, _feePercent, _by);\n    }\n\n    function _emitPricesUpdated(uint _buyPrice, uint _buyDecimals, uint _sellPrice, uint _sellDecimals, address _by) internal {\n        eventsHistory.emitPricesUpdated(_buyPrice, _buyDecimals, _sellPrice, _sellDecimals, _by);\n    }\n\n    function _emitActiveChanged(bool _isActive, address _by) internal {\n        eventsHistory.emitActiveChanged(_isActive, _by);\n    }\n\n    function _emitBuy(address _who, uint _token, uint _eth) internal {\n        eventsHistory.emitBuy(_who, _token, _eth);\n    }\n\n    function _emitSell(address _who, uint _token, uint _eth) internal {\n        eventsHistory.emitSell(_who, _token, _eth);\n    }\n\n    function _emitWithdrawEther(address _recipient, uint _amount, address _by) internal {\n        eventsHistory.emitWithdrawEther(_recipient, _amount, _by);\n    }\n\n    function _emitWithdrawTokens(address _recipient, uint _amount, address _by) internal {\n        eventsHistory.emitWithdrawTokens(_recipient, _amount, _by);\n    }\n\n    function _emitReceivedEther(address _sender, uint _amount) internal {\n        eventsHistory.emitReceivedEther(_sender, _amount);\n    }\n\n    /* emit* methods are designed to be called only via EventsHistory */\n\n    function emitError(uint _errorCode) public returns (uint) {\n        Error(msg.sender, _errorCode);\n        return _errorCode;\n    }\n\n    function emitFeeUpdated(address _rewards, uint _feePercent, address _by) public {\n        ExchangeFeeUpdated(msg.sender, _rewards, _feePercent, _by);\n    }\n\n    function emitPricesUpdated(uint _buyPrice, uint _buyDecimals, uint _sellPrice, uint _sellDecimals, address _by) public {\n        ExchangePricesUpdated(msg.sender, _buyPrice, _buyDecimals, _sellPrice, _sellDecimals, _by);\n    }\n\n    function emitActiveChanged(bool _isActive, address _by) public {\n        ExchangeActiveChanged(msg.sender, _isActive, _by);\n    }\n\n    function emitBuy(address _who, uint _token, uint _eth) public {\n        ExchangeBuy(msg.sender, _who, _token, _eth);\n    }\n\n    function emitSell(address _who, uint _token, uint _eth) public {\n        ExchangeSell(msg.sender, _who, _token, _eth);\n    }\n\n    function emitWithdrawEther(address _recipient, uint _amount, address _by) public {\n        ExchangeWithdrawEther(msg.sender, _recipient, _amount, _by);\n    }\n\n    function emitWithdrawTokens(address _recipient, uint _amount, address _by) public {\n        ExchangeWithdrawTokens(msg.sender, _recipient, _amount, _by);\n    }\n\n    function emitReceivedEther(address _sender, uint _amount) public {\n        ExchangeReceivedEther(msg.sender, _sender, _amount);\n    }\n\n    /// @notice Accept all ether to maintain exchange supply.\n    function() payable public {\n        if (msg.value != 0) {\n            _emitReceivedEther(msg.sender, msg.value);\n        } else {\n            revert();\n        }\n    }\n\n    function max(uint a, uint b) private pure returns (uint256) {\n        return a >= b ? a : b;\n    }\n}\n",
  "sourcePath": "/Users/ahiatsevich/Development/chronobank/SmartContracts/contracts/exchange/Exchange.sol",
  "compiler": {
    "name": "solc",
    "version": "0.4.18+commit.9cf6e910.Emscripten.clang"
  },
  "schemaVersion": "1.0.1",
  "updatedAt": "2017-12-11T15:29:19.491Z"
}