{
  "contractName": "ExchangeFactory",
  "abi": [
    {
      "constant": false,
      "inputs": [],
      "name": "createExchange",
      "outputs": [
        {
          "name": "",
          "type": "address"
        }
      ],
      "payable": false,
      "stateMutability": "nonpayable",
      "type": "function"
    }
  ],
  "bytecode": "0x6060604052341561000f57600080fd5b611ddb8061001e6000396000f3006060604052600436106100405763ffffffff7c01000000000000000000000000000000000000000000000000000000006000350416637d3af3a48114610045575b600080fd5b341561005057600080fd5b610058610081565b60405173ffffffffffffffffffffffffffffffffffffffff909116815260200160405180910390f35b60008061008c610159565b604051809103906000f08015156100a257600080fd5b90508073ffffffffffffffffffffffffffffffffffffffff1663a843c51f336000604051602001526040517c010000000000000000000000000000000000000000000000000000000063ffffffff841602815273ffffffffffffffffffffffffffffffffffffffff9091166004820152602401602060405180830381600087803b151561012e57600080fd5b6102c65a03f1151561013f57600080fd5b50505060405180519050151561015457600080fd5b919050565b604051611c468061016a833901905600606060405260008054600160a060020a033316600160a060020a0319909116179055611c16806100306000396000f3006060604052600436106101be5763ffffffff60e060020a60003504166305fefda781146101da57806306b091f9146102055780631b9a91a41461022757806322f3e2d41461024957806338d52e0f146102705780633f48be2d1461029f57806341c0e1b5146102be5780634592cd1d146102d157806346639dba146102e45780634b750334146103125780634e3f0a0114610325578063557f4bc91461034a5780635aa77d3c146103695780637fd6f15c1461037c578063808700f51461038f57806383197ef0146103b85780638620410b146103cb57806388ae3c6b146103de57806394f3ed31146104035780639ec5a89414610422578063a64abab914610435578063a843c51f1461045e578063a878aee61461047d578063acec338a1461049c578063b4e92088146104b4578063c1538d45146104d9578063c66f245514610502578063c81e790814610515578063ce606ee014610537578063d46d79bb1461054a578063d6febde814610569578063d79875eb14610577578063d8f9659b14610590578063db3dccc0146105ea578063df26ca081461060e578063fa09e63014610624578063fe9fbb8014610643578063fff10aba14610662575b34156101d3576101ce3334610675565b6101d8565b600080fd5b005b34156101e557600080fd5b6101f36004356024356106e8565b60405190815260200160405180910390f35b341561021057600080fd5b6101f3600160a060020a0360043516602435610767565b341561023257600080fd5b6101f3600160a060020a0360043516602435610908565b341561025457600080fd5b61025c6109eb565b604051901515815260200160405180910390f35b341561027b57600080fd5b6102836109fb565b604051600160a060020a03909116815260200160405180910390f35b34156102aa57600080fd5b6101f3600160a060020a0360043516610a0a565b34156102c957600080fd5b6101f3610a4b565b34156102dc57600080fd5b61025c610bbb565b34156102ef57600080fd5b6101f3600160a060020a0360043581169060243581169060443516606435610c06565b341561031d57600080fd5b6101f3610cb0565b341561033057600080fd5b6101d8600160a060020a0360043516602435604435610cb6565b341561035557600080fd5b61025c600160a060020a0360043516610d09565b341561037457600080fd5b610283610d5c565b341561038757600080fd5b6101f3610d6b565b341561039a57600080fd5b6101d8600160a060020a036004358116906024359060443516610d71565b34156103c357600080fd5b6101d8610dce565b34156103d657600080fd5b6101f3610dec565b34156103e957600080fd5b6101d8600160a060020a0360043516602435604435610df2565b341561040e57600080fd5b6101f3600160a060020a0360043516610e45565b341561042d57600080fd5b610283610e86565b341561044057600080fd5b6101d8600160a060020a036004358116906024359060443516610e95565b341561046957600080fd5b61025c600160a060020a0360043516610eeb565b341561048857600080fd5b6101f3600160a060020a0360043516610f62565b34156104a757600080fd5b6101f36004351515610f8c565b34156104bf57600080fd5b6101d8600435602435600160a060020a0360443516610fde565b34156104e457600080fd5b6101d8600160a060020a036004358116906024359060443516611031565b341561050d57600080fd5b6101f3611087565b341561052057600080fd5b6101d8600160a060020a0360043516602435611097565b341561054257600080fd5b6102836110dc565b341561055557600080fd5b6101f3600160a060020a03600435166110eb565b6101f3600435602435611117565b341561058257600080fd5b6101f3600435602435611295565b341561059b57600080fd5b6101f3600460248135818101908301358060208181020160405190810160405280939291908181526020018383602002808284375094965050509235600160a060020a03169250611462915050565b34156105f557600080fd5b6101d86004351515600160a060020a03602435166115b1565b341561061957600080fd5b6101f36004356115fe565b341561062f57600080fd5b6101f3600160a060020a0360043516611641565b341561064e57600080fd5b61025c600160a060020a0360043516611689565b341561066d57600080fd5b6102836116a7565b61067d6116a7565b600160a060020a031663c81e7908838360405160e060020a63ffffffff8516028152600160a060020a0390921660048301526024820152604401600060405180830381600087803b15156106d057600080fd5b6102c65a03f115156106e157600080fd5b5050505050565b6000805433600160a060020a039081169116148061071e5750600160a060020a03331660009081526007602052604090205460ff165b15610761578183111561073057600080fd5b600354831461073f5760038390555b600454821461074e5760048290555b61075d600354600454336116eb565b5060015b92915050565b60008054819033600160a060020a0390811691161415610901578261078b30611769565b10156107a35761079c6117746117e4565b9150610901565b6006546127100183612710028115156107b857fe5b6002549190049150600160a060020a031663a9059cbb858360006040516020015260405160e060020a63ffffffff8516028152600160a060020a0390921660048301526024820152604401602060405180830381600087803b151561081c57600080fd5b6102c65a03f1151561082d57600080fd5b5050506040518051905015156108485761079c6117776117e4565b60006006541180156108e75750600254600554600160a060020a039182169163a9059cbb911661087e868563ffffffff61185d16565b60006040516020015260405160e060020a63ffffffff8516028152600160a060020a0390921660048301526024820152604401602060405180830381600087803b15156108ca57600080fd5b6102c65a03f115156108db57600080fd5b50505060405180519050155b156108f157600080fd5b6108fc84823361186f565b600191505b5092915050565b60008054819033600160a060020a0390811691161415610901578230600160a060020a031631101561093f5761079c6117756117e4565b60065461271001836127100281151561095457fe5b049050600160a060020a03841681156108fc0282604051600060405180830381858888f19350505050151561098e5761079c6117776117e4565b60006006541180156109d65750600554600160a060020a03166108fc6109ba858463ffffffff61185d16565b9081150290604051600060405180830381858888f19350505050155b156109e057600080fd5b6108fc8482336118d6565b60025460a060020a900460ff1681565b600254600160a060020a031681565b6000805433600160a060020a0390811691161415610a465750600160a060020a0381166000908152600760205260409020805460ff1916905560015b919050565b60008054819033600160a060020a0390811691161415610bb757600030600160a060020a0316311115610a8a57610a836117706117e4565b9150610bb7565b600254600090600160a060020a03166370a0823130836040516020015260405160e060020a63ffffffff8416028152600160a060020a039091166004820152602401602060405180830381600087803b1515610ae557600080fd5b6102c65a03f11515610af657600080fd5b505050604051805190501115610b1157610a836117706117e4565b610b3a7f45786368616e67654d616e61676572000000000000000000000000000000000061193d565b905080600160a060020a0316634ea3b6426000604051602001526040518163ffffffff1660e060020a028152600401602060405180830381600087803b1515610b8257600080fd5b6102c65a03f11515610b9357600080fd5b505050604051805192505060018214610baf57610a83826117e4565b610bb76119c1565b5090565b60015460009033600160a060020a03908116911614610bdc57506000610c03565b506001805460008054600160a060020a0319908116600160a060020a038416179091551681555b90565b6000805433600160a060020a0390811691161415610ca857600160a060020a0385161515610c3357600080fd5b600160a060020a0384161515610c4857600080fd5b600254600160a060020a031615610c5e57600080fd5b60028054600160a060020a03808716600160a060020a0319928316179092556008805492881692909116919091179055610c9883836119e4565b600114610ca457600080fd5b5060015b949350505050565b60045481565b82600160a060020a031633600160a060020a03167f666f2a1e08c169c211c892572663a806f972e3acff2cd9f77800dc571bbba75d848460405191825260208201526040908101905180910390a3505050565b6000805433600160a060020a0390811691161415610a4657600160a060020a0382161515610d3957506000610a46565b5060018054600160a060020a038316600160a060020a0319909116178155919050565b600154600160a060020a031681565b60065481565b80600160a060020a031633600160a060020a03167f8de091a31d887fca78e516d802e86c94de30b8e6ca4bf6473b2f09dc32dcaf168585604051600160a060020a03909216825260208201526040908101905180910390a3505050565b60005433600160a060020a0390811691161415610dea57600080fd5b565b60035481565b82600160a060020a031633600160a060020a03167f9396518c54820bdf393c15c6607d2e106a0c8a4a1bd7a3a3fd3ca3e5485a2005848460405191825260208201526040908101905180910390a3505050565b6000805433600160a060020a0390811691161415610a465750600160a060020a03166000908152600760205260409020805460ff1916600190811790915590565b600554600160a060020a031681565b80600160a060020a031683600160a060020a031633600160a060020a03167f33a424bf05c7821d38f7d44e569ac0bc10a7275bec4c54c6fa1b97bf76064a788560405190815260200160405180910390a4505050565b6000805433600160a060020a0390811691161415610a4657600160a060020a0382161515610f1b57506000610a46565b600154600160a060020a031615610f3d5760018054600160a060020a03191690555b5060008054600160a060020a038316600160a060020a03199091161790556001919050565b6000805433600160a060020a0390811691161415610a465761076182610f8730611769565b610767565b6000805433600160a060020a0390811691161415610a46576002805474ff0000000000000000000000000000000000000000191660a060020a84151502179055610fd68233611a34565b506001919050565b80600160a060020a031633600160a060020a03167f213a419fef9bd0f08b17c87d39e3f31bcd1163f232e5b252a9550ce45ef6f1ff858560405191825260208201526040908101905180910390a3505050565b80600160a060020a031683600160a060020a031633600160a060020a03167fe44fa178c47224ba610def9fa4b501e725e66cfe4cc46f29a1530aee872864138560405190815260200160405180910390a4505050565b600061109230611769565b905090565b8082600160a060020a031633600160a060020a03167f6442135644857b16c2b6a9be3374103b3f77dd4d82bb1ebc0f243748f54a565a60405160405180910390a45050565b600054600160a060020a031681565b6000805433600160a060020a0390811691161415610a46576107618230600160a060020a031631610908565b600254600090819060a060020a900460ff16151561113a5761079c6117716117e4565b600454831461114e5761079c6117726117e4565b8361115830611769565b10156111695761079c6117746117e4565b600254600160a060020a031663313ce5676000604051602001526040518163ffffffff1660e060020a028152600401602060405180830381600087803b15156111b157600080fd5b6102c65a03f115156111c257600080fd5b5050506040518051905060ff16600a0a6111e760045486611a9090919063ffffffff16565b8115156111f057fe5b0490503481146112055761079c6117756117e4565b600254600160a060020a031663a9059cbb338660006040516020015260405160e060020a63ffffffff8516028152600160a060020a0390921660048301526024820152604401602060405180830381600087803b151561126457600080fd5b6102c65a03f1151561127557600080fd5b50505060405180519050151561128a57600080fd5b6108fc338583611abb565b600254600090819060a060020a900460ff1615156112b85761079c6117716117e4565b60035483146112cc5761079c6117726117e4565b836112d633611769565b10156112e75761079c6117746117e4565b600254600160a060020a031663313ce5676000604051602001526040518163ffffffff1660e060020a028152600401602060405180830381600087803b151561132f57600080fd5b6102c65a03f1151561134057600080fd5b5050506040518051905060ff16600a0a61136560035486611a9090919063ffffffff16565b81151561136e57fe5b0490508030600160a060020a031631101561138e5761079c6117756117e4565b600254600160a060020a03166323b872dd33308760006040516020015260405160e060020a63ffffffff8616028152600160a060020a0393841660048201529190921660248201526044810191909152606401602060405180830381600087803b15156113fa57600080fd5b6102c65a03f1151561140b57600080fd5b5050506040518051905015156114265761079c6117766117e4565b600160a060020a03331681156108fc0282604051600060405180830381858888f19350505050151561145757600080fd5b6108fc338583611b1f565b6000805481908190819033600160a060020a03908116911614156115a857600092505b85518310156115a35785838151811061149a57fe5b90602001906020020151915081600160a060020a03166370a082313060006040516020015260405160e060020a63ffffffff8416028152600160a060020a039091166004820152602401602060405180830381600087803b15156114fd57600080fd5b6102c65a03f1151561150e57600080fd5b505050604051805191505080156115985781600160a060020a031663a9059cbb868360006040516020015260405160e060020a63ffffffff8516028152600160a060020a0390921660048301526024820152604401602060405180830381600087803b151561157c57600080fd5b6102c65a03f1151561158d57600080fd5b505050604051805150505b600190920191611485565b600193505b50505092915050565b80600160a060020a031633600160a060020a03167ff7477d3997f5237a55f24f86e82fcb23c791c7a2424b7175f15e91214281b08784604051901515815260200160405180910390a35050565b600033600160a060020a03167f9cf38cf2dbf9139f5c32639950507b10775fbbe0421f3e168bc2d1bb1ae3208c8360405190815260200160405180910390a25090565b6000805433600160a060020a0390811691161415610a465761166282610f62565b90506001811461167157610a46565b61167a826110eb565b905060018114610fd657610a46565b600160a060020a031660009081526007602052604090205460ff1690565b600854600090600160a060020a031615156116c25730611092565b6110927f4d756c74694576656e7473486973746f7279000000000000000000000000000061193d565b6116f36116a7565b600160a060020a031663b4e9208884848460405160e060020a63ffffffff861602815260048101939093526024830191909152600160a060020a03166044820152606401600060405180830381600087803b151561175057600080fd5b6102c65a03f1151561176157600080fd5b505050505050565b600254600090600160a060020a03166370a0823183836040516020015260405160e060020a63ffffffff8416028152600160a060020a039091166004820152602401602060405180830381600087803b15156117c457600080fd5b6102c65a03f115156117d557600080fd5b50505060405180519392505050565b60006117ee6116a7565b600160a060020a031663df26ca088360006040516020015260405160e060020a63ffffffff84160281526004810191909152602401602060405180830381600087803b151561183c57600080fd5b6102c65a03f1151561184d57600080fd5b5050506040518051509192915050565b60008282111561186957fe5b50900390565b6118776116a7565b600160a060020a031663a64abab984848460405160e060020a63ffffffff8616028152600160a060020a03938416600482015260248101929092529091166044820152606401600060405180830381600087803b151561175057600080fd5b6118de6116a7565b600160a060020a031663c1538d4584848460405160e060020a63ffffffff8616028152600160a060020a03938416600482015260248101929092529091166044820152606401600060405180830381600087803b151561175057600080fd5b600854600090600160a060020a031663bc65792783836040516020015260405160e060020a63ffffffff84160281526004810191909152602401602060405180830381600087803b151561199057600080fd5b6102c65a03f115156119a157600080fd5b5050506040518051915050600160a060020a0381161515610a4657600080fd5b60005433600160a060020a0390811691161415610dea5733600160a060020a0316ff5b6000600160a060020a03831615156119fb57600080fd5b6127108210611a0957600080fd5b60058054600160a060020a031916600160a060020a038516179055600682905561075d838333611b83565b611a3c6116a7565b600160a060020a031663db3dccc0838360405160e060020a63ffffffff85160281529115156004830152600160a060020a03166024820152604401600060405180830381600087803b15156106d057600080fd5b6000828202831580611aac5750828482811515611aa957fe5b04145b1515611ab457fe5b9392505050565b611ac36116a7565b600160a060020a0316634e3f0a0184848460405160e060020a63ffffffff8616028152600160a060020a03909316600484015260248301919091526044820152606401600060405180830381600087803b151561175057600080fd5b611b276116a7565b600160a060020a03166388ae3c6b84848460405160e060020a63ffffffff8616028152600160a060020a03909316600484015260248301919091526044820152606401600060405180830381600087803b151561175057600080fd5b611b8b6116a7565b600160a060020a031663808700f584848460405160e060020a63ffffffff8616028152600160a060020a03938416600482015260248101929092529091166044820152606401600060405180830381600087803b151561175057600080fd00a165627a7a7230582022f1ea8d194fe553fb91e72c8b3bd19c208e1e4aa064063dad2008d3009fb3910029a165627a7a72305820260e6124f8fb3725ae795b3cf45f033e3e8b32e26cc48b1dcdc5ba1833c3a3070029",
  "source": "pragma solidity ^0.4.15;\n\nimport \"./Exchange.sol\";\n\n/// @title Exchange Factory contract\n///\n/// @notice Just util contract used for Exchange creation\ncontract ExchangeFactory {\n    /// @notice Creates Exchange contract and transfers ownership to sender\n    /// @return exchange's address\n    function createExchange() public returns (address) {\n        Exchange exchange = new Exchange();\n        if (!exchange.transferContractOwnership(msg.sender)) {\n            revert();\n        }\n\n        return exchange;\n    }\n}\n",
  "sourcePath": "/Users/ahiatsevich/Development/chronobank/SmartContracts/contracts/exchange/ExchangeFactory.sol",
  "compiler": {
    "name": "solc",
    "version": "0.4.18+commit.9cf6e910.Emscripten.clang"
  },
  "schemaVersion": "1.0.1",
  "updatedAt": "2017-12-21T09:10:13.244Z"
}