{
  "contractName": "ExchangeManager",
  "abi": [
    {
      "constant": false,
      "inputs": [
        {
          "name": "exchange",
          "type": "address"
        },
        {
          "name": "symbol",
          "type": "bytes32"
        }
      ],
      "name": "emitExchangeRemoved",
      "outputs": [],
      "payable": false,
      "stateMutability": "nonpayable",
      "type": "function"
    },
    {
      "constant": false,
      "inputs": [
        {
          "name": "_symbol",
          "type": "bytes32"
        },
        {
          "name": "_buyPrice",
          "type": "uint256"
        },
        {
          "name": "_buyDecimals",
          "type": "uint256"
        },
        {
          "name": "_sellPrice",
          "type": "uint256"
        },
        {
          "name": "_sellDecimals",
          "type": "uint256"
        },
        {
          "name": "_authorizedManager",
          "type": "address"
        },
        {
          "name": "_isActive",
          "type": "bool"
        }
      ],
      "name": "createExchange",
      "outputs": [
        {
          "name": "errorCode",
          "type": "uint256"
        }
      ],
      "payable": false,
      "stateMutability": "nonpayable",
      "type": "function"
    },
    {
      "constant": false,
      "inputs": [
        {
          "name": "user",
          "type": "address"
        },
        {
          "name": "exchange",
          "type": "address"
        },
        {
          "name": "symbol",
          "type": "bytes32"
        }
      ],
      "name": "emitExchangeCreated",
      "outputs": [],
      "payable": false,
      "stateMutability": "nonpayable",
      "type": "function"
    },
    {
      "constant": false,
      "inputs": [],
      "name": "claimContractOwnership",
      "outputs": [
        {
          "name": "",
          "type": "bool"
        }
      ],
      "payable": false,
      "stateMutability": "nonpayable",
      "type": "function"
    },
    {
      "constant": false,
      "inputs": [],
      "name": "removeExchange",
      "outputs": [
        {
          "name": "errorCode",
          "type": "uint256"
        }
      ],
      "payable": false,
      "stateMutability": "nonpayable",
      "type": "function"
    },
    {
      "constant": true,
      "inputs": [
        {
          "name": "_identifier",
          "type": "bytes32"
        }
      ],
      "name": "lookupManager",
      "outputs": [
        {
          "name": "manager",
          "type": "address"
        }
      ],
      "payable": false,
      "stateMutability": "view",
      "type": "function"
    },
    {
      "constant": true,
      "inputs": [],
      "name": "contractsManager",
      "outputs": [
        {
          "name": "",
          "type": "address"
        }
      ],
      "payable": false,
      "stateMutability": "view",
      "type": "function"
    },
    {
      "constant": false,
      "inputs": [
        {
          "name": "_to",
          "type": "address"
        }
      ],
      "name": "changeContractOwnership",
      "outputs": [
        {
          "name": "",
          "type": "bool"
        }
      ],
      "payable": false,
      "stateMutability": "nonpayable",
      "type": "function"
    },
    {
      "constant": true,
      "inputs": [
        {
          "name": "_exchange",
          "type": "address"
        }
      ],
      "name": "isExchangeExists",
      "outputs": [
        {
          "name": "",
          "type": "bool"
        }
      ],
      "payable": false,
      "stateMutability": "view",
      "type": "function"
    },
    {
      "constant": true,
      "inputs": [],
      "name": "pendingContractOwner",
      "outputs": [
        {
          "name": "",
          "type": "address"
        }
      ],
      "payable": false,
      "stateMutability": "view",
      "type": "function"
    },
    {
      "constant": true,
      "inputs": [],
      "name": "getExchangeFactory",
      "outputs": [
        {
          "name": "",
          "type": "address"
        }
      ],
      "payable": false,
      "stateMutability": "view",
      "type": "function"
    },
    {
      "constant": false,
      "inputs": [
        {
          "name": "_eventsHistory",
          "type": "address"
        }
      ],
      "name": "setEventsHistory",
      "outputs": [],
      "payable": false,
      "stateMutability": "nonpayable",
      "type": "function"
    },
    {
      "constant": false,
      "inputs": [
        {
          "name": "_fee",
          "type": "uint256"
        }
      ],
      "name": "setFee",
      "outputs": [
        {
          "name": "",
          "type": "uint256"
        }
      ],
      "payable": false,
      "stateMutability": "nonpayable",
      "type": "function"
    },
    {
      "constant": false,
      "inputs": [
        {
          "name": "_contractsManager",
          "type": "address"
        }
      ],
      "name": "setContractsManager",
      "outputs": [],
      "payable": false,
      "stateMutability": "nonpayable",
      "type": "function"
    },
    {
      "constant": true,
      "inputs": [
        {
          "name": "_owner",
          "type": "address"
        }
      ],
      "name": "getExchangesForOwner",
      "outputs": [
        {
          "name": "",
          "type": "address[]"
        }
      ],
      "payable": false,
      "stateMutability": "view",
      "type": "function"
    },
    {
      "constant": true,
      "inputs": [
        {
          "name": "_exchanges",
          "type": "address[]"
        }
      ],
      "name": "getExchangeData",
      "outputs": [
        {
          "name": "symbols",
          "type": "bytes32[]"
        },
        {
          "name": "buyPrices",
          "type": "uint256[]"
        },
        {
          "name": "buyDecimals",
          "type": "uint256[]"
        },
        {
          "name": "sellPrices",
          "type": "uint256[]"
        },
        {
          "name": "sellDecimals",
          "type": "uint256[]"
        },
        {
          "name": "assetBalances",
          "type": "uint256[]"
        },
        {
          "name": "ethBalances",
          "type": "uint256[]"
        }
      ],
      "payable": false,
      "stateMutability": "view",
      "type": "function"
    },
    {
      "constant": false,
      "inputs": [],
      "name": "destroy",
      "outputs": [],
      "payable": false,
      "stateMutability": "nonpayable",
      "type": "function"
    },
    {
      "constant": true,
      "inputs": [],
      "name": "getExchangesCount",
      "outputs": [
        {
          "name": "",
          "type": "uint256"
        }
      ],
      "payable": false,
      "stateMutability": "view",
      "type": "function"
    },
    {
      "constant": false,
      "inputs": [
        {
          "name": "user",
          "type": "address"
        },
        {
          "name": "exchange",
          "type": "address"
        },
        {
          "name": "symbol",
          "type": "bytes32"
        }
      ],
      "name": "emitExchangeAdded",
      "outputs": [],
      "payable": false,
      "stateMutability": "nonpayable",
      "type": "function"
    },
    {
      "constant": false,
      "inputs": [
        {
          "name": "_to",
          "type": "address"
        }
      ],
      "name": "transferContractOwnership",
      "outputs": [
        {
          "name": "",
          "type": "bool"
        }
      ],
      "payable": false,
      "stateMutability": "nonpayable",
      "type": "function"
    },
    {
      "constant": true,
      "inputs": [
        {
          "name": "_fromIdx",
          "type": "uint256"
        },
        {
          "name": "_length",
          "type": "uint256"
        }
      ],
      "name": "getExchanges",
      "outputs": [
        {
          "name": "result",
          "type": "address[]"
        }
      ],
      "payable": false,
      "stateMutability": "view",
      "type": "function"
    },
    {
      "constant": true,
      "inputs": [],
      "name": "contractOwner",
      "outputs": [
        {
          "name": "",
          "type": "address"
        }
      ],
      "payable": false,
      "stateMutability": "view",
      "type": "function"
    },
    {
      "constant": true,
      "inputs": [],
      "name": "getFee",
      "outputs": [
        {
          "name": "",
          "type": "uint256"
        }
      ],
      "payable": false,
      "stateMutability": "view",
      "type": "function"
    },
    {
      "constant": false,
      "inputs": [
        {
          "name": "_exchangeFactory",
          "type": "address"
        }
      ],
      "name": "setExchangeFactory",
      "outputs": [
        {
          "name": "",
          "type": "uint256"
        }
      ],
      "payable": false,
      "stateMutability": "nonpayable",
      "type": "function"
    },
    {
      "constant": false,
      "inputs": [
        {
          "name": "tokens",
          "type": "address[]"
        },
        {
          "name": "_to",
          "type": "address"
        }
      ],
      "name": "withdrawnTokens",
      "outputs": [
        {
          "name": "",
          "type": "uint256"
        }
      ],
      "payable": false,
      "stateMutability": "nonpayable",
      "type": "function"
    },
    {
      "constant": false,
      "inputs": [
        {
          "name": "errorCode",
          "type": "uint256"
        }
      ],
      "name": "emitError",
      "outputs": [],
      "payable": false,
      "stateMutability": "nonpayable",
      "type": "function"
    },
    {
      "constant": true,
      "inputs": [
        {
          "name": "_owner",
          "type": "address"
        }
      ],
      "name": "getExchangesForOwnerCount",
      "outputs": [
        {
          "name": "",
          "type": "uint256"
        }
      ],
      "payable": false,
      "stateMutability": "view",
      "type": "function"
    },
    {
      "constant": false,
      "inputs": [
        {
          "name": "_contractsManager",
          "type": "address"
        },
        {
          "name": "_exchangeFactory",
          "type": "address"
        }
      ],
      "name": "init",
      "outputs": [
        {
          "name": "",
          "type": "uint256"
        }
      ],
      "payable": false,
      "stateMutability": "nonpayable",
      "type": "function"
    },
    {
      "constant": true,
      "inputs": [
        {
          "name": "key",
          "type": "address"
        }
      ],
      "name": "isAuthorized",
      "outputs": [
        {
          "name": "",
          "type": "bool"
        }
      ],
      "payable": false,
      "stateMutability": "view",
      "type": "function"
    },
    {
      "constant": true,
      "inputs": [],
      "name": "getEventsHistory",
      "outputs": [
        {
          "name": "",
          "type": "address"
        }
      ],
      "payable": false,
      "stateMutability": "view",
      "type": "function"
    },
    {
      "inputs": [
        {
          "name": "_store",
          "type": "address"
        },
        {
          "name": "_crate",
          "type": "bytes32"
        }
      ],
      "payable": false,
      "stateMutability": "nonpayable",
      "type": "constructor"
    },
    {
      "anonymous": false,
      "inputs": [
        {
          "indexed": true,
          "name": "self",
          "type": "address"
        },
        {
          "indexed": true,
          "name": "user",
          "type": "address"
        },
        {
          "indexed": false,
          "name": "exchange",
          "type": "address"
        },
        {
          "indexed": false,
          "name": "symbol",
          "type": "bytes32"
        }
      ],
      "name": "ExchangeCreated",
      "type": "event"
    },
    {
      "anonymous": false,
      "inputs": [
        {
          "indexed": true,
          "name": "self",
          "type": "address"
        },
        {
          "indexed": true,
          "name": "user",
          "type": "address"
        },
        {
          "indexed": false,
          "name": "exchange",
          "type": "address"
        },
        {
          "indexed": false,
          "name": "symbol",
          "type": "bytes32"
        }
      ],
      "name": "ExchangeAdded",
      "type": "event"
    },
    {
      "anonymous": false,
      "inputs": [
        {
          "indexed": true,
          "name": "self",
          "type": "address"
        },
        {
          "indexed": false,
          "name": "exchange",
          "type": "address"
        },
        {
          "indexed": false,
          "name": "symbol",
          "type": "bytes32"
        }
      ],
      "name": "ExchangeRemoved",
      "type": "event"
    },
    {
      "anonymous": false,
      "inputs": [
        {
          "indexed": true,
          "name": "self",
          "type": "address"
        },
        {
          "indexed": false,
          "name": "errorCode",
          "type": "uint256"
        }
      ],
      "name": "Error",
      "type": "event"
    }
  ],
  "bytecode": "0x606060405234156200001057600080fd5b60405160408062002df083398101604052808051919060200180519150829050818181818162000051600083836401000000006200294f6200017f82021704565b505060028054600160a060020a03338116600160a060020a03199283161790925560058054309093169290911691909117905550620000c69250600791507f65785f6d5f65786368616e676573000000000000000000000000000000000000905064010000000062002975620001a582021704565b62000101600a7f65785f6d5f6f776e65727300000000000000000000000000000000000000000064010000000062002a42620002b482021704565b6200013c60067f65785f6d5f65786368616e6765466163746f727900000000000000000000000064010000000062002a4c620002ce82021704565b62000177600d7f65785f6d5f66656500000000000000000000000000000000000000000000000064010000000062002a4c620002ce82021704565b505062000320565b8254600160a060020a031916600160a060020a0392909216919091178255600190910155565b620001fc82826040519081527f636f756e7400000000000000000000000000000000000000000000000000000060208201526025016040518091039020620002ce6401000000000262002a4c176401000000009004565b6200025682600101826040519081527f696e64657865730000000000000000000000000000000000000000000000000060208201526027016040518091039020620002ce6401000000000262002a4c176401000000009004565b620002b082600201826040519081527f76616c756573000000000000000000000000000000000000000000000000000060208201526026016040518091039020620002ce6401000000000262002a4c176401000000009004565b5050565b620002b0828264010000000062002a74620002ee82021704565b8154620002ea908264010000000062002a7e6200030882021704565b9055565b620002b0828264010000000062002975620001a582021704565b8115158062000315575080155b15620002b057600080fd5b612ac080620003306000396000f3006060604052600436106101665763ffffffff60e060020a6000350416630c629c27811461016b57806314178fbd1461018f57806338aef6ec146101d45780634592cd1d146101fc5780634ea3b642146102235780634fe590121461023657806353253d3114610268578063557f4bc91461027b57806358f090071461029a5780635aa77d3c146102b95780635ddcdc67146102cc5780636521afd7146102df57806369fe0e2d146102fe57806371d3b5731461031457806372ffb5431461033357806379f4289a146103a557806383197ef0146105b5578063a64f51d3146105c8578063a82ca7e6146105db578063a843c51f14610603578063c1f8ab5a14610622578063ce606ee01461063b578063ced72f871461064e578063d12ebeaa14610661578063d8f9659b14610680578063df26ca08146106da578063e425c907146106f0578063f09a40161461070f578063fe9fbb8014610734578063fff10aba14610753575b600080fd5b341561017657600080fd5b61018d600160a060020a0360043516602435610766565b005b341561019a57600080fd5b6101c2600435602435604435606435608435600160a060020a0360a4351660c43515156107bf565b60405190815260200160405180910390f35b34156101df57600080fd5b61018d600160a060020a03600435811690602435166044356107eb565b341561020757600080fd5b61020f61084f565b604051901515815260200160405180910390f35b341561022e57600080fd5b6101c261089c565b341561024157600080fd5b61024c6004356109d7565b604051600160a060020a03909116815260200160405180910390f35b341561027357600080fd5b61024c610a60565b341561028657600080fd5b61020f600160a060020a0360043516610a6f565b34156102a557600080fd5b61020f600160a060020a0360043516610ac6565b34156102c457600080fd5b61024c610ae9565b34156102d757600080fd5b61024c610af8565b34156102ea57600080fd5b61018d600160a060020a0360043516610b10565b341561030957600080fd5b6101c2600435610b46565b341561031f57600080fd5b61018d600160a060020a0360043516610b7f565b341561033e57600080fd5b610352600160a060020a0360043516610bb6565b60405160208082528190810183818151815260200191508051906020019060200280838360005b83811015610391578082015183820152602001610379565b505050509050019250505060405180910390f35b34156103b057600080fd5b6103c36004803560248101910135610bda565b604051808060200180602001806020018060200180602001806020018060200188810388528f818151815260200191508051906020019060200280838360005b8381101561041b578082015183820152602001610403565b5050505090500188810387528e818151815260200191508051906020019060200280838360005b8381101561045a578082015183820152602001610442565b5050505090500188810386528d818151815260200191508051906020019060200280838360005b83811015610499578082015183820152602001610481565b5050505090500188810385528c818151815260200191508051906020019060200280838360005b838110156104d85780820151838201526020016104c0565b5050505090500188810384528b818151815260200191508051906020019060200280838360005b838110156105175780820151838201526020016104ff565b5050505090500188810383528a818151815260200191508051906020019060200280838360005b8381101561055657808201518382015260200161053e565b50505050905001888103825289818151815260200191508051906020019060200280838360005b8381101561059557808201518382015260200161057d565b505050509050019e50505050505050505050505050505060405180910390f35b34156105c057600080fd5b61018d610fab565b34156105d357600080fd5b6101c2611041565b34156105e657600080fd5b61018d600160a060020a0360043581169060243516604435611054565b341561060e57600080fd5b61020f600160a060020a03600435166110b8565b341561062d57600080fd5b610352600435602435611131565b341561064657600080fd5b61024c6111b0565b341561065957600080fd5b6101c26111bf565b341561066c57600080fd5b6101c2600160a060020a03600435166111d2565b341561068b57600080fd5b6101c2600460248135818101908301358060208181020160405190810160405280939291908181526020018383602002808284375094965050509235600160a060020a03169250611214915050565b34156106e557600080fd5b61018d600435611365565b34156106fb57600080fd5b6101c2600160a060020a03600435166113ac565b341561071a57600080fd5b6101c2600160a060020a03600435811690602435166113c9565b341561073f57600080fd5b61020f600160a060020a036004351661142c565b341561075e57600080fd5b61024c6114d2565b61076e6114e1565b600160a060020a03167fff447254e8eb62495d621adbd4899248f7483073cd7c918298b2b7afe6bdf6228383604051600160a060020a03909216825260208201526040908101905180910390a25050565b60006107df888888888888886020604051908101604052600081526114e5565b98975050505050505050565b82600160a060020a03166107fd6114e1565b600160a060020a03167f6a84675961d2628de8cb5e74e0aa70bec82c75c587b2eeb89377315ff8cab8cf8484604051600160a060020a03909216825260208201526040908101905180910390a3505050565b60035460009033600160a060020a0390811691161461087057506000610899565b506003805460028054600160a060020a0319908116600160a060020a0384161790915516905560015b90565b6000806108a833610ac6565b15156108c0576108b9611b58611d23565b91506109d3565b6108dc60006007600160a060020a03331663ffffffff611d8c16565b6108e46114d2565b600160a060020a031663ab0da5a93360405160e060020a63ffffffff8416028152600160a060020a039091166004820152602401600060405180830381600087803b151561093157600080fd5b6102c65a03f1151561094257600080fd5b50505033600160a060020a031663ce606ee06000604051602001526040518163ffffffff1660e060020a028152600401602060405180830381600087803b151561098b57600080fd5b6102c65a03f1151561099c57600080fd5b505050604051805191506109c590506000600a600160a060020a0384163363ffffffff611da616565b6109ce33611dc1565b600191505b5090565b600454600090600160a060020a031663bc65792783836040516020015260405160e060020a63ffffffff84160281526004810191909152602401602060405180830381600087803b1515610a2a57600080fd5b6102c65a03f11515610a3b57600080fd5b5050506040518051915050600160a060020a0381161515610a5b57600080fd5b919050565b600454600160a060020a031681565b60025460009033600160a060020a0390811691161415610a5b57600160a060020a0382161515610aa157506000610a5b565b5060038054600160a060020a038316600160a060020a03199091161790556001919050565b6000610ae3816007600160a060020a03851663ffffffff611ea116565b92915050565b600354600160a060020a031681565b6000610b0b81600663ffffffff611ec016565b905090565b60025433600160a060020a0390811691161415610b435760058054600160a060020a031916600160a060020a0383161790555b50565b6000610b513361142c565b15610a5b576127108210610b6457600080fd5b610b776000600d8463ffffffff611f1f16565b506001919050565b60025433600160a060020a0390811691161415610b435760048054600160a060020a038316600160a060020a031990911617905550565b610bbe61293d565b610ae36000600a600160a060020a03851663ffffffff611f9816565b610be261293d565b610bea61293d565b610bf261293d565b610bfa61293d565b610c0261293d565b610c0a61293d565b610c1261293d565b60008089604051805910610c235750595b9080825280602002602001820160405250985089604051805910610c445750595b9080825280602002602001820160405250975089604051805910610c655750595b9080825280602002602001820160405250965089604051805910610c865750595b9080825280602002602001820160405250955089604051805910610ca75750595b9080825280602002602001820160405250945089604051805910610cc85750595b9080825280602002602001820160405250935089604051805910610ce95750595b90808252806020026020018201604052509250600091505b89821015610f9d57610d2d8b8b84818110610d1857fe5b90506020020135600160a060020a0316610ac6565b15610f92578a8a83818110610d3e57fe5b90506020020135600160a060020a03169050610db981600160a060020a03166338d52e0f6000604051602001526040518163ffffffff1660e060020a028152600401602060405180830381600087803b1515610d9957600080fd5b6102c65a03f11515610daa57600080fd5b50505060405180519050611fb3565b898381518110610dc557fe5b60209081029091010152600160a060020a03811663018a25e86000604051604001526040518163ffffffff1660e060020a0281526004016040805180830381600087803b1515610e1457600080fd5b6102c65a03f11515610e2557600080fd5b50505060405180519060200180519050898481518110610e4157fe5b906020019060200201898581518110610e5657fe5b6020908102909101019190915252600160a060020a0381166343d32e9c6000604051604001526040518163ffffffff1660e060020a0281526004016040805180830381600087803b1515610ea957600080fd5b6102c65a03f11515610eba57600080fd5b50505060405180519060200180519050878481518110610ed657fe5b906020019060200201878581518110610eeb57fe5b6020908102909101019190915252600160a060020a03811663c66f24556000604051602001526040518163ffffffff1660e060020a028152600401602060405180830381600087803b1515610f3f57600080fd5b6102c65a03f11515610f5057600080fd5b50505060405180519050848381518110610f6657fe5b60209081029091010152600160a060020a03811631838381518110610f8757fe5b602090810290910101525b600190910190610d01565b505092959891949750929550565b60025433600160a060020a039081169116141561103f57600454600160a060020a031663c375c2ef3060006040516020015260405160e060020a63ffffffff8416028152600160a060020a039091166004820152602401602060405180830381600087803b151561101b57600080fd5b6102c65a03f1151561102c57600080fd5b505050604051805190505061103f612060565b565b6000610b0b81600763ffffffff61208316565b82600160a060020a03166110666114e1565b600160a060020a03167fb929f1a44cd381443aa85ced960a716b8d3325963a64da27f16621f61baa23f38484604051600160a060020a03909216825260208201526040908101905180910390a3505050565b60025460009033600160a060020a0390811691161415610a5b57600160a060020a03821615156110ea57506000610a5b565b600354600160a060020a03161561110c5760038054600160a060020a03191690555b5060028054600160a060020a038316600160a060020a03199091161790556001919050565b61113961293d565b6000826040518059106111495750595b90808252806020026020018201604052509150600090505b828110156111a95761117e6000600783870163ffffffff6120a016565b82828151811061118a57fe5b600160a060020a03909216602092830290910190910152600101611161565b5092915050565b600254600160a060020a031681565b6000610b0b81600d63ffffffff6120b716565b60025460009033600160a060020a0390811691161415610a5b57600160a060020a038216151561120157600080fd5b610b77600060068463ffffffff61211616565b60025460009081908190819033600160a060020a039081169116141561135c57600092505b85518310156113575785838151811061124e57fe5b90602001906020020151915081600160a060020a03166370a082313060006040516020015260405160e060020a63ffffffff8416028152600160a060020a039091166004820152602401602060405180830381600087803b15156112b157600080fd5b6102c65a03f115156112c257600080fd5b5050506040518051915050801561134c5781600160a060020a031663a9059cbb868360006040516020015260405160e060020a63ffffffff8516028152600160a060020a0390921660048301526024820152604401602060405180830381600087803b151561133057600080fd5b6102c65a03f1151561134157600080fd5b505050604051805150505b600190920191611239565b600193505b50505092915050565b61136d6114e1565b600160a060020a03167f9cf38cf2dbf9139f5c32639950507b10775fbbe0421f3e168bc2d1bb1ae3208c8260405190815260200160405180910390a250565b6000610ae381600a600160a060020a03851663ffffffff61217f16565b60025460009033600160a060020a0390811691161415610ae35761140d837f45786368616e67654d616e61676572000000000000000000000000000000000061218c565b506001611419836111d2565b1461142357600080fd5b50600192915050565b6000806114587f557365724d616e616765720000000000000000000000000000000000000000006109d7565b905080600160a060020a0316632aa09e5a8460006040516020015260405160e060020a63ffffffff8416028152600160a060020a039091166004820152602401602060405180830381600087803b15156114b157600080fd5b6102c65a03f115156114c257600080fd5b5050506040518051949350505050565b600554600160a060020a031690565b3390565b600080600080846114f461237d565b600160a060020a031663709586c13330600035600160e060020a03191660006040516020015260405160e060020a63ffffffff8616028152600160a060020a039384166004820152919092166024820152600160e060020a03199091166044820152606401602060405180830381600087803b151561157257600080fd5b6102c65a03f1151561158357600080fd5b50505060405180519050151561159f576155f060005260206000f35b6115a76123a8565b600160a060020a031663fa7fdeb78e60006040516020015260405160e060020a63ffffffff84160281526004810191909152602401602060405180830381600087803b15156115f557600080fd5b6102c65a03f1151561160657600080fd5b5050506040518051945050600160a060020a03841615156116335761162c611b5a611d23565b9450611c57565b61165c7f52657761726473000000000000000000000000000000000000000000000000006109d7565b9250600160a060020a03831615156116795761162c611b59611d23565b611681610af8565b600160a060020a0316637d3af3a46000604051602001526040518163ffffffff1660e060020a028152600401602060405180830381600087803b15156116c657600080fd5b6102c65a03f115156116d757600080fd5b5050506040518051925050600160a060020a0382166302927d206116f96114d2565b60006040516020015260405160e060020a63ffffffff8416028152600160a060020a039091166004820152602401602060405180830381600087803b151561174057600080fd5b6102c65a03f1151561175157600080fd5b50505060405180519050506117646114d2565b600160a060020a031663b6a5d7de8360006040516020015260405160e060020a63ffffffff8416028152600160a060020a039091166004820152602401602060405180830381600087803b15156117ba57600080fd5b6102c65a03f115156117cb57600080fd5b5050506040518051905015156117e057600080fd5b600454600160a060020a03808416916346639dba911686866118006111bf565b60006040516020015260405160e060020a63ffffffff8716028152600160a060020a0394851660048201529284166024840152921660448201526064810191909152608401602060405180830381600087803b151561185e57600080fd5b6102c65a03f1151561186f57600080fd5b5050506040518051505060008c118015611889575060008a115b1561191b57600182600160a060020a031663d8e868548e8e8e8e60006040516020015260405160e060020a63ffffffff87160281526004810194909452602484019290925260448301526064820152608401602060405180830381600087803b15156118f457600080fd5b6102c65a03f1151561190557600080fd5b5050506040518051905014151561191b57600080fd5b600160a060020a038816156119aa57600182600160a060020a03166394f3ed318a60006040516020015260405160e060020a63ffffffff8416028152600160a060020a039091166004820152602401602060405180830381600087803b151561198357600080fd5b6102c65a03f1151561199457600080fd5b505050604051805190501415156119aa57600080fd5b600182600160a060020a031663acec338a8960006040516020015260405160e060020a63ffffffff84160281529015156004820152602401602060405180830381600087803b15156119fb57600080fd5b6102c65a03f11515611a0c57600080fd5b50505060405180519050141515611a2257600080fd5b81600160a060020a031663a843c51f3360006040516020015260405160e060020a63ffffffff8416028152600160a060020a039091166004820152602401602060405180830381600087803b1515611a7957600080fd5b6102c65a03f11515611a8a57600080fd5b505050604051805190501515611a9f57600080fd5b611abb60006007600160a060020a03851663ffffffff6123d316565b611ad86000600a600160a060020a0333168563ffffffff6123e816565b33600160a060020a031682600160a060020a031663ce606ee06000604051602001526040518163ffffffff1660e060020a028152600401602060405180830381600087803b1515611b2857600080fd5b6102c65a03f11515611b3957600080fd5b50505060405180519050600160a060020a0316141515611b5557fe5b82600160a060020a031682600160a060020a0316639ec5a8946000604051602001526040518163ffffffff1660e060020a028152600401602060405180830381600087803b1515611ba557600080fd5b6102c65a03f11515611bb657600080fd5b50505060405180519050600160a060020a0316141515611bd257fe5b611bda6111bf565b82600160a060020a0316637fd6f15c6000604051602001526040518163ffffffff1660e060020a028152600401602060405180830381600087803b1515611c2057600080fd5b6102c65a03f11515611c3157600080fd5b50505060405180519050141515611c4457fe5b611c4f33838f6123fd565b600180875294505b60018151148015611d0957506001611c6d61237d565b600160a060020a03166384509ca83330600035600160e060020a03191660006040516020015260405160e060020a63ffffffff8616028152600160a060020a039384166004820152919092166024820152600160e060020a03199091166044820152606401602060405180830381600087803b1515611ceb57600080fd5b6102c65a03f11515611cfc57600080fd5b5050506040518051905014155b15611d1357600080fd5b5050505098975050505050505050565b6000611d2d6114d2565b600160a060020a031663df26ca088360405160e060020a63ffffffff84160281526004810191909152602401600060405180830381600087803b1515611d7257600080fd5b6102c65a03f11515611d8357600080fd5b50929392505050565b611da1838360ea60020a621cd95d0284612465565b505050565b611dbb848484600160a060020a038516612513565b50505050565b600081600160a060020a03166338d52e0f6000604051602001526040518163ffffffff1660e060020a028152600401602060405180830381600087803b1515611e0957600080fd5b6102c65a03f11515611e1a57600080fd5b505050604051805190509050611e2e6114d2565b600160a060020a0316630c629c2783611e4684611fb3565b60405160e060020a63ffffffff8516028152600160a060020a0390921660048301526024820152604401600060405180830381600087803b1515611e8957600080fd5b6102c65a03f11515611e9a57600080fd5b5050505050565b6000611eb8848460ea60020a621cd95d028561251f565b949350505050565b815460018301548254600092600160a060020a03169163d3a3968691846040516020015260405160e060020a63ffffffff851602815260048101929092526024820152604401602060405180830381600087803b15156114b157600080fd5b825460018401548354600160a060020a03909216916353e7168b91908460405160e060020a63ffffffff8616028152600481019390935260248301919091526044820152606401600060405180830381600087803b1515611f7f57600080fd5b6102c65a03f11515611f9057600080fd5b505050505050565b611fa061293d565b611eb8611fae85858561253b565b61254e565b600080611fbe6123a8565b600160a060020a0316637abccac984600060405160e0015260405160e060020a63ffffffff8416028152600160a060020a03909116600482015260240160e060405180830381600087803b151561201457600080fd5b6102c65a03f1151561202557600080fd5b505050604051805190602001805190602001805190602001805190602001805190602001805190602001805150939998505050505050505050565b60025433600160a060020a039081169116141561103f5733600160a060020a0316ff5b6000612099838360ea60020a621cd95d026125d1565b9392505050565b6000611eb8848460ea60020a621cd95d02856125de565b815460018301548254600092600160a060020a0316916353aa3f5e91846040516020015260405160e060020a63ffffffff851602815260048101929092526024820152604401602060405180830381600087803b15156114b157600080fd5b825460018401548354600160a060020a03909216916379a7cfee91908460405160e060020a63ffffffff861602815260048101939093526024830191909152600160a060020a03166044820152606401600060405180830381600087803b1515611f7f57600080fd5b6000611eb88484846125fb565b60025460009081908190819033600160a060020a039081169116146121b057600080fd5b600160a060020a03861615156121c557600080fd5b600454600160a060020a03161580159350806121ef5750600454600160a060020a03878116911614155b156122105760048054600160a060020a031916600160a060020a0388161790555b600454600160a060020a031691508163bc65792760006040516020015260405160e060020a63ffffffff83160281527f4d756c74694576656e7473486973746f727900000000000000000000000000006004820152602401602060405180830381600087803b151561228157600080fd5b6102c65a03f1151561229257600080fd5b5050506040518051915050600160a060020a038116158015906122c35750600554600160a060020a03828116911614155b156122e45760058054600160a060020a031916600160a060020a0383161790555b841561236b5781600160a060020a031663b7c46cd5308760006040516020015260405160e060020a63ffffffff8516028152600160a060020a0390921660048301526024820152604401602060405180830381600087803b151561234757600080fd5b6102c65a03f1151561235857600080fd5b5050506040518051600114905061236b57fe5b82156113575760069695505050505050565b6000610b0b7f466561747572654665654d616e616765720000000000000000000000000000006109d7565b6000610b0b7f45524332304d616e6167657200000000000000000000000000000000000000006109d7565b611da1838360ea60020a621cd95d0284612608565b611dbb848484600160a060020a03851661265c565b6124056114d2565b600160a060020a03166338aef6ec84848460405160e060020a63ffffffff8616028152600160a060020a0393841660048201529190921660248201526044810191909152606401600060405180830381600087803b1515611f7f57600080fd5b60008060006124768787878761251f565b15156124815761250a565b61248c8787876125d1565b925061249d87600288018786612668565b91506124ae87876001018787612668565b9050828110156124d8576124c8876001880187858561268d565b6124d8876002880187848661268d565b6124e987600188018787600061268d565b6124fa87600288018786600061268d565b61250a87878760001987016126b1565b50505050505050565b611dbb84848484612465565b600061253085856001018585612668565b151595945050505050565b61254361293d565b611eb884848461273a565b61255661293d565b61255e61293d565b6000835160405180591061256f5750595b90808252806020026020018201604052509150600090505b83518110156111a95783818151811061259c57fe5b906020019060200201518282815181106125b257fe5b600160a060020a03909216602092830290910190910152600101612587565b6000611eb88484846127b3565b60006125f285600286018560018601612668565b95945050505050565b6000611eb88484846125d1565b60006126168585858561251f565b1561262057611e9a565b61262b8585856125d1565b6001019050612640856002860185848661268d565b612650856001860185858561268d565b611e9a858585846126b1565b611dbb84848484612608565b60006125f285858585604051918252602082015260409081019051809103902061284d565b611e9a858585856040519182526020820152604090810190518091039020846128c5565b835460018501548454600160a060020a03909216916353e7168b91908560405191825260208201526040908101905180910390208460405160e060020a63ffffffff8616028152600481019390935260248301919091526044820152606401600060405180830381600087803b151561272957600080fd5b6102c65a03f1151561250a57600080fd5b61274261293d565b6000806127508686866125d1565b9150816040518059106127605750595b90808252806020026020018201604052509250600090505b818110156127aa5761278c868686846125de565b83828151811061279857fe5b60209081029091010152600101612778565b50509392505050565b825460018401548354600092600160a060020a0316916353aa3f5e9185604051918252602082015260409081019051809103902060006040516020015260405160e060020a63ffffffff851602815260048101929092526024820152604401602060405180830381600087803b151561282b57600080fd5b6102c65a03f1151561283c57600080fd5b505050604051805195945050505050565b825460018401548354600092600160a060020a0316916337d9d7fc9185604051918252602082015260409081019051809103902060006040516020015260405160e060020a63ffffffff851602815260048101929092526024820152604401602060405180830381600087803b151561282b57600080fd5b835460018501548454600160a060020a039092169163a14ff85791908560405191825260208201526040908101905180910390208460405160e060020a63ffffffff8616028152600481019390935260248301919091526044820152606401600060405180830381600087803b151561272957600080fd5b60206040519081016040526000815290565b8254600160a060020a031916600160a060020a0392909216919091178255600190910155565b6129b682826040519081527f636f756e7400000000000000000000000000000000000000000000000000000060208201526025016040518091039020612a4c565b6129fa82600101826040519081527f696e64657865730000000000000000000000000000000000000000000000000060208201526027016040518091039020612a4c565b612a3e82600201826040519081527f76616c756573000000000000000000000000000000000000000000000000000060208201526026016040518091039020612a4c565b5050565b612a3e8282612a74565b8154612a589082612a7e565b9055565b8154612a589082612a7e565b8154612a589082612a7e565b612a3e8282612975565b81151580612a8a575080155b15612a3e57600080fd00a165627a7a723058203ea87fdb64c15fefa95de414b83e71baf396ff6c22bcb5c27fcb5f9be75565c40029",
  "source": "pragma solidity ^0.4.11;\n\nimport \"../core/common/BaseManager.sol\";\nimport \"../core/erc20/ERC20Manager.sol\";\nimport \"../core/event/MultiEventsHistory.sol\";\nimport {ERC20Interface as Asset} from \"../core/erc20/ERC20Interface.sol\";\n\nimport \"./Exchange.sol\";\nimport \"./ExchangeManagerEmitter.sol\";\nimport \"./ExchangeFactory.sol\";\nimport \"../timeholder/FeatureFeeAdapter.sol\";\n\n/// @title ExchangeManager\n///\n/// @notice ExchangeManager contract is the exchange registry which holds info\n/// about created exchanges and provides some util methods for managing it.\n///\n/// The entry point for creating new exchanges.\n///\n/// CBE users are permited to manage fee value against which an exchange will calculate fee.\ncontract ExchangeManager is FeatureFeeAdapter, ExchangeManagerEmitter, BaseManager {\n    uint constant ERROR_EXCHANGE_STOCK_NOT_FOUND = 7000;\n    uint constant ERROR_EXCHANGE_STOCK_INTERNAL = 7001;\n    uint constant ERROR_EXCHANGE_STOCK_UNKNOWN_SYMBOL = 7002;\n\n    StorageInterface.Address exchangeFactory;\n    StorageInterface.Set exchanges; // (exchange [])\n    StorageInterface.AddressesSetMapping owners; // (owner => exchange [])\n    StorageInterface.UInt fee;\n\n    modifier onlyExchangeContractOwner(address _exchange) {\n        if (Exchange(_exchange).contractOwner() == msg.sender) {\n            _;\n        }\n    }\n\n    /// Contructor\n    function ExchangeManager(Storage _store, bytes32 _crate) BaseManager(_store, _crate) public {\n        exchanges.init(\"ex_m_exchanges\");\n        owners.init(\"ex_m_owners\");\n        exchangeFactory.init(\"ex_m_exchangeFactory\");\n        fee.init(\"ex_m_fee\");\n    }\n\n    /// Initialises an exchange with the given params\n    function init(address _contractsManager, address _exchangeFactory)\n    public\n    onlyContractOwner\n    returns (uint)\n    {\n        BaseManager.init(_contractsManager, \"ExchangeManager\");\n        if (setExchangeFactory(_exchangeFactory) != OK) {\n            revert();\n        }\n        return OK;\n    }\n\n    /// Sets fee value against which the exchange should calculate fee.\n    ///\n    /// Note, only CBE members are allowed to set this value.\n    function setFee(uint _fee)\n    public\n    onlyAuthorized\n    returns (uint)\n    {\n        require(_fee < 10000);\n        store.set(fee, _fee);\n        return OK;\n    }\n\n    /// Sets the Exchange Factory address\n    function setExchangeFactory(address _exchangeFactory)\n    public\n    onlyContractOwner\n    returns (uint)\n    {\n        require(_exchangeFactory != 0x0);\n        store.set(exchangeFactory, _exchangeFactory);\n        return OK;\n    }\n\n    /// Creates a new exchange with the given params.\n    function createExchange(\n        bytes32 _symbol,\n        uint _buyPrice,\n        uint _buyDecimals,\n        uint _sellPrice,\n        uint _sellDecimals,\n        address _authorizedManager,\n        bool _isActive)\n    public\n    returns (uint errorCode) {\n        return _createExchange(_symbol, _buyPrice, _buyDecimals, _sellPrice, _sellDecimals, _authorizedManager, _isActive, [uint(0)]);\n    }\n\n    function _createExchange(\n        bytes32 _symbol,\n        uint _buyPrice,\n        uint _buyDecimals,\n        uint _sellPrice,\n        uint _sellDecimals,\n        address _authorizedManager,\n        bool _isActive,\n        uint[1] memory _result)\n    private\n    featured(_result)\n    returns (uint errorCode)\n    {\n        address token = lookupERC20Manager().getTokenAddressBySymbol(_symbol);\n        if (token == 0x0) {\n            return _emitError(ERROR_EXCHANGE_STOCK_UNKNOWN_SYMBOL);\n        }\n\n        address rewards = lookupManager(\"Rewards\");\n        if (rewards == 0x0) {\n            return _emitError(ERROR_EXCHANGE_STOCK_INTERNAL);\n        }\n\n        Exchange exchange = Exchange(getExchangeFactory().createExchange());\n\n        exchange.setupEventsHistory(getEventsHistory());\n        if (!MultiEventsHistory(getEventsHistory()).authorize(exchange)) {\n            revert();\n        }\n\n        exchange.init(contractsManager, token, rewards, getFee());\n\n        if (_buyPrice > 0 && _sellPrice > 0) {\n            if (exchange.setPrices(_buyPrice, _buyDecimals, _sellPrice, _sellDecimals) != OK) {\n                revert();\n            }\n        }\n\n        if (_authorizedManager != 0x0) {\n            if (exchange.grantAuthorized(_authorizedManager) != OK) {\n                revert();\n            }\n        }\n\n        if (exchange.setActive(_isActive) != OK) {\n            revert();\n        }\n\n        if (!exchange.transferContractOwnership(msg.sender)) {\n            revert();\n        }\n\n        store.add(exchanges, bytes32(address(exchange)));\n        store.add(owners, bytes32(msg.sender), address(exchange));\n\n        assert(exchange.contractOwner() == msg.sender);\n        assert(exchange.rewards() == rewards);\n        assert(exchange.feePercent() == getFee());\n\n        _emitExchangeCreated(msg.sender, exchange, _symbol);\n\n        _result[0] = OK;\n        return OK;\n    }\n\n    /// Deletes msg.sender from the exchange list.\n    /// Note: Designed to be called only by exchange contract.\n    function removeExchange()\n    public\n    returns (uint errorCode)\n    {\n        if (!isExchangeExists(msg.sender)) {\n            return _emitError(ERROR_EXCHANGE_STOCK_NOT_FOUND);\n        }\n\n        store.remove(exchanges, bytes32(msg.sender));\n        MultiEventsHistory(getEventsHistory()).reject(msg.sender);\n\n        address owner = Exchange(msg.sender).contractOwner();\n        store.remove(owners, bytes32(owner), msg.sender);\n\n        _emitExchangeRemoved(msg.sender);\n        return OK;\n    }\n\n    /// Tells whether the given _exchange is in registry.\n    function isExchangeExists(address _exchange) public view returns (bool) {\n        return store.includes(exchanges, bytes32(_exchange));\n    }\n\n    /// Returns the paginated array of excnhages, starting from _fromIdx and len _length.\n    function getExchanges(uint _fromIdx, uint _length) public view returns (address [] result) {\n        result = new address [] (_length);\n        for (uint idx = 0; idx < _length; idx++) {\n            result[idx] = address(store.get(exchanges, idx + _fromIdx));\n        }\n    }\n\n    /// Returns the count of the registered exchanges.\n    function getExchangesCount() public view returns (uint) {\n        return store.count(exchanges);\n    }\n\n    /// Returns the exchanges which belongs to the given _owner\n    function getExchangesForOwner(address _owner) public view returns (address []) {\n        return store.get(owners, bytes32(_owner));\n    }\n\n    /// Returns the number of exchanges which belongs to the given _owner\n    function getExchangesForOwnerCount(address _owner) public view returns (uint) {\n        return store.count(owners, bytes32(_owner));\n    }\n\n    /// The fee value against which the exchange should calculate fee.\n    function getFee() public view returns (uint) {\n        return store.get(fee);\n    }\n\n    /// Util method which returns agregated data for given _exchanges.\n    function getExchangeData(address [] _exchanges)\n    external\n    view\n    returns (bytes32 [] symbols,\n             uint [] buyPrices,\n             uint [] buyDecimals,\n             uint [] sellPrices,\n             uint [] sellDecimals,\n             uint [] assetBalances,\n             uint [] ethBalances)\n    {\n        symbols = new bytes32 [] (_exchanges.length);\n        buyPrices = new uint [] (_exchanges.length);\n        buyDecimals = new uint [] (_exchanges.length);\n        sellPrices = new uint [] (_exchanges.length);\n        sellDecimals = new uint [] (_exchanges.length);\n        assetBalances = new uint [] (_exchanges.length);\n        ethBalances = new uint [] (_exchanges.length);\n\n        for (uint idx = 0; idx < _exchanges.length; idx++) {\n            if (isExchangeExists(_exchanges[idx])) {\n                Exchange exchange = Exchange(_exchanges[idx]);\n\n                symbols[idx] = getSymbol(address(exchange.asset()));\n                (buyPrices[idx], buyDecimals[idx]) = exchange.getBuyPrice();\n                (sellPrices[idx], sellDecimals[idx]) = exchange.getSellPrice();\n                assetBalances[idx] = exchange.assetBalance();\n                ethBalances[idx] = exchange.balance;\n            }\n        }\n    }\n\n    /// Returns the Exchange Factory address\n    function getExchangeFactory() public view returns (ExchangeFactory) {\n        return ExchangeFactory(store.get(exchangeFactory));\n    }\n\n    /// Retturns ERC20Manager address\n    function lookupERC20Manager() internal view returns (ERC20Manager) {\n        return ERC20Manager(lookupManager(\"ERC20Manager\"));\n    }\n\n    /// Returns the symbol of the given token\n    function getSymbol(address _token) internal view returns (bytes32) {\n        var (,,symbol,,,,) = lookupERC20Manager().getTokenMetaData(_token);\n        return symbol;\n    }\n\n    /* Events History util methods */\n\n    function _emitExchangeRemoved(address _exchange) internal {\n        Asset asset = Exchange(_exchange).asset();\n        ExchangeManagerEmitter(getEventsHistory())\n            .emitExchangeRemoved(_exchange, getSymbol(address(asset)));\n    }\n\n    function _emitExchangeAdded(address _user, address _exchange) internal {\n        Asset asset = Exchange(_exchange).asset();\n        ExchangeManagerEmitter(getEventsHistory())\n            .emitExchangeAdded(_user, _exchange, getSymbol(address(asset)));\n    }\n\n    function _emitExchangeCreated(\n        address _user,\n        address _exchange,\n        bytes32 _symbol)\n    internal\n    {\n        ExchangeManagerEmitter(getEventsHistory())\n            .emitExchangeCreated(_user, _exchange, _symbol);\n    }\n\n    function _emitError(uint error) internal returns (uint) {\n        ExchangeManagerEmitter(getEventsHistory()).emitError(error);\n        return error;\n    }\n}\n",
  "sourcePath": "/Users/ahiatsevich/Development/chronobank/SmartContracts/contracts/exchange/ExchangeManager.sol",
  "compiler": {
    "name": "solc",
    "version": "0.4.18+commit.9cf6e910.Emscripten.clang"
  },
  "schemaVersion": "1.0.1",
  "updatedAt": "2017-12-11T15:29:19.497Z"
}