{
  "contractName": "ExchangeManager",
  "abi": [
    {
      "constant": false,
      "inputs": [
        {
          "name": "exchange",
          "type": "address"
        },
        {
          "name": "symbol",
          "type": "bytes32"
        }
      ],
      "name": "emitExchangeRemoved",
      "outputs": [],
      "payable": false,
      "stateMutability": "nonpayable",
      "type": "function"
    },
    {
      "constant": false,
      "inputs": [
        {
          "name": "user",
          "type": "address"
        },
        {
          "name": "exchange",
          "type": "address"
        },
        {
          "name": "symbol",
          "type": "bytes32"
        }
      ],
      "name": "emitExchangeCreated",
      "outputs": [],
      "payable": false,
      "stateMutability": "nonpayable",
      "type": "function"
    },
    {
      "constant": false,
      "inputs": [],
      "name": "claimContractOwnership",
      "outputs": [
        {
          "name": "",
          "type": "bool"
        }
      ],
      "payable": false,
      "stateMutability": "nonpayable",
      "type": "function"
    },
    {
      "constant": false,
      "inputs": [
        {
          "name": "_symbol",
          "type": "bytes32"
        },
        {
          "name": "_buyPrice",
          "type": "uint256"
        },
        {
          "name": "_sellPrice",
          "type": "uint256"
        },
        {
          "name": "_authorizedManager",
          "type": "address"
        },
        {
          "name": "_isActive",
          "type": "bool"
        }
      ],
      "name": "createExchange",
      "outputs": [
        {
          "name": "errorCode",
          "type": "uint256"
        }
      ],
      "payable": false,
      "stateMutability": "nonpayable",
      "type": "function"
    },
    {
      "constant": false,
      "inputs": [],
      "name": "removeExchange",
      "outputs": [
        {
          "name": "errorCode",
          "type": "uint256"
        }
      ],
      "payable": false,
      "stateMutability": "nonpayable",
      "type": "function"
    },
    {
      "constant": true,
      "inputs": [
        {
          "name": "_identifier",
          "type": "bytes32"
        }
      ],
      "name": "lookupManager",
      "outputs": [
        {
          "name": "manager",
          "type": "address"
        }
      ],
      "payable": false,
      "stateMutability": "view",
      "type": "function"
    },
    {
      "constant": true,
      "inputs": [],
      "name": "contractsManager",
      "outputs": [
        {
          "name": "",
          "type": "address"
        }
      ],
      "payable": false,
      "stateMutability": "view",
      "type": "function"
    },
    {
      "constant": false,
      "inputs": [
        {
          "name": "_to",
          "type": "address"
        }
      ],
      "name": "changeContractOwnership",
      "outputs": [
        {
          "name": "",
          "type": "bool"
        }
      ],
      "payable": false,
      "stateMutability": "nonpayable",
      "type": "function"
    },
    {
      "constant": true,
      "inputs": [
        {
          "name": "_exchange",
          "type": "address"
        }
      ],
      "name": "isExchangeExists",
      "outputs": [
        {
          "name": "",
          "type": "bool"
        }
      ],
      "payable": false,
      "stateMutability": "view",
      "type": "function"
    },
    {
      "constant": true,
      "inputs": [],
      "name": "pendingContractOwner",
      "outputs": [
        {
          "name": "",
          "type": "address"
        }
      ],
      "payable": false,
      "stateMutability": "view",
      "type": "function"
    },
    {
      "constant": true,
      "inputs": [],
      "name": "getExchangeFactory",
      "outputs": [
        {
          "name": "",
          "type": "address"
        }
      ],
      "payable": false,
      "stateMutability": "view",
      "type": "function"
    },
    {
      "constant": false,
      "inputs": [
        {
          "name": "_eventsHistory",
          "type": "address"
        }
      ],
      "name": "setEventsHistory",
      "outputs": [],
      "payable": false,
      "stateMutability": "nonpayable",
      "type": "function"
    },
    {
      "constant": false,
      "inputs": [
        {
          "name": "_fee",
          "type": "uint256"
        }
      ],
      "name": "setFee",
      "outputs": [
        {
          "name": "",
          "type": "uint256"
        }
      ],
      "payable": false,
      "stateMutability": "nonpayable",
      "type": "function"
    },
    {
      "constant": false,
      "inputs": [
        {
          "name": "_contractsManager",
          "type": "address"
        }
      ],
      "name": "setContractsManager",
      "outputs": [],
      "payable": false,
      "stateMutability": "nonpayable",
      "type": "function"
    },
    {
      "constant": true,
      "inputs": [
        {
          "name": "_owner",
          "type": "address"
        }
      ],
      "name": "getExchangesForOwner",
      "outputs": [
        {
          "name": "",
          "type": "address[]"
        }
      ],
      "payable": false,
      "stateMutability": "view",
      "type": "function"
    },
    {
      "constant": true,
      "inputs": [
        {
          "name": "_exchanges",
          "type": "address[]"
        }
      ],
      "name": "getExchangeData",
      "outputs": [
        {
          "name": "symbols",
          "type": "bytes32[]"
        },
        {
          "name": "buyPrices",
          "type": "uint256[]"
        },
        {
          "name": "sellPrices",
          "type": "uint256[]"
        },
        {
          "name": "assetBalances",
          "type": "uint256[]"
        },
        {
          "name": "ethBalances",
          "type": "uint256[]"
        }
      ],
      "payable": false,
      "stateMutability": "view",
      "type": "function"
    },
    {
      "constant": false,
      "inputs": [],
      "name": "destroy",
      "outputs": [],
      "payable": false,
      "stateMutability": "nonpayable",
      "type": "function"
    },
    {
      "constant": true,
      "inputs": [],
      "name": "getExchangesCount",
      "outputs": [
        {
          "name": "",
          "type": "uint256"
        }
      ],
      "payable": false,
      "stateMutability": "view",
      "type": "function"
    },
    {
      "constant": false,
      "inputs": [
        {
          "name": "user",
          "type": "address"
        },
        {
          "name": "exchange",
          "type": "address"
        },
        {
          "name": "symbol",
          "type": "bytes32"
        }
      ],
      "name": "emitExchangeAdded",
      "outputs": [],
      "payable": false,
      "stateMutability": "nonpayable",
      "type": "function"
    },
    {
      "constant": false,
      "inputs": [
        {
          "name": "_to",
          "type": "address"
        }
      ],
      "name": "transferContractOwnership",
      "outputs": [
        {
          "name": "",
          "type": "bool"
        }
      ],
      "payable": false,
      "stateMutability": "nonpayable",
      "type": "function"
    },
    {
      "constant": true,
      "inputs": [
        {
          "name": "_fromIdx",
          "type": "uint256"
        },
        {
          "name": "_length",
          "type": "uint256"
        }
      ],
      "name": "getExchanges",
      "outputs": [
        {
          "name": "result",
          "type": "address[]"
        }
      ],
      "payable": false,
      "stateMutability": "view",
      "type": "function"
    },
    {
      "constant": true,
      "inputs": [],
      "name": "contractOwner",
      "outputs": [
        {
          "name": "",
          "type": "address"
        }
      ],
      "payable": false,
      "stateMutability": "view",
      "type": "function"
    },
    {
      "constant": true,
      "inputs": [],
      "name": "getFee",
      "outputs": [
        {
          "name": "",
          "type": "uint256"
        }
      ],
      "payable": false,
      "stateMutability": "view",
      "type": "function"
    },
    {
      "constant": false,
      "inputs": [
        {
          "name": "_exchangeFactory",
          "type": "address"
        }
      ],
      "name": "setExchangeFactory",
      "outputs": [
        {
          "name": "",
          "type": "uint256"
        }
      ],
      "payable": false,
      "stateMutability": "nonpayable",
      "type": "function"
    },
    {
      "constant": false,
      "inputs": [
        {
          "name": "tokens",
          "type": "address[]"
        },
        {
          "name": "_to",
          "type": "address"
        }
      ],
      "name": "withdrawnTokens",
      "outputs": [
        {
          "name": "",
          "type": "uint256"
        }
      ],
      "payable": false,
      "stateMutability": "nonpayable",
      "type": "function"
    },
    {
      "constant": false,
      "inputs": [
        {
          "name": "errorCode",
          "type": "uint256"
        }
      ],
      "name": "emitError",
      "outputs": [],
      "payable": false,
      "stateMutability": "nonpayable",
      "type": "function"
    },
    {
      "constant": true,
      "inputs": [
        {
          "name": "_owner",
          "type": "address"
        }
      ],
      "name": "getExchangesForOwnerCount",
      "outputs": [
        {
          "name": "",
          "type": "uint256"
        }
      ],
      "payable": false,
      "stateMutability": "view",
      "type": "function"
    },
    {
      "constant": false,
      "inputs": [
        {
          "name": "_contractsManager",
          "type": "address"
        },
        {
          "name": "_exchangeFactory",
          "type": "address"
        }
      ],
      "name": "init",
      "outputs": [
        {
          "name": "",
          "type": "uint256"
        }
      ],
      "payable": false,
      "stateMutability": "nonpayable",
      "type": "function"
    },
    {
      "constant": true,
      "inputs": [
        {
          "name": "key",
          "type": "address"
        }
      ],
      "name": "isAuthorized",
      "outputs": [
        {
          "name": "",
          "type": "bool"
        }
      ],
      "payable": false,
      "stateMutability": "view",
      "type": "function"
    },
    {
      "constant": true,
      "inputs": [],
      "name": "getEventsHistory",
      "outputs": [
        {
          "name": "",
          "type": "address"
        }
      ],
      "payable": false,
      "stateMutability": "view",
      "type": "function"
    },
    {
      "inputs": [
        {
          "name": "_store",
          "type": "address"
        },
        {
          "name": "_crate",
          "type": "bytes32"
        }
      ],
      "payable": false,
      "stateMutability": "nonpayable",
      "type": "constructor"
    },
    {
      "anonymous": false,
      "inputs": [
        {
          "indexed": true,
          "name": "self",
          "type": "address"
        },
        {
          "indexed": true,
          "name": "user",
          "type": "address"
        },
        {
          "indexed": false,
          "name": "exchange",
          "type": "address"
        },
        {
          "indexed": false,
          "name": "symbol",
          "type": "bytes32"
        }
      ],
      "name": "ExchangeCreated",
      "type": "event"
    },
    {
      "anonymous": false,
      "inputs": [
        {
          "indexed": true,
          "name": "self",
          "type": "address"
        },
        {
          "indexed": true,
          "name": "user",
          "type": "address"
        },
        {
          "indexed": false,
          "name": "exchange",
          "type": "address"
        },
        {
          "indexed": false,
          "name": "symbol",
          "type": "bytes32"
        }
      ],
      "name": "ExchangeAdded",
      "type": "event"
    },
    {
      "anonymous": false,
      "inputs": [
        {
          "indexed": true,
          "name": "self",
          "type": "address"
        },
        {
          "indexed": false,
          "name": "exchange",
          "type": "address"
        },
        {
          "indexed": false,
          "name": "symbol",
          "type": "bytes32"
        }
      ],
      "name": "ExchangeRemoved",
      "type": "event"
    },
    {
      "anonymous": false,
      "inputs": [
        {
          "indexed": true,
          "name": "self",
          "type": "address"
        },
        {
          "indexed": false,
          "name": "errorCode",
          "type": "uint256"
        }
      ],
      "name": "Error",
      "type": "event"
    }
  ],
  "bytecode": "0x606060405234156200001057600080fd5b60405160408062002c428339810160405280805191906020018051915082905081818181816200005160008383640100000000620027a16200017f82021704565b505060028054600160a060020a03338116600160a060020a03199283161790925560058054309093169290911691909117905550620000c69250600791507f65785f6d5f65786368616e6765730000000000000000000000000000000000009050640100000000620027c7620001a582021704565b62000101600a7f65785f6d5f6f776e65727300000000000000000000000000000000000000000064010000000062002894620002b482021704565b6200013c60067f65785f6d5f65786368616e6765466163746f72790000000000000000000000006401000000006200289e620002ce82021704565b62000177600d7f65785f6d5f6665650000000000000000000000000000000000000000000000006401000000006200289e620002ce82021704565b505062000320565b8254600160a060020a031916600160a060020a0392909216919091178255600190910155565b620001fc82826040519081527f636f756e7400000000000000000000000000000000000000000000000000000060208201526025016040518091039020620002ce640100000000026200289e176401000000009004565b6200025682600101826040519081527f696e64657865730000000000000000000000000000000000000000000000000060208201526027016040518091039020620002ce640100000000026200289e176401000000009004565b620002b082600201826040519081527f76616c756573000000000000000000000000000000000000000000000000000060208201526026016040518091039020620002ce640100000000026200289e176401000000009004565b5050565b620002b08282640100000000620028c6620002ee82021704565b8154620002ea9082640100000000620028d06200030882021704565b9055565b620002b08282640100000000620027c7620001a582021704565b8115158062000315575080155b15620002b057600080fd5b61291280620003306000396000f3006060604052600436106101665763ffffffff60e060020a6000350416630c629c27811461016b57806338aef6ec1461018f5780634592cd1d146101b757806346fa4335146101de5780634ea3b6421461021d5780634fe590121461023057806353253d3114610262578063557f4bc91461027557806358f09007146102945780635aa77d3c146102b35780635ddcdc67146102c65780636521afd7146102d957806369fe0e2d146102f857806371d3b5731461030e57806372ffb5431461032d57806379f4289a1461039f57806383197ef014610525578063a64f51d314610538578063a82ca7e61461054b578063a843c51f14610573578063c1f8ab5a14610592578063ce606ee0146105ab578063ced72f87146105be578063d12ebeaa146105d1578063d8f9659b146105f0578063df26ca081461064a578063e425c90714610660578063f09a40161461067f578063fe9fbb80146106a4578063fff10aba146106c3575b600080fd5b341561017657600080fd5b61018d600160a060020a03600435166024356106d6565b005b341561019a57600080fd5b61018d600160a060020a036004358116906024351660443561072f565b34156101c257600080fd5b6101ca610793565b604051901515815260200160405180910390f35b34156101e957600080fd5b61020b600435602435604435600160a060020a036064351660843515156107e0565b60405190815260200160405180910390f35b341561022857600080fd5b61020b610808565b341561023b57600080fd5b610246600435610943565b604051600160a060020a03909116815260200160405180910390f35b341561026d57600080fd5b6102466109cc565b341561028057600080fd5b6101ca600160a060020a03600435166109db565b341561029f57600080fd5b6101ca600160a060020a0360043516610a32565b34156102be57600080fd5b610246610a55565b34156102d157600080fd5b610246610a64565b34156102e457600080fd5b61018d600160a060020a0360043516610a7c565b341561030357600080fd5b61020b600435610ab2565b341561031957600080fd5b61018d600160a060020a0360043516610aeb565b341561033857600080fd5b61034c600160a060020a0360043516610b22565b60405160208082528190810183818151815260200191508051906020019060200280838360005b8381101561038b578082015183820152602001610373565b505050509050019250505060405180910390f35b34156103aa57600080fd5b6103bd6004803560248101910135610b46565b60405180806020018060200180602001806020018060200186810386528b818151815260200191508051906020019060200280838360005b8381101561040d5780820151838201526020016103f5565b5050505090500186810385528a818151815260200191508051906020019060200280838360005b8381101561044c578082015183820152602001610434565b50505050905001868103845289818151815260200191508051906020019060200280838360005b8381101561048b578082015183820152602001610473565b50505050905001868103835288818151815260200191508051906020019060200280838360005b838110156104ca5780820151838201526020016104b2565b50505050905001868103825287818151815260200191508051906020019060200280838360005b838110156105095780820151838201526020016104f1565b505050509050019a505050505050505050505060405180910390f35b341561053057600080fd5b61018d610e87565b341561054357600080fd5b61020b610f1d565b341561055657600080fd5b61018d600160a060020a0360043581169060243516604435610f30565b341561057e57600080fd5b6101ca600160a060020a0360043516610f94565b341561059d57600080fd5b61034c60043560243561100d565b34156105b657600080fd5b61024661108c565b34156105c957600080fd5b61020b61109b565b34156105dc57600080fd5b61020b600160a060020a03600435166110ae565b34156105fb57600080fd5b61020b600460248135818101908301358060208181020160405190810160405280939291908181526020018383602002808284375094965050509235600160a060020a031692506110f0915050565b341561065557600080fd5b61018d600435611241565b341561066b57600080fd5b61020b600160a060020a0360043516611288565b341561068a57600080fd5b61020b600160a060020a03600435811690602435166112a5565b34156106af57600080fd5b6101ca600160a060020a0360043516611308565b34156106ce57600080fd5b6102466113ae565b6106de6113bd565b600160a060020a03167fff447254e8eb62495d621adbd4899248f7483073cd7c918298b2b7afe6bdf6228383604051600160a060020a03909216825260208201526040908101905180910390a25050565b82600160a060020a03166107416113bd565b600160a060020a03167f6a84675961d2628de8cb5e74e0aa70bec82c75c587b2eeb89377315ff8cab8cf8484604051600160a060020a03909216825260208201526040908101905180910390a3505050565b60035460009033600160a060020a039081169116146107b4575060006107dd565b506003805460028054600160a060020a0319908116600160a060020a0384161790915516905560015b90565b60006107fe86868686866020604051908101604052600081526113c1565b9695505050505050565b60008061081433610a32565b151561082c57610825611b58611b75565b915061093f565b61084860006007600160a060020a03331663ffffffff611bde16565b6108506113ae565b600160a060020a031663ab0da5a93360405160e060020a63ffffffff8416028152600160a060020a039091166004820152602401600060405180830381600087803b151561089d57600080fd5b6102c65a03f115156108ae57600080fd5b50505033600160a060020a031663ce606ee06000604051602001526040518163ffffffff1660e060020a028152600401602060405180830381600087803b15156108f757600080fd5b6102c65a03f1151561090857600080fd5b5050506040518051915061093190506000600a600160a060020a0384163363ffffffff611bf816565b61093a33611c13565b600191505b5090565b600454600090600160a060020a031663bc65792783836040516020015260405160e060020a63ffffffff84160281526004810191909152602401602060405180830381600087803b151561099657600080fd5b6102c65a03f115156109a757600080fd5b5050506040518051915050600160a060020a03811615156109c757600080fd5b919050565b600454600160a060020a031681565b60025460009033600160a060020a03908116911614156109c757600160a060020a0382161515610a0d575060006109c7565b5060038054600160a060020a038316600160a060020a03199091161790556001919050565b6000610a4f816007600160a060020a03851663ffffffff611cf316565b92915050565b600354600160a060020a031681565b6000610a7781600663ffffffff611d1216565b905090565b60025433600160a060020a0390811691161415610aaf5760058054600160a060020a031916600160a060020a0383161790555b50565b6000610abd33611308565b156109c7576127108210610ad057600080fd5b610ae36000600d8463ffffffff611d7116565b506001919050565b60025433600160a060020a0390811691161415610aaf5760048054600160a060020a038316600160a060020a031990911617905550565b610b2a61278f565b610a4f6000600a600160a060020a03851663ffffffff611dea16565b610b4e61278f565b610b5661278f565b610b5e61278f565b610b6661278f565b610b6e61278f565b60008087604051805910610b7f5750595b9080825280602002602001820160405250965087604051805910610ba05750595b9080825280602002602001820160405250955087604051805910610bc15750595b9080825280602002602001820160405250945087604051805910610be25750595b9080825280602002602001820160405250935087604051805910610c035750595b90808252806020026020018201604052509250600091505b87821015610e7b57610c47898984818110610c3257fe5b90506020020135600160a060020a0316610a32565b15610e7057888883818110610c5857fe5b90506020020135600160a060020a03169050610cd381600160a060020a03166338d52e0f6000604051602001526040518163ffffffff1660e060020a028152600401602060405180830381600087803b1515610cb357600080fd5b6102c65a03f11515610cc457600080fd5b50505060405180519050611e05565b878381518110610cdf57fe5b60209081029091010152600160a060020a038116638620410b6000604051602001526040518163ffffffff1660e060020a028152600401602060405180830381600087803b1515610d2f57600080fd5b6102c65a03f11515610d4057600080fd5b50505060405180519050868381518110610d5657fe5b60209081029091010152600160a060020a038116634b7503346000604051602001526040518163ffffffff1660e060020a028152600401602060405180830381600087803b1515610da657600080fd5b6102c65a03f11515610db757600080fd5b50505060405180519050858381518110610dcd57fe5b60209081029091010152600160a060020a03811663c66f24556000604051602001526040518163ffffffff1660e060020a028152600401602060405180830381600087803b1515610e1d57600080fd5b6102c65a03f11515610e2e57600080fd5b50505060405180519050848381518110610e4457fe5b60209081029091010152600160a060020a03811631838381518110610e6557fe5b602090810290910101525b600190910190610c1b565b50509295509295909350565b60025433600160a060020a0390811691161415610f1b57600454600160a060020a031663c375c2ef3060006040516020015260405160e060020a63ffffffff8416028152600160a060020a039091166004820152602401602060405180830381600087803b1515610ef757600080fd5b6102c65a03f11515610f0857600080fd5b5050506040518051905050610f1b611eb2565b565b6000610a7781600763ffffffff611ed516565b82600160a060020a0316610f426113bd565b600160a060020a03167fb929f1a44cd381443aa85ced960a716b8d3325963a64da27f16621f61baa23f38484604051600160a060020a03909216825260208201526040908101905180910390a3505050565b60025460009033600160a060020a03908116911614156109c757600160a060020a0382161515610fc6575060006109c7565b600354600160a060020a031615610fe85760038054600160a060020a03191690555b5060028054600160a060020a038316600160a060020a03199091161790556001919050565b61101561278f565b6000826040518059106110255750595b90808252806020026020018201604052509150600090505b828110156110855761105a6000600783870163ffffffff611ef216565b82828151811061106657fe5b600160a060020a0390921660209283029091019091015260010161103d565b5092915050565b600254600160a060020a031681565b6000610a7781600d63ffffffff611f0916565b60025460009033600160a060020a03908116911614156109c757600160a060020a03821615156110dd57600080fd5b610ae3600060068463ffffffff611f6816565b60025460009081908190819033600160a060020a039081169116141561123857600092505b85518310156112335785838151811061112a57fe5b90602001906020020151915081600160a060020a03166370a082313060006040516020015260405160e060020a63ffffffff8416028152600160a060020a039091166004820152602401602060405180830381600087803b151561118d57600080fd5b6102c65a03f1151561119e57600080fd5b505050604051805191505080156112285781600160a060020a031663a9059cbb868360006040516020015260405160e060020a63ffffffff8516028152600160a060020a0390921660048301526024820152604401602060405180830381600087803b151561120c57600080fd5b6102c65a03f1151561121d57600080fd5b505050604051805150505b600190920191611115565b600193505b50505092915050565b6112496113bd565b600160a060020a03167f9cf38cf2dbf9139f5c32639950507b10775fbbe0421f3e168bc2d1bb1ae3208c8260405190815260200160405180910390a250565b6000610a4f81600a600160a060020a03851663ffffffff611fd116565b60025460009033600160a060020a0390811691161415610a4f576112e9837f45786368616e67654d616e616765720000000000000000000000000000000000611fde565b5060016112f5836110ae565b146112ff57600080fd5b50600192915050565b6000806113347f557365724d616e61676572000000000000000000000000000000000000000000610943565b905080600160a060020a0316632aa09e5a8460006040516020015260405160e060020a63ffffffff8416028152600160a060020a039091166004820152602401602060405180830381600087803b151561138d57600080fd5b6102c65a03f1151561139e57600080fd5b5050506040518051949350505050565b600554600160a060020a031690565b3390565b600080600080846113d06121cf565b600160a060020a031663709586c13330600035600160e060020a03191660006040516020015260405160e060020a63ffffffff8616028152600160a060020a039384166004820152919092166024820152600160e060020a03199091166044820152606401602060405180830381600087803b151561144e57600080fd5b6102c65a03f1151561145f57600080fd5b50505060405180519050151561147b576155f060005260206000f35b6114836121fa565b600160a060020a031663fa7fdeb78c60006040516020015260405160e060020a63ffffffff84160281526004810191909152602401602060405180830381600087803b15156114d157600080fd5b6102c65a03f115156114e257600080fd5b5050506040518051945050600160a060020a038416151561150f57611508611b5a611b75565b9450611aab565b6115387f5265776172647300000000000000000000000000000000000000000000000000610943565b9250600160a060020a038316151561155557611508611b59611b75565b61155d610a64565b600160a060020a0316637d3af3a46000604051602001526040518163ffffffff1660e060020a028152600401602060405180830381600087803b15156115a257600080fd5b6102c65a03f115156115b357600080fd5b5050506040518051905091506115c76113ae565b600160a060020a031663b6a5d7de8360006040516020015260405160e060020a63ffffffff8416028152600160a060020a039091166004820152602401602060405180830381600087803b151561161d57600080fd5b6102c65a03f1151561162e57600080fd5b50505060405180519050151561164357600080fd5b600454600160a060020a03808416916346639dba9116868661166361109b565b60006040516020015260405160e060020a63ffffffff8716028152600160a060020a0394851660048201529284166024840152921660448201526064810191909152608401602060405180830381600087803b15156116c157600080fd5b6102c65a03f115156116d257600080fd5b5050506040518051505060008a1180156116ec5750600089115b1561176f57600182600160a060020a03166305fefda78c8c60006040516020015260405160e060020a63ffffffff851602815260048101929092526024820152604401602060405180830381600087803b151561174857600080fd5b6102c65a03f1151561175957600080fd5b5050506040518051905014151561176f57600080fd5b600160a060020a038816156117fe57600182600160a060020a03166394f3ed318a60006040516020015260405160e060020a63ffffffff8416028152600160a060020a039091166004820152602401602060405180830381600087803b15156117d757600080fd5b6102c65a03f115156117e857600080fd5b505050604051805190501415156117fe57600080fd5b600182600160a060020a031663acec338a8960006040516020015260405160e060020a63ffffffff84160281529015156004820152602401602060405180830381600087803b151561184f57600080fd5b6102c65a03f1151561186057600080fd5b5050506040518051905014151561187657600080fd5b81600160a060020a031663a843c51f3360006040516020015260405160e060020a63ffffffff8416028152600160a060020a039091166004820152602401602060405180830381600087803b15156118cd57600080fd5b6102c65a03f115156118de57600080fd5b5050506040518051905015156118f357600080fd5b61190f60006007600160a060020a03851663ffffffff61222516565b61192c6000600a600160a060020a0333168563ffffffff61223a16565b33600160a060020a031682600160a060020a031663ce606ee06000604051602001526040518163ffffffff1660e060020a028152600401602060405180830381600087803b151561197c57600080fd5b6102c65a03f1151561198d57600080fd5b50505060405180519050600160a060020a03161415156119a957fe5b82600160a060020a031682600160a060020a0316639ec5a8946000604051602001526040518163ffffffff1660e060020a028152600401602060405180830381600087803b15156119f957600080fd5b6102c65a03f11515611a0a57600080fd5b50505060405180519050600160a060020a0316141515611a2657fe5b611a2e61109b565b82600160a060020a0316637fd6f15c6000604051602001526040518163ffffffff1660e060020a028152600401602060405180830381600087803b1515611a7457600080fd5b6102c65a03f11515611a8557600080fd5b50505060405180519050141515611a9857fe5b611aa333838d61224f565b600180875294505b60018151148015611b5d57506001611ac16121cf565b600160a060020a03166384509ca83330600035600160e060020a03191660006040516020015260405160e060020a63ffffffff8616028152600160a060020a039384166004820152919092166024820152600160e060020a03199091166044820152606401602060405180830381600087803b1515611b3f57600080fd5b6102c65a03f11515611b5057600080fd5b5050506040518051905014155b15611b6757600080fd5b505050509695505050505050565b6000611b7f6113ae565b600160a060020a031663df26ca088360405160e060020a63ffffffff84160281526004810191909152602401600060405180830381600087803b1515611bc457600080fd5b6102c65a03f11515611bd557600080fd5b50929392505050565b611bf3838360ea60020a621cd95d02846122b7565b505050565b611c0d848484600160a060020a038516612365565b50505050565b600081600160a060020a03166338d52e0f6000604051602001526040518163ffffffff1660e060020a028152600401602060405180830381600087803b1515611c5b57600080fd5b6102c65a03f11515611c6c57600080fd5b505050604051805190509050611c806113ae565b600160a060020a0316630c629c2783611c9884611e05565b60405160e060020a63ffffffff8516028152600160a060020a0390921660048301526024820152604401600060405180830381600087803b1515611cdb57600080fd5b6102c65a03f11515611cec57600080fd5b5050505050565b6000611d0a848460ea60020a621cd95d0285612371565b949350505050565b815460018301548254600092600160a060020a03169163d3a3968691846040516020015260405160e060020a63ffffffff851602815260048101929092526024820152604401602060405180830381600087803b151561138d57600080fd5b825460018401548354600160a060020a03909216916353e7168b91908460405160e060020a63ffffffff8616028152600481019390935260248301919091526044820152606401600060405180830381600087803b1515611dd157600080fd5b6102c65a03f11515611de257600080fd5b505050505050565b611df261278f565b611d0a611e0085858561238d565b6123a0565b600080611e106121fa565b600160a060020a0316637abccac984600060405160e0015260405160e060020a63ffffffff8416028152600160a060020a03909116600482015260240160e060405180830381600087803b1515611e6657600080fd5b6102c65a03f11515611e7757600080fd5b505050604051805190602001805190602001805190602001805190602001805190602001805190602001805150939998505050505050505050565b60025433600160a060020a0390811691161415610f1b5733600160a060020a0316ff5b6000611eeb838360ea60020a621cd95d02612423565b9392505050565b6000611d0a848460ea60020a621cd95d0285612430565b815460018301548254600092600160a060020a0316916353aa3f5e91846040516020015260405160e060020a63ffffffff851602815260048101929092526024820152604401602060405180830381600087803b151561138d57600080fd5b825460018401548354600160a060020a03909216916379a7cfee91908460405160e060020a63ffffffff861602815260048101939093526024830191909152600160a060020a03166044820152606401600060405180830381600087803b1515611dd157600080fd5b6000611d0a84848461244d565b60025460009081908190819033600160a060020a0390811691161461200257600080fd5b600160a060020a038616151561201757600080fd5b600454600160a060020a03161580159350806120415750600454600160a060020a03878116911614155b156120625760048054600160a060020a031916600160a060020a0388161790555b600454600160a060020a031691508163bc65792760006040516020015260405160e060020a63ffffffff83160281527f4d756c74694576656e7473486973746f727900000000000000000000000000006004820152602401602060405180830381600087803b15156120d357600080fd5b6102c65a03f115156120e457600080fd5b5050506040518051915050600160a060020a038116158015906121155750600554600160a060020a03828116911614155b156121365760058054600160a060020a031916600160a060020a0383161790555b84156121bd5781600160a060020a031663b7c46cd5308760006040516020015260405160e060020a63ffffffff8516028152600160a060020a0390921660048301526024820152604401602060405180830381600087803b151561219957600080fd5b6102c65a03f115156121aa57600080fd5b505050604051805160011490506121bd57fe5b82156112335760069695505050505050565b6000610a777f466561747572654665654d616e61676572000000000000000000000000000000610943565b6000610a777f45524332304d616e616765720000000000000000000000000000000000000000610943565b611bf3838360ea60020a621cd95d028461245a565b611c0d848484600160a060020a0385166124ae565b6122576113ae565b600160a060020a03166338aef6ec84848460405160e060020a63ffffffff8616028152600160a060020a0393841660048201529190921660248201526044810191909152606401600060405180830381600087803b1515611dd157600080fd5b60008060006122c887878787612371565b15156122d35761235c565b6122de878787612423565b92506122ef876002880187866124ba565b9150612300878760010187876124ba565b90508281101561232a5761231a87600188018785856124df565b61232a87600288018784866124df565b61233b8760018801878760006124df565b61234c8760028801878660006124df565b61235c8787876000198701612503565b50505050505050565b611c0d848484846122b7565b6000612382858560010185856124ba565b151595945050505050565b61239561278f565b611d0a84848461258c565b6123a861278f565b6123b061278f565b600083516040518059106123c15750595b90808252806020026020018201604052509150600090505b8351811015611085578381815181106123ee57fe5b9060200190602002015182828151811061240457fe5b600160a060020a039092166020928302909101909101526001016123d9565b6000611d0a848484612605565b6000612444856002860185600186016124ba565b95945050505050565b6000611d0a848484612423565b600061246885858585612371565b1561247257611cec565b61247d858585612423565b600101905061249285600286018584866124df565b6124a285600186018585856124df565b611cec85858584612503565b611c0d8484848461245a565b600061244485858585604051918252602082015260409081019051809103902061269f565b611cec85858585604051918252602082015260409081019051809103902084612717565b835460018501548454600160a060020a03909216916353e7168b91908560405191825260208201526040908101905180910390208460405160e060020a63ffffffff8616028152600481019390935260248301919091526044820152606401600060405180830381600087803b151561257b57600080fd5b6102c65a03f1151561235c57600080fd5b61259461278f565b6000806125a2868686612423565b9150816040518059106125b25750595b90808252806020026020018201604052509250600090505b818110156125fc576125de86868684612430565b8382815181106125ea57fe5b602090810290910101526001016125ca565b50509392505050565b825460018401548354600092600160a060020a0316916353aa3f5e9185604051918252602082015260409081019051809103902060006040516020015260405160e060020a63ffffffff851602815260048101929092526024820152604401602060405180830381600087803b151561267d57600080fd5b6102c65a03f1151561268e57600080fd5b505050604051805195945050505050565b825460018401548354600092600160a060020a0316916337d9d7fc9185604051918252602082015260409081019051809103902060006040516020015260405160e060020a63ffffffff851602815260048101929092526024820152604401602060405180830381600087803b151561267d57600080fd5b835460018501548454600160a060020a039092169163a14ff85791908560405191825260208201526040908101905180910390208460405160e060020a63ffffffff8616028152600481019390935260248301919091526044820152606401600060405180830381600087803b151561257b57600080fd5b60206040519081016040526000815290565b8254600160a060020a031916600160a060020a0392909216919091178255600190910155565b61280882826040519081527f636f756e740000000000000000000000000000000000000000000000000000006020820152602501604051809103902061289e565b61284c82600101826040519081527f696e6465786573000000000000000000000000000000000000000000000000006020820152602701604051809103902061289e565b61289082600201826040519081527f76616c75657300000000000000000000000000000000000000000000000000006020820152602601604051809103902061289e565b5050565b61289082826128c6565b81546128aa90826128d0565b9055565b81546128aa90826128d0565b81546128aa90826128d0565b61289082826127c7565b811515806128dc575080155b1561289057600080fd00a165627a7a72305820d2dda7936182d4facb79ee65701b6263cac0724b3f69ad27f92a15f65edd73ba0029",
  "source": "pragma solidity ^0.4.11;\n\nimport \"../core/common/BaseManager.sol\";\nimport \"../core/erc20/ERC20Manager.sol\";\nimport \"../core/event/MultiEventsHistory.sol\";\nimport {ERC20Interface as Asset} from \"../core/erc20/ERC20Interface.sol\";\n\nimport \"./Exchange.sol\";\nimport \"./ExchangeManagerEmitter.sol\";\nimport \"./ExchangeFactory.sol\";\nimport \"../timeholder/FeatureFeeAdapter.sol\";\n\n/// @title ExchangeManager\n///\n/// @notice ExchangeManager contract is the exchange registry which holds info\n/// about created exchanges and provides some util methods for managing it.\n///\n/// The entry point for creating new exchanges.\n///\n/// CBE users are permited to manage fee value against which an exchange will calculate fee.\ncontract ExchangeManager is FeatureFeeAdapter, ExchangeManagerEmitter, BaseManager {\n    uint constant ERROR_EXCHANGE_STOCK_NOT_FOUND = 7000;\n    uint constant ERROR_EXCHANGE_STOCK_INTERNAL = 7001;\n    uint constant ERROR_EXCHANGE_STOCK_UNKNOWN_SYMBOL = 7002;\n\n    StorageInterface.Address exchangeFactory;\n    StorageInterface.Set exchanges; // (exchange [])\n    StorageInterface.AddressesSetMapping owners; // (owner => exchange [])\n    StorageInterface.UInt fee;\n\n    modifier onlyExchangeContractOwner(address _exchange) {\n        if (Exchange(_exchange).contractOwner() == msg.sender) {\n            _;\n        }\n    }\n\n    /// Contructor\n    function ExchangeManager(Storage _store, bytes32 _crate) BaseManager(_store, _crate) public {\n        exchanges.init(\"ex_m_exchanges\");\n        owners.init(\"ex_m_owners\");\n        exchangeFactory.init(\"ex_m_exchangeFactory\");\n        fee.init(\"ex_m_fee\");\n    }\n\n    /// Initialises an exchange with the given params\n    function init(address _contractsManager, address _exchangeFactory)\n    public\n    onlyContractOwner\n    returns (uint)\n    {\n        BaseManager.init(_contractsManager, \"ExchangeManager\");\n        if (setExchangeFactory(_exchangeFactory) != OK) {\n            revert();\n        }\n        return OK;\n    }\n\n    /// Sets fee value against which the exchange should calculate fee.\n    ///\n    /// Note, only CBE members are allowed to set this value.\n    function setFee(uint _fee)\n    public\n    onlyAuthorized\n    returns (uint)\n    {\n        require(_fee < 10000);\n        store.set(fee, _fee);\n        return OK;\n    }\n\n    /// Sets the Exchange Factory address\n    function setExchangeFactory(address _exchangeFactory)\n    public\n    onlyContractOwner\n    returns (uint)\n    {\n        require(_exchangeFactory != 0x0);\n        store.set(exchangeFactory, _exchangeFactory);\n        return OK;\n    }\n\n    /// Creates a new exchange with the given params.\n    function createExchange(\n        bytes32 _symbol,\n        uint _buyPrice,\n        uint _sellPrice,\n        address _authorizedManager,\n        bool _isActive)\n    public\n    returns (uint errorCode) {\n        return _createExchange(_symbol, _buyPrice, _sellPrice, _authorizedManager, _isActive, [uint(0)]);\n    }\n\n    function _createExchange(\n        bytes32 _symbol,\n        uint _buyPrice,\n        uint _sellPrice,\n        address _authorizedManager,\n        bool _isActive,\n        uint[1] memory _result)\n    private\n    featured(_result)\n    returns (uint errorCode)\n    {\n        address token = lookupERC20Manager().getTokenAddressBySymbol(_symbol);\n        if (token == 0x0) {\n            return _emitError(ERROR_EXCHANGE_STOCK_UNKNOWN_SYMBOL);\n        }\n\n        address rewards = lookupManager(\"Rewards\");\n        if (rewards == 0x0) {\n            return _emitError(ERROR_EXCHANGE_STOCK_INTERNAL);\n        }\n\n        Exchange exchange = Exchange(getExchangeFactory().createExchange());\n\n        if (!MultiEventsHistory(getEventsHistory()).authorize(exchange)) {\n            revert();\n        }\n\n        exchange.init(contractsManager, token, rewards, getFee());\n\n        if (_buyPrice > 0 && _sellPrice > 0) {\n            if (exchange.setPrices(_buyPrice, _sellPrice) != OK) {\n                revert();\n            }\n        }\n\n        if (_authorizedManager != 0x0) {\n            if (exchange.grantAuthorized(_authorizedManager) != OK) {\n                revert();\n            }\n        }\n\n        if (exchange.setActive(_isActive) != OK) {\n            revert();\n        }\n\n        if (!exchange.transferContractOwnership(msg.sender)) {\n            revert();\n        }\n\n        store.add(exchanges, bytes32(address(exchange)));\n        store.add(owners, bytes32(msg.sender), address(exchange));\n\n        assert(exchange.contractOwner() == msg.sender);\n        assert(exchange.rewards() == rewards);\n        assert(exchange.feePercent() == getFee());\n\n        _emitExchangeCreated(msg.sender, exchange, _symbol);\n\n        _result[0] = OK;\n        return OK;\n    }\n\n    /// Deletes msg.sender from the exchange list.\n    /// Note: Designed to be called only by exchange contract.\n    function removeExchange()\n    public\n    returns (uint errorCode)\n    {\n        if (!isExchangeExists(msg.sender)) {\n            return _emitError(ERROR_EXCHANGE_STOCK_NOT_FOUND);\n        }\n\n        store.remove(exchanges, bytes32(msg.sender));\n        MultiEventsHistory(getEventsHistory()).reject(msg.sender);\n\n        address owner = Exchange(msg.sender).contractOwner();\n        store.remove(owners, bytes32(owner), msg.sender);\n\n        _emitExchangeRemoved(msg.sender);\n        return OK;\n    }\n\n    /// Tells whether the given _exchange is in registry.\n    function isExchangeExists(address _exchange) public view returns (bool) {\n        return store.includes(exchanges, bytes32(_exchange));\n    }\n\n    /// Returns the paginated array of excnhages, starting from _fromIdx and len _length.\n    function getExchanges(uint _fromIdx, uint _length) public view returns (address [] result) {\n        result = new address [] (_length);\n        for (uint idx = 0; idx < _length; idx++) {\n            result[idx] = address(store.get(exchanges, idx + _fromIdx));\n        }\n    }\n\n    /// Returns the count of the registered exchanges.\n    function getExchangesCount() public view returns (uint) {\n        return store.count(exchanges);\n    }\n\n    /// Returns the exchanges which belongs to the given _owner\n    function getExchangesForOwner(address _owner) public view returns (address []) {\n        return store.get(owners, bytes32(_owner));\n    }\n\n    /// Returns the number of exchanges which belongs to the given _owner\n    function getExchangesForOwnerCount(address _owner) public view returns (uint) {\n        return store.count(owners, bytes32(_owner));\n    }\n\n    /// The fee value against which the exchange should calculate fee.\n    function getFee() public view returns (uint) {\n        return store.get(fee);\n    }\n\n    /// Util method which returns agregated data for given _exchanges.\n    function getExchangeData(address [] _exchanges)\n    external\n    view\n    returns (bytes32 [] symbols,\n             uint [] buyPrices,\n             uint [] sellPrices,\n             uint [] assetBalances,\n             uint [] ethBalances)\n    {\n        symbols = new bytes32 [] (_exchanges.length);\n        buyPrices = new uint [] (_exchanges.length);\n        sellPrices = new uint [] (_exchanges.length);\n        assetBalances = new uint [] (_exchanges.length);\n        ethBalances = new uint [] (_exchanges.length);\n\n        for (uint idx = 0; idx < _exchanges.length; idx++) {\n            if (isExchangeExists(_exchanges[idx])) {\n                Exchange exchange = Exchange(_exchanges[idx]);\n\n                symbols[idx] = getSymbol(address(exchange.asset()));\n                buyPrices[idx] = exchange.buyPrice();\n                sellPrices[idx] = exchange.sellPrice();\n                assetBalances[idx] = exchange.assetBalance();\n                ethBalances[idx] = exchange.balance;\n            }\n        }\n    }\n\n    /// Returns the Exchange Factory address\n    function getExchangeFactory() public view returns (ExchangeFactory) {\n        return ExchangeFactory(store.get(exchangeFactory));\n    }\n\n    /// Retturns ERC20Manager address\n    function lookupERC20Manager() internal view returns (ERC20Manager) {\n        return ERC20Manager(lookupManager(\"ERC20Manager\"));\n    }\n\n    /// Returns the symbol of the given token\n    function getSymbol(address _token) internal view returns (bytes32) {\n        var (,,symbol,,,,) = lookupERC20Manager().getTokenMetaData(_token);\n        return symbol;\n    }\n\n    /* Events History util methods */\n\n    function _emitExchangeRemoved(address _exchange) internal {\n        Asset asset = Exchange(_exchange).asset();\n        ExchangeManagerEmitter(getEventsHistory())\n            .emitExchangeRemoved(_exchange, getSymbol(address(asset)));\n    }\n\n    function _emitExchangeAdded(address _user, address _exchange) internal {\n        Asset asset = Exchange(_exchange).asset();\n        ExchangeManagerEmitter(getEventsHistory())\n            .emitExchangeAdded(_user, _exchange, getSymbol(address(asset)));\n    }\n\n    function _emitExchangeCreated(\n        address _user,\n        address _exchange,\n        bytes32 _symbol)\n    internal\n    {\n        ExchangeManagerEmitter(getEventsHistory())\n            .emitExchangeCreated(_user, _exchange, _symbol);\n    }\n\n    function _emitError(uint error) internal returns (uint) {\n        ExchangeManagerEmitter(getEventsHistory()).emitError(error);\n        return error;\n    }\n}\n",
  "sourcePath": "/Users/ahiatsevich/Development/chronobank/SmartContracts/contracts/exchange/ExchangeManager.sol",
  "compiler": {
    "name": "solc",
    "version": "0.4.18+commit.9cf6e910.Emscripten.clang"
  },
  "schemaVersion": "1.0.1",
  "updatedAt": "2017-12-21T22:32:36.724Z"
}