{
  "contractName": "ExchangeManagerEmitter",
  "abi": [
    {
      "constant": false,
      "inputs": [
        {
          "name": "user",
          "type": "address"
        },
        {
          "name": "exchange",
          "type": "address"
        },
        {
          "name": "asset",
          "type": "address"
        }
      ],
      "name": "emitExchangeAdded",
      "outputs": [],
      "payable": false,
      "stateMutability": "nonpayable",
      "type": "function"
    },
    {
      "constant": false,
      "inputs": [
        {
          "name": "user",
          "type": "address"
        },
        {
          "name": "exchange",
          "type": "address"
        },
        {
          "name": "asset",
          "type": "address"
        }
      ],
      "name": "emitExchangeCreated",
      "outputs": [],
      "payable": false,
      "stateMutability": "nonpayable",
      "type": "function"
    },
    {
      "constant": false,
      "inputs": [
        {
          "name": "exchange",
          "type": "address"
        },
        {
          "name": "asset",
          "type": "address"
        }
      ],
      "name": "emitExchangeRemoved",
      "outputs": [],
      "payable": false,
      "stateMutability": "nonpayable",
      "type": "function"
    },
    {
      "constant": false,
      "inputs": [
        {
          "name": "errorCode",
          "type": "uint256"
        }
      ],
      "name": "emitError",
      "outputs": [],
      "payable": false,
      "stateMutability": "nonpayable",
      "type": "function"
    },
    {
      "anonymous": false,
      "inputs": [
        {
          "indexed": true,
          "name": "self",
          "type": "address"
        },
        {
          "indexed": true,
          "name": "user",
          "type": "address"
        },
        {
          "indexed": false,
          "name": "exchange",
          "type": "address"
        },
        {
          "indexed": false,
          "name": "asset",
          "type": "address"
        }
      ],
      "name": "ExchangeCreated",
      "type": "event"
    },
    {
      "anonymous": false,
      "inputs": [
        {
          "indexed": true,
          "name": "self",
          "type": "address"
        },
        {
          "indexed": true,
          "name": "user",
          "type": "address"
        },
        {
          "indexed": false,
          "name": "exchange",
          "type": "address"
        },
        {
          "indexed": false,
          "name": "asset",
          "type": "address"
        }
      ],
      "name": "ExchangeAdded",
      "type": "event"
    },
    {
      "anonymous": false,
      "inputs": [
        {
          "indexed": true,
          "name": "self",
          "type": "address"
        },
        {
          "indexed": false,
          "name": "exchange",
          "type": "address"
        },
        {
          "indexed": false,
          "name": "asset",
          "type": "address"
        }
      ],
      "name": "ExchangeRemoved",
      "type": "event"
    },
    {
      "anonymous": false,
      "inputs": [
        {
          "indexed": true,
          "name": "self",
          "type": "address"
        },
        {
          "indexed": false,
          "name": "errorCode",
          "type": "uint256"
        }
      ],
      "name": "Error",
      "type": "event"
    }
  ],
  "bytecode": "0x6060604052341561000f57600080fd5b6102978061001e6000396000f3006060604052600436106100615763ffffffff7c01000000000000000000000000000000000000000000000000000000006000350416631f58d52a8114610066578063714a4d6614610093578063a899ebcd146100be578063df26ca08146100e3575b600080fd5b341561007157600080fd5b610091600160a060020a03600435811690602435811690604435166100f9565b005b341561009e57600080fd5b610091600160a060020a036004358116906024358116906044351661015f565b34156100c957600080fd5b610091600160a060020a03600435811690602435166101c5565b34156100ee57600080fd5b610091600435610220565b82600160a060020a031661010b610267565b600160a060020a03167f0a3307a02fc265645972c8e076d45a4c916215400b1c0f3c94ba754e80ad8be48484604051600160a060020a039283168152911660208201526040908101905180910390a3505050565b82600160a060020a0316610171610267565b600160a060020a03167fe6c96f91775b208c31528b64e2ab6d654c8f1c64103c9ab66c9d68974a26d64a8484604051600160a060020a039283168152911660208201526040908101905180910390a3505050565b6101cd610267565b600160a060020a03167fca8635f861d7d46674a4a9fe54ae651789412ed8624a466c07b2f0c3eb141f878383604051600160a060020a039283168152911660208201526040908101905180910390a25050565b610228610267565b600160a060020a03167f9cf38cf2dbf9139f5c32639950507b10775fbbe0421f3e168bc2d1bb1ae3208c8260405190815260200160405180910390a250565b33905600a165627a7a72305820b30dd2bce0e56885ea20ef26fac29e31f1807fb7f7282a4d84bf523aeb5c1d300029",
  "source": "pragma solidity ^0.4.11;\n\nimport '../core/event/MultiEventsHistoryAdapter.sol';\n\ncontract ExchangeManagerEmitter is MultiEventsHistoryAdapter {\n    event ExchangeCreated(\n        address indexed self,\n        address indexed user,\n        address exchange,\n        address asset);\n    event ExchangeAdded(address indexed self, address indexed user, address exchange, address asset);\n    event ExchangeRemoved(address indexed self, address exchange, address asset);\n    event Error(address indexed self, uint errorCode);\n\n    function emitExchangeCreated(address user, address exchange, address asset) public {\n        ExchangeCreated(_self(), user, exchange, asset);\n    }\n\n    function emitExchangeRemoved(address exchange, address asset) public {\n        ExchangeRemoved(_self(), exchange, asset);\n    }\n\n    function emitExchangeAdded(address user, address exchange, address asset) public {\n        ExchangeAdded(_self(), user, exchange, asset);\n    }\n\n    function emitError(uint errorCode) public {\n        Error(_self(), errorCode);\n    }\n}\n",
  "sourcePath": "/Users/ahiatsevich/Development/chronobank/SmartContracts/contracts/exchange/ExchangeManagerEmitter.sol",
  "compiler": {
    "name": "solc",
    "version": "0.4.18+commit.9cf6e910.Emscripten.clang"
  },
  "schemaVersion": "1.0.1",
  "updatedAt": "2017-12-15T10:40:17.806Z"
}