{
  "contractName": "ExchangeManagerEmitter",
  "abi": [
    {
      "constant": false,
      "inputs": [
        {
          "name": "user",
          "type": "address"
        },
        {
          "name": "oldExchange",
          "type": "address"
        },
        {
          "name": "newExchange",
          "type": "address"
        }
      ],
      "name": "emitExchangeEdited",
      "outputs": [],
      "payable": false,
      "stateMutability": "nonpayable",
      "type": "function"
    },
    {
      "constant": false,
      "inputs": [
        {
          "name": "user",
          "type": "address"
        },
        {
          "name": "exchange",
          "type": "address"
        },
        {
          "name": "count",
          "type": "uint256"
        }
      ],
      "name": "emitExchangeAdded",
      "outputs": [],
      "payable": false,
      "stateMutability": "nonpayable",
      "type": "function"
    },
    {
      "constant": false,
      "inputs": [
        {
          "name": "user",
          "type": "address"
        },
        {
          "name": "exchange",
          "type": "address"
        },
        {
          "name": "count",
          "type": "uint256"
        }
      ],
      "name": "emitExchangeCreated",
      "outputs": [],
      "payable": false,
      "stateMutability": "nonpayable",
      "type": "function"
    },
    {
      "constant": false,
      "inputs": [
        {
          "name": "user",
          "type": "address"
        },
        {
          "name": "owner",
          "type": "address"
        },
        {
          "name": "exchange",
          "type": "address"
        }
      ],
      "name": "emitExchangeOwnerAdded",
      "outputs": [],
      "payable": false,
      "stateMutability": "nonpayable",
      "type": "function"
    },
    {
      "constant": false,
      "inputs": [
        {
          "name": "user",
          "type": "address"
        },
        {
          "name": "exchange",
          "type": "address"
        }
      ],
      "name": "emitExchangeRemoved",
      "outputs": [],
      "payable": false,
      "stateMutability": "nonpayable",
      "type": "function"
    },
    {
      "constant": false,
      "inputs": [
        {
          "name": "user",
          "type": "address"
        },
        {
          "name": "owner",
          "type": "address"
        },
        {
          "name": "exchange",
          "type": "address"
        }
      ],
      "name": "emitExchangeOwnerRemoved",
      "outputs": [],
      "payable": false,
      "stateMutability": "nonpayable",
      "type": "function"
    },
    {
      "constant": false,
      "inputs": [
        {
          "name": "errorCode",
          "type": "uint256"
        }
      ],
      "name": "emitError",
      "outputs": [],
      "payable": false,
      "stateMutability": "nonpayable",
      "type": "function"
    },
    {
      "anonymous": false,
      "inputs": [
        {
          "indexed": true,
          "name": "self",
          "type": "address"
        },
        {
          "indexed": true,
          "name": "user",
          "type": "address"
        },
        {
          "indexed": false,
          "name": "exchange",
          "type": "address"
        }
      ],
      "name": "ExchangeRemoved",
      "type": "event"
    },
    {
      "anonymous": false,
      "inputs": [
        {
          "indexed": true,
          "name": "self",
          "type": "address"
        },
        {
          "indexed": true,
          "name": "user",
          "type": "address"
        },
        {
          "indexed": false,
          "name": "exchange",
          "type": "address"
        },
        {
          "indexed": false,
          "name": "count",
          "type": "uint256"
        }
      ],
      "name": "ExchangeAdded",
      "type": "event"
    },
    {
      "anonymous": false,
      "inputs": [
        {
          "indexed": true,
          "name": "self",
          "type": "address"
        },
        {
          "indexed": true,
          "name": "user",
          "type": "address"
        },
        {
          "indexed": false,
          "name": "oldExchange",
          "type": "address"
        },
        {
          "indexed": false,
          "name": "newExchange",
          "type": "address"
        }
      ],
      "name": "ExchangeEdited",
      "type": "event"
    },
    {
      "anonymous": false,
      "inputs": [
        {
          "indexed": true,
          "name": "self",
          "type": "address"
        },
        {
          "indexed": true,
          "name": "user",
          "type": "address"
        },
        {
          "indexed": false,
          "name": "exchange",
          "type": "address"
        },
        {
          "indexed": false,
          "name": "count",
          "type": "uint256"
        }
      ],
      "name": "ExchangeCreated",
      "type": "event"
    },
    {
      "anonymous": false,
      "inputs": [
        {
          "indexed": true,
          "name": "self",
          "type": "address"
        },
        {
          "indexed": true,
          "name": "user",
          "type": "address"
        },
        {
          "indexed": false,
          "name": "owner",
          "type": "address"
        },
        {
          "indexed": false,
          "name": "exchange",
          "type": "address"
        }
      ],
      "name": "ExchangeOwnerAdded",
      "type": "event"
    },
    {
      "anonymous": false,
      "inputs": [
        {
          "indexed": true,
          "name": "self",
          "type": "address"
        },
        {
          "indexed": true,
          "name": "user",
          "type": "address"
        },
        {
          "indexed": false,
          "name": "owner",
          "type": "address"
        },
        {
          "indexed": false,
          "name": "exchange",
          "type": "address"
        }
      ],
      "name": "ExchangeOwnerRemoved",
      "type": "event"
    },
    {
      "anonymous": false,
      "inputs": [
        {
          "indexed": true,
          "name": "self",
          "type": "address"
        },
        {
          "indexed": false,
          "name": "errorCode",
          "type": "uint256"
        }
      ],
      "name": "Error",
      "type": "event"
    }
  ],
  "bytecode": "0x6060604052341561000f57600080fd5b6104628061001e6000396000f3006060604052600436106100825763ffffffff7c010000000000000000000000000000000000000000000000000000000060003504166366706c8781146100875780636d231495146100b45780637c31ceda146100dc578063931927e314610104578063a899ebcd1461012f578063b3836a1114610154578063df26ca081461017f575b600080fd5b341561009257600080fd5b6100b2600160a060020a0360043581169060243581169060443516610195565b005b34156100bf57600080fd5b6100b2600160a060020a03600435811690602435166044356101fb565b34156100e757600080fd5b6100b2600160a060020a036004358116906024351660443561025f565b341561010f57600080fd5b6100b2600160a060020a03600435811690602435811690604435166102c3565b341561013a57600080fd5b6100b2600160a060020a0360043581169060243516610329565b341561015f57600080fd5b6100b2600160a060020a0360043581169060243581169060443516610385565b341561018a57600080fd5b6100b26004356103eb565b82600160a060020a03166101a7610432565b600160a060020a03167f12fff04f1bd52bb3584b47bab1bbf594e105a8a1727f99689e194b0f95cd18a78484604051600160a060020a039283168152911660208201526040908101905180910390a3505050565b82600160a060020a031661020d610432565b600160a060020a03167fdcf10ae57be6f6d02ae3cc35750483d7f191f48aec92652a721b50ce5279ef2d8484604051600160a060020a03909216825260208201526040908101905180910390a3505050565b82600160a060020a0316610271610432565b600160a060020a03167fae72fcb3a03816c7f6d7d3eeee19497e5df191daed620ae5d7c1431dfa0194888484604051600160a060020a03909216825260208201526040908101905180910390a3505050565b82600160a060020a03166102d5610432565b600160a060020a03167f7f1fa1fa2da289247703799f5cfbf9957a0122fe19aa9b26feeae4736de7652a8484604051600160a060020a039283168152911660208201526040908101905180910390a3505050565b81600160a060020a031661033b610432565b600160a060020a03167fca8635f861d7d46674a4a9fe54ae651789412ed8624a466c07b2f0c3eb141f8783604051600160a060020a03909116815260200160405180910390a35050565b82600160a060020a0316610397610432565b600160a060020a03167fcf88c159e70f503976d612b76365646b85c7742ca802852ab1d305af87c135928484604051600160a060020a039283168152911660208201526040908101905180910390a3505050565b6103f3610432565b600160a060020a03167f9cf38cf2dbf9139f5c32639950507b10775fbbe0421f3e168bc2d1bb1ae3208c8260405190815260200160405180910390a250565b33905600a165627a7a723058206b11a36b7bf249f7117bdf909f3f09aeded1d43ba0dd4d095245e6147687977e0029",
  "source": "pragma solidity ^0.4.11;\n\nimport '../core/event/MultiEventsHistoryAdapter.sol';\n\ncontract ExchangeManagerEmitter is MultiEventsHistoryAdapter {\n    event ExchangeRemoved(address indexed self, address indexed user, address exchange);\n    event ExchangeAdded(address indexed self, address indexed user, address exchange, uint count);\n    event ExchangeEdited(address indexed self, address indexed user, address oldExchange, address newExchange);\n    event ExchangeCreated(address indexed self, address indexed user, address exchange, uint count);\n    event ExchangeOwnerAdded(address indexed self, address indexed user, address owner, address exchange);\n    event ExchangeOwnerRemoved(address indexed self, address indexed user, address owner, address exchange);\n    event Error(address indexed self, uint errorCode);\n\n    function emitExchangeRemoved(address user, address exchange) {\n        ExchangeRemoved(_self(), user, exchange);\n    }\n\n    function emitExchangeAdded(address user, address exchange, uint count) {\n        ExchangeAdded(_self(), user, exchange, count);\n    }\n\n    function emitExchangeEdited(address user, address oldExchange, address newExchange) {\n        ExchangeEdited(_self(), user, oldExchange, newExchange);\n    }\n\n    function emitExchangeCreated(address user, address exchange, uint count) {\n        ExchangeCreated(_self(), user, exchange, count);\n    }\n\n    function emitExchangeOwnerAdded(address user, address owner, address exchange) {\n        ExchangeOwnerAdded(_self(), user, owner, exchange);\n    }\n\n    function emitExchangeOwnerRemoved(address user, address owner, address exchange) {\n        ExchangeOwnerRemoved(_self(), user, owner, exchange);\n    }\n\n    function emitError(uint errorCode) {\n        Error(_self(),errorCode);\n    }\n}\n",
  "sourcePath": "/Users/ahiatsevich/Development/chronobank/SmartContracts/contracts/exchange/ExchangeManagerEmitter.sol",
  "compiler": {
    "name": "solc",
    "version": "0.4.18+commit.9cf6e910.Emscripten.clang"
  },
  "schemaVersion": "1.0.1",
  "updatedAt": "2017-11-15T09:25:14.935Z"
}