{
  "contractName": "FakePriceTickerManager",
  "abi": [
    {
      "constant": false,
      "inputs": [
        {
          "name": "",
          "type": "bytes32"
        },
        {
          "name": "",
          "type": "bytes32"
        }
      ],
      "name": "requestPrice",
      "outputs": [
        {
          "name": "",
          "type": "bytes32"
        },
        {
          "name": "",
          "type": "uint256"
        }
      ],
      "payable": true,
      "stateMutability": "payable",
      "type": "function"
    },
    {
      "constant": false,
      "inputs": [
        {
          "name": "_contractsManager",
          "type": "address"
        }
      ],
      "name": "init",
      "outputs": [
        {
          "name": "",
          "type": "uint256"
        }
      ],
      "payable": false,
      "stateMutability": "nonpayable",
      "type": "function"
    },
    {
      "constant": false,
      "inputs": [],
      "name": "claimContractOwnership",
      "outputs": [
        {
          "name": "",
          "type": "bool"
        }
      ],
      "payable": false,
      "stateMutability": "nonpayable",
      "type": "function"
    },
    {
      "constant": true,
      "inputs": [
        {
          "name": "_identifier",
          "type": "bytes32"
        }
      ],
      "name": "lookupManager",
      "outputs": [
        {
          "name": "manager",
          "type": "address"
        }
      ],
      "payable": false,
      "stateMutability": "view",
      "type": "function"
    },
    {
      "constant": true,
      "inputs": [],
      "name": "contractsManager",
      "outputs": [
        {
          "name": "",
          "type": "address"
        }
      ],
      "payable": false,
      "stateMutability": "view",
      "type": "function"
    },
    {
      "constant": false,
      "inputs": [
        {
          "name": "_to",
          "type": "address"
        }
      ],
      "name": "changeContractOwnership",
      "outputs": [
        {
          "name": "",
          "type": "bool"
        }
      ],
      "payable": false,
      "stateMutability": "nonpayable",
      "type": "function"
    },
    {
      "constant": true,
      "inputs": [],
      "name": "pendingContractOwner",
      "outputs": [
        {
          "name": "",
          "type": "address"
        }
      ],
      "payable": false,
      "stateMutability": "view",
      "type": "function"
    },
    {
      "constant": false,
      "inputs": [
        {
          "name": "_eventsHistory",
          "type": "address"
        }
      ],
      "name": "setEventsHistory",
      "outputs": [],
      "payable": false,
      "stateMutability": "nonpayable",
      "type": "function"
    },
    {
      "constant": false,
      "inputs": [
        {
          "name": "_contractsManager",
          "type": "address"
        }
      ],
      "name": "setContractsManager",
      "outputs": [],
      "payable": false,
      "stateMutability": "nonpayable",
      "type": "function"
    },
    {
      "constant": true,
      "inputs": [
        {
          "name": "_from",
          "type": "bytes32"
        },
        {
          "name": "_to",
          "type": "bytes32"
        }
      ],
      "name": "price",
      "outputs": [
        {
          "name": "",
          "type": "uint256"
        }
      ],
      "payable": false,
      "stateMutability": "view",
      "type": "function"
    },
    {
      "constant": false,
      "inputs": [],
      "name": "destroy",
      "outputs": [],
      "payable": false,
      "stateMutability": "nonpayable",
      "type": "function"
    },
    {
      "constant": false,
      "inputs": [
        {
          "name": "_to",
          "type": "address"
        }
      ],
      "name": "transferContractOwnership",
      "outputs": [
        {
          "name": "",
          "type": "bool"
        }
      ],
      "payable": false,
      "stateMutability": "nonpayable",
      "type": "function"
    },
    {
      "constant": true,
      "inputs": [],
      "name": "contractOwner",
      "outputs": [
        {
          "name": "",
          "type": "address"
        }
      ],
      "payable": false,
      "stateMutability": "view",
      "type": "function"
    },
    {
      "constant": false,
      "inputs": [
        {
          "name": "tokens",
          "type": "address[]"
        },
        {
          "name": "_to",
          "type": "address"
        }
      ],
      "name": "withdrawnTokens",
      "outputs": [
        {
          "name": "",
          "type": "uint256"
        }
      ],
      "payable": false,
      "stateMutability": "nonpayable",
      "type": "function"
    },
    {
      "constant": true,
      "inputs": [
        {
          "name": "_from",
          "type": "bytes32"
        },
        {
          "name": "_to",
          "type": "bytes32"
        }
      ],
      "name": "isPriceAvailable",
      "outputs": [
        {
          "name": "",
          "type": "bool"
        }
      ],
      "payable": false,
      "stateMutability": "view",
      "type": "function"
    },
    {
      "constant": true,
      "inputs": [
        {
          "name": "key",
          "type": "address"
        }
      ],
      "name": "isAuthorized",
      "outputs": [
        {
          "name": "",
          "type": "bool"
        }
      ],
      "payable": false,
      "stateMutability": "view",
      "type": "function"
    },
    {
      "constant": true,
      "inputs": [],
      "name": "getEventsHistory",
      "outputs": [
        {
          "name": "",
          "type": "address"
        }
      ],
      "payable": false,
      "stateMutability": "view",
      "type": "function"
    },
    {
      "inputs": [
        {
          "name": "_store",
          "type": "address"
        },
        {
          "name": "_crate",
          "type": "bytes32"
        }
      ],
      "payable": false,
      "stateMutability": "nonpayable",
      "type": "constructor"
    },
    {
      "anonymous": false,
      "inputs": [
        {
          "indexed": false,
          "name": "initiator",
          "type": "address"
        },
        {
          "indexed": true,
          "name": "fsym",
          "type": "bytes32"
        },
        {
          "indexed": true,
          "name": "tsym",
          "type": "bytes32"
        },
        {
          "indexed": true,
          "name": "updateTime",
          "type": "uint256"
        },
        {
          "indexed": false,
          "name": "exchangePrice",
          "type": "uint256"
        },
        {
          "indexed": false,
          "name": "rateDecimals",
          "type": "uint256"
        }
      ],
      "name": "ExchangePriceUpdated",
      "type": "event"
    }
  ],
  "bytecode": "0x6060604052341561000f57600080fd5b604051604080610c3783398101604052808051919060200180519150829050818181818161004c60008383640100000000610b2561008b82021704565b505060028054600160a060020a03338116600160a060020a031992831617909255600580543090931692909116919091179055506100b1945050505050565b8254600160a060020a031916600160a060020a0392909216919091178255600190910155565b610b77806100c06000396000f3006060604052600436106100d75763ffffffff60e060020a60003504166306915ba381146100dc57806319ab453c146101025780634592cd1d146101335780634fe590121461015a57806353253d311461018c578063557f4bc91461019f5780635aa77d3c146101be5780636521afd7146101d157806371d3b573146101f25780637d5ecbab1461021157806383197ef01461022a578063a843c51f1461023d578063ce606ee01461025c578063d8f9659b1461026f578063e5a59e07146102c9578063fe9fbb80146102e2578063fff10aba14610301575b600080fd5b6100ea600435602435610314565b60405191825260208201526040908101905180910390f35b341561010d57600080fd5b610121600160a060020a036004351661031d565b60405190815260200160405180910390f35b341561013e57600080fd5b61014661036c565b604051901515815260200160405180910390f35b341561016557600080fd5b6101706004356103b9565b604051600160a060020a03909116815260200160405180910390f35b341561019757600080fd5b61017061043d565b34156101aa57600080fd5b610146600160a060020a036004351661044c565b34156101c957600080fd5b6101706104a3565b34156101dc57600080fd5b6101f0600160a060020a03600435166104b2565b005b34156101fd57600080fd5b6101f0600160a060020a03600435166104e8565b341561021c57600080fd5b61012160043560243561051f565b341561023557600080fd5b6101f061058d565b341561024857600080fd5b610146600160a060020a0360043516610623565b341561026757600080fd5b61017061069c565b341561027a57600080fd5b610121600460248135818101908301358060208181020160405190810160405280939291908181526020018383602002808284375094965050509235600160a060020a031692506106ab915050565b34156102d457600080fd5b6101466004356024356107fc565b34156102ed57600080fd5b610146600160a060020a036004351661085c565b341561030c57600080fd5b610170610902565b50600091829150565b60025460009033600160a060020a039081169116141561036757610361827f50726963654d616e616765720000000000000000000000000000000000000000610911565b50600190505b919050565b60035460009033600160a060020a0390811691161461038d575060006103b6565b506003805460028054600160a060020a0319908116600160a060020a0384161790915516905560015b90565b600454600090600160a060020a031663bc65792783836040516020015260405160e060020a63ffffffff84160281526004810191909152602401602060405180830381600087803b151561040c57600080fd5b6102c65a03f1151561041d57600080fd5b5050506040518051915050600160a060020a038116151561036757600080fd5b600454600160a060020a031681565b60025460009033600160a060020a039081169116141561036757600160a060020a038216151561047e57506000610367565b5060038054600160a060020a038316600160a060020a03199091161790556001919050565b600354600160a060020a031681565b60025433600160a060020a03908116911614156104e55760058054600160a060020a031916600160a060020a0383161790555b50565b60025433600160a060020a03908116911614156104e55760048054600160a060020a038316600160a060020a031990911617905550565b600060e060020a6346414b450283148015610542575060eb60020a6208aa890282145b156105565750670de0b6b3a7640000610587565b60eb60020a6208aa890283148015610577575060e060020a6346414b450282145b156100d75750670de0b6b3a76400005b92915050565b60025433600160a060020a039081169116141561062157600454600160a060020a031663c375c2ef3060006040516020015260405160e060020a63ffffffff8416028152600160a060020a039091166004820152602401602060405180830381600087803b15156105fd57600080fd5b6102c65a03f1151561060e57600080fd5b5050506040518051905050610621610b02565b565b60025460009033600160a060020a039081169116141561036757600160a060020a038216151561065557506000610367565b600354600160a060020a0316156106775760038054600160a060020a03191690555b5060028054600160a060020a038316600160a060020a03199091161790556001919050565b600254600160a060020a031681565b60025460009081908190819033600160a060020a03908116911614156107f357600092505b85518310156107ee578583815181106106e557fe5b90602001906020020151915081600160a060020a03166370a082313060006040516020015260405160e060020a63ffffffff8416028152600160a060020a039091166004820152602401602060405180830381600087803b151561074857600080fd5b6102c65a03f1151561075957600080fd5b505050604051805191505080156107e35781600160a060020a031663a9059cbb868360006040516020015260405160e060020a63ffffffff8516028152600160a060020a0390921660048301526024820152604401602060405180830381600087803b15156107c757600080fd5b6102c65a03f115156107d857600080fd5b505050604051805150505b6001909201916106d0565b600193505b50505092915050565b600060e060020a6346414b45028314801561081f575060eb60020a6208aa890282145b80610846575060eb60020a6208aa890283148015610846575060e060020a6346414b450282145b1561085357506001610587565b50600092915050565b6000806108887f557365724d616e616765720000000000000000000000000000000000000000006103b9565b905080600160a060020a0316632aa09e5a8460006040516020015260405160e060020a63ffffffff8416028152600160a060020a039091166004820152602401602060405180830381600087803b15156108e157600080fd5b6102c65a03f115156108f257600080fd5b5050506040518051949350505050565b600554600160a060020a031690565b60025460009081908190819033600160a060020a0390811691161461093557600080fd5b600160a060020a038616151561094a57600080fd5b600454600160a060020a03161580159350806109745750600454600160a060020a03878116911614155b156109955760048054600160a060020a031916600160a060020a0388161790555b600454600160a060020a031691508163bc65792760006040516020015260405160e060020a63ffffffff83160281527f4d756c74694576656e7473486973746f727900000000000000000000000000006004820152602401602060405180830381600087803b1515610a0657600080fd5b6102c65a03f11515610a1757600080fd5b5050506040518051915050600160a060020a03811615801590610a485750600554600160a060020a03828116911614155b15610a695760058054600160a060020a031916600160a060020a0383161790555b8415610af05781600160a060020a031663b7c46cd5308760006040516020015260405160e060020a63ffffffff8516028152600160a060020a0390921660048301526024820152604401602060405180830381600087803b1515610acc57600080fd5b6102c65a03f11515610add57600080fd5b50505060405180516001149050610af057fe5b82156107ee5760069695505050505050565b60025433600160a060020a03908116911614156106215733600160a060020a0316ff5b8254600160a060020a031916600160a060020a03929092169190911782556001909101555600a165627a7a7230582084ea9ff4b77bcaa43174381284e77f8b1548cd038f481ab341e5b54317025b710029",
  "source": "pragma solidity ^0.4.11;\n\nimport \"../priceticker/PriceTicker.sol\";\nimport \"../core/common/BaseManager.sol\";\n\ncontract FakePriceTickerManager is BaseManager, PriceTicker {\n\n    function FakePriceTickerManager(Storage _store, bytes32 _crate) BaseManager(_store, _crate) {\n    }\n\n    function init(address _contractsManager) onlyContractOwner returns (uint) {\n        BaseManager.init(_contractsManager, \"PriceManager\");\n\n        return OK;\n    }\n\n    function isPriceAvailable(bytes32 _from, bytes32 _to) public view returns (bool) {\n        if ((_from == \"FAKE\" && _to == \"ETH\")\n            || (_from == \"ETH\" && _to == \"FAKE\")) {\n                return true;\n        }\n\n        return false;\n    }\n\n    function price(bytes32 _from, bytes32 _to) public view returns (uint) {\n        if (_from == \"FAKE\" && _to == \"ETH\") {\n            return (10**18);\n        }\n\n        if (_from == \"ETH\" && _to == \"FAKE\") {\n            return (10**18);\n        }\n\n        revert();\n    }\n\n    function requestPrice(bytes32, bytes32) public payable returns (bytes32, uint) {\n        //PriceTickerCallback(msg.sender).receivePrice(keccak256(block.number, now), 10, 1);\n    }\n}\n",
  "sourcePath": "/Users/mikefluff/Documents/Programming/Chronobank/test/SmartContracts/contracts/helpers/FakePriceTickerManager.sol",
  "compiler": {
    "name": "solc",
    "version": "0.4.18+commit.9cf6e910.Emscripten.clang"
  },
  "schemaVersion": "1.0.1",
  "updatedAt": "2018-01-12T11:40:45.435Z"
}