{
  "contractName": "FakeCoin",
  "abi": [
    {
      "constant": true,
      "inputs": [
        {
          "name": "_address",
          "type": "address"
        }
      ],
      "name": "balanceEth",
      "outputs": [
        {
          "name": "",
          "type": "uint256"
        }
      ],
      "payable": false,
      "stateMutability": "view",
      "type": "function"
    },
    {
      "constant": true,
      "inputs": [],
      "name": "totalSupply",
      "outputs": [
        {
          "name": "",
          "type": "uint256"
        }
      ],
      "payable": false,
      "stateMutability": "pure",
      "type": "function"
    },
    {
      "constant": false,
      "inputs": [
        {
          "name": "_from",
          "type": "address"
        },
        {
          "name": "_to",
          "type": "address"
        },
        {
          "name": "_value",
          "type": "uint256"
        }
      ],
      "name": "transferFrom",
      "outputs": [
        {
          "name": "",
          "type": "bool"
        }
      ],
      "payable": false,
      "stateMutability": "nonpayable",
      "type": "function"
    },
    {
      "constant": true,
      "inputs": [],
      "name": "decimals",
      "outputs": [
        {
          "name": "",
          "type": "uint256"
        }
      ],
      "payable": false,
      "stateMutability": "pure",
      "type": "function"
    },
    {
      "constant": false,
      "inputs": [
        {
          "name": "_to",
          "type": "address"
        },
        {
          "name": "_value",
          "type": "uint256"
        }
      ],
      "name": "mint",
      "outputs": [],
      "payable": false,
      "stateMutability": "nonpayable",
      "type": "function"
    },
    {
      "constant": true,
      "inputs": [
        {
          "name": "",
          "type": "address"
        }
      ],
      "name": "balanceOf",
      "outputs": [
        {
          "name": "",
          "type": "uint256"
        }
      ],
      "payable": false,
      "stateMutability": "view",
      "type": "function"
    },
    {
      "constant": true,
      "inputs": [],
      "name": "symbol",
      "outputs": [
        {
          "name": "",
          "type": "string"
        }
      ],
      "payable": false,
      "stateMutability": "pure",
      "type": "function"
    },
    {
      "constant": false,
      "inputs": [
        {
          "name": "_to",
          "type": "address"
        },
        {
          "name": "_value",
          "type": "uint256"
        }
      ],
      "name": "transfer",
      "outputs": [
        {
          "name": "",
          "type": "bool"
        }
      ],
      "payable": false,
      "stateMutability": "nonpayable",
      "type": "function"
    },
    {
      "payable": true,
      "stateMutability": "payable",
      "type": "fallback"
    },
    {
      "anonymous": false,
      "inputs": [
        {
          "indexed": true,
          "name": "from",
          "type": "address"
        },
        {
          "indexed": true,
          "name": "to",
          "type": "address"
        },
        {
          "indexed": false,
          "name": "value",
          "type": "uint256"
        }
      ],
      "name": "Transfer",
      "type": "event"
    }
  ],
  "bytecode": "0x6060604052341561000f57600080fd5b6103c58061001e6000396000f30060606040526004361061008c5763ffffffff7c0100000000000000000000000000000000000000000000000000000000600035041662837b15811461009a57806318160ddd146100cb57806323b872dd146100de578063313ce5671461011a57806340c10f191461012d57806370a082311461014f57806395d89b411461016e578063a9059cbb146101f8575b34151561009857600080fd5b005b34156100a557600080fd5b6100b9600160a060020a036004351661021a565b60405190815260200160405180910390f35b34156100d657600080fd5b6100b9610227565b34156100e957600080fd5b610106600160a060020a036004358116906024351660443561022c565b604051901515815260200160405180910390f35b341561012557600080fd5b6100b96102c5565b341561013857600080fd5b610098600160a060020a03600435166024356102ca565b341561015a57600080fd5b6100b9600160a060020a0360043516610327565b341561017957600080fd5b610181610339565b60405160208082528190810183818151815260200191508051906020019080838360005b838110156101bd5780820151838201526020016101a5565b50505050905090810190601f1680156101ea5780820380516001836020036101000a031916815260200191505b509250505060405180910390f35b341561020357600080fd5b610106600160a060020a036004351660243561037a565b600160a060020a03163190565b600090565b600160a060020a03831660009081526020819052604081205482901015610255575060006102be565b600160a060020a038085166000818152602081905260408082208054879003905592861680825290839020805486019055917fddf252ad1be2c89b69c2b068fc378daa952ba7f163c4a11628f55a4df523b3ef9085905190815260200160405180910390a35060015b9392505050565b600490565b600160a060020a038083166000818152602081905260409081902080548501905590913016907fddf252ad1be2c89b69c2b068fc378daa952ba7f163c4a11628f55a4df523b3ef9084905190815260200160405180910390a35050565b60006020819052908152604090205481565b610341610387565b60408051908101604052600481527f46414b45000000000000000000000000000000000000000000000000000000006020820152905090565b60006102be33848461022c565b602060405190810160405260008152905600a165627a7a72305820bca026044b4a1838bc0110f30aac4f7174d0e1e5da23c678623d3bba69a3017f0029",
  "source": "pragma solidity ^0.4.11;\n\n// For testing purposes\ncontract FakeCoin {\n\n    event Transfer(address indexed from, address indexed to, uint256 value);\n\n    mapping (address => uint) public balanceOf;\n\n    function mint(address _to, uint _value) public {\n        balanceOf[_to] += _value;\n        Transfer(this, _to, _value);\n    }\n\n    function totalSupply() public pure returns (uint) {\n        return 0;\n    }\n\n    function symbol() public pure returns (string) {\n        return 'FAKE';\n    }\n\n    function decimals() public pure returns (uint) {\n        return 4;\n    }\n\n    function transfer(address _to, uint _value) public returns (bool) {\n        return transferFrom(msg.sender, _to, _value);\n    }\n\n    function transferFrom(address _from, address _to, uint _value) public returns (bool) {\n        if (balanceOf[_from] < _value) {\n            return false;\n        }\n        balanceOf[_from] -= _value;\n        balanceOf[_to] += _value;\n        Transfer(_from, _to, _value);\n        return true;\n    }\n\n    function balanceEth(address _address) public view returns (uint) {\n        return _address.balance;\n    }\n\n    function() public payable {\n        if (msg.value == 0) {\n            revert();\n        }\n    }\n}\n",
  "sourcePath": "/Users/ahiatsevich/Development/chronobank/SmartContracts/contracts/helpers/FakeCoin.sol",
  "compiler": {
    "name": "solc",
    "version": "0.4.18+commit.9cf6e910.Emscripten.clang"
  },
  "schemaVersion": "1.0.1",
  "updatedAt": "2018-01-11T22:35:11.762Z"
}