{
  "contractName": "FakePriceTicker",
  "abi": [
    {
      "constant": false,
      "inputs": [
        {
          "name": "",
          "type": "bytes32"
        },
        {
          "name": "",
          "type": "bytes32"
        }
      ],
      "name": "requestPrice",
      "outputs": [
        {
          "name": "",
          "type": "bytes32"
        },
        {
          "name": "",
          "type": "uint256"
        }
      ],
      "payable": true,
      "stateMutability": "payable",
      "type": "function"
    },
    {
      "constant": true,
      "inputs": [
        {
          "name": "",
          "type": "bytes32"
        },
        {
          "name": "",
          "type": "bytes32"
        }
      ],
      "name": "price",
      "outputs": [
        {
          "name": "",
          "type": "uint256"
        },
        {
          "name": "",
          "type": "uint256"
        }
      ],
      "payable": false,
      "stateMutability": "view",
      "type": "function"
    },
    {
      "constant": true,
      "inputs": [
        {
          "name": "",
          "type": "bytes32"
        },
        {
          "name": "",
          "type": "bytes32"
        }
      ],
      "name": "isPriceAvailable",
      "outputs": [
        {
          "name": "",
          "type": "bool"
        }
      ],
      "payable": false,
      "stateMutability": "view",
      "type": "function"
    }
  ],
  "bytecode": "0x6060604052341561000f57600080fd5b6101b88061001e6000396000f3006060604052600436106100565763ffffffff7c010000000000000000000000000000000000000000000000000000000060003504166306915ba3811461005b5780637d5ecbab14610081578063e5a59e071461009a575b600080fd5b6100696004356024356100c7565b60405191825260208201526040908101905180910390f35b341561008c57600080fd5b61006960043560243561017a565b34156100a557600080fd5b6100b3600435602435610184565b604051901515815260200160405180910390f35b6000803373ffffffffffffffffffffffffffffffffffffffff1663f50bf02943426040519182526020820152604090810190518091039020600a60016040517c010000000000000000000000000000000000000000000000000000000063ffffffff8616028152600481019390935260248301919091526044820152606401600060405180830381600087803b151561015f57600080fd5b6102c65a03f1151561017057600080fd5b5050509250929050565b50600a9160019150565b6001929150505600a165627a7a723058200582f81ef6e43d2ff01d05006d8b8532143b5dcd17443496b4cf4e4ae90a550b0029",
  "source": "pragma solidity ^0.4.11;\n\nimport \"../crowdsale/base/PriceTicker.sol\";\n\ncontract FakePriceTicker is PriceTicker {\n\n    function isPriceAvailable(bytes32, bytes32) public view returns (bool) {      \n        return true;\n    }\n\n    function price(bytes32, bytes32) public view returns (uint, uint) {\n        return (10, 1);\n    }\n\n    function requestPrice(bytes32, bytes32) public payable returns (bytes32, uint) {\n        PriceTickerCallback(msg.sender).receivePrice(keccak256(block.number, now), 10, 1);\n    }\n}\n",
  "sourcePath": "/Users/ahiatsevich/Development/chronobank/SmartContracts/contracts/helpers/FakePriceTicker.sol",
  "compiler": {
    "name": "solc",
    "version": "0.4.18+commit.9cf6e910.Emscripten.clang"
  },
  "schemaVersion": "1.0.1",
  "updatedAt": "2017-12-15T11:25:50.034Z"
}