{
  "contractName": "FeatureFeeManager",
  "abi": [
    {
      "constant": false,
      "inputs": [
        {
          "name": "_contractsManager",
          "type": "address"
        }
      ],
      "name": "init",
      "outputs": [
        {
          "name": "",
          "type": "uint256"
        }
      ],
      "payable": false,
      "stateMutability": "nonpayable",
      "type": "function"
    },
    {
      "constant": true,
      "inputs": [
        {
          "name": "code",
          "type": "address"
        },
        {
          "name": "sig",
          "type": "bytes4"
        }
      ],
      "name": "requiredBalanceFor",
      "outputs": [
        {
          "name": "",
          "type": "uint256"
        }
      ],
      "payable": false,
      "stateMutability": "view",
      "type": "function"
    },
    {
      "constant": false,
      "inputs": [],
      "name": "claimContractOwnership",
      "outputs": [
        {
          "name": "",
          "type": "bool"
        }
      ],
      "payable": false,
      "stateMutability": "nonpayable",
      "type": "function"
    },
    {
      "constant": true,
      "inputs": [
        {
          "name": "_identifier",
          "type": "bytes32"
        }
      ],
      "name": "lookupManager",
      "outputs": [
        {
          "name": "manager",
          "type": "address"
        }
      ],
      "payable": false,
      "stateMutability": "view",
      "type": "function"
    },
    {
      "constant": true,
      "inputs": [],
      "name": "contractsManager",
      "outputs": [
        {
          "name": "",
          "type": "address"
        }
      ],
      "payable": false,
      "stateMutability": "view",
      "type": "function"
    },
    {
      "constant": false,
      "inputs": [
        {
          "name": "_to",
          "type": "address"
        }
      ],
      "name": "changeContractOwnership",
      "outputs": [
        {
          "name": "",
          "type": "bool"
        }
      ],
      "payable": false,
      "stateMutability": "nonpayable",
      "type": "function"
    },
    {
      "constant": true,
      "inputs": [],
      "name": "pendingContractOwner",
      "outputs": [
        {
          "name": "",
          "type": "address"
        }
      ],
      "payable": false,
      "stateMutability": "view",
      "type": "function"
    },
    {
      "constant": false,
      "inputs": [
        {
          "name": "_eventsHistory",
          "type": "address"
        }
      ],
      "name": "setEventsHistory",
      "outputs": [],
      "payable": false,
      "stateMutability": "nonpayable",
      "type": "function"
    },
    {
      "constant": false,
      "inputs": [
        {
          "name": "executor",
          "type": "address"
        },
        {
          "name": "code",
          "type": "address"
        },
        {
          "name": "featureSig",
          "type": "bytes4"
        }
      ],
      "name": "isExecutionAllowed",
      "outputs": [
        {
          "name": "",
          "type": "bool"
        }
      ],
      "payable": false,
      "stateMutability": "nonpayable",
      "type": "function"
    },
    {
      "constant": false,
      "inputs": [
        {
          "name": "_contractsManager",
          "type": "address"
        }
      ],
      "name": "setContractsManager",
      "outputs": [],
      "payable": false,
      "stateMutability": "nonpayable",
      "type": "function"
    },
    {
      "constant": false,
      "inputs": [],
      "name": "destroy",
      "outputs": [],
      "payable": false,
      "stateMutability": "nonpayable",
      "type": "function"
    },
    {
      "constant": false,
      "inputs": [
        {
          "name": "executor",
          "type": "address"
        },
        {
          "name": "code",
          "type": "address"
        },
        {
          "name": "featureSig",
          "type": "bytes4"
        }
      ],
      "name": "takeExecutionFee",
      "outputs": [
        {
          "name": "",
          "type": "uint256"
        }
      ],
      "payable": false,
      "stateMutability": "nonpayable",
      "type": "function"
    },
    {
      "constant": true,
      "inputs": [
        {
          "name": "code",
          "type": "address"
        },
        {
          "name": "sig",
          "type": "bytes4"
        }
      ],
      "name": "priceOf",
      "outputs": [
        {
          "name": "",
          "type": "uint256"
        }
      ],
      "payable": false,
      "stateMutability": "view",
      "type": "function"
    },
    {
      "constant": false,
      "inputs": [
        {
          "name": "_to",
          "type": "address"
        }
      ],
      "name": "transferContractOwnership",
      "outputs": [
        {
          "name": "",
          "type": "bool"
        }
      ],
      "payable": false,
      "stateMutability": "nonpayable",
      "type": "function"
    },
    {
      "constant": true,
      "inputs": [],
      "name": "contractOwner",
      "outputs": [
        {
          "name": "",
          "type": "address"
        }
      ],
      "payable": false,
      "stateMutability": "view",
      "type": "function"
    },
    {
      "constant": false,
      "inputs": [
        {
          "name": "code",
          "type": "address"
        },
        {
          "name": "sig",
          "type": "bytes4"
        },
        {
          "name": "requiredBalance",
          "type": "uint256"
        },
        {
          "name": "price",
          "type": "uint256"
        }
      ],
      "name": "setFeatureFee",
      "outputs": [],
      "payable": false,
      "stateMutability": "nonpayable",
      "type": "function"
    },
    {
      "constant": false,
      "inputs": [
        {
          "name": "tokens",
          "type": "address[]"
        },
        {
          "name": "_to",
          "type": "address"
        }
      ],
      "name": "withdrawnTokens",
      "outputs": [
        {
          "name": "",
          "type": "uint256"
        }
      ],
      "payable": false,
      "stateMutability": "nonpayable",
      "type": "function"
    },
    {
      "constant": true,
      "inputs": [
        {
          "name": "key",
          "type": "address"
        }
      ],
      "name": "isAuthorized",
      "outputs": [
        {
          "name": "",
          "type": "bool"
        }
      ],
      "payable": false,
      "stateMutability": "view",
      "type": "function"
    },
    {
      "constant": true,
      "inputs": [],
      "name": "getEventsHistory",
      "outputs": [
        {
          "name": "",
          "type": "address"
        }
      ],
      "payable": false,
      "stateMutability": "view",
      "type": "function"
    },
    {
      "inputs": [
        {
          "name": "_store",
          "type": "address"
        },
        {
          "name": "_crate",
          "type": "bytes32"
        }
      ],
      "payable": false,
      "stateMutability": "nonpayable",
      "type": "constructor"
    }
  ],
  "bytecode": "0x606060405234156200001057600080fd5b604051604080620012418339810160405280805191906020018051915082905081818181816200005160008383640100000000620010266200010982021704565b505060028054600160a060020a03338116600160a060020a03199283161790925560058054309093169290911691909117905550620000c69250600791507f707269636573000000000000000000000000000000000000000000000000000090506401000000006200104c6200012f82021704565b6200010160067f726571756972656442616c616e636573000000000000000000000000000000006401000000006200104c6200012f82021704565b505062000185565b8254600160a060020a031916600160a060020a0392909216919091178255600190910155565b6200014982826401000000006200105a6200014d82021704565b5050565b81546200016990826401000000006200106a6200016d82021704565b9055565b811515806200017a575080155b156200014957600080fd5b6110ac80620001956000396000f3006060604052600436106100ed5763ffffffff60e060020a60003504166319ab453c81146100f25780632a2cbf78146101235780634592cd1d1461014f5780634fe590121461017657806353253d31146101a8578063557f4bc9146101bb5780635aa77d3c146101da5780636521afd7146101ed578063709586c11461020e57806371d3b5731461024057806383197ef01461025f57806384509ca814610272578063a6a4339c146102a4578063a843c51f146102d0578063ce606ee0146102ef578063d5224d4414610302578063d8f9659b14610334578063fe9fbb801461038e578063fff10aba146103ad575b600080fd5b34156100fd57600080fd5b610111600160a060020a03600435166103c0565b60405190815260200160405180910390f35b341561012e57600080fd5b610111600160a060020a0360043516600160e060020a03196024351661040f565b341561015a57600080fd5b610162610469565b604051901515815260200160405180910390f35b341561018157600080fd5b61018c6004356104b6565b604051600160a060020a03909116815260200160405180910390f35b34156101b357600080fd5b61018c61053a565b34156101c657600080fd5b610162600160a060020a0360043516610549565b34156101e557600080fd5b61018c6105a0565b34156101f857600080fd5b61020c600160a060020a03600435166105af565b005b341561021957600080fd5b610162600160a060020a0360043581169060243516600160e060020a0319604435166105e5565b341561024b57600080fd5b61020c600160a060020a03600435166106f5565b341561026a57600080fd5b61020c61072c565b341561027d57600080fd5b610111600160a060020a0360043581169060243516600160e060020a0319604435166107c2565b34156102af57600080fd5b610111600160a060020a0360043516600160e060020a0319602435166108eb565b34156102db57600080fd5b610162600160a060020a036004351661093e565b34156102fa57600080fd5b61018c6109b7565b341561030d57600080fd5b61020c600160a060020a0360043516600160e060020a0319602435166044356064356109c6565b341561033f57600080fd5b610111600460248135818101908301358060208181020160405190810160405280939291908181526020018383602002808284375094965050509235600160a060020a03169250610abf915050565b341561039957600080fd5b610162600160a060020a0360043516610c10565b34156103b857600080fd5b61018c610cb6565b60025460009033600160a060020a039081169116141561040a57610404827f466561747572654665654d616e61676572000000000000000000000000000000610cc5565b50600190505b919050565b600061046260068484604051600160a060020a03929092166c01000000000000000000000000028252600160e060020a03191660148201526018016040519081900390206000919063ffffffff610eb616565b9392505050565b60035460009033600160a060020a0390811691161461048a575060006104b3565b506003805460028054600160a060020a0319908116600160a060020a0384161790915516905560015b90565b600454600090600160a060020a031663bc65792783836040516020015260405160e060020a63ffffffff84160281526004810191909152602401602060405180830381600087803b151561050957600080fd5b6102c65a03f1151561051a57600080fd5b5050506040518051915050600160a060020a038116151561040a57600080fd5b600454600160a060020a031681565b60025460009033600160a060020a039081169116141561040a57600160a060020a038216151561057b5750600061040a565b5060038054600160a060020a038316600160a060020a03199091161790556001919050565b600354600160a060020a031681565b60025433600160a060020a03908116911614156105e25760058054600160a060020a031916600160a060020a0383161790555b50565b6000808080600160a060020a03871615156105ff57600080fd5b600160a060020a038616151561061457600080fd5b600160e060020a03198516151561062a57600080fd5b610634868661040f565b925082151561064657600193506106eb565b61066f7f54696d65486f6c646572000000000000000000000000000000000000000000006104b6565b915081600160a060020a031663956501bb8860006040516020015260405160e060020a63ffffffff8416028152600160a060020a039091166004820152602401602060405180830381600087803b15156106c857600080fd5b6102c65a03f115156106d957600080fd5b50505060405180518481101595509150505b5050509392505050565b60025433600160a060020a03908116911614156105e25760048054600160a060020a038316600160a060020a031990911617905550565b60025433600160a060020a03908116911614156107c057600454600160a060020a031663c375c2ef3060006040516020015260405160e060020a63ffffffff8416028152600160a060020a039091166004820152602401602060405180830381600087803b151561079c57600080fd5b6102c65a03f115156107ad57600080fd5b50505060405180519050506107c0610ecb565b565b60008060008532600160a060020a031681600160a060020a031614156106eb57600160a060020a03871615156107f757600080fd5b600160a060020a038616151561080c57600080fd5b600160e060020a03198516151561082257600080fd5b61082c86866108eb565b925082151561083e57600193506106eb565b6108677f54696d65486f6c646572000000000000000000000000000000000000000000006104b6565b915081600160a060020a031663eca87918888560006040516020015260405160e060020a63ffffffff8516028152600160a060020a0390921660048301526024820152604401602060405180830381600087803b15156108c657600080fd5b6102c65a03f115156108d757600080fd5b505050604051805198975050505050505050565b600061046260078484604051600160a060020a03929092166c01000000000000000000000000028252600160e060020a03191660148201526018016040519081900390206000919063ffffffff610eb616565b60025460009033600160a060020a039081169116141561040a57600160a060020a03821615156109705750600061040a565b600354600160a060020a0316156109925760038054600160a060020a03191690555b5060028054600160a060020a038316600160a060020a03199091161790556001919050565b600254600160a060020a031681565b60025433600160a060020a0390811691161415610ab957600160a060020a03841615156109f257600080fd5b600160e060020a031983161515610a0857600080fd5b80821015610a1557600080fd5b610a6760068585604051600160a060020a03929092166c01000000000000000000000000028252600160e060020a0319166014820152601801604051908190039020600091908563ffffffff610eee16565b610ab960078585604051600160a060020a03929092166c01000000000000000000000000028252600160e060020a0319166014820152601801604051908190039020600091908463ffffffff610eee16565b50505050565b60025460009081908190819033600160a060020a0390811691161415610c0757600092505b8551831015610c0257858381518110610af957fe5b90602001906020020151915081600160a060020a03166370a082313060006040516020015260405160e060020a63ffffffff8416028152600160a060020a039091166004820152602401602060405180830381600087803b1515610b5c57600080fd5b6102c65a03f11515610b6d57600080fd5b50505060405180519150508015610bf75781600160a060020a031663a9059cbb868360006040516020015260405160e060020a63ffffffff8516028152600160a060020a0390921660048301526024820152604401602060405180830381600087803b1515610bdb57600080fd5b6102c65a03f11515610bec57600080fd5b505050604051805150505b600190920191610ae4565b600193505b50505092915050565b600080610c3c7f557365724d616e616765720000000000000000000000000000000000000000006104b6565b905080600160a060020a0316632aa09e5a8460006040516020015260405160e060020a63ffffffff8416028152600160a060020a039091166004820152602401602060405180830381600087803b1515610c9557600080fd5b6102c65a03f11515610ca657600080fd5b5050506040518051949350505050565b600554600160a060020a031690565b60025460009081908190819033600160a060020a03908116911614610ce957600080fd5b600160a060020a0386161515610cfe57600080fd5b600454600160a060020a0316158015935080610d285750600454600160a060020a03878116911614155b15610d495760048054600160a060020a031916600160a060020a0388161790555b600454600160a060020a031691508163bc65792760006040516020015260405160e060020a63ffffffff83160281527f4d756c74694576656e7473486973746f727900000000000000000000000000006004820152602401602060405180830381600087803b1515610dba57600080fd5b6102c65a03f11515610dcb57600080fd5b5050506040518051915050600160a060020a03811615801590610dfc5750600554600160a060020a03828116911614155b15610e1d5760058054600160a060020a031916600160a060020a0383161790555b8415610ea45781600160a060020a031663b7c46cd5308760006040516020015260405160e060020a63ffffffff8516028152600160a060020a0390921660048301526024820152604401602060405180830381600087803b1515610e8057600080fd5b6102c65a03f11515610e9157600080fd5b50505060405180516001149050610ea457fe5b8215610c025760069695505050505050565b6000610ec3848484610efa565b949350505050565b60025433600160a060020a03908116911614156107c05733600160a060020a0316ff5b610ab984848484610f94565b825460018401548354600092600160a060020a0316916337d9d7fc9185604051918252602082015260409081019051809103902060006040516020015260405160e060020a63ffffffff851602815260048101929092526024820152604401602060405180830381600087803b1515610f7257600080fd5b6102c65a03f11515610f8357600080fd5b505050604051805195945050505050565b835460018501548454600160a060020a039092169163a14ff85791908560405191825260208201526040908101905180910390208460405160e060020a63ffffffff8616028152600481019390935260248301919091526044820152606401600060405180830381600087803b151561100c57600080fd5b6102c65a03f1151561101d57600080fd5b50505050505050565b8254600160a060020a031916600160a060020a0392909216919091178255600190910155565b611056828261105a565b5050565b8154611066908261106a565b9055565b81151580611076575080155b1561105657600080fd00a165627a7a72305820323734a897f634635061b9b9eae151e494601704b19187612b074b4276ca33160029",
  "source": "pragma solidity ^0.4.11;\n\nimport {ContractsManager as ContractsRegistry} from \"../core/contracts/ContractsManager.sol\";\nimport \"../core/common/BaseManager.sol\";\nimport \"./TimeHolderInterface.sol\";\n\ncontract FeatureFeeManager is BaseManager {\n    StorageInterface.Bytes32UIntMapping requiredBalances;\n    StorageInterface.Bytes32UIntMapping prices;\n\n    modifier checkExecutor(address executor) {\n        if (executor == tx.origin) {\n            _;\n        }\n    }\n\n    function FeatureFeeManager(Storage _store, bytes32 _crate) BaseManager(_store, _crate) {\n        prices.init(\"prices\");\n        requiredBalances.init(\"requiredBalances\");\n    }\n\n    function init(address _contractsManager) onlyContractOwner returns (uint) {\n        BaseManager.init(_contractsManager, \"FeatureFeeManager\");\n        return OK;\n    }\n\n    function setFeatureFee(address code, bytes4 sig, uint requiredBalance, uint price) onlyContractOwner {\n        require(code != 0x0);\n        require(sig != 0x0);\n        require(requiredBalance >= price);\n\n        store.set(requiredBalances, sha3(code, sig), requiredBalance);\n        store.set(prices, sha3(code, sig), price);\n    }\n\n    function requiredBalanceFor(address code, bytes4 sig) constant returns (uint) {\n        return store.get(requiredBalances, sha3(code, sig));\n    }\n\n    function priceOf(address code, bytes4 sig) constant returns (uint) {\n        return store.get(prices, sha3(code, sig));\n    }\n\n    function isExecutionAllowed(address executor, address code, bytes4 featureSig) returns (bool) {\n        require(executor != 0x0);\n        require(code != 0x0);\n        require(featureSig != 0x0);\n\n        uint requiredBalance = requiredBalanceFor(code, featureSig);\n\n        if (requiredBalance == 0) {\n            return true;\n        }\n\n        TimeHolderInterface timeHolder = TimeHolderInterface(lookupManager(\"TimeHolder\"));\n        uint balance = timeHolder.depositBalance(executor);\n\n        return balance >= requiredBalance;\n    }\n\n    function takeExecutionFee(address executor, address code, bytes4 featureSig) checkExecutor(executor) returns (uint) {\n        require(executor != 0x0);\n        require(code != 0x0);\n        require(featureSig != 0x0);\n\n        uint price = priceOf(code, featureSig);\n\n        if (price == 0) {\n            return OK;\n        }\n\n        TimeHolderInterface timeHolder = TimeHolderInterface(lookupManager(\"TimeHolder\"));\n        return timeHolder.takeFeatureFee(executor, price);\n    }\n}\n",
  "sourcePath": "/Users/mikefluff/Documents/Programming/Chronobank/test/SmartContracts/contracts/timeholder/FeatureFeeManager.sol",
  "compiler": {
    "name": "solc",
    "version": "0.4.18+commit.9cf6e910.Emscripten.clang"
  },
  "schemaVersion": "1.0.1",
  "updatedAt": "2018-01-12T11:40:45.483Z"
}