{
  "contractName": "LHT",
  "abi": [
    {
      "constant": false,
      "inputs": [
        {
          "name": "_proxy",
          "type": "address"
        }
      ],
      "name": "init",
      "outputs": [
        {
          "name": "",
          "type": "bool"
        }
      ],
      "payable": false,
      "stateMutability": "nonpayable",
      "type": "function"
    },
    {
      "constant": false,
      "inputs": [
        {
          "name": "_feePercent",
          "type": "uint32"
        }
      ],
      "name": "setFee",
      "outputs": [],
      "payable": false,
      "stateMutability": "nonpayable",
      "type": "function"
    },
    {
      "constant": true,
      "inputs": [],
      "name": "feeAddress",
      "outputs": [
        {
          "name": "",
          "type": "address"
        }
      ],
      "payable": false,
      "stateMutability": "view",
      "type": "function"
    },
    {
      "constant": false,
      "inputs": [],
      "name": "claimContractOwnership",
      "outputs": [
        {
          "name": "",
          "type": "bool"
        }
      ],
      "payable": false,
      "stateMutability": "nonpayable",
      "type": "function"
    },
    {
      "constant": false,
      "inputs": [
        {
          "name": "_to",
          "type": "address"
        }
      ],
      "name": "changeContractOwnership",
      "outputs": [
        {
          "name": "",
          "type": "bool"
        }
      ],
      "payable": false,
      "stateMutability": "nonpayable",
      "type": "function"
    },
    {
      "constant": true,
      "inputs": [],
      "name": "pendingContractOwner",
      "outputs": [
        {
          "name": "",
          "type": "address"
        }
      ],
      "payable": false,
      "stateMutability": "view",
      "type": "function"
    },
    {
      "constant": false,
      "inputs": [
        {
          "name": "_to",
          "type": "address"
        },
        {
          "name": "_value",
          "type": "uint256"
        },
        {
          "name": "_reference",
          "type": "string"
        },
        {
          "name": "_sender",
          "type": "address"
        }
      ],
      "name": "__transferWithReference",
      "outputs": [
        {
          "name": "",
          "type": "bool"
        }
      ],
      "payable": false,
      "stateMutability": "nonpayable",
      "type": "function"
    },
    {
      "constant": false,
      "inputs": [
        {
          "name": "_spender",
          "type": "address"
        },
        {
          "name": "_value",
          "type": "uint256"
        },
        {
          "name": "_sender",
          "type": "address"
        }
      ],
      "name": "__approve",
      "outputs": [
        {
          "name": "",
          "type": "bool"
        }
      ],
      "payable": false,
      "stateMutability": "nonpayable",
      "type": "function"
    },
    {
      "constant": true,
      "inputs": [],
      "name": "feePercent",
      "outputs": [
        {
          "name": "",
          "type": "uint32"
        }
      ],
      "payable": false,
      "stateMutability": "view",
      "type": "function"
    },
    {
      "constant": false,
      "inputs": [],
      "name": "destroy",
      "outputs": [],
      "payable": false,
      "stateMutability": "nonpayable",
      "type": "function"
    },
    {
      "constant": false,
      "inputs": [
        {
          "name": "_feeAddress",
          "type": "address"
        }
      ],
      "name": "setFeeAddress",
      "outputs": [
        {
          "name": "",
          "type": "bool"
        }
      ],
      "payable": false,
      "stateMutability": "nonpayable",
      "type": "function"
    },
    {
      "constant": true,
      "inputs": [
        {
          "name": "_value",
          "type": "uint256"
        }
      ],
      "name": "calculateFee",
      "outputs": [
        {
          "name": "",
          "type": "uint256"
        }
      ],
      "payable": false,
      "stateMutability": "view",
      "type": "function"
    },
    {
      "constant": false,
      "inputs": [
        {
          "name": "_to",
          "type": "address"
        }
      ],
      "name": "transferContractOwnership",
      "outputs": [
        {
          "name": "",
          "type": "bool"
        }
      ],
      "payable": false,
      "stateMutability": "nonpayable",
      "type": "function"
    },
    {
      "constant": false,
      "inputs": [
        {
          "name": "_feeAddress",
          "type": "address"
        },
        {
          "name": "_feePercent",
          "type": "uint32"
        }
      ],
      "name": "setupFee",
      "outputs": [
        {
          "name": "",
          "type": "bool"
        }
      ],
      "payable": false,
      "stateMutability": "nonpayable",
      "type": "function"
    },
    {
      "constant": true,
      "inputs": [],
      "name": "contractOwner",
      "outputs": [
        {
          "name": "",
          "type": "address"
        }
      ],
      "payable": false,
      "stateMutability": "view",
      "type": "function"
    },
    {
      "constant": true,
      "inputs": [],
      "name": "proxy",
      "outputs": [
        {
          "name": "",
          "type": "address"
        }
      ],
      "payable": false,
      "stateMutability": "view",
      "type": "function"
    },
    {
      "constant": false,
      "inputs": [
        {
          "name": "_from",
          "type": "address"
        },
        {
          "name": "_to",
          "type": "address"
        },
        {
          "name": "_value",
          "type": "uint256"
        },
        {
          "name": "_reference",
          "type": "string"
        },
        {
          "name": "_sender",
          "type": "address"
        }
      ],
      "name": "__transferFromWithReference",
      "outputs": [
        {
          "name": "",
          "type": "bool"
        }
      ],
      "payable": false,
      "stateMutability": "nonpayable",
      "type": "function"
    },
    {
      "constant": false,
      "inputs": [
        {
          "name": "_data",
          "type": "bytes"
        },
        {
          "name": "_sender",
          "type": "address"
        }
      ],
      "name": "__process",
      "outputs": [],
      "payable": true,
      "stateMutability": "payable",
      "type": "function"
    }
  ],
  "bytecode": "0x606060405260018054600160a060020a03191633600160a060020a0316179055610c0a8061002e6000396000f3006060604052600436106100e25763ffffffff60e060020a60003504166319ab453c81146100e75780631ab971ab1461011a57806341275358146101385780634592cd1d14610167578063557f4bc91461017a5780635aa77d3c146101995780636a630ee7146101ac5780637b7054c81461021c5780637fd6f15c1461024557806383197ef0146102715780638705fcd41461028457806399a5d747146102a3578063a843c51f146102cb578063ae8800fa146102ea578063ce606ee014610312578063ec55688914610325578063ec698a2814610338578063f2d6e0ab146103af575b600080fd5b34156100f257600080fd5b610106600160a060020a0360043516610400565b604051901515815260200160405180910390f35b341561012557600080fd5b61013663ffffffff6004351661043e565b005b341561014357600080fd5b61014b610499565b604051600160a060020a03909116815260200160405180910390f35b341561017257600080fd5b6101066104a8565b341561018557600080fd5b610106600160a060020a03600435166104f5565b34156101a457600080fd5b61014b61054c565b34156101b757600080fd5b61010660048035600160a060020a03169060248035919060649060443590810190830135806020601f8201819004810201604051908101604052818152929190602084018383808284375094965050509235600160a060020a0316925061055b915050565b341561022757600080fd5b610106600160a060020a03600435811690602435906044351661058a565b341561025057600080fd5b6102586105b7565b60405163ffffffff909116815260200160405180910390f35b341561027c57600080fd5b6101366105db565b341561028f57600080fd5b610106600160a060020a0360043516610600565b34156102ae57600080fd5b6102b960043561065d565b60405190815260200160405180910390f35b34156102d657600080fd5b610106600160a060020a03600435166106a7565b34156102f557600080fd5b610106600160a060020a036004351663ffffffff6024351661071e565b341561031d57600080fd5b61014b610753565b341561033057600080fd5b61014b610762565b341561034357600080fd5b610106600160a060020a036004803582169160248035909116916044359160849060643590810190830135806020601f8201819004810201604051908101604052818152929190602084018383808284375094965050509235600160a060020a03169250610771915050565b61013660046024813581810190830135806020601f8201819004810201604051908101604052818152929190602084018383808284375094965050509235600160a060020a031692506100e2915050565b60008054600160a060020a03161561041a57506000610439565b5060008054600160a060020a031916600160a060020a03831617905560015b919050565b60015433600160a060020a0390811691161415610496576003805477ffffffff000000000000000000000000000000000000000019167401000000000000000000000000000000000000000063ffffffff8416021790555b50565b600354600160a060020a031681565b60025460009033600160a060020a039081169116146104c9575060006104f2565b506002805460018054600160a060020a0319908116600160a060020a0384161782559091169091555b90565b60015460009033600160a060020a039081169116141561043957600160a060020a038216151561052757506000610439565b5060028054600160a060020a038316600160a060020a03199091161790556001919050565b600254600160a060020a031681565b6000805433600160a060020a03908116911614156105825761057f858585856107a2565b90505b949350505050565b6000805433600160a060020a03908116911614156105b0576105ad8484846107bf565b90505b9392505050565b60035474010000000000000000000000000000000000000000900463ffffffff1681565b60015433600160a060020a03908116911614156105fe5733600160a060020a0316ff5b565b60015460009033600160a060020a039081169116141561043957600354600160a060020a038381169116141561063857506000610439565b5060038054600160a060020a038316600160a060020a03199091161790556001919050565b60035460009074010000000000000000000000000000000000000000900463ffffffff168202612710810615610694576001610697565b60005b60ff166127108204019392505050565b60015460009033600160a060020a039081169116141561043957600160a060020a03821615156106d957506000610439565b600254600160a060020a0316156106fb5760028054600160a060020a03191690555b5060018054600160a060020a038316600160a060020a0319909116178155919050565b60015460009033600160a060020a039081169116141561074d576107418261043e565b61074a83610600565b90505b92915050565b600154600160a060020a031681565b600054600160a060020a031681565b6000805433600160a060020a039081169116141561079957610796868686868661084c565b90505b95945050505050565b600061057f8585858560206040519081016040526000815261086a565b60008054600160a060020a0316637b7054c8858585856040516020015260405160e060020a63ffffffff8616028152600160a060020a03938416600482015260248101929092529091166044820152606401602060405180830381600087803b151561082a57600080fd5b6102c65a03f1151561083b57600080fd5b505050604051805195945050505050565b600061079686868686866020604051908101604052600081526108bf565b60008285848461087b848484610916565b156108b25761088c8a8a8a8a610985565b151586528551945080511580156108a857506108a88484610a99565b156108b257600080fd5b5050505095945050505050565b6000868584846108d0848484610916565b15610908576108e28b8b8b8b8b610ad3565b151586528551945080511580156108fe57506108fe8484610a99565b1561090857600080fd5b505050509695505050505050565b60006109228484610a99565b1515610930575060016105b0565b6003546105ad908590600160a060020a031661094b8661065d565b60408051908101604052600f81527f5472616e73616374696f6e206665650000000000000000000000000000000000602082015286610ad3565b60008054600160a060020a0316636a630ee78686868686604051602001526040518563ffffffff1660e060020a0281526004018085600160a060020a0316600160a060020a031681526020018481526020018060200183600160a060020a0316600160a060020a03168152602001828103825284818151815260200191508051906020019080838360005b83811015610a28578082015183820152602001610a10565b50505050905090810190601f168015610a555780820380516001836020036101000a031916815260200191505b5095505050505050602060405180830381600087803b1515610a7657600080fd5b6102c65a03f11515610a8757600080fd5b50505060405180519695505050505050565b600354600090600160a060020a031615801590610ac45750600354600160a060020a03848116911614155b801561074a5750501515919050565b60008054600160a060020a031663ec698a288787878787876040516020015260405160e060020a63ffffffff8816028152600160a060020a0380871660048301908152868216602484015260448301869052908316608483015260a060648301908152909160a40184818151815260200191508051906020019080838360005b83811015610b6b578082015183820152602001610b53565b50505050905090810190601f168015610b985780820380516001836020036101000a031916815260200191505b509650505050505050602060405180830381600087803b1515610bba57600080fd5b6102c65a03f11515610bcb57600080fd5b50505060405180519796505050505050505600a165627a7a72305820d8762ba59277495eb3bab074b030cfc83bcc02120419306451f012be094a12e50029",
  "source": "pragma solidity ^0.4.11;\n\nimport \"../core/platform/ChronoBankAssetWithFee.sol\";\n\n/**\n * @title ChronoBank LHT tokens contract.\n *\n * The official ChronoBank Labour-Hours implementation.\n */\ncontract LHT is ChronoBankAssetWithFee {\n\n}\n",
  "sourcePath": "/Users/mikefluff/Documents/Programming/Chronobank/test/SmartContracts/contracts/assets/LHT.sol",
  "compiler": {
    "name": "solc",
    "version": "0.4.18+commit.9cf6e910.Emscripten.clang"
  },
  "schemaVersion": "1.0.1",
  "updatedAt": "2018-01-12T11:40:44.625Z"
}