{
  "contractName": "Managed",
  "abi": [
    {
      "constant": false,
      "inputs": [],
      "name": "claimContractOwnership",
      "outputs": [
        {
          "name": "",
          "type": "bool"
        }
      ],
      "payable": false,
      "stateMutability": "nonpayable",
      "type": "function"
    },
    {
      "constant": true,
      "inputs": [
        {
          "name": "_identifier",
          "type": "bytes32"
        }
      ],
      "name": "lookupManager",
      "outputs": [
        {
          "name": "manager",
          "type": "address"
        }
      ],
      "payable": false,
      "stateMutability": "view",
      "type": "function"
    },
    {
      "constant": true,
      "inputs": [],
      "name": "contractsManager",
      "outputs": [
        {
          "name": "",
          "type": "address"
        }
      ],
      "payable": false,
      "stateMutability": "view",
      "type": "function"
    },
    {
      "constant": false,
      "inputs": [
        {
          "name": "_to",
          "type": "address"
        }
      ],
      "name": "changeContractOwnership",
      "outputs": [
        {
          "name": "",
          "type": "bool"
        }
      ],
      "payable": false,
      "stateMutability": "nonpayable",
      "type": "function"
    },
    {
      "constant": true,
      "inputs": [],
      "name": "pendingContractOwner",
      "outputs": [
        {
          "name": "",
          "type": "address"
        }
      ],
      "payable": false,
      "stateMutability": "view",
      "type": "function"
    },
    {
      "constant": false,
      "inputs": [
        {
          "name": "_contractsManager",
          "type": "address"
        }
      ],
      "name": "setContractsManager",
      "outputs": [],
      "payable": false,
      "stateMutability": "nonpayable",
      "type": "function"
    },
    {
      "constant": false,
      "inputs": [],
      "name": "destroy",
      "outputs": [],
      "payable": false,
      "stateMutability": "nonpayable",
      "type": "function"
    },
    {
      "constant": false,
      "inputs": [
        {
          "name": "_to",
          "type": "address"
        }
      ],
      "name": "transferContractOwnership",
      "outputs": [
        {
          "name": "",
          "type": "bool"
        }
      ],
      "payable": false,
      "stateMutability": "nonpayable",
      "type": "function"
    },
    {
      "constant": true,
      "inputs": [],
      "name": "contractOwner",
      "outputs": [
        {
          "name": "",
          "type": "address"
        }
      ],
      "payable": false,
      "stateMutability": "view",
      "type": "function"
    },
    {
      "constant": false,
      "inputs": [
        {
          "name": "tokens",
          "type": "address[]"
        },
        {
          "name": "_to",
          "type": "address"
        }
      ],
      "name": "withdrawnTokens",
      "outputs": [
        {
          "name": "",
          "type": "uint256"
        }
      ],
      "payable": false,
      "stateMutability": "nonpayable",
      "type": "function"
    },
    {
      "constant": true,
      "inputs": [
        {
          "name": "key",
          "type": "address"
        }
      ],
      "name": "isAuthorized",
      "outputs": [
        {
          "name": "",
          "type": "bool"
        }
      ],
      "payable": false,
      "stateMutability": "view",
      "type": "function"
    },
    {
      "inputs": [
        {
          "name": "_store",
          "type": "address"
        },
        {
          "name": "_crate",
          "type": "bytes32"
        }
      ],
      "payable": false,
      "stateMutability": "nonpayable",
      "type": "constructor"
    }
  ],
  "bytecode": "0x6060604052341561000f57600080fd5b60405160408061074283398101604052808051919060200180519150829050816100486000838364010000000061064e61006d82021704565b505060028054600160a060020a03191633600160a060020a0316179055506100939050565b8254600160a060020a031916600160a060020a0392909216919091178255600190910155565b6106a0806100a26000396000f3006060604052600436106100955763ffffffff60e060020a6000350416634592cd1d811461009a5780634fe59012146100c157806353253d31146100f3578063557f4bc9146101065780635aa77d3c1461012557806371d3b5731461013857806383197ef014610159578063a843c51f1461016c578063ce606ee01461018b578063d8f9659b1461019e578063fe9fbb801461020a575b600080fd5b34156100a557600080fd5b6100ad610229565b604051901515815260200160405180910390f35b34156100cc57600080fd5b6100d7600435610276565b604051600160a060020a03909116815260200160405180910390f35b34156100fe57600080fd5b6100d76102ff565b341561011157600080fd5b6100ad600160a060020a036004351661030e565b341561013057600080fd5b6100d7610365565b341561014357600080fd5b610157600160a060020a0360043516610374565b005b341561016457600080fd5b6101576103aa565b341561017757600080fd5b6100ad600160a060020a03600435166103cf565b341561019657600080fd5b6100d7610448565b34156101a957600080fd5b6101f8600460248135818101908301358060208181020160405190810160405280939291908181526020018383602002808284375094965050509235600160a060020a03169250610457915050565b60405190815260200160405180910390f35b341561021557600080fd5b6100ad600160a060020a03600435166105a8565b60035460009033600160a060020a0390811691161461024a57506000610273565b506003805460028054600160a060020a0319908116600160a060020a0384161790915516905560015b90565b600454600090600160a060020a031663bc65792783836040516020015260405160e060020a63ffffffff84160281526004810191909152602401602060405180830381600087803b15156102c957600080fd5b6102c65a03f115156102da57600080fd5b5050506040518051915050600160a060020a03811615156102fa57600080fd5b919050565b600454600160a060020a031681565b60025460009033600160a060020a03908116911614156102fa57600160a060020a0382161515610340575060006102fa565b5060038054600160a060020a038316600160a060020a03199091161790556001919050565b600354600160a060020a031681565b60025433600160a060020a03908116911614156103a75760048054600160a060020a031916600160a060020a0383161790555b50565b60025433600160a060020a03908116911614156103cd5733600160a060020a0316ff5b565b60025460009033600160a060020a03908116911614156102fa57600160a060020a0382161515610401575060006102fa565b600354600160a060020a0316156104235760038054600160a060020a03191690555b5060028054600160a060020a038316600160a060020a03199091161790556001919050565b600254600160a060020a031681565b60025460009081908190819033600160a060020a039081169116141561059f57600092505b855183101561059a5785838151811061049157fe5b90602001906020020151915081600160a060020a03166370a082313060006040516020015260405160e060020a63ffffffff8416028152600160a060020a039091166004820152602401602060405180830381600087803b15156104f457600080fd5b6102c65a03f1151561050557600080fd5b5050506040518051915050801561058f5781600160a060020a031663a9059cbb868360006040516020015260405160e060020a63ffffffff8516028152600160a060020a0390921660048301526024820152604401602060405180830381600087803b151561057357600080fd5b6102c65a03f1151561058457600080fd5b505050604051805150505b60019092019161047c565b600193505b50505092915050565b6000806105d47f557365724d616e61676572000000000000000000000000000000000000000000610276565b905080600160a060020a0316632aa09e5a8460006040516020015260405160e060020a63ffffffff8416028152600160a060020a039091166004820152602401602060405180830381600087803b151561062d57600080fd5b6102c65a03f1151561063e57600080fd5b5050506040518051949350505050565b8254600160a060020a031916600160a060020a03929092169190911782556001909101555600a165627a7a7230582031ab7c92ebe31750c553a1402369a0df34509e1f4ca41141eca2414f10c603b90029",
  "source": "pragma solidity ^0.4.11;\n\nimport \"./Object.sol\";\nimport {PendingManagerInterface as Shareable} from \"../../pending/PendingManagerInterface.sol\";\nimport \"../user/UserManagerInterface.sol\";\nimport \"../contracts/ContractsManagerInterface.sol\";\nimport \"../storage/StorageAdapter.sol\";\n\ncontract Managed is StorageAdapter, Object {\n    address public contractsManager;\n\n    uint constant UNAUTHORIZED = 0;\n    uint constant MULTISIG_ADDED = 3;\n    uint constant INTERNAL_ERROR = 4;\n\n    modifier onlyAuthorized() {\n        if (isAuthorized(msg.sender)) {\n            _;\n        }\n    }\n\n    modifier onlyAuthorizedContract(address key) {\n        if (isAuthorized(key) || msg.sender == lookupManager(\"PendingManager\")) {\n            _;\n        }\n    }\n\n    function Managed(Storage _store, bytes32 _crate) StorageAdapter(_store, _crate) {\n    }\n\n    /**\n    *  @dev Setter for ContractsManager. Force overrides currect manager.\n    *\n    *  @param _contractsManager contracts manager. 0x0 is not allowed.\n    */\n    function setContractsManager(address _contractsManager) onlyContractOwner {\n        contractsManager = _contractsManager;\n    }\n\n    /**\n    *  @notice Will crash if no manager in the system with given identifier.\n    *\n    *  @dev Returns manager's address by its identifier (type).\n    *\n    *  @param _identifier is a manager's identifier. 0x0 is not allowed.\n    */\n    function lookupManager(bytes32 _identifier) constant returns (address manager) {\n        manager =  ContractsManagerInterface(contractsManager).getContractAddressByType(_identifier);\n\n        // invalid identifier or initialization error. no way to continue.\n        require(manager != 0x0);\n    }\n\n    function isAuthorized(address key) constant returns (bool) {\n        address userManager = lookupManager(\"UserManager\");\n        return UserManagerInterface(userManager).getCBE(key);\n    }\n\n    function multisig() internal returns (uint errorCode) {\n        address shareable = lookupManager(\"PendingManager\");\n\n        if (msg.sender != shareable) {\n            bytes32 _r = sha3(msg.data);\n            errorCode = Shareable(shareable).addTx(_r, msg.data, this, msg.sender);\n\n            return (errorCode == OK) ? MULTISIG_ADDED : errorCode;\n        }\n\n        return OK;\n    }\n}\n",
  "sourcePath": "/Users/ahiatsevich/Development/chronobank/SmartContracts/contracts/core/common/Managed.sol",
  "compiler": {
    "name": "solc",
    "version": "0.4.18+commit.9cf6e910.Emscripten.clang"
  },
  "schemaVersion": "1.0.1",
  "updatedAt": "2018-01-11T22:35:11.391Z"
}