{
  "contractName": "ManagerMock",
  "abi": [
    {
      "constant": false,
      "inputs": [
        {
          "name": "",
          "type": "address"
        },
        {
          "name": "",
          "type": "bytes32"
        }
      ],
      "name": "isAllowed",
      "outputs": [
        {
          "name": "",
          "type": "bool"
        }
      ],
      "payable": false,
      "stateMutability": "nonpayable",
      "type": "function"
    },
    {
      "constant": true,
      "inputs": [
        {
          "name": "",
          "type": "address"
        }
      ],
      "name": "hasAccess",
      "outputs": [
        {
          "name": "",
          "type": "bool"
        }
      ],
      "payable": false,
      "stateMutability": "pure",
      "type": "function"
    },
    {
      "constant": false,
      "inputs": [],
      "name": "deny",
      "outputs": [],
      "payable": false,
      "stateMutability": "nonpayable",
      "type": "function"
    }
  ],
  "bytecode": "0x6060604052341561000f57600080fd5b6101468061001e6000396000f3006060604052600436106100565763ffffffff7c01000000000000000000000000000000000000000000000000000000006000350416635cb8dd09811461005b57806395a078e81461009e578063a3fdfee3146100ca575b600080fd5b341561006657600080fd5b61008a73ffffffffffffffffffffffffffffffffffffffff600435166024356100df565b604051901515815260200160405180910390f35b34156100a957600080fd5b61008a73ffffffffffffffffffffffffffffffffffffffff60043516610105565b34156100d557600080fd5b6100dd61010b565b005b6000805460ff16156100fb57506000805460ff191681556100ff565b5060015b92915050565b50600190565b6000805460ff191660011790555600a165627a7a7230582074658821909c5aa1a887b195b1828f5ddd3478a4c6c0733fa5e4c56de7cc7f120029",
  "source": "pragma solidity ^0.4.11;\n\ncontract ManagerMock {\n    bool denied;\n\n    function deny() public {\n        denied = true;\n    }\n\n    function isAllowed(address, bytes32) public returns (bool) {\n        if (denied) {\n            denied = false;\n            return false;\n        }\n        return true;\n    }\n\n    function hasAccess(address) public pure returns(bool) {\n        return true;\n    }\n}\n",
  "sourcePath": "/Users/ahiatsevich/Development/chronobank/SmartContracts/contracts/helpers/ManagerMock.sol",
  "compiler": {
    "name": "solc",
    "version": "0.4.18+commit.9cf6e910.Emscripten.clang"
  },
  "schemaVersion": "1.0.1",
  "updatedAt": "2018-01-11T22:35:11.795Z"
}