{
  "contractName": "multiowned",
  "abi": [
    {
      "constant": false,
      "inputs": [
        {
          "name": "errorCode",
          "type": "uint256"
        }
      ],
      "name": "_emitError",
      "outputs": [
        {
          "name": "",
          "type": "uint256"
        }
      ],
      "payable": false,
      "stateMutability": "nonpayable",
      "type": "function"
    },
    {
      "constant": false,
      "inputs": [
        {
          "name": "owner",
          "type": "address"
        },
        {
          "name": "value",
          "type": "uint256"
        },
        {
          "name": "to",
          "type": "address"
        },
        {
          "name": "symbol",
          "type": "bytes32"
        }
      ],
      "name": "_emitSingleTransact",
      "outputs": [],
      "payable": false,
      "stateMutability": "nonpayable",
      "type": "function"
    },
    {
      "constant": false,
      "inputs": [
        {
          "name": "newOwner",
          "type": "address"
        }
      ],
      "name": "emitOwnerAdded",
      "outputs": [],
      "payable": false,
      "stateMutability": "nonpayable",
      "type": "function"
    },
    {
      "constant": false,
      "inputs": [
        {
          "name": "owner",
          "type": "address"
        },
        {
          "name": "operation",
          "type": "bytes32"
        }
      ],
      "name": "emitConfirmation",
      "outputs": [],
      "payable": false,
      "stateMutability": "nonpayable",
      "type": "function"
    },
    {
      "constant": false,
      "inputs": [
        {
          "name": "_owner",
          "type": "address"
        }
      ],
      "name": "removeOwner",
      "outputs": [
        {
          "name": "",
          "type": "uint256"
        }
      ],
      "payable": false,
      "stateMutability": "nonpayable",
      "type": "function"
    },
    {
      "constant": false,
      "inputs": [
        {
          "name": "from",
          "type": "address"
        },
        {
          "name": "value",
          "type": "uint256"
        }
      ],
      "name": "emitDeposit",
      "outputs": [],
      "payable": false,
      "stateMutability": "nonpayable",
      "type": "function"
    },
    {
      "constant": true,
      "inputs": [
        {
          "name": "_addr",
          "type": "address"
        }
      ],
      "name": "isOwner",
      "outputs": [
        {
          "name": "",
          "type": "bool"
        }
      ],
      "payable": false,
      "stateMutability": "view",
      "type": "function"
    },
    {
      "constant": false,
      "inputs": [],
      "name": "toggle2FA",
      "outputs": [
        {
          "name": "",
          "type": "uint256"
        }
      ],
      "payable": false,
      "stateMutability": "nonpayable",
      "type": "function"
    },
    {
      "constant": true,
      "inputs": [],
      "name": "m_numOwners",
      "outputs": [
        {
          "name": "",
          "type": "uint256"
        }
      ],
      "payable": false,
      "stateMutability": "view",
      "type": "function"
    },
    {
      "constant": false,
      "inputs": [
        {
          "name": "newRequirement",
          "type": "uint256"
        }
      ],
      "name": "emitRequirementChanged",
      "outputs": [],
      "payable": false,
      "stateMutability": "nonpayable",
      "type": "function"
    },
    {
      "constant": false,
      "inputs": [
        {
          "name": "enabled",
          "type": "bool"
        }
      ],
      "name": "emit2FAChanged",
      "outputs": [],
      "payable": false,
      "stateMutability": "nonpayable",
      "type": "function"
    },
    {
      "constant": false,
      "inputs": [
        {
          "name": "owner",
          "type": "address"
        },
        {
          "name": "operation",
          "type": "bytes32"
        },
        {
          "name": "value",
          "type": "uint256"
        },
        {
          "name": "to",
          "type": "address"
        },
        {
          "name": "symbol",
          "type": "bytes32"
        }
      ],
      "name": "emitMultiTransact",
      "outputs": [],
      "payable": false,
      "stateMutability": "nonpayable",
      "type": "function"
    },
    {
      "constant": true,
      "inputs": [],
      "name": "version",
      "outputs": [
        {
          "name": "",
          "type": "uint256"
        }
      ],
      "payable": false,
      "stateMutability": "view",
      "type": "function"
    },
    {
      "constant": false,
      "inputs": [
        {
          "name": "operation",
          "type": "bytes32"
        },
        {
          "name": "initiator",
          "type": "address"
        },
        {
          "name": "value",
          "type": "uint256"
        },
        {
          "name": "to",
          "type": "address"
        },
        {
          "name": "symbol",
          "type": "bytes32"
        }
      ],
      "name": "_emitConfirmationNeeded",
      "outputs": [],
      "payable": false,
      "stateMutability": "nonpayable",
      "type": "function"
    },
    {
      "constant": false,
      "inputs": [
        {
          "name": "oldOwner",
          "type": "address"
        },
        {
          "name": "newOwner",
          "type": "address"
        }
      ],
      "name": "emitOwnerChanged",
      "outputs": [],
      "payable": false,
      "stateMutability": "nonpayable",
      "type": "function"
    },
    {
      "constant": false,
      "inputs": [
        {
          "name": "oldOwner",
          "type": "address"
        }
      ],
      "name": "emitOwnerRemoved",
      "outputs": [],
      "payable": false,
      "stateMutability": "nonpayable",
      "type": "function"
    },
    {
      "constant": false,
      "inputs": [
        {
          "name": "owner",
          "type": "address"
        },
        {
          "name": "operation",
          "type": "bytes32"
        }
      ],
      "name": "_emitConfirmation",
      "outputs": [],
      "payable": false,
      "stateMutability": "nonpayable",
      "type": "function"
    },
    {
      "constant": false,
      "inputs": [
        {
          "name": "_owner",
          "type": "address"
        }
      ],
      "name": "addOwner",
      "outputs": [
        {
          "name": "",
          "type": "uint256"
        }
      ],
      "payable": false,
      "stateMutability": "nonpayable",
      "type": "function"
    },
    {
      "constant": true,
      "inputs": [],
      "name": "m_required",
      "outputs": [
        {
          "name": "",
          "type": "uint256"
        }
      ],
      "payable": false,
      "stateMutability": "view",
      "type": "function"
    },
    {
      "constant": false,
      "inputs": [
        {
          "name": "owner",
          "type": "address"
        },
        {
          "name": "value",
          "type": "uint256"
        },
        {
          "name": "to",
          "type": "address"
        },
        {
          "name": "symbol",
          "type": "bytes32"
        }
      ],
      "name": "emitSingleTransact",
      "outputs": [],
      "payable": false,
      "stateMutability": "nonpayable",
      "type": "function"
    },
    {
      "constant": false,
      "inputs": [
        {
          "name": "oldOwner",
          "type": "address"
        }
      ],
      "name": "_emitOwnerRemoved",
      "outputs": [],
      "payable": false,
      "stateMutability": "nonpayable",
      "type": "function"
    },
    {
      "constant": false,
      "inputs": [
        {
          "name": "owner",
          "type": "address"
        },
        {
          "name": "operation",
          "type": "bytes32"
        }
      ],
      "name": "_emitRevoke",
      "outputs": [],
      "payable": false,
      "stateMutability": "nonpayable",
      "type": "function"
    },
    {
      "constant": true,
      "inputs": [],
      "name": "use2FA",
      "outputs": [
        {
          "name": "",
          "type": "bool"
        }
      ],
      "payable": false,
      "stateMutability": "view",
      "type": "function"
    },
    {
      "constant": false,
      "inputs": [
        {
          "name": "enabled",
          "type": "bool"
        }
      ],
      "name": "_emit2FAChanged",
      "outputs": [],
      "payable": false,
      "stateMutability": "nonpayable",
      "type": "function"
    },
    {
      "constant": false,
      "inputs": [
        {
          "name": "_operation",
          "type": "bytes32"
        }
      ],
      "name": "revoke",
      "outputs": [
        {
          "name": "",
          "type": "uint256"
        }
      ],
      "payable": false,
      "stateMutability": "nonpayable",
      "type": "function"
    },
    {
      "constant": false,
      "inputs": [
        {
          "name": "_newRequired",
          "type": "uint256"
        }
      ],
      "name": "changeRequirement",
      "outputs": [
        {
          "name": "",
          "type": "uint256"
        }
      ],
      "payable": false,
      "stateMutability": "nonpayable",
      "type": "function"
    },
    {
      "constant": false,
      "inputs": [
        {
          "name": "newRequirement",
          "type": "uint256"
        }
      ],
      "name": "_emitRequirementChanged",
      "outputs": [],
      "payable": false,
      "stateMutability": "nonpayable",
      "type": "function"
    },
    {
      "constant": false,
      "inputs": [
        {
          "name": "newOwner",
          "type": "address"
        }
      ],
      "name": "_emitOwnerAdded",
      "outputs": [],
      "payable": false,
      "stateMutability": "nonpayable",
      "type": "function"
    },
    {
      "constant": true,
      "inputs": [
        {
          "name": "_operation",
          "type": "bytes32"
        },
        {
          "name": "_owner",
          "type": "address"
        }
      ],
      "name": "hasConfirmed",
      "outputs": [
        {
          "name": "",
          "type": "bool"
        }
      ],
      "payable": false,
      "stateMutability": "view",
      "type": "function"
    },
    {
      "constant": true,
      "inputs": [
        {
          "name": "ownerIndex",
          "type": "uint256"
        }
      ],
      "name": "getOwner",
      "outputs": [
        {
          "name": "",
          "type": "address"
        }
      ],
      "payable": false,
      "stateMutability": "view",
      "type": "function"
    },
    {
      "constant": false,
      "inputs": [
        {
          "name": "owner",
          "type": "address"
        },
        {
          "name": "operation",
          "type": "bytes32"
        }
      ],
      "name": "emitRevoke",
      "outputs": [],
      "payable": false,
      "stateMutability": "nonpayable",
      "type": "function"
    },
    {
      "constant": false,
      "inputs": [
        {
          "name": "oldOwner",
          "type": "address"
        },
        {
          "name": "newOwner",
          "type": "address"
        }
      ],
      "name": "_emitOwnerChanged",
      "outputs": [],
      "payable": false,
      "stateMutability": "nonpayable",
      "type": "function"
    },
    {
      "constant": false,
      "inputs": [
        {
          "name": "errorCode",
          "type": "uint256"
        }
      ],
      "name": "emitError",
      "outputs": [],
      "payable": false,
      "stateMutability": "nonpayable",
      "type": "function"
    },
    {
      "constant": false,
      "inputs": [
        {
          "name": "from",
          "type": "address"
        },
        {
          "name": "value",
          "type": "uint256"
        }
      ],
      "name": "_emitDeposit",
      "outputs": [],
      "payable": false,
      "stateMutability": "nonpayable",
      "type": "function"
    },
    {
      "constant": false,
      "inputs": [
        {
          "name": "operation",
          "type": "bytes32"
        },
        {
          "name": "initiator",
          "type": "address"
        },
        {
          "name": "value",
          "type": "uint256"
        },
        {
          "name": "to",
          "type": "address"
        },
        {
          "name": "symbol",
          "type": "bytes32"
        }
      ],
      "name": "emitConfirmationNeeded",
      "outputs": [],
      "payable": false,
      "stateMutability": "nonpayable",
      "type": "function"
    },
    {
      "constant": false,
      "inputs": [
        {
          "name": "_from",
          "type": "address"
        },
        {
          "name": "_to",
          "type": "address"
        }
      ],
      "name": "changeOwner",
      "outputs": [
        {
          "name": "",
          "type": "uint256"
        }
      ],
      "payable": false,
      "stateMutability": "nonpayable",
      "type": "function"
    },
    {
      "constant": false,
      "inputs": [
        {
          "name": "owner",
          "type": "address"
        },
        {
          "name": "operation",
          "type": "bytes32"
        },
        {
          "name": "value",
          "type": "uint256"
        },
        {
          "name": "to",
          "type": "address"
        },
        {
          "name": "symbol",
          "type": "bytes32"
        }
      ],
      "name": "_emitMultiTransact",
      "outputs": [],
      "payable": false,
      "stateMutability": "nonpayable",
      "type": "function"
    },
    {
      "constant": true,
      "inputs": [],
      "name": "getEventsHistory",
      "outputs": [
        {
          "name": "",
          "type": "address"
        }
      ],
      "payable": false,
      "stateMutability": "view",
      "type": "function"
    },
    {
      "inputs": [
        {
          "name": "_owners",
          "type": "address[]"
        },
        {
          "name": "_required",
          "type": "uint256"
        }
      ],
      "payable": false,
      "stateMutability": "nonpayable",
      "type": "constructor"
    },
    {
      "anonymous": false,
      "inputs": [
        {
          "indexed": true,
          "name": "self",
          "type": "address"
        },
        {
          "indexed": false,
          "name": "from",
          "type": "address"
        },
        {
          "indexed": false,
          "name": "value",
          "type": "uint256"
        }
      ],
      "name": "MultisigWalletDeposit",
      "type": "event"
    },
    {
      "anonymous": false,
      "inputs": [
        {
          "indexed": true,
          "name": "self",
          "type": "address"
        },
        {
          "indexed": true,
          "name": "owner",
          "type": "address"
        },
        {
          "indexed": false,
          "name": "value",
          "type": "uint256"
        },
        {
          "indexed": false,
          "name": "to",
          "type": "address"
        },
        {
          "indexed": false,
          "name": "symbol",
          "type": "bytes32"
        }
      ],
      "name": "MultisigWalletSingleTransact",
      "type": "event"
    },
    {
      "anonymous": false,
      "inputs": [
        {
          "indexed": true,
          "name": "self",
          "type": "address"
        },
        {
          "indexed": true,
          "name": "owner",
          "type": "address"
        },
        {
          "indexed": false,
          "name": "operation",
          "type": "bytes32"
        },
        {
          "indexed": false,
          "name": "value",
          "type": "uint256"
        },
        {
          "indexed": false,
          "name": "to",
          "type": "address"
        },
        {
          "indexed": false,
          "name": "symbol",
          "type": "bytes32"
        }
      ],
      "name": "MultisigWalletMultiTransact",
      "type": "event"
    },
    {
      "anonymous": false,
      "inputs": [
        {
          "indexed": true,
          "name": "self",
          "type": "address"
        },
        {
          "indexed": false,
          "name": "operation",
          "type": "bytes32"
        },
        {
          "indexed": true,
          "name": "initiator",
          "type": "address"
        },
        {
          "indexed": false,
          "name": "value",
          "type": "uint256"
        },
        {
          "indexed": false,
          "name": "to",
          "type": "address"
        },
        {
          "indexed": false,
          "name": "symbol",
          "type": "bytes32"
        }
      ],
      "name": "MultisigWalletConfirmationNeeded",
      "type": "event"
    },
    {
      "anonymous": false,
      "inputs": [
        {
          "indexed": true,
          "name": "self",
          "type": "address"
        },
        {
          "indexed": true,
          "name": "owner",
          "type": "address"
        },
        {
          "indexed": false,
          "name": "operation",
          "type": "bytes32"
        }
      ],
      "name": "MultisigWalletConfirmation",
      "type": "event"
    },
    {
      "anonymous": false,
      "inputs": [
        {
          "indexed": true,
          "name": "self",
          "type": "address"
        },
        {
          "indexed": true,
          "name": "owner",
          "type": "address"
        },
        {
          "indexed": false,
          "name": "operation",
          "type": "bytes32"
        }
      ],
      "name": "MultisigWalletRevoke",
      "type": "event"
    },
    {
      "anonymous": false,
      "inputs": [
        {
          "indexed": true,
          "name": "self",
          "type": "address"
        },
        {
          "indexed": true,
          "name": "oldOwner",
          "type": "address"
        },
        {
          "indexed": true,
          "name": "newOwner",
          "type": "address"
        }
      ],
      "name": "MultisigWalletOwnerChanged",
      "type": "event"
    },
    {
      "anonymous": false,
      "inputs": [
        {
          "indexed": true,
          "name": "self",
          "type": "address"
        },
        {
          "indexed": true,
          "name": "newOwner",
          "type": "address"
        }
      ],
      "name": "MultisigWalletOwnerAdded",
      "type": "event"
    },
    {
      "anonymous": false,
      "inputs": [
        {
          "indexed": true,
          "name": "self",
          "type": "address"
        },
        {
          "indexed": true,
          "name": "oldOwner",
          "type": "address"
        }
      ],
      "name": "MultisigWalletOwnerRemoved",
      "type": "event"
    },
    {
      "anonymous": false,
      "inputs": [
        {
          "indexed": true,
          "name": "self",
          "type": "address"
        },
        {
          "indexed": false,
          "name": "newRequirement",
          "type": "uint256"
        }
      ],
      "name": "MultisigWalletRequirementChanged",
      "type": "event"
    },
    {
      "anonymous": false,
      "inputs": [
        {
          "indexed": true,
          "name": "self",
          "type": "address"
        },
        {
          "indexed": false,
          "name": "enabled",
          "type": "bool"
        }
      ],
      "name": "MultisigWallet2FAChanged",
      "type": "event"
    },
    {
      "anonymous": false,
      "inputs": [
        {
          "indexed": true,
          "name": "self",
          "type": "address"
        },
        {
          "indexed": false,
          "name": "errorCode",
          "type": "uint256"
        }
      ],
      "name": "Error",
      "type": "event"
    }
  ],
  "bytecode": "0x606060405234156200001057600080fd5b60405162001b1038038062001b1083398101604052808051820191906020018051915060009050825115156200004557600080fd5b5060005b8251811015620000d4578281815181106200006057fe5b90602001906020020151600160a060020a031660056001830161010081106200008557fe5b01556001810161010560008584815181106200009d57fe5b90602001906020020151600160a060020a031681526020810191909152604001600020556003805460019081019091550162000049565b6003548211620000e9576002829055620000f0565b6003546002555b505050611a0d80620001036000396000f3006060604052600436106101be5763ffffffff60e060020a60003504166306d4427881146101c35780630bcfdf47146101eb57806311673db91461021957806314da079714610238578063173825d91461025a57806328ba84ca146102795780632f54bf6e1461029b5780633311f99a146102ce5780634123cb6b146102e1578063418cbda9146102f45780634367f19a1461030a5780634f39cb531461032257806354fd4d5014610352578063557027ba146103655780635b0b6f6614610394578063660918ca146102195780636c004411146103b95780637065cb48146103db578063746c9171146103fa57806376583f661461040d57806390606e301461043957806393b50d98146104585780639d2a43ad1461047a578063b6e4c5bf1461048d578063b75c7dc6146104a5578063ba51a6df146104bb578063babdd811146104d1578063c28d11ca14610439578063c2cf7326146104e7578063c41a360a14610509578063d45547371461053b578063d5b3c27a1461055d578063df26ca0814610582578063e037fc9014610598578063eb559c14146105ba578063f00d4b5d146105e9578063ff55ed6d1461060e578063fff10aba1461063e575b600080fd5b34156101ce57600080fd5b6101d9600435610651565b60405190815260200160405180910390f35b34156101f657600080fd5b610217600160a060020a0360043581169060243590604435166064356106ba565b005b341561022457600080fd5b610217600160a060020a0360043516610743565b341561024357600080fd5b610217600160a060020a036004351660243561078d565b341561026557600080fd5b6101d9600160a060020a03600435166107df565b341561028457600080fd5b610217600160a060020a03600435166024356108f7565b34156102a657600080fd5b6102ba600160a060020a0360043516610950565b604051901515815260200160405180910390f35b34156102d957600080fd5b6101d961096d565b34156102ec57600080fd5b6101d9610c2d565b34156102ff57600080fd5b610217600435610c33565b341561031557600080fd5b6102176004351515610c7a565b341561032d57600080fd5b610217600160a060020a03600435811690602435906044359060643516608435610cc3565b341561035d57600080fd5b6101d9610d3e565b341561037057600080fd5b610217600435600160a060020a036024358116906044359060643516608435610d44565b341561039f57600080fd5b610217600160a060020a0360043581169060243516610dd5565b34156103c457600080fd5b610217600160a060020a0360043516602435610e2a565b34156103e657600080fd5b6101d9600160a060020a0360043516610e9d565b341561040557600080fd5b6101d9610fbb565b341561041857600080fd5b610217600160a060020a036004358116906024359060443516606435610fc1565b341561044457600080fd5b610217600160a060020a0360043516611031565b341561046357600080fd5b610217600160a060020a036004351660243561109d565b341561048557600080fd5b6102ba6110f8565b341561049857600080fd5b6102176004351515611108565b34156104b057600080fd5b6101d9600435611155565b34156104c657600080fd5b6101d96004356111e1565b34156104dc57600080fd5b610217600435611278565b34156104f257600080fd5b6102ba600435600160a060020a03602435166112c5565b341561051457600080fd5b61051f60043561131a565b604051600160a060020a03909116815260200160405180910390f35b341561054657600080fd5b610217600160a060020a0360043516602435611335565b341561056857600080fd5b610217600160a060020a0360043581169060243516611387565b341561058d57600080fd5b6102176004356113e4565b34156105a357600080fd5b610217600160a060020a036004351660243561142b565b34156105c557600080fd5b610217600435600160a060020a036024358116906044359060643516608435611486565b34156105f457600080fd5b6101d9600160a060020a0360043581169060243516611501565b341561061957600080fd5b610217600160a060020a03600435811690602435906044359060643516608435611625565b341561064957600080fd5b61051f61169e565b600061065b61169e565b600160a060020a031663df26ca088360405160e060020a63ffffffff84160281526004810191909152602401600060405180830381600087803b15156106a057600080fd5b6102c65a03f115156106b157600080fd5b50929392505050565b6106c261169e565b600160a060020a03166376583f668585858560405160e060020a63ffffffff8716028152600160a060020a0394851660048201526024810193909352921660448201526064810191909152608401600060405180830381600087803b151561072957600080fd5b6102c65a03f1151561073a57600080fd5b50505050505050565b80600160a060020a03166107556116ae565b600160a060020a03167ffda769962711e3e34f112435e5900b6f209a31363e82cdbb4bf28ef0fe810baf60405160405180910390a350565b81600160a060020a031661079f6116ae565b600160a060020a03167f619980af4e2d2067d8772c53365a0449d1bdd2ccd48b6e504ea1cab5a50ca7528360405190815260200160405180910390a35050565b600080600080600160149054906101000a900460ff1615610809576136ba90508060005260206000f35b60015460a060020a900460ff161561081d57fe5b6108436000366040518083838082843782019150509250505060405180910390206116b2565b92506001831461085d5761085683610651565b93506108ef565b600160a060020a03851660009081526101056020526040902054915081151561088b576108566136bc610651565b60016003540360025411156108a5576108566136ba610651565b600060058361010081106108b557fe5b0155600160a060020a038516600090815261010560205260408120556108d96117df565b6108e1611866565b6108ea85611031565b600193505b505050919050565b6108ff6116ae565b600160a060020a03167fbee6d2975bcdff8dc26bc64942959415ca30aff94e84977a5954a760da30fbfe8383604051600160a060020a03909216825260208201526040908101905180910390a25050565b600160a060020a0316600090815261010560205260408120541190565b600160a060020a0333166000908152610105602052604081205481908190819015156109a55761099e6136bc610651565b9350610c27565b600154600160a060020a031663bc6579277f57616c6c6574734d616e6167657200000000000000000000000000000000000060006040516020015260405160e060020a63ffffffff84160281526004810191909152602401602060405180830381600087803b1515610a1657600080fd5b6102c65a03f11515610a2757600080fd5b5050506040518051935050600160a060020a03831663b18b78dd6000604051602001526040518163ffffffff1660e060020a028152600401602060405180830381600087803b1515610a7857600080fd5b6102c65a03f11515610a8957600080fd5b5050506040518051925050600160a060020a0382161515610aaf5761099e6136ba610651565b60015460a060020a900460ff16158015610acb57506002546001145b15610b4c576001805474ff0000000000000000000000000000000000000000191660a060020a17905560028055610b006117df565b6003805460010190819055600160a060020a038316906005906101008110610b2457fe5b0155600354600160a060020a0383166000908152610105602052604090205560019350610c27565b60015460a060020a900460ff168015610b6757506002546002145b8015610b8c5750600160a060020a038216600090815261010560205260409020546001145b15610c1157506001805474ff000000000000000000000000000000000000000019168155600255600160a060020a03811660009081526101056020526040812054906005826101008110610bdc57fe5b0155600160a060020a03821660009081526101056020526040812055610c006117df565b610c08611866565b60019350610c27565b600154610c279060a060020a900460ff16611108565b50505090565b60035481565b610c3b6116ae565b600160a060020a03167fb26123dbf7a81d26e5f647fcaabebe1583079e0c43904aae3954496eba952c4a8260405190815260200160405180910390a250565b610c826116ae565b600160a060020a03167f3c05c875f0fe54dcedd51664a7ceb9a463f3b1f1bbf04bdd0a1c15c1758967b182604051901515815260200160405180910390a250565b84600160a060020a0316610cd56116ae565b600160a060020a03167fec604b4a62b21dd5d4021a01def168795513550bcf89c8fac0363bee0e763ca6868686866040519384526020840192909252600160a060020a031660408084019190915260608301919091526080909101905180910390a35050505050565b60045481565b610d4c61169e565b600160a060020a031663eb559c14868686868660405160e060020a63ffffffff88160281526004810195909552600160a060020a03938416602486015260448501929092529091166064830152608482015260a401600060405180830381600087803b1515610dba57600080fd5b6102c65a03f11515610dcb57600080fd5b5050505050505050565b80600160a060020a031682600160a060020a0316610df16116ae565b600160a060020a03167ff326492b55079c92d5144c6c5e02fe1f6cb1ec9064e12de0d269f0615171e8df60405160405180910390a45050565b610e3261169e565b600160a060020a03166314da0797838360405160e060020a63ffffffff8516028152600160a060020a0390921660048301526024820152604401600060405180830381600087803b1515610e8557600080fd5b6102c65a03f11515610e9657600080fd5b5050505050565b6000806000600160149054906101000a900460ff1615610ec6576136ba90508060005260206000f35b60015460a060020a900460ff1615610eda57fe5b610f006000366040518083838082843782019150509250505060405180910390206116b2565b915060018214610f1a57610f1382610651565b9250610fb4565b610f2384610950565b15610f3357610f136136bd610651565b610f3b6117df565b60035460fa9010610f4e57610f4e611866565b60035460fa9010610f63576136c09250610fb4565b6003805460010190819055600160a060020a038516906005906101008110610f8757fe5b0155600354600160a060020a03851660009081526101056020526040902055610faf84611031565b600192505b5050919050565b60025481565b83600160a060020a0316610fd36116ae565b600160a060020a03167f113341d7c6797c7fd2ab72bb6f21014dc77b4bfaaffde795ad5f9b5fd70c76f0858585604051928352600160a060020a0390911660208301526040808301919091526060909101905180910390a350505050565b61103961169e565b600160a060020a03166311673db98260405160e060020a63ffffffff8416028152600160a060020a039091166004820152602401600060405180830381600087803b151561108657600080fd5b6102c65a03f1151561109757600080fd5b50505050565b6110a561169e565b600160a060020a031663d4554737838360405160e060020a63ffffffff8516028152600160a060020a0390921660048301526024820152604401600060405180830381600087803b1515610e8557600080fd5b60015460a060020a900460ff1681565b61111061169e565b600160a060020a0316634367f19a8260405160e060020a63ffffffff84160281529015156004820152602401600060405180830381600087803b151561108657600080fd5b600160a060020a033316600090815261010560205260408120548180821515611183576108566136bc610651565b50506000838152610106602052604081206001810154600284900a9290831611156111cd578054600190810182558101805483900390556111c4338661109d565b600193506108ef565b6111d86136bf610651565b95945050505050565b6000806000600160149054906101000a900460ff161561120a576136ba90508060005260206000f35b60015460a060020a900460ff161561121e57fe5b6112446000366040518083838082843782019150509250505060405180910390206116b2565b91506001821461125757610f1382610651565b60035484111561126657610fb4565b60028490556112736117df565b610faf845b61128061169e565b600160a060020a031663418cbda98260405160e060020a63ffffffff84160281526004810191909152602401600060405180830381600087803b151561108657600080fd5b600082815261010660209081526040808320600160a060020a0385168452610105909252822054828115156112fd5760009350611311565b8160020a9050808360010154166000141593505b50505092915050565b6000600560018301610100811061132d57fe5b015492915050565b81600160a060020a03166113476116ae565b600160a060020a03167f19488fab9001d4fd32730335b6e16f41b8d0fffe8f210fe291016d939f8290528360405190815260200160405180910390a35050565b61138f61169e565b600160a060020a0316635b0b6f66838360405160e060020a63ffffffff8516028152600160a060020a03928316600482015291166024820152604401600060405180830381600087803b1515610e8557600080fd5b6113ec6116ae565b600160a060020a03167f9cf38cf2dbf9139f5c32639950507b10775fbbe0421f3e168bc2d1bb1ae3208c8260405190815260200160405180910390a250565b61143361169e565b600160a060020a03166328ba84ca838360405160e060020a63ffffffff8516028152600160a060020a0390921660048301526024820152604401600060405180830381600087803b1515610e8557600080fd5b83600160a060020a03166114986116ae565b600160a060020a03167f99650330103279c27894c26446e08829e4f4a97c737d9de68ee66b0070b47551878686866040519384526020840192909252600160a060020a031660408084019190915260608301919091526080909101905180910390a35050505050565b600080600080600160149054906101000a900460ff161561152b576136ba90508060005260206000f35b60015460a060020a900460ff161561153f57fe5b6115656000366040518083838082843782019150509250505060405180910390206116b2565b92506001831461157f5761157883610651565b9350611311565b61158885610950565b15611598576115786136bd610651565b600160a060020a0386166000908152610105602052604090205491508115156115c6576115786136bc610651565b6115ce6117df565b600160a060020a03851660058361010081106115e657fe5b0155600160a060020a03808716600090815261010560205260408082208290559187168152208290556116198686611387565b50600195945050505050565b61162d61169e565b600160a060020a0316634f39cb53868686868660405160e060020a63ffffffff8816028152600160a060020a039586166004820152602481019490945260448401929092529092166064820152608481019190915260a401600060405180830381600087803b1515610dba57600080fd5b600054600160a060020a03165b90565b3390565b600160a060020a0333166000908152610105602052604081205481808215156116e0576108566136bc610651565b60008581526101066020526040902080549092501515611740576002548255600060018084019190915561010780549161171c91908301611980565b600283018190556101078054879290811061173357fe5b6000918252602090912001555b8260020a905080826001015416600014156108ef5761175f3386610e2a565b8154600190116117c357600085815261010660205260409020600201546101078054909190811061178c57fe5b60009182526020808320909101829055868252610106905260408120818155600180820183905560029091019190915593506108ef565b8154600019018255600182018054821790556136be93506108ef565b6101075460005b81811015611855576101078054829081106117fd57fe5b6000918252602090912001541561184d5761010660006101078381548110151561182357fe5b60009182526020808320909101548352820192909252604001812081815560018101829055600201555b6001016117e6565b61186261010760006119a9565b5050565b60015b60035481101561197d575b600354811080156118935750600581610100811061188e57fe5b015415155b156118a057600101611874565b60016003541180156118c2575060035460059061010081106118be57fe5b0154155b156118d657600380546000190190556118a0565b600354811080156118f8575060035460059061010081106118f357fe5b015415155b80156119115750600581610100811061190d57fe5b0154155b1561197857600354600590610100811061192757fe5b0154600582610100811061193757fe5b0155806101056000600583610100811061194d57fe5b0154815260200190815260200160002081905550600060056003546101008110151561197557fe5b01555b611869565b50565b8154818355818115116119a4576000838152602090206119a49181019083016119c3565b505050565b508054600082559060005260206000209081019061197d91905b6116ab91905b808211156119dd57600081556001016119c9565b50905600a165627a7a72305820df18ce818a18a446b0b305a6465d7d22b650ca5c1113f8686d4b601a8400840e0029",
  "source": "//sol Wallet\n// Multi-sig, daily-limited account proxy/wallet.\n// @authors:\n// Gav Wood <g@ethdev.com>\n// inheritable \"property\" contract that enables methods to be protected by requiring the acquiescence of either a\n// single, or, crucially, each of a number of, designated owners.\n// usage:\n// use modifiers onlyowner (just own owned) or onlymanyowners(hash), whereby the same hash must be provided by\n// some number (specified in constructor) of the set of owners (specified in the constructor, modifiable) before the\n// interior is executed.\n\npragma solidity ^0.4.11;\n\nimport {ERC20ManagerInterface as ERC20Manager} from \"../core/erc20/ERC20ManagerInterface.sol\";\nimport {ContractsManagerInterface as ContractsManager} from \"../core/contracts/ContractsManagerInterface.sol\";\nimport \"../core/erc20/ERC20Interface.sol\";\nimport \"./WalletEmitter.sol\";\n\ncontract WalletsManagerInterface {\n    function removeWallet() returns (uint);\n    function getOracleAddress() constant returns (address);\n    function getOraclePrice() constant returns (uint);\n}\n\ncontract multiowned is WalletEmitter {\n\n\t// TYPES\n\n    uint constant WALLET_INVALID_INVOCATION = 14010;\n    uint constant OK = 1;\n    uint constant WALLET_UNKNOWN_OWNER = 14012;\n    uint constant WALLET_OWNER_ALREADY_EXISTS = 14013;\n    uint constant WALLET_CONFIRMATION_NEEDED = 14014;\n    uint constant WALLET_UNKNOWN_OPERATION = 14015;\n    uint constant WALLET_OWNERS_LIMIT_EXIDED = 14016;\n    uint constant WALLET_UNKNOWN_TOKEN_TRANSFER = 14017;\n    uint constant WALLET_TRANSFER_ALREADY_REGISTERED = 14018;\n    uint constant WALLET_INSUFFICIENT_BALANCE = 14019;\n    uint constant WALLET_RELEASE_TIME_ERROR = 14020;\n\n    address eventsEmmiter;\n\n    address contractsManager;\n\n    // struct for the status of a pending operation.\n    struct PendingState {\n        uint yetNeeded;\n        uint ownersDone;\n        uint index;\n    }\n\n    modifier non2FA() {\n        if(use2FA) {\n            uint errorCode = WALLET_INVALID_INVOCATION;\n            assembly {\n                mstore(0, errorCode)\n                return(0, 32)\n            }\n        }\n        assert(!use2FA);\n\n        _;\n    }\n\t// METHODS\n\n    function getEventsHistory() constant returns (address) {\n        return eventsEmmiter;\n    }\n\n    // constructor is given number of sigs required to do protected \"onlymanyowners\" transactions\n    // as well as the selection of addresses capable of confirming them.\n    function multiowned(address[] _owners, uint _required) {\n        if(_owners.length == 0) {\n            revert();\n        }\n        for (uint i = 0; i < _owners.length; i++)\n        {\n            m_owners[1 + i] = uint(_owners[i]);\n            m_ownerIndex[uint(_owners[i])] = 1 + i;\n            m_numOwners++;\n        }\n        if(_required <= m_numOwners) {\n            m_required = _required;\n        }\n        else {\n            m_required = m_numOwners;\n        }\n    }\n\n    // Revokes a prior confirmation of the given operation\n    function revoke(bytes32 _operation) external returns (uint) {\n        uint ownerIndex = m_ownerIndex[uint(msg.sender)];\n        // make sure they're an owner\n        if (ownerIndex == 0) return _emitError(WALLET_UNKNOWN_OWNER);\n        uint ownerIndexBit = 2**ownerIndex;\n        var pending = m_pending[_operation];\n        if (pending.ownersDone & ownerIndexBit > 0) {\n            pending.yetNeeded++;\n            pending.ownersDone -= ownerIndexBit;\n            _emitRevoke(msg.sender, _operation);\n            return OK;\n        }\n        return _emitError(WALLET_UNKNOWN_OPERATION);\n    }\n\n    // Replaces an owner `_from` with another `_to`.\n    function changeOwner(address _from, address _to) external non2FA returns (uint) {\n        uint e = confirmAndCheck(sha3(msg.data));\n        if(OK != e) {\n            return _emitError(e);\n        }\n        if (isOwner(_to)) return _emitError(WALLET_OWNER_ALREADY_EXISTS);\n        uint ownerIndex = m_ownerIndex[uint(_from)];\n        if (ownerIndex == 0) return _emitError(WALLET_UNKNOWN_OWNER);\n        clearPending();\n        m_owners[ownerIndex] = uint(_to);\n        m_ownerIndex[uint(_from)] = 0;\n        m_ownerIndex[uint(_to)] = ownerIndex;\n        _emitOwnerChanged(_from, _to);\n        return OK;\n    }\n\n    function addOwner(address _owner) external non2FA returns (uint) {\n        uint e = confirmAndCheck(sha3(msg.data));\n        if(OK != e) {\n            return _emitError(e);\n        }\n        if (isOwner(_owner)) return _emitError(WALLET_OWNER_ALREADY_EXISTS);\n\n        clearPending();\n        if (m_numOwners >= c_maxOwners)\n            reorganizeOwners();\n        if (m_numOwners >= c_maxOwners)\n            return WALLET_OWNERS_LIMIT_EXIDED;\n        m_numOwners++;\n        m_owners[m_numOwners] = uint(_owner);\n        m_ownerIndex[uint(_owner)] = m_numOwners;\n        _emitOwnerAdded(_owner);\n        return OK;\n    }\n\n    function removeOwner(address _owner) external non2FA returns (uint) {\n        uint e = confirmAndCheck(sha3(msg.data));\n        if(OK != e) {\n            return _emitError(e);\n        }\n        uint ownerIndex = m_ownerIndex[uint(_owner)];\n        if (ownerIndex == 0) return _emitError(WALLET_UNKNOWN_OWNER);\n        if (m_required > m_numOwners - 1) return _emitError(WALLET_INVALID_INVOCATION);\n\n        m_owners[ownerIndex] = 0;\n        m_ownerIndex[uint(_owner)] = 0;\n        clearPending();\n        reorganizeOwners(); //make sure m_numOwner is equal to the number of owners and always points to the optimal free slot\n        _emitOwnerRemoved(_owner);\n        return OK;\n    }\n\n    function changeRequirement(uint _newRequired) external non2FA returns (uint) {\n        uint e = confirmAndCheck(sha3(msg.data));\n        if(OK != e) {\n            return _emitError(e);\n        }\n        if (_newRequired > m_numOwners) return;\n        m_required = _newRequired;\n        clearPending();\n        _emitRequirementChanged(_newRequired);\n        return OK;\n    }\n\n    // Gets an owner by 0-indexed position (using numOwners as the count)\n    function getOwner(uint ownerIndex) external constant returns (address) {\n        return address(m_owners[ownerIndex + 1]);\n    }\n\n    function isOwner(address _addr) constant returns (bool) {\n        return m_ownerIndex[uint(_addr)] > 0;\n    }\n\n    function hasConfirmed(bytes32 _operation, address _owner) constant returns (bool) {\n        var pending = m_pending[_operation];\n        uint ownerIndex = m_ownerIndex[uint(_owner)];\n\n        // make sure they're an owner\n        if (ownerIndex == 0) return false;\n\n        // determine the bit to set for this owner.\n        uint ownerIndexBit = 2**ownerIndex;\n        return !(pending.ownersDone & ownerIndexBit == 0);\n    }\n\n    // INTERNAL METHODS\n\n    function confirmAndCheck(bytes32 _operation) internal returns (uint) {\n        // determine what index the present sender is:\n        uint ownerIndex = m_ownerIndex[uint(msg.sender)];\n        // make sure they're an owner\n        if (ownerIndex == 0) return _emitError(WALLET_UNKNOWN_OWNER);\n\n        var pending = m_pending[_operation];\n        // if we're not yet working on this operation, switch over and reset the confirmation status.\n        if (pending.yetNeeded == 0) {\n            // reset count of confirmations needed.\n            pending.yetNeeded = m_required;\n            // reset which owners have confirmed (none) - set our bitmap to 0.\n            pending.ownersDone = 0;\n            pending.index = m_pendingIndex.length++;\n            m_pendingIndex[pending.index] = _operation;\n        }\n        // determine the bit to set for this owner.\n        uint ownerIndexBit = 2**ownerIndex;\n        // make sure we (the message sender) haven't confirmed this operation previously.\n        if (pending.ownersDone & ownerIndexBit == 0) {\n            _emitConfirmation(msg.sender, _operation);\n            // ok - check if count is enough to go ahead.\n            if (pending.yetNeeded <= 1) {\n                // enough confirmations: reset and run interior.\n                delete m_pendingIndex[m_pending[_operation].index];\n                delete m_pending[_operation];\n                return OK;\n            }\n            else\n            {\n                // not enough: record that this owner in particular confirmed.\n                pending.yetNeeded--;\n                pending.ownersDone |= ownerIndexBit;\n                return WALLET_CONFIRMATION_NEEDED;\n            }\n        }\n    }\n\n    function reorganizeOwners() private {\n        uint free = 1;\n        while (free < m_numOwners)\n        {\n            while (free < m_numOwners && m_owners[free] != 0) free++;\n            while (m_numOwners > 1 && m_owners[m_numOwners] == 0) m_numOwners--;\n            if (free < m_numOwners && m_owners[m_numOwners] != 0 && m_owners[free] == 0)\n            {\n                m_owners[free] = m_owners[m_numOwners];\n                m_ownerIndex[m_owners[free]] = free;\n                m_owners[m_numOwners] = 0;\n            }\n        }\n    }\n\n    function toggle2FA() returns (uint) {\n        // determine what index the present sender is and make sure they're an owner\n        if (m_ownerIndex[uint(msg.sender)] == 0) {\n            return _emitError(WALLET_UNKNOWN_OWNER);\n        }\n\n        address walletsManager = ContractsManager(contractsManager).getContractAddressByType(bytes32(\"WalletsManager\"));\n        address oracleAddress = WalletsManagerInterface(walletsManager).getOracleAddress();\n\n        if(oracleAddress == address(0)) {\n            return _emitError(WALLET_INVALID_INVOCATION);\n        }\n\n        if(!use2FA && m_required == 1) {\n            use2FA = true;\n            m_required = 2;\n            clearPending();\n            m_numOwners++;\n            m_owners[m_numOwners] = uint(oracleAddress);\n            m_ownerIndex[uint(oracleAddress)] = m_numOwners;\n            return OK;\n        } else {\n            if(use2FA && m_required == 2 && m_ownerIndex[uint(oracleAddress)] == 1) {\n                use2FA = false;\n                m_required = 1;\n                uint ownerIndex = m_ownerIndex[uint(oracleAddress)];\n                m_owners[ownerIndex] = 0;\n                m_ownerIndex[uint(oracleAddress)] = 0;\n                clearPending();\n                reorganizeOwners(); //make sure m_numOwner is equal to the number of owners and always points to the optimal free slot\n                return OK;\n            }\n        }\n\n        _emit2FAChanged(use2FA);\n    }\n\n    function clearPending() internal {\n        uint length = m_pendingIndex.length;\n        for (uint i = 0; i < length; ++i)\n            if (m_pendingIndex[i] != 0)\n                delete m_pending[m_pendingIndex[i]];\n        delete m_pendingIndex;\n    }\n\n    function _emitError(uint errorCode) returns (uint) {\n        Wallet(getEventsHistory()).emitError(errorCode);\n        return errorCode;\n    }\n\n    function _emitDeposit(address from, uint value) {\n        Wallet(getEventsHistory()).emitDeposit(from, value);\n    }\n\n    function _emitSingleTransact(address owner, uint value, address to, bytes32 symbol) {\n        Wallet(getEventsHistory()).emitSingleTransact(owner, value, to, symbol);\n    }\n\n    function _emitMultiTransact(address owner, bytes32 operation, uint value, address to, bytes32 symbol) {\n        Wallet(getEventsHistory()).emitMultiTransact(owner, operation, value, to, symbol);\n    }\n\n    function _emitConfirmationNeeded(bytes32 operation, address initiator, uint value, address to, bytes32 symbol) {\n        Wallet(getEventsHistory()).emitConfirmationNeeded(operation, initiator, value, to, symbol);\n    }\n\n    function _emitConfirmation(address owner, bytes32 operation) {\n        Wallet(getEventsHistory()).emitConfirmation(owner, operation);\n    }\n\n    function _emitRevoke(address owner, bytes32 operation) {\n        Wallet(getEventsHistory()).emitRevoke(owner, operation);\n    }\n\n    function _emitOwnerChanged(address oldOwner, address newOwner) {\n        Wallet(getEventsHistory()).emitOwnerChanged(oldOwner, newOwner);\n    }\n\n    function _emitOwnerAdded(address newOwner) {\n        Wallet(getEventsHistory()).emitOwnerAdded(newOwner);\n    }\n\n    function _emitOwnerRemoved(address oldOwner) {\n        Wallet(getEventsHistory()).emitOwnerAdded(oldOwner);\n    }\n\n    function _emitRequirementChanged(uint newRequirement) {\n        Wallet(getEventsHistory()).emitRequirementChanged(newRequirement);\n    }\n\n    function _emit2FAChanged(bool enabled) {\n        Wallet(getEventsHistory()).emit2FAChanged(enabled);\n    }\n\n   \t// FIELDS\n\n    // wallets use 2FA oracle\n    bool public use2FA;\n\n    // the number of owners that must confirm the same operation before it is run.\n    uint public m_required;\n    // pointer used to find a free slot in m_owners\n    uint public m_numOwners;\n\n    uint public version;\n\n    // list of owners\n    uint[256] m_owners;\n    uint constant c_maxOwners = 250;\n    uint constant c_maxPending = 20;\n    // index on the list of owners to allow reverse lookup\n    mapping(uint => uint) m_ownerIndex;\n    // the ongoing operations.\n    mapping(bytes32 => PendingState) m_pending;\n    bytes32[] m_pendingIndex;\n}\n\n// usage:\n// bytes32 h = Wallet(w).from(oneOwner).execute(to, value, data);\n// Wallet(w).from(anotherOwner).confirm(h);\ncontract Wallet is multiowned {\n\n    // TYPES\n\n    // Transaction structure to remember details of transaction lest it need be saved for a later call.\n    struct Transaction {\n        address to;\n        uint value;\n        bytes32 symbol;\n    }\n\n    // METHODS\n\n    // constructor - just pass on the owner array to the multiowned and\n    // the limit to daylimit\n    function Wallet(address[] _owners, uint _required, address _contractsManager, address _eventsHistory, bool _use2FA, uint _releaseTime) multiowned(_owners, _required)  {\n        contractsManager = _contractsManager;\n        eventsEmmiter = _eventsHistory;\n        use2FA = _use2FA;\n        releaseTime = _releaseTime;\n    }\n\n    function getTokenAddresses() constant returns (address[] result) {\n        address erc20Manager = ContractsManager(contractsManager).getContractAddressByType(bytes32(\"ERC20Manager\"));\n        uint counter = ERC20Manager(erc20Manager).tokensCount();\n        result = new address[](counter);\n        for(uint i=0;i<counter;i++) {\n            result[i] = ERC20Manager(erc20Manager).getAddressById(i);\n        }\n        return result;\n    }\n\n    function getPendings()\n    public\n    constant\n    returns (address[] result1, uint[] result2, bytes32[] result3, bytes32[] operations, bool[] isConfirmed)\n    {\n        result1 = new address[](m_pendingIndex.length);\n        result2 = new uint[](m_pendingIndex.length);\n        result3 = new bytes32[](m_pendingIndex.length);\n        operations = new bytes32[](m_pendingIndex.length);\n        isConfirmed = new bool[](m_pendingIndex.length);\n        for(uint i=0;i<m_pendingIndex.length;i++) {\n            result1[i] = m_txs[m_pendingIndex[i]].to;\n            result2[i] = m_txs[m_pendingIndex[i]].value;\n            result3[i] = m_txs[m_pendingIndex[i]].symbol;\n            operations[i] = m_pendingIndex[i];\n            isConfirmed[i] = hasConfirmed(m_pendingIndex[i], msg.sender);\n        }\n        return (result1, result2, result3, operations, isConfirmed);\n    }\n\n    // kills the contract sending everything to `_to`.\n    function kill(address _to) external returns (uint) {\n        if(releaseTime > now) {\n            return _emitError(WALLET_RELEASE_TIME_ERROR);\n        }\n        uint e = confirmAndCheck(sha3(msg.data));\n        if(OK != e) {\n            return _emitError(e);\n        }\n        address[] memory tokens = getTokenAddresses();\n        for(uint i=0;i<tokens.length;i++) {\n            address token = tokens[i];\n            uint balance = ERC20Interface(token).balanceOf(this);\n            if(balance != 0)\n            ERC20Interface(token).transfer(_to,balance);\n        }\n        selfdestruct(_to);\n        address walletsManager = ContractsManager(contractsManager).getContractAddressByType(bytes32(\"WalletsManager\"));\n        return WalletsManagerInterface(walletsManager).removeWallet();\n\n    }\n\n    // gets called when no other function matches\n    function() payable {\n        // just being sent some cash?\n        if (msg.value > 0)\n            _emitDeposit(msg.sender, msg.value);\n    }\n\n    // Outside-visible transact entry point. Executes transaction immediately if below daily spend limit.\n    // If not, goes into multisig process. We provide a hash on return to allow the sender to provide\n    // shortcuts for the other confirmations (allowing them to avoid replicating the _to, _value\n    // and _data arguments). They still get the option of using them if they want, anyways.\n    function transfer(address _to, uint _value, bytes32 _symbol) payable returns (uint) {\n        if(!isOwner(msg.sender)) {\n            return _emitError(WALLET_UNKNOWN_OWNER);\n        }\n        if(releaseTime > now) {\n            return _emitError(WALLET_RELEASE_TIME_ERROR);\n        }\n        if(use2FA) {\n            address walletsManager = ContractsManager(contractsManager).getContractAddressByType(bytes32(\"WalletsManager\"));\n            uint oraclePrice = WalletsManagerInterface(walletsManager).getOraclePrice();\n            address oracleAddress = WalletsManagerInterface(walletsManager).getOracleAddress();\n            if(oraclePrice == 0 || oracleAddress == address(0)) {\n                return _emitError(WALLET_INVALID_INVOCATION);\n            }\n            if(msg.value < oraclePrice) {\n                return _emitError(WALLET_INVALID_INVOCATION);\n            }\n            if(!oracleAddress.send(msg.value)) {\n                return _emitError(WALLET_INVALID_INVOCATION);\n            }\n        }\n        if(_symbol == bytes32('ETH') || _symbol == bytes32(0)) {\n            if(this.balance < _value) {\n                return _emitError(WALLET_INSUFFICIENT_BALANCE);\n            }\n        } else {\n            address erc20Manager = ContractsManager(contractsManager).getContractAddressByType(bytes32(\"ERC20Manager\"));\n            if(ERC20Manager(erc20Manager).getTokenAddressBySymbol(_symbol) == 0)\n            return _emitError(WALLET_UNKNOWN_TOKEN_TRANSFER);\n            else {\n                address token = ERC20Manager(erc20Manager).getTokenAddressBySymbol(_symbol);\n                if(ERC20Interface(token).balanceOf(this) < _value)\n                return _emitError(WALLET_INSUFFICIENT_BALANCE);\n            }\n        }\n        // determine our operation hash.\n        bytes32 _r = sha3(msg.data, now);\n        if (m_txs[_r].to == 0) {\n            m_txs[_r].to = _to;\n            m_txs[_r].value = _value;\n            m_txs[_r].symbol = _symbol;\n            _emitConfirmationNeeded(_r, msg.sender, _value, _to, _symbol);\n            uint status = confirm(_r);\n            return status;\n        }\n        return _emitError(WALLET_TRANSFER_ALREADY_REGISTERED);\n    }\n\n    // confirm a transaction through just the hash. we use the previous transactions map, m_txs, in order\n    // to determine the body of the transaction from the hash provided.\n    function confirm(bytes32 _h) returns (uint) {\n        uint e = confirmAndCheck(_h);\n        if(OK != e) {\n            return e;\n        }\n        if (m_txs[_h].to != 0) {\n            if(m_txs[_h].symbol == bytes32('ETH')) {\n                require(m_txs[_h].to.send(m_txs[_h].value));\n            }\n            else {\n                address erc20Manager = ContractsManager(contractsManager).getContractAddressByType(bytes32(\"ERC20Manager\"));\n                address token = ERC20Manager(erc20Manager).getTokenAddressBySymbol(m_txs[_h].symbol);\n                ERC20Interface(token).transfer(m_txs[_h].to,m_txs[_h].value);\n            }\n            _emitMultiTransact(msg.sender, _h, m_txs[_h].value, m_txs[_h].to, m_txs[_h].symbol);\n            delete m_txs[_h];\n            return OK;\n        }\n        return _emitError(WALLET_INVALID_INVOCATION);\n    }\n\n    // INTERNAL METHODS\n\n    function clearPending() internal {\n        uint length = m_pendingIndex.length;\n        for (uint i = 0; i < length; ++i)\n            delete m_txs[m_pendingIndex[i]];\n        super.clearPending();\n    }\n\n\t// FIELDS\n\n    // pending transactions we have at present.\n    mapping (bytes32 => Transaction) m_txs;\n    uint public releaseTime;\n}\n",
  "sourcePath": "/Users/ahiatsevich/Development/chronobank/SmartContracts/contracts/wallet/Wallet.sol",
  "compiler": {
    "name": "solc",
    "version": "0.4.18+commit.9cf6e910.Emscripten.clang"
  },
  "schemaVersion": "1.0.1",
  "updatedAt": "2017-11-15T09:25:14.992Z"
}