{
  "contractName": "MultiEventsHistory",
  "abi": [
    {
      "constant": false,
      "inputs": [],
      "name": "claimContractOwnership",
      "outputs": [
        {
          "name": "",
          "type": "bool"
        }
      ],
      "payable": false,
      "stateMutability": "nonpayable",
      "type": "function"
    },
    {
      "constant": false,
      "inputs": [
        {
          "name": "_to",
          "type": "address"
        }
      ],
      "name": "changeContractOwnership",
      "outputs": [
        {
          "name": "",
          "type": "bool"
        }
      ],
      "payable": false,
      "stateMutability": "nonpayable",
      "type": "function"
    },
    {
      "constant": true,
      "inputs": [],
      "name": "pendingContractOwner",
      "outputs": [
        {
          "name": "",
          "type": "address"
        }
      ],
      "payable": false,
      "stateMutability": "view",
      "type": "function"
    },
    {
      "constant": false,
      "inputs": [],
      "name": "destroy",
      "outputs": [],
      "payable": false,
      "stateMutability": "nonpayable",
      "type": "function"
    },
    {
      "constant": false,
      "inputs": [
        {
          "name": "_to",
          "type": "address"
        }
      ],
      "name": "transferContractOwnership",
      "outputs": [
        {
          "name": "",
          "type": "bool"
        }
      ],
      "payable": false,
      "stateMutability": "nonpayable",
      "type": "function"
    },
    {
      "constant": false,
      "inputs": [
        {
          "name": "_caller",
          "type": "address"
        }
      ],
      "name": "reject",
      "outputs": [],
      "payable": false,
      "stateMutability": "nonpayable",
      "type": "function"
    },
    {
      "constant": false,
      "inputs": [
        {
          "name": "_caller",
          "type": "address"
        }
      ],
      "name": "authorize",
      "outputs": [
        {
          "name": "",
          "type": "bool"
        }
      ],
      "payable": false,
      "stateMutability": "nonpayable",
      "type": "function"
    },
    {
      "constant": true,
      "inputs": [],
      "name": "contractOwner",
      "outputs": [
        {
          "name": "",
          "type": "address"
        }
      ],
      "payable": false,
      "stateMutability": "view",
      "type": "function"
    },
    {
      "constant": false,
      "inputs": [
        {
          "name": "tokens",
          "type": "address[]"
        },
        {
          "name": "_to",
          "type": "address"
        }
      ],
      "name": "withdrawnTokens",
      "outputs": [
        {
          "name": "",
          "type": "uint256"
        }
      ],
      "payable": false,
      "stateMutability": "nonpayable",
      "type": "function"
    },
    {
      "constant": true,
      "inputs": [
        {
          "name": "",
          "type": "address"
        }
      ],
      "name": "isAuthorized",
      "outputs": [
        {
          "name": "",
          "type": "bool"
        }
      ],
      "payable": false,
      "stateMutability": "view",
      "type": "function"
    },
    {
      "payable": false,
      "stateMutability": "nonpayable",
      "type": "fallback"
    }
  ],
  "bytecode": "0x606060405260008054600160a060020a033316600160a060020a0319909116179055610684806100306000396000f30060606040526004361061008a5763ffffffff60e060020a6000350416634592cd1d81146100fc578063557f4bc9146101235780635aa77d3c1461014257806383197ef014610171578063a843c51f14610184578063ab0da5a9146101a3578063b6a5d7de146101c2578063ce606ee0146101e1578063d8f9659b146101f4578063fe9fbb8014610260575b341561009557600080fd5b600160a060020a03331660009081526002602052604090205460ff1615156100bc576100fa565b33600160a060020a0316600036604051808383808284378201915050925050506000604051808303818561646e5a03f491505015156100fa57600080fd5b005b341561010757600080fd5b61010f61027f565b604051901515815260200160405180910390f35b341561012e57600080fd5b61010f600160a060020a03600435166102d7565b341561014d57600080fd5b610155610336565b604051600160a060020a03909116815260200160405180910390f35b341561017c57600080fd5b6100fa610345565b341561018f57600080fd5b61010f600160a060020a036004351661036a565b34156101ae57600080fd5b6100fa600160a060020a03600435166103fb565b34156101cd57600080fd5b61010f600160a060020a0360043516610459565b34156101ec57600080fd5b6101556104e5565b34156101ff57600080fd5b61024e600460248135818101908301358060208181020160405190810160405280939291908181526020018383602002808284375094965050509235600160a060020a031692506104f4915050565b60405190815260200160405180910390f35b341561026b57600080fd5b61010f600160a060020a0360043516610643565b60015460009033600160a060020a039081169116146102a0575060006102d4565b50600180546000805473ffffffffffffffffffffffffffffffffffffffff19908116600160a060020a038416179091551681555b90565b6000805433600160a060020a039081169116141561033157600160a060020a038216151561030757506000610331565b506001805473ffffffffffffffffffffffffffffffffffffffff1916600160a060020a0383161781555b919050565b600154600160a060020a031681565b60005433600160a060020a03908116911614156103685733600160a060020a0316ff5b565b6000805433600160a060020a039081169116141561033157600160a060020a038216151561039a57506000610331565b600154600160a060020a0316156103c9576001805473ffffffffffffffffffffffffffffffffffffffff191690555b5060008054600160a060020a03831673ffffffffffffffffffffffffffffffffffffffff199091161790556001919050565b600160a060020a03331660009081526002602052604090205460ff1680610430575060005433600160a060020a039081169116145b1561045657600160a060020a0381166000908152600260205260409020805460ff191690555b50565b600160a060020a03331660009081526002602052604081205460ff168061048e575060005433600160a060020a039081169116145b1561033157600160a060020a03821660009081526002602052604090205460ff16156104bc57506000610331565b50600160a060020a03166000908152600260205260409020805460ff1916600190811790915590565b600054600160a060020a031681565b6000805481908190819033600160a060020a039081169116141561063a57600092505b85518310156106355785838151811061052c57fe5b90602001906020020151915081600160a060020a03166370a082313060006040516020015260405160e060020a63ffffffff8416028152600160a060020a039091166004820152602401602060405180830381600087803b151561058f57600080fd5b6102c65a03f115156105a057600080fd5b5050506040518051915050801561062a5781600160a060020a031663a9059cbb868360006040516020015260405160e060020a63ffffffff8516028152600160a060020a0390921660048301526024820152604401602060405180830381600087803b151561060e57600080fd5b6102c65a03f1151561061f57600080fd5b505050604051805150505b600190920191610517565b600193505b50505092915050565b60026020526000908152604090205460ff16815600a165627a7a72305820dbba4d6b75688e45013fd3b24bcd217a3bb7ad90b98884a86535b0f3837e90ac0029",
  "source": "pragma solidity ^0.4.11;\n\nimport \"../common/Object.sol\";\n\n/**\n * @title Events History universal multi contract.\n *\n * Contract serves as an Events storage for any type of contracts.\n * Events appear on this contract address but their definitions provided by calling contracts.\n *\n * Note: all the non constant functions return false instead of throwing in case if state change\n * didn't happen yet.\n */\ncontract MultiEventsHistory is Object {\n    // Authorized calling contracts.\n    mapping(address => bool) public isAuthorized;\n\n    modifier onlyAuthorized() {\n        if(isAuthorized[msg.sender] || contractOwner == msg.sender) {\n            _;\n        }\n    }\n\n    /**\n     * Authorize new caller contract.\n     *\n     * @param _caller address of the new caller.\n     *\n     * @return success.\n     */\n    function authorize(address _caller) onlyAuthorized() returns(bool) {\n        if (isAuthorized[_caller]) {\n            return false;\n        }\n        isAuthorized[_caller] = true;\n        return true;\n    }\n\n    /**\n     * Reject access.\n     *\n     * @param _caller address of the caller.\n     */\n    function reject(address _caller) onlyAuthorized() {\n        delete isAuthorized[_caller];\n    }\n\n    /**\n     * Event emitting fallback.\n     *\n     * Can be and only called by authorized caller.\n     * Delegate calls back with provided msg.data to emit an event.\n     *\n     * Throws if call failed.\n     */\n    function () {\n        if (!isAuthorized[msg.sender]) {\n            return;\n        }\n        // Internal Out Of Gas/Throw: revert this transaction too;\n        // Recursive Call: safe, all changes already made.\n        if (!msg.sender.delegatecall(msg.data)) {\n            revert();\n        }\n    }\n}\n",
  "sourcePath": "/Users/ahiatsevich/Development/chronobank/SmartContracts/contracts/core/event/MultiEventsHistory.sol",
  "compiler": {
    "name": "solc",
    "version": "0.4.18+commit.9cf6e910.Emscripten.clang"
  },
  "schemaVersion": "1.0.1",
  "updatedAt": "2018-01-11T22:47:43.406Z"
}