{
  "contractName": "PendingManager",
  "abi": [
    {
      "constant": false,
      "inputs": [
        {
          "name": "_hash",
          "type": "bytes32"
        },
        {
          "name": "_data",
          "type": "bytes"
        },
        {
          "name": "_to",
          "type": "address"
        },
        {
          "name": "_sender",
          "type": "address"
        }
      ],
      "name": "addTx",
      "outputs": [
        {
          "name": "errorCode",
          "type": "uint256"
        }
      ],
      "payable": false,
      "stateMutability": "nonpayable",
      "type": "function"
    },
    {
      "constant": false,
      "inputs": [
        {
          "name": "owner",
          "type": "address"
        },
        {
          "name": "hash",
          "type": "bytes32"
        }
      ],
      "name": "emitConfirmation",
      "outputs": [],
      "payable": false,
      "stateMutability": "nonpayable",
      "type": "function"
    },
    {
      "constant": false,
      "inputs": [
        {
          "name": "_contractsManager",
          "type": "address"
        }
      ],
      "name": "init",
      "outputs": [
        {
          "name": "errorCode",
          "type": "uint256"
        }
      ],
      "payable": false,
      "stateMutability": "nonpayable",
      "type": "function"
    },
    {
      "constant": true,
      "inputs": [],
      "name": "getUserManager",
      "outputs": [
        {
          "name": "",
          "type": "address"
        }
      ],
      "payable": false,
      "stateMutability": "view",
      "type": "function"
    },
    {
      "constant": false,
      "inputs": [],
      "name": "claimContractOwnership",
      "outputs": [
        {
          "name": "",
          "type": "bool"
        }
      ],
      "payable": false,
      "stateMutability": "nonpayable",
      "type": "function"
    },
    {
      "constant": true,
      "inputs": [
        {
          "name": "_identifier",
          "type": "bytes32"
        }
      ],
      "name": "lookupManager",
      "outputs": [
        {
          "name": "manager",
          "type": "address"
        }
      ],
      "payable": false,
      "stateMutability": "view",
      "type": "function"
    },
    {
      "constant": true,
      "inputs": [
        {
          "name": "_hash",
          "type": "bytes32"
        }
      ],
      "name": "getTxData",
      "outputs": [
        {
          "name": "",
          "type": "bytes"
        }
      ],
      "payable": false,
      "stateMutability": "view",
      "type": "function"
    },
    {
      "constant": true,
      "inputs": [],
      "name": "contractsManager",
      "outputs": [
        {
          "name": "",
          "type": "address"
        }
      ],
      "payable": false,
      "stateMutability": "view",
      "type": "function"
    },
    {
      "constant": false,
      "inputs": [
        {
          "name": "_to",
          "type": "address"
        }
      ],
      "name": "changeContractOwnership",
      "outputs": [
        {
          "name": "",
          "type": "bool"
        }
      ],
      "payable": false,
      "stateMutability": "nonpayable",
      "type": "function"
    },
    {
      "constant": true,
      "inputs": [],
      "name": "pendingContractOwner",
      "outputs": [
        {
          "name": "",
          "type": "address"
        }
      ],
      "payable": false,
      "stateMutability": "view",
      "type": "function"
    },
    {
      "constant": false,
      "inputs": [
        {
          "name": "_eventsHistory",
          "type": "address"
        }
      ],
      "name": "setEventsHistory",
      "outputs": [],
      "payable": false,
      "stateMutability": "nonpayable",
      "type": "function"
    },
    {
      "constant": false,
      "inputs": [
        {
          "name": "_contractsManager",
          "type": "address"
        }
      ],
      "name": "setContractsManager",
      "outputs": [],
      "payable": false,
      "stateMutability": "nonpayable",
      "type": "function"
    },
    {
      "constant": false,
      "inputs": [
        {
          "name": "_hash",
          "type": "bytes32"
        }
      ],
      "name": "confirm",
      "outputs": [
        {
          "name": "",
          "type": "uint256"
        }
      ],
      "payable": false,
      "stateMutability": "nonpayable",
      "type": "function"
    },
    {
      "constant": false,
      "inputs": [
        {
          "name": "hash",
          "type": "bytes32"
        }
      ],
      "name": "emitCancelled",
      "outputs": [],
      "payable": false,
      "stateMutability": "nonpayable",
      "type": "function"
    },
    {
      "constant": false,
      "inputs": [],
      "name": "destroy",
      "outputs": [],
      "payable": false,
      "stateMutability": "nonpayable",
      "type": "function"
    },
    {
      "constant": true,
      "inputs": [
        {
          "name": "_hash",
          "type": "bytes32"
        }
      ],
      "name": "pendingYetNeeded",
      "outputs": [
        {
          "name": "",
          "type": "uint256"
        }
      ],
      "payable": false,
      "stateMutability": "view",
      "type": "function"
    },
    {
      "constant": false,
      "inputs": [
        {
          "name": "_to",
          "type": "address"
        }
      ],
      "name": "transferContractOwnership",
      "outputs": [
        {
          "name": "",
          "type": "bool"
        }
      ],
      "payable": false,
      "stateMutability": "nonpayable",
      "type": "function"
    },
    {
      "constant": false,
      "inputs": [
        {
          "name": "_hash",
          "type": "bytes32"
        }
      ],
      "name": "revoke",
      "outputs": [
        {
          "name": "errorCode",
          "type": "uint256"
        }
      ],
      "payable": false,
      "stateMutability": "nonpayable",
      "type": "function"
    },
    {
      "constant": true,
      "inputs": [
        {
          "name": "_hash",
          "type": "bytes32"
        }
      ],
      "name": "getTx",
      "outputs": [
        {
          "name": "_data",
          "type": "bytes"
        },
        {
          "name": "_yetNeeded",
          "type": "uint256"
        },
        {
          "name": "_ownersDone",
          "type": "uint256"
        },
        {
          "name": "_timestamp",
          "type": "uint256"
        }
      ],
      "payable": false,
      "stateMutability": "view",
      "type": "function"
    },
    {
      "constant": false,
      "inputs": [
        {
          "name": "hash",
          "type": "bytes32"
        },
        {
          "name": "data",
          "type": "bytes"
        },
        {
          "name": "timestamp",
          "type": "uint256"
        }
      ],
      "name": "emitDone",
      "outputs": [],
      "payable": false,
      "stateMutability": "nonpayable",
      "type": "function"
    },
    {
      "constant": true,
      "inputs": [
        {
          "name": "_hash",
          "type": "bytes32"
        },
        {
          "name": "_owner",
          "type": "address"
        }
      ],
      "name": "hasConfirmed",
      "outputs": [
        {
          "name": "",
          "type": "bool"
        }
      ],
      "payable": false,
      "stateMutability": "view",
      "type": "function"
    },
    {
      "constant": true,
      "inputs": [],
      "name": "contractOwner",
      "outputs": [
        {
          "name": "",
          "type": "address"
        }
      ],
      "payable": false,
      "stateMutability": "view",
      "type": "function"
    },
    {
      "constant": true,
      "inputs": [],
      "name": "pendingsCount",
      "outputs": [
        {
          "name": "",
          "type": "uint256"
        }
      ],
      "payable": false,
      "stateMutability": "view",
      "type": "function"
    },
    {
      "constant": false,
      "inputs": [
        {
          "name": "owner",
          "type": "address"
        },
        {
          "name": "hash",
          "type": "bytes32"
        }
      ],
      "name": "emitRevoke",
      "outputs": [],
      "payable": false,
      "stateMutability": "nonpayable",
      "type": "function"
    },
    {
      "constant": false,
      "inputs": [
        {
          "name": "tokens",
          "type": "address[]"
        },
        {
          "name": "_to",
          "type": "address"
        }
      ],
      "name": "withdrawnTokens",
      "outputs": [
        {
          "name": "",
          "type": "uint256"
        }
      ],
      "payable": false,
      "stateMutability": "nonpayable",
      "type": "function"
    },
    {
      "constant": false,
      "inputs": [
        {
          "name": "errorCode",
          "type": "uint256"
        }
      ],
      "name": "emitError",
      "outputs": [],
      "payable": false,
      "stateMutability": "nonpayable",
      "type": "function"
    },
    {
      "constant": true,
      "inputs": [],
      "name": "getTxs",
      "outputs": [
        {
          "name": "_hashes",
          "type": "bytes32[]"
        },
        {
          "name": "_yetNeeded",
          "type": "uint256[]"
        },
        {
          "name": "_ownersDone",
          "type": "uint256[]"
        },
        {
          "name": "_timestamp",
          "type": "uint256[]"
        }
      ],
      "payable": false,
      "stateMutability": "view",
      "type": "function"
    },
    {
      "constant": true,
      "inputs": [
        {
          "name": "key",
          "type": "address"
        }
      ],
      "name": "isAuthorized",
      "outputs": [
        {
          "name": "",
          "type": "bool"
        }
      ],
      "payable": false,
      "stateMutability": "view",
      "type": "function"
    },
    {
      "constant": true,
      "inputs": [],
      "name": "getEventsHistory",
      "outputs": [
        {
          "name": "",
          "type": "address"
        }
      ],
      "payable": false,
      "stateMutability": "view",
      "type": "function"
    },
    {
      "inputs": [
        {
          "name": "_store",
          "type": "address"
        },
        {
          "name": "_crate",
          "type": "bytes32"
        }
      ],
      "payable": false,
      "stateMutability": "nonpayable",
      "type": "constructor"
    },
    {
      "payable": false,
      "stateMutability": "nonpayable",
      "type": "fallback"
    },
    {
      "anonymous": false,
      "inputs": [
        {
          "indexed": true,
          "name": "self",
          "type": "address"
        },
        {
          "indexed": true,
          "name": "owner",
          "type": "address"
        },
        {
          "indexed": true,
          "name": "hash",
          "type": "bytes32"
        }
      ],
      "name": "Confirmation",
      "type": "event"
    },
    {
      "anonymous": false,
      "inputs": [
        {
          "indexed": true,
          "name": "self",
          "type": "address"
        },
        {
          "indexed": true,
          "name": "owner",
          "type": "address"
        },
        {
          "indexed": true,
          "name": "hash",
          "type": "bytes32"
        }
      ],
      "name": "Revoke",
      "type": "event"
    },
    {
      "anonymous": false,
      "inputs": [
        {
          "indexed": true,
          "name": "self",
          "type": "address"
        },
        {
          "indexed": true,
          "name": "hash",
          "type": "bytes32"
        }
      ],
      "name": "Cancelled",
      "type": "event"
    },
    {
      "anonymous": false,
      "inputs": [
        {
          "indexed": true,
          "name": "self",
          "type": "address"
        },
        {
          "indexed": true,
          "name": "hash",
          "type": "bytes32"
        },
        {
          "indexed": false,
          "name": "data",
          "type": "bytes"
        },
        {
          "indexed": false,
          "name": "timestamp",
          "type": "uint256"
        }
      ],
      "name": "Done",
      "type": "event"
    },
    {
      "anonymous": false,
      "inputs": [
        {
          "indexed": true,
          "name": "self",
          "type": "address"
        },
        {
          "indexed": false,
          "name": "errorCode",
          "type": "uint256"
        }
      ],
      "name": "Error",
      "type": "event"
    }
  ],
  "bytecode": "0x606060405234156200001057600080fd5b60405160408062002ab38339810160405280805191906020018051915082905081818181816200005160008383640100000000620025aa620001f582021704565b505060028054600160a060020a03338116600160a060020a03199283161790925560058054309093169290911691909117905550620000c69250600691507f74784861736865736800000000000000000000000000000000000000000000009050640100000000620025d06200021b82021704565b6200010160097f746f0000000000000000000000000000000000000000000000000000000000006401000000006200269d6200032a82021704565b6200013c600a7f76616c75650000000000000000000000000000000000000000000000000000006401000000006200269d6200032a82021704565b62000177600b7f7965744e656564656400000000000000000000000000000000000000000000006401000000006200269d6200032a82021704565b620001b2600c7f6f776e657273446f6e65000000000000000000000000000000000000000000006401000000006200269d6200032a82021704565b620001ed600d7f74696d657374616d7000000000000000000000000000000000000000000000006401000000006200269d6200032a82021704565b50506200037c565b8254600160a060020a031916600160a060020a0392909216919091178255600190910155565b6200027282826040519081527f636f756e74000000000000000000000000000000000000000000000000000000602082015260250160405180910390206200034464010000000002620026ad176401000000009004565b620002cc82600101826040519081527f696e646578657300000000000000000000000000000000000000000000000000602082015260270160405180910390206200034464010000000002620026ad176401000000009004565b6200032682600201826040519081527f76616c7565730000000000000000000000000000000000000000000000000000602082015260260160405180910390206200034464010000000002620026ad176401000000009004565b5050565b620003268282640100000000620026ad6200034482021704565b8154620003609082640100000000620026c56200036482021704565b9055565b8115158062000371575080155b156200032657600080fd5b612727806200038c6000396000f30060606040526004361061015b5763ffffffff60e060020a6000350416630fee1efc811461016b57806314da0797146101e557806319ab453c146102095780631dffd012146102285780634592cd1d146102575780634fe590121461027e578063520ff62e1461029457806353253d3114610321578063557f4bc9146103345780635aa77d3c146103535780636521afd71461036657806371d3b57314610385578063797af627146103a45780637d11317a146103ba57806383197ef0146103d0578063a6896dd7146103e3578063a843c51f146103f9578063b75c7dc614610418578063b915cb6c1461042e578063c02ea6d7146104d1578063c2cf732614610529578063ce606ee01461054b578063d39133501461055e578063d455473714610571578063d8f9659b14610593578063df26ca08146105ed578063e0cedd9c14610603578063fe9fbb8014610739578063fff10aba14610758575b341561016657600080fd5b600080fd5b341561017657600080fd5b6101d3600480359060446024803590810190830135806020601f8201819004810201604051908101604052818152929190602084018383808284375094965050600160a060020a0385358116956020013516935061076b92505050565b60405190815260200160405180910390f35b34156101f057600080fd5b610207600160a060020a03600435166024356108d6565b005b341561021457600080fd5b6101d3600160a060020a0360043516610922565b341561023357600080fd5b61023b61095f565b604051600160a060020a03909116815260200160405180910390f35b341561026257600080fd5b61026a610990565b604051901515815260200160405180910390f35b341561028957600080fd5b61023b6004356109dc565b341561029f57600080fd5b6102aa600435610a60565b60405160208082528190810183818151815260200191508051906020019080838360005b838110156102e65780820151838201526020016102ce565b50505050905090810190601f1680156103135780820380516001836020036101000a031916815260200191505b509250505060405180910390f35b341561032c57600080fd5b61023b610b23565b341561033f57600080fd5b61026a600160a060020a0360043516610b32565b341561035e57600080fd5b61023b610b89565b341561037157600080fd5b610207600160a060020a0360043516610b98565b341561039057600080fd5b610207600160a060020a0360043516610bce565b34156103af57600080fd5b6101d3600435610c05565b34156103c557600080fd5b610207600435610c24565b34156103db57600080fd5b610207610c65565b34156103ee57600080fd5b6101d3600435610cfb565b341561040457600080fd5b61026a600160a060020a0360043516610d15565b341561042357600080fd5b6101d3600435610d8e565b341561043957600080fd5b610444600435610f47565b6040518080602001858152602001848152602001838152602001828103825286818151815260200191508051906020019080838360005b8381101561049357808201518382015260200161047b565b50505050905090810190601f1680156104c05780820380516001836020036101000a031916815260200191505b509550505050505060405180910390f35b34156104dc57600080fd5b610207600480359060446024803590810190830135806020601f82018190048102016040519081016040528181529291906020840183838082843750949650509335935061104492505050565b341561053457600080fd5b61026a600435600160a060020a03602435166110fc565b341561055657600080fd5b61023b6111e6565b341561056957600080fd5b6101d36111f5565b341561057c57600080fd5b610207600160a060020a0360043516602435611208565b341561059e57600080fd5b6101d3600460248135818101908301358060208181020160405190810160405280939291908181526020018383602002808284375094965050509235600160a060020a03169250611254915050565b34156105f857600080fd5b6102076004356113a3565b341561060e57600080fd5b6106166113ea565b6040518080602001806020018060200180602001858103855289818151815260200191508051906020019060200280838360005b8381101561066257808201518382015260200161064a565b50505050905001858103845288818151815260200191508051906020019060200280838360005b838110156106a1578082015183820152602001610689565b50505050905001858103835287818151815260200191508051906020019060200280838360005b838110156106e05780820151838201526020016106c8565b50505050905001858103825286818151815260200191508051906020019060200280838360005b8381101561071f578082015183820152602001610707565b505050509050019850505050505050505060405180910390f35b341561074457600080fd5b61026a600160a060020a0360043516611586565b341561076357600080fd5b61023b61162c565b6000808261077881611586565b806107aa57506107956000805160206126dc8339815191526109dc565b600160a060020a031633600160a060020a0316145b156108cc576107c2600060068963ffffffff61163b16565b156107d9576107d2610fa361165a565b92506108cc565b6107ec600060068963ffffffff6116c316565b6000878152600e6020526040902086805161080b92916020019061248f565b5061082060006009898863ffffffff6116dd16565b61082861095f565b91506108a0600b8884600160a060020a031663dc8452cd6000604051602001526040518163ffffffff1660e060020a028152600401602060405180830381600087803b151561087657600080fd5b6102c65a03f1151561088757600080fd5b505050604051805160009392915063ffffffff6116f816565b6108b46000600d894263ffffffff6116f816565b6108be8785611704565b92506108c983611819565b92505b5050949350505050565b80600160a060020a0383166108e9611846565b600160a060020a03167f73357994cf67853ec8cc2a946a764c74c0289e31343e21cbf2a4901dfc3ee74460405160405180910390a45050565b60025460009033600160a060020a039081169116141561095a57610954826000805160206126dc83398151915261184a565b50600190505b919050565b600061098a7f557365724d616e616765720000000000000000000000000000000000000000006109dc565b90505b90565b60035460009033600160a060020a039081169116146109b15750600061098d565b506003805460028054600160a060020a0319908116600160a060020a03841617909155169055600190565b600454600090600160a060020a031663bc65792783836040516020015260405160e060020a63ffffffff84160281526004810191909152602401602060405180830381600087803b1515610a2f57600080fd5b6102c65a03f11515610a4057600080fd5b5050506040518051915050600160a060020a038116151561095a57600080fd5b610a68612509565b600e600083600019166000191681526020019081526020016000208054600181600116156101000203166002900480601f016020809104026020016040519081016040528092919081815260200182805460018160011615610100020316600290048015610b175780601f10610aec57610100808354040283529160200191610b17565b820191906000526020600020905b815481529060010190602001808311610afa57829003601f168201915b50505050509050919050565b600454600160a060020a031681565b60025460009033600160a060020a039081169116141561095a57600160a060020a0382161515610b645750600061095a565b5060038054600160a060020a038316600160a060020a03199091161790556001919050565b600354600160a060020a031681565b60025433600160a060020a0390811691161415610bcb5760058054600160a060020a031916600160a060020a0383161790555b50565b60025433600160a060020a0390811691161415610bcb5760048054600160a060020a038316600160a060020a031990911617905550565b600080610c128333611704565b9050610c1d81611819565b9392505050565b80610c2d611846565b600160a060020a03167f5c073039c0ae8fe0c6f63e2a80f3839841104bb172da658d85947b94d2de2d0560405160405180910390a350565b60025433600160a060020a0390811691161415610cf957600454600160a060020a031663c375c2ef3060006040516020015260405160e060020a63ffffffff8416028152600160a060020a039091166004820152602401602060405180830381600087803b1515610cd557600080fd5b6102c65a03f11515610ce657600080fd5b5050506040518051905050610cf9611a3b565b565b6000610d0f81600b8463ffffffff611a5e16565b92915050565b60025460009033600160a060020a039081169116141561095a57600160a060020a0382161515610d475750600061095a565b600354600160a060020a031615610d695760038054600160a060020a03191690555b5060028054600160a060020a038316600160a060020a03199091161790556001919050565b6000806000610d9c33611586565b15610f4057610da961095f565b915081600160a060020a031663c269014b3360006040516020015260405160e060020a63ffffffff8416028152600160a060020a039091166004820152602401602060405180830381600087803b1515610e0257600080fd5b6102c65a03f11515610e1357600080fd5b505050604051805160020a91506000905081610e3782600c8863ffffffff611a5e16565b1611610e4f57610e48610fa061165a565b9250610f40565b610e7a600b85610e676000838363ffffffff611a5e16565b600092919060010163ffffffff6116f816565b610ea5600c8583610e936000848463ffffffff611a5e16565b6000939291900363ffffffff6116f816565b610eaf3385611a6b565b81600160a060020a031663dc8452cd6000604051602001526040518163ffffffff1660e060020a028152600401602060405180830381600087803b1515610ef557600080fd5b6102c65a03f11515610f0657600080fd5b50505060405180519050610f236000600b8763ffffffff611a5e16565b1415610f3b57610f3284611ade565b610f3b84611b34565b600192505b5050919050565b610f4f612509565b6000828152600e6020526040812081908190610f7382600b8863ffffffff611a5e16565b610f866000600c8963ffffffff611a5e16565b610f996000600d8a63ffffffff611a5e16565b838054600181600116156101000203166002900480601f01602080910402602001604051908101604052809291908181526020018280546001816001161561010002031660029004801561102e5780601f106110035761010080835404028352916020019161102e565b820191906000526020600020905b81548152906001019060200180831161101157829003601f168201915b5050505050935093509350935093509193509193565b8261104d611846565b600160a060020a03167f145862c7367530e21cc0424a3961d2c293f10593488a3362ac030d873078c07584846040518080602001838152602001828103825284818151815260200191508051906020019080838360005b838110156110bc5780820151838201526020016110a4565b50505050905090810190601f1680156110e95780820380516001836020036101000a031916815260200191505b50935050505060405180910390a3505050565b60008060008361110b81611586565b8061113d57506111286000805160206126dc8339815191526109dc565b600160a060020a031633600160a060020a0316145b156111dd5761114a61095f565b925082600160a060020a031663c269014b8660006040516020015260405160e060020a63ffffffff8416028152600160a060020a039091166004820152602401602060405180830381600087803b15156111a357600080fd5b6102c65a03f115156111b457600080fd5b505050604051805160020a92508290506111d76000600c8963ffffffff611a5e16565b16151593505b50505092915050565b600254600160a060020a031681565b600061098a81600663ffffffff611b9216565b80600160a060020a03831661121b611846565b600160a060020a03167fec0353ba566ca347b6fe9d82111b02859275ab59a0a78b16b3485e98f43cd00360405160405180910390a45050565b60025460009081908190819033600160a060020a03908116911614156111dd57600092505b85518310156113975785838151811061128e57fe5b90602001906020020151915081600160a060020a03166370a082313060006040516020015260405160e060020a63ffffffff8416028152600160a060020a039091166004820152602401602060405180830381600087803b15156112f157600080fd5b6102c65a03f1151561130257600080fd5b5050506040518051915050801561138c5781600160a060020a031663a9059cbb868360006040516020015260405160e060020a63ffffffff8516028152600160a060020a0390921660048301526024820152604401602060405180830381600087803b151561137057600080fd5b6102c65a03f1151561138157600080fd5b505050604051805150505b600190920191611279565b50600195945050505050565b6113ab611846565b600160a060020a03167f9cf38cf2dbf9139f5c32639950507b10775fbbe0421f3e168bc2d1bb1ae3208c8260405190815260200160405180910390a250565b6113f2612509565b6113fa612509565b611402612509565b61140a612509565b60006114146111f5565b6040518059106114215750595b9080825280602002602001820160405250945061143c6111f5565b6040518059106114495750595b908082528060200260200182016040525093506114646111f5565b6040518059106114715750595b9080825280602002602001820160405250925061148c6111f5565b6040518059106114995750595b90808252806020026020018201604052509150600090505b6114b96111f5565b81101561157f576114d3600060068363ffffffff611ba816565b8582815181106114df57fe5b60209081029091010152611513600b8683815181106114fa57fe5b906020019060200201516000919063ffffffff611a5e16565b84828151811061151f57fe5b6020908102909101015261153a600c8683815181106114fa57fe5b83828151811061154657fe5b60209081029091010152611561600d8683815181106114fa57fe5b82828151811061156d57fe5b602090810290910101526001016114b1565b5090919293565b6000806115b27f557365724d616e616765720000000000000000000000000000000000000000006109dc565b905080600160a060020a0316632aa09e5a8460006040516020015260405160e060020a63ffffffff8416028152600160a060020a039091166004820152602401602060405180830381600087803b151561160b57600080fd5b6102c65a03f1151561161c57600080fd5b5050506040518051949350505050565b600554600160a060020a031690565b6000611652848460ea60020a621cd95d0285611bbf565b949350505050565b600061166461162c565b600160a060020a031663df26ca088360405160e060020a63ffffffff84160281526004810191909152602401600060405180830381600087803b15156116a957600080fd5b6102c65a03f115156116ba57600080fd5b50929392505050565b6116d8838360ea60020a621cd95d0284611bdb565b505050565b6116f2848484600160a060020a038516611c2f565b50505050565b6116f284848484611c2f565b60006117108383611cc1565b90506001811461171f57610d0f565b611732600060098563ffffffff611a5e16565b600160a060020a0316151561174a5750610fa0610d0f565b61175d600060098563ffffffff611a5e16565b6000848152600e602052604090819020600160a060020a039290921691905180828054600181600116156101000203166002900480156117de5780601f106117b3576101008083540402835291602001916117de565b820191906000526020600020905b8154815290600101906020018083116117c157829003601f168201915b505091505060006040518083038160008661646e5a03f191505015156118075750610fa4610d0f565b61181083611ade565b50600192915050565b60006001821415801561182d575060038214155b156118425761183b8261165a565b905061095a565b5090565b3390565b60025460009081908190819033600160a060020a0390811691161461186e57600080fd5b600160a060020a038616151561188357600080fd5b600454600160a060020a03161580159350806118ad5750600454600160a060020a03878116911614155b156118ce5760048054600160a060020a031916600160a060020a0388161790555b600454600160a060020a031691508163bc65792760006040516020015260405160e060020a63ffffffff83160281527f4d756c74694576656e7473486973746f727900000000000000000000000000006004820152602401602060405180830381600087803b151561193f57600080fd5b6102c65a03f1151561195057600080fd5b5050506040518051915050600160a060020a038116158015906119815750600554600160a060020a03828116911614155b156119a25760058054600160a060020a031916600160a060020a0383161790555b8415611a295781600160a060020a031663b7c46cd5308760006040516020015260405160e060020a63ffffffff8516028152600160a060020a0390921660048301526024820152604401602060405180830381600087803b1515611a0557600080fd5b6102c65a03f11515611a1657600080fd5b50505060405180516001149050611a2957fe5b82156113975760069695505050505050565b60025433600160a060020a0390811691161415610cf95733600160a060020a0316ff5b6000611652848484611eec565b611a7361162c565b600160a060020a031663d4554737838360405160e060020a63ffffffff8516028152600160a060020a0390921660048301526024820152604401600060405180830381600087803b1515611ac657600080fd5b6102c65a03f11515611ad757600080fd5b5050505050565b600080611af38160068563ffffffff611f8616565b9150611b076000600663ffffffff611b9216565b905060001981018214611b2157611b218260018303611f9d565b6116d8600060068563ffffffff61212916565b611b3c61162c565b600160a060020a0316637d11317a8260405160e060020a63ffffffff84160281526004810191909152602401600060405180830381600087803b1515611b8157600080fd5b6102c65a03f115156116f257600080fd5b6000610c1d838360ea60020a621cd95d0261213e565b6000611652848460ea60020a621cd95d028561214b565b6000611bd085856001018585612168565b151595945050505050565b6000611be985858585611bbf565b15611bf357611ad7565b611bfe85858561213e565b6001019050611c13856002860185848661218d565b611c23856001860185858561218d565b611ad7858585846121b1565b835460018501548454600160a060020a039092169163a14ff85791908560405191825260208201526040908101905180910390208460405160e060020a63ffffffff8616028152600481019390935260248301919091526044820152606401600060405180830381600087803b1515611ca757600080fd5b6102c65a03f11515611cb857600080fd5b50505050505050565b60008060008084611cd181611586565b80611d035750611cee6000805160206126dc8339815191526109dc565b600160a060020a031633600160a060020a0316145b15611ee257611d1061095f565b935083600160a060020a031663c269014b8760006040516020015260405160e060020a63ffffffff8416028152600160a060020a039091166004820152602401602060405180830381600087803b1515611d6957600080fd5b6102c65a03f11515611d7a57600080fd5b505050604051805160020a9350839050611d9d6000600c8a63ffffffff611a5e16565b1615611dad57610fa59450611ee2565b6001611dc26000600b8a63ffffffff611a5e16565b11611e8e57611e8587600e60008a600019166000191681526020019081526020016000208054600181600116156101000203166002900480601f016020809104026020016040519081016040528092919081815260200182805460018160011615610100020316600290048015611e7a5780601f10611e4f57610100808354040283529160200191611e7a565b820191906000526020600020905b815481529060010190602001808311611e5d57829003601f168201915b505050505042612229565b60019450611ee2565b611ea8600b886001610e936000848463ffffffff611a5e16565b611ebb6000600c8963ffffffff611a5e16565b83179150611ed36000600c898563ffffffff6116f816565b611edd8688612306565b600394505b5050505092915050565b825460018401548354600092600160a060020a0316916337d9d7fc9185604051918252602082015260409081019051809103902060006040516020015260405160e060020a63ffffffff851602815260048101929092526024820152604401602060405180830381600087803b1515611f6457600080fd5b6102c65a03f11515611f7557600080fd5b505050604051805195945050505050565b6000611652848460ea60020a621cd95d0285612361565b611fec6009611fb5600060068663ffffffff611ba816565b611fdc6009611fcd600060068863ffffffff611ba816565b6000919063ffffffff611a5e16565b600092919063ffffffff6116dd16565b61202c600a612004600060068663ffffffff611ba816565b61201c600a611fcd600060068863ffffffff611ba816565b600092919063ffffffff6116f816565b61205c600b612044600060068663ffffffff611ba816565b61201c600b611fcd600060068863ffffffff611ba816565b61208c600c612074600060068663ffffffff611ba816565b61201c600c611fcd600060068863ffffffff611ba816565b6120bc600d6120a4600060068663ffffffff611ba816565b61201c600d611fcd600060068863ffffffff611ba816565b600e60006120d28160068563ffffffff611ba816565b81526020810191909152604001600090812090600e906120fa8160068763ffffffff611ba816565b8152602081019190915260400160002081546116d892906002610100600183161502600019019091160461251b565b6116d8838360ea60020a621cd95d0284612372565b6000611652848484612417565b600061215f85600286018560018601612168565b95945050505050565b600061215f858585856040519182526020820152604090810190518091039020611eec565b611ad785858585604051918252602082015260409081019051809103902084611c2f565b835460018501548454600160a060020a03909216916353e7168b91908560405191825260208201526040908101905180910390208460405160e060020a63ffffffff8616028152600481019390935260248301919091526044820152606401600060405180830381600087803b1515611ca757600080fd5b61223161162c565b600160a060020a031663c02ea6d784848460405160e060020a63ffffffff86160281526004810184815260448201839052606060248301908152909160640184818151815260200191508051906020019080838360005b838110156122a0578082015183820152602001612288565b50505050905090810190601f1680156122cd5780820380516001836020036101000a031916815260200191505b50945050505050600060405180830381600087803b15156122ed57600080fd5b6102c65a03f115156122fe57600080fd5b505050505050565b61230e61162c565b600160a060020a03166314da0797838360405160e060020a63ffffffff8516028152600160a060020a0390921660048301526024820152604401600060405180830381600087803b1515611ac657600080fd5b600061215f85856001018585612168565b600080600061238387878787611bbf565b151561238e57611cb8565b61239987878761213e565b92506123aa87600288018786612168565b91506123bb87876001018787612168565b9050828110156123e5576123d5876001880187858561218d565b6123e5876002880187848661218d565b6123f687600188018787600061218d565b61240787600288018786600061218d565b611cb887878760001987016121b1565b825460018401548354600092600160a060020a0316916353aa3f5e9185604051918252602082015260409081019051809103902060006040516020015260405160e060020a63ffffffff851602815260048101929092526024820152604401602060405180830381600087803b1515611f6457600080fd5b828054600181600116156101000203166002900490600052602060002090601f016020900481019282601f106124d057805160ff19168380011785556124fd565b828001600101855582156124fd579182015b828111156124fd5782518255916020019190600101906124e2565b50611842929150612590565b60206040519081016040526000815290565b828054600181600116156101000203166002900490600052602060002090601f016020900481019282601f1061255457805485556124fd565b828001600101855582156124fd57600052602060002091601f016020900482015b828111156124fd578254825591600101919060010190612575565b61098d91905b808211156118425760008155600101612596565b8254600160a060020a031916600160a060020a0392909216919091178255600190910155565b61261182826040519081527f636f756e74000000000000000000000000000000000000000000000000000000602082015260250160405180910390206126ad565b61265582600101826040519081527f696e646578657300000000000000000000000000000000000000000000000000602082015260270160405180910390206126ad565b61269982600201826040519081527f76616c7565730000000000000000000000000000000000000000000000000000602082015260260160405180910390206126ad565b5050565b61269982826126ad565b61269982825b81546126b990826126c5565b9055565b81546126b990825b811515806126d1575080155b1561269957600080fd0050656e64696e674d616e61676572000000000000000000000000000000000000a165627a7a7230582033dec9705cdc819015be242b3e22804d6fd941d044b761bd9c742b992bd70d9a0029",
  "source": "pragma solidity ^0.4.11;\n\nimport \"../core/user/UserManagerInterface.sol\";\nimport \"../core/common/BaseManager.sol\";\nimport \"./PendingManagerEmitter.sol\";\n\ncontract PendingManager is PendingManagerEmitter, BaseManager {\n\n    uint constant ERROR_PENDING_NOT_FOUND = 4000;\n    uint constant ERROR_PENDING_INVALID_INVOCATION = 4001;\n    uint constant ERROR_PENDING_ADD_CONTRACT = 4002;\n    uint constant ERROR_PENDING_DUPLICATE_TX = 4003;\n    uint constant ERROR_PENDING_CANNOT_CONFIRM = 4004;\n    uint constant ERROR_PENDING_PREVIOUSLY_CONFIRMED = 4005;\n\n    // TYPES\n    StorageInterface.Set txHashes;\n    StorageInterface.Bytes32AddressMapping to;\n    StorageInterface.Bytes32UIntMapping value;\n    StorageInterface.Bytes32UIntMapping yetNeeded;\n    StorageInterface.Bytes32UIntMapping ownersDone;\n    StorageInterface.Bytes32UIntMapping timestamp;\n\n    mapping (bytes32 => bytes) data;\n\n    function PendingManager(Storage _store, bytes32 _crate) BaseManager(_store, _crate) {\n        txHashes.init('txHashesh');\n        to.init('to');\n        value.init('value');\n        yetNeeded.init('yetNeeded');\n        ownersDone.init('ownersDone');\n        timestamp.init('timestamp');\n    }\n\n    // METHODS\n\n    function init(address _contractsManager) onlyContractOwner returns (uint errorCode) {\n        BaseManager.init(_contractsManager, \"PendingManager\");\n        return OK;\n    }\n\n    function pendingsCount() constant returns (uint) {\n        return store.count(txHashes);\n    }\n\n    function getTxs() constant returns (bytes32[] _hashes, uint[] _yetNeeded, uint[] _ownersDone, uint[] _timestamp) {\n        _hashes = new bytes32[](pendingsCount());\n        _yetNeeded = new uint[](pendingsCount());\n        _ownersDone = new uint[](pendingsCount());\n        _timestamp = new uint[](pendingsCount());\n        for (uint i = 0; i < pendingsCount(); i++) {\n            _hashes[i] = store.get(txHashes, i);\n            _yetNeeded[i] = store.get(yetNeeded, _hashes[i]);\n            _ownersDone[i] = store.get(ownersDone, _hashes[i]);\n            _timestamp[i] = store.get(timestamp, _hashes[i]);\n        }\n        return (_hashes, _yetNeeded, _ownersDone, _timestamp);\n    }\n\n    function getTx(bytes32 _hash) constant returns (bytes _data, uint _yetNeeded, uint _ownersDone, uint _timestamp) {\n        return (data[_hash], store.get(yetNeeded, _hash), store.get(ownersDone, _hash), store.get(timestamp, _hash));\n    }\n\n    function pendingYetNeeded(bytes32 _hash) constant returns (uint) {\n        return store.get(yetNeeded, _hash);\n    }\n\n    function getTxData(bytes32 _hash) constant returns (bytes) {\n        return data[_hash];\n    }\n\n    function getUserManager() constant returns (address) {\n        return lookupManager(\"UserManager\");\n    }\n\n    function addTx(bytes32 _hash, bytes _data, address _to, address _sender) onlyAuthorizedContract(_sender) returns (uint errorCode) {\n        if (store.includes(txHashes, _hash)) {\n            return _emitError(ERROR_PENDING_DUPLICATE_TX);\n        }\n\n        store.add(txHashes, _hash);\n        data[_hash] = _data;\n        store.set(to, _hash, _to);\n        address userManager = getUserManager();\n        store.set(yetNeeded, _hash, UserManagerInterface(userManager).required());\n        store.set(timestamp, _hash, now);\n\n        errorCode = conf(_hash, _sender);\n        return _checkAndEmitError(errorCode);\n    }\n\n    function confirm(bytes32 _hash) external returns (uint) {\n        uint errorCode = conf(_hash, msg.sender);\n        return _checkAndEmitError(errorCode);\n    }\n\n    function conf(bytes32 _hash, address _sender) internal returns (uint errorCode) {\n        errorCode = confirmAndCheck(_hash, _sender);\n        if (OK != errorCode) {\n            return errorCode;\n        }\n\n        if (store.get(to, _hash) == 0) {\n            return ERROR_PENDING_NOT_FOUND;\n        }\n\n        if (!store.get(to, _hash).call(data[_hash])) {\n            return ERROR_PENDING_CANNOT_CONFIRM;\n        }\n\n        deleteTx(_hash);\n        return OK;\n    }\n\n    // revokes a prior confirmation of the given operation\n    function revoke(bytes32 _hash) external onlyAuthorized returns (uint errorCode) {\n        address userManager = getUserManager();\n        uint ownerIndexBit = 2 ** UserManagerInterface(userManager).getMemberId(msg.sender);\n        if (store.get(ownersDone, _hash) & ownerIndexBit <= 0) {\n            errorCode = _emitError(ERROR_PENDING_NOT_FOUND);\n            return errorCode;\n        }\n\n        store.set(yetNeeded, _hash, store.get(yetNeeded, _hash) + 1);\n        store.set(ownersDone, _hash, store.get(ownersDone, _hash) - ownerIndexBit);\n        _emitRevoke(msg.sender, _hash);\n        if (store.get(yetNeeded, _hash) == UserManagerInterface(userManager).required()) {\n            deleteTx(_hash);\n            _emitCancelled(_hash);\n        }\n\n        errorCode = OK;\n    }\n\n    function hasConfirmed(bytes32 _hash, address _owner) onlyAuthorizedContract(_owner) constant returns (bool) {\n        // determine the bit to set for this owner\n        address userManager = getUserManager();\n        uint ownerIndexBit = 2 ** UserManagerInterface(userManager).getMemberId(_owner);\n        return !(store.get(ownersDone, _hash) & ownerIndexBit == 0);\n    }\n\n\n    // INTERNAL METHODS\n\n    function confirmAndCheck(bytes32 _hash, address _sender) internal onlyAuthorizedContract(_sender) returns (uint) {\n        // determine the bit to set for this owner\n        address userManager = getUserManager();\n        uint ownerIndexBit = 2 ** UserManagerInterface(userManager).getMemberId(_sender);\n        // make sure we (the message sender) haven't confirmed this operation previously\n        if (store.get(ownersDone, _hash) & ownerIndexBit != 0) {\n            return ERROR_PENDING_PREVIOUSLY_CONFIRMED;\n        }\n\n        // ok - check if count is enough to go ahead\n        if (store.get(yetNeeded, _hash) <= 1) {\n            // enough confirmations: reset and run interior\n            _emitDone(_hash, data[_hash], now);\n            return OK;\n        } else {\n            // not enough: record that this owner in particular confirmed\n            store.set(yetNeeded, _hash, store.get(yetNeeded, _hash) - 1);\n            uint _ownersDone = store.get(ownersDone, _hash);\n            _ownersDone |= ownerIndexBit;\n            store.set(ownersDone, _hash, _ownersDone);\n            _emitConfirmation(_sender, _hash);\n            return MULTISIG_ADDED;\n        }\n    }\n\n    function deleteTx(bytes32 _hash) internal {\n        uint txId = store.getIndex(txHashes, _hash);\n        uint txCount = store.count(txHashes);\n        if (txId != txCount - 1) {\n            updateTxId(txId, txCount - 1);\n        }\n\n        store.remove(txHashes, _hash);\n    }\n\n    function updateTxId(uint _oldId, uint _newId) internal {\n        store.set(to, store.get(txHashes, _oldId), store.get(to, store.get(txHashes, _newId)));\n        store.set(value, store.get(txHashes, _oldId), store.get(value, store.get(txHashes, _newId)));\n        store.set(yetNeeded, store.get(txHashes, _oldId), store.get(yetNeeded, store.get(txHashes, _newId)));\n        store.set(ownersDone, store.get(txHashes, _oldId), store.get(ownersDone, store.get(txHashes, _newId)));\n        store.set(timestamp, store.get(txHashes, _oldId), store.get(timestamp, store.get(txHashes, _newId)));\n        data[store.get(txHashes, _oldId)] = data[store.get(txHashes, _newId)];\n    }\n\n    function _emitConfirmation(address owner, bytes32 hash) internal {\n        PendingManager(getEventsHistory()).emitConfirmation(owner, hash);\n    }\n\n    function _emitRevoke(address owner, bytes32 hash) internal {\n        PendingManager(getEventsHistory()).emitRevoke(owner, hash);\n    }\n\n    function _emitCancelled(bytes32 hash) internal {\n        PendingManager(getEventsHistory()).emitCancelled(hash);\n    }\n\n    function _emitDone(bytes32 hash, bytes data, uint timestamp) internal {\n        PendingManager(getEventsHistory()).emitDone(hash, data, timestamp);\n    }\n\n    function _emitError(uint error) internal returns (uint) {\n        PendingManager(getEventsHistory()).emitError(error);\n\n        return error;\n    }\n\n    function _checkAndEmitError(uint error) internal returns (uint)  {\n        if (error != OK && error != MULTISIG_ADDED) {\n            return _emitError(error);\n        }\n\n        return error;\n    }\n\n    function() {\n        throw;\n    }\n}\n",
  "sourcePath": "/Users/mikefluff/Documents/Programming/Chronobank/test/SmartContracts/contracts/pending/PendingManager.sol",
  "compiler": {
    "name": "solc",
    "version": "0.4.18+commit.9cf6e910.Emscripten.clang"
  },
  "schemaVersion": "1.0.1",
  "updatedAt": "2018-01-12T11:40:45.467Z"
}