{
  "contractName": "PlatformTokenExtensionGatewayManager",
  "abi": [
    {
      "constant": false,
      "inputs": [
        {
          "name": "_contractsManager",
          "type": "address"
        }
      ],
      "name": "init",
      "outputs": [
        {
          "name": "resultCode",
          "type": "uint256"
        }
      ],
      "payable": false,
      "stateMutability": "nonpayable",
      "type": "function"
    },
    {
      "constant": false,
      "inputs": [
        {
          "name": "_crowdsale",
          "type": "address"
        }
      ],
      "name": "deleteCrowdsaleCampaign",
      "outputs": [
        {
          "name": "result",
          "type": "uint256"
        }
      ],
      "payable": false,
      "stateMutability": "nonpayable",
      "type": "function"
    },
    {
      "constant": false,
      "inputs": [],
      "name": "claimContractOwnership",
      "outputs": [
        {
          "name": "",
          "type": "bool"
        }
      ],
      "payable": false,
      "stateMutability": "nonpayable",
      "type": "function"
    },
    {
      "constant": true,
      "inputs": [
        {
          "name": "_identifier",
          "type": "bytes32"
        }
      ],
      "name": "lookupManager",
      "outputs": [
        {
          "name": "manager",
          "type": "address"
        }
      ],
      "payable": false,
      "stateMutability": "view",
      "type": "function"
    },
    {
      "constant": false,
      "inputs": [
        {
          "name": "_to",
          "type": "address"
        }
      ],
      "name": "changeContractOwnership",
      "outputs": [
        {
          "name": "",
          "type": "bool"
        }
      ],
      "payable": false,
      "stateMutability": "nonpayable",
      "type": "function"
    },
    {
      "constant": false,
      "inputs": [
        {
          "name": "_symbol",
          "type": "bytes32"
        },
        {
          "name": "_name",
          "type": "string"
        },
        {
          "name": "_description",
          "type": "string"
        },
        {
          "name": "_value",
          "type": "uint256"
        },
        {
          "name": "_decimals",
          "type": "uint8"
        },
        {
          "name": "_isMint",
          "type": "bool"
        },
        {
          "name": "_feeAddress",
          "type": "address"
        },
        {
          "name": "_feePercent",
          "type": "uint32"
        },
        {
          "name": "_tokenImageIpfsHash",
          "type": "bytes32"
        }
      ],
      "name": "createAssetWithFee",
      "outputs": [
        {
          "name": "resultCode",
          "type": "uint256"
        }
      ],
      "payable": false,
      "stateMutability": "nonpayable",
      "type": "function"
    },
    {
      "constant": true,
      "inputs": [],
      "name": "pendingContractOwner",
      "outputs": [
        {
          "name": "",
          "type": "address"
        }
      ],
      "payable": false,
      "stateMutability": "view",
      "type": "function"
    },
    {
      "constant": true,
      "inputs": [],
      "name": "getRevokeAssetProxy",
      "outputs": [
        {
          "name": "",
          "type": "address"
        }
      ],
      "payable": false,
      "stateMutability": "view",
      "type": "function"
    },
    {
      "constant": false,
      "inputs": [
        {
          "name": "_symbol",
          "type": "bytes32"
        },
        {
          "name": "_crowdsaleFactoryName",
          "type": "bytes32"
        }
      ],
      "name": "createCrowdsaleCampaign",
      "outputs": [
        {
          "name": "",
          "type": "uint256"
        }
      ],
      "payable": false,
      "stateMutability": "nonpayable",
      "type": "function"
    },
    {
      "constant": false,
      "inputs": [],
      "name": "destroy",
      "outputs": [],
      "payable": false,
      "stateMutability": "nonpayable",
      "type": "function"
    },
    {
      "constant": true,
      "inputs": [],
      "name": "getTokenFactory",
      "outputs": [
        {
          "name": "",
          "type": "address"
        }
      ],
      "payable": false,
      "stateMutability": "view",
      "type": "function"
    },
    {
      "constant": true,
      "inputs": [],
      "name": "getAssetOwnershipManager",
      "outputs": [
        {
          "name": "",
          "type": "address"
        }
      ],
      "payable": false,
      "stateMutability": "view",
      "type": "function"
    },
    {
      "constant": false,
      "inputs": [
        {
          "name": "_to",
          "type": "address"
        }
      ],
      "name": "transferContractOwnership",
      "outputs": [
        {
          "name": "",
          "type": "bool"
        }
      ],
      "payable": false,
      "stateMutability": "nonpayable",
      "type": "function"
    },
    {
      "constant": false,
      "inputs": [
        {
          "name": "_symbol",
          "type": "bytes32"
        },
        {
          "name": "_name",
          "type": "string"
        },
        {
          "name": "_description",
          "type": "string"
        },
        {
          "name": "_value",
          "type": "uint256"
        },
        {
          "name": "_decimals",
          "type": "uint8"
        },
        {
          "name": "_isMint",
          "type": "bool"
        },
        {
          "name": "_tokenImageIpfsHash",
          "type": "bytes32"
        }
      ],
      "name": "createAssetWithoutFee",
      "outputs": [
        {
          "name": "resultCode",
          "type": "uint256"
        }
      ],
      "payable": false,
      "stateMutability": "nonpayable",
      "type": "function"
    },
    {
      "constant": true,
      "inputs": [],
      "name": "contractOwner",
      "outputs": [
        {
          "name": "",
          "type": "address"
        }
      ],
      "payable": false,
      "stateMutability": "view",
      "type": "function"
    },
    {
      "constant": true,
      "inputs": [],
      "name": "getReissueAssetProxy",
      "outputs": [
        {
          "name": "",
          "type": "address"
        }
      ],
      "payable": false,
      "stateMutability": "view",
      "type": "function"
    },
    {
      "constant": true,
      "inputs": [],
      "name": "getEventsHistory",
      "outputs": [
        {
          "name": "",
          "type": "address"
        }
      ],
      "payable": false,
      "stateMutability": "view",
      "type": "function"
    },
    {
      "inputs": [],
      "payable": false,
      "stateMutability": "nonpayable",
      "type": "constructor"
    },
    {
      "payable": false,
      "stateMutability": "nonpayable",
      "type": "fallback"
    }
  ],
  "bytecode": "0x6060604052341561000f57600080fd5b60028054600160a060020a03191633600160a060020a031617905561213c806100396000396000f3006060604052600436106100d75763ffffffff60e060020a60003504166319ab453c81146100e757806325115a36146101185780634592cd1d146101375780634fe590121461015e578063557f4bc91461019057806358d261f2146101af5780635aa77d3c14610278578063698f76831461028b57806376d064d71461029e57806383197ef0146102b7578063925d6ba2146102cc57806394d0169f1461028b578063a843c51f146102df578063b3a31ef4146102fe578063ce606ee0146103ae578063d363228f1461028b578063fff10aba146103c1575b34156100e257600080fd5b600080fd5b34156100f257600080fd5b610106600160a060020a03600435166103d4565b60405190815260200160405180910390f35b341561012357600080fd5b610106600160a060020a036004351661051b565b341561014257600080fd5b61014a610782565b604051901515815260200160405180910390f35b341561016957600080fd5b6101746004356107dc565b604051600160a060020a03909116815260200160405180910390f35b341561019b57600080fd5b61014a600160a060020a0360043516610860565b34156101ba57600080fd5b610106600480359060446024803590810190830135806020601f8201819004810201604051908101604052818152929190602084018383808284378201915050505050509190803590602001908201803590602001908080601f0160208091040260200160405190810160405281815292919060208401838380828437509496505084359460ff6020820135169450604081013515159350600160a060020a03606082013516925063ffffffff608082013516915060a001356108c4565b341561028357600080fd5b610174610988565b341561029657600080fd5b610174610997565b34156102a957600080fd5b6101066004356024356109a6565b34156102c257600080fd5b6102ca610a5c565b005b34156102d757600080fd5b610174610af7565b34156102ea57600080fd5b61014a600160a060020a0360043516610b86565b341561030957600080fd5b610106600480359060446024803590810190830135806020601f8201819004810201604051908101604052818152929190602084018383808284378201915050505050509190803590602001908201803590602001908080601f0160208091040260200160405190810160405281815292919060208401838380828437509496505084359460ff6020820135169450604081013515159350606001359150610c199050565b34156103b957600080fd5b610174610cd9565b34156103cc57600080fd5b610174610ce8565b600254600090819033600160a060020a039081169116141561051557600160a060020a038316151561040557600080fd5b50600054600160a060020a0316158015908061042f5750600054600160a060020a03848116911614155b1561045d576000805473ffffffffffffffffffffffffffffffffffffffff1916600160a060020a0385161790555b60008054600160a060020a03169063b7c46cd59030906040516020015260405160e060020a63ffffffff8416028152600160a060020a0390911660048201527f546f6b656e457874656e73696f6e4761746577617900000000000000000000006024820152604401602060405180830381600087803b15156104de57600080fd5b6102c65a03f115156104ef57600080fd5b5050506040518051600114905061050257fe5b801561050f576006610512565b60015b91505b50919050565b600154600090819081908190600160a060020a03338116911663ce606ee083604051602001526040518163ffffffff1660e060020a028152600401602060405180830381600087803b151561056f57600080fd5b6102c65a03f1151561058057600080fd5b50505060405180519050600160a060020a031614806105b0575030600160a060020a031633600160a060020a0316145b1561077a5784600160a060020a031663150704016000604051602001526040518163ffffffff1660e060020a028152600401602060405180830381600087803b15156105fb57600080fd5b6102c65a03f1151561060c57600080fd5b505050604051805190509250610620610997565b915061064b7f43726f776473616c654d616e61676572000000000000000000000000000000006107dc565b905080600160a060020a031663eae224b68660006040516020015260405160e060020a63ffffffff8416028152600160a060020a039091166004820152602401602060405180830381600087803b15156106a457600080fd5b6102c65a03f115156106b557600080fd5b5050506040518051945050600184146106d8576106d184610d18565b935061077a565b81600160a060020a031663ec77809f848760006040516020015260405160e060020a63ffffffff85160281526004810192909252600160a060020a03166024820152604401602060405180830381600087803b151561073657600080fd5b6102c65a03f1151561074757600080fd5b5050506040518051600114905061075d57600080fd5b60015461077590600160a060020a0316848733610d81565b600193505b505050919050565b60035460009033600160a060020a039081169116146107a3575060006107d9565b50600380546002805473ffffffffffffffffffffffffffffffffffffffff19908116600160a060020a0384161790915516905560015b90565b60008054600160a060020a031663bc65792783836040516020015260405160e060020a63ffffffff84160281526004810191909152602401602060405180830381600087803b151561082d57600080fd5b6102c65a03f1151561083e57600080fd5b5050506040518051915050600160a060020a038116151561085b57fe5b919050565b60025460009033600160a060020a039081169116141561085b57600160a060020a03821615156108925750600061085b565b5060038054600160a060020a03831673ffffffffffffffffffffffffffffffffffffffff199091161790556001919050565b600154600090600160a060020a03338116911663ce606ee083604051602001526040518163ffffffff1660e060020a028152600401602060405180830381600087803b151561091257600080fd5b6102c65a03f1151561092357600080fd5b50505060405180519050600160a060020a03161480610953575030600160a060020a031633600160a060020a0316145b1561097b576109788a8a8a8a8a8a8a8a8a602060405190810160405260008152610e0b565b90505b9998505050505050505050565b600354600160a060020a031681565b600154600160a060020a031690565b600154600090600160a060020a03338116911663ce606ee083604051602001526040518163ffffffff1660e060020a028152600401602060405180830381600087803b15156109f457600080fd5b6102c65a03f11515610a0557600080fd5b50505060405180519050600160a060020a03161480610a35575030600160a060020a031633600160a060020a0316145b15610a5657610a538383602060405190810160405260008152611014565b90505b92915050565b60025433600160a060020a0390811691161415610af55760008054600160a060020a03169063c375c2ef9030906040516020015260405160e060020a63ffffffff8416028152600160a060020a039091166004820152602401602060405180830381600087803b1515610ace57600080fd5b6102c65a03f11515610adf57600080fd5b50505060405180515050600160a060020a033316ff5b565b6000610b227f4173736574734d616e61676572000000000000000000000000000000000000006107dc565b600160a060020a031663925d6ba26000604051602001526040518163ffffffff1660e060020a028152600401602060405180830381600087803b1515610b6757600080fd5b6102c65a03f11515610b7857600080fd5b505050604051805191505090565b60025460009033600160a060020a039081169116141561085b57600160a060020a0382161515610bb85750600061085b565b600354600160a060020a031615610be7576003805473ffffffffffffffffffffffffffffffffffffffff191690555b5060028054600160a060020a03831673ffffffffffffffffffffffffffffffffffffffff199091161790556001919050565b600154600090600160a060020a03338116911663ce606ee083604051602001526040518163ffffffff1660e060020a028152600401602060405180830381600087803b1515610c6757600080fd5b6102c65a03f11515610c7857600080fd5b50505060405180519050600160a060020a03161480610ca8575030600160a060020a031633600160a060020a0316145b15610cce57610ccb8888888888888860206040519081016040526000815261132d565b90505b979650505050505050565b600254600160a060020a031681565b6000610d137f4d756c74694576656e7473486973746f727900000000000000000000000000006107dc565b905090565b6000610d22610ce8565b600160a060020a031663df26ca088360405160e060020a63ffffffff84160281526004810191909152602401600060405180830381600087803b1515610d6757600080fd5b6102c65a03f11515610d7857600080fd5b50929392505050565b610d89610ce8565b600160a060020a0316630252fbce8585858560405160e060020a63ffffffff8716028152600160a060020a039485166004820152602481019390935290831660448301529091166064820152608401600060405180830381600087803b1515610df157600080fd5b6102c65a03f11515610e0257600080fd5b50505050505050565b60008082610e17611523565b600160a060020a031663709586c13330600035600160e060020a03191660006040516020015260405160e060020a63ffffffff8616028152600160a060020a039384166004820152919092166024820152600160e060020a03199091166044820152606401602060405180830381600087803b1515610e9557600080fd5b6102c65a03f11515610ea657600080fd5b505050604051805190501515610ec2576155f060005260206000f35b600160a060020a0387161515610ed757600080fd5b610ee58d8d8d8d8d8d61154e565b925060018314610eff57610ef883610d18565b9250610f48565b610f25610f0a610af7565b610f1c610f15610af7565b8a8a61177f565b8f8f8d8a6118ea565b600154909250610f4090600160a060020a03168e8433611d2d565b600180855292505b60018151148015610ffa57506001610f5e611523565b600160a060020a03166384509ca83330600035600160e060020a03191660006040516020015260405160e060020a63ffffffff8616028152600160a060020a039384166004820152919092166024820152600160e060020a03199091166044820152606401602060405180830381600087803b1515610fdc57600080fd5b6102c65a03f11515610fed57600080fd5b5050506040518051905014155b1561100457600080fd5b50509a9950505050505050505050565b600080600080600085611025611523565b600160a060020a031663709586c13330600035600160e060020a03191660006040516020015260405160e060020a63ffffffff8616028152600160a060020a039384166004820152919092166024820152600160e060020a03199091166044820152606401602060405180830381600087803b15156110a357600080fd5b6102c65a03f115156110b457600080fd5b5050506040518051905015156110d0576155f060005260206000f35b8815156110dc57600080fd5b8715156110e857600080fd5b6110f0610997565b945061111b7f43726f776473616c654d616e61676572000000000000000000000000000000006107dc565b935083600160a060020a031663690719ff338b8b60006040516040015260405160e060020a63ffffffff8616028152600160a060020a039093166004840152602483019190915260448201526064016040805180830381600087803b151561118257600080fd5b6102c65a03f1151561119357600080fd5b505050604051805190602001805191945090925050600182146111c0576111b982610d18565b9550611265565b84600160a060020a031663048ae1bb8a8560006040516020015260405160e060020a63ffffffff85160281526004810192909252600160a060020a03166024820152604401602060405180830381600087803b151561121e57600080fd5b6102c65a03f1151561122f57600080fd5b5050506040518051600114905061124557600080fd5b60015461125d90600160a060020a03168a8533611d9d565b600180885295505b600181511480156113175750600161127b611523565b600160a060020a03166384509ca83330600035600160e060020a03191660006040516020015260405160e060020a63ffffffff8616028152600160a060020a039384166004820152919092166024820152600160e060020a03199091166044820152606401602060405180830381600087803b15156112f957600080fd5b6102c65a03f1151561130a57600080fd5b5050506040518051905014155b1561132157600080fd5b50505050509392505050565b60008060008361133b611523565b600160a060020a031663709586c13330600035600160e060020a03191660006040516020015260405160e060020a63ffffffff8616028152600160a060020a039384166004820152919092166024820152600160e060020a03199091166044820152606401602060405180830381600087803b15156113b957600080fd5b6102c65a03f115156113ca57600080fd5b5050506040518051905015156113e6576155f060005260206000f35b6113f48c8c8c8c8c8c61154e565b93506001841461140e5761140784610d18565b9350611458565b61141e611419610af7565b611e0d565b925061143561142b610af7565b848e8e8c8b6118ea565b60015490925061145090600160a060020a03168d8433611d2d565b600180865293505b6001815114801561150a5750600161146e611523565b600160a060020a03166384509ca83330600035600160e060020a03191660006040516020015260405160e060020a63ffffffff8616028152600160a060020a039384166004820152919092166024820152600160e060020a03199091166044820152606401602060405180830381600087803b15156114ec57600080fd5b6102c65a03f115156114fd57600080fd5b5050506040518051905014155b1561151457600080fd5b50505098975050505050505050565b6000610d137f466561747572654665654d616e616765720000000000000000000000000000006107dc565b60008061157a7f45524332304d616e6167657200000000000000000000000000000000000000006107dc565b905080600160a060020a031663fa7fdeb78960006040516020015260405160e060020a63ffffffff84160281526004810191909152602401602060405180830381600087803b15156115cb57600080fd5b6102c65a03f115156115dc57600080fd5b5050506040518051600160a060020a03161590506115fe576159d99150611774565b600154600160a060020a031663a3ff0ea289878a8a89893360006040516020015260405160e060020a63ffffffff8a16028152600481018881526024820188905260ff8516608483015283151560a4830152600160a060020a03831660c483015260e0604483019081529091606481019060e40188818151815260200191508051906020019080838360005b838110156116a257808201518382015260200161168a565b50505050905090810190601f1680156116cf5780820380516001836020036101000a031916815260200191505b50838103825287818151815260200191508051906020019080838360005b838110156117055780820151838201526020016116ed565b50505050905090810190601f1680156117325780820380516001836020036101000a031916815260200191505b509950505050505050505050602060405180830381600087803b151561175757600080fd5b6102c65a03f1151561176857600080fd5b50505060405180519250505b509695505050505050565b600083600160a060020a031663045251503060006040516020015260405160e060020a63ffffffff8416028152600160a060020a039091166004820152602401602060405180830381600087803b15156117d857600080fd5b6102c65a03f115156117e957600080fd5b5050506040518051915050600160a060020a03811663ae8800fa848460006040516020015260405163ffffffff84811660e060020a028252600160a060020a0393909316600482015291166024820152604401602060405180830381600087803b151561185557600080fd5b6102c65a03f1151561186657600080fd5b50505060405180515050600160a060020a03811663a843c51f3360006040516020015260405160e060020a63ffffffff8416028152600160a060020a039091166004820152602401602060405180830381600087803b15156118c757600080fd5b6102c65a03f115156118d857600080fd5b50505060405180519050509392505050565b60008087600160a060020a031663684649a66000604051602001526040518163ffffffff1660e060020a028152600401602060405180830381600087803b151561193357600080fd5b6102c65a03f1151561194457600080fd5b5050506040518051600154909350600160a060020a0316905063638a9ce9838860006040516020015260405160e060020a63ffffffff8516028152600160a060020a0390921660048301526024820152604401602060405180830381600087803b15156119b057600080fd5b6102c65a03f115156119c157600080fd5b505050604051805160011490506119d757600080fd5b6119df610997565b600154909150600160a060020a038084169163b2b45df59116611a0189611e75565b886040518463ffffffff1660e060020a0281526004018084600160a060020a0316600160a060020a031681526020018060200180602001838103835285818151815260200191508051906020019080838360005b83811015611a6d578082015183820152602001611a55565b50505050905090810190601f168015611a9a5780820380516001836020036101000a031916815260200191505b50838103825284818151815260200191508051906020019080838360005b83811015611ad0578082015183820152602001611ab8565b50505050905090810190601f168015611afd5780820380516001836020036101000a031916815260200191505b5095505050505050600060405180830381600087803b1515611b1e57600080fd5b6102c65a03f11515611b2f57600080fd5b50505081600160a060020a031663c915fc938860006040516020015260405160e060020a63ffffffff8416028152600160a060020a039091166004820152602401602060405180830381600087803b1515611b8957600080fd5b6102c65a03f11515611b9a57600080fd5b50505060405180515050600160a060020a0387166319ab453c8360006040516020015260405160e060020a63ffffffff8416028152600160a060020a039091166004820152602401602060405180830381600087803b1515611bfb57600080fd5b6102c65a03f11515611c0c57600080fd5b50505060405180515050600160a060020a03811663048ae1bb873060006040516020015260405160e060020a63ffffffff85160281526004810192909252600160a060020a03166024820152604401602060405180830381600087803b1515611c7457600080fd5b6102c65a03f11515611c8557600080fd5b50505060405180516001149050611c9b57600080fd5b80600160a060020a031663fd83915e873360006040516020015260405160e060020a63ffffffff85160281526004810192909252600160a060020a03166024820152604401602060405180830381600087803b1515611cf957600080fd5b6102c65a03f11515611d0a57600080fd5b5050506040518051905050611d2182878686612025565b60011461177457600080fd5b611d35610ce8565b600160a060020a03166322629b268585858560405160e060020a63ffffffff8716028152600160a060020a039485166004820152602481019390935290831660448301529091166064820152608401600060405180830381600087803b1515610df157600080fd5b611da5610ce8565b600160a060020a031663ae8bb1bc8585858560405160e060020a63ffffffff8716028152600160a060020a039485166004820152602481019390935290831660448301529091166064820152608401600060405180830381600087803b1515610df157600080fd5b600081600160a060020a03166331a5daf36000604051602001526040518163ffffffff1660e060020a028152600401602060405180830381600087803b1515611e5557600080fd5b6102c65a03f11515611e6657600080fd5b50505060405180519392505050565b611e7d6120fe565b611e856120fe565b6000806000611e926120fe565b6020604051805910611ea15750595b818152601f19601f83011681016020016040529050945060009350600092505b6020831015611f4c576008830260020a870291507fff00000000000000000000000000000000000000000000000000000000000000821615611f415781858581518110611f0a57fe5b9060200101907effffffffffffffffffffffffffffffffffffffffffffffffffffffffffffff1916908160001a9053506001909301925b600190920191611ec1565b83604051805910611f5a5750595b818152601f19601f830116810160200160405290509050600092505b8383101561201b57848381518110611f8a57fe5b01602001517f010000000000000000000000000000000000000000000000000000000000000090047f010000000000000000000000000000000000000000000000000000000000000002818481518110611fe057fe5b9060200101907effffffffffffffffffffffffffffffffffffffffffffffffffffffffffffff1916908160001a905350600190920191611f76565b9695505050505050565b6000806120517f45524332304d616e6167657200000000000000000000000000000000000000006107dc565b9050600160a060020a038116631e6154a28760008881898982806040516020015260405160e060020a63ffffffff8a16028152600160a060020a03909716600488015260248701959095526044860193909352606485019190915260ff16608484015260a483015260c482015260e401602060405180830381600087803b15156120da57600080fd5b6102c65a03f115156120eb57600080fd5b5050506040518051979650505050505050565b602060405190810160405260008152905600a165627a7a72305820d9cfe990215a55d8df29747196f06ca8f2e952758ae15e715f6681968bb6a2380029",
  "source": "pragma solidity ^0.4.11;\n\nimport \"./TokenExtensionRouter.sol\";\nimport \"./PlatformTokenExtensionGatewayManagerEmitter.sol\";\nimport \"./../TokenManagementInterface.sol\";\nimport \"../../core/contracts/ContractsManagerInterface.sol\";\nimport \"../../core/platform/ChronoBankPlatformInterface.sol\";\nimport \"../../core/platform/ChronoBankAssetOwnershipManager.sol\";\nimport \"../../core/platform/ChronoBankAssetProxyInterface.sol\";\nimport \"../../core/common/OwnedInterface.sol\";\nimport \"../../core/contracts/ContractsManagerInterface.sol\";\nimport \"../../core/erc20/ERC20ManagerInterface.sol\";\nimport \"../../core/erc20/ERC20Interface.sol\";\nimport \"./../AssetsManagerInterface.sol\";\nimport \"./../FeeInterface.sol\";\nimport \"../../timeholder/FeatureFeeAdapter.sol\";\nimport \"../../core/lib/StringsLib.sol\";\n\ncontract ChronoBankAsset {\n    function init(ChronoBankAssetProxyInterface _proxy) returns (bool);\n}\n\n\ncontract TokenFactory {\n    function createAsset() returns (address);\n    function createAssetWithFee(address owner) returns (address);\n    function createProxy() returns (address);\n}\n\n\ncontract PlatformFactory {\n    function createPlatform(address _eventsHistory, address _owner) returns (address);\n}\n\n\ncontract FactoryProvider {\n    function getTokenFactory() returns (TokenFactory);\n}\n\n\ncontract CrowdsaleManager {\n    function createCrowdsale(address _creator, bytes32 _symbol, bytes32 _factoryName) returns (address, uint);\n    function deleteCrowdsale(address crowdsale) returns (uint);\n}\n\n\ncontract BaseCrowdsale {\n    function getSymbol() constant returns (bytes32);\n}\n\n\ncontract OwnedContract {\n    address public contractOwner;\n}\n\n/**\n* @title Used as a library by TokenExtensionRouter which provides context and variables (platform, contractsManager)\n* when invoke methods of this contract.\n* Since this contract is designed to be used by delegatecall it doesn't inherit from any contract (except FeatureFeeAdapter)\n* and you should be careful when a need will arise to add more functionality by inheritance, because the contract uses\n* storage scheme from TokenExtensionRouter and it should be preserved.\n\n* It's responsibilities are to:\n* - create assets (with and without fee),\n* - create token crowdsale and remove them.\n\n* Some methods might take a fee by TIME tokens.\n*/\ncontract PlatformTokenExtensionGatewayManager is FeatureFeeAdapter {\n    uint constant UNAUTHORIZED = 0;\n    uint constant OK = 1;\n    uint constant REINITIALIZED = 6;\n    uint constant ERROR_TOKEN_EXTENSION_ASSET_TOKEN_EXISTS = 23001;\n    uint constant ERROR_TOKEN_EXTENSION_ASSET_COULD_NOT_BE_REISSUED = 23002;\n    uint constant ERROR_TOKEN_EXTENSION_ASSET_COULD_NOT_BE_REVOKED = 23003;\n    uint constant ERROR_TOKEN_EXTENSION_ASSET_OWNER_ONLY = 23004;\n\n    /** @dev platform address. It is initialized only by delegatecall context */\n    address internal contractsManager;\n\n    /** @dev platform address. It is initialized only by delegatecall context and 0x0 in other cases */\n    address internal platform;\n\n    /**\n     * Contract owner address\n     */\n    address public contractOwner;\n\n    /**\n     * Contract owner address\n     */\n    address public pendingContractOwner;\n\n    function PlatformTokenExtensionGatewayManager() {\n        contractOwner = msg.sender;\n    }\n\n    /**\n    * @dev Owner check modifier\n    */\n    modifier onlyContractOwner {\n        if (contractOwner == msg.sender) {\n            _;\n        }\n    }\n\n    /**\n    * @dev Guards methods to be called only by platform owner.\n    */\n    modifier onlyPlatformOwner {\n        if (OwnedContract(platform).contractOwner() == msg.sender ||\n            msg.sender == address(this)) {\n            _;\n        }\n    }\n\n    /**\n    * @dev Guards methods to be called only by platform itself.\n    *\n    * DEPRECATED. WILL BE REMOVED IN NEXT RELEASES\n    */\n    modifier onlyPlatform {\n        if (msg.sender == platform ||\n            msg.sender == address(this)) {\n            _;\n        }\n    }\n\n    /**\n    *  @dev Designed to be used by ancestors, inits internal fields.\n    *  Will rollback transaction if something goes wrong during initialization.\n    *  Registers contract as a service in ContractManager with given `_type`.\n    *\n    *  @param _contractsManager is contract manager, must be not 0x0\n    *  @return OK if newly initialized and everything is OK,\n    *  or REINITIALIZED if storage already contains some data. Will crash in any other cases.\n    */\n    function init(address _contractsManager) onlyContractOwner public returns (uint resultCode) {\n        require(_contractsManager != 0x0);\n\n        bool reinitialized = (contractsManager != 0x0);\n        if (contractsManager == 0x0 || contractsManager != _contractsManager) {\n            contractsManager = _contractsManager;\n        }\n\n        assert(OK == ContractsManagerInterface(contractsManager).addContract(this, \"TokenExtensionGateway\"));\n\n        return !reinitialized ? OK : REINITIALIZED;\n    }\n\n    function getEventsHistory() public constant returns (address) {\n        return lookupManager(\"MultiEventsHistory\");\n    }\n\n    /**\n     * @dev Destroy contract and scrub a data\n     * @notice Only owner can call it\n     */\n    function destroy() onlyContractOwner public {\n        ContractsManagerInterface(contractsManager).removeContract(this);\n        selfdestruct(msg.sender);\n    }\n\n    /**\n     * Prepares ownership pass.\n     *\n     * Can only be called by current owner.\n     *\n     * @param _to address of the next owner. 0x0 is not allowed.\n     *\n     * @return success.\n     */\n    function changeContractOwnership(address _to) onlyContractOwner public returns (bool) {\n        if (_to == 0x0) {\n            return false;\n        }\n\n        pendingContractOwner = _to;\n        return true;\n    }\n\n    /**\n     * Finalize ownership pass.\n     *\n     * Can only be called by pending owner.\n     *\n     * @return success.\n     */\n    function claimContractOwnership() public returns (bool) {\n        if (pendingContractOwner != msg.sender) {\n            return false;\n        }\n\n        contractOwner = pendingContractOwner;\n        delete pendingContractOwner;\n\n        return true;\n    }\n\n    /**\n    * @dev Direct ownership pass without change/claim pattern. Can be invoked only by current contract owner\n    *\n    * @param _to the next contract owner\n    *\n    * @return `true` if success, `false` otherwise\n    */\n    function transferContractOwnership(address _to) onlyContractOwner public returns (bool) {\n        if (_to == 0x0) {\n            return false;\n        }\n\n        if (pendingContractOwner != 0x0) {\n            pendingContractOwner = 0x0;\n        }\n\n        contractOwner = _to;\n        return true;\n    }\n\n    /**\n    * @dev Creates asset without fee. Performs asset registration in ERC20Manager.\n    * Allowed to be performed only from delegatecall and only by platform owner.\n    * Might take an additional fee in TIME tokens\n    *\n    * @param _symbol new asset's symbol\n    * @param _name asset's name\n    * @param _description description of an asset\n    * @param _value initial balance to issue\n    * @param _decimals decimals\n    * @param _isMint is reissuable\n    * @param _tokenImageIpfsHash asset image IPFS hash\n    *\n    * @return resultCode result code of an operation\n    */\n    function createAssetWithoutFee(\n        bytes32 _symbol,\n        string _name,\n        string _description,\n        uint _value,\n        uint8 _decimals,\n        bool _isMint,\n        bytes32 _tokenImageIpfsHash)\n    onlyPlatformOwner\n    public\n    returns (uint resultCode)\n    {\n        return _createAssetWithoutFee(_symbol, _name, _description, _value, _decimals, _isMint, _tokenImageIpfsHash, [uint(0)]);\n    }\n\n    function _createAssetWithoutFee(\n        bytes32 _symbol,\n        string _name,\n        string _description,\n        uint _value,\n        uint8 _decimals,\n        bool _isMint,\n        bytes32 _tokenImageIpfsHash,\n        uint[1] memory _result)\n    featured(_result)\n    private\n    returns (uint resultCode)\n    {\n        resultCode = _prepareAndIssueAssetOnPlatform(_symbol, _name, _description, _value, _decimals, _isMint);\n        if (resultCode != OK) {\n            return _emitError(resultCode);\n        }\n\n        address _asset = _createAsset(getTokenFactory());\n        address _token = _bindAssetWithToken(getTokenFactory(), _asset, _symbol, _name, _decimals, _tokenImageIpfsHash);\n\n        _emitAssetCreated(platform, _symbol, _token, msg.sender);\n\n        _result[0] = OK;\n        return OK;\n    }\n\n\n    /**\n    * @dev Creates asset with fee. Performs asset registration in ERC20Manager.\n    * Allowed to be performed only from delegatecall and only by platform owner.\n    * Might take an additional fee in TIME tokens\n    *\n    * @param _symbol new asset's symbol\n    * @param _name asset's name\n    * @param _description description of an asset\n    * @param _value initial balance to issue\n    * @param _decimals decimals\n    * @param _isMint is reissuable\n    * @param _feeAddress fee wallet address\n    * @param _feePercent fee percent value\n    * @param _tokenImageIpfsHash asset image IPFS hash\n    *\n    * @return resultCode result code of an operation\n    */\n    function createAssetWithFee(\n        bytes32 _symbol,\n        string _name,\n        string _description,\n        uint _value,\n        uint8 _decimals,\n        bool _isMint,\n        address _feeAddress,\n        uint32 _feePercent,\n        bytes32 _tokenImageIpfsHash)\n    onlyPlatformOwner\n    public\n    returns (uint resultCode) {\n        return _createAssetWithFee(_symbol, _name, _description, _value, _decimals, _isMint, _feeAddress, _feePercent, _tokenImageIpfsHash, [uint(0)]);\n    }\n\n    function _createAssetWithFee(\n        bytes32 _symbol,\n        string _name,\n        string _description,\n        uint _value,\n        uint8 _decimals,\n        bool _isMint,\n        address _feeAddress,\n        uint32 _feePercent,\n        bytes32 _tokenImageIpfsHash,\n        uint[1] memory _result)\n    featured(_result)\n    private\n    returns (uint resultCode)\n    {\n        require(_feeAddress != 0x0);\n\n        resultCode = _prepareAndIssueAssetOnPlatform(_symbol, _name, _description, _value, _decimals, _isMint);\n        if (resultCode != OK) {\n            return _emitError(resultCode);\n        }\n\n        address _token = _bindAssetWithToken(getTokenFactory(), _deployAssetWithFee(getTokenFactory(), _feeAddress, _feePercent), _symbol, _name, _decimals, _tokenImageIpfsHash);\n        _emitAssetCreated(platform, _symbol, _token, msg.sender);\n\n        _result[0] = OK;\n        return OK;\n    }\n\n\n    /**\n    * @dev Gets token and proxy factory\n    *\n    * @return factory address\n    */\n    function getTokenFactory() constant returns (TokenFactory) {\n        return FactoryProvider(lookupManager(\"AssetsManager\")).getTokenFactory();\n    }\n\n    /**\n    * @dev Creates crowdsale campaign of a token with provided symbol\n    * Might take an additional fee in TIME tokens\n    *\n    * @param _symbol a token symbol\n    *\n    * @return result code of an operation\n    */\n    function createCrowdsaleCampaign(bytes32 _symbol, bytes32 _crowdsaleFactoryName)\n    onlyPlatformOwner\n    public\n    returns (uint)\n    {\n        return _createCrowdsaleCampaign(_symbol, _crowdsaleFactoryName, [uint(0)]);\n    }\n\n    function _createCrowdsaleCampaign(\n        bytes32 _symbol,\n        bytes32 _crowdsaleFactoryName,\n        uint[1] memory _result)\n    featured(_result)\n    private\n    returns (uint)\n    {\n        require(_symbol != 0x0);\n        require(_crowdsaleFactoryName != 0x0);\n\n        ChronoBankAssetOwnershipManager _assetOwnershipManager = ChronoBankAssetOwnershipManager(getAssetOwnershipManager());\n        CrowdsaleManager crowdsaleManager = CrowdsaleManager(lookupManager(\"CrowdsaleManager\"));\n\n        var (_crowdsale, result) = crowdsaleManager.createCrowdsale(msg.sender, _symbol, _crowdsaleFactoryName);\n        if (result != OK) {\n            return _emitError(result);\n        }\n\n        if( OK != _assetOwnershipManager.addAssetPartOwner(_symbol, _crowdsale)) revert();\n\n        _emitCrowdsaleCampaignCreated(platform, _symbol, _crowdsale, msg.sender);\n\n        _result[0] = OK;\n        return OK;\n    }\n\n    /**\n    * @dev Stops token's crowdsale\n    *\n    * @param _crowdsale a crowdsale address\n    *\n    * @return result result code of an operation\n    */\n    function deleteCrowdsaleCampaign(address _crowdsale) onlyPlatformOwner public returns (uint result) {\n        bytes32 _symbol = BaseCrowdsale(_crowdsale).getSymbol();\n        ChronoBankAssetOwnershipManager _assetOwnershipManager = ChronoBankAssetOwnershipManager(getAssetOwnershipManager());\n\n        CrowdsaleManager crowdsaleManager = CrowdsaleManager(lookupManager(\"CrowdsaleManager\"));\n\n        result = crowdsaleManager.deleteCrowdsale(_crowdsale);\n        if (result != OK) {\n            return _emitError(result);\n        }\n\n        if(OK != _assetOwnershipManager.removeAssetPartOwner(_symbol, _crowdsale)) revert();\n\n        _emitCrowdsaleCampaignRemoved(platform, _symbol, _crowdsale, msg.sender);\n        return OK;\n    }\n\n    /**\n    * @dev Gets an interface for managing assets' ownership\n    *\n    * @return interface of assets ownership manager\n    */\n    function getAssetOwnershipManager() public constant returns (address) {\n        return platform;\n    }\n\n    /**\n    * @dev Gets a proxy where possible to reissue assets\n    *\n    * @return interface for reissuing assets\n    */\n    function getReissueAssetProxy() public constant returns (ReissuableAssetProxyInterface) {\n        return ReissuableAssetProxyInterface(platform);\n    }\n\n    /**\n    * @dev Gets a proxy where possible to revoke assets\n    *\n    * @return interface for revoking assets\n    */\n    function getRevokeAssetProxy() public constant returns (RevokableAssetProxyInterface) {\n        return RevokableAssetProxyInterface(platform);\n    }\n\n    /**\n    * @dev Checks symbol for existance in the system and issue new asset. PRIVATE\n    */\n    function _prepareAndIssueAssetOnPlatform(bytes32 _symbol, string _name, string _description, uint _value, uint8 _decimals, bool _isMint) private returns (uint) {\n        ERC20ManagerInterface _erc20Manager = ERC20ManagerInterface(lookupManager(\"ERC20Manager\"));\n        if (_erc20Manager.getTokenAddressBySymbol(_symbol) != 0x0) {\n            return ERROR_TOKEN_EXTENSION_ASSET_TOKEN_EXISTS;\n        }\n\n        return ChronoBankPlatformInterface(platform).issueAsset(_symbol, _value, _name, _description, _decimals, _isMint, msg.sender);\n    }\n\n    /**\n    * @dev Binds asset with proxy and register it in ERC20Manager. PRIVATE\n    */\n    function _bindAssetWithToken(TokenFactory _factory, address _asset, bytes32 _symbol, string _name, uint8 _decimals, bytes32 _ipfsHash) private returns (address token) {\n        token = _factory.createProxy();\n\n        if (OK != ChronoBankPlatformInterface(platform).setProxy(token, _symbol)) revert();\n\n        ChronoBankAssetOwnershipManager _assetOwnershipManager = ChronoBankAssetOwnershipManager(getAssetOwnershipManager());\n        ChronoBankAssetProxyInterface(token).init(platform, StringsLib.bytes32ToString(_symbol), _name);\n        ChronoBankAssetProxyInterface(token).proposeUpgrade(_asset);\n        ChronoBankAsset(_asset).init(ChronoBankAssetProxyInterface(token));\n        if (OK != _assetOwnershipManager.addAssetPartOwner(_symbol, this)) revert();\n        _assetOwnershipManager.changeOwnership(_symbol, msg.sender);\n\n        if(OK != _addToken(token, _symbol, _decimals, _ipfsHash)) revert();\n    }\n\n    /**\n    * @dev Creates asset with fee and setup according values. PRIVATE\n    *\n    * @param _factory token factory\n    * @param _feeAddress fee destination address\n    * @param _fee fee percent value\n    */\n    function _deployAssetWithFee(TokenFactory _factory, address _feeAddress, uint32 _fee) private returns (address _asset) {\n        _asset = _factory.createAssetWithFee(this);\n        FeeInterface(_asset).setupFee(_feeAddress, _fee);\n        OwnedInterface(_asset).transferContractOwnership(msg.sender);\n    }\n\n    /**\n    * @dev Creates asset without fee. PRIVATE\n    *\n    * @param _factory token factory\n    *\n    * @return _asset created asset address\n    */\n    function _createAsset(TokenFactory _factory) private returns (address _asset) {\n        _asset = _factory.createAsset();\n    }\n\n    /**\n    * Adds token to ERC20Manager contract\n    * @dev Make as a separate function because of stack size limits\n    *\n    * @param token token's address\n    * @param symbol asset's symbol\n    * @param decimals number of digits after floating point\n    *\n    * @return errorCode result code of an operation\n    */\n    function _addToken(address token, bytes32 symbol, uint8 decimals, bytes32 _ipfsHash) private returns (uint errorCode) {\n        ERC20ManagerInterface erc20Manager = ERC20ManagerInterface(lookupManager(\"ERC20Manager\"));\n        errorCode = erc20Manager.addToken(token, bytes32(0), symbol, bytes32(0), decimals, _ipfsHash, bytes32(0));\n    }\n\n    /**\n    * @dev Makes search in contractsManager for registered contract by some identifier\n    *\n    * @param _identifier string identifier of a manager\n    *\n    * @return manager address of a manager, 0x0 if nothing was found\n    */\n    function lookupManager(bytes32 _identifier) constant returns (address manager) {\n        manager = ContractsManagerInterface(contractsManager).getContractAddressByType(_identifier);\n        assert(manager != 0x0);\n    }\n\n\n    /**\n    * Events emitting\n    */\n\n    function _emitError(uint _errorCode) internal returns (uint) {\n        PlatformTokenExtensionGatewayManagerEmitter(getEventsHistory()).emitError(_errorCode);\n        return _errorCode;\n    }\n\n    function _emitAssetCreated(address _platform, bytes32 _symbol, address _token, address _by) private {\n        PlatformTokenExtensionGatewayManagerEmitter(getEventsHistory()).emitAssetCreated(_platform, _symbol, _token, _by);\n    }\n\n    function _emitCrowdsaleCampaignCreated(address _platform, bytes32 _symbol, address _campaign, address _by) private {\n        PlatformTokenExtensionGatewayManagerEmitter(getEventsHistory()).emitCrowdsaleCampaignCreated(_platform, _symbol, _campaign, _by);\n    }\n\n    function _emitCrowdsaleCampaignRemoved(address _platform, bytes32 _symbol, address _campaign, address _by) private {\n        PlatformTokenExtensionGatewayManagerEmitter(getEventsHistory()).emitCrowdsaleCampaignRemoved(_platform, _symbol, _campaign, _by);\n    }\n\n    function () public {\n        revert();\n    }\n}\n",
  "sourcePath": "/Users/ahiatsevich/Development/chronobank/SmartContracts/contracts/assets/extensions/PlatformTokenExtensionGatewayManager.sol",
  "compiler": {
    "name": "solc",
    "version": "0.4.18+commit.9cf6e910.Emscripten.clang"
  },
  "schemaVersion": "1.0.1",
  "updatedAt": "2017-12-11T12:14:44.413Z"
}