{
  "contractName": "PlatformsManager",
  "abi": [
    {
      "constant": false,
      "inputs": [
        {
          "name": "_platform",
          "type": "address"
        }
      ],
      "name": "attachPlatform",
      "outputs": [
        {
          "name": "resultCode",
          "type": "uint256"
        }
      ],
      "payable": false,
      "stateMutability": "nonpayable",
      "type": "function"
    },
    {
      "constant": true,
      "inputs": [
        {
          "name": "_user",
          "type": "address"
        }
      ],
      "name": "getPlatformsForUserCount",
      "outputs": [
        {
          "name": "",
          "type": "uint256"
        }
      ],
      "payable": false,
      "stateMutability": "view",
      "type": "function"
    },
    {
      "constant": false,
      "inputs": [
        {
          "name": "_platform",
          "type": "address"
        },
        {
          "name": "_by",
          "type": "address"
        }
      ],
      "name": "emitPlatformDetached",
      "outputs": [],
      "payable": false,
      "stateMutability": "nonpayable",
      "type": "function"
    },
    {
      "constant": false,
      "inputs": [],
      "name": "claimContractOwnership",
      "outputs": [
        {
          "name": "",
          "type": "bool"
        }
      ],
      "payable": false,
      "stateMutability": "nonpayable",
      "type": "function"
    },
    {
      "constant": false,
      "inputs": [
        {
          "name": "_platform",
          "type": "address"
        },
        {
          "name": "_tokenExtension",
          "type": "address"
        },
        {
          "name": "_by",
          "type": "address"
        }
      ],
      "name": "emitPlatformRequested",
      "outputs": [],
      "payable": false,
      "stateMutability": "nonpayable",
      "type": "function"
    },
    {
      "constant": false,
      "inputs": [
        {
          "name": "_platform",
          "type": "address"
        },
        {
          "name": "_by",
          "type": "address"
        }
      ],
      "name": "emitPlatformAttached",
      "outputs": [],
      "payable": false,
      "stateMutability": "nonpayable",
      "type": "function"
    },
    {
      "constant": true,
      "inputs": [
        {
          "name": "_identifier",
          "type": "bytes32"
        }
      ],
      "name": "lookupManager",
      "outputs": [
        {
          "name": "manager",
          "type": "address"
        }
      ],
      "payable": false,
      "stateMutability": "view",
      "type": "function"
    },
    {
      "constant": true,
      "inputs": [],
      "name": "contractsManager",
      "outputs": [
        {
          "name": "",
          "type": "address"
        }
      ],
      "payable": false,
      "stateMutability": "view",
      "type": "function"
    },
    {
      "constant": false,
      "inputs": [
        {
          "name": "_to",
          "type": "address"
        }
      ],
      "name": "changeContractOwnership",
      "outputs": [
        {
          "name": "",
          "type": "bool"
        }
      ],
      "payable": false,
      "stateMutability": "nonpayable",
      "type": "function"
    },
    {
      "constant": true,
      "inputs": [],
      "name": "pendingContractOwner",
      "outputs": [
        {
          "name": "",
          "type": "address"
        }
      ],
      "payable": false,
      "stateMutability": "view",
      "type": "function"
    },
    {
      "constant": false,
      "inputs": [
        {
          "name": "_eventsHistory",
          "type": "address"
        }
      ],
      "name": "setEventsHistory",
      "outputs": [],
      "payable": false,
      "stateMutability": "nonpayable",
      "type": "function"
    },
    {
      "constant": false,
      "inputs": [
        {
          "name": "_contractsManager",
          "type": "address"
        }
      ],
      "name": "setContractsManager",
      "outputs": [],
      "payable": false,
      "stateMutability": "nonpayable",
      "type": "function"
    },
    {
      "constant": false,
      "inputs": [
        {
          "name": "_platform",
          "type": "address"
        }
      ],
      "name": "detachPlatform",
      "outputs": [
        {
          "name": "resultCode",
          "type": "uint256"
        }
      ],
      "payable": false,
      "stateMutability": "nonpayable",
      "type": "function"
    },
    {
      "constant": false,
      "inputs": [],
      "name": "destroy",
      "outputs": [],
      "payable": false,
      "stateMutability": "nonpayable",
      "type": "function"
    },
    {
      "constant": true,
      "inputs": [
        {
          "name": "_user",
          "type": "address"
        }
      ],
      "name": "getPlatformsMetadataForUser",
      "outputs": [
        {
          "name": "_platforms",
          "type": "address[]"
        }
      ],
      "payable": false,
      "stateMutability": "view",
      "type": "function"
    },
    {
      "constant": false,
      "inputs": [],
      "name": "createPlatform",
      "outputs": [
        {
          "name": "resultCode",
          "type": "uint256"
        }
      ],
      "payable": false,
      "stateMutability": "nonpayable",
      "type": "function"
    },
    {
      "constant": true,
      "inputs": [
        {
          "name": "_user",
          "type": "address"
        },
        {
          "name": "_idx",
          "type": "uint256"
        }
      ],
      "name": "getPlatformForUserAtIndex",
      "outputs": [
        {
          "name": "_platform",
          "type": "address"
        }
      ],
      "payable": false,
      "stateMutability": "view",
      "type": "function"
    },
    {
      "constant": false,
      "inputs": [
        {
          "name": "_to",
          "type": "address"
        }
      ],
      "name": "transferContractOwnership",
      "outputs": [
        {
          "name": "",
          "type": "bool"
        }
      ],
      "payable": false,
      "stateMutability": "nonpayable",
      "type": "function"
    },
    {
      "constant": true,
      "inputs": [
        {
          "name": "_platform",
          "type": "address"
        }
      ],
      "name": "isPlatformAttached",
      "outputs": [
        {
          "name": "",
          "type": "bool"
        }
      ],
      "payable": false,
      "stateMutability": "view",
      "type": "function"
    },
    {
      "constant": true,
      "inputs": [],
      "name": "contractOwner",
      "outputs": [
        {
          "name": "",
          "type": "address"
        }
      ],
      "payable": false,
      "stateMutability": "view",
      "type": "function"
    },
    {
      "constant": false,
      "inputs": [
        {
          "name": "tokens",
          "type": "address[]"
        },
        {
          "name": "_to",
          "type": "address"
        }
      ],
      "name": "withdrawnTokens",
      "outputs": [
        {
          "name": "",
          "type": "uint256"
        }
      ],
      "payable": false,
      "stateMutability": "nonpayable",
      "type": "function"
    },
    {
      "constant": false,
      "inputs": [
        {
          "name": "_errorCode",
          "type": "uint256"
        }
      ],
      "name": "emitError",
      "outputs": [],
      "payable": false,
      "stateMutability": "nonpayable",
      "type": "function"
    },
    {
      "constant": false,
      "inputs": [
        {
          "name": "_contractsManager",
          "type": "address"
        },
        {
          "name": "_platformsFactory",
          "type": "address"
        }
      ],
      "name": "init",
      "outputs": [
        {
          "name": "",
          "type": "uint256"
        }
      ],
      "payable": false,
      "stateMutability": "nonpayable",
      "type": "function"
    },
    {
      "constant": false,
      "inputs": [
        {
          "name": "_platform",
          "type": "address"
        },
        {
          "name": "_from",
          "type": "address"
        }
      ],
      "name": "replaceAssociatedPlatformFromOwner",
      "outputs": [
        {
          "name": "resultCode",
          "type": "uint256"
        }
      ],
      "payable": false,
      "stateMutability": "nonpayable",
      "type": "function"
    },
    {
      "constant": false,
      "inputs": [
        {
          "name": "_fromPlatform",
          "type": "address"
        },
        {
          "name": "_toPlatform",
          "type": "address"
        }
      ],
      "name": "emitPlatformReplaced",
      "outputs": [],
      "payable": false,
      "stateMutability": "nonpayable",
      "type": "function"
    },
    {
      "constant": true,
      "inputs": [
        {
          "name": "key",
          "type": "address"
        }
      ],
      "name": "isAuthorized",
      "outputs": [
        {
          "name": "",
          "type": "bool"
        }
      ],
      "payable": false,
      "stateMutability": "view",
      "type": "function"
    },
    {
      "constant": true,
      "inputs": [],
      "name": "getEventsHistory",
      "outputs": [
        {
          "name": "",
          "type": "address"
        }
      ],
      "payable": false,
      "stateMutability": "view",
      "type": "function"
    },
    {
      "inputs": [
        {
          "name": "_store",
          "type": "address"
        },
        {
          "name": "_crate",
          "type": "bytes32"
        }
      ],
      "payable": false,
      "stateMutability": "nonpayable",
      "type": "constructor"
    },
    {
      "anonymous": false,
      "inputs": [
        {
          "indexed": true,
          "name": "self",
          "type": "address"
        },
        {
          "indexed": false,
          "name": "platform",
          "type": "address"
        },
        {
          "indexed": true,
          "name": "by",
          "type": "address"
        }
      ],
      "name": "PlatformAttached",
      "type": "event"
    },
    {
      "anonymous": false,
      "inputs": [
        {
          "indexed": true,
          "name": "self",
          "type": "address"
        },
        {
          "indexed": false,
          "name": "platform",
          "type": "address"
        },
        {
          "indexed": true,
          "name": "by",
          "type": "address"
        }
      ],
      "name": "PlatformDetached",
      "type": "event"
    },
    {
      "anonymous": false,
      "inputs": [
        {
          "indexed": true,
          "name": "self",
          "type": "address"
        },
        {
          "indexed": false,
          "name": "platform",
          "type": "address"
        },
        {
          "indexed": false,
          "name": "tokenExtension",
          "type": "address"
        },
        {
          "indexed": true,
          "name": "by",
          "type": "address"
        }
      ],
      "name": "PlatformRequested",
      "type": "event"
    },
    {
      "anonymous": false,
      "inputs": [
        {
          "indexed": true,
          "name": "self",
          "type": "address"
        },
        {
          "indexed": false,
          "name": "fromPlatform",
          "type": "address"
        },
        {
          "indexed": false,
          "name": "toPlatform",
          "type": "address"
        }
      ],
      "name": "PlatformReplaced",
      "type": "event"
    },
    {
      "anonymous": false,
      "inputs": [
        {
          "indexed": true,
          "name": "self",
          "type": "address"
        },
        {
          "indexed": false,
          "name": "errorCode",
          "type": "uint256"
        }
      ],
      "name": "Error",
      "type": "event"
    }
  ],
  "bytecode": "0x606060405234156200001057600080fd5b60405160408062002f7083398101604052808051919060200180519150829050818181818162000051600083836401000000006200276f6200017f82021704565b505060028054600160a060020a03338116600160a060020a03199283161790925560058054309093169290911691909117905550620000c69250600691507f706c6174666f726d73466163746f727900000000000000000000000000000000905064010000000062002795620001a582021704565b6200010160077f76316f776e6572546f506c6174666f726d730000000000000000000000000000640100000000620027a5620001c582021704565b6200013c600a7f7631706c6174666f726d73000000000000000000000000000000000000000000640100000000620027af620001e382021704565b62000177600f7f763173796e63506c6174666f726d546f53796d626f6c49647800000000000000640100000000620027b9620001fd82021704565b505062000513565b8254600160a060020a031916600160a060020a0392909216919091178255600190910155565b8154620001c19082640100000000620027c36200021782021704565b9055565b620001df8282640100000000620027d96200022f82021704565b5050565b620001df8282640100000000620027e36200024982021704565b620001df828264010000000062002795620001a582021704565b8115158062000224575080155b15620001df57600080fd5b620001df8282640100000000620029406200040882021704565b620002a082826040519081527f75696e742f636f756e74000000000000000000000000000000000000000000006020820152602a016040518091039020620001a56401000000000262002795176401000000009004565b620002fa82600101826040519081527f75696e742f6669727374000000000000000000000000000000000000000000006020820152602a016040518091039020620001a56401000000000262002795176401000000009004565b6200035482600201826040519081527f75696e742f6c617374000000000000000000000000000000000000000000000060208201526029016040518091039020620001a56401000000000262002795176401000000009004565b620003ae82600301826040519081527f75696e742f6e657874000000000000000000000000000000000000000000000060208201526029016040518091039020620001a56401000000000262002795176401000000009004565b620001df82600401826040519081527f75696e742f70726576000000000000000000000000000000000000000000000060208201526029016040518091039020620001a56401000000000262002795176401000000009004565b6200045f82826040519081527f636f756e7400000000000000000000000000000000000000000000000000000060208201526025016040518091039020620001a56401000000000262002795176401000000009004565b620004b982600101826040519081527f696e64657865730000000000000000000000000000000000000000000000000060208201526027016040518091039020620001a56401000000000262002795176401000000009004565b620001df82600201826040519081527f76616c756573000000000000000000000000000000000000000000000000000060208201526026016040518091039020620001a56401000000000262002795176401000000009004565b612a4d80620005236000396000f3006060604052600436106101455763ffffffff60e060020a60003504166319e77baf811461014a5780632197cc341461017b578063237932cf1461019a5780634592cd1d146101c157806347ab61b4146101e85780634ddeb7d5146102135780634fe590121461023857806353253d311461026a578063557f4bc91461027d5780635aa77d3c1461029c5780636521afd7146102af57806371d3b573146102ce57806373583f98146102ed57806383197ef01461030c578063843a59741461031f5780638c1ae7f514610391578063a43ee2eb146103a4578063a843c51f146103c6578063c7eff32e146103e5578063ce606ee014610404578063d8f9659b14610417578063df26ca0814610471578063f09a401614610487578063f942be26146104ac578063fa542bc8146104d1578063fe9fbb80146104f6578063fff10aba14610515575b600080fd5b341561015557600080fd5b610169600160a060020a0360043516610528565b60405190815260200160405180910390f35b341561018657600080fd5b610169600160a060020a036004351661068b565b34156101a557600080fd5b6101bf600160a060020a03600435811690602435166106b0565b005b34156101cc57600080fd5b6101d461070c565b604051901515815260200160405180910390f35b34156101f357600080fd5b6101bf600160a060020a0360043581169060243581169060443516610759565b341561021e57600080fd5b6101bf600160a060020a03600435811690602435166107bf565b341561024357600080fd5b61024e60043561081b565b604051600160a060020a03909116815260200160405180910390f35b341561027557600080fd5b61024e61089f565b341561028857600080fd5b6101d4600160a060020a03600435166108ae565b34156102a757600080fd5b61024e610905565b34156102ba57600080fd5b6101bf600160a060020a0360043516610914565b34156102d957600080fd5b6101bf600160a060020a036004351661094a565b34156102f857600080fd5b610169600160a060020a0360043516610981565b341561031757600080fd5b6101bf610b37565b341561032a57600080fd5b61033e600160a060020a0360043516610bcd565b60405160208082528190810183818151815260200191508051906020019060200280838360005b8381101561037d578082015183820152602001610365565b505050509050019250505060405180910390f35b341561039c57600080fd5b610169610bf1565b34156103af57600080fd5b61024e600160a060020a0360043516602435610c0f565b34156103d157600080fd5b6101d4600160a060020a0360043516610c34565b34156103f057600080fd5b6101d4600160a060020a0360043516610cad565b341561040f57600080fd5b61024e610cc1565b341561042257600080fd5b610169600460248135818101908301358060208181020160405190810160405280939291908181526020018383602002808284375094965050509235600160a060020a03169250610cd0915050565b341561047c57600080fd5b6101bf600435610e21565b341561049257600080fd5b610169600160a060020a0360043581169060243516610e68565b34156104b757600080fd5b610169600160a060020a0360043581169060243516610eca565b34156104dc57600080fd5b6101bf600160a060020a0360043581169060243516610f40565b341561050157600080fd5b6101d4600160a060020a0360043516610f9b565b341561052057600080fd5b61024e611041565b60008161053481611050565b156106855761054c6000600a8563ffffffff6110ce16565b156105635761055c6152096110ec565b9150610685565b61056c83611155565b91506001821461057f5761055c826110ec565b6105e98384600160a060020a031663ce606ee06000604051602001526040518163ffffffff1660e060020a028152600401602060405180830381600087803b15156105c957600080fd5b6102c65a03f115156105da57600080fd5b505050604051805190506111f7565b82600160a060020a03166302927d20610600611041565b60006040516020015260405160e060020a63ffffffff8416028152600160a060020a039091166004820152602401602060405180830381600087803b151561064757600080fd5b6102c65a03f1151561065857600080fd5b505050604051805160011490506106765761067461520e6110ec565b505b610680833361122b565b600191505b50919050565b60006106a8816007600160a060020a03851663ffffffff6112a016565b90505b919050565b80600160a060020a03166106c26112ad565b600160a060020a03167f91fa8213ec3e06d6c6fc812bc9bdabb5cdeb5921d3ec76d0d710b744bb96b5d684604051600160a060020a03909116815260200160405180910390a35050565b60035460009033600160a060020a0390811691161461072d57506000610756565b506003805460028054600160a060020a0319908116600160a060020a0384161790915516905560015b90565b80600160a060020a031661076b6112ad565b600160a060020a03167f675ebf44364662d6fd674a3ec79555047e602de0ed7429ee703618a9d5ce56618585604051600160a060020a039283168152911660208201526040908101905180910390a3505050565b80600160a060020a03166107d16112ad565b600160a060020a03167fcdc5b8b215eb83fcaa86f308963042cd82160281b9800937b75f8a2a842e62ef84604051600160a060020a03909116815260200160405180910390a35050565b600454600090600160a060020a031663bc65792783836040516020015260405160e060020a63ffffffff84160281526004810191909152602401602060405180830381600087803b151561086e57600080fd5b6102c65a03f1151561087f57600080fd5b5050506040518051915050600160a060020a03811615156106ab57600080fd5b600454600160a060020a031681565b60025460009033600160a060020a03908116911614156106ab57600160a060020a03821615156108e0575060006106ab565b5060038054600160a060020a038316600160a060020a03199091161790556001919050565b600354600160a060020a031681565b60025433600160a060020a03908116911614156109475760058054600160a060020a031916600160a060020a0383161790555b50565b60025433600160a060020a03908116911614156109475760048054600160a060020a038316600160a060020a031990911617905550565b6000808261098e81611050565b15610b30576109a66000600a8663ffffffff6110ce16565b15156109be576109b761520a6110ec565b9250610b30565b83600160a060020a031663ce606ee06000604051602001526040518163ffffffff1660e060020a028152600401602060405180830381600087803b1515610a0457600080fd5b6102c65a03f11515610a1557600080fd5b50505060405180519250610a3e905060006007600160a060020a0385168763ffffffff6112b116565b1515610a4f576109b761520b6110ec565b610a58846112d1565b925060018314610a6b576109b7836110ec565b83600160a060020a03166302927d208560006040516020015260405160e060020a63ffffffff8416028152600160a060020a039091166004820152602401602060405180830381600087803b1515610ac257600080fd5b6102c65a03f11515610ad357600080fd5b50505060405180516001149050610af157610aef61520e6110ec565b505b610b0e60006007600160a060020a0385168763ffffffff61137616565b610b216000600a8663ffffffff61139116565b610b2b84336113aa565b600192505b5050919050565b60025433600160a060020a0390811691161415610bcb57600454600160a060020a031663c375c2ef3060006040516020015260405160e060020a63ffffffff8416028152600160a060020a039091166004820152602401602060405180830381600087803b1515610ba757600080fd5b6102c65a03f11515610bb857600080fd5b5050506040518051905050610bcb611407565b565b610bd561275d565b6106a860006007600160a060020a03851663ffffffff61142a16565b6000610c0a602060405190810160405260008152611445565b905090565b6000610c2d816007600160a060020a0386168563ffffffff61188016565b9392505050565b60025460009033600160a060020a03908116911614156106ab57600160a060020a0382161515610c66575060006106ab565b600354600160a060020a031615610c885760038054600160a060020a03191690555b5060028054600160a060020a038316600160a060020a03199091161790556001919050565b60006106a881600a8463ffffffff6110ce16565b600254600160a060020a031681565b60025460009081908190819033600160a060020a0390811691161415610e1857600092505b8551831015610e1357858381518110610d0a57fe5b90602001906020020151915081600160a060020a03166370a082313060006040516020015260405160e060020a63ffffffff8416028152600160a060020a039091166004820152602401602060405180830381600087803b1515610d6d57600080fd5b6102c65a03f11515610d7e57600080fd5b50505060405180519150508015610e085781600160a060020a031663a9059cbb868360006040516020015260405160e060020a63ffffffff8516028152600160a060020a0390921660048301526024820152604401602060405180830381600087803b1515610dec57600080fd5b6102c65a03f11515610dfd57600080fd5b505050604051805150505b600190920191610cf5565b600193505b50505092915050565b610e296112ad565b600160a060020a03167f9cf38cf2dbf9139f5c32639950507b10775fbbe0421f3e168bc2d1bb1ae3208c8260405190815260200160405180910390a250565b60025460009033600160a060020a0390811691161415610ec457610eac837f506c6174666f726d734d616e616765720000000000000000000000000000000061188e565b50610ec0600060068463ffffffff611a7f16565b5060015b92915050565b600082610ed681611050565b15610f39578383610efa60006007600160a060020a0384168563ffffffff6112b116565b15610e1857610f1c60006007600160a060020a0333168963ffffffff611b0116565b610e1360006007600160a060020a0388168963ffffffff61137616565b5092915050565b610f486112ad565b600160a060020a03167fd7ce3ddd0ef249f86bc111aab33791dd478faef4dafabb858e90fe0c23e24cb38383604051600160a060020a039283168152911660208201526040908101905180910390a25050565b600080610fc77f557365724d616e6167657200000000000000000000000000000000000000000061081b565b905080600160a060020a0316632aa09e5a8460006040516020015260405160e060020a63ffffffff8416028152600160a060020a039091166004820152602401602060405180830381600087803b151561102057600080fd5b6102c65a03f1151561103157600080fd5b5050506040518051949350505050565b600554600160a060020a031690565b600033600160a060020a031682600160a060020a031663ce606ee06000604051602001526040518163ffffffff1660e060020a028152600401602060405180830381600087803b15156110a257600080fd5b6102c65a03f115156110b357600080fd5b50505060405180519050600160a060020a0316149050919050565b60006110e48484600160a060020a038516611b16565b949350505050565b60006110f6611041565b600160a060020a031663df26ca088360405160e060020a63ffffffff84160281526004810191909152602401600060405180830381600087803b151561113b57600080fd5b6102c65a03f1151561114c57600080fd5b50929392505050565b6000808061116b81600f8663ffffffff611b4416565b9150600160ff60020a0382141561118157600091505b60ff60020a8214610b2b576111b57f41737365744f776e6572736869705265736f6c7665720000000000000000000061081b565b90506111d0828583600160a060020a031663660a333e611b5a565b9250600183146111df57610b30565b610b2b6000600f8660ff60020a63ffffffff611eda16565b61121460006007600160a060020a0384168563ffffffff611b0116565b6112276000600a8463ffffffff611eef16565b5050565b611233611041565b600160a060020a0316634ddeb7d5838360405160e060020a63ffffffff8516028152600160a060020a03928316600482015291166024820152604401600060405180830381600087803b151561128857600080fd5b6102c65a03f1151561129957600080fd5b5050505050565b60006110e4848484611f03565b3390565b60006112c8858585600160a060020a038616611f10565b95945050505050565b600080806112e781600f8663ffffffff611b4416565b915060ff60020a8214156112fa57600091505b600160ff60020a038214610b2b576113317f41737365744f776e6572736869705265736f6c7665720000000000000000000061081b565b905061134c828583600160a060020a03166326046743611b5a565b92506001831461135b57610b30565b610b2b6000600f86600160ff60020a0363ffffffff611eda16565b61138b848484600160a060020a038516611f1e565b50505050565b6113a58383600160a060020a038416611f2a565b505050565b6113b2611041565b600160a060020a031663237932cf838360405160e060020a63ffffffff8516028152600160a060020a03928316600482015291166024820152604401600060405180830381600087803b151561128857600080fd5b60025433600160a060020a0390811691161415610bcb5733600160a060020a0316ff5b61143261275d565b6110e4611440858585611f56565b611f69565b600080600080600085611456611fec565b600160a060020a031663709586c13330600035600160e060020a03191660006040516020015260405160e060020a63ffffffff8616028152600160a060020a039384166004820152919092166024820152600160e060020a03199091166044820152606401602060405180830381600087803b15156114d457600080fd5b6102c65a03f115156114e557600080fd5b505050604051805190501515611501576155f060005260206000f35b6115136000600663ffffffff61201716565b945084600160a060020a031663af34be403361152d611041565b3060006040516020015260405160e060020a63ffffffff8616028152600160a060020a03938416600482015291831660248301529091166044820152606401602060405180830381600087803b151561158557600080fd5b6102c65a03f1151561159657600080fd5b5050506040518051905093506115ac84336111f7565b6115d57f4173736574734d616e616765720000000000000000000000000000000000000061081b565b925082600160a060020a031663c97f57878560006040516020015260405160e060020a63ffffffff8416028152600160a060020a039091166004820152602401602060405180830381600087803b151561162e57600080fd5b6102c65a03f1151561163f57600080fd5b505050604051805196505060018614156117395782600160a060020a031663e5ebb7a58560006040516020015260405160e060020a63ffffffff8416028152600160a060020a039091166004820152602401602060405180830381600087803b15156116aa57600080fd5b6102c65a03f115156116bb57600080fd5b5050506040518051925050600160a060020a03841663a831751d8360006040516020015260405160e060020a63ffffffff8416028152600160a060020a039091166004820152602401602060405180830381600087803b151561171d57600080fd5b6102c65a03f1151561172e57600080fd5b505050604051805150505b83600160a060020a031663a843c51f3360006040516020015260405160e060020a63ffffffff8416028152600160a060020a039091166004820152602401602060405180830381600087803b151561179057600080fd5b6102c65a03f115156117a157600080fd5b50505060405180519050506117b7848333612076565b6001955085815114801561186c575060016117d0611fec565b600160a060020a03166384509ca83330600035600160e060020a03191660006040516020015260405160e060020a63ffffffff8616028152600160a060020a039384166004820152919092166024820152600160e060020a03199091166044820152606401602060405180830381600087803b151561184e57600080fd5b6102c65a03f1151561185f57600080fd5b5050506040518051905014155b1561187657600080fd5b5050505050919050565b60006112c8858585856120dd565b60025460009081908190819033600160a060020a039081169116146118b257600080fd5b600160a060020a03861615156118c757600080fd5b600454600160a060020a03161580159350806118f15750600454600160a060020a03878116911614155b156119125760048054600160a060020a031916600160a060020a0388161790555b600454600160a060020a031691508163bc65792760006040516020015260405160e060020a63ffffffff83160281527f4d756c74694576656e7473486973746f727900000000000000000000000000006004820152602401602060405180830381600087803b151561198357600080fd5b6102c65a03f1151561199457600080fd5b5050506040518051915050600160a060020a038116158015906119c55750600554600160a060020a03828116911614155b156119e65760058054600160a060020a031916600160a060020a0383161790555b8415611a6d5781600160a060020a031663b7c46cd5308760006040516020015260405160e060020a63ffffffff8516028152600160a060020a0390921660048301526024820152604401602060405180830381600087803b1515611a4957600080fd5b6102c65a03f11515611a5a57600080fd5b50505060405180516001149050611a6d57fe5b8215610e135760069695505050505050565b825460018401548354600160a060020a03909216916379a7cfee91908460405160e060020a63ffffffff861602815260048101939093526024830191909152600160a060020a03166044820152606401600060405180830381600087803b1515611ae857600080fd5b6102c65a03f11515611af957600080fd5b505050505050565b61138b848484600160a060020a0385166120eb565b60006110e484847f6f7264657265645f736574000000000000000000000000000000000000000000856120f7565b60006110e48484600160a060020a038516612133565b600080600080600080611b6b61275d565b6000808b97508b965087600160a060020a031663ecac7f4b6000604051602001526040518163ffffffff1660e060020a028152600401602060405180830381600087803b1515611bba57600080fd5b6102c65a03f11515611bcb57600080fd5b5050506040518051965050600160a060020a038716636b4ed21b6000604051602001526040518163ffffffff1660e060020a028152600401602060405180830381600087803b1515611c1c57600080fd5b6102c65a03f11515611c2d57600080fd5b5050506040518051905094506001935084604051805910611c4b5750595b908082528060200260200182016040525092505b858d1015611ec557620186a05a1015611c9557611c8b600f8d8f6000611eda909392919063ffffffff16565b61520d9850611eca565b87600160a060020a031663ccce413b8e60006040516020015260405160e060020a63ffffffff84160281526004810191909152602401602060405180830381600087803b1515611ce457600080fd5b6102c65a03f11515611cf557600080fd5b5050506040518051925060009150505b84811015611eb6578315611da15786600160a060020a0316632a11ced08260006040516020015260405160e060020a63ffffffff84160281526004810191909152602401602060405180830381600087803b1515611d6257600080fd5b6102c65a03f11515611d7357600080fd5b50505060405180519050838281518110611d8957fe5b600160a060020a039092166020928302909101909101525b87600160a060020a031663ccc11f11848381518110611dbc57fe5b906020019060200201518460006040516020015260405160e060020a63ffffffff8516028152600160a060020a0390921660048301526024820152604401602060405180830381600087803b1515611e1357600080fd5b6102c65a03f11515611e2457600080fd5b5050506040518051905015611eae578a8a838e868581518110611e4357fe5b9060200190602002015160405160e060020a63ffffffff86160281526004810193909352600160a060020a039182166024840152166044820152606401600060405180830381600087803b1515611e9957600080fd5b6102c65a03f11515611eaa57600080fd5b5050505b600101611d05565b600093508c6001019c50611c5f565b600198505b5050505050505050949350505050565b61138b8484600160a060020a038516846121cd565b6113a58383600160a060020a03841661225f565b60006110e484848461228b565b60006112c885858585612298565b61138b848484846122b4565b6113a583837f6f7264657265645f73657400000000000000000000000000000000000000000084612359565b611f5e61275d565b6110e4848484612459565b611f7161275d565b611f7961275d565b60008351604051805910611f8a5750595b90808252806020026020018201604052509150600090505b8351811015610f3957838181518110611fb757fe5b90602001906020020151828281518110611fcd57fe5b600160a060020a03909216602092830290910190910152600101611fa2565b6000610c0a7f466561747572654665654d616e6167657200000000000000000000000000000061081b565b815460018301548254600092600160a060020a03169163d3a3968691846040516020015260405160e060020a63ffffffff851602815260048101929092526024820152604401602060405180830381600087803b151561102057600080fd5b61207e611041565b600160a060020a03166347ab61b484848460405160e060020a63ffffffff8616028152600160a060020a03938416600482015291831660248301529091166044820152606401600060405180830381600087803b1515611ae857600080fd5b60006112c8858585856124d2565b61138b848484846124e6565b600081158015906112c857506121128585600301858561253a565b1515806112c8575081612129866002870186612133565b1495945050505050565b825460018401548354600092600160a060020a0316916337d9d7fc9185604051918252602082015260409081019051809103902060006040516020015260405160e060020a63ffffffff851602815260048101929092526024820152604401602060405180830381600087803b15156121ab57600080fd5b6102c65a03f115156121bc57600080fd5b505050604051805195945050505050565b835460018501548454600160a060020a039092169163a14ff85791908560405191825260208201526040908101905180910390208460405160e060020a63ffffffff8616028152600481019390935260248301919091526044820152606401600060405180830381600087803b151561224557600080fd5b6102c65a03f1151561225657600080fd5b50505050505050565b6113a583837f6f7264657265645f7365740000000000000000000000000000000000000000008461255f565b60006110e4848484612622565b60006122a98585600101858561253a565b151595945050505050565b60008060006122c587878787612298565b15156122d057612256565b6122db87878761228b565b92506122ec8760028801878661253a565b91506122fd8787600101878761253a565b90508281101561232757612317876001880187858561269a565b612327876002880187848661269a565b61233887600188018787600061269a565b61234987600288018786600061269a565b61225687878760001987016126be565b612365848484846120f7565b15156123705761138b565b61239c8484600301846123888888600401888861253a565b6123978989600301898961253a565b612736565b6123c38484600401846123b48888600301888861253a565b6123978989600401898961253a565b6123d1848460010184612133565b8114156123f5576123f58484600101846123f08888600301888861253a565b6121cd565b612403848460020184612133565b811415612422576124228484600201846123f08888600401888861253a565b61243184846003018484612749565b61244084846004018484612749565b61138b8484846001612453848484612622565b036126be565b61246161275d565b60008061246f86868661228b565b91508160405180591061247f5750595b90808252806020026020018201604052509250600090505b818110156124c9576124ab868686846124d2565b8382815181106124b757fe5b60209081029091010152600101612497565b50509392505050565b60006112c88560028601856001860161253a565b60006124f485858585612298565b156124fe57611299565b61250985858561228b565b600101905061251e856002860185848661269a565b61252e856001860185858561269a565b611299858585846126be565b60006112c8858585856040519182526020820152604090810190518091039020612133565b80151561256b57600080fd5b612577848484846120f7565b156125815761138b565b61258c84848461228b565b15156125a1576125a1848460010184846121cd565b6125af848460020184612133565b156125e9576125d18484600301846125cb888860020188612133565b85612736565b6125e984846004018484612397898960020189612133565b6125fa846003850184846000612736565b612609848460020184846121cd565b61138b84848461261a838383612622565b6001016126be565b825460018401548354600092600160a060020a0316916353aa3f5e9185604051918252602082015260409081019051809103902060006040516020015260405160e060020a63ffffffff851602815260048101929092526024820152604401602060405180830381600087803b15156121ab57600080fd5b611299858585856040519182526020820152604090810190518091039020846121cd565b835460018501548454600160a060020a03909216916353e7168b91908560405191825260208201526040908101905180910390208460405160e060020a63ffffffff8616028152600481019390935260248301919091526044820152606401600060405180830381600087803b151561224557600080fd5b811561129957611299858585858561269a565b801561138b5761138b84848484600061269a565b60206040519081016040526000815290565b8254600160a060020a031916600160a060020a0392909216919091178255600190910155565b81546127a190826127c3565b9055565b61122782826127d9565b61122782826127e3565b6112278282612795565b811515806127cf575080155b1561122757600080fd5b6112278282612940565b61282482826040519081527f75696e742f636f756e74000000000000000000000000000000000000000000006020820152602a016040518091039020612795565b61286882600101826040519081527f75696e742f6669727374000000000000000000000000000000000000000000006020820152602a016040518091039020612795565b6128ac82600201826040519081527f75696e742f6c617374000000000000000000000000000000000000000000000060208201526029016040518091039020612795565b6128f082600301826040519081527f75696e742f6e657874000000000000000000000000000000000000000000000060208201526029016040518091039020612795565b61122782600401826040519081527f75696e742f70726576000000000000000000000000000000000000000000000060208201526029016040518091039020612795565b81546127a190826127c3565b61298182826040519081527f636f756e7400000000000000000000000000000000000000000000000000000060208201526025016040518091039020612795565b6129c582600101826040519081527f696e64657865730000000000000000000000000000000000000000000000000060208201526027016040518091039020612795565b61122782600201826040519081527f76616c756573000000000000000000000000000000000000000000000000000060208201526026016040518091039020612795565b81546127a190826127c3565b81546127a190826127c35600a165627a7a7230582004cea29c218bfb4b766d7f6e71b5d9bc5e33505362ad013f5eb7ad40efab86910029",
  "source": "pragma solidity ^0.4.11;\n\nimport \"../core/common/BaseManager.sol\";\nimport \"../timeholder/FeatureFeeAdapter.sol\";\nimport \"../core/common/OwnedInterface.sol\";\nimport \"../core/platform/ChronoBankAssetOwnershipManager.sol\";\nimport \"./PlatformsManagerEmitter.sol\";\nimport \"./AssetsManagerInterface.sol\";\nimport \"./PlatformsManagerInterface.sol\";\nimport \"../core/platform/ChronoBankPlatform.sol\";\nimport \"./AssetOwnershipDelegateResolver.sol\";\n\n\ncontract PlatformsFactory {\n    function createPlatform(address owner, address eventsHistory, address eventsHistoryAdmin) returns (address);\n}\n\n\ncontract OwnedContract {\n    address public contractOwner;\n}\n\n\n/**\n* @title Defines implementation for managing platforms creation and tracking system's platforms.\n* Some methods could require to pay additional fee in TIMEs during their invocation.\n*/\ncontract PlatformsManager is FeatureFeeAdapter, BaseManager, PlatformsManagerEmitter, PlatformsManagerInterface {\n\n    /** Error codes */\n\n    uint constant ERROR_PLATFORMS_ATTACHING_PLATFORM_ALREADY_EXISTS = 21001;\n    uint constant ERROR_PLATFORMS_PLATFORM_DOES_NOT_EXIST = 21002;\n    uint constant ERROR_PLATFORMS_INCONSISTENT_INTERNAL_STATE = 21003;\n    uint constant ERROR_PLATFORMS_REPEAT_SYNC_IS_NOT_COMPLETED = 21005;\n    uint constant ERROR_PLATFORMS_CANNOT_UPDATE_EVENTS_HISTORY_NOT_EVENTS_ADMIN = 21006;\n\n    uint constant PLATFORM_ATTACH_SYNC_DONE = 2**255;\n    uint constant PLATFORM_DETACH_SYNC_DONE = 2**255-1;\n\n    /** Storage keys */\n\n    /** @dev address of platforms factory contract */\n    StorageInterface.Address platformsFactory;\n\n    /** @dev mapping (address => set(address)) stands for (owner => set(platform)) */\n    StorageInterface.AddressesSetMapping ownerToPlatforms;\n\n    /** @dev set(address) stands for set(platform) */\n    StorageInterface.OrderedAddressesSet platforms;\n\n    /** @dev mapping (address => uint256) stands for (platform => index) */\n    StorageInterface.AddressUIntMapping syncPlatformToSymbolIdx;\n\n    /**\n    * @dev Guards methods for only platform owners\n    */\n    modifier onlyPlatformOwner(address _platform) {\n        if (_isPlatformOwner(_platform)) {\n            _;\n        }\n    }\n\n    /**\n    * @dev Guards methods for contracts that was platorm's owners the last time they were accessed\n    */\n    modifier onlyPreviousPlatformOwner(address _platform, address _previousOwner) {\n        if (store.includes(ownerToPlatforms, bytes32(_previousOwner), _platform)) {\n            _;\n        }\n    }\n\n    function PlatformsManager(Storage _store, bytes32 _crate) BaseManager(_store, _crate) {\n        platformsFactory.init(\"platformsFactory\");\n        ownerToPlatforms.init(\"v1ownerToPlatforms\");\n        platforms.init(\"v1platforms\");\n        syncPlatformToSymbolIdx.init(\"v1syncPlatformToSymbolIdx\");\n    }\n\n    function init(address _contractsManager, address _platformsFactory) onlyContractOwner public returns (uint) {\n        BaseManager.init(_contractsManager, \"PlatformsManager\");\n\n        store.set(platformsFactory, _platformsFactory);\n\n        return OK;\n    }\n\n    /**\n    * @dev Returns a platform owned by passed user by accessing it by index that is registered in the system.\n    *\n    * @param _user associated owner of platforms\n    * @param _idx index of a platform\n    *\n    * @return _platform platform address\n    */\n    function getPlatformForUserAtIndex(address _user, uint _idx) public constant returns (address _platform) {\n        _platform = store.get(ownerToPlatforms, bytes32(_user), _idx);\n    }\n\n    /**\n    * @dev Gets number of platform that are owned by passed user.\n    *\n    * @param _user associated owner of platforms\n    *\n    * @return number of platforms owned by user\n    */\n    function getPlatformsForUserCount(address _user) public constant returns (uint) {\n        return store.count(ownerToPlatforms, bytes32(_user));\n    }\n\n    /**\n    * @dev Gets list of platforms owned by passed user\n    *\n    * @param _user associated owner of platforms\n    *\n    * @return _platforms list of platforms owned by user\n    */\n    function getPlatformsMetadataForUser(address _user) public constant returns (address[] _platforms) {\n        _platforms = store.get(ownerToPlatforms, bytes32(_user));\n    }\n\n    /**\n    * @dev Checks if passed platform is presented in the system\n    *\n    * @param _platform platform address\n    *\n    * @return `true` if it is registered, `false` otherwise\n    */\n    function isPlatformAttached(address _platform) public constant returns (bool) {\n        return store.includes(platforms, _platform);\n    }\n\n    /**\n    * @dev Responsible for registering an existed platform in the system. Could be performed only by owner of passed platform.\n    * It also reset platform's event history to system's one, so an owner should install PlatformsManager as eventsAdmin in its\n    * platform contract.\n    *\n    * Attaching a new platform also leads to synchronyzing all assets hosted in a platform and their owners so it is possible\n    * in case when a platform has a lot of assets and managers that this process of registering a platform will end up with\n    * ERROR_PLATFORMS_REPEAT_SYNC_IS_NOT_COMPLETED error. It means that all goes right just keep calling this method until\n    * `OK` result code will be returned; synchronysation might take several attemtps before it will be finished.\n    *\n    * @param _platform platform address\n    *\n    * @return resultCode result code of an operation.\n    *   ERROR_PLATFORMS_ATTACHING_PLATFORM_ALREADY_EXISTS,\n    *   ERROR_PLATFORMS_CANNOT_UPDATE_EVENTS_HISTORY_NOT_EVENTS_ADMIN,\n    *   ERROR_PLATFORMS_REPEAT_SYNC_IS_NOT_COMPLETED might be returned.\n    */\n    function attachPlatform(address _platform) onlyPlatformOwner(_platform) public returns (uint resultCode) {\n        if (store.includes(platforms, _platform)) {\n            return _emitError(ERROR_PLATFORMS_ATTACHING_PLATFORM_ALREADY_EXISTS);\n        }\n\n        resultCode = _syncAssetsInPlatformBeforeAttach(_platform);\n        if (resultCode != OK) {\n            return _emitError(resultCode);\n        }\n\n        _attachPlatformWithoutValidation(_platform, OwnedContract(_platform).contractOwner());\n        if (OK != ChronoBankPlatform(_platform).setupEventsHistory(getEventsHistory())) {\n            _emitError(ERROR_PLATFORMS_CANNOT_UPDATE_EVENTS_HISTORY_NOT_EVENTS_ADMIN);\n        }\n\n        _emitPlatformAttached(_platform, msg.sender);\n\n        return OK;\n    }\n\n    /**\n    * @dev Responsible for removing a platform from the system. Could be performed only by owner of passed platform.\n    * It also reset platform's eventsHistory and set platform as a new eventsHistory; still PlatformsManager should\n    * be eventsAdmin in a platform.\n    *\n    * Detaching process also includes removal of all assets and managers from system's registry, so as an opposite\n    * to a synchronization during attaching this process clean up all records about assets and their owners. It could\n    * take several attempts until all data will be removed. ERROR_PLATFORMS_REPEAT_SYNC_IS_NOT_COMPLETED will be returned\n    * in case if clean up process is not going to finish during this iteration so keep calling until `OK` will be a result.\n    *\n    * @param _platform platform address\n    *\n    * @return resultCode result code of an operation.\n    *   ERROR_PLATFORMS_PLATFORM_DOES_NOT_EXIST,\n    *   ERROR_PLATFORMS_INCONSISTENT_INTERNAL_STATE,\n    *   ERROR_PLATFORMS_CANNOT_UPDATE_EVENTS_HISTORY_NOT_EVENTS_ADMIN,\n    *   ERROR_PLATFORMS_REPEAT_SYNC_IS_NOT_COMPLETED might be returned.\n    */\n    function detachPlatform(address _platform) onlyPlatformOwner(_platform) public returns (uint resultCode) {\n        if (!store.includes(platforms, _platform)) {\n            return _emitError(ERROR_PLATFORMS_PLATFORM_DOES_NOT_EXIST);\n        }\n\n        address _owner = OwnedContract(_platform).contractOwner();\n        if (!store.includes(ownerToPlatforms, bytes32(_owner), _platform)) {\n            return _emitError(ERROR_PLATFORMS_INCONSISTENT_INTERNAL_STATE);\n        }\n\n        resultCode = _syncAssetsInPlatformBeforeDetach(_platform);\n        if (resultCode != OK) {\n            return _emitError(resultCode);\n        }\n\n        if (OK != ChronoBankPlatform(_platform).setupEventsHistory(_platform)) {\n            _emitError(ERROR_PLATFORMS_CANNOT_UPDATE_EVENTS_HISTORY_NOT_EVENTS_ADMIN);\n        }\n\n        store.remove(ownerToPlatforms, bytes32(_owner), _platform);\n        store.remove(platforms, _platform);\n\n        _emitPlatformDetached(_platform, msg.sender);\n        return OK;\n    }\n\n    /**\n    * @dev Designed to keep PlatformsManager in consistent state when platform's owner might be changed.\n    * New owner of a platform should call this method to update a record about platform ownership.\n    * Until this operation would not be performed, then user of a platform couldn't do anything with this\n    * platform.\n    *\n    * @param _platform platform address\n    * @param _from previous owner of a platform*\n    *\n    * @return resultCode result code of an operation.\n    */\n    function replaceAssociatedPlatformFromOwner(address _platform, address _from)\n    onlyPlatformOwner(_platform)\n    onlyPreviousPlatformOwner(_platform, _from)\n    public returns (uint resultCode) {\n        store.add(ownerToPlatforms, bytes32(msg.sender), _platform);\n        store.remove(ownerToPlatforms, bytes32(_from), _platform);\n        return OK;\n    }\n\n    /**\n    * @dev Creates a brand new platform.\n    * This method might take an additional fee in TIMEs.\n    *\n    * @return resultCode result code of an operation\n    */\n    function createPlatform() public returns (uint resultCode) {\n        return _createPlatform([uint(0)]);\n    }\n\n    function _createPlatform(uint[1] memory _result)\n    private\n    featured(_result)\n    returns (uint resultCode)\n    {\n        PlatformsFactory factory = PlatformsFactory(store.get(platformsFactory));\n        address _platform = factory.createPlatform(msg.sender, getEventsHistory(), this);\n        _attachPlatformWithoutValidation(_platform, msg.sender);\n\n        AssetsManagerInterface assetsManager = AssetsManagerInterface(lookupManager(\"AssetsManager\"));\n        resultCode = assetsManager.requestTokenExtension(_platform);\n        address _tokenExtension;\n        if (resultCode == OK) {\n            _tokenExtension = assetsManager.getTokenExtension(_platform);\n            ChronoBankAssetOwnershipManager(_platform).addPartOwner(_tokenExtension);\n        }\n\n        OwnedInterface(_platform).transferContractOwnership(msg.sender);\n        _emitPlatformRequested(_platform, _tokenExtension, msg.sender);\n        return OK;\n    }\n\n    /**\n    * @dev Sets up internal variables during a platform attach. PRIVATE\n    */\n    function _attachPlatformWithoutValidation(address _platform, address _owner) private {\n        store.add(ownerToPlatforms, bytes32(_owner), _platform);\n        store.add(platforms, _platform);\n    }\n\n    /**\n    * @dev Checks if passed platform is owned by msg.sender. PRIVATE\n    */\n    function _isPlatformOwner(address _platform) private constant returns (bool) {\n        return OwnedContract(_platform).contractOwner() == msg.sender;\n    }\n\n    /**\n    * @dev Performs synchronization during attaching platforms. PRIVATE\n    */\n    function _syncAssetsInPlatformBeforeAttach(address _platform) private returns (uint resultCode) {\n        uint _lastSyncIdx = store.get(syncPlatformToSymbolIdx, _platform);\n        if (_lastSyncIdx == PLATFORM_DETACH_SYNC_DONE) {\n            _lastSyncIdx = 0;\n        }\n\n        if (_lastSyncIdx != PLATFORM_ATTACH_SYNC_DONE) {\n            AssetOwningListener _assetOwnershipResolver = AssetOwningListener(lookupManager(\"AssetOwnershipResolver\"));\n            resultCode = _runThroughPlatform(_lastSyncIdx, _platform, _assetOwnershipResolver.assetOwnerAdded);\n            if (resultCode != OK) {\n                return resultCode;\n            }\n\n            store.set(syncPlatformToSymbolIdx, _platform, PLATFORM_ATTACH_SYNC_DONE);\n        }\n\n        return OK;\n    }\n\n    /**\n    * @dev Performs synchronization during detaching platforms. PRIVATE\n    */\n    function _syncAssetsInPlatformBeforeDetach(address _platform) private returns (uint resultCode) {\n        uint _lastSyncIdx = store.get(syncPlatformToSymbolIdx, _platform);\n        if (_lastSyncIdx == PLATFORM_ATTACH_SYNC_DONE) {\n            _lastSyncIdx = 0;\n        }\n\n        if (_lastSyncIdx != PLATFORM_DETACH_SYNC_DONE) {\n            AssetOwningListener _assetOwnershipResolver = AssetOwningListener(lookupManager(\"AssetOwnershipResolver\"));\n            resultCode = _runThroughPlatform(_lastSyncIdx, _platform, _assetOwnershipResolver.assetOwnerRemoved);\n            if (resultCode != OK) {\n                return resultCode;\n            }\n\n            store.set(syncPlatformToSymbolIdx, _platform, PLATFORM_DETACH_SYNC_DONE);\n        }\n\n        return OK;\n    }\n\n    /**\n    * @dev Main synchronization method during attach/detach. PRIVATE\n    */\n    function _runThroughPlatform(uint _lastSyncIdx, address _platform, function (bytes32, address, address) external ownerUpdate) private returns (uint) {\n        ChronoBankAssetOwnershipManager _chronoBankPlatform = ChronoBankAssetOwnershipManager(_platform);\n        ChronoBankManagersRegistry _chronoBankRegistry = ChronoBankManagersRegistry(_platform);\n\n        uint _symbolsCount = _chronoBankPlatform.symbolsCount();\n        uint _holdersCount = _chronoBankRegistry.holdersCount();\n\n        bool _shouldInitHolders = true;\n        address[] memory _holders = new address[](_holdersCount);\n\n        for (; _lastSyncIdx < _symbolsCount; ++_lastSyncIdx) {\n            if (msg.gas < 100000) {\n                store.set(syncPlatformToSymbolIdx, _platform, _lastSyncIdx);\n                return ERROR_PLATFORMS_REPEAT_SYNC_IS_NOT_COMPLETED;\n            }\n\n            bytes32 _symbol = _chronoBankPlatform.symbols(_lastSyncIdx);\n            for (uint _holderIdx = 0; _holderIdx < _holdersCount; ++_holderIdx) {\n                if (_shouldInitHolders) {\n                    _holders[_holderIdx] = _chronoBankRegistry.holders(_holderIdx);\n                }\n\n                if (_chronoBankPlatform.hasAssetRights(_holders[_holderIdx], _symbol)) {\n                    ownerUpdate(_symbol, _platform, _holders[_holderIdx]);\n                }\n            }\n\n            _shouldInitHolders = false;\n        }\n\n        return OK;\n    }\n\n    /**\n    * Events emitting\n    */\n\n    function _emitError(uint _errorCode) private returns (uint) {\n        PlatformsManagerEmitter(getEventsHistory()).emitError(_errorCode);\n        return _errorCode;\n    }\n\n    function _emitPlatformAttached(address _platform, address _by) private {\n        PlatformsManagerEmitter(getEventsHistory()).emitPlatformAttached(_platform, _by);\n    }\n\n    function _emitPlatformDetached(address _platform, address _by) private {\n        PlatformsManagerEmitter(getEventsHistory()).emitPlatformDetached(_platform, _by);\n    }\n\n    function _emitPlatformRequested(address _platform, address _tokenExtension, address sender) private {\n        PlatformsManagerEmitter(getEventsHistory()).emitPlatformRequested(_platform, _tokenExtension, sender);\n    }\n\n    /**\n    * @dev DEPRECATED. WILL BE REMOVED IN FUTURE RELEASES\n    */\n    function _emitPlatformReplaced(address _fromPlatform, address _toPlatform) private {\n        PlatformsManagerEmitter(getEventsHistory()).emitPlatformReplaced(_fromPlatform, _toPlatform);\n    }\n}\n",
  "sourcePath": "/Users/mikefluff/Documents/Programming/Chronobank/test/SmartContracts/contracts/assets/PlatformsManager.sol",
  "compiler": {
    "name": "solc",
    "version": "0.4.18+commit.9cf6e910.Emscripten.clang"
  },
  "schemaVersion": "1.0.1",
  "updatedAt": "2018-01-13T06:44:48.152Z"
}