{
  "contractName": "PlatformsManagerEmitter",
  "abi": [
    {
      "constant": false,
      "inputs": [
        {
          "name": "_platform",
          "type": "address"
        },
        {
          "name": "_by",
          "type": "address"
        }
      ],
      "name": "emitPlatformDetached",
      "outputs": [],
      "payable": false,
      "stateMutability": "nonpayable",
      "type": "function"
    },
    {
      "constant": false,
      "inputs": [
        {
          "name": "_platform",
          "type": "address"
        },
        {
          "name": "_tokenExtension",
          "type": "address"
        },
        {
          "name": "_by",
          "type": "address"
        }
      ],
      "name": "emitPlatformRequested",
      "outputs": [],
      "payable": false,
      "stateMutability": "nonpayable",
      "type": "function"
    },
    {
      "constant": false,
      "inputs": [
        {
          "name": "_platform",
          "type": "address"
        },
        {
          "name": "_by",
          "type": "address"
        }
      ],
      "name": "emitPlatformAttached",
      "outputs": [],
      "payable": false,
      "stateMutability": "nonpayable",
      "type": "function"
    },
    {
      "constant": false,
      "inputs": [
        {
          "name": "_errorCode",
          "type": "uint256"
        }
      ],
      "name": "emitError",
      "outputs": [],
      "payable": false,
      "stateMutability": "nonpayable",
      "type": "function"
    },
    {
      "constant": false,
      "inputs": [
        {
          "name": "_fromPlatform",
          "type": "address"
        },
        {
          "name": "_toPlatform",
          "type": "address"
        }
      ],
      "name": "emitPlatformReplaced",
      "outputs": [],
      "payable": false,
      "stateMutability": "nonpayable",
      "type": "function"
    },
    {
      "anonymous": false,
      "inputs": [
        {
          "indexed": true,
          "name": "self",
          "type": "address"
        },
        {
          "indexed": false,
          "name": "platform",
          "type": "address"
        },
        {
          "indexed": true,
          "name": "by",
          "type": "address"
        }
      ],
      "name": "PlatformAttached",
      "type": "event"
    },
    {
      "anonymous": false,
      "inputs": [
        {
          "indexed": true,
          "name": "self",
          "type": "address"
        },
        {
          "indexed": false,
          "name": "platform",
          "type": "address"
        },
        {
          "indexed": true,
          "name": "by",
          "type": "address"
        }
      ],
      "name": "PlatformDetached",
      "type": "event"
    },
    {
      "anonymous": false,
      "inputs": [
        {
          "indexed": true,
          "name": "self",
          "type": "address"
        },
        {
          "indexed": false,
          "name": "platform",
          "type": "address"
        },
        {
          "indexed": false,
          "name": "tokenExtension",
          "type": "address"
        },
        {
          "indexed": true,
          "name": "by",
          "type": "address"
        }
      ],
      "name": "PlatformRequested",
      "type": "event"
    },
    {
      "anonymous": false,
      "inputs": [
        {
          "indexed": true,
          "name": "self",
          "type": "address"
        },
        {
          "indexed": false,
          "name": "fromPlatform",
          "type": "address"
        },
        {
          "indexed": false,
          "name": "toPlatform",
          "type": "address"
        }
      ],
      "name": "PlatformReplaced",
      "type": "event"
    },
    {
      "anonymous": false,
      "inputs": [
        {
          "indexed": true,
          "name": "self",
          "type": "address"
        },
        {
          "indexed": false,
          "name": "errorCode",
          "type": "uint256"
        }
      ],
      "name": "Error",
      "type": "event"
    }
  ],
  "bytecode": "0x6060604052341561000f57600080fd5b6103138061001e6000396000f30060606040526004361061006c5763ffffffff7c0100000000000000000000000000000000000000000000000000000000600035041663237932cf811461007157806347ab61b4146100985780634ddeb7d5146100c3578063df26ca08146100e8578063fa542bc8146100fe575b600080fd5b341561007c57600080fd5b610096600160a060020a0360043581169060243516610123565b005b34156100a357600080fd5b610096600160a060020a036004358116906024358116906044351661017f565b34156100ce57600080fd5b610096600160a060020a03600435811690602435166101e5565b34156100f357600080fd5b610096600435610241565b341561010957600080fd5b610096600160a060020a0360043581169060243516610288565b80600160a060020a03166101356102e3565b600160a060020a03167f91fa8213ec3e06d6c6fc812bc9bdabb5cdeb5921d3ec76d0d710b744bb96b5d684604051600160a060020a03909116815260200160405180910390a35050565b80600160a060020a03166101916102e3565b600160a060020a03167f675ebf44364662d6fd674a3ec79555047e602de0ed7429ee703618a9d5ce56618585604051600160a060020a039283168152911660208201526040908101905180910390a3505050565b80600160a060020a03166101f76102e3565b600160a060020a03167fcdc5b8b215eb83fcaa86f308963042cd82160281b9800937b75f8a2a842e62ef84604051600160a060020a03909116815260200160405180910390a35050565b6102496102e3565b600160a060020a03167f9cf38cf2dbf9139f5c32639950507b10775fbbe0421f3e168bc2d1bb1ae3208c8260405190815260200160405180910390a250565b6102906102e3565b600160a060020a03167fd7ce3ddd0ef249f86bc111aab33791dd478faef4dafabb858e90fe0c23e24cb38383604051600160a060020a039283168152911660208201526040908101905180910390a25050565b33905600a165627a7a72305820235e8795689ff1730ab8e177bd7fb6b299eede2fef3e27a33c650615f2e62ec20029",
  "source": "pragma solidity ^0.4.11;\n\nimport '../core/event/MultiEventsHistoryAdapter.sol';\n\n/**\n* @title Emitter with support of events history for PlatformsManager\n*/\ncontract PlatformsManagerEmitter is MultiEventsHistoryAdapter {\n\n    /**\n    * @dev Event for attaching a platform to the system\n    */\n    event PlatformAttached(address indexed self, address platform, address indexed by);\n\n    /**\n    * @dev Event for detaching a platform from the system\n    */\n    event PlatformDetached(address indexed self, address platform, address indexed by);\n\n    /**\n    * @dev Event for creating a platform\n    */\n    event PlatformRequested(address indexed self, address platform, address tokenExtension, address indexed by);\n\n    /**\n    * @dev DEPRECATED. WILL BE REMOVED IN FUTURE RELEASES\n    */\n    event PlatformReplaced(address indexed self, address fromPlatform, address toPlatform);\n\n    /**\n    * @dev Event for errors\n    */\n    event Error(address indexed self, uint errorCode);\n\n\n    /**\n    * Emitting events\n    */\n\n    function emitPlatformAttached( address _platform, address _by) {\n        PlatformAttached(_self(), _platform, _by);\n    }\n\n    function emitPlatformDetached( address _platform, address _by) {\n        PlatformDetached(_self(), _platform, _by);\n    }\n\n    function emitPlatformRequested( address _platform, address _tokenExtension, address _by) {\n        PlatformRequested(_self(), _platform, _tokenExtension, _by);\n    }\n\n    /**\n    * @dev DEPRECATED. WILL BE REMOVED IN FUTURE RELEASES\n    */\n    function emitPlatformReplaced( address _fromPlatform, address _toPlatform) {\n        PlatformReplaced(_self(), _fromPlatform, _toPlatform);\n    }\n\n    function emitError(uint _errorCode) {\n        Error(_self(), _errorCode);\n    }\n}\n",
  "sourcePath": "/Users/mikefluff/Documents/Programming/Chronobank/test/SmartContracts/contracts/assets/PlatformsManagerEmitter.sol",
  "compiler": {
    "name": "solc",
    "version": "0.4.18+commit.9cf6e910.Emscripten.clang"
  },
  "schemaVersion": "1.0.1",
  "updatedAt": "2018-01-12T11:40:44.779Z"
}