{
  "contractName": "PollManager",
  "abi": [
    {
      "constant": false,
      "inputs": [
        {
          "name": "pollId",
          "type": "uint256"
        }
      ],
      "name": "emitPollDeleted",
      "outputs": [],
      "payable": false,
      "stateMutability": "nonpayable",
      "type": "function"
    },
    {
      "constant": false,
      "inputs": [
        {
          "name": "_percent",
          "type": "uint256"
        }
      ],
      "name": "setVotesPercent",
      "outputs": [
        {
          "name": "errorCode",
          "type": "uint256"
        }
      ],
      "payable": false,
      "stateMutability": "nonpayable",
      "type": "function"
    },
    {
      "constant": true,
      "inputs": [
        {
          "name": "_id",
          "type": "uint256"
        }
      ],
      "name": "isPollOwner",
      "outputs": [
        {
          "name": "",
          "type": "bool"
        }
      ],
      "payable": false,
      "stateMutability": "view",
      "type": "function"
    },
    {
      "constant": false,
      "inputs": [
        {
          "name": "_contractsManager",
          "type": "address"
        }
      ],
      "name": "init",
      "outputs": [
        {
          "name": "",
          "type": "uint256"
        }
      ],
      "payable": false,
      "stateMutability": "nonpayable",
      "type": "function"
    },
    {
      "constant": false,
      "inputs": [
        {
          "name": "pollId",
          "type": "uint256"
        },
        {
          "name": "option",
          "type": "bytes32"
        },
        {
          "name": "count",
          "type": "uint256"
        }
      ],
      "name": "emitOptionRemoved",
      "outputs": [],
      "payable": false,
      "stateMutability": "nonpayable",
      "type": "function"
    },
    {
      "constant": false,
      "inputs": [
        {
          "name": "pollId",
          "type": "uint256"
        }
      ],
      "name": "emitPollCreated",
      "outputs": [],
      "payable": false,
      "stateMutability": "nonpayable",
      "type": "function"
    },
    {
      "constant": false,
      "inputs": [
        {
          "name": "_pollId",
          "type": "uint256"
        }
      ],
      "name": "removePoll",
      "outputs": [
        {
          "name": "errorCode",
          "type": "uint256"
        }
      ],
      "payable": false,
      "stateMutability": "nonpayable",
      "type": "function"
    },
    {
      "constant": false,
      "inputs": [
        {
          "name": "_pollId",
          "type": "uint256"
        }
      ],
      "name": "adminEndPoll",
      "outputs": [
        {
          "name": "errorCode",
          "type": "uint256"
        }
      ],
      "payable": false,
      "stateMutability": "nonpayable",
      "type": "function"
    },
    {
      "constant": false,
      "inputs": [],
      "name": "emitSharesPercentUpdated",
      "outputs": [],
      "payable": false,
      "stateMutability": "nonpayable",
      "type": "function"
    },
    {
      "constant": false,
      "inputs": [],
      "name": "claimContractOwnership",
      "outputs": [
        {
          "name": "",
          "type": "bool"
        }
      ],
      "payable": false,
      "stateMutability": "nonpayable",
      "type": "function"
    },
    {
      "constant": false,
      "inputs": [],
      "name": "cleanInactivePolls",
      "outputs": [
        {
          "name": "errorCode",
          "type": "uint256"
        }
      ],
      "payable": false,
      "stateMutability": "nonpayable",
      "type": "function"
    },
    {
      "constant": true,
      "inputs": [
        {
          "name": "_identifier",
          "type": "bytes32"
        }
      ],
      "name": "lookupManager",
      "outputs": [
        {
          "name": "manager",
          "type": "address"
        }
      ],
      "payable": false,
      "stateMutability": "view",
      "type": "function"
    },
    {
      "constant": true,
      "inputs": [],
      "name": "contractsManager",
      "outputs": [
        {
          "name": "",
          "type": "address"
        }
      ],
      "payable": false,
      "stateMutability": "view",
      "type": "function"
    },
    {
      "constant": false,
      "inputs": [
        {
          "name": "_to",
          "type": "address"
        }
      ],
      "name": "changeContractOwnership",
      "outputs": [
        {
          "name": "",
          "type": "bool"
        }
      ],
      "payable": false,
      "stateMutability": "nonpayable",
      "type": "function"
    },
    {
      "constant": true,
      "inputs": [],
      "name": "pendingContractOwner",
      "outputs": [
        {
          "name": "",
          "type": "address"
        }
      ],
      "payable": false,
      "stateMutability": "view",
      "type": "function"
    },
    {
      "constant": false,
      "inputs": [
        {
          "name": "_pollId",
          "type": "uint256"
        },
        {
          "name": "_detailsIpfsHash",
          "type": "bytes32"
        }
      ],
      "name": "updatePollDetailsIpfsHash",
      "outputs": [
        {
          "name": "errorCode",
          "type": "uint256"
        }
      ],
      "payable": false,
      "stateMutability": "nonpayable",
      "type": "function"
    },
    {
      "constant": false,
      "inputs": [
        {
          "name": "_eventsHistory",
          "type": "address"
        }
      ],
      "name": "setEventsHistory",
      "outputs": [],
      "payable": false,
      "stateMutability": "nonpayable",
      "type": "function"
    },
    {
      "constant": true,
      "inputs": [],
      "name": "getVoteLimit",
      "outputs": [
        {
          "name": "",
          "type": "uint256"
        }
      ],
      "payable": false,
      "stateMutability": "view",
      "type": "function"
    },
    {
      "constant": false,
      "inputs": [
        {
          "name": "_pollId",
          "type": "uint256"
        },
        {
          "name": "_option",
          "type": "bytes32"
        }
      ],
      "name": "addPollOption",
      "outputs": [
        {
          "name": "errorCode",
          "type": "uint256"
        }
      ],
      "payable": false,
      "stateMutability": "nonpayable",
      "type": "function"
    },
    {
      "constant": false,
      "inputs": [
        {
          "name": "pollId",
          "type": "uint256"
        },
        {
          "name": "option",
          "type": "bytes32"
        },
        {
          "name": "count",
          "type": "uint256"
        }
      ],
      "name": "emitOptionAdded",
      "outputs": [],
      "payable": false,
      "stateMutability": "nonpayable",
      "type": "function"
    },
    {
      "constant": false,
      "inputs": [
        {
          "name": "_contractsManager",
          "type": "address"
        }
      ],
      "name": "setContractsManager",
      "outputs": [],
      "payable": false,
      "stateMutability": "nonpayable",
      "type": "function"
    },
    {
      "constant": false,
      "inputs": [
        {
          "name": "_options",
          "type": "bytes32[16]"
        },
        {
          "name": "_ipfsHashes",
          "type": "bytes32[4]"
        },
        {
          "name": "_detailsIpfsHash",
          "type": "bytes32"
        },
        {
          "name": "_votelimit",
          "type": "uint256"
        },
        {
          "name": "_deadline",
          "type": "uint256"
        }
      ],
      "name": "NewPoll",
      "outputs": [
        {
          "name": "errorCode",
          "type": "uint256"
        }
      ],
      "payable": false,
      "stateMutability": "nonpayable",
      "type": "function"
    },
    {
      "constant": false,
      "inputs": [],
      "name": "destroy",
      "outputs": [],
      "payable": false,
      "stateMutability": "nonpayable",
      "type": "function"
    },
    {
      "constant": false,
      "inputs": [
        {
          "name": "pollId",
          "type": "uint256"
        }
      ],
      "name": "emitPollActivated",
      "outputs": [],
      "payable": false,
      "stateMutability": "nonpayable",
      "type": "function"
    },
    {
      "constant": false,
      "inputs": [
        {
          "name": "pollId",
          "type": "uint256"
        }
      ],
      "name": "emitPollEnded",
      "outputs": [],
      "payable": false,
      "stateMutability": "nonpayable",
      "type": "function"
    },
    {
      "constant": false,
      "inputs": [
        {
          "name": "_to",
          "type": "address"
        }
      ],
      "name": "transferContractOwnership",
      "outputs": [
        {
          "name": "",
          "type": "bool"
        }
      ],
      "payable": false,
      "stateMutability": "nonpayable",
      "type": "function"
    },
    {
      "constant": false,
      "inputs": [
        {
          "name": "pollId",
          "type": "uint256"
        }
      ],
      "name": "emitPollDetailsUpdated",
      "outputs": [],
      "payable": false,
      "stateMutability": "nonpayable",
      "type": "function"
    },
    {
      "constant": false,
      "inputs": [
        {
          "name": "_id",
          "type": "uint256"
        },
        {
          "name": "_hash",
          "type": "bytes32"
        }
      ],
      "name": "addIpfsHashToPoll",
      "outputs": [
        {
          "name": "errorCode",
          "type": "uint256"
        }
      ],
      "payable": false,
      "stateMutability": "nonpayable",
      "type": "function"
    },
    {
      "constant": true,
      "inputs": [],
      "name": "contractOwner",
      "outputs": [
        {
          "name": "",
          "type": "address"
        }
      ],
      "payable": false,
      "stateMutability": "view",
      "type": "function"
    },
    {
      "constant": false,
      "inputs": [
        {
          "name": "tokens",
          "type": "address[]"
        },
        {
          "name": "_to",
          "type": "address"
        }
      ],
      "name": "withdrawnTokens",
      "outputs": [
        {
          "name": "",
          "type": "uint256"
        }
      ],
      "payable": false,
      "stateMutability": "nonpayable",
      "type": "function"
    },
    {
      "constant": false,
      "inputs": [
        {
          "name": "errorCode",
          "type": "uint256"
        }
      ],
      "name": "emitError",
      "outputs": [],
      "payable": false,
      "stateMutability": "nonpayable",
      "type": "function"
    },
    {
      "constant": false,
      "inputs": [
        {
          "name": "_pollId",
          "type": "uint256"
        },
        {
          "name": "_option",
          "type": "bytes32"
        }
      ],
      "name": "removePollOption",
      "outputs": [
        {
          "name": "errorCode",
          "type": "uint256"
        }
      ],
      "payable": false,
      "stateMutability": "nonpayable",
      "type": "function"
    },
    {
      "constant": true,
      "inputs": [
        {
          "name": "_pollId",
          "type": "uint256"
        }
      ],
      "name": "checkPollIsActive",
      "outputs": [
        {
          "name": "",
          "type": "bool"
        }
      ],
      "payable": false,
      "stateMutability": "view",
      "type": "function"
    },
    {
      "constant": false,
      "inputs": [
        {
          "name": "_pollId",
          "type": "uint256"
        }
      ],
      "name": "activatePoll",
      "outputs": [
        {
          "name": "errorCode",
          "type": "uint256"
        }
      ],
      "payable": false,
      "stateMutability": "nonpayable",
      "type": "function"
    },
    {
      "constant": false,
      "inputs": [
        {
          "name": "id",
          "type": "uint256"
        },
        {
          "name": "hash",
          "type": "bytes32"
        },
        {
          "name": "count",
          "type": "uint256"
        }
      ],
      "name": "emitIpfsHashToPollAdded",
      "outputs": [],
      "payable": false,
      "stateMutability": "nonpayable",
      "type": "function"
    },
    {
      "constant": true,
      "inputs": [
        {
          "name": "key",
          "type": "address"
        }
      ],
      "name": "isAuthorized",
      "outputs": [
        {
          "name": "",
          "type": "bool"
        }
      ],
      "payable": false,
      "stateMutability": "view",
      "type": "function"
    },
    {
      "constant": true,
      "inputs": [],
      "name": "getEventsHistory",
      "outputs": [
        {
          "name": "",
          "type": "address"
        }
      ],
      "payable": false,
      "stateMutability": "view",
      "type": "function"
    },
    {
      "inputs": [
        {
          "name": "_store",
          "type": "address"
        },
        {
          "name": "_crate",
          "type": "bytes32"
        }
      ],
      "payable": false,
      "stateMutability": "nonpayable",
      "type": "constructor"
    },
    {
      "payable": false,
      "stateMutability": "nonpayable",
      "type": "fallback"
    },
    {
      "anonymous": false,
      "inputs": [
        {
          "indexed": false,
          "name": "pollId",
          "type": "uint256"
        }
      ],
      "name": "PollCreated",
      "type": "event"
    },
    {
      "anonymous": false,
      "inputs": [
        {
          "indexed": false,
          "name": "pollId",
          "type": "uint256"
        }
      ],
      "name": "PollDeleted",
      "type": "event"
    },
    {
      "anonymous": false,
      "inputs": [
        {
          "indexed": false,
          "name": "pollId",
          "type": "uint256"
        }
      ],
      "name": "PollEnded",
      "type": "event"
    },
    {
      "anonymous": false,
      "inputs": [
        {
          "indexed": false,
          "name": "pollId",
          "type": "uint256"
        }
      ],
      "name": "PollActivated",
      "type": "event"
    },
    {
      "anonymous": false,
      "inputs": [
        {
          "indexed": false,
          "name": "choice",
          "type": "uint256"
        },
        {
          "indexed": false,
          "name": "pollId",
          "type": "uint256"
        }
      ],
      "name": "VoteCreated",
      "type": "event"
    },
    {
      "anonymous": false,
      "inputs": [
        {
          "indexed": true,
          "name": "self",
          "type": "address"
        }
      ],
      "name": "SharesPercentUpdated",
      "type": "event"
    },
    {
      "anonymous": false,
      "inputs": [
        {
          "indexed": true,
          "name": "id",
          "type": "uint256"
        },
        {
          "indexed": false,
          "name": "hash",
          "type": "bytes32"
        },
        {
          "indexed": false,
          "name": "count",
          "type": "uint256"
        }
      ],
      "name": "IpfsHashToPollAdded",
      "type": "event"
    },
    {
      "anonymous": false,
      "inputs": [
        {
          "indexed": true,
          "name": "id",
          "type": "uint256"
        },
        {
          "indexed": false,
          "name": "option",
          "type": "bytes32"
        },
        {
          "indexed": false,
          "name": "count",
          "type": "uint256"
        }
      ],
      "name": "OptionAdded",
      "type": "event"
    },
    {
      "anonymous": false,
      "inputs": [
        {
          "indexed": true,
          "name": "id",
          "type": "uint256"
        },
        {
          "indexed": false,
          "name": "option",
          "type": "bytes32"
        },
        {
          "indexed": false,
          "name": "count",
          "type": "uint256"
        }
      ],
      "name": "OptionRemoved",
      "type": "event"
    },
    {
      "anonymous": false,
      "inputs": [
        {
          "indexed": true,
          "name": "id",
          "type": "uint256"
        }
      ],
      "name": "PollDetailsUpdated",
      "type": "event"
    },
    {
      "anonymous": false,
      "inputs": [
        {
          "indexed": true,
          "name": "self",
          "type": "address"
        },
        {
          "indexed": false,
          "name": "errorCode",
          "type": "uint256"
        }
      ],
      "name": "Error",
      "type": "event"
    }
  ],
  "bytecode": "0x606060405234156200001057600080fd5b6040516040806200307783398101604052808051919060200180519150829050818181818181816200005360008383640100000000620026f3620004be82021704565b505060028054600160a060020a03338116600160a060020a03199283161790925560058054309093169290911691909117905550620000c89250600691507f616374697665506f6c6c73436f756e7400000000000000000000000000000000905064010000000062001a2a620004e482021704565b6200010360077f706f6c6c73000000000000000000000000000000000000000000000000000000640100000000620027196200050482021704565b6200013e600c7f6f776e6572000000000000000000000000000000000000000000000000000000640100000000620027236200052282021704565b62000179600d7f64657461696c7349706673486173680000000000000000000000000000000000640100000000620027236200052282021704565b620001b4600e7f766f74656c696d69740000000000000000000000000000000000000000000000640100000000620027236200052282021704565b620001ef600f7f646561646c696e65000000000000000000000000000000000000000000000000640100000000620027236200052282021704565b6200022a60107f7374617475730000000000000000000000000000000000000000000000000000640100000000620027236200052282021704565b6200026560117f6163746976650000000000000000000000000000000000000000000000000000640100000000620027236200052282021704565b620002a060137f6d656d6265724f7074696f6e0000000000000000000000000000000000000000640100000000620027236200052282021704565b620002db60147f6d656d626572566f746573000000000000000000000000000000000000000000640100000000620027236200052282021704565b6200031660157f6f7074696f6e7300000000000000000000000000000000000000000000000000640100000000620027236200052282021704565b6200035160167f6f7074696f6e7353746174730000000000000000000000000000000000000000640100000000620027236200052282021704565b6200038c60177f6d656d62657273000000000000000000000000000000000000000000000000006401000000006200275f6200053c82021704565b620003c7601c7f6d656d626572506f6c6c730000000000000000000000000000000000000000006401000000006200275f6200053c82021704565b6200040260217f6970667348617368657300000000000000000000000000000000000000000000640100000000620027196200050482021704565b6200043d60267f6f7074696f6e7349640000000000000000000000000000000000000000000000640100000000620027196200050482021704565b6200047860127f6372656174696f6e54696d650000000000000000000000000000000000000000640100000000620027236200052282021704565b50620004b69050602b7f73686172657350657263656e740000000000000000000000000000000000000064010000000062001a2a620004e482021704565b50506200072d565b8254600160a060020a031916600160a060020a0392909216919091178255600190910155565b815462000500908264010000000062001f8f6200055682021704565b9055565b6200051e8282640100000000620027796200056e82021704565b5050565b6200051e828264010000000062001a2a620004e482021704565b6200051e8282640100000000620027196200050482021704565b8115158062000563575080155b156200051e57600080fd5b620005c582826040519081527f75696e742f636f756e74000000000000000000000000000000000000000000006020820152602a016040518091039020620004e46401000000000262001a2a176401000000009004565b6200061f82600101826040519081527f75696e742f6669727374000000000000000000000000000000000000000000006020820152602a016040518091039020620004e46401000000000262001a2a176401000000009004565b6200067982600201826040519081527f75696e742f6c617374000000000000000000000000000000000000000000000060208201526029016040518091039020620004e46401000000000262001a2a176401000000009004565b620006d382600301826040519081527f75696e742f6e657874000000000000000000000000000000000000000000000060208201526029016040518091039020620004e46401000000000262001a2a176401000000009004565b6200051e82600401826040519081527f75696e742f70726576000000000000000000000000000000000000000000000060208201526029016040518091039020620004e46401000000000262001a2a176401000000009004565b61293a806200073d6000396000f3006060604052600436106101b35763ffffffff60e060020a60003504166301a5c0c581146101c3578063023fa93f146101db57806315601a211461020357806319ab453c1461022d5780632184dacd1461024c578063272eddaa1461026857806334bfce7f1461027e5780633a35b52d146102945780633d99a74a146102aa5780634592cd1d146102bd5780634877ccb8146102d05780634fe59012146102e357806353253d3114610315578063557f4bc9146103285780635aa77d3c1461034757806362339cc01461035a5780636521afd714610373578063657e8c131461039257806369b6f6f2146103a55780636a1b34be146103be57806371d3b573146103da5780637d6a1f14146103f957806383197ef01461046a5780638d009faf1461047d5780638d65e2b514610493578063a843c51f146104a9578063adb4099f146104c8578063c6c41bdb146104de578063ce606ee0146104f7578063d8f9659b1461050a578063df26ca0814610564578063e469805c1461057a578063eaffbbb614610593578063ebb96896146105a9578063ee2df7df146105bf578063fe9fbb80146105db578063fff10aba146105fa575b34156101be57600080fd5b600080fd5b34156101ce57600080fd5b6101d960043561060d565b005b34156101e657600080fd5b6101f1600435610643565b60405190815260200160405180910390f35b341561020e57600080fd5b6102196004356106b0565b604051901515815260200160405180910390f35b341561023857600080fd5b6101f1600160a060020a03600435166106e0565b341561025757600080fd5b6101d9600435602435604435610775565b341561027357600080fd5b6101d96004356107b5565b341561028957600080fd5b6101f16004356107eb565b341561029f57600080fd5b6101f160043561085f565b34156102b557600080fd5b6101d96108be565b34156102c857600080fd5b6102196108fd565b34156102db57600080fd5b6101f161094a565b34156102ee57600080fd5b6102f96004356109ce565b604051600160a060020a03909116815260200160405180910390f35b341561032057600080fd5b6102f9610a52565b341561033357600080fd5b610219600160a060020a0360043516610a61565b341561035257600080fd5b6102f9610ab8565b341561036557600080fd5b6101f1600435602435610ac7565b341561037e57600080fd5b6101d9600160a060020a0360043516610b66565b341561039d57600080fd5b6101f1610b9c565b34156103b057600080fd5b6101f1600435602435610c51565b34156103c957600080fd5b6101d9600435602435604435610cf9565b34156103e557600080fd5b6101d9600160a060020a0360043516610d39565b341561040457600080fd5b6101f16004610204816010610200604051908101604052919082826102008082843782019150505050509190806080019060048060200260405190810160405291908282608080828437509395505083359360208101359350604001359150610d709050565b341561047557600080fd5b6101d9610f30565b341561048857600080fd5b6101d9600435610fc6565b341561049e57600080fd5b6101d9600435610ffc565b34156104b457600080fd5b610219600160a060020a0360043516611032565b34156104d357600080fd5b6101d96004356110ab565b34156104e957600080fd5b6101f16004356024356110db565b341561050257600080fd5b6102f961116e565b341561051557600080fd5b6101f1600460248135818101908301358060208181020160405190810160405280939291908181526020018383602002808284375094965050509235600160a060020a0316925061117d915050565b341561056f57600080fd5b6101d96004356112ce565b341561058557600080fd5b6101f1600435602435611315565b341561059e57600080fd5b610219600435611399565b34156105b457600080fd5b6101f16004356113ad565b34156105ca57600080fd5b6101d960043560243560443561149d565b34156105e657600080fd5b610219600160a060020a03600435166114dd565b341561060557600080fd5b6102f9611583565b7fe66ba7d1f84b318686d5d7e1d0a39a60d5faec16733d8c4ae85a0f5b6522eaa18160405190815260200160405180910390a150565b600080600083118015610657575061271083105b151561066f57610668611f54611592565b91506106aa565b6106776115fb565b90506001811461068a5761066881611729565b61069d6000602b8563ffffffff61174f16565b6106a56117c8565b600191505b50919050565b6000600160a060020a0333166106ce82600c8563ffffffff61182216565b600160a060020a03161490505b919050565b600254600090819033600160a060020a03908116911614156106aa57610726837f506f6c6c4d616e61676572000000000000000000000000000000000000000000611839565b905060068114610744576107446000602b600163ffffffff61174f16565b6106a5602c7f706f6c6c734964436f756e74657200000000000000000000000000000000000063ffffffff611a2a16565b827fa410cc9c1ef3c00e0e602545df56ca43d5d82599d5da77c615ca4436ef93524f838360405191825260208201526040908101905180910390a2505050565b7fab0309b6731a34e8750174d3c2c9591a34a2bf0c1425a30b34122be08d0507398160405190815260200160405180910390a150565b60006107f6336114dd565b156106db5761080482611a3a565b151561081c57610815611f4e611592565b90506106db565b61082582611a4e565b801561083f575061083f600060108463ffffffff611a6016565b151561085057610815611f41611592565b61085982611a6d565b92915050565b600080600061086d84611a3a565b15156108855761087e611f4e611592565b92506108b7565b61088d6115fb565b9150600182146108a05761087e82611729565b6108a984611af6565b90506108b481611729565b92505b5050919050565b6108c6611b73565b600160a060020a03167f22fe0086a6a33bf147ac37412f2ee25bcffaa98ea82897ddff1dbd0da5d2342860405160405180910390a2565b60035460009033600160a060020a0390811691161461091e57506000610947565b506003805460028054600160a060020a0319908116600160a060020a0384161790915516905560015b90565b60006109546126cc565b600061095f336114dd565b156109c9576109766000600763ffffffff611b7716565b91505b61098c600060078463ffffffff611b8916565b156109c4576109a4600060078463ffffffff611b9616565b90506109af81611a4e565b156109bf576109bd81611a6d565b505b610979565b600192505b505090565b600454600090600160a060020a031663bc65792783836040516020015260405160e060020a63ffffffff84160281526004810191909152602401602060405180830381600087803b1515610a2157600080fd5b6102c65a03f11515610a3257600080fd5b5050506040518051915050600160a060020a03811615156106db57600080fd5b600454600160a060020a031681565b60025460009033600160a060020a03908116911614156106db57600160a060020a0382161515610a93575060006106db565b5060038054600160a060020a038316600160a060020a03199091161790556001919050565b600354600160a060020a031681565b600082610ad3816106b0565b15610b5f57610ae184611a3a565b1515610af957610af2611f4e611592565b9150610b5f565b610b0284611399565b15610b1257610af2611f4d611592565b821515610b2457610af2611f51611592565b82610b386000600d8763ffffffff61182216565b14610b5157610b516000600d868663ffffffff611ba316565b610b5a84611bb5565b600191505b5092915050565b60025433600160a060020a0390811691161415610b995760058054600160a060020a031916600160a060020a0383161790555b50565b600080610bc87f54696d65486f6c646572000000000000000000000000000000000000000000006109ce565b9050610bdc6000602b63ffffffff611c1316565b61271082600160a060020a03166318160ddd6000604051602001526040518163ffffffff1660e060020a028152600401602060405180830381600087803b1515610c2557600080fd5b6102c65a03f11515610c3657600080fd5b50505060405180519050811515610c4957fe5b040291505090565b600082610c5d816106b0565b15610b5f57610c6c8484611c72565b915060018214610c7f57610af282611592565b6010610c94600060268763ffffffff611cbc16565b10610ca457610af2611f4b611592565b610cb860006026868663ffffffff611cc916565b15610cc857610af2611f40611592565b610cdc60006026868663ffffffff611ce016565b610b5a8484610cf4600060268463ffffffff611cbc16565b611cec565b827fb6f1f68ea3503957afe332cc3d0377408a3b24df638c5213ace7067be2343c06838360405191825260208201526040908101905180910390a2505050565b60025433600160a060020a0390811691161415610b995760048054600160a060020a038316600160a060020a031990911617905550565b60008080851515610d8d57610d86611f51611592565b9250610f25565b610d95610b9c565b851115610da757610d86611f43611592565b42841015610dba57610d86611f52611592565b610dcc6000602c63ffffffff611c1316565b6001019150610de4600060078463ffffffff611d4816565b610df76000602c8463ffffffff61174f16565b610e0b6000600c843363ffffffff611d5316565b610e1f6000600d848963ffffffff611ba316565b610e336000600e848863ffffffff611ba316565b610e476000600f848763ffffffff611ba316565b610e5c6000601084600163ffffffff611d6816565b610e7060006011848263ffffffff611d6816565b610e8460006012844263ffffffff611ba316565b5060005b6010811015610ed8576000888260108110610e9f57fe5b602002015114610ed057610ed06026838a8460108110610ebb57fe5b6020020151600092919063ffffffff611ce016565b600101610e88565b5060005b6004811015610f17576000878260048110610ef357fe5b602002015114610f0f57610f0f602183898460048110610ebb57fe5b600101610edc565b610f2082611d74565b600192505b505095945050505050565b60025433600160a060020a0390811691161415610fc457600454600160a060020a031663c375c2ef3060006040516020015260405160e060020a63ffffffff8416028152600160a060020a039091166004820152602401602060405180830381600087803b1515610fa057600080fd5b6102c65a03f11515610fb157600080fd5b5050506040518051905050610fc4611dc1565b565b7f4d863a7bb9fa1842bb9e4910f424611e539d2ba27a89dbd18d89ba8eb7a494c28160405190815260200160405180910390a150565b7f14d4cfc1c2a6f37c8f97ad80fc12bd9d943ea6d4dd7684137850125597ce9bf78160405190815260200160405180910390a150565b60025460009033600160a060020a03908116911614156106db57600160a060020a0382161515611064575060006106db565b600354600160a060020a0316156110865760038054600160a060020a03191690555b5060028054600160a060020a038316600160a060020a03199091161790556001919050565b807f9514e96bb0a20942e87d251977e8a13587cf1dd1d11d988e8cef0001003e627a60405160405180910390a250565b6000826110e7816106b0565b15610b5f576110f584611a3a565b151561110657610af2611f4e611592565b82151561111857610af2611f53611592565b600561112d600060218763ffffffff611cbc16565b1061113d57610af2611f44611592565b61115160006021868663ffffffff611ce016565b610b5a8484611169600060218463ffffffff611cbc16565b611de4565b600254600160a060020a031681565b60025460009081908190819033600160a060020a03908116911614156112c557600092505b85518310156112c0578583815181106111b757fe5b90602001906020020151915081600160a060020a03166370a082313060006040516020015260405160e060020a63ffffffff8416028152600160a060020a039091166004820152602401602060405180830381600087803b151561121a57600080fd5b6102c65a03f1151561122b57600080fd5b505050604051805191505080156112b55781600160a060020a031663a9059cbb868360006040516020015260405160e060020a63ffffffff8516028152600160a060020a0390921660048301526024820152604401602060405180830381600087803b151561129957600080fd5b6102c65a03f115156112aa57600080fd5b505050604051805150505b6001909201916111a2565b600193505b50505092915050565b6112d6611b73565b600160a060020a03167f9cf38cf2dbf9139f5c32639950507b10775fbbe0421f3e168bc2d1bb1ae3208c8260405190815260200160405180910390a250565b600082611321816106b0565b15610b5f576113308484611c72565b91506001821461134357610af282611592565b61135760006026868663ffffffff611cc916565b151561136857610af2611f55611592565b61137c60006026868663ffffffff611e4016565b610b5a8484611394600060268463ffffffff611cbc16565b611e4c565b60006108598160118463ffffffff611a6016565b6000806113b983611a3a565b15156113ca57610668611f4e611592565b60026113df600060268663ffffffff611cbc16565b10156113f057610668611f50611592565b6113f86115fb565b90506001811461140b5761066881611729565b601461141f6000600663ffffffff611c1316565b600101111561143357610668611f49611592565b611446600060108563ffffffff611a6016565b151561145757610668611f4a611592565b61146c6000601185600163ffffffff611d6816565b611494600661148260008263ffffffff611c1316565b6000919060010163ffffffff61174f16565b6106a583611ea8565b827fa5c4447e434b84cfe4d8d34060515638052198d9a890411059e12a89f200682b838360405191825260208201526040908101905180910390a2505050565b6000806115097f557365724d616e616765720000000000000000000000000000000000000000006109ce565b905080600160a060020a0316632aa09e5a8460006040516020015260405160e060020a63ffffffff8416028152600160a060020a039091166004820152602401602060405180830381600087803b151561156257600080fd5b6102c65a03f1151561157357600080fd5b5050506040518051949350505050565b600554600160a060020a031690565b600061159c611583565b600160a060020a031663df26ca088360405160e060020a63ffffffff84160281526004810191909152602401600060405180830381600087803b15156115e157600080fd5b6102c65a03f115156115f257600080fd5b50929392505050565b60008060006116297f50656e64696e674d616e616765720000000000000000000000000000000000006109ce565b915081600160a060020a031633600160a060020a03161415156109c457600036604051808383808284378201915050925050506040518091039020905081600160a060020a0316630fee1efc82600036303360006040516020015260405160e060020a63ffffffff881602815260048101868152600160a060020a0380851660448401528316606483015260806024830190815260848301869052909160a40186868082843782019150509650505050505050602060405180830381600087803b15156116f557600080fd5b6102c65a03f1151561170657600080fd5b50505060405180519350506001831461171f5782611722565b60035b92506109c9565b60006001821415801561173d575060038214155b1561174b5761081582611592565b5090565b825460018401548354600160a060020a03909216916353e7168b91908460405160e060020a63ffffffff8616028152600481019390935260248301919091526044820152606401600060405180830381600087803b15156117af57600080fd5b6102c65a03f115156117c057600080fd5b505050505050565b6117d0611583565b600160a060020a0316633d99a74a6040518163ffffffff1660e060020a028152600401600060405180830381600087803b151561180c57600080fd5b6102c65a03f1151561181d57600080fd5b505050565b600061182f848484611ef5565b90505b9392505050565b60025460009081908190819033600160a060020a0390811691161461185d57600080fd5b600160a060020a038616151561187257600080fd5b600454600160a060020a031615801593508061189c5750600454600160a060020a03878116911614155b156118bd5760048054600160a060020a031916600160a060020a0388161790555b600454600160a060020a031691508163bc65792760006040516020015260405160e060020a63ffffffff83160281527f4d756c74694576656e7473486973746f727900000000000000000000000000006004820152602401602060405180830381600087803b151561192e57600080fd5b6102c65a03f1151561193f57600080fd5b5050506040518051915050600160a060020a038116158015906119705750600554600160a060020a03828116911614155b156119915760058054600160a060020a031916600160a060020a0383161790555b8415611a185781600160a060020a031663b7c46cd5308760006040516020015260405160e060020a63ffffffff8516028152600160a060020a0390921660048301526024820152604401602060405180830381600087803b15156119f457600080fd5b6102c65a03f11515611a0557600080fd5b50505060405180516001149050611a1857fe5b82156112c05760069695505050505050565b8154611a369082611f8f565b9055565b60006108598160078463ffffffff611fa916565b6000611a5982611399565b1592915050565b600061182f848484611fb6565b6000611a818160078463ffffffff61202e16565b611a956000600c848263ffffffff611d5316565b611aa96000600d848263ffffffff611ba316565b611abd6000600e848263ffffffff611ba316565b611ad16000600f848263ffffffff611ba316565b611ae560006012848263ffffffff611ba316565b611aee82612039565b506001919050565b6000611b0a8160108463ffffffff611a6016565b1515611b195750611f406106db565b611b2d60006010848263ffffffff611d6816565b611b4160006011848263ffffffff611d6816565b611b6a60066001611b5960008363ffffffff611c1316565b60009291900363ffffffff61174f16565b611aee82612086565b3390565b611b7f6126cc565b61183283836120d3565b600061182f8484846120f4565b600061182f84848461212f565b611baf8484848461217b565b50505050565b611bbd611583565b600160a060020a031663adb4099f8260405160e060020a63ffffffff84160281526004810191909152602401600060405180830381600087803b1515611c0257600080fd5b6102c65a03f11515611baf57600080fd5b815460018301548254600092600160a060020a0316916353aa3f5e91846040516020015260405160e060020a63ffffffff851602815260048101929092526024820152604401602060405180830381600087803b151561156257600080fd5b6000611c7d83611a3a565b1515611c8c5750611f4e610859565b611c9583611399565b15611ca35750611f4d610859565b811515611cb35750611f55610859565b50600192915050565b600061182f84848461220d565b6000611cd78585858561221a565b95945050505050565b611baf84848484612256565b611cf4611583565b600160a060020a0316636a1b34be84848460405160e060020a63ffffffff8616028152600481019390935260248301919091526044820152606401600060405180830381600087803b15156117af57600080fd5b61181d83838361231e565b611baf848484600160a060020a03851661217b565b611baf84848484612338565b611d7c611583565b600160a060020a031663272eddaa8260405160e060020a63ffffffff84160281526004810191909152602401600060405180830381600087803b1515611c0257600080fd5b60025433600160a060020a0390811691161415610fc45733600160a060020a0316ff5b611dec611583565b600160a060020a031663ee2df7df84848460405160e060020a63ffffffff8616028152600481019390935260248301919091526044820152606401600060405180830381600087803b15156117af57600080fd5b611baf848484846123b2565b611e54611583565b600160a060020a0316632184dacd84848460405160e060020a63ffffffff8616028152600481019390935260248301919091526044820152606401600060405180830381600087803b15156117af57600080fd5b611eb0611583565b600160a060020a0316638d009faf8260405160e060020a63ffffffff84160281526004810191909152602401600060405180830381600087803b1515611c0257600080fd5b825460018401548354600092600160a060020a0316916337d9d7fc9185604051918252602082015260409081019051809103902060006040516020015260405160e060020a63ffffffff851602815260048101929092526024820152604401602060405180830381600087803b1515611f6d57600080fd5b6102c65a03f11515611f7e57600080fd5b505050604051805195945050505050565b81151580611f9b575080155b15611fa557600080fd5b5050565b600061182f8484846124ad565b825460018401548354600092600160a060020a0316916398eaf11c9185604051918252602082015260409081019051809103902060006040516020015260405160e060020a63ffffffff851602815260048101929092526024820152604401602060405180830381600087803b1515611f6d57600080fd5b61181d8383836124c9565b612041611583565b600160a060020a03166301a5c0c58260405160e060020a63ffffffff84160281526004810191909152602401600060405180830381600087803b1515611c0257600080fd5b61208e611583565b600160a060020a0316638d65e2b58260405160e060020a63ffffffff84160281526004810191909152602401600060405180830381600087803b1515611c0257600080fd5b6120db6126cc565b61183283836000805160206128ef8339815191526124e3565b600081602001511580612118575061211684848460600151856040015161221a565b155b1561212557506000611832565b5060019392505050565b600061213c8484846120f4565b151561214757600080fd5b81604001519050612162848484606001518560400151612501565b6040830152600160208301818151039052509392505050565b835460018501548454600160a060020a039092169163a14ff85791908560405191825260208201526040908101905180910390208460405160e060020a63ffffffff8616028152600481019390935260248301919091526044820152606401600060405180830381600087803b15156121f357600080fd5b6102c65a03f1151561220457600080fd5b50505050505050565b600061182f848484612512565b60008115801590611cd757506122358585600301858561258a565b151580611cd757508161224c866002870186611ef5565b1495945050505050565b80151561226257600080fd5b61226e8484848461221a565b1561227857611baf565b61228384848461220d565b1515612298576122988484600101848461217b565b6122a6848460020184611ef5565b156122e5576122c88484600301846122c2888860020188611ef5565b856125af565b6122e5848460040184846122e0898960020189611ef5565b6125af565b6122f68460038501848460006125af565b6123058484600201848461217b565b611baf848484612316838383612512565b6001016125c9565b61181d83836000805160206128ef83398151915284612256565b835460018501548454600160a060020a039092169163f0f53ee491908560405191825260208201526040908101905180910390208460405160e060020a63ffffffff86160281526004810193909352602483019190915215156044820152606401600060405180830381600087803b15156121f357600080fd5b6123be8484848461221a565b15156123c957611baf565b6123f08484600301846123e18888600401888861258a565b6122e08989600301898961258a565b6124178484600401846124088888600301888861258a565b6122e08989600401898961258a565b612425848460010184611ef5565b811415612449576124498484600101846124448888600301888861258a565b61217b565b612457848460020184611ef5565b811415612476576124768484600201846124448888600401888861258a565b61248584846003018484612641565b61249484846004018484612641565b611baf84848460016124a7848484612512565b036125c9565b600061182f84846000805160206128ef8339815191528561221a565b61181d83836000805160206128ef833981519152846123b2565b6124eb6126cc565b61182f8484846124fc838383612512565b612655565b6000611cd78585600301858561258a565b825460018401548354600092600160a060020a0316916353aa3f5e9185604051918252602082015260409081019051809103902060006040516020015260405160e060020a63ffffffff851602815260048101929092526024820152604401602060405180830381600087803b1515611f6d57600080fd5b6000611cd7858585856040519182526020820152604090810190518091039020611ef5565b81156125c2576125c28585858585612675565b5050505050565b835460018501548454600160a060020a03909216916353e7168b91908560405191825260208201526040908101905180910390208460405160e060020a63ffffffff8616028152600481019390935260248301919091526044820152606401600060405180830381600087803b15156121f357600080fd5b8015611baf57611baf848484846000612675565b61265d6126cc565b611cd78361266f878760010187611ef5565b84612699565b6125c28585858560405191825260208201526040908101905180910390208461217b565b6126a16126cc565b6080604051908101604090815283825260208201939093529182019290925260608101929092525090565b60806040519081016040908152600080835260208301819052908201819052606082015290565b8254600160a060020a031916600160a060020a0392909216919091178255600190910155565b611fa58282612779565b611fa58282611a2a565b611fa58282611a2a565b611fa58282611a2a565b611fa58282611a2a565b611fa58282611a2a565b611fa58282611a2a565b611fa58282612719565b611fa58282612719565b611fa582825b6127ba82826040519081527f75696e742f636f756e74000000000000000000000000000000000000000000006020820152602a016040518091039020611a2a565b6127fe82600101826040519081527f75696e742f6669727374000000000000000000000000000000000000000000006020820152602a016040518091039020611a2a565b61284282600201826040519081527f75696e742f6c617374000000000000000000000000000000000000000000000060208201526029016040518091039020611a2a565b61288682600301826040519081527f75696e742f6e657874000000000000000000000000000000000000000000000060208201526029016040518091039020611a2a565b611fa582600401826040519081527f75696e742f70726576000000000000000000000000000000000000000000000060208201526029016040518091039020611a2a565b8154611a369082611f8f565b8154611a369082611f8f565b8154611a369082611f8f56006f7264657265645f736574000000000000000000000000000000000000000000a165627a7a72305820ec08235b6d676ac7fc383aad845e6a07244ed6341ec9e3ef9545714e5a94c2730029",
  "source": "pragma solidity ^0.4.11;\n\nimport \"./Vote.sol\";\nimport \"./PollEmitter.sol\";\nimport {TimeHolderInterface as TimeHolder} from \"../timeholder/TimeHolderInterface.sol\";\n\ncontract PollManager is PollEmitter, Vote {\n    /**\n    * Presents a percent of shares used for limiting votes. 1 unit == 0.01%.\n    * @dev Used because of absence of floating point numbers\n    */\n    StorageInterface.UInt sharesPercent;\n    StorageInterface.UInt pollsIdCounter;\n\n    uint8 constant DEFAULT_SHARES_PERCENT = 1;\n    uint8 constant ACTIVE_POLLS_MAX = 20;\n    uint8 constant OPTIONS_POLLS_MAX = 16;\n    uint8 constant IPFS_HASH_POLLS_MAX = 5;\n\n    function PollManager(Storage _store, bytes32 _crate) Vote(_store, _crate) {\n        sharesPercent.init('sharesPercent');\n    }\n\n    function init(address _contractsManager) onlyContractOwner returns (uint) {\n        uint result = BaseManager.init(_contractsManager, \"PollManager\");\n\n        // do not update default values if reinitialization\n        if (REINITIALIZED != result) {\n            store.set(sharesPercent, DEFAULT_SHARES_PERCENT);\n        }\n\n        pollsIdCounter.init('pollsIdCounter');\n\n        return OK;\n    }\n\n    function getVoteLimit() constant returns (uint) {\n        address timeHolder = lookupManager(\"TimeHolder\");\n        return TimeHolder(timeHolder).totalSupply() / 10000 * store.get(sharesPercent); // @see sharesPercent description\n    }\n\n    function NewPoll(bytes32[16] _options, bytes32[4] _ipfsHashes, bytes32 _detailsIpfsHash, uint _votelimit, uint _deadline) returns (uint errorCode) {\n        if (_detailsIpfsHash == bytes32(0)) {\n            return _emitError(ERROR_VOTE_DETAILS_HASH_INVALID_PARAMETER);\n        }\n\n        if (_votelimit > getVoteLimit()) {\n            return _emitError(ERROR_VOTE_LIMIT_EXCEEDED);\n        }\n\n        if (_deadline < now) {\n            return _emitError(ERROR_VOTE_DEADLINE_INVALID_PARAMETER);\n        }\n\n        uint id = store.get(pollsIdCounter) + 1;\n        store.add(polls, id);\n        store.set(pollsIdCounter, id);\n        store.set(owner, id, msg.sender);\n        store.set(detailsIpfsHash, id, _detailsIpfsHash);\n        store.set(votelimit, id, _votelimit);\n        store.set(deadline, id, _deadline);\n        store.set(status, id, true);\n        store.set(active, id, false);\n        store.set(creationTime, id, now);\n        uint i;\n        for (i = 0; i < _options.length; i++) {\n            if (_options[i] != bytes32(0)) {\n                store.add(optionsId, bytes32(id), _options[i]);\n            }\n        }\n\n        for (i = 0; i < _ipfsHashes.length; i++) {\n            if (_ipfsHashes[i] != bytes32(0)) {\n                store.add(ipfsHashes, bytes32(id), _ipfsHashes[i]);\n            }\n        }\n        _emitPollCreated(id);\n        return OK;\n    }\n\n    function addIpfsHashToPoll(uint _id, bytes32 _hash) onlyCreator(_id) returns (uint errorCode) {\n        if (!isPollExist(_id)) {\n            return _emitError(ERROR_VOTE_POLL_DOES_NOT_EXIST);\n        }\n        if (_hash == bytes32(0)) {\n            return _emitError(ERROR_VOTE_HASH_INVALID_PARAMETER);\n        }\n\n        if (store.count(ipfsHashes, bytes32(_id)) >= IPFS_HASH_POLLS_MAX) {\n            return _emitError(ERROR_VOTE_POLL_LIMIT_REACHED);\n        }\n\n        store.add(ipfsHashes, bytes32(_id), _hash);\n        _emitIpfsHashToPollAdded(_id, _hash, store.count(ipfsHashes, bytes32(_id)));\n        return OK;\n    }\n\n    function setVotesPercent(uint _percent) returns (uint errorCode) {\n        if (!(_percent > 0 && _percent < 10000)) {\n            return _emitError(ERROR_VOTE_SHARES_PERCENT_OUT_OF_RANGE);\n        }\n\n        uint e = multisig();\n        if (OK != e) {\n            return _checkAndEmitError(e);\n        }\n\n        store.set(sharesPercent, _percent);\n        _emitSharesPercentUpdated();\n        return OK;\n    }\n\n    function removePoll(uint _pollId) onlyAuthorized returns (uint errorCode) {\n        if (!isPollExist(_pollId)) {\n            return _emitError(ERROR_VOTE_POLL_DOES_NOT_EXIST);\n        }\n\n        if (!(checkPollIsInactive(_pollId) && store.get(status, _pollId))) {\n            return _emitError(ERROR_VOTE_INVALID_INVOCATION);\n        }\n\n        return deletePoll(_pollId);\n    }\n\n    function cleanInactivePolls() onlyAuthorized returns (uint errorCode) {\n        StorageInterface.Iterator memory iterator = store.listIterator(polls);\n        uint pollId;\n        while(store.canGetNextWithIterator(polls, iterator)) {\n            pollId = store.getNextWithIterator(polls, iterator);\n            if (checkPollIsInactive(pollId)) {\n                deletePoll(pollId);\n            }\n        }\n        return OK;\n    }\n\n    function deletePoll(uint _pollId) internal returns (uint) {\n        store.remove(polls, _pollId);\n        store.set(owner, _pollId, 0x0);\n        store.set(detailsIpfsHash, _pollId, bytes32(0));\n        store.set(votelimit, _pollId, 0);\n        store.set(deadline, _pollId, 0);\n        store.set(creationTime, _pollId, 0);\n\n        _emitPollDeleted(_pollId);\n        return OK;\n    }\n\n    function activatePoll(uint _pollId) returns (uint errorCode) {\n        if (!isPollExist(_pollId)) {\n            return _emitError(ERROR_VOTE_POLL_DOES_NOT_EXIST);\n        }\n\n        if (store.count(optionsId, bytes32(_pollId)) < 2) {\n            return _emitError(ERROR_VOTE_OPTIONS_EMPTY_LIST);\n        }\n\n        uint e = multisig();\n        if (OK != e) {\n            return _checkAndEmitError(e);\n        }\n\n        if ((store.get(activePollsCount) + 1) > ACTIVE_POLLS_MAX) {\n            return _emitError(ERROR_VOTE_ACTIVE_POLL_LIMIT_REACHED);\n        }\n\n        if (!store.get(status, _pollId)) {\n            return _emitError(ERROR_VOTE_UNABLE_TO_ACTIVATE_POLL);\n        }\n\n        store.set(active, _pollId, true);\n        store.set(activePollsCount, store.get(activePollsCount) + 1);\n        _emitPollActivated(_pollId);\n        return OK;\n    }\n\n    function adminEndPoll(uint _pollId) returns (uint errorCode) {\n        if (!isPollExist(_pollId)) {\n            return _emitError(ERROR_VOTE_POLL_DOES_NOT_EXIST);\n        }\n\n        uint e = multisig();\n        if (OK != e) {\n            return _checkAndEmitError(e);\n        }\n\n        uint result = endPoll(_pollId);\n        return _checkAndEmitError(result);\n    }\n\n    function updatePollDetailsIpfsHash(uint _pollId, bytes32 _detailsIpfsHash) onlyCreator(_pollId) returns (uint errorCode) {\n        if (!isPollExist(_pollId)) {\n            return _emitError(ERROR_VOTE_POLL_DOES_NOT_EXIST);\n        }\n\n        if (checkPollIsActive(_pollId)) {\n            return _emitError(ERROR_VOTE_POLL_SHOULD_BE_INACTIVE);\n        }\n\n        if (_detailsIpfsHash == bytes32(0)) {\n            return _emitError(ERROR_VOTE_DETAILS_HASH_INVALID_PARAMETER);\n        }\n\n        if (store.get(detailsIpfsHash, _pollId) != _detailsIpfsHash) {\n            store.set(detailsIpfsHash, _pollId, _detailsIpfsHash);\n        }\n\n        _emitPollDetailsUpdated(_pollId);\n        return OK;\n    }\n\n    function addPollOption(uint _pollId, bytes32 _option) onlyCreator(_pollId) returns (uint errorCode) {\n        errorCode = _checkUpdatablePollOption(_pollId, _option);\n        if (errorCode != OK) {\n            return _emitError(errorCode);\n        }\n\n        if (store.count(optionsId, bytes32(_pollId)) >= OPTIONS_POLLS_MAX) {\n            return _emitError(ERROR_VOTE_OPTIONS_LIMIT_REACHED);\n        }\n\n        if (store.includes(optionsId, bytes32(_pollId), _option)) {\n            return _emitError(ERROR_VOTE_INVALID_PARAMETER);\n        }\n\n        store.add(optionsId, bytes32(_pollId), _option);\n        _emitOptionAdded(_pollId, _option, store.count(optionsId, bytes32(_pollId)));\n        return OK;\n    }\n\n    function removePollOption(uint _pollId, bytes32 _option) onlyCreator(_pollId) returns (uint errorCode) {\n        errorCode = _checkUpdatablePollOption(_pollId, _option);\n        if (errorCode != OK) {\n            return _emitError(errorCode);\n        }\n\n        if (!store.includes(optionsId, bytes32(_pollId), _option)) {\n            return _emitError(ERROR_VOTE_OPTION_INVALID_PARAMETER);\n        }\n\n        store.remove(optionsId, bytes32(_pollId), _option);\n        _emitOptionRemoved(_pollId, _option, store.count(optionsId, bytes32(_pollId)));\n        return OK;\n    }\n\n    function _checkUpdatablePollOption(uint _pollId, bytes32 _option) private constant returns (uint errorCode) {\n        if (!isPollExist(_pollId)) {\n            return ERROR_VOTE_POLL_DOES_NOT_EXIST;\n        }\n\n        if (checkPollIsActive(_pollId)) {\n            return ERROR_VOTE_POLL_SHOULD_BE_INACTIVE;\n        }\n\n        if (_option == bytes32(0)) {\n            return ERROR_VOTE_OPTION_INVALID_PARAMETER;\n        }\n\n        return OK;\n    }\n\n    function _emitError(uint error) internal returns (uint) {\n        PollManager(getEventsHistory()).emitError(error );\n        return error;\n    }\n\n    function _checkAndEmitError(uint error) internal returns (uint) {\n        if (error != OK && error != MULTISIG_ADDED) {\n            return _emitError(error);\n        }\n\n        return error;\n    }\n\n    function _emitSharesPercentUpdated() internal {\n        PollManager(getEventsHistory()).emitSharesPercentUpdated();\n    }\n\n    function _emitPollCreated(uint pollId) internal {\n        PollManager(getEventsHistory()).emitPollCreated(pollId);\n    }\n\n    function _emitPollDeleted(uint pollId) internal {\n        PollManager(getEventsHistory()).emitPollDeleted(pollId);\n    }\n\n    function _emitPollEnded(uint pollId) internal {\n        PollManager(getEventsHistory()).emitPollEnded(pollId);\n    }\n\n    function _emitPollActivated(uint pollId) internal {\n        PollManager(getEventsHistory()).emitPollActivated(pollId);\n    }\n\n    function _emitIpfsHashToPollAdded(uint id, bytes32 hash, uint count) internal {\n        PollManager(getEventsHistory()).emitIpfsHashToPollAdded(id, hash, count);\n    }\n\n    function _emitOptionAdded(uint pollId, bytes32 option, uint count) internal {\n        PollManager(getEventsHistory()).emitOptionAdded(pollId, option, count);\n    }\n\n    function _emitOptionRemoved(uint pollId, bytes32 option, uint count) internal {\n        PollManager(getEventsHistory()).emitOptionRemoved(pollId, option, count);\n    }\n\n    function _emitPollDetailsUpdated(uint pollId) internal {\n        PollManager(getEventsHistory()).emitPollDetailsUpdated(pollId);\n    }\n}\n",
  "sourcePath": "/Users/mikefluff/Documents/Programming/Chronobank/test/SmartContracts/contracts/vote/PollManager.sol",
  "compiler": {
    "name": "solc",
    "version": "0.4.18+commit.9cf6e910.Emscripten.clang"
  },
  "schemaVersion": "1.0.1",
  "updatedAt": "2018-01-12T11:40:45.542Z"
}