{
  "contractName": "PollDetails",
  "abi": [
    {
      "constant": true,
      "inputs": [],
      "name": "getInactivePollsCount",
      "outputs": [
        {
          "name": "result",
          "type": "uint256"
        }
      ],
      "payable": false,
      "stateMutability": "view",
      "type": "function"
    },
    {
      "constant": true,
      "inputs": [
        {
          "name": "_id",
          "type": "uint256"
        }
      ],
      "name": "isPollOwner",
      "outputs": [
        {
          "name": "",
          "type": "bool"
        }
      ],
      "payable": false,
      "stateMutability": "view",
      "type": "function"
    },
    {
      "constant": true,
      "inputs": [
        {
          "name": "_id",
          "type": "uint256"
        }
      ],
      "name": "getOptionsVotesForPoll",
      "outputs": [
        {
          "name": "result",
          "type": "uint256[]"
        }
      ],
      "payable": false,
      "stateMutability": "view",
      "type": "function"
    },
    {
      "constant": true,
      "inputs": [],
      "name": "pollsCount",
      "outputs": [
        {
          "name": "",
          "type": "uint256"
        }
      ],
      "payable": false,
      "stateMutability": "view",
      "type": "function"
    },
    {
      "constant": false,
      "inputs": [
        {
          "name": "_contractsManager",
          "type": "address"
        }
      ],
      "name": "init",
      "outputs": [
        {
          "name": "",
          "type": "uint256"
        }
      ],
      "payable": false,
      "stateMutability": "nonpayable",
      "type": "function"
    },
    {
      "constant": true,
      "inputs": [
        {
          "name": "_pollId",
          "type": "uint256"
        }
      ],
      "name": "getPoll",
      "outputs": [
        {
          "name": "_id",
          "type": "uint256"
        },
        {
          "name": "_owner",
          "type": "address"
        },
        {
          "name": "_detailsIpfsHash",
          "type": "bytes32"
        },
        {
          "name": "_votelimit",
          "type": "uint256"
        },
        {
          "name": "_deadline",
          "type": "uint256"
        },
        {
          "name": "_status",
          "type": "bool"
        },
        {
          "name": "_active",
          "type": "bool"
        },
        {
          "name": "_creationTime",
          "type": "uint256"
        },
        {
          "name": "_options",
          "type": "bytes32[]"
        },
        {
          "name": "_hashes",
          "type": "bytes32[]"
        }
      ],
      "payable": false,
      "stateMutability": "view",
      "type": "function"
    },
    {
      "constant": true,
      "inputs": [],
      "name": "getMemberPolls",
      "outputs": [
        {
          "name": "result",
          "type": "uint256[]"
        }
      ],
      "payable": false,
      "stateMutability": "view",
      "type": "function"
    },
    {
      "constant": true,
      "inputs": [
        {
          "name": "_id",
          "type": "uint256"
        }
      ],
      "name": "getMemberVotesForPoll",
      "outputs": [
        {
          "name": "result",
          "type": "uint256"
        }
      ],
      "payable": false,
      "stateMutability": "view",
      "type": "function"
    },
    {
      "constant": true,
      "inputs": [],
      "name": "getPollsDetailsIpfsHashes",
      "outputs": [
        {
          "name": "result",
          "type": "bytes32[]"
        }
      ],
      "payable": false,
      "stateMutability": "view",
      "type": "function"
    },
    {
      "constant": false,
      "inputs": [],
      "name": "claimContractOwnership",
      "outputs": [
        {
          "name": "",
          "type": "bool"
        }
      ],
      "payable": false,
      "stateMutability": "nonpayable",
      "type": "function"
    },
    {
      "constant": true,
      "inputs": [
        {
          "name": "_identifier",
          "type": "bytes32"
        }
      ],
      "name": "lookupManager",
      "outputs": [
        {
          "name": "manager",
          "type": "address"
        }
      ],
      "payable": false,
      "stateMutability": "view",
      "type": "function"
    },
    {
      "constant": true,
      "inputs": [],
      "name": "contractsManager",
      "outputs": [
        {
          "name": "",
          "type": "address"
        }
      ],
      "payable": false,
      "stateMutability": "view",
      "type": "function"
    },
    {
      "constant": false,
      "inputs": [
        {
          "name": "_to",
          "type": "address"
        }
      ],
      "name": "changeContractOwnership",
      "outputs": [
        {
          "name": "",
          "type": "bool"
        }
      ],
      "payable": false,
      "stateMutability": "nonpayable",
      "type": "function"
    },
    {
      "constant": true,
      "inputs": [],
      "name": "pendingContractOwner",
      "outputs": [
        {
          "name": "",
          "type": "address"
        }
      ],
      "payable": false,
      "stateMutability": "view",
      "type": "function"
    },
    {
      "constant": true,
      "inputs": [],
      "name": "getActivePolls",
      "outputs": [
        {
          "name": "result",
          "type": "uint256[]"
        }
      ],
      "payable": false,
      "stateMutability": "view",
      "type": "function"
    },
    {
      "constant": false,
      "inputs": [
        {
          "name": "_eventsHistory",
          "type": "address"
        }
      ],
      "name": "setEventsHistory",
      "outputs": [],
      "payable": false,
      "stateMutability": "nonpayable",
      "type": "function"
    },
    {
      "constant": false,
      "inputs": [
        {
          "name": "_contractsManager",
          "type": "address"
        }
      ],
      "name": "setContractsManager",
      "outputs": [],
      "payable": false,
      "stateMutability": "nonpayable",
      "type": "function"
    },
    {
      "constant": false,
      "inputs": [],
      "name": "destroy",
      "outputs": [],
      "payable": false,
      "stateMutability": "nonpayable",
      "type": "function"
    },
    {
      "constant": false,
      "inputs": [
        {
          "name": "pollId",
          "type": "uint256"
        }
      ],
      "name": "emitPollEnded",
      "outputs": [],
      "payable": false,
      "stateMutability": "nonpayable",
      "type": "function"
    },
    {
      "constant": true,
      "inputs": [
        {
          "name": "_id",
          "type": "uint256"
        }
      ],
      "name": "getOptionsVotesStatisticForPoll",
      "outputs": [
        {
          "name": "result",
          "type": "uint256[]"
        }
      ],
      "payable": false,
      "stateMutability": "view",
      "type": "function"
    },
    {
      "constant": true,
      "inputs": [
        {
          "name": "_id",
          "type": "uint256"
        }
      ],
      "name": "getIpfsHashesFromPoll",
      "outputs": [
        {
          "name": "result",
          "type": "bytes32[]"
        }
      ],
      "payable": false,
      "stateMutability": "view",
      "type": "function"
    },
    {
      "constant": true,
      "inputs": [
        {
          "name": "_id",
          "type": "uint256"
        }
      ],
      "name": "getOptionsForPoll",
      "outputs": [
        {
          "name": "result",
          "type": "bytes32[]"
        }
      ],
      "payable": false,
      "stateMutability": "view",
      "type": "function"
    },
    {
      "constant": false,
      "inputs": [
        {
          "name": "_to",
          "type": "address"
        }
      ],
      "name": "transferContractOwnership",
      "outputs": [
        {
          "name": "",
          "type": "bool"
        }
      ],
      "payable": false,
      "stateMutability": "nonpayable",
      "type": "function"
    },
    {
      "constant": true,
      "inputs": [],
      "name": "getActivePollsCount",
      "outputs": [
        {
          "name": "result",
          "type": "uint256"
        }
      ],
      "payable": false,
      "stateMutability": "view",
      "type": "function"
    },
    {
      "constant": true,
      "inputs": [],
      "name": "getInactivePolls",
      "outputs": [
        {
          "name": "result",
          "type": "uint256[]"
        }
      ],
      "payable": false,
      "stateMutability": "view",
      "type": "function"
    },
    {
      "constant": true,
      "inputs": [],
      "name": "contractOwner",
      "outputs": [
        {
          "name": "",
          "type": "address"
        }
      ],
      "payable": false,
      "stateMutability": "view",
      "type": "function"
    },
    {
      "constant": false,
      "inputs": [
        {
          "name": "tokens",
          "type": "address[]"
        },
        {
          "name": "_to",
          "type": "address"
        }
      ],
      "name": "withdrawnTokens",
      "outputs": [
        {
          "name": "",
          "type": "uint256"
        }
      ],
      "payable": false,
      "stateMutability": "nonpayable",
      "type": "function"
    },
    {
      "constant": true,
      "inputs": [
        {
          "name": "_pollId",
          "type": "uint256"
        }
      ],
      "name": "checkPollIsActive",
      "outputs": [
        {
          "name": "",
          "type": "bool"
        }
      ],
      "payable": false,
      "stateMutability": "view",
      "type": "function"
    },
    {
      "constant": true,
      "inputs": [
        {
          "name": "key",
          "type": "address"
        }
      ],
      "name": "isAuthorized",
      "outputs": [
        {
          "name": "",
          "type": "bool"
        }
      ],
      "payable": false,
      "stateMutability": "view",
      "type": "function"
    },
    {
      "constant": true,
      "inputs": [],
      "name": "getEventsHistory",
      "outputs": [
        {
          "name": "",
          "type": "address"
        }
      ],
      "payable": false,
      "stateMutability": "view",
      "type": "function"
    },
    {
      "inputs": [
        {
          "name": "_store",
          "type": "address"
        },
        {
          "name": "_crate",
          "type": "bytes32"
        }
      ],
      "payable": false,
      "stateMutability": "nonpayable",
      "type": "constructor"
    },
    {
      "payable": false,
      "stateMutability": "nonpayable",
      "type": "fallback"
    },
    {
      "anonymous": false,
      "inputs": [
        {
          "indexed": false,
          "name": "pollId",
          "type": "uint256"
        }
      ],
      "name": "PollCreated",
      "type": "event"
    },
    {
      "anonymous": false,
      "inputs": [
        {
          "indexed": false,
          "name": "pollId",
          "type": "uint256"
        }
      ],
      "name": "PollDeleted",
      "type": "event"
    },
    {
      "anonymous": false,
      "inputs": [
        {
          "indexed": false,
          "name": "pollId",
          "type": "uint256"
        }
      ],
      "name": "PollEnded",
      "type": "event"
    },
    {
      "anonymous": false,
      "inputs": [
        {
          "indexed": false,
          "name": "pollId",
          "type": "uint256"
        }
      ],
      "name": "PollActivated",
      "type": "event"
    },
    {
      "anonymous": false,
      "inputs": [
        {
          "indexed": false,
          "name": "choice",
          "type": "uint256"
        },
        {
          "indexed": false,
          "name": "pollId",
          "type": "uint256"
        }
      ],
      "name": "VoteCreated",
      "type": "event"
    },
    {
      "anonymous": false,
      "inputs": [
        {
          "indexed": true,
          "name": "self",
          "type": "address"
        }
      ],
      "name": "SharesPercentUpdated",
      "type": "event"
    },
    {
      "anonymous": false,
      "inputs": [
        {
          "indexed": true,
          "name": "id",
          "type": "uint256"
        },
        {
          "indexed": false,
          "name": "hash",
          "type": "bytes32"
        },
        {
          "indexed": false,
          "name": "count",
          "type": "uint256"
        }
      ],
      "name": "IpfsHashToPollAdded",
      "type": "event"
    },
    {
      "anonymous": false,
      "inputs": [
        {
          "indexed": true,
          "name": "id",
          "type": "uint256"
        },
        {
          "indexed": false,
          "name": "option",
          "type": "bytes32"
        },
        {
          "indexed": false,
          "name": "count",
          "type": "uint256"
        }
      ],
      "name": "OptionAdded",
      "type": "event"
    },
    {
      "anonymous": false,
      "inputs": [
        {
          "indexed": true,
          "name": "id",
          "type": "uint256"
        },
        {
          "indexed": false,
          "name": "option",
          "type": "bytes32"
        },
        {
          "indexed": false,
          "name": "count",
          "type": "uint256"
        }
      ],
      "name": "OptionRemoved",
      "type": "event"
    },
    {
      "anonymous": false,
      "inputs": [
        {
          "indexed": true,
          "name": "id",
          "type": "uint256"
        }
      ],
      "name": "PollDetailsUpdated",
      "type": "event"
    },
    {
      "anonymous": false,
      "inputs": [
        {
          "indexed": true,
          "name": "self",
          "type": "address"
        },
        {
          "indexed": false,
          "name": "errorCode",
          "type": "uint256"
        }
      ],
      "name": "Error",
      "type": "event"
    }
  ],
  "bytecode": "0x606060405234156200001057600080fd5b604051604080620023638339810160405280805191906020018051915082905081818181818181620000536000838364010000000062001a0d6200048282021704565b505060028054600160a060020a03338116600160a060020a03199283161790925560058054309093169290911691909117905550620000c89250600691507f616374697665506f6c6c73436f756e7400000000000000000000000000000000905064010000000062001a33620004a882021704565b6200010360077f706f6c6c7300000000000000000000000000000000000000000000000000000064010000000062001a43620004c882021704565b6200013e600c7f6f776e657200000000000000000000000000000000000000000000000000000064010000000062001a51620004e682021704565b62000179600d7f64657461696c734970667348617368000000000000000000000000000000000064010000000062001a51620004e682021704565b620001b4600e7f766f74656c696d6974000000000000000000000000000000000000000000000064010000000062001a51620004e682021704565b620001ef600f7f646561646c696e6500000000000000000000000000000000000000000000000064010000000062001a51620004e682021704565b6200022a60107f737461747573000000000000000000000000000000000000000000000000000064010000000062001a51620004e682021704565b6200026560117f616374697665000000000000000000000000000000000000000000000000000064010000000062001a51620004e682021704565b620002a060137f6d656d6265724f7074696f6e000000000000000000000000000000000000000064010000000062001a51620004e682021704565b620002db60147f6d656d626572566f74657300000000000000000000000000000000000000000064010000000062001a51620004e682021704565b6200031660157f6f7074696f6e730000000000000000000000000000000000000000000000000064010000000062001a51620004e682021704565b6200035160167f6f7074696f6e735374617473000000000000000000000000000000000000000064010000000062001a51620004e682021704565b6200038c60177f6d656d626572730000000000000000000000000000000000000000000000000064010000000062001a8d6200050082021704565b620003c7601c7f6d656d626572506f6c6c7300000000000000000000000000000000000000000064010000000062001a8d6200050082021704565b6200040260217f697066734861736865730000000000000000000000000000000000000000000064010000000062001a43620004c882021704565b6200043d60267f6f7074696f6e734964000000000000000000000000000000000000000000000064010000000062001a43620004c882021704565b6200047860127f6372656174696f6e54696d65000000000000000000000000000000000000000064010000000062001a51620004e682021704565b50505050620006f1565b8254600160a060020a031916600160a060020a0392909216919091178255600190910155565b8154620004c4908264010000000062001aab6200051a82021704565b9055565b620004e2828264010000000062001ac16200053282021704565b5050565b620004e2828264010000000062001a33620004a882021704565b620004e2828264010000000062001a43620004c882021704565b8115158062000527575080155b15620004e257600080fd5b6200058982826040519081527f75696e742f636f756e74000000000000000000000000000000000000000000006020820152602a016040518091039020620004a86401000000000262001a33176401000000009004565b620005e382600101826040519081527f75696e742f6669727374000000000000000000000000000000000000000000006020820152602a016040518091039020620004a86401000000000262001a33176401000000009004565b6200063d82600201826040519081527f75696e742f6c617374000000000000000000000000000000000000000000000060208201526029016040518091039020620004a86401000000000262001a33176401000000009004565b6200069782600301826040519081527f75696e742f6e657874000000000000000000000000000000000000000000000060208201526029016040518091039020620004a86401000000000262001a33176401000000009004565b620004e282600401826040519081527f75696e742f70726576000000000000000000000000000000000000000000000060208201526029016040518091039020620004a86401000000000262001a33176401000000009004565b611c6280620007016000396000f3006060604052600436106101665763ffffffff60e060020a600035041663125191a0811461017657806315601a211461019b57806315cc97de146101c5578063179d760d1461022e57806319ab453c146102415780631a8cbcaa146102605780631fac0b7b1461035b5780632ab398101461036e57806343e56634146103845780634592cd1d146103975780634fe59012146103aa57806353253d31146103dc578063557f4bc9146103ef5780635aa77d3c1461040e57806363a9492f146104215780636521afd71461043457806371d3b5731461045557806383197ef0146104745780638d65e2b5146104875780639b6024091461049d5780639d51b906146104b3578063a6482e79146104c9578063a843c51f146104df578063a9581703146104fe578063cd60233214610511578063ce606ee014610524578063d8f9659b14610537578063eaffbbb614610591578063fe9fbb80146105a7578063fff10aba146105c6575b341561017157600080fd5b600080fd5b341561018157600080fd5b6101896105d9565b60405190815260200160405180910390f35b34156101a657600080fd5b6101b16004356105fc565b604051901515815260200160405180910390f35b34156101d057600080fd5b6101db60043561062c565b60405160208082528190810183818151815260200191508051906020019060200280838360005b8381101561021a578082015183820152602001610202565b505050509050019250505060405180910390f35b341561023957600080fd5b6101896106ca565b341561024c57600080fd5b610189600160a060020a03600435166106e2565b341561026b57600080fd5b61027660043561072c565b6040518a8152600160a060020a038a16602082015260408101899052606081018890526080810187905285151560a082015284151560c082015260e08101849052610140610100820181815290610120830190830185818151815260200191508051906020019060200280838360005b838110156102fe5780820151838201526020016102e6565b50505050905001838103825284818151815260200191508051906020019060200280838360005b8381101561033d578082015183820152602001610325565b505050509050019c5050505050505050505050505060405180910390f35b341561036657600080fd5b6101db610923565b341561037957600080fd5b6101896004356109ce565b341561038f57600080fd5b6101db6109f8565b34156103a257600080fd5b6101b1610aa8565b34156103b557600080fd5b6103c0600435610af4565b604051600160a060020a03909116815260200160405180910390f35b34156103e757600080fd5b6103c0610b78565b34156103fa57600080fd5b6101b1600160a060020a0360043516610b87565b341561041957600080fd5b6103c0610bde565b341561042c57600080fd5b6101db610bed565b341561043f57600080fd5b610453600160a060020a0360043516610c08565b005b341561046057600080fd5b610453600160a060020a0360043516610c3e565b341561047f57600080fd5b610453610c75565b341561049257600080fd5b610453600435610d0b565b34156104a857600080fd5b6101db600435610d41565b34156104be57600080fd5b6101db600435610dd8565b34156104d457600080fd5b6101db600435610e8a565b34156104ea57600080fd5b6101b1600160a060020a0360043516610f3c565b341561050957600080fd5b610189610fb5565b341561051c57600080fd5b6101db611028565b341561052f57600080fd5b6103c061103e565b341561054257600080fd5b610189600460248135818101908301358060208181020160405190810160405280939291908181526020018383602002808284375094965050509235600160a060020a0316925061104d915050565b341561059c57600080fd5b6101b160043561119e565b34156105b257600080fd5b6101b1600160a060020a03600435166111b2565b34156105d157600080fd5b6103c0611258565b60006105e3610fb5565b6105f56000600763ffffffff61126716565b0390505b90565b6000600160a060020a03331661061a82600c8563ffffffff61127a16565b600160a060020a03161490505b919050565b6106346119d4565b6000806106408461128f565b151561064b576106c3565b61065e600060268663ffffffff6112a316565b91508160405180591061066e5750595b90808252806020026020018201604052509250600090505b818110156106c3576106a560006015866001850163ffffffff6112b016565b8382815181106106b157fe5b60209081029091010152600101610686565b5050919050565b60006106dd81600763ffffffff61126716565b905090565b60025460009033600160a060020a039081169116141561062757610726827f506f6c6c44657461696c730000000000000000000000000000000000000000006112c7565b92915050565b6000806000806000806000806107406119d4565b6107486119d4565b6107506119e6565b600061075b8d61128f565b151561076657610914565b8c9b5061077c6000600c8e63ffffffff61127a16565b9a506107916000600d8f63ffffffff61127a16565b99506107a66000600e8f63ffffffff61127a16565b98506107bb6000600f8f63ffffffff61127a16565b97506107d0600060108f63ffffffff6114b816565b96506107e5600060118f63ffffffff6114b816565b95506107fa600060128f63ffffffff61127a16565b945061080f600060268f63ffffffff6114c516565b915061081a826114d8565b6040518059106108275750595b90808252806020026020018201604052509350600090505b610852600060268463ffffffff6114e516565b156108885761086a600060268463ffffffff6114f216565b84828151811061087657fe5b6020908102909101015260010161083f565b61089b600060218f63ffffffff6114c516565b91506108a6826114d8565b6040518059106108b35750595b90808252806020026020018201604052509250600090505b6108de600060218463ffffffff6114e516565b15610914576108f6600060218463ffffffff6114f216565b83828151811061090257fe5b602090810290910101526001016108cb565b50509193959799509193959799565b61092b6119d4565b6109336119e6565b600061095081601c600160a060020a03331663ffffffff6114ff16565b915061095b826114d8565b6040518059106109685750595b90808252806020026020018201604052509250600090505b6109936000601c8463ffffffff61151216565b156109c9576109ab6000601c8463ffffffff61151f16565b8382815181106109b757fe5b60209081029091010152600101610980565b505090565b60006109d98261128f565b15156109e457610627565b61072660006013843363ffffffff61152c16565b610a006119d4565b610a086119e6565b6000610a1b81600763ffffffff61154316565b9150610a26826114d8565b604051805910610a335750595b90808252806020026020018201604052509250600090505b610a5e600060078463ffffffff6114e516565b156109c957610a8a600d610a7b600060078663ffffffff6114f216565b6000919063ffffffff61127a16565b838281518110610a9657fe5b60209081029091010152600101610a4b565b60035460009033600160a060020a03908116911614610ac9575060006105f9565b506003805460028054600160a060020a0319908116600160a060020a03841617909155169055600190565b600454600090600160a060020a031663bc65792783836040516020015260405160e060020a63ffffffff84160281526004810191909152602401602060405180830381600087803b1515610b4757600080fd5b6102c65a03f11515610b5857600080fd5b5050506040518051915050600160a060020a038116151561062757600080fd5b600454600160a060020a031681565b60025460009033600160a060020a039081169116141561062757600160a060020a0382161515610bb957506000610627565b5060038054600160a060020a038316600160a060020a03199091161790556001919050565b600354600160a060020a031681565b610bf56119d4565b6106dd61119e610c03610fb5565b611555565b60025433600160a060020a0390811691161415610c3b5760058054600160a060020a031916600160a060020a0383161790555b50565b60025433600160a060020a0390811691161415610c3b5760048054600160a060020a038316600160a060020a031990911617905550565b60025433600160a060020a0390811691161415610d0957600454600160a060020a031663c375c2ef3060006040516020015260405160e060020a63ffffffff8416028152600160a060020a039091166004820152602401602060405180830381600087803b1515610ce557600080fd5b6102c65a03f11515610cf657600080fd5b5050506040518051905050610d09611603565b565b7f14d4cfc1c2a6f37c8f97ad80fc12bd9d943ea6d4dd7684137850125597ce9bf78160405190815260200160405180910390a150565b610d496119d4565b600080610d558461128f565b1515610d60576106c3565b610d73600060268663ffffffff6112a316565b915081604051805910610d835750595b90808252806020026020018201604052509250600090505b818110156106c357610dba60006016866001850163ffffffff6112b016565b838281518110610dc657fe5b60209081029091010152600101610d9b565b610de06119d4565b610de86119e6565b6000610df38461128f565b1515610dfe576106c3565b610e11600060218663ffffffff6114c516565b9150610e1c826114d8565b604051805910610e295750595b90808252806020026020018201604052509250600090505b610e54600060218463ffffffff6114e516565b156106c357610e6c600060218463ffffffff6114f216565b838281518110610e7857fe5b60209081029091010152600101610e41565b610e926119d4565b610e9a6119e6565b6000610ea58461128f565b1515610eb0576106c3565b610ec3600060268663ffffffff6114c516565b9150610ece826114d8565b604051805910610edb5750595b90808252806020026020018201604052509250600090505b610f06600060268463ffffffff6114e516565b156106c357610f1e600060268463ffffffff6114f216565b838281518110610f2a57fe5b60209081029091010152600101610ef3565b60025460009033600160a060020a039081169116141561062757600160a060020a0382161515610f6e57506000610627565b600354600160a060020a031615610f905760038054600160a060020a03191690555b5060028054600160a060020a038316600160a060020a03199091161790556001919050565b6000610fbf6119e6565b610fd16000600763ffffffff61154316565b90505b610fe7600060078363ffffffff6114e516565b15611024576110136011611004600060078563ffffffff6114f216565b6000919063ffffffff6114b816565b1561101f578160010191505b610fd4565b5090565b6110306119d4565b6106dd611626610c036105d9565b600254600160a060020a031681565b60025460009081908190819033600160a060020a039081169116141561119557600092505b85518310156111905785838151811061108757fe5b90602001906020020151915081600160a060020a03166370a082313060006040516020015260405160e060020a63ffffffff8416028152600160a060020a039091166004820152602401602060405180830381600087803b15156110ea57600080fd5b6102c65a03f115156110fb57600080fd5b505050604051805191505080156111855781600160a060020a031663a9059cbb868360006040516020015260405160e060020a63ffffffff8516028152600160a060020a0390921660048301526024820152604401602060405180830381600087803b151561116957600080fd5b6102c65a03f1151561117a57600080fd5b505050604051805150505b600190920191611072565b600193505b50505092915050565b60006107268160118463ffffffff6114b816565b6000806111de7f557365724d616e61676572000000000000000000000000000000000000000000610af4565b905080600160a060020a0316632aa09e5a8460006040516020015260405160e060020a63ffffffff8416028152600160a060020a039091166004820152602401602060405180830381600087803b151561123757600080fd5b6102c65a03f1151561124857600080fd5b5050506040518051949350505050565b600554600160a060020a031690565b60006112738383611638565b9392505050565b6000611287848484611665565b949350505050565b60006107268160078463ffffffff6116ff16565b600061128784848461170c565b60006112be85858585611719565b95945050505050565b60025460009081908190819033600160a060020a039081169116146112eb57600080fd5b600160a060020a038616151561130057600080fd5b600454600160a060020a031615801593508061132a5750600454600160a060020a03878116911614155b1561134b5760048054600160a060020a031916600160a060020a0388161790555b600454600160a060020a031691508163bc65792760006040516020015260405160e060020a63ffffffff83160281527f4d756c74694576656e7473486973746f727900000000000000000000000000006004820152602401602060405180830381600087803b15156113bc57600080fd5b6102c65a03f115156113cd57600080fd5b5050506040518051915050600160a060020a038116158015906113fe5750600554600160a060020a03828116911614155b1561141f5760058054600160a060020a031916600160a060020a0383161790555b84156114a65781600160a060020a031663b7c46cd5308760006040516020015260405160e060020a63ffffffff8516028152600160a060020a0390921660048301526024820152604401602060405180830381600087803b151561148257600080fd5b6102c65a03f1151561149357600080fd5b505050604051805160011490506114a657fe5b82156111905760069695505050505050565b600061128784848461173e565b6114cd6119e6565b6112878484846117b6565b6000816020015192915050565b60006112878484846117d4565b600061128784848461180f565b6115076119e6565b6112878484846114c5565b60006112878484846114e5565b60006112878484846114f2565b60006112be858585600160a060020a038616611719565b61154b6119e6565b611273838361185b565b61155d6119d4565b6115656119e6565b60008061157981600763ffffffff61154316565b9250846040518059106115895750595b90808252806020026020018201604052509350600090505b6115b4600060078563ffffffff6114e516565b15611195576115cc600060078563ffffffff6114f216565b91506115db828763ffffffff16565b156115fe57818482806001019350815181106115f357fe5b602090810290910101525b6115a1565b60025433600160a060020a0390811691161415610d095733600160a060020a0316ff5b60006116318261119e565b1592915050565b600061127383837f6f7264657265645f73657400000000000000000000000000000000000000000061170c565b825460018401548354600092600160a060020a0316916337d9d7fc9185604051918252602082015260409081019051809103902060006040516020015260405160e060020a63ffffffff851602815260048101929092526024820152604401602060405180830381600087803b15156116dd57600080fd5b6102c65a03f115156116ee57600080fd5b505050604051805195945050505050565b600061128784848461188e565b60006112878484846118bc565b60006112be858585856040519182526020820152604090810190518091039020611665565b825460018401548354600092600160a060020a0316916398eaf11c9185604051918252602082015260409081019051809103902060006040516020015260405160e060020a63ffffffff851602815260048101929092526024820152604401602060405180830381600087803b15156116dd57600080fd5b6117be6119e6565b6112878484846117cf8383836118bc565b611934565b6000816020015115806117f857506117f6848484606001518560400151611954565b155b1561180557506000611273565b5060019392505050565b600061181c8484846117d4565b151561182757600080fd5b81604001519050611842848484606001518560400151611990565b6040830152600160208301818151039052509392505050565b6118636119e6565b61127383837f6f7264657265645f7365740000000000000000000000000000000000000000006117b6565b600061128784847f6f7264657265645f73657400000000000000000000000000000000000000000085611954565b825460018401548354600092600160a060020a0316916353aa3f5e9185604051918252602082015260409081019051809103902060006040516020015260405160e060020a63ffffffff851602815260048101929092526024820152604401602060405180830381600087803b15156116dd57600080fd5b61193c6119e6565b6112be8361194e878760010187611665565b846119a1565b600081158015906112be575061196f85856003018585611719565b1515806112be575081611986866002870186611665565b1495945050505050565b60006112be85856003018585611719565b6119a96119e6565b6080604051908101604090815283825260208201939093529182019290925260608101929092525090565b60206040519081016040526000815290565b60806040519081016040908152600080835260208301819052908201819052606082015290565b8254600160a060020a031916600160a060020a0392909216919091178255600190910155565b8154611a3f9082611aab565b9055565b611a4d8282611ac1565b5050565b611a4d8282611a33565b611a4d8282611a33565b611a4d8282611a33565b611a4d8282611a33565b611a4d8282611a33565b611a4d8282611a33565b611a4d8282611a43565b611a4d8282611a43565b611a4d8282611ac1565b81151580611ab7575080155b15611a4d57600080fd5b611b0282826040519081527f75696e742f636f756e74000000000000000000000000000000000000000000006020820152602a016040518091039020611a33565b611b4682600101826040519081527f75696e742f6669727374000000000000000000000000000000000000000000006020820152602a016040518091039020611a33565b611b8a82600201826040519081527f75696e742f6c617374000000000000000000000000000000000000000000000060208201526029016040518091039020611a33565b611bce82600301826040519081527f75696e742f6e657874000000000000000000000000000000000000000000000060208201526029016040518091039020611a33565b611a4d82600401826040519081527f75696e742f70726576000000000000000000000000000000000000000000000060208201526029016040518091039020611a33565b8154611a3f9082611aab565b8154611a3f9082611aab565b8154611a3f9082611aab5600a165627a7a723058207ac876952fd7a3973a2a35cf391016f7e853d1afdb64e0bd9964895fb80ffa600029",
  "source": "pragma solidity ^0.4.11;\n\nimport \"./Vote.sol\";\n\ncontract PollDetails is Vote {\n    modifier onlyExistedPoll(uint _id) {\n        if (store.includes(polls, _id)) {\n            _;\n        }\n    }\n\n    function PollDetails(Storage _store, bytes32 _crate) Vote(_store, _crate) {\n    }\n\n    function init(address _contractsManager) onlyContractOwner returns (uint) {\n        return BaseManager.init(_contractsManager, \"PollDetails\");\n    }\n\n    function pollsCount() constant returns (uint) {\n        return store.count(polls);\n    }\n\n    function getActivePolls() constant returns (uint[] result) {\n        result = filteredPolls(checkPollIsActive, getActivePollsCount());\n    }\n\n    function getActivePollsCount() constant returns (uint result) {\n        StorageInterface.Iterator memory iterator = store.listIterator(polls);\n        while (store.canGetNextWithIterator(polls, iterator)) {\n            if (store.get(active, store.getNextWithIterator(polls, iterator))) {\n                ++result;\n            }\n        }\n    }\n\n    function getInactivePollsCount() constant returns (uint result) {\n        return store.count(polls) - getActivePollsCount();\n    }\n\n    function getInactivePolls() constant returns (uint[] result) {\n        result = filteredPolls(checkPollIsInactive, getInactivePollsCount());\n    }\n\n    function filteredPolls(function (uint) constant returns (bool) filter, uint count) private returns (uint[] result) {\n        StorageInterface.Iterator memory iterator = store.listIterator(polls);\n        uint pollId;\n        result = new uint[](count);\n        for(uint j = 0; store.canGetNextWithIterator(polls, iterator);) {\n            pollId = store.getNextWithIterator(polls, iterator);\n            if (filter(pollId)) {\n                result[j++] = pollId;\n            }\n        }\n    }\n\n    function getPollsDetailsIpfsHashes() constant returns (bytes32[] result) {\n        StorageInterface.Iterator memory iterator = store.listIterator(polls);\n        result = new bytes32[](iterator.count());\n        for (uint i = 0; store.canGetNextWithIterator(polls, iterator); ++i) {\n            result[i] = store.get(detailsIpfsHash, store.getNextWithIterator(polls, iterator));\n        }\n    }\n\n    function getMemberPolls() constant returns (uint[] result) {\n        StorageInterface.Iterator memory memberPollsIterator = store.listIterator(memberPolls, bytes32(msg.sender));\n        result = new uint[](memberPollsIterator.count());\n        for (uint i = 0; store.canGetNextWithIterator(memberPolls, memberPollsIterator); ++i) {\n            result[i] = store.getNextWithIterator(memberPolls, memberPollsIterator);\n        }\n    }\n\n    function getMemberVotesForPoll(uint _id) constant returns (uint result) {\n        if (!isPollExist(_id)) {\n            return;\n        }\n\n        result = store.get(memberOption, _id, msg.sender);\n    }\n\n    function getOptionsForPoll(uint _id) constant returns (bytes32[] result) {\n        if (!isPollExist(_id)) {\n            return;\n        }\n\n        StorageInterface.Iterator memory iterator = store.listIterator(optionsId, bytes32(_id));\n        result = new bytes32[](iterator.count());\n        for (uint i = 0; store.canGetNextWithIterator(optionsId, iterator); ++i) {\n            result[i] = store.getNextWithIterator(optionsId, iterator);\n        }\n    }\n\n    function getOptionsVotesStatisticForPoll(uint _id) constant returns (uint[] result) {\n        if (!isPollExist(_id)) {\n            return;\n        }\n\n        uint _optionsCount = store.count(optionsId, bytes32(_id));\n        result = new uint[](_optionsCount);\n        for (uint i = 0; i < _optionsCount; i++) {\n            result[i] = store.get(optionsStats, _id, i + 1);\n        }\n    }\n\n    function getOptionsVotesForPoll(uint _id) constant returns (uint[] result) {\n        if (!isPollExist(_id)) {\n            return;\n        }\n\n        uint _optionsCount = store.count(optionsId, bytes32(_id));\n        result = new uint[](_optionsCount);\n        for (uint i = 0; i < _optionsCount; i++) {\n            result[i] = store.get(options, _id, i + 1);\n        }\n    }\n\n    function getIpfsHashesFromPoll(uint _id) constant returns (bytes32[] result) {\n        if (!isPollExist(_id)) {\n            return;\n        }\n\n        StorageInterface.Iterator memory hashesIterator = store.listIterator(ipfsHashes, bytes32(_id));\n        result = new bytes32[](hashesIterator.count());\n        for (uint i = 0; store.canGetNextWithIterator(ipfsHashes, hashesIterator); ++i) {\n            result[i] = store.getNextWithIterator(ipfsHashes, hashesIterator);\n        }\n    }\n\n    function getPoll(uint _pollId) constant returns (uint _id,\n    address _owner,\n    bytes32 _detailsIpfsHash,\n    uint _votelimit,\n    uint _deadline,\n    bool _status,\n    bool _active,\n    uint _creationTime,\n    bytes32[] _options,\n    bytes32[] _hashes) {\n        if (!isPollExist(_pollId)) {\n            return;\n        }\n\n        _id = _pollId;\n        _owner = store.get(owner, _pollId);\n        _detailsIpfsHash = store.get(detailsIpfsHash, _pollId);\n        _votelimit = store.get(votelimit, _pollId);\n        _deadline = store.get(deadline, _pollId);\n        _status = store.get(status, _pollId);\n        _active = store.get(active, _pollId);\n        _creationTime = store.get(creationTime, _pollId);\n\n        StorageInterface.Iterator memory setIterator = store.listIterator(optionsId, bytes32(_pollId));\n        _options = new bytes32[](setIterator.count());\n        uint i;\n        for (i = 0; store.canGetNextWithIterator(optionsId, setIterator); ++i) {\n            _options[i] = store.getNextWithIterator(optionsId, setIterator);\n        }\n\n        setIterator = store.listIterator(ipfsHashes, bytes32(_pollId));\n        _hashes = new bytes32[](setIterator.count());\n        for (i = 0; store.canGetNextWithIterator(ipfsHashes, setIterator); ++i) {\n            _hashes[i] = store.getNextWithIterator(ipfsHashes, setIterator);\n        }\n    }\n}\n",
  "sourcePath": "/Users/ahiatsevich/Development/chronobank/SmartContracts/contracts/vote/PollDetails.sol",
  "compiler": {
    "name": "solc",
    "version": "0.4.18+commit.9cf6e910.Emscripten.clang"
  },
  "schemaVersion": "1.0.1",
  "updatedAt": "2017-11-15T09:25:14.970Z"
}