{
  "contractName": "PollEmitter",
  "abi": [
    {
      "constant": false,
      "inputs": [
        {
          "name": "pollId",
          "type": "uint256"
        }
      ],
      "name": "emitPollDeleted",
      "outputs": [],
      "payable": false,
      "stateMutability": "nonpayable",
      "type": "function"
    },
    {
      "constant": false,
      "inputs": [
        {
          "name": "pollId",
          "type": "uint256"
        },
        {
          "name": "option",
          "type": "bytes32"
        },
        {
          "name": "count",
          "type": "uint256"
        }
      ],
      "name": "emitOptionRemoved",
      "outputs": [],
      "payable": false,
      "stateMutability": "nonpayable",
      "type": "function"
    },
    {
      "constant": false,
      "inputs": [
        {
          "name": "pollId",
          "type": "uint256"
        }
      ],
      "name": "emitPollCreated",
      "outputs": [],
      "payable": false,
      "stateMutability": "nonpayable",
      "type": "function"
    },
    {
      "constant": false,
      "inputs": [],
      "name": "emitSharesPercentUpdated",
      "outputs": [],
      "payable": false,
      "stateMutability": "nonpayable",
      "type": "function"
    },
    {
      "constant": false,
      "inputs": [
        {
          "name": "pollId",
          "type": "uint256"
        },
        {
          "name": "option",
          "type": "bytes32"
        },
        {
          "name": "count",
          "type": "uint256"
        }
      ],
      "name": "emitOptionAdded",
      "outputs": [],
      "payable": false,
      "stateMutability": "nonpayable",
      "type": "function"
    },
    {
      "constant": false,
      "inputs": [
        {
          "name": "pollId",
          "type": "uint256"
        }
      ],
      "name": "emitPollActivated",
      "outputs": [],
      "payable": false,
      "stateMutability": "nonpayable",
      "type": "function"
    },
    {
      "constant": false,
      "inputs": [
        {
          "name": "pollId",
          "type": "uint256"
        }
      ],
      "name": "emitPollEnded",
      "outputs": [],
      "payable": false,
      "stateMutability": "nonpayable",
      "type": "function"
    },
    {
      "constant": false,
      "inputs": [
        {
          "name": "pollId",
          "type": "uint256"
        }
      ],
      "name": "emitPollDetailsUpdated",
      "outputs": [],
      "payable": false,
      "stateMutability": "nonpayable",
      "type": "function"
    },
    {
      "constant": false,
      "inputs": [
        {
          "name": "errorCode",
          "type": "uint256"
        }
      ],
      "name": "emitError",
      "outputs": [],
      "payable": false,
      "stateMutability": "nonpayable",
      "type": "function"
    },
    {
      "constant": false,
      "inputs": [
        {
          "name": "id",
          "type": "uint256"
        },
        {
          "name": "hash",
          "type": "bytes32"
        },
        {
          "name": "count",
          "type": "uint256"
        }
      ],
      "name": "emitIpfsHashToPollAdded",
      "outputs": [],
      "payable": false,
      "stateMutability": "nonpayable",
      "type": "function"
    },
    {
      "anonymous": false,
      "inputs": [
        {
          "indexed": false,
          "name": "pollId",
          "type": "uint256"
        }
      ],
      "name": "PollCreated",
      "type": "event"
    },
    {
      "anonymous": false,
      "inputs": [
        {
          "indexed": false,
          "name": "pollId",
          "type": "uint256"
        }
      ],
      "name": "PollDeleted",
      "type": "event"
    },
    {
      "anonymous": false,
      "inputs": [
        {
          "indexed": false,
          "name": "pollId",
          "type": "uint256"
        }
      ],
      "name": "PollEnded",
      "type": "event"
    },
    {
      "anonymous": false,
      "inputs": [
        {
          "indexed": false,
          "name": "pollId",
          "type": "uint256"
        }
      ],
      "name": "PollActivated",
      "type": "event"
    },
    {
      "anonymous": false,
      "inputs": [
        {
          "indexed": false,
          "name": "choice",
          "type": "uint256"
        },
        {
          "indexed": false,
          "name": "pollId",
          "type": "uint256"
        }
      ],
      "name": "VoteCreated",
      "type": "event"
    },
    {
      "anonymous": false,
      "inputs": [
        {
          "indexed": true,
          "name": "self",
          "type": "address"
        }
      ],
      "name": "SharesPercentUpdated",
      "type": "event"
    },
    {
      "anonymous": false,
      "inputs": [
        {
          "indexed": true,
          "name": "id",
          "type": "uint256"
        },
        {
          "indexed": false,
          "name": "hash",
          "type": "bytes32"
        },
        {
          "indexed": false,
          "name": "count",
          "type": "uint256"
        }
      ],
      "name": "IpfsHashToPollAdded",
      "type": "event"
    },
    {
      "anonymous": false,
      "inputs": [
        {
          "indexed": true,
          "name": "id",
          "type": "uint256"
        },
        {
          "indexed": false,
          "name": "option",
          "type": "bytes32"
        },
        {
          "indexed": false,
          "name": "count",
          "type": "uint256"
        }
      ],
      "name": "OptionAdded",
      "type": "event"
    },
    {
      "anonymous": false,
      "inputs": [
        {
          "indexed": true,
          "name": "id",
          "type": "uint256"
        },
        {
          "indexed": false,
          "name": "option",
          "type": "bytes32"
        },
        {
          "indexed": false,
          "name": "count",
          "type": "uint256"
        }
      ],
      "name": "OptionRemoved",
      "type": "event"
    },
    {
      "anonymous": false,
      "inputs": [
        {
          "indexed": true,
          "name": "id",
          "type": "uint256"
        }
      ],
      "name": "PollDetailsUpdated",
      "type": "event"
    },
    {
      "anonymous": false,
      "inputs": [
        {
          "indexed": true,
          "name": "self",
          "type": "address"
        },
        {
          "indexed": false,
          "name": "errorCode",
          "type": "uint256"
        }
      ],
      "name": "Error",
      "type": "event"
    }
  ],
  "bytecode": "0x6060604052341561000f57600080fd5b61042d8061001e6000396000f3006060604052600436106100a35763ffffffff7c010000000000000000000000000000000000000000000000000000000060003504166301a5c0c581146100a85780632184dacd146100c0578063272eddaa146100dc5780633d99a74a146100f25780636a1b34be146101055780638d009faf146101215780638d65e2b514610137578063adb4099f1461014d578063df26ca0814610163578063ee2df7df14610179575b600080fd5b34156100b357600080fd5b6100be600435610195565b005b34156100cb57600080fd5b6100be6004356024356044356101cb565b34156100e757600080fd5b6100be60043561020b565b34156100fd57600080fd5b6100be610241565b341561011057600080fd5b6100be60043560243560443561028d565b341561012c57600080fd5b6100be6004356102cd565b341561014257600080fd5b6100be600435610303565b341561015857600080fd5b6100be600435610339565b341561016e57600080fd5b6100be600435610369565b341561018457600080fd5b6100be6004356024356044356103bd565b7fe66ba7d1f84b318686d5d7e1d0a39a60d5faec16733d8c4ae85a0f5b6522eaa18160405190815260200160405180910390a150565b827fa410cc9c1ef3c00e0e602545df56ca43d5d82599d5da77c615ca4436ef93524f838360405191825260208201526040908101905180910390a2505050565b7fab0309b6731a34e8750174d3c2c9591a34a2bf0c1425a30b34122be08d0507398160405190815260200160405180910390a150565b6102496103fd565b73ffffffffffffffffffffffffffffffffffffffff167f22fe0086a6a33bf147ac37412f2ee25bcffaa98ea82897ddff1dbd0da5d2342860405160405180910390a2565b827fb6f1f68ea3503957afe332cc3d0377408a3b24df638c5213ace7067be2343c06838360405191825260208201526040908101905180910390a2505050565b7f4d863a7bb9fa1842bb9e4910f424611e539d2ba27a89dbd18d89ba8eb7a494c28160405190815260200160405180910390a150565b7f14d4cfc1c2a6f37c8f97ad80fc12bd9d943ea6d4dd7684137850125597ce9bf78160405190815260200160405180910390a150565b807f9514e96bb0a20942e87d251977e8a13587cf1dd1d11d988e8cef0001003e627a60405160405180910390a250565b6103716103fd565b73ffffffffffffffffffffffffffffffffffffffff167f9cf38cf2dbf9139f5c32639950507b10775fbbe0421f3e168bc2d1bb1ae3208c8260405190815260200160405180910390a250565b827fa5c4447e434b84cfe4d8d34060515638052198d9a890411059e12a89f200682b838360405191825260208201526040908101905180910390a2505050565b33905600a165627a7a72305820f6ba4e725928a60e63e2bf9ed68db16303e663720e36a062882a750bf00c17360029",
  "source": "pragma solidity ^0.4.11;\n\nimport './VoteEmitter.sol';\n\ncontract PollEmitter is VoteEmitter {\n    function emitError(uint errorCode) {\n        Error(_self(), errorCode);\n    }\n\n    function emitSharesPercentUpdated() {\n        SharesPercentUpdated(_self());\n    }\n\n    function emitPollCreated(uint pollId) {\n        PollCreated(pollId);\n    }\n\n    function emitPollDeleted(uint pollId) {\n        PollDeleted(pollId);\n    }\n\n    function emitPollActivated(uint pollId) {\n        PollActivated(pollId);\n    }\n\n    function emitIpfsHashToPollAdded(uint id, bytes32 hash, uint count) {\n        IpfsHashToPollAdded(id, hash, count);\n    }\n\n    function emitOptionAdded(uint pollId, bytes32 option, uint count) {\n        OptionAdded(pollId, option, count);\n    }\n\n    function emitOptionRemoved(uint pollId, bytes32 option, uint count) {\n        OptionRemoved(pollId, option, count);\n    }\n\n    function emitPollDetailsUpdated(uint pollId) {\n        PollDetailsUpdated(pollId);\n    }\n}\n",
  "sourcePath": "/Users/ahiatsevich/Development/chronobank/SmartContracts/contracts/vote/PollEmitter.sol",
  "compiler": {
    "name": "solc",
    "version": "0.4.18+commit.9cf6e910.Emscripten.clang"
  },
  "schemaVersion": "1.0.1",
  "updatedAt": "2017-12-11T12:14:44.824Z"
}