{
  "contractName": "ProxyFactory",
  "abi": [
    {
      "constant": false,
      "inputs": [
        {
          "name": "owner",
          "type": "address"
        }
      ],
      "name": "createAssetWithFee",
      "outputs": [
        {
          "name": "",
          "type": "address"
        }
      ],
      "payable": false,
      "stateMutability": "nonpayable",
      "type": "function"
    },
    {
      "constant": false,
      "inputs": [],
      "name": "createAsset",
      "outputs": [
        {
          "name": "",
          "type": "address"
        }
      ],
      "payable": false,
      "stateMutability": "nonpayable",
      "type": "function"
    },
    {
      "constant": false,
      "inputs": [],
      "name": "createProxy",
      "outputs": [
        {
          "name": "",
          "type": "address"
        }
      ],
      "payable": false,
      "stateMutability": "nonpayable",
      "type": "function"
    },
    {
      "payable": false,
      "stateMutability": "nonpayable",
      "type": "fallback"
    }
  ],
  "bytecode": "0x6060604052341561000f57600080fd5b612aac8061001e6000396000f3006060604052600436106100565763ffffffff7c010000000000000000000000000000000000000000000000000000000060003504166304525150811461006657806331a5daf3146100bb578063684649a6146100ce575b341561006157600080fd5b600080fd5b341561007157600080fd5b61009273ffffffffffffffffffffffffffffffffffffffff600435166100e1565b60405173ffffffffffffffffffffffffffffffffffffffff909116815260200160405180910390f35b34156100c657600080fd5b6100926101b0565b34156100d957600080fd5b6100926101d7565b6000806100ec6101e2565b604051809103906000f080151561010257600080fd5b90508073ffffffffffffffffffffffffffffffffffffffff1663a843c51f846000604051602001526040517c010000000000000000000000000000000000000000000000000000000063ffffffff841602815273ffffffffffffffffffffffffffffffffffffffff9091166004820152602401602060405180830381600087803b151561018e57600080fd5b6102c65a03f1151561019f57600080fd5b505050604051805150909392505050565b6000806101bb6101f2565b604051809103906000f08015156101d157600080fd5b92915050565b6000806101bb610202565b604051610c388061021383390190565b60405161060580610e4b83390190565b60405161163180611450833901905600606060405260018054600160a060020a03191633600160a060020a0316179055610c0a8061002e6000396000f3006060604052600436106100e25763ffffffff60e060020a60003504166319ab453c81146100e75780631ab971ab1461011a57806341275358146101385780634592cd1d14610167578063557f4bc91461017a5780635aa77d3c146101995780636a630ee7146101ac5780637b7054c81461021c5780637fd6f15c1461024557806383197ef0146102715780638705fcd41461028457806399a5d747146102a3578063a843c51f146102cb578063ae8800fa146102ea578063ce606ee014610312578063ec55688914610325578063ec698a2814610338578063f2d6e0ab146103af575b600080fd5b34156100f257600080fd5b610106600160a060020a0360043516610400565b604051901515815260200160405180910390f35b341561012557600080fd5b61013663ffffffff6004351661043e565b005b341561014357600080fd5b61014b610499565b604051600160a060020a03909116815260200160405180910390f35b341561017257600080fd5b6101066104a8565b341561018557600080fd5b610106600160a060020a03600435166104f5565b34156101a457600080fd5b61014b61054c565b34156101b757600080fd5b61010660048035600160a060020a03169060248035919060649060443590810190830135806020601f8201819004810201604051908101604052818152929190602084018383808284375094965050509235600160a060020a0316925061055b915050565b341561022757600080fd5b610106600160a060020a03600435811690602435906044351661058a565b341561025057600080fd5b6102586105b7565b60405163ffffffff909116815260200160405180910390f35b341561027c57600080fd5b6101366105db565b341561028f57600080fd5b610106600160a060020a0360043516610600565b34156102ae57600080fd5b6102b960043561065d565b60405190815260200160405180910390f35b34156102d657600080fd5b610106600160a060020a03600435166106a7565b34156102f557600080fd5b610106600160a060020a036004351663ffffffff6024351661071e565b341561031d57600080fd5b61014b610753565b341561033057600080fd5b61014b610762565b341561034357600080fd5b610106600160a060020a036004803582169160248035909116916044359160849060643590810190830135806020601f8201819004810201604051908101604052818152929190602084018383808284375094965050509235600160a060020a03169250610771915050565b61013660046024813581810190830135806020601f8201819004810201604051908101604052818152929190602084018383808284375094965050509235600160a060020a031692506100e2915050565b60008054600160a060020a03161561041a57506000610439565b5060008054600160a060020a031916600160a060020a03831617905560015b919050565b60015433600160a060020a0390811691161415610496576003805477ffffffff000000000000000000000000000000000000000019167401000000000000000000000000000000000000000063ffffffff8416021790555b50565b600354600160a060020a031681565b60025460009033600160a060020a039081169116146104c9575060006104f2565b506002805460018054600160a060020a0319908116600160a060020a0384161782559091169091555b90565b60015460009033600160a060020a039081169116141561043957600160a060020a038216151561052757506000610439565b5060028054600160a060020a038316600160a060020a03199091161790556001919050565b600254600160a060020a031681565b6000805433600160a060020a03908116911614156105825761057f858585856107a2565b90505b949350505050565b6000805433600160a060020a03908116911614156105b0576105ad8484846107bf565b90505b9392505050565b60035474010000000000000000000000000000000000000000900463ffffffff1681565b60015433600160a060020a03908116911614156105fe5733600160a060020a0316ff5b565b60015460009033600160a060020a039081169116141561043957600354600160a060020a038381169116141561063857506000610439565b5060038054600160a060020a038316600160a060020a03199091161790556001919050565b60035460009074010000000000000000000000000000000000000000900463ffffffff168202612710810615610694576001610697565b60005b60ff166127108204019392505050565b60015460009033600160a060020a039081169116141561043957600160a060020a03821615156106d957506000610439565b600254600160a060020a0316156106fb5760028054600160a060020a03191690555b5060018054600160a060020a038316600160a060020a0319909116178155919050565b60015460009033600160a060020a039081169116141561074d576107418261043e565b61074a83610600565b90505b92915050565b600154600160a060020a031681565b600054600160a060020a031681565b6000805433600160a060020a039081169116141561079957610796868686868661084c565b90505b95945050505050565b600061057f8585858560206040519081016040526000815261086a565b60008054600160a060020a0316637b7054c8858585856040516020015260405160e060020a63ffffffff8616028152600160a060020a03938416600482015260248101929092529091166044820152606401602060405180830381600087803b151561082a57600080fd5b6102c65a03f1151561083b57600080fd5b505050604051805195945050505050565b600061079686868686866020604051908101604052600081526108bf565b60008285848461087b848484610916565b156108b25761088c8a8a8a8a610985565b151586528551945080511580156108a857506108a88484610a99565b156108b257600080fd5b5050505095945050505050565b6000868584846108d0848484610916565b15610908576108e28b8b8b8b8b610ad3565b151586528551945080511580156108fe57506108fe8484610a99565b1561090857600080fd5b505050509695505050505050565b60006109228484610a99565b1515610930575060016105b0565b6003546105ad908590600160a060020a031661094b8661065d565b60408051908101604052600f81527f5472616e73616374696f6e206665650000000000000000000000000000000000602082015286610ad3565b60008054600160a060020a0316636a630ee78686868686604051602001526040518563ffffffff1660e060020a0281526004018085600160a060020a0316600160a060020a031681526020018481526020018060200183600160a060020a0316600160a060020a03168152602001828103825284818151815260200191508051906020019080838360005b83811015610a28578082015183820152602001610a10565b50505050905090810190601f168015610a555780820380516001836020036101000a031916815260200191505b5095505050505050602060405180830381600087803b1515610a7657600080fd5b6102c65a03f11515610a8757600080fd5b50505060405180519695505050505050565b600354600090600160a060020a031615801590610ac45750600354600160a060020a03848116911614155b801561074a5750501515919050565b60008054600160a060020a031663ec698a288787878787876040516020015260405160e060020a63ffffffff8816028152600160a060020a0380871660048301908152868216602484015260448301869052908316608483015260a060648301908152909160a40184818151815260200191508051906020019080838360005b83811015610b6b578082015183820152602001610b53565b50505050905090810190601f168015610b985780820380516001836020036101000a031916815260200191505b509650505050505050602060405180830381600087803b1515610bba57600080fd5b6102c65a03f11515610bcb57600080fd5b50505060405180519796505050505050505600a165627a7a72305820f72a019df3782de8891e46f6e7ce52f53ab996b8ea08708ab3b428a94d8c372200296060604052341561000f57600080fd5b6105e78061001e6000396000f30060606040526004361061005e5763ffffffff60e060020a60003504166319ab453c81146100635780636a630ee7146100965780637b7054c814610106578063ec5568891461012f578063ec698a281461015e578063f2d6e0ab146101d5575b600080fd5b341561006e57600080fd5b610082600160a060020a0360043516610228565b604051901515815260200160405180910390f35b34156100a157600080fd5b61008260048035600160a060020a03169060248035919060649060443590810190830135806020601f8201819004810201604051908101604052818152929190602084018383808284375094965050509235600160a060020a03169250610273915050565b341561011157600080fd5b610082600160a060020a0360043581169060243590604435166102a2565b341561013a57600080fd5b6101426102cf565b604051600160a060020a03909116815260200160405180910390f35b341561016957600080fd5b610082600160a060020a036004803582169160248035909116916044359160849060643590810190830135806020601f8201819004810201604051908101604052818152929190602084018383808284375094965050509235600160a060020a031692506102de915050565b61022660046024813581810190830135806020601f8201819004810201604051908101604052818152929190602084018383808284375094965050509235600160a060020a0316925061005e915050565b005b60008054600160a060020a0316156102425750600061026e565b506000805473ffffffffffffffffffffffffffffffffffffffff1916600160a060020a03831617905560015b919050565b6000805433600160a060020a039081169116141561029a576102978585858561030f565b90505b949350505050565b6000805433600160a060020a03908116911614156102c8576102c5848484610423565b90505b9392505050565b600054600160a060020a031681565b6000805433600160a060020a03908116911614156103065761030386868686866104b0565b90505b95945050505050565b60008054600160a060020a0316636a630ee78686868686604051602001526040518563ffffffff1660e060020a0281526004018085600160a060020a0316600160a060020a031681526020018481526020018060200183600160a060020a0316600160a060020a03168152602001828103825284818151815260200191508051906020019080838360005b838110156103b257808201518382015260200161039a565b50505050905090810190601f1680156103df5780820380516001836020036101000a031916815260200191505b5095505050505050602060405180830381600087803b151561040057600080fd5b6102c65a03f1151561041157600080fd5b50505060405180519695505050505050565b60008054600160a060020a0316637b7054c8858585856040516020015260405160e060020a63ffffffff8616028152600160a060020a03938416600482015260248101929092529091166044820152606401602060405180830381600087803b151561048e57600080fd5b6102c65a03f1151561049f57600080fd5b505050604051805195945050505050565b60008054600160a060020a031663ec698a288787878787876040516020015260405160e060020a63ffffffff8816028152600160a060020a0380871660048301908152868216602484015260448301869052908316608483015260a060648301908152909160a40184818151815260200191508051906020019080838360005b83811015610548578082015183820152602001610530565b50505050905090810190601f1680156105755780820380516001836020036101000a031916815260200191505b509650505050505050602060405180830381600087803b151561059757600080fd5b6102c65a03f115156105a857600080fd5b50505060405180519796505050505050505600a165627a7a72305820a7e1e6ff7dec03573831feed6835e98a3cbd2f6e88a4da8afe7fe71ccfd641e700296060604052341561000f57600080fd5b6116138061001e6000396000f3006060604052600436106101505763ffffffff60e060020a60003504166306fdde0381146101e2578063095ea7b31461026c5780630ba12c83146102a25780630e6d1de9146102b557806318160ddd146102e4578063233850891461030957806323b872dd1461033357806323de66511461035b578063313ce5671461038357806349752baf146103ac5780634bfaf2e8146103bf5780634dfe950d146103d25780635b48684e146103e55780636a630ee7146103f857806370a08231146104685780637b7054c81461048757806395d89b41146104b0578063a883fb90146104c3578063a9059cbb146104d6578063ac35caee146104f8578063b2b45df51461055d578063c915fc93146105fe578063cb4e75bb1461061d578063cfb5192814610630578063d4eec5a614610681578063dd62ed3e14610694578063ec698a28146106b9578063fe8beb7114610730575b61015861074f565b600160a060020a031663f2d6e0ab346000363360405160e060020a63ffffffff8716028152600160a060020a03821660248201526040600482019081526044820184905290819060640185858082843782019150509450505050506000604051808303818588803b15156101cb57600080fd5b6125ee5a03f115156101dc57600080fd5b50505050005b34156101ed57600080fd5b6101f5610760565b60405160208082528190810183818151815260200191508051906020019080838360005b83811015610231578082015183820152602001610219565b50505050905090810190601f16801561025e5780820380516001836020036101000a031916815260200191505b509250505060405180910390f35b341561027757600080fd5b61028e600160a060020a03600435166024356107fe565b604051901515815260200160405180910390f35b34156102ad57600080fd5b61028e6108ab565b34156102c057600080fd5b6102c861090f565b604051600160a060020a03909116815260200160405180910390f35b34156102ef57600080fd5b6102f761091e565b60405190815260200160405180910390f35b341561031457600080fd5b610331600160a060020a0360043581169060243516604435610994565b005b341561033e57600080fd5b61028e600160a060020a03600435811690602435166044356109f8565b341561036657600080fd5b610331600160a060020a0360043581169060243516604435610abd565b341561038e57600080fd5b610396610b20565b60405160ff909116815260200160405180910390f35b34156103b757600080fd5b6102c8610b77565b34156103ca57600080fd5b6102f7610b86565b34156103dd57600080fd5b61028e610b8c565b34156103f057600080fd5b61028e610c47565b341561040357600080fd5b61028e60048035600160a060020a03169060248035919060649060443590810190830135806020601f8201819004810201604051908101604052818152929190602084018383808284375094965050509235600160a060020a03169250610c72915050565b341561047357600080fd5b6102f7600160a060020a0360043516610dae565b341561049257600080fd5b61028e600160a060020a036004358116906024359060443516610e36565b34156104bb57600080fd5b6101f5610eff565b34156104ce57600080fd5b6102c8610f6a565b34156104e157600080fd5b61028e600160a060020a0360043516602435610f79565b341561050357600080fd5b61028e60048035600160a060020a03169060248035919060649060443590810190830135806020601f82018190048102016040519081016040528181529291906020840183838082843750949650610faa95505050505050565b341561056857600080fd5b61028e60048035600160a060020a03169060446024803590810190830135806020601f8201819004810201604051908101604052818152929190602084018383808284378201915050505050509190803590602001908201803590602001908080601f016020809104026020016040519081016040528181529291906020840183838082843750949650610fcd95505050505050565b341561060957600080fd5b61028e600160a060020a0360043516611042565b341561062857600080fd5b6102f7611192565b341561063b57600080fd5b6102f760046024813581810190830135806020601f8201819004810201604051908101604052818152929190602084018383808284375094965061119895505050505050565b341561068c57600080fd5b61028e6111a5565b341561069f57600080fd5b6102f7600160a060020a0360043581169060243516611205565b34156106c457600080fd5b61028e600160a060020a036004803582169160248035909116916044359160849060643590810190830135806020601f8201819004810201604051908101604052818152929190602084018383808284375094965050509235600160a060020a0316925061129a915050565b341561073b57600080fd5b6102c8600160a060020a03600435166113e2565b600061075a336113e2565b90505b90565b60038054600181600116156101000203166002900480601f0160208091040260200160405190810160405280929190818152602001828054600181600116156101000203166002900480156107f65780601f106107cb576101008083540402835291602001916107f6565b820191906000526020600020905b8154815290600101906020018083116107d957829003601f168201915b505050505081565b6000600160a060020a038316156108a15761081761074f565b600160a060020a0316637b7054c884843360006040516020015260405160e060020a63ffffffff8616028152600160a060020a03938416600482015260248101929092529091166044820152606401602060405180830381600087803b151561087f57600080fd5b6102c65a03f1151561089057600080fd5b5050506040518051905090506108a5565b5060005b92915050565b600654600090600160a060020a031615156108c85750600061075d565b426203f4806007540111156108df5750600061075d565b506006805460058054600160a060020a0319908116600160a060020a038416179091551690556000600755600190565b600554600160a060020a031690565b600154600254600091600160a060020a03169063b524abcf90836040516020015260405160e060020a63ffffffff84160281526004810191909152602401602060405180830381600087803b151561097557600080fd5b6102c65a03f1151561098657600080fd5b505050604051805191505090565b60015433600160a060020a03908116911614156109f35781600160a060020a031683600160a060020a03167f8c5be1e5ebec7d5bd14f71427d1e84f3dd0314c0f7b2291e5b200ac8c7c3b9258360405190815260200160405180910390a35b505050565b6000600160a060020a03831615610ab257610a1161074f565b600160a060020a031663ec698a288585853360006040516020015260405160e060020a63ffffffff8716028152600160a060020a03948516600482015292841660248401526044830191909152909116608482015260a06064820152600060a482015260e401602060405180830381600087803b1515610a9057600080fd5b6102c65a03f11515610aa157600080fd5b505050604051805190509050610ab6565b5060005b9392505050565b60015433600160a060020a03908116911614156109f35781600160a060020a031683600160a060020a03167fddf252ad1be2c89b69c2b068fc378daa952ba7f163c4a11628f55a4df523b3ef8360405190815260200160405180910390a3505050565b600154600254600091600160a060020a03169063dc86e6f090836040516020015260405160e060020a63ffffffff84160281526004810191909152602401602060405180830381600087803b151561097557600080fd5b600154600160a060020a031681565b60075490565b600154600254600091600160a060020a03169063e96b462a903390846040516020015260405160e060020a63ffffffff8516028152600160a060020a0390921660048301526024820152604401602060405180830381600087803b1515610bf257600080fd5b6102c65a03f11515610c0357600080fd5b505050604051805190501561075d57600654600160a060020a03161515610c2c5750600061075d565b5060068054600160a060020a03191690556000600755600190565b600160a060020a03331660009081526008602052604090208054600160a060020a0319169055600190565b60008133600160a060020a0316610c88826113e2565b600160a060020a03161415610da55760018054600254600160a060020a03909116906357a96dd09089908990898960006040516020015260405160e060020a63ffffffff8816028152600160a060020a03808716600483019081526024830187905260448301869052908316608483015260a060648301908152909160a40184818151815260200191508051906020019080838360005b83811015610d37578082015183820152602001610d1f565b50505050905090810190601f168015610d645780820380516001836020036101000a031916815260200191505b509650505050505050602060405180830381600087803b1515610d8657600080fd5b6102c65a03f11515610d9757600080fd5b505050604051805190501491505b50949350505050565b600154600254600091600160a060020a031690634d30b6be908490846040516020015260405160e060020a63ffffffff8516028152600160a060020a0390921660048301526024820152604401602060405180830381600087803b1515610e1457600080fd5b6102c65a03f11515610e2557600080fd5b50505060405180519150505b919050565b60008133600160a060020a0316610e4c826113e2565b600160a060020a03161415610ef75760018054600254600160a060020a03909116906314712e2f90889088908860006040516020015260405160e060020a63ffffffff8716028152600160a060020a039485166004820152602481019390935260448301919091529091166064820152608401602060405180830381600087803b1515610ed857600080fd5b6102c65a03f11515610ee957600080fd5b505050604051805190501491505b509392505050565b60048054600181600116156101000203166002900480601f0160208091040260200160405190810160405280929190818152602001828054600181600116156101000203166002900480156107f65780601f106107cb576101008083540402835291602001916107f6565b600654600160a060020a031690565b6000600160a060020a038316156108a157610fa38383602060405190810160405260008152611435565b90506108a5565b6000600160a060020a03841615610ab257610fc6848484611435565b9050610ab6565b600154600090600160a060020a031615610fe957506000610ab6565b60018054600160a060020a031916600160a060020a038616179055600483805161101792916020019061154f565b5061102183611198565b600255600382805161103792916020019061154f565b506001949350505050565b600154600254600091600160a060020a03169063e96b462a903390846040516020015260405160e060020a63ffffffff8516028152600160a060020a0390921660048301526024820152604401602060405180830381600087803b15156110a857600080fd5b6102c65a03f115156110b957600080fd5b5050506040518051905015610e3157600654600160a060020a0316156110e157506000610e31565b600160a060020a03821615156110f957506000610e31565b600554600160a060020a0316151561112e575060058054600160a060020a031916600160a060020a0383161790556001610e31565b60068054600160a060020a031916600160a060020a038416179055426007557faf574319215a31df9b528258f1bdeef2b12b169dc85ff443a49373248c77493a82604051600160a060020a03909116815260200160405180910390a1506001919050565b60025481565b6000602082015192915050565b600160a060020a03338116600090815260086020526040812054909116156111cf5750600061075d565b5060055433600160a060020a0390811660009081526008602052604090208054600160a060020a03191691909216179055600190565b600154600254600091600160a060020a031690631c8d5d389085908590856040516020015260405160e060020a63ffffffff8616028152600160a060020a0393841660048201529190921660248201526044810191909152606401602060405180830381600087803b151561127957600080fd5b6102c65a03f1151561128a57600080fd5b5050506040518051949350505050565b60008133600160a060020a03166112b0826113e2565b600160a060020a031614156113d85760018054600254600160a060020a039091169063161ff662908a908a908a908a8a60006040516020015260405160e060020a63ffffffff8916028152600160a060020a03808816600483019081528782166024840152604483018790526064830186905290831660a483015260c060848301908152909160c40184818151815260200191508051906020019080838360005b83811015611369578082015183820152602001611351565b50505050905090810190601f1680156113965780820380516001836020036101000a031916815260200191505b50975050505050505050602060405180830381600087803b15156113b957600080fd5b6102c65a03f115156113ca57600080fd5b505050604051805190501491505b5095945050505050565b600160a060020a038082166000908152600860205260408120549091161561142457600160a060020a03808316600090815260086020526040902054166108a5565b5050600554600160a060020a031690565b600061143f61074f565b600160a060020a0316636a630ee7858585336000604051602001526040518563ffffffff1660e060020a0281526004018085600160a060020a0316600160a060020a031681526020018481526020018060200183600160a060020a0316600160a060020a03168152602001828103825284818151815260200191508051906020019080838360005b838110156114df5780820151838201526020016114c7565b50505050905090810190601f16801561150c5780820380516001836020036101000a031916815260200191505b5095505050505050602060405180830381600087803b151561152d57600080fd5b6102c65a03f1151561153e57600080fd5b505050604051805195945050505050565b828054600181600116156101000203166002900490600052602060002090601f016020900481019282601f1061159057805160ff19168380011785556115bd565b828001600101855582156115bd579182015b828111156115bd5782518255916020019190600101906115a2565b506115c99291506115cd565b5090565b61075d91905b808211156115c957600081556001016115d35600a165627a7a72305820a04ff1c11a45dc0985f2b72637229d8570b4ee87ccaad25878916edf195ff9d40029a165627a7a723058200059c066a46f02e0a7bf17f001ebebd2e3413f39a6982461b07b4d147e88364f0029",
  "source": "pragma solidity ^0.4.11;\n\nimport {ChronoBankAssetProxy as Proxy} from \"../core/platform/ChronoBankAssetProxy.sol\";\nimport \"../core/platform/ChronoBankAssetWithFee.sol\";\n\n/**\n* @title Implementation of token and proxy factory. Creates instances of ChronoBank assets and proxies\n*/\ncontract ProxyFactory {\n\n    /**\n    * @dev Creates ChronoBankAsset contract\n    */\n    function createAsset() returns(address) {\n        address asset;\n        asset = new ChronoBankAsset();\n        return asset;\n    }\n\n    /**\n    * @dev Creates ChronoBankAssetWithFee contract\n    */\n    function createAssetWithFee(address owner) returns(address) {\n        ChronoBankAssetWithFee asset;\n        asset = new ChronoBankAssetWithFee();\n        asset.transferContractOwnership(owner);\n        return asset;\n    }\n\n    /**\n    * @dev Creates ChronoBankAssetProxy contract\n    */\n    function createProxy() returns(address) {\n        address proxy = new Proxy();\n        return proxy;\n    }\n\n    function() {\n        revert();\n    }\n}\n",
  "sourcePath": "/Users/mikefluff/Documents/Programming/Chronobank/test/SmartContracts/contracts/assets/ProxyFactory.sol",
  "compiler": {
    "name": "solc",
    "version": "0.4.18+commit.9cf6e910.Emscripten.clang"
  },
  "schemaVersion": "1.0.1",
  "updatedAt": "2018-01-12T11:40:44.781Z"
}