{
  "contractName": "Rewards",
  "abi": [
    {
      "constant": false,
      "inputs": [
        {
          "name": "e",
          "type": "uint256"
        }
      ],
      "name": "_emitError",
      "outputs": [
        {
          "name": "",
          "type": "uint256"
        }
      ],
      "payable": false,
      "stateMutability": "nonpayable",
      "type": "function"
    },
    {
      "constant": true,
      "inputs": [
        {
          "name": "_assetAddress",
          "type": "address"
        },
        {
          "name": "_address",
          "type": "address"
        }
      ],
      "name": "rewardsFor",
      "outputs": [
        {
          "name": "",
          "type": "uint256"
        }
      ],
      "payable": false,
      "stateMutability": "view",
      "type": "function"
    },
    {
      "constant": false,
      "inputs": [
        {
          "name": "addr",
          "type": "address"
        },
        {
          "name": "amount",
          "type": "uint256"
        },
        {
          "name": "total",
          "type": "uint256"
        }
      ],
      "name": "emitWithdrawn",
      "outputs": [],
      "payable": false,
      "stateMutability": "nonpayable",
      "type": "function"
    },
    {
      "constant": false,
      "inputs": [
        {
          "name": "_part",
          "type": "uint256"
        }
      ],
      "name": "emitDepositStored",
      "outputs": [],
      "payable": false,
      "stateMutability": "nonpayable",
      "type": "function"
    },
    {
      "constant": false,
      "inputs": [
        {
          "name": "asset",
          "type": "address"
        },
        {
          "name": "addr",
          "type": "address"
        },
        {
          "name": "amount",
          "type": "uint256"
        }
      ],
      "name": "_emitWithdrawnReward",
      "outputs": [],
      "payable": false,
      "stateMutability": "nonpayable",
      "type": "function"
    },
    {
      "constant": false,
      "inputs": [
        {
          "name": "asset",
          "type": "address"
        },
        {
          "name": "addr",
          "type": "address"
        },
        {
          "name": "amount",
          "type": "uint256"
        }
      ],
      "name": "emitWithdrawnReward",
      "outputs": [],
      "payable": false,
      "stateMutability": "nonpayable",
      "type": "function"
    },
    {
      "constant": false,
      "inputs": [],
      "name": "_emitPeriodClosed",
      "outputs": [],
      "payable": false,
      "stateMutability": "nonpayable",
      "type": "function"
    },
    {
      "constant": true,
      "inputs": [
        {
          "name": "_assetAddress",
          "type": "address"
        },
        {
          "name": "_period",
          "type": "uint256"
        }
      ],
      "name": "assetBalanceInPeriod",
      "outputs": [
        {
          "name": "",
          "type": "uint256"
        }
      ],
      "payable": false,
      "stateMutability": "view",
      "type": "function"
    },
    {
      "constant": false,
      "inputs": [],
      "name": "claimContractOwnership",
      "outputs": [
        {
          "name": "",
          "type": "bool"
        }
      ],
      "payable": false,
      "stateMutability": "nonpayable",
      "type": "function"
    },
    {
      "constant": false,
      "inputs": [
        {
          "name": "_contractsManager",
          "type": "address"
        },
        {
          "name": "_wallet",
          "type": "address"
        },
        {
          "name": "_targetPlatform",
          "type": "address"
        },
        {
          "name": "_closeIntervalDays",
          "type": "uint256"
        }
      ],
      "name": "init",
      "outputs": [
        {
          "name": "",
          "type": "uint256"
        }
      ],
      "payable": false,
      "stateMutability": "nonpayable",
      "type": "function"
    },
    {
      "constant": true,
      "inputs": [
        {
          "name": "_identifier",
          "type": "bytes32"
        }
      ],
      "name": "lookupManager",
      "outputs": [
        {
          "name": "manager",
          "type": "address"
        }
      ],
      "payable": false,
      "stateMutability": "view",
      "type": "function"
    },
    {
      "constant": false,
      "inputs": [],
      "name": "closePeriod",
      "outputs": [
        {
          "name": "resultCode",
          "type": "uint256"
        }
      ],
      "payable": false,
      "stateMutability": "nonpayable",
      "type": "function"
    },
    {
      "constant": true,
      "inputs": [],
      "name": "wallet",
      "outputs": [
        {
          "name": "",
          "type": "address"
        }
      ],
      "payable": false,
      "stateMutability": "view",
      "type": "function"
    },
    {
      "constant": true,
      "inputs": [],
      "name": "contractsManager",
      "outputs": [
        {
          "name": "",
          "type": "address"
        }
      ],
      "payable": false,
      "stateMutability": "view",
      "type": "function"
    },
    {
      "constant": false,
      "inputs": [
        {
          "name": "_to",
          "type": "address"
        }
      ],
      "name": "changeContractOwnership",
      "outputs": [
        {
          "name": "",
          "type": "bool"
        }
      ],
      "payable": false,
      "stateMutability": "nonpayable",
      "type": "function"
    },
    {
      "constant": true,
      "inputs": [
        {
          "name": "_period",
          "type": "uint256"
        }
      ],
      "name": "periodUnique",
      "outputs": [
        {
          "name": "",
          "type": "uint256"
        }
      ],
      "payable": false,
      "stateMutability": "view",
      "type": "function"
    },
    {
      "constant": false,
      "inputs": [
        {
          "name": "_asset",
          "type": "address"
        },
        {
          "name": "_amount",
          "type": "uint256"
        }
      ],
      "name": "withdrawReward",
      "outputs": [
        {
          "name": "",
          "type": "uint256"
        }
      ],
      "payable": false,
      "stateMutability": "nonpayable",
      "type": "function"
    },
    {
      "constant": false,
      "inputs": [],
      "name": "withdrawAllRewardsTotal",
      "outputs": [
        {
          "name": "",
          "type": "uint256"
        }
      ],
      "payable": false,
      "stateMutability": "nonpayable",
      "type": "function"
    },
    {
      "constant": true,
      "inputs": [],
      "name": "pendingContractOwner",
      "outputs": [
        {
          "name": "",
          "type": "address"
        }
      ],
      "payable": false,
      "stateMutability": "view",
      "type": "function"
    },
    {
      "constant": false,
      "inputs": [
        {
          "name": "_eventsHistory",
          "type": "address"
        }
      ],
      "name": "setEventsHistory",
      "outputs": [],
      "payable": false,
      "stateMutability": "nonpayable",
      "type": "function"
    },
    {
      "constant": false,
      "inputs": [
        {
          "name": "addr",
          "type": "address"
        },
        {
          "name": "amount",
          "type": "uint256"
        },
        {
          "name": "total",
          "type": "uint256"
        }
      ],
      "name": "_emitWithdrawn",
      "outputs": [],
      "payable": false,
      "stateMutability": "nonpayable",
      "type": "function"
    },
    {
      "constant": true,
      "inputs": [],
      "name": "getAssets",
      "outputs": [
        {
          "name": "result",
          "type": "address[]"
        }
      ],
      "payable": false,
      "stateMutability": "view",
      "type": "function"
    },
    {
      "constant": true,
      "inputs": [],
      "name": "periodsLength",
      "outputs": [
        {
          "name": "",
          "type": "uint256"
        }
      ],
      "payable": false,
      "stateMutability": "view",
      "type": "function"
    },
    {
      "constant": false,
      "inputs": [
        {
          "name": "_contractsManager",
          "type": "address"
        }
      ],
      "name": "setContractsManager",
      "outputs": [],
      "payable": false,
      "stateMutability": "nonpayable",
      "type": "function"
    },
    {
      "constant": true,
      "inputs": [
        {
          "name": "_assetAddress",
          "type": "address"
        },
        {
          "name": "_address",
          "type": "address"
        },
        {
          "name": "_period",
          "type": "uint256"
        }
      ],
      "name": "isCalculatedFor",
      "outputs": [
        {
          "name": "",
          "type": "bool"
        }
      ],
      "payable": false,
      "stateMutability": "view",
      "type": "function"
    },
    {
      "constant": false,
      "inputs": [
        {
          "name": "assetAddress",
          "type": "address"
        }
      ],
      "name": "_emitAssetRegistered",
      "outputs": [],
      "payable": false,
      "stateMutability": "nonpayable",
      "type": "function"
    },
    {
      "constant": false,
      "inputs": [],
      "name": "destroy",
      "outputs": [],
      "payable": false,
      "stateMutability": "nonpayable",
      "type": "function"
    },
    {
      "constant": true,
      "inputs": [],
      "name": "lastClosedPeriod",
      "outputs": [
        {
          "name": "",
          "type": "uint256"
        }
      ],
      "payable": false,
      "stateMutability": "view",
      "type": "function"
    },
    {
      "constant": false,
      "inputs": [
        {
          "name": "_maxSharesTransfer",
          "type": "uint256"
        }
      ],
      "name": "setMaxSharesTransfer",
      "outputs": [
        {
          "name": "",
          "type": "uint256"
        }
      ],
      "payable": false,
      "stateMutability": "nonpayable",
      "type": "function"
    },
    {
      "constant": true,
      "inputs": [
        {
          "name": "_address",
          "type": "address"
        }
      ],
      "name": "depositBalance",
      "outputs": [
        {
          "name": "",
          "type": "uint256"
        }
      ],
      "payable": false,
      "stateMutability": "view",
      "type": "function"
    },
    {
      "constant": false,
      "inputs": [],
      "name": "storeDeposits",
      "outputs": [
        {
          "name": "resultCode",
          "type": "uint256"
        }
      ],
      "payable": false,
      "stateMutability": "nonpayable",
      "type": "function"
    },
    {
      "constant": true,
      "inputs": [
        {
          "name": "_period",
          "type": "uint256"
        }
      ],
      "name": "totalDepositInPeriod",
      "outputs": [
        {
          "name": "",
          "type": "uint256"
        }
      ],
      "payable": false,
      "stateMutability": "view",
      "type": "function"
    },
    {
      "constant": true,
      "inputs": [],
      "name": "getCloseInterval",
      "outputs": [
        {
          "name": "",
          "type": "uint256"
        }
      ],
      "payable": false,
      "stateMutability": "view",
      "type": "function"
    },
    {
      "constant": false,
      "inputs": [
        {
          "name": "_to",
          "type": "address"
        }
      ],
      "name": "transferContractOwnership",
      "outputs": [
        {
          "name": "",
          "type": "bool"
        }
      ],
      "payable": false,
      "stateMutability": "nonpayable",
      "type": "function"
    },
    {
      "constant": true,
      "inputs": [
        {
          "name": "_period",
          "type": "uint256"
        }
      ],
      "name": "getPeriodStartDate",
      "outputs": [
        {
          "name": "",
          "type": "uint256"
        }
      ],
      "payable": false,
      "stateMutability": "view",
      "type": "function"
    },
    {
      "constant": false,
      "inputs": [
        {
          "name": "assetAddress",
          "type": "address"
        }
      ],
      "name": "emitAssetRegistered",
      "outputs": [],
      "payable": false,
      "stateMutability": "nonpayable",
      "type": "function"
    },
    {
      "constant": true,
      "inputs": [
        {
          "name": "shareholder",
          "type": "address"
        }
      ],
      "name": "getRewardsLeft",
      "outputs": [
        {
          "name": "",
          "type": "uint256"
        }
      ],
      "payable": false,
      "stateMutability": "view",
      "type": "function"
    },
    {
      "constant": true,
      "inputs": [
        {
          "name": "_address",
          "type": "address"
        },
        {
          "name": "_period",
          "type": "uint256"
        }
      ],
      "name": "depositBalanceInPeriod",
      "outputs": [
        {
          "name": "",
          "type": "uint256"
        }
      ],
      "payable": false,
      "stateMutability": "view",
      "type": "function"
    },
    {
      "constant": true,
      "inputs": [],
      "name": "contractOwner",
      "outputs": [
        {
          "name": "",
          "type": "address"
        }
      ],
      "payable": false,
      "stateMutability": "view",
      "type": "function"
    },
    {
      "constant": false,
      "inputs": [
        {
          "name": "_part",
          "type": "uint256"
        }
      ],
      "name": "_emitDepositStored",
      "outputs": [],
      "payable": false,
      "stateMutability": "nonpayable",
      "type": "function"
    },
    {
      "constant": true,
      "inputs": [],
      "name": "lastPeriod",
      "outputs": [
        {
          "name": "",
          "type": "uint256"
        }
      ],
      "payable": false,
      "stateMutability": "view",
      "type": "function"
    },
    {
      "constant": false,
      "inputs": [
        {
          "name": "_closeInterval",
          "type": "uint256"
        }
      ],
      "name": "setCloseInterval",
      "outputs": [
        {
          "name": "",
          "type": "uint256"
        }
      ],
      "payable": false,
      "stateMutability": "nonpayable",
      "type": "function"
    },
    {
      "constant": true,
      "inputs": [
        {
          "name": "_period",
          "type": "uint256"
        }
      ],
      "name": "isClosed",
      "outputs": [
        {
          "name": "",
          "type": "bool"
        }
      ],
      "payable": false,
      "stateMutability": "view",
      "type": "function"
    },
    {
      "constant": false,
      "inputs": [
        {
          "name": "tokens",
          "type": "address[]"
        },
        {
          "name": "_to",
          "type": "address"
        }
      ],
      "name": "withdrawnTokens",
      "outputs": [
        {
          "name": "",
          "type": "uint256"
        }
      ],
      "payable": false,
      "stateMutability": "nonpayable",
      "type": "function"
    },
    {
      "constant": false,
      "inputs": [
        {
          "name": "error",
          "type": "uint256"
        }
      ],
      "name": "emitError",
      "outputs": [],
      "payable": false,
      "stateMutability": "nonpayable",
      "type": "function"
    },
    {
      "constant": false,
      "inputs": [],
      "name": "emitPeriodClosed",
      "outputs": [],
      "payable": false,
      "stateMutability": "nonpayable",
      "type": "function"
    },
    {
      "constant": false,
      "inputs": [
        {
          "name": "_asset",
          "type": "address"
        }
      ],
      "name": "withdrawRewardTotal",
      "outputs": [
        {
          "name": "",
          "type": "uint256"
        }
      ],
      "payable": false,
      "stateMutability": "nonpayable",
      "type": "function"
    },
    {
      "constant": true,
      "inputs": [],
      "name": "getMaxSharesTransfer",
      "outputs": [
        {
          "name": "",
          "type": "uint256"
        }
      ],
      "payable": false,
      "stateMutability": "view",
      "type": "function"
    },
    {
      "constant": true,
      "inputs": [
        {
          "name": "key",
          "type": "address"
        }
      ],
      "name": "isAuthorized",
      "outputs": [
        {
          "name": "",
          "type": "bool"
        }
      ],
      "payable": false,
      "stateMutability": "view",
      "type": "function"
    },
    {
      "constant": true,
      "inputs": [],
      "name": "getEventsHistory",
      "outputs": [
        {
          "name": "",
          "type": "address"
        }
      ],
      "payable": false,
      "stateMutability": "view",
      "type": "function"
    },
    {
      "inputs": [
        {
          "name": "_store",
          "type": "address"
        },
        {
          "name": "_crate",
          "type": "bytes32"
        }
      ],
      "payable": false,
      "stateMutability": "nonpayable",
      "type": "constructor"
    },
    {
      "payable": false,
      "stateMutability": "nonpayable",
      "type": "fallback"
    },
    {
      "anonymous": false,
      "inputs": [
        {
          "indexed": false,
          "name": "addr",
          "type": "address"
        },
        {
          "indexed": false,
          "name": "amount",
          "type": "uint256"
        },
        {
          "indexed": false,
          "name": "total",
          "type": "uint256"
        }
      ],
      "name": "WithdrawnSuccess",
      "type": "event"
    },
    {
      "anonymous": false,
      "inputs": [
        {
          "indexed": false,
          "name": "asset",
          "type": "address"
        },
        {
          "indexed": false,
          "name": "addr",
          "type": "address"
        },
        {
          "indexed": false,
          "name": "amountReward",
          "type": "uint256"
        }
      ],
      "name": "WithdrawnRewardSuccess",
      "type": "event"
    },
    {
      "anonymous": false,
      "inputs": [
        {
          "indexed": false,
          "name": "_part",
          "type": "uint256"
        }
      ],
      "name": "DepositStored",
      "type": "event"
    },
    {
      "anonymous": false,
      "inputs": [
        {
          "indexed": false,
          "name": "assetAddress",
          "type": "address"
        }
      ],
      "name": "AssetRegistered",
      "type": "event"
    },
    {
      "anonymous": false,
      "inputs": [],
      "name": "PeriodClosed",
      "type": "event"
    },
    {
      "anonymous": false,
      "inputs": [
        {
          "indexed": true,
          "name": "self",
          "type": "address"
        },
        {
          "indexed": false,
          "name": "errorCode",
          "type": "uint256"
        }
      ],
      "name": "Error",
      "type": "event"
    }
  ],
  "bytecode": "0x606060405234156200001057600080fd5b604051604080620033d883398101604052808051919060200180519150829050818181818181816200005360008383640100000000620029896200056f82021704565b505060028054600160a060020a03338116600160a060020a03199283161790925560058054309093169290911691909117905550620000c89250600691507f7368617265686f6c6465727300000000000000000000000000000000000000009050640100000000620029af6200059582021704565b62000103600b7f6465706f73697473000000000000000000000000000000000000000000000000640100000000620029bd620005b382021704565b6200013e60107f6465706f736974734964436f756e746572000000000000000000000000000000640100000000620029c7620005cd82021704565b6200017960117f616d6f756e747300000000000000000000000000000000000000000000000000640100000000620029d7620005ed82021704565b620001b460127f74696d657374616d707300000000000000000000000000000000000000000000640100000000620029d7620005ed82021704565b620001ef60137f746f74616c53686172657353746f726167650000000000000000000000000000640100000000620029c7620005cd82021704565b6200022a60147f736861726573436f6e747261637453746f726167650000000000000000000000640100000000620029c7620005cd82021704565b5062000268905060157f636c6f7365496e74657276616c00000000000000000000000000000000000000640100000000620029c7620005cd82021704565b620002a360167f6d61785368617265735472616e73666572000000000000000000000000000000640100000000620029c7620005cd82021704565b620002de60177f7265776172647300000000000000000000000000000000000000000000000000640100000000620029d7620005ed82021704565b6200031960187f726577617264734c656674000000000000000000000000000000000000000000640100000000620029d7620005ed82021704565b6200035460197f706572696f647300000000000000000000000000000000000000000000000000640100000000620029c7620005cd82021704565b6200038f601c7f746f74616c536861726573000000000000000000000000000000000000000000640100000000620029d7620005ed82021704565b620003ca601e7f7368617265686f6c64657273436f756e74000000000000000000000000000000640100000000620029d7620005ed82021704565b62000405601a7f636c6f7365640000000000000000000000000000000000000000000000000000640100000000620029d7620005ed82021704565b62000440601b7f7374617274446174650000000000000000000000000000000000000000000000640100000000620029d7620005ed82021704565b6200047b601f7f617373657442616c616e63657300000000000000000000000000000000000000640100000000620029d7620005ed82021704565b620004b660207f63616c63756c6174656400000000000000000000000000000000000000000000640100000000620029d7620005ed82021704565b620004f1601d7f7368617265730000000000000000000000000000000000000000000000000000640100000000620029d7620005ed82021704565b6200052c60217f746172676574506c6174666f726d000000000000000000000000000000000000640100000000620029c7620005cd82021704565b6200056760227f7265776172647357616c6c657453746f72616765000000000000000000000000640100000000620029c7620005cd82021704565b5050620007de565b8254600160a060020a031916600160a060020a0392909216919091178255600190910155565b620005af828264010000000062002a296200060782021704565b5050565b620005af8282640100000000620029af6200059582021704565b8154620005e9908264010000000062002b84620007c682021704565b9055565b620005af8282640100000000620029c7620005cd82021704565b6200065e82826040519081527f75696e742f636f756e74000000000000000000000000000000000000000000006020820152602a016040518091039020620005cd64010000000002620029c7176401000000009004565b620006b882600101826040519081527f75696e742f6669727374000000000000000000000000000000000000000000006020820152602a016040518091039020620005cd64010000000002620029c7176401000000009004565b6200071282600201826040519081527f75696e742f6c617374000000000000000000000000000000000000000000000060208201526029016040518091039020620005cd64010000000002620029c7176401000000009004565b6200076c82600301826040519081527f75696e742f6e657874000000000000000000000000000000000000000000000060208201526029016040518091039020620005cd64010000000002620029c7176401000000009004565b620005af82600401826040519081527f75696e742f70726576000000000000000000000000000000000000000000000060208201526029016040518091039020620005cd64010000000002620029c7176401000000009004565b81151580620007d3575080155b15620005af57600080fd5b612bea80620007ee6000396000f3006060604052600436106102425763ffffffff60e060020a60003504166306d4427881146102525780630f09330b1461027a5780631bbf65ef1461029f5780631bc24083146102c65780632f65fa59146102dc5780633752f49a146103045780633e87a56d1461032c57806343369c591461033f5780634592cd1d1461036157806346639dba146103885780634fe59012146103b6578063507a7328146103e8578063521eb273146103fb57806353253d311461040e578063557f4bc91461042157806357bd85221461044057806358d3232f14610456578063590f8c93146104785780635aa77d3c1461048b5780636521afd71461049e578063670bcab1146104bd57806367e4ac2c146104e25780636abe602d1461054857806371d3b5731461055b578063768072491461057a57806377e9f6fc146105a257806383197ef0146105c15780638632779c146105d4578063896efbd6146105e7578063956501bb146105fd57806398af444e1461061c5780639a24159b1461062f5780639d3c737014610645578063a843c51f14610658578063aef5466414610677578063b1a970521461068d578063be0ab3cb146106ac578063cce53fc4146106cb578063ce606ee0146106ed578063d1ddb8b314610700578063d340ef8a14610548578063d5309c6014610716578063d5c78a281461072c578063d8f9659b14610742578063df26ca081461079c578063e29065d6146107b2578063f6b003e5146107c5578063fe82b458146107e4578063fe9fbb80146107f7578063fff10aba14610816575b341561024d57600080fd5b600080fd5b341561025d57600080fd5b610268600435610829565b60405190815260200160405180910390f35b341561028557600080fd5b610268600160a060020a0360043581169060243516610895565b34156102aa57600080fd5b6102c4600160a060020a03600435166024356044356108b3565b005b34156102d157600080fd5b6102c4600435610911565b34156102e757600080fd5b6102c4600160a060020a0360043581169060243516604435610947565b341561030f57600080fd5b6102c4600160a060020a03600435811690602435166044356109c8565b341561033757600080fd5b6102c4610a1d565b341561034a57600080fd5b610268600160a060020a0360043516602435610a77565b341561036c57600080fd5b610374610a8c565b604051901515815260200160405180910390f35b341561039357600080fd5b610268600160a060020a0360043581169060243581169060443516606435610ad9565b34156103c157600080fd5b6103cc600435610b98565b604051600160a060020a03909116815260200160405180910390f35b34156103f357600080fd5b610268610c1c565b341561040657600080fd5b6103cc610d87565b341561041957600080fd5b6103cc610d9f565b341561042c57600080fd5b610374600160a060020a0360043516610dae565b341561044b57600080fd5b610268600435610e05565b341561046157600080fd5b610268600160a060020a0360043516602435610e42565b341561048357600080fd5b610268610e4f565b341561049657600080fd5b6103cc610ee9565b34156104a957600080fd5b6102c4600160a060020a0360043516610ef8565b34156104c857600080fd5b6102c4600160a060020a0360043516602435604435610f2e565b34156104ed57600080fd5b6104f5610f92565b60405160208082528190810183818151815260200191508051906020019060200280838360005b8381101561053457808201518382015260200161051c565b505050509050019250505060405180910390f35b341561055357600080fd5b61026861122e565b341561056657600080fd5b6102c4600160a060020a0360043516611241565b341561058557600080fd5b610374600160a060020a0360043581169060243516604435611278565b34156105ad57600080fd5b6102c4600160a060020a0360043516611298565b34156105cc57600080fd5b6102c4611304565b34156105df57600080fd5b61026861139a565b34156105f257600080fd5b6102686004356113d6565b341561060857600080fd5b610268600160a060020a0360043516611401565b341561062757600080fd5b61026861148d565b341561063a57600080fd5b6102686004356114ad565b341561065057600080fd5b6102686114e3565b341561066357600080fd5b610374600160a060020a03600435166114f6565b341561068257600080fd5b61026860043561156f565b341561069857600080fd5b6102c4600160a060020a0360043516611583565b34156106b757600080fd5b610268600160a060020a03600435166115c3565b34156106d657600080fd5b610268600160a060020a03600435166024356115d7565b34156106f857600080fd5b6103cc61160c565b341561070b57600080fd5b6102c460043561161b565b341561072157600080fd5b610268600435611668565b341561073757600080fd5b61037460043561168b565b341561074d57600080fd5b610268600460248135818101908301358060208181020160405190810160405280939291908181526020018383602002808284375094965050509235600160a060020a0316925061169f915050565b34156107a757600080fd5b6102c46004356117f0565b34156107bd57600080fd5b6102c4611837565b34156107d057600080fd5b610268600160a060020a0360043516611865565b34156107ef57600080fd5b61026861187b565b341561080257600080fd5b610374600160a060020a036004351661188e565b341561082157600080fd5b6103cc611934565b6000610833611934565b600160a060020a031663df26ca088360405160e060020a63ffffffff84160281526004810191909152602401600060405180830381600087803b151561087857600080fd5b6102c65a03f1151561088957600080fd5b5050508190505b919050565b60006108aa816017858563ffffffff61194316565b90505b92915050565b7f9733cd8dacd543098fb51634f576590185a97c05da7322f63548f68af37aa01c8383836040518084600160a060020a0316600160a060020a03168152602001838152602001828152602001935050505060405180910390a1505050565b7f8df23d404ca3f2bdd82171b596b4670e76c1657cda0edcde1e8f2e0b5acac6cd8160405190815260200160405180910390a150565b61094f611934565b600160a060020a0316633752f49a84848460405160e060020a63ffffffff8616028152600160a060020a0393841660048201529190921660248201526044810191909152606401600060405180830381600087803b15156109af57600080fd5b6102c65a03f115156109c057600080fd5b505050505050565b7f9e059fe0bc0d282ae325ba68777c9617b5c01b3a517ddb819f5e2c0de8e7a78a838383604051600160a060020a039384168152919092166020820152604080820192909252606001905180910390a1505050565b610a25611934565b600160a060020a031663e29065d66040518163ffffffff1660e060020a028152600401600060405180830381600087803b1515610a6157600080fd5b6102c65a03f11515610a7257600080fd5b505050565b60006108aa81601f848663ffffffff61196616565b60035460009033600160a060020a03908116911614610aad57506000610ad6565b506003805460028054600160a060020a0319908116600160a060020a0384161790915516905560015b90565b600254600090819033600160a060020a0390811691161415610b8f57610b1f867f526577617264730000000000000000000000000000000000000000000000000061197d565b9050610b34600060158563ffffffff611b6e16565b610b47600060218663ffffffff611bce16565b610b5a600060228763ffffffff611bce16565b60068114610b8a57610b766000601b814263ffffffff611c3716565b610b8a60006016601e63ffffffff611b6e16565b600191505b50949350505050565b600454600090600160a060020a031663bc65792783836040516020015260405160e060020a63ffffffff84160281526004810191909152602401602060405180830381600087803b1515610beb57600080fd5b6102c65a03f11515610bfc57600080fd5b5050506040518051915050600160a060020a038116151561089057600080fd5b600080600080610c2a612950565b600080610c363361188e565b15610d7e57610c4361122e565b955042610c586000601563ffffffff611c4316565b6201518002610c706000601b8a63ffffffff611ca216565b011115610c8957610c82612331610829565b9650610d7e565b610c9b6000601363ffffffff611c4316565b9450610caf6000600663ffffffff611caf16565b9350610cc56000601c888863ffffffff611c3716565b610cd96000601e888763ffffffff611c3716565b610ce1610f92565b9250825115610d3557600091505b8251821015610d3557610d17838381518110610d0757fe5b9060200190602002015187611cbb565b905060018114610d2a57610d2a816117f0565b600190910190610cef565b600190950194610d4e600060198863ffffffff611b6e16565b610d626000601b884263ffffffff611c3716565b610d6b83611de7565b96506001871415610d7e57610d7e610a1d565b50505050505090565b6000610d9a81602263ffffffff611f9116565b905090565b600454600160a060020a031681565b60025460009033600160a060020a039081169116141561089057600160a060020a0382161515610de057506000610890565b5060038054600160a060020a038316600160a060020a03199091161790556001919050565b6000610e0f61122e565b821415610e2f57610e286000600663ffffffff611caf16565b9050610890565b610e286000601e8463ffffffff611ca216565b60006108aa833384611ff0565b6000610e59612950565b6000806000610e66610f92565b9350600092505b8351831015610edd57610e95848481518110610e8557fe5b9060200190602002015133610895565b91506000821115610ed257610ec0848481518110610eaf57fe5b906020019060200201513384611ff0565b905060018114610ed257809450610ee2565b600190920191610e6d565b600194505b5050505090565b600354600160a060020a031681565b60025433600160a060020a0390811691161415610f2b5760058054600160a060020a031916600160a060020a0383161790555b50565b610f36611934565b600160a060020a0316631bbf65ef84848460405160e060020a63ffffffff8616028152600160a060020a03909316600484015260248301919091526044820152606401600060405180830381600087803b15156109af57600080fd5b610f9a612950565b60008080808080610fb281602163ffffffff611f9116565b9550610fdd7f4173736574734d616e6167657200000000000000000000000000000000000000610b98565b94506110087f4c4f434d616e6167657200000000000000000000000000000000000000000000610b98565b600160a060020a031663521eb2736000604051602001526040518163ffffffff1660e060020a028152600401602060405180830381600087803b151561104d57600080fd5b6102c65a03f1151561105e57600080fd5b5050506040518051945050600160a060020a0385166317db1071878660006040516020015260405160e060020a63ffffffff8516028152600160a060020a03928316600482015291166024820152604401602060405180830381600087803b15156110c857600080fd5b6102c65a03f115156110d957600080fd5b505050604051805190509250826040518059106110f35750595b90808252806020026020018201604052509650600090505b82811015610d7e5784600160a060020a0316632cd060ce87868460006040516020015260405160e060020a63ffffffff8616028152600160a060020a0393841660048201529190921660248201526044810191909152606401602060405180830381600087803b151561117d57600080fd5b6102c65a03f1151561118e57600080fd5b5050506040518051925050600160a060020a0385166328aea08b8360006040516020015260405160e060020a63ffffffff84160281526004810191909152602401602060405180830381600087803b15156111e857600080fd5b6102c65a03f115156111f957600080fd5b5050506040518051905087828151811061120f57fe5b600160a060020a0390921660209283029091019091015260010161110b565b6000610d9a81601963ffffffff611c4316565b60025433600160a060020a0390811691161415610f2b5760048054600160a060020a038316600160a060020a031990911617905550565b600061128e81602084878763ffffffff61223416565b90505b9392505050565b6112a0611934565b600160a060020a031663b1a970528260405160e060020a63ffffffff8416028152600160a060020a039091166004820152602401600060405180830381600087803b15156112ed57600080fd5b6102c65a03f115156112fe57600080fd5b50505050565b60025433600160a060020a039081169116141561139857600454600160a060020a031663c375c2ef3060006040516020015260405160e060020a63ffffffff8416028152600160a060020a039091166004820152602401602060405180830381600087803b151561137457600080fd5b6102c65a03f1151561138557600080fd5b5050506040518051905050611398612259565b565b60006113ad81601963ffffffff611c4316565b15156113bc5750612328610ad6565b60016113d06000601963ffffffff611c4316565b03905090565b60006113e13361188e565b15610890576113f9600060168463ffffffff611b6e16565b506001919050565b60008061140c612962565b60008061142a81600b600160a060020a03891663ffffffff61227c16565b9250600091505b6114446000600b8563ffffffff61228f16565b15611483576114726011876114626000600b8863ffffffff61229c16565b600092919063ffffffff6122a916565b938401936001909201919050611431565b5091949350505050565b60006114983361188e565b15610ad657610d9a6114a8610f92565b611de7565b60006114b761122e565b8214156114d057610e286000601363ffffffff611c4316565b6108ad6000601c8463ffffffff611ca216565b6000610d9a81601563ffffffff611c4316565b60025460009033600160a060020a039081169116141561089057600160a060020a038216151561152857506000610890565b600354600160a060020a03161561154a5760038054600160a060020a03191690555b5060028054600160a060020a038316600160a060020a03199091161790556001919050565b60006108ad81601b8463ffffffff611ca216565b7f0700b0f4c19e631ed321192cfc0b71a83caa514675497afc74fe817d5f839dd581604051600160a060020a03909116815260200160405180910390a150565b60006108ad8160188463ffffffff6122c016565b60006115e161122e565b8214156115f8576115f183611401565b90506108ad565b6108aa6000601d848663ffffffff61196616565b600254600160a060020a031681565b611623611934565b600160a060020a0316631bc240838260405160e060020a63ffffffff84160281526004810191909152602401600060405180830381600087803b15156112ed57600080fd5b60006116733361188e565b15610890576113f9600060158463ffffffff611b6e16565b60006108ad81601a8463ffffffff6122d616565b60025460009081908190819033600160a060020a03908116911614156117e757600092505b85518310156117e2578583815181106116d957fe5b90602001906020020151915081600160a060020a03166370a082313060006040516020015260405160e060020a63ffffffff8416028152600160a060020a039091166004820152602401602060405180830381600087803b151561173c57600080fd5b6102c65a03f1151561174d57600080fd5b505050604051805191505080156117d75781600160a060020a031663a9059cbb868360006040516020015260405160e060020a63ffffffff8516028152600160a060020a0390921660048301526024820152604401602060405180830381600087803b15156117bb57600080fd5b6102c65a03f115156117cc57600080fd5b505050604051805150505b6001909201916116c4565b600193505b50505092915050565b6117f86122e3565b600160a060020a03167f9cf38cf2dbf9139f5c32639950507b10775fbbe0421f3e168bc2d1bb1ae3208c8260405190815260200160405180910390a250565b7f3a273a3330d1f4c56aa39bf2b3df76adde3fd94f62ce06e19d173e66af02fa6360405160405180910390a1565b60006108ad82336118768533610895565b611ff0565b6000610d9a81601663ffffffff611c4316565b6000806118ba7f557365724d616e61676572000000000000000000000000000000000000000000610b98565b905080600160a060020a0316632aa09e5a8460006040516020015260405160e060020a63ffffffff8416028152600160a060020a039091166004820152602401602060405180830381600087803b151561191357600080fd5b6102c65a03f1151561192457600080fd5b5050506040518051949350505050565b600554600160a060020a031690565b600061195d8585600160a060020a038087169086166122e7565b95945050505050565b600061195d858585600160a060020a0386166122e7565b60025460009081908190819033600160a060020a039081169116146119a157600080fd5b600160a060020a03861615156119b657600080fd5b600454600160a060020a03161580159350806119e05750600454600160a060020a03878116911614155b15611a015760048054600160a060020a031916600160a060020a0388161790555b600454600160a060020a031691508163bc65792760006040516020015260405160e060020a63ffffffff83160281527f4d756c74694576656e7473486973746f727900000000000000000000000000006004820152602401602060405180830381600087803b1515611a7257600080fd5b6102c65a03f11515611a8357600080fd5b5050506040518051915050600160a060020a03811615801590611ab45750600554600160a060020a03828116911614155b15611ad55760058054600160a060020a031916600160a060020a0383161790555b8415611b5c5781600160a060020a031663b7c46cd5308760006040516020015260405160e060020a63ffffffff8516028152600160a060020a0390921660048301526024820152604401602060405180830381600087803b1515611b3857600080fd5b6102c65a03f11515611b4957600080fd5b50505060405180516001149050611b5c57fe5b82156117e25760069695505050505050565b825460018401548354600160a060020a03909216916353e7168b91908460405160e060020a63ffffffff8616028152600481019390935260248301919091526044820152606401600060405180830381600087803b15156109af57600080fd5b825460018401548354600160a060020a03909216916379a7cfee91908460405160e060020a63ffffffff861602815260048101939093526024830191909152600160a060020a03166044820152606401600060405180830381600087803b15156109af57600080fd5b6112fe8484848461230c565b815460018301548254600092600160a060020a0316916353aa3f5e91846040516020015260405160e060020a63ffffffff851602815260048101929092526024820152604401602060405180830381600087803b151561191357600080fd5b600061128e84848461239e565b60006108aa8383612438565b6000808080600160a060020a038616611cdb82601463ffffffff611f9116565b600160a060020a03161415611cfc57611cf5612332610829565b93506117e7565b611d106000601f878963ffffffff61196616565b92508215611d2357611cf5612332610829565b85600160a060020a03166370a08231611d3a610d87565b60006040516020015260405160e060020a63ffffffff8416028152600160a060020a039091166004820152602401602060405180830381600087803b1515611d8157600080fd5b6102c65a03f11515611d9257600080fd5b50505060405180519250611db19050600060188863ffffffff6122c016565b9050611dca6000601f878985870363ffffffff61246516565b611dde60006018888563ffffffff61248216565b6117e286611298565b6000806000611df4612962565b600080600080611e02612962565b600080611e0d61139a565b9950611e1f611e1a61122e565b61156f565b9850611e336000600663ffffffff61249716565b9750600094505b611e4d600060068a63ffffffff6124a916565b15611f6a57611e65600060068a63ffffffff6124b616565b600097509350611e8687600b600160a060020a03871663ffffffff61227c16565b9250600095505b611ea06000600b8563ffffffff61228f16565b15611efb57611eb86000600b8563ffffffff61229c16565b9150611ece60006012868563ffffffff6122a916565b9050888111611ef057611eeb60006011868563ffffffff6122a916565b870196505b600190950194611e8d565b600095505b8b51861015611f4a57611f2a8c8781518110611f1857fe5b9060200190602002015185898d6124c3565b9a5060018b14611f3f57611f3d8b610829565b505b600190950194611f00565b611f5f6000601d8c878b63ffffffff61246516565b600190940193611e3a565b611f7f6000601a8c600163ffffffff61258d16565b5060019b9a5050505050505050505050565b815460018301548254600092600160a060020a03169163d3a3968691846040516020015260405160e060020a63ffffffff851602815260048101929092526024820152604401602060405180830381600087803b151561191357600080fd5b6000808080806120088160188a63ffffffff6122c016565b15156120205761201961232d610829565b9450612229565b612028610d87565b935087600160a060020a03166370a082318560006040516020015260405160e060020a63ffffffff8416028152600160a060020a039091166004820152602401602060405180830381600087803b151561208157600080fd5b6102c65a03f1151561209257600080fd5b5050506040518051935050600160a060020a03841663d9caed1289898960006040516020015260405160e060020a63ffffffff8616028152600160a060020a0393841660048201529190921660248201526044810191909152606401602060405180830381600087803b151561210757600080fd5b6102c65a03f1151561211857600080fd5b5050506040518051905015156121335761201961232e610829565b87600160a060020a03166370a082318560006040516020015260405160e060020a63ffffffff8416028152600160a060020a039091166004820152602401602060405180830381600087803b151561218a57600080fd5b6102c65a03f1151561219b57600080fd5b505050604051805192505050808203806121b58989610895565b10156121c057600080fd5b6121ee60178989846121db600085858563ffffffff61194316565b600094939291900363ffffffff61259916565b612219601889836122076000848463ffffffff6122c016565b6000939291900363ffffffff61248216565b612224888888610947565b600194505b505050509392505050565b600061224f868686600160a060020a038088169087166125b2565b9695505050505050565b60025433600160a060020a03908116911614156113985733600160a060020a0316ff5b612284612962565b61128e8484846125e4565b600061128e8484846124a9565b600061128e8484846124b6565b600061195d8585600160a060020a038616856122e7565b600061128e8484600160a060020a03851661239e565b600061128e8484846125f7565b3390565b600061195d85858585604051918252602082015260409081019051809103902061239e565b835460018501548454600160a060020a039092169163a14ff85791908560405191825260208201526040908101905180910390208460405160e060020a63ffffffff8616028152600481019390935260248301919091526044820152606401600060405180830381600087803b151561238457600080fd5b6102c65a03f1151561239557600080fd5b50505050505050565b825460018401548354600092600160a060020a0316916337d9d7fc9185604051918252602082015260409081019051809103902060006040516020015260405160e060020a63ffffffff851602815260048101929092526024820152604401602060405180830381600087803b151561241657600080fd5b6102c65a03f1151561242757600080fd5b505050604051805195945050505050565b60006108aa83837f6f7264657265645f73657400000000000000000000000000000000000000000061266f565b61247b858585600160a060020a0386168561267c565b5050505050565b6112fe8484600160a060020a0385168461230c565b61249f612962565b6108aa83836126a0565b600061128e8484846126d3565b600061128e84848461270e565b6000808080806124dc81601f888c63ffffffff61196616565b93508315156124ef576123309450612581565b61250460006020888c8c63ffffffff61223416565b156125135761232f9450612581565b6125266000601c8863ffffffff611ca216565b92508287850281151561253557fe5b04915061254c600060178b8b63ffffffff61194316565b9050612565600060178b8b86860163ffffffff61259916565b61257c60006020888c8c600163ffffffff61275a16565b600194505b50505050949350505050565b6112fe84848484612774565b61247b8585600160a060020a038087169086168561267c565b600061224f868686868660405192835260208301919091526040808301919091526060909101905180910390206125f7565b6125ec612962565b61128e8484846127ee565b825460018401548354600092600160a060020a0316916398eaf11c9185604051918252602082015260409081019051809103902060006040516020015260405160e060020a63ffffffff851602815260048101929092526024820152604401602060405180830381600087803b151561241657600080fd5b600061128e84848461280c565b61247b8585858560405191825260208201526040908101905180910390208461230c565b6126a8612962565b6108aa83837f6f7264657265645f7365740000000000000000000000000000000000000000006127ee565b6000816020015115806126f757506126f5848484606001518560400151612884565b155b1561270457506000611291565b5060019392505050565b600061271b8484846126d3565b151561272657600080fd5b816040015190506127418484846060015185604001516128c0565b6040830152600160208301818151039052509392505050565b6109c0868686600160a060020a03808816908716866128d1565b835460018501548454600160a060020a039092169163f0f53ee491908560405191825260208201526040908101905180910390208460405160e060020a63ffffffff86160281526004810193909352602483019190915215156044820152606401600060405180830381600087803b151561238457600080fd5b6127f6612962565b61128e84848461280783838361280c565b612902565b825460018401548354600092600160a060020a0316916353aa3f5e9185604051918252602082015260409081019051809103902060006040516020015260405160e060020a63ffffffff851602815260048101929092526024820152604401602060405180830381600087803b151561241657600080fd5b6000811580159061195d575061289f858560030185856122e7565b15158061195d5750816128b686600287018661239e565b1495945050505050565b600061195d858560030185856122e7565b6109c08686868686604051928352602083019190915260408083019190915260609091019051809103902084612774565b61290a612962565b61195d8361291c87876001018761239e565b84612925612962565b6080604051908101604090815283825260208201939093529182019290925260608101929092525090565b60206040519081016040526000815290565b60806040519081016040908152600080835260208301819052908201819052606082015290565b8254600160a060020a031916600160a060020a0392909216919091178255600190910155565b6129b98282612a29565b5050565b6129b982826129af565b81546129d39082612b84565b9055565b6129b982826129c7565b81546129d39082612b84565b6129b982826129c7565b6129b982826129c7565b6129b982826129c7565b6129b982826129c7565b6129b982826129c7565b6129b982826129c7565b612a6a82826040519081527f75696e742f636f756e74000000000000000000000000000000000000000000006020820152602a0160405180910390206129c7565b612aae82600101826040519081527f75696e742f6669727374000000000000000000000000000000000000000000006020820152602a0160405180910390206129c7565b612af282600201826040519081527f75696e742f6c6173740000000000000000000000000000000000000000000000602082015260290160405180910390206129c7565b612b3682600301826040519081527f75696e742f6e6578740000000000000000000000000000000000000000000000602082015260290160405180910390206129c7565b6129b982600401826040519081527f75696e742f707265760000000000000000000000000000000000000000000000602082015260290160405180910390206129c7565b6129b98282612a29565b81151580612b90575080155b156129b957600080fd5b81546129d39082612b84565b81546129d39082612b84565b81546129d39082612b845600a165627a7a72305820a56440dc03151c35e741d73cd6fc266a7c2c5872337c2e24786b62cc7a3e20860029",
  "source": "pragma solidity ^0.4.11;\n\nimport {TimeHolderInterface as TimeHolder} from \"../timeholder/TimeHolderInterface.sol\";\nimport \"../core/erc20/ERC20Interface.sol\";\nimport \"../assets/AssetsManagerInterface.sol\";\nimport \"../assets/PlatformsManagerInterface.sol\";\nimport \"../timeholder/DepositWalletInterface.sol\";\nimport \"../core/common/Managed.sol\";\nimport \"../core/common/Deposits.sol\";\nimport \"../reward/RewardsEmitter.sol\";\n\n/**\n* @title Defines interface for managers that can store any tokens and use for that purpose wallets\n* instead of keeping tokens on their own address. Keeps this contracts updatable with ease.\n*/\ncontract WalletBackedManagerInterface {\n    function wallet() constant returns (address);\n}\n\n/**\n * @title Universal decentralized ERC20 tokens rewards contract.\n *\n * One ERC20 token serves as a shares, and any number of other ERC20 tokens serve as rewards(assets).\n * Rewards distribution are divided in periods, the only thing that shareholder needs to do in\n * order to take part in distribution is prove to rewards contract that he possess certain amount\n * of shares before period closes. Prove is made through allowing rewards contract to take shares\n * from the shareholder, and then depositing it through a call to rewards contract. Proof is needed\n * for every period.\n *\n * When calculating rewards distribution, resulting amount is always rounded down.\n *\n * In order to be able to deposit shares, user needs to create allowance for wallet contract, using\n * standard ERC20 approve() function, so that contract can take shares from the user, when user\n * makes a dpeosit.\n *\n * Users can withdraw their shares at any moment, but only remaining shares will be used for\n * rewards distribution.\n * Users can withdraw their accumulated rewards at any moment.\n *\n * State flow:\n *   1. Period closed, next period started;\n *   2. Reward assets registered for last closed preiod;\n *   3. Rewards distributed for closed period;\n *   4. Shares deposited into current period;\n *   5. Repeat.\n *\n * Note: all the non constant functions return false instead of throwing in case if state change\n * didn't happen yet.\n */\ncontract Rewards is Deposits, RewardsEmitter {\n\n    uint constant ERROR_REWARD_NOT_FOUND = 9000;\n    uint constant ERROR_REWARD_INVALID_PARAMETER = 90001;\n    uint constant ERROR_REWARD_INVALID_INVOCATION = 9002;\n    uint constant ERROR_REWARD_INVALID_STATE = 9003;\n    uint constant ERROR_REWARD_INVALID_PERIOD = 9004;\n    uint constant ERROR_REWARD_NO_REWARDS_LEFT = 9005;\n    uint constant ERROR_REWARD_ASSET_TRANSFER_FAILED = 9006;\n    uint constant ERROR_REWARD_ALREADY_CALCULATED = 9007;\n    uint constant ERROR_REWARD_CALCULATION_FAILED = 9008;\n    uint constant ERROR_REWARD_CANNOT_CLOSE_PERIOD = 9009;\n    uint constant ERROR_REWARD_ASSET_ALREADY_REGISTERED = 9010;\n\n    StorageInterface.UInt closeInterval;\n    StorageInterface.UInt maxSharesTransfer;\n    StorageInterface.AddressAddressUIntMapping rewards;\n    StorageInterface.AddressUIntMapping rewardsLeft;\n    StorageInterface.UInt periods;\n    StorageInterface.UIntBoolMapping closed;\n    StorageInterface.UIntUIntMapping startDate;\n    StorageInterface.UIntUIntMapping totalShares;\n    StorageInterface.UIntAddressUIntMapping shares;\n    StorageInterface.UIntUIntMapping shareholdersCount;\n    StorageInterface.UIntAddressUIntMapping assetBalances;\n    StorageInterface.UIntAddressAddressBoolMapping calculated;\n    StorageInterface.Address targetPlatform;\n    StorageInterface.Address walletStorage;\n\n    function Rewards(Storage _store, bytes32 _crate) Deposits(_store, _crate) {\n        closeInterval.init('closeInterval');\n        maxSharesTransfer.init('maxSharesTransfer');\n        rewards.init('rewards');\n        rewardsLeft.init('rewardsLeft');\n        periods.init('periods');\n        totalShares.init('totalShares');\n        shareholdersCount.init('shareholdersCount');\n        closed.init('closed');\n        startDate.init('startDate');\n        assetBalances.init('assetBalances');\n        calculated.init('calculated');\n        shares.init('shares');\n        targetPlatform.init('targetPlatform');\n        walletStorage.init(\"rewardsWalletStorage\");\n    }\n\n    /**\n     * Sets ContractManager contract and period minimum length.\n     * Starts the first period.\n     *\n     * Can be set only once.\n     *\n     * @param _contractsManager contracts Manager contract address.\n     * @param _closeIntervalDays period minimum length, in days.\n     *\n     * @return result code, @see Errors\n     */\n    function init(address _contractsManager, address _wallet, address _targetPlatform, uint _closeIntervalDays) onlyContractOwner returns (uint) {\n        uint result = BaseManager.init(_contractsManager, \"Rewards\");\n\n        store.set(closeInterval, _closeIntervalDays);\n        store.set(targetPlatform, _targetPlatform);\n        store.set(walletStorage, _wallet);\n\n        // do not update default values if reinitialization\n        if (REINITIALIZED != result) {\n            store.set(startDate,0,now);\n            store.set(maxSharesTransfer,30);\n        }\n\n        return OK;\n    }\n\n    /**\n    * @dev Gets wallet address used to store tokens\n    *\n    * @return wallet address\n    */\n    function wallet() public constant returns (address) {\n        return store.get(walletStorage);\n    }\n\n    function getCloseInterval() constant returns(uint) {\n        return store.get(closeInterval);\n    }\n\n    function setCloseInterval(uint _closeInterval) onlyAuthorized returns(uint) {\n        store.set(closeInterval,_closeInterval);\n        return OK;\n    }\n\n    function getMaxSharesTransfer() constant returns(uint) {\n        return store.get(maxSharesTransfer);\n    }\n\n    function setMaxSharesTransfer(uint _maxSharesTransfer) onlyAuthorized returns (uint) {\n        store.set(maxSharesTransfer,_maxSharesTransfer);\n        return OK;\n    }\n\n    function getRewardsLeft(address shareholder) constant returns(uint) {\n        return store.get(rewardsLeft,shareholder);\n    }\n\n    function periodsLength() constant returns(uint) {\n        return store.get(periods);\n    }\n\n    function periodUnique(uint _period) constant returns(uint) {\n        if(_period == lastPeriod()) {\n            return store.count(shareholders);\n        } else {\n            return store.get(shareholdersCount,_period);\n        }\n    }\n\n    function getAssets() constant returns(address[] result) {\n        address _targetPlatform = store.get(targetPlatform);\n        AssetsManagerInterface assetsManager = AssetsManagerInterface(lookupManager(\"AssetsManager\"));\n        address chronoMintWallet = WalletBackedManagerInterface(lookupManager(\"LOCManager\")).wallet();\n        uint assetsCount = assetsManager.getAssetsForOwnerCount(_targetPlatform, chronoMintWallet);\n        result = new address[](assetsCount);\n        bytes32 symbol;\n        for (uint idx = 0; idx < assetsCount; ++idx) {\n            symbol = assetsManager.getAssetForOwnerAtIndex(_targetPlatform, chronoMintWallet, idx);\n            result[idx] = assetsManager.getAssetBySymbol(symbol);\n        }\n    }\n\n    /**\n     * Close current active period and start the new period.\n     *\n     * Can only be done if period was active longer than minimum length.\n     *\n     * @return success.\n     */\n    function closePeriod() onlyAuthorized returns (uint resultCode) {\n        uint period = lastPeriod();\n        if ((store.get(startDate,period) + (store.get(closeInterval) * 1 days)) > now) {\n            return _emitError(ERROR_REWARD_CANNOT_CLOSE_PERIOD);\n        }\n\n        uint _totalSharesPeriod = store.get(totalSharesStorage);\n        uint _shareholdersCount = store.count(shareholders);\n        store.set(totalShares, period, _totalSharesPeriod);\n        store.set(shareholdersCount, period, _shareholdersCount);\n        address[] memory assets = getAssets();\n        if (assets.length != 0) {\n            for (uint i = 0; i < assets.length; i++) {\n                uint result = registerAsset(assets[i], period);\n                if (OK != result) {\n                    // do not interrupt, just emit an Event\n                    emitError(result);\n                }\n            }\n        }\n        store.set(periods,++period);\n        store.set(startDate,period,now);\n        resultCode = storeDeposits(assets);\n        if (resultCode == OK) {\n            _emitPeriodClosed();\n        }\n    }\n\n    function getPeriodStartDate(uint _period) constant returns (uint) {\n        return store.get(startDate, _period);\n    }\n\n    /**\n    *  @return error code and still left shares. `sharesLeft` is actual only\n    *  if `errorCode` == OK, otherwise `sharesLeft` must be ignored.\n    */\n    function storeDeposits() onlyAuthorized returns (uint resultCode) {\n        resultCode = storeDeposits(getAssets());\n    }\n\n    function storeDeposits(address[] assets) internal returns (uint result) {\n        uint period = lastClosedPeriod();\n        uint period_end = getPeriodStartDate(lastPeriod());\n        StorageInterface.Iterator memory iterator = store.listIterator(shareholders);\n        uint amount;\n        uint j;\n        for(uint i = 0; store.canGetNextWithIterator(shareholders, iterator); i++) {\n            address shareholder = store.getNextWithIterator(shareholders, iterator);\n            amount = 0;\n            StorageInterface.Iterator memory iterator2 = store.listIterator(deposits,bytes32(shareholder));\n            for(j = 0; store.canGetNextWithIterator(deposits, iterator2); j++) {\n                uint id = store.getNextWithIterator(deposits,iterator2);\n                uint timestamp = store.get(timestamps,shareholder,id);\n                if(timestamp <= period_end) {\n                    amount += store.get(amounts,shareholder,id);\n                }\n            }\n            for(j = 0; j < assets.length; j++) {\n                result = calculateRewardFor(assets[j],shareholder,amount,period);\n                if(OK != result) {\n                    _emitError(result);\n                }\n            }\n            store.set(shares,period,shareholder,amount);\n        }\n\n        store.set(closed, period, true);\n\n        return OK;\n    }\n\n    function registerAsset(address _asset, uint _period) internal returns (uint) {\n        if (store.get(sharesContractStorage) == _asset) {\n            return _emitError(ERROR_REWARD_ASSET_ALREADY_REGISTERED);\n        }\n        uint period_balance = store.get(assetBalances,_period,_asset);\n        if (period_balance != 0) {\n            return _emitError(ERROR_REWARD_ASSET_ALREADY_REGISTERED);\n        }\n\n        uint balance = ERC20Interface(_asset).balanceOf(wallet());\n        uint left = store.get(rewardsLeft,_asset);\n        store.set(assetBalances,_period,_asset,balance - left);\n        store.set(rewardsLeft,_asset,balance);\n\n        _emitAssetRegistered(address(_asset));\n        return OK;\n    }\n\n    function calculateRewardFor(address _assetAddress, address _address, uint _amount, uint _period) internal returns (uint e) {\n        uint assetBalance = store.get(assetBalances,_period,_assetAddress);\n        if (assetBalance == 0) {\n            return ERROR_REWARD_CALCULATION_FAILED;\n        }\n\n        if (store.get(calculated,_period,_assetAddress,_address)) {\n            return ERROR_REWARD_ALREADY_CALCULATED;\n        }\n\n        uint totalSharesPeriod = store.get(totalShares,_period);\n        uint reward =  assetBalance * _amount / totalSharesPeriod;\n        uint cur_reward = store.get(rewards,_assetAddress,_address);\n        store.set(rewards,_assetAddress,_address,cur_reward + reward);\n        store.set(calculated,_period,_assetAddress,_address,true);\n\n        return OK;\n    }\n\n    /**\n     * Withdraw accumulated reward of a specified rewards asset.\n     *\n     * Withdrawal is made for caller and total amount.\n     *\n     * @param _asset registered rewards asset contract address.\n     *\n     * @return success.\n     */\n    function withdrawRewardTotal(address _asset) returns (uint) {\n        return withdrawRewardFor(_asset, msg.sender, rewardsFor(_asset, msg.sender));\n    }\n\n    /**\n     * Withdraw all accumulated rewards.\n     *\n     * Withdrawals are made for caller and total amount.\n     *\n     * @return result code.\n     */\n    function withdrawAllRewardsTotal() returns (uint) {\n        address[] memory _assets = getAssets();\n        for (uint i=0; i < _assets.length; i++) {\n            uint _rewards = rewardsFor(_assets[i], msg.sender);\n            if (_rewards > 0) {\n                uint result = withdrawRewardFor(_assets[i], msg.sender, _rewards);\n                if (OK != result) {\n                    return result;\n                }\n            }\n        }\n\n        return OK;\n    }\n\n    /**\n     * Withdraw accumulated reward of a specified rewards asset.\n     *\n     * Withdrawal is made for specified shareholder and total amount.\n     *\n     * This function meant to be used by some backend application to send rewards\n     * for arbitrary shareholders.\n     *\n     * @param _asset registered rewards asset contract address.\n     * @param _address shareholder address to withdraw for.\n     *\n     * @return success.\n     */\n    /*function withdrawRewardTotalFor(address _asset, address _address) returns (uint) {\n        return withdrawRewardFor(_asset, _address, rewardsFor(_asset, _address));\n    }*/\n\n    /**\n     * Withdraw accumulated reward of a specified rewards asset.\n     *\n     * Withdrawal is made for caller and specified amount.\n     *\n     * @param _asset registered rewards asset contract address.\n     * @param _amount amount to withdraw.\n     *\n     * @return success.\n     */\n    function withdrawReward(address _asset, uint _amount) returns (uint) {\n        return withdrawRewardFor(_asset, msg.sender, _amount);\n    }\n\n    /**\n     * Withdraw accumulated reward of a specified rewards asset.\n     *\n     * Withdrawal is made for specified shareholder and specified amount.\n     *\n     * @param _asset registered rewards asset contract address.\n     * @param _address shareholder address to withdraw for.\n     * @param _amount amount to withdraw.\n     *\n     * @return success.\n     */\n    function withdrawRewardFor(address _asset, address _address, uint _amount) internal returns (uint) {\n        if (store.get(rewardsLeft,_asset) == 0) {\n            return _emitError(ERROR_REWARD_NO_REWARDS_LEFT);\n        }\n\n        // Assuming that transfer(amount) of unknown asset may not result in exactly\n        // amount being taken from rewards contract(i. e. fees taken) we check contracts\n        // balance before and after transfer, and proceed with the difference.\n        address _wallet = wallet();\n        uint startBalance = ERC20Interface(_asset).balanceOf(_wallet);\n        if (!DepositWalletInterface(_wallet).withdraw(_asset, _address, _amount)) {\n            return _emitError(ERROR_REWARD_ASSET_TRANSFER_FAILED);\n        }\n\n        uint endBalance = ERC20Interface(_asset).balanceOf(_wallet);\n        uint diff = startBalance - endBalance;\n        if (rewardsFor(_asset, _address) < diff) {\n            revert();\n        }\n\n        store.set(rewards,_asset,_address,store.get(rewards,_asset,_address) - diff);\n        store.set(rewardsLeft,_asset, store.get(rewardsLeft,_asset) - diff);\n\n        _emitWithdrawnReward(_asset, _address, _amount);\n        return OK;\n    }\n\n    /**\n     * Returns proven amount of shares possessed by a shareholder in a period.\n     *\n     * @param _address shareholder address.\n     * @param _period period.\n     *\n     * @return shares amount.\n     */\n    function depositBalanceInPeriod(address _address, uint _period) constant returns (uint) {\n        if(_period == lastPeriod()) {\n            return depositBalance(_address);\n        }\n        return store.get(shares,_period,_address);\n    }\n\n    /**\n     * Returns total proven amount of shares possessed by shareholders in a period.\n     *\n     * @param _period period.\n     *\n     * @return shares amount.\n     */\n    function totalDepositInPeriod(uint _period) constant returns(uint) {\n        if(_period == lastPeriod()) {\n            return store.get(totalSharesStorage);\n        }\n        return store.get(totalShares,_period);\n    }\n\n    /**\n     * Returns current active period.\n     *\n     * @return period.\n     */\n    function lastPeriod() constant returns(uint) {\n        return store.get(periods);\n    }\n\n    /**\n     * Returns last closed period.\n     *\n     * @dev throws in case if there is no closed periods yet.\n     *\n     * @return period.\n     */\n    function lastClosedPeriod() constant returns(uint) {\n        if (store.get(periods) == 0) {\n            return ERROR_REWARD_NOT_FOUND;\n        }\n        return store.get(periods) - 1;\n    }\n\n    /**\n     * Check if period is closed or not.\n     *\n     * @param _period period.\n     *\n     * @return period closing state.\n     */\n    function isClosed(uint _period) constant returns(bool) {\n        return store.get(closed,_period);\n    }\n\n    /**\n     * Returns amount of accumulated rewards assets in a period.\n     * Always 0 for active period.\n     *\n     * @param _assetAddress rewards asset contract address.\n     * @param _period period.\n     *\n     * @return assets amount.\n     */\n    function assetBalanceInPeriod(address _assetAddress, uint _period) constant returns(uint) {\n        return store.get(assetBalances,_period,_assetAddress);\n    }\n\n    /**\n     * Check if shareholder have calculated rewards in a period.\n     *\n     * @param _assetAddress rewards asset contract address.\n     * @param _address shareholder address.\n     * @param _period period.\n     *\n     * @return reward calculation state.\n     */\n    function isCalculatedFor(address _assetAddress, address _address, uint _period) constant returns(bool) {\n        return store.get(calculated,_period,_assetAddress,_address);\n    }\n\n    /**\n     * Returns accumulated asset rewards available for withdrawal for shareholder.\n     *\n     * @param _assetAddress rewards asset contract address.\n     * @param _address shareholder address.\n     *\n     * @return rewards amount.\n     */\n    function rewardsFor(address _assetAddress, address _address) constant returns(uint) {\n        return store.get(rewards, _assetAddress, _address);\n    }\n\n    // Even emitter util functions\n\n    function _emitWithdrawnReward(address asset, address addr, uint amount) {\n        Rewards(getEventsHistory()).emitWithdrawnReward(asset, addr, amount);\n    }\n\n    function _emitWithdrawn(address addr, uint amount, uint total) {\n        Rewards(getEventsHistory()).emitWithdrawn(addr, amount, total);\n    }\n\n    function _emitDepositStored(uint _part) {\n        Rewards(getEventsHistory()).emitDepositStored(_part);\n    }\n\n    function _emitAssetRegistered(address assetAddress) {\n        Rewards(getEventsHistory()).emitAssetRegistered(assetAddress);\n    }\n\n    function _emitPeriodClosed() {\n        Rewards(getEventsHistory()).emitPeriodClosed();\n    }\n\n    function _emitError(uint e) returns (uint) {\n        Rewards(getEventsHistory()).emitError(e);\n        return e;\n    }\n\n    function() {\n        revert();\n    }\n}\n",
  "sourcePath": "/Users/ahiatsevich/Development/chronobank/SmartContracts/contracts/reward/Rewards.sol",
  "compiler": {
    "name": "solc",
    "version": "0.4.18+commit.9cf6e910.Emscripten.clang"
  },
  "schemaVersion": "1.0.1",
  "updatedAt": "2018-01-11T22:35:11.841Z"
}