{
  "contractName": "StorageManager",
  "abi": [
    {
      "constant": false,
      "inputs": [
        {
          "name": "_user",
          "type": "address"
        },
        {
          "name": "_role",
          "type": "bytes32"
        }
      ],
      "name": "emitAccessBlocked",
      "outputs": [],
      "payable": false,
      "stateMutability": "nonpayable",
      "type": "function"
    },
    {
      "constant": false,
      "inputs": [
        {
          "name": "_user",
          "type": "address"
        },
        {
          "name": "_role",
          "type": "bytes32"
        }
      ],
      "name": "emitAccessGiven",
      "outputs": [],
      "payable": false,
      "stateMutability": "nonpayable",
      "type": "function"
    },
    {
      "constant": false,
      "inputs": [],
      "name": "claimContractOwnership",
      "outputs": [
        {
          "name": "",
          "type": "bool"
        }
      ],
      "payable": false,
      "stateMutability": "nonpayable",
      "type": "function"
    },
    {
      "constant": false,
      "inputs": [
        {
          "name": "_to",
          "type": "address"
        }
      ],
      "name": "changeContractOwnership",
      "outputs": [
        {
          "name": "",
          "type": "bool"
        }
      ],
      "payable": false,
      "stateMutability": "nonpayable",
      "type": "function"
    },
    {
      "constant": true,
      "inputs": [],
      "name": "pendingContractOwner",
      "outputs": [
        {
          "name": "",
          "type": "address"
        }
      ],
      "payable": false,
      "stateMutability": "view",
      "type": "function"
    },
    {
      "constant": true,
      "inputs": [
        {
          "name": "_actor",
          "type": "address"
        },
        {
          "name": "_role",
          "type": "bytes32"
        }
      ],
      "name": "isAllowed",
      "outputs": [
        {
          "name": "",
          "type": "bool"
        }
      ],
      "payable": false,
      "stateMutability": "view",
      "type": "function"
    },
    {
      "constant": true,
      "inputs": [
        {
          "name": "",
          "type": "bytes32"
        }
      ],
      "name": "accessRights",
      "outputs": [
        {
          "name": "",
          "type": "bool"
        }
      ],
      "payable": false,
      "stateMutability": "view",
      "type": "function"
    },
    {
      "constant": false,
      "inputs": [],
      "name": "destroy",
      "outputs": [],
      "payable": false,
      "stateMutability": "nonpayable",
      "type": "function"
    },
    {
      "constant": false,
      "inputs": [
        {
          "name": "_actor",
          "type": "address"
        },
        {
          "name": "_role",
          "type": "bytes32"
        }
      ],
      "name": "giveAccess",
      "outputs": [
        {
          "name": "",
          "type": "uint256"
        }
      ],
      "payable": false,
      "stateMutability": "nonpayable",
      "type": "function"
    },
    {
      "constant": true,
      "inputs": [
        {
          "name": "_actor",
          "type": "address"
        }
      ],
      "name": "hasAccess",
      "outputs": [
        {
          "name": "",
          "type": "bool"
        }
      ],
      "payable": false,
      "stateMutability": "view",
      "type": "function"
    },
    {
      "constant": false,
      "inputs": [
        {
          "name": "_to",
          "type": "address"
        }
      ],
      "name": "transferContractOwnership",
      "outputs": [
        {
          "name": "",
          "type": "bool"
        }
      ],
      "payable": false,
      "stateMutability": "nonpayable",
      "type": "function"
    },
    {
      "constant": false,
      "inputs": [
        {
          "name": "_actor",
          "type": "address"
        },
        {
          "name": "_role",
          "type": "bytes32"
        }
      ],
      "name": "blockAccess",
      "outputs": [
        {
          "name": "",
          "type": "uint256"
        }
      ],
      "payable": false,
      "stateMutability": "nonpayable",
      "type": "function"
    },
    {
      "constant": true,
      "inputs": [],
      "name": "contractOwner",
      "outputs": [
        {
          "name": "",
          "type": "address"
        }
      ],
      "payable": false,
      "stateMutability": "view",
      "type": "function"
    },
    {
      "constant": true,
      "inputs": [
        {
          "name": "",
          "type": "address"
        }
      ],
      "name": "authorised",
      "outputs": [
        {
          "name": "",
          "type": "uint256"
        }
      ],
      "payable": false,
      "stateMutability": "view",
      "type": "function"
    },
    {
      "constant": false,
      "inputs": [
        {
          "name": "tokens",
          "type": "address[]"
        },
        {
          "name": "_to",
          "type": "address"
        }
      ],
      "name": "withdrawnTokens",
      "outputs": [
        {
          "name": "",
          "type": "uint256"
        }
      ],
      "payable": false,
      "stateMutability": "nonpayable",
      "type": "function"
    },
    {
      "anonymous": false,
      "inputs": [
        {
          "indexed": true,
          "name": "self",
          "type": "address"
        },
        {
          "indexed": false,
          "name": "actor",
          "type": "address"
        },
        {
          "indexed": false,
          "name": "role",
          "type": "bytes32"
        }
      ],
      "name": "AccessGiven",
      "type": "event"
    },
    {
      "anonymous": false,
      "inputs": [
        {
          "indexed": true,
          "name": "self",
          "type": "address"
        },
        {
          "indexed": false,
          "name": "actor",
          "type": "address"
        },
        {
          "indexed": false,
          "name": "role",
          "type": "bytes32"
        }
      ],
      "name": "AccessBlocked",
      "type": "event"
    },
    {
      "anonymous": false,
      "inputs": [
        {
          "indexed": true,
          "name": "self",
          "type": "address"
        },
        {
          "indexed": false,
          "name": "errorCode",
          "type": "uint256"
        }
      ],
      "name": "Error",
      "type": "event"
    }
  ],
  "bytecode": "0x606060405260008054600160a060020a033316600160a060020a031990911617905561095b806100306000396000f3006060604052600436106100c15763ffffffff60e060020a600035041663157fbd8d81146100c65780632c19d480146100ea5780634592cd1d1461010c578063557f4bc9146101335780635aa77d3c146101525780635cb8dd09146101815780637a7f3453146101a357806383197ef0146101b957806385c53cf1146101cc57806395a078e814610200578063a843c51f1461021f578063bd17a9d81461023e578063ce606ee014610260578063d6eb1bbf14610273578063d8f9659b14610292575b600080fd5b34156100d157600080fd5b6100e8600160a060020a03600435166024356102ec565b005b34156100f557600080fd5b6100e8600160a060020a036004351660243561033e565b341561011757600080fd5b61011f610390565b604051901515815260200160405180910390f35b341561013e57600080fd5b61011f600160a060020a03600435166103e8565b341561015d57600080fd5b610165610447565b604051600160a060020a03909116815260200160405180910390f35b341561018c57600080fd5b61011f600160a060020a0360043516602435610456565b34156101ae57600080fd5b61011f6004356104c8565b34156101c457600080fd5b6100e86104dd565b34156101d757600080fd5b6101ee600160a060020a0360043516602435610502565b60405190815260200160405180910390f35b341561020b57600080fd5b61011f600160a060020a03600435166105f6565b341561022a57600080fd5b61011f600160a060020a036004351661062b565b341561024957600080fd5b6101ee600160a060020a03600435166024356106bc565b341561026b57600080fd5b6101656107bf565b341561027e57600080fd5b6101ee600160a060020a03600435166107ce565b341561029d57600080fd5b6101ee600460248135818101908301358060208181020160405190810160405280939291908181526020018383602002808284375094965050509235600160a060020a031692506107e0915050565b30600160a060020a03167fd21adfcaa3724e99864abea371528f9aa867d0b433e7d29dd972bf8d839ce4678383604051600160a060020a03909216825260208201526040908101905180910390a25050565b30600160a060020a03167fb6798040b2ff718946767eb5764382753f7d49017204678c8905ccbd393f48bc8383604051600160a060020a03909216825260208201526040908101905180910390a25050565b60015460009033600160a060020a039081169116146103b1575060006103e5565b50600180546000805473ffffffffffffffffffffffffffffffffffffffff19908116600160a060020a038416179091551681555b90565b6000805433600160a060020a039081169116141561044257600160a060020a038216151561041857506000610442565b506001805473ffffffffffffffffffffffffffffffffffffffff1916600160a060020a0383161781555b919050565b600154600160a060020a031681565b6000600360008484604051600160a060020a03929092166c010000000000000000000000000282526014820152603401604051908190039020815260208101919091526040016000205460ff16806104bf575082600160a060020a031630600160a060020a0316145b90505b92915050565b60036020526000908152604090205460ff1681565b60005433600160a060020a03908116911614156105005733600160a060020a0316ff5b565b6000805433600160a060020a03908116911614156104c257600360008484604051600160a060020a03929092166c010000000000000000000000000282526014820152603401604051908190039020815260208101919091526040016000205460ff1615156105ed576001600360008585604051600160a060020a03929092166c010000000000000000000000000282526014820152603401604051908190039020815260208082019290925260409081016000908120805460ff191694151594909417909355600160a060020a038616835260029091529020805460010190556105ed838361033e565b50600192915050565b600160a060020a038116600090815260026020526040812054819011806104c257505030600160a060020a0390811691161490565b6000805433600160a060020a039081169116141561044257600160a060020a038216151561065b57506000610442565b600154600160a060020a03161561068a576001805473ffffffffffffffffffffffffffffffffffffffff191690555b5060008054600160a060020a03831673ffffffffffffffffffffffffffffffffffffffff199091161790556001919050565b6000805433600160a060020a03908116911614156104c257600360008484604051600160a060020a03929092166c010000000000000000000000000282526014820152603401604051908190039020815260208101919091526040016000205460ff16156105ed57600360008484604051600160a060020a03929092166c010000000000000000000000000282526014820152603401604051908190039020815260208082019290925260409081016000908120805460ff19169055600160a060020a0386168152600290925290208054600019019081905515156107b557600160a060020a0383166000908152600260205260408120555b6105ed83836102ec565b600054600160a060020a031681565b60026020526000908152604090205481565b6000805481908190819033600160a060020a039081169116141561092657600092505b85518310156109215785838151811061081857fe5b90602001906020020151915081600160a060020a03166370a082313060006040516020015260405160e060020a63ffffffff8416028152600160a060020a039091166004820152602401602060405180830381600087803b151561087b57600080fd5b6102c65a03f1151561088c57600080fd5b505050604051805191505080156109165781600160a060020a031663a9059cbb868360006040516020015260405160e060020a63ffffffff8516028152600160a060020a0390921660048301526024820152604401602060405180830381600087803b15156108fa57600080fd5b6102c65a03f1151561090b57600080fd5b505050604051805150505b600190920191610803565b600193505b505050929150505600a165627a7a723058205425a570500da663fdbb3337c7932ed6e753d3a5d0d4b4b1eeac7c722df481bc0029",
  "source": "pragma solidity ^0.4.11;\n\nimport '../common/Object.sol';\nimport '../event/MultiEventsHistoryAdapter.sol';\n\ncontract StorageManager is MultiEventsHistoryAdapter, Object {\n\n    uint constant ERROR_STORAGE_INVALID_INVOCATION = 5000;\n\n    event AccessGiven(address indexed self, address actor, bytes32 role);\n    event AccessBlocked(address indexed self, address actor, bytes32 role);\n    event Error(address indexed self, uint errorCode);\n\n    mapping (address => uint) public authorised;\n    mapping (bytes32 => bool) public accessRights;\n\n    function giveAccess(address _actor, bytes32 _role) onlyContractOwner() returns(uint) {\n        if (!accessRights[sha3(_actor, _role)]) {\n            accessRights[sha3(_actor, _role)] = true;\n            authorised[_actor] += 1;\n            emitAccessGiven(_actor, _role);\n        }\n\n        return OK;\n    }\n\n    function blockAccess(address _actor, bytes32 _role) onlyContractOwner() returns(uint) {\n        if (accessRights[sha3(_actor, _role)]) {\n            delete accessRights[sha3(_actor, _role)];\n            authorised[_actor] -= 1;\n            if (authorised[_actor] == 0) {\n                delete authorised[_actor];\n            }\n            emitAccessBlocked(_actor, _role);\n        }\n\n        return OK;\n    }\n\n    function isAllowed(address _actor, bytes32 _role) constant returns(bool) {\n        return accessRights[sha3(_actor, _role)] || (this == _actor);\n    }\n\n    function hasAccess(address _actor) constant returns(bool) {\n        return (authorised[_actor] > 0) || (this == _actor);\n    }\n\n    function emitAccessGiven(address _user, bytes32 _role) {\n        AccessGiven(this, _user, _role);\n    }\n\n    function emitAccessBlocked(address _user, bytes32 _role) {\n        AccessBlocked(this, _user, _role);\n    }\n}\n",
  "sourcePath": "/Users/mikefluff/Documents/Programming/Chronobank/test/SmartContracts/contracts/core/storage/StorageManager.sol",
  "compiler": {
    "name": "solc",
    "version": "0.4.18+commit.9cf6e910.Emscripten.clang"
  },
  "schemaVersion": "1.0.1",
  "updatedAt": "2018-01-13T06:43:37.353Z"
}