{
  "contractName": "TIME",
  "abi": [
    {
      "constant": false,
      "inputs": [
        {
          "name": "_proxy",
          "type": "address"
        }
      ],
      "name": "init",
      "outputs": [
        {
          "name": "",
          "type": "bool"
        }
      ],
      "payable": false,
      "stateMutability": "nonpayable",
      "type": "function"
    },
    {
      "constant": false,
      "inputs": [
        {
          "name": "_to",
          "type": "address"
        },
        {
          "name": "_value",
          "type": "uint256"
        },
        {
          "name": "_reference",
          "type": "string"
        },
        {
          "name": "_sender",
          "type": "address"
        }
      ],
      "name": "__transferWithReference",
      "outputs": [
        {
          "name": "",
          "type": "bool"
        }
      ],
      "payable": false,
      "stateMutability": "nonpayable",
      "type": "function"
    },
    {
      "constant": false,
      "inputs": [
        {
          "name": "_spender",
          "type": "address"
        },
        {
          "name": "_value",
          "type": "uint256"
        },
        {
          "name": "_sender",
          "type": "address"
        }
      ],
      "name": "__approve",
      "outputs": [
        {
          "name": "",
          "type": "bool"
        }
      ],
      "payable": false,
      "stateMutability": "nonpayable",
      "type": "function"
    },
    {
      "constant": true,
      "inputs": [],
      "name": "proxy",
      "outputs": [
        {
          "name": "",
          "type": "address"
        }
      ],
      "payable": false,
      "stateMutability": "view",
      "type": "function"
    },
    {
      "constant": false,
      "inputs": [
        {
          "name": "_from",
          "type": "address"
        },
        {
          "name": "_to",
          "type": "address"
        },
        {
          "name": "_value",
          "type": "uint256"
        },
        {
          "name": "_reference",
          "type": "string"
        },
        {
          "name": "_sender",
          "type": "address"
        }
      ],
      "name": "__transferFromWithReference",
      "outputs": [
        {
          "name": "",
          "type": "bool"
        }
      ],
      "payable": false,
      "stateMutability": "nonpayable",
      "type": "function"
    },
    {
      "constant": false,
      "inputs": [
        {
          "name": "_data",
          "type": "bytes"
        },
        {
          "name": "_sender",
          "type": "address"
        }
      ],
      "name": "__process",
      "outputs": [],
      "payable": true,
      "stateMutability": "payable",
      "type": "function"
    }
  ],
  "bytecode": "0x6060604052341561000f57600080fd5b6105e78061001e6000396000f30060606040526004361061005e5763ffffffff60e060020a60003504166319ab453c81146100635780636a630ee7146100965780637b7054c814610106578063ec5568891461012f578063ec698a281461015e578063f2d6e0ab146101d5575b600080fd5b341561006e57600080fd5b610082600160a060020a0360043516610228565b604051901515815260200160405180910390f35b34156100a157600080fd5b61008260048035600160a060020a03169060248035919060649060443590810190830135806020601f8201819004810201604051908101604052818152929190602084018383808284375094965050509235600160a060020a03169250610273915050565b341561011157600080fd5b610082600160a060020a0360043581169060243590604435166102a2565b341561013a57600080fd5b6101426102cf565b604051600160a060020a03909116815260200160405180910390f35b341561016957600080fd5b610082600160a060020a036004803582169160248035909116916044359160849060643590810190830135806020601f8201819004810201604051908101604052818152929190602084018383808284375094965050509235600160a060020a031692506102de915050565b61022660046024813581810190830135806020601f8201819004810201604051908101604052818152929190602084018383808284375094965050509235600160a060020a0316925061005e915050565b005b60008054600160a060020a0316156102425750600061026e565b506000805473ffffffffffffffffffffffffffffffffffffffff1916600160a060020a03831617905560015b919050565b6000805433600160a060020a039081169116141561029a576102978585858561030f565b90505b949350505050565b6000805433600160a060020a03908116911614156102c8576102c5848484610423565b90505b9392505050565b600054600160a060020a031681565b6000805433600160a060020a03908116911614156103065761030386868686866104b0565b90505b95945050505050565b60008054600160a060020a0316636a630ee78686868686604051602001526040518563ffffffff1660e060020a0281526004018085600160a060020a0316600160a060020a031681526020018481526020018060200183600160a060020a0316600160a060020a03168152602001828103825284818151815260200191508051906020019080838360005b838110156103b257808201518382015260200161039a565b50505050905090810190601f1680156103df5780820380516001836020036101000a031916815260200191505b5095505050505050602060405180830381600087803b151561040057600080fd5b6102c65a03f1151561041157600080fd5b50505060405180519695505050505050565b60008054600160a060020a0316637b7054c8858585856040516020015260405160e060020a63ffffffff8616028152600160a060020a03938416600482015260248101929092529091166044820152606401602060405180830381600087803b151561048e57600080fd5b6102c65a03f1151561049f57600080fd5b505050604051805195945050505050565b60008054600160a060020a031663ec698a288787878787876040516020015260405160e060020a63ffffffff8816028152600160a060020a0380871660048301908152868216602484015260448301869052908316608483015260a060648301908152909160a40184818151815260200191508051906020019080838360005b83811015610548578082015183820152602001610530565b50505050905090810190601f1680156105755780820380516001836020036101000a031916815260200191505b509650505050505050602060405180830381600087803b151561059757600080fd5b6102c65a03f115156105a857600080fd5b50505060405180519796505050505050505600a165627a7a72305820c771e00ca2bcea4ed6b6477832517a32342b155d545fe01787beaee25f1a10cc0029",
  "source": "pragma solidity ^0.4.11;\n\nimport \"../core/platform/ChronoBankAsset.sol\";\n\n/**\n * @title ChronoBank TIME tokens contract.\n *\n * The official ChronoBank TIME implementation.\n */\ncontract TIME is ChronoBankAsset {\n\n}\n",
  "sourcePath": "/Users/mikefluff/Documents/Programming/Chronobank/test/SmartContracts/contracts/assets/TIME.sol",
  "compiler": {
    "name": "solc",
    "version": "0.4.18+commit.9cf6e910.Emscripten.clang"
  },
  "schemaVersion": "1.0.1",
  "updatedAt": "2018-01-12T11:40:44.778Z"
}