{
  "contractName": "TimeHolderEmmiter",
  "abi": [
    {
      "constant": false,
      "inputs": [
        {
          "name": "who",
          "type": "address"
        },
        {
          "name": "amount",
          "type": "uint256"
        }
      ],
      "name": "emitWithdrawShares",
      "outputs": [],
      "payable": false,
      "stateMutability": "nonpayable",
      "type": "function"
    },
    {
      "constant": false,
      "inputs": [
        {
          "name": "listener",
          "type": "address"
        }
      ],
      "name": "emitListenerRemoved",
      "outputs": [],
      "payable": false,
      "stateMutability": "nonpayable",
      "type": "function"
    },
    {
      "constant": false,
      "inputs": [
        {
          "name": "who",
          "type": "address"
        },
        {
          "name": "amount",
          "type": "uint256"
        }
      ],
      "name": "emitDeposit",
      "outputs": [],
      "payable": false,
      "stateMutability": "nonpayable",
      "type": "function"
    },
    {
      "constant": false,
      "inputs": [
        {
          "name": "listener",
          "type": "address"
        }
      ],
      "name": "emitListenerAdded",
      "outputs": [],
      "payable": false,
      "stateMutability": "nonpayable",
      "type": "function"
    },
    {
      "constant": false,
      "inputs": [
        {
          "name": "_from",
          "type": "address"
        },
        {
          "name": "_to",
          "type": "address"
        },
        {
          "name": "_amount",
          "type": "uint256"
        }
      ],
      "name": "emitFeatureFeeTaken",
      "outputs": [],
      "payable": false,
      "stateMutability": "nonpayable",
      "type": "function"
    },
    {
      "constant": false,
      "inputs": [
        {
          "name": "error",
          "type": "uint256"
        }
      ],
      "name": "emitError",
      "outputs": [],
      "payable": false,
      "stateMutability": "nonpayable",
      "type": "function"
    },
    {
      "anonymous": false,
      "inputs": [
        {
          "indexed": false,
          "name": "who",
          "type": "address"
        },
        {
          "indexed": false,
          "name": "amount",
          "type": "uint256"
        }
      ],
      "name": "Deposit",
      "type": "event"
    },
    {
      "anonymous": false,
      "inputs": [
        {
          "indexed": false,
          "name": "who",
          "type": "address"
        },
        {
          "indexed": false,
          "name": "amount",
          "type": "uint256"
        }
      ],
      "name": "WithdrawShares",
      "type": "event"
    },
    {
      "anonymous": false,
      "inputs": [
        {
          "indexed": false,
          "name": "listener",
          "type": "address"
        }
      ],
      "name": "ListenerAdded",
      "type": "event"
    },
    {
      "anonymous": false,
      "inputs": [
        {
          "indexed": false,
          "name": "listener",
          "type": "address"
        }
      ],
      "name": "ListenerRemoved",
      "type": "event"
    },
    {
      "anonymous": false,
      "inputs": [
        {
          "indexed": false,
          "name": "self",
          "type": "address"
        },
        {
          "indexed": true,
          "name": "from",
          "type": "address"
        },
        {
          "indexed": true,
          "name": "to",
          "type": "address"
        },
        {
          "indexed": false,
          "name": "amount",
          "type": "uint256"
        }
      ],
      "name": "FeatureFeeTaken",
      "type": "event"
    },
    {
      "anonymous": false,
      "inputs": [
        {
          "indexed": true,
          "name": "self",
          "type": "address"
        },
        {
          "indexed": false,
          "name": "errorCode",
          "type": "uint256"
        }
      ],
      "name": "Error",
      "type": "event"
    }
  ],
  "bytecode": "0x6060604052341561000f57600080fd5b6103298061001e6000396000f3006060604052600436106100775763ffffffff7c01000000000000000000000000000000000000000000000000000000006000350416630561de9b811461007c5780631c3a19ed146100a057806328ba84ca146100bf5780633864a9a9146100e15780639826ad6914610100578063df26ca0814610128575b600080fd5b341561008757600080fd5b61009e600160a060020a036004351660243561013e565b005b34156100ab57600080fd5b61009e600160a060020a0360043516610186565b34156100ca57600080fd5b61009e600160a060020a03600435166024356101c6565b34156100ec57600080fd5b61009e600160a060020a036004351661020e565b341561010b57600080fd5b61009e600160a060020a036004358116906024351660443561024e565b341561013357600080fd5b61009e6004356102b2565b7f65acde034bd1126095b070c3dab2499d374f97ad47387adfb86ba47b0240a24f8282604051600160a060020a03909216825260208201526040908101905180910390a15050565b7ff8719b53666b7bc68a4c9d081dccc309d69026d56bdeaa8518620d6ff831d18981604051600160a060020a03909116815260200160405180910390a150565b7fe1fffcc4923d04b559f4d29a8bfc6cda04eb5b0d3c460751c2402c5c5cc9109c8282604051600160a060020a03909216825260208201526040908101905180910390a15050565b7ff4b5d7970f8d26d7e8c6b74e8ffad0e1b0f67bc7f92238bd7efd485731eceafa81604051600160a060020a03909116815260200160405180910390a150565b81600160a060020a031683600160a060020a03167f2943030ec8237acc21c9f7b88449db73d4b0f8e1c64675fa50b58844c9fb69ec61028b6102f9565b84604051600160a060020a03909216825260208201526040908101905180910390a3505050565b6102ba6102f9565b600160a060020a03167f9cf38cf2dbf9139f5c32639950507b10775fbbe0421f3e168bc2d1bb1ae3208c8260405190815260200160405180910390a250565b33905600a165627a7a723058202711653ee5147b1cae83e9e44053e7323983f97490071c6fd1f449bb2e3f1a470029",
  "source": "pragma solidity ^0.4.11;\n\nimport '../core/event/MultiEventsHistoryAdapter.sol';\n\ncontract TimeHolderEmmiter is MultiEventsHistoryAdapter {\n    /**\n    *  User deposited into current period.\n    */\n    event Deposit(address who, uint amount);\n\n    /**\n    *  Shares withdrawn by a shareholder.\n    */\n    event WithdrawShares(address who, uint amount);\n\n    /**\n    *  Shares withdrawn by a shareholder.\n    */\n    event ListenerAdded(address listener);\n\n    /**\n    * Shares listener is removed\n    */\n    event ListenerRemoved(address listener);\n\n    /**\n    * Fee for Feature is taken\n    */\n    event FeatureFeeTaken(address self, address indexed from, address indexed to, uint amount);\n\n    /**\n    *  Something went wrong.\n    */\n    event Error(address indexed self, uint errorCode);\n\n    function emitDeposit(address who, uint amount) {\n        Deposit(who, amount);\n    }\n\n    function emitWithdrawShares(address who, uint amount) {\n        WithdrawShares(who, amount);\n    }\n\n    function emitListenerAdded(address listener) {\n        ListenerAdded(listener);\n    }\n\n    function emitListenerRemoved(address listener) {\n        ListenerRemoved(listener);\n    }\n\n    function emitFeatureFeeTaken(address _from, address _to, uint _amount) {\n        FeatureFeeTaken(_self(), _from, _to, _amount);\n    }\n\n    function emitError(uint error) {\n        Error(_self(), error);\n    }\n}\n",
  "sourcePath": "/Users/ahiatsevich/Development/chronobank/SmartContracts/contracts/timeholder/TimeHolderEmmiter.sol",
  "compiler": {
    "name": "solc",
    "version": "0.4.18+commit.9cf6e910.Emscripten.clang"
  },
  "schemaVersion": "1.0.1",
  "updatedAt": "2017-12-11T12:14:44.819Z"
}