{
  "contractName": "TimeLimitedCrowdsale",
  "abi": [
    {
      "constant": true,
      "inputs": [],
      "name": "getSymbol",
      "outputs": [
        {
          "name": "",
          "type": "bytes32"
        }
      ],
      "payable": false,
      "stateMutability": "view",
      "type": "function"
    },
    {
      "constant": true,
      "inputs": [],
      "name": "isRunning",
      "outputs": [
        {
          "name": "",
          "type": "bool"
        }
      ],
      "payable": false,
      "stateMutability": "view",
      "type": "function"
    },
    {
      "constant": true,
      "inputs": [
        {
          "name": "",
          "type": "bytes32"
        }
      ],
      "name": "raised",
      "outputs": [
        {
          "name": "",
          "type": "uint256"
        }
      ],
      "payable": false,
      "stateMutability": "view",
      "type": "function"
    },
    {
      "constant": false,
      "inputs": [
        {
          "name": "_investor",
          "type": "address"
        },
        {
          "name": "_currencyCode",
          "type": "bytes32"
        }
      ],
      "name": "refund",
      "outputs": [
        {
          "name": "",
          "type": "uint256"
        }
      ],
      "payable": false,
      "stateMutability": "nonpayable",
      "type": "function"
    },
    {
      "constant": false,
      "inputs": [],
      "name": "withdraw",
      "outputs": [],
      "payable": false,
      "stateMutability": "nonpayable",
      "type": "function"
    },
    {
      "constant": false,
      "inputs": [
        {
          "name": "_salesAgent",
          "type": "address"
        },
        {
          "name": "_currencyCode",
          "type": "bytes32"
        }
      ],
      "name": "removeSalesAgent",
      "outputs": [],
      "payable": false,
      "stateMutability": "nonpayable",
      "type": "function"
    },
    {
      "constant": false,
      "inputs": [],
      "name": "claimContractOwnership",
      "outputs": [
        {
          "name": "",
          "type": "bool"
        }
      ],
      "payable": false,
      "stateMutability": "nonpayable",
      "type": "function"
    },
    {
      "constant": false,
      "inputs": [
        {
          "name": "whiteList",
          "type": "bytes32[]"
        }
      ],
      "name": "enableERC20Sale",
      "outputs": [
        {
          "name": "",
          "type": "uint256"
        }
      ],
      "payable": false,
      "stateMutability": "nonpayable",
      "type": "function"
    },
    {
      "constant": false,
      "inputs": [],
      "name": "disableEtherSale",
      "outputs": [
        {
          "name": "",
          "type": "uint256"
        }
      ],
      "payable": false,
      "stateMutability": "nonpayable",
      "type": "function"
    },
    {
      "constant": true,
      "inputs": [
        {
          "name": "",
          "type": "bytes32"
        },
        {
          "name": "",
          "type": "address"
        }
      ],
      "name": "donations",
      "outputs": [
        {
          "name": "",
          "type": "uint256"
        }
      ],
      "payable": false,
      "stateMutability": "view",
      "type": "function"
    },
    {
      "constant": false,
      "inputs": [
        {
          "name": "_to",
          "type": "address"
        }
      ],
      "name": "changeContractOwnership",
      "outputs": [
        {
          "name": "",
          "type": "bool"
        }
      ],
      "payable": false,
      "stateMutability": "nonpayable",
      "type": "function"
    },
    {
      "constant": false,
      "inputs": [],
      "name": "refund",
      "outputs": [],
      "payable": false,
      "stateMutability": "nonpayable",
      "type": "function"
    },
    {
      "constant": true,
      "inputs": [],
      "name": "pendingContractOwner",
      "outputs": [
        {
          "name": "",
          "type": "address"
        }
      ],
      "payable": false,
      "stateMutability": "view",
      "type": "function"
    },
    {
      "constant": false,
      "inputs": [
        {
          "name": "_priceTicker",
          "type": "address"
        }
      ],
      "name": "setPriceTicker",
      "outputs": [],
      "payable": false,
      "stateMutability": "nonpayable",
      "type": "function"
    },
    {
      "constant": false,
      "inputs": [
        {
          "name": "_currencyCode",
          "type": "bytes32"
        },
        {
          "name": "_minValue",
          "type": "uint256"
        },
        {
          "name": "_maxValue",
          "type": "uint256"
        },
        {
          "name": "_exchangeRate",
          "type": "uint256"
        },
        {
          "name": "_exchangeRateDecimals",
          "type": "uint256"
        },
        {
          "name": "_startTime",
          "type": "uint256"
        },
        {
          "name": "_endTime",
          "type": "uint256"
        }
      ],
      "name": "init",
      "outputs": [],
      "payable": false,
      "stateMutability": "nonpayable",
      "type": "function"
    },
    {
      "constant": true,
      "inputs": [],
      "name": "isSuccessed",
      "outputs": [
        {
          "name": "",
          "type": "bool"
        }
      ],
      "payable": false,
      "stateMutability": "view",
      "type": "function"
    },
    {
      "constant": false,
      "inputs": [
        {
          "name": "_token",
          "type": "address"
        }
      ],
      "name": "refundERC20",
      "outputs": [],
      "payable": true,
      "stateMutability": "payable",
      "type": "function"
    },
    {
      "constant": false,
      "inputs": [
        {
          "name": "_fund",
          "type": "address"
        }
      ],
      "name": "enableEtherSale",
      "outputs": [
        {
          "name": "",
          "type": "uint256"
        }
      ],
      "payable": false,
      "stateMutability": "nonpayable",
      "type": "function"
    },
    {
      "constant": false,
      "inputs": [
        {
          "name": "_investor",
          "type": "address"
        },
        {
          "name": "_value",
          "type": "uint256"
        },
        {
          "name": "_currencyCode",
          "type": "bytes32"
        }
      ],
      "name": "sale",
      "outputs": [],
      "payable": true,
      "stateMutability": "payable",
      "type": "function"
    },
    {
      "constant": true,
      "inputs": [],
      "name": "config",
      "outputs": [
        {
          "name": "startTime",
          "type": "uint256"
        },
        {
          "name": "endTime",
          "type": "uint256"
        }
      ],
      "payable": false,
      "stateMutability": "view",
      "type": "function"
    },
    {
      "constant": true,
      "inputs": [],
      "name": "getPriceTicker",
      "outputs": [
        {
          "name": "",
          "type": "address"
        }
      ],
      "payable": false,
      "stateMutability": "view",
      "type": "function"
    },
    {
      "constant": true,
      "inputs": [
        {
          "name": "_token",
          "type": "address"
        }
      ],
      "name": "getTokenSymbol",
      "outputs": [
        {
          "name": "",
          "type": "bytes32"
        }
      ],
      "payable": false,
      "stateMutability": "view",
      "type": "function"
    },
    {
      "constant": false,
      "inputs": [],
      "name": "destroy",
      "outputs": [],
      "payable": false,
      "stateMutability": "nonpayable",
      "type": "function"
    },
    {
      "constant": true,
      "inputs": [
        {
          "name": "",
          "type": "bytes32"
        }
      ],
      "name": "salesAgents",
      "outputs": [
        {
          "name": "",
          "type": "address"
        }
      ],
      "payable": false,
      "stateMutability": "view",
      "type": "function"
    },
    {
      "constant": true,
      "inputs": [],
      "name": "lookupBounty",
      "outputs": [
        {
          "name": "",
          "type": "address"
        }
      ],
      "payable": false,
      "stateMutability": "view",
      "type": "function"
    },
    {
      "constant": false,
      "inputs": [
        {
          "name": "_to",
          "type": "address"
        }
      ],
      "name": "transferContractOwnership",
      "outputs": [
        {
          "name": "",
          "type": "bool"
        }
      ],
      "payable": false,
      "stateMutability": "nonpayable",
      "type": "function"
    },
    {
      "constant": true,
      "inputs": [
        {
          "name": "_identifier",
          "type": "bytes32"
        }
      ],
      "name": "lookupService",
      "outputs": [
        {
          "name": "manager",
          "type": "address"
        }
      ],
      "payable": false,
      "stateMutability": "view",
      "type": "function"
    },
    {
      "constant": true,
      "inputs": [],
      "name": "fund",
      "outputs": [
        {
          "name": "",
          "type": "address"
        }
      ],
      "payable": false,
      "stateMutability": "view",
      "type": "function"
    },
    {
      "constant": true,
      "inputs": [],
      "name": "getGoal",
      "outputs": [
        {
          "name": "",
          "type": "bytes32"
        },
        {
          "name": "",
          "type": "uint256"
        },
        {
          "name": "",
          "type": "uint256"
        },
        {
          "name": "",
          "type": "uint256"
        },
        {
          "name": "",
          "type": "uint256"
        }
      ],
      "payable": false,
      "stateMutability": "view",
      "type": "function"
    },
    {
      "constant": true,
      "inputs": [
        {
          "name": "_symbol",
          "type": "bytes32"
        }
      ],
      "name": "getSalesAgent",
      "outputs": [
        {
          "name": "",
          "type": "address"
        }
      ],
      "payable": false,
      "stateMutability": "view",
      "type": "function"
    },
    {
      "constant": false,
      "inputs": [
        {
          "name": "_salesAgent",
          "type": "address"
        },
        {
          "name": "_currencyCode",
          "type": "bytes32"
        }
      ],
      "name": "addSalesAgent",
      "outputs": [],
      "payable": false,
      "stateMutability": "nonpayable",
      "type": "function"
    },
    {
      "constant": false,
      "inputs": [
        {
          "name": "_token",
          "type": "address"
        }
      ],
      "name": "sellERC20",
      "outputs": [],
      "payable": true,
      "stateMutability": "payable",
      "type": "function"
    },
    {
      "constant": true,
      "inputs": [],
      "name": "contractOwner",
      "outputs": [
        {
          "name": "",
          "type": "address"
        }
      ],
      "payable": false,
      "stateMutability": "view",
      "type": "function"
    },
    {
      "constant": false,
      "inputs": [
        {
          "name": "tokens",
          "type": "address[]"
        },
        {
          "name": "_to",
          "type": "address"
        }
      ],
      "name": "withdrawnTokens",
      "outputs": [
        {
          "name": "",
          "type": "uint256"
        }
      ],
      "payable": false,
      "stateMutability": "nonpayable",
      "type": "function"
    },
    {
      "constant": true,
      "inputs": [],
      "name": "hasEnded",
      "outputs": [
        {
          "name": "",
          "type": "bool"
        }
      ],
      "payable": false,
      "stateMutability": "view",
      "type": "function"
    },
    {
      "constant": true,
      "inputs": [],
      "name": "getTokensSold",
      "outputs": [
        {
          "name": "",
          "type": "uint256"
        }
      ],
      "payable": false,
      "stateMutability": "view",
      "type": "function"
    },
    {
      "constant": false,
      "inputs": [
        {
          "name": "blackList",
          "type": "bytes32[]"
        }
      ],
      "name": "disableERC20Sale",
      "outputs": [
        {
          "name": "",
          "type": "uint256"
        }
      ],
      "payable": false,
      "stateMutability": "nonpayable",
      "type": "function"
    },
    {
      "constant": true,
      "inputs": [],
      "name": "isFailed",
      "outputs": [
        {
          "name": "",
          "type": "bool"
        }
      ],
      "payable": false,
      "stateMutability": "view",
      "type": "function"
    },
    {
      "constant": false,
      "inputs": [
        {
          "name": "queryId",
          "type": "bytes32"
        },
        {
          "name": "price",
          "type": "uint256"
        },
        {
          "name": "decimals",
          "type": "uint256"
        }
      ],
      "name": "receivePrice",
      "outputs": [],
      "payable": false,
      "stateMutability": "nonpayable",
      "type": "function"
    },
    {
      "constant": true,
      "inputs": [],
      "name": "lookupERC20Service",
      "outputs": [
        {
          "name": "",
          "type": "address"
        }
      ],
      "payable": false,
      "stateMutability": "view",
      "type": "function"
    },
    {
      "inputs": [
        {
          "name": "_serviceProvider",
          "type": "address"
        },
        {
          "name": "_symbol",
          "type": "bytes32"
        },
        {
          "name": "_priceTicker",
          "type": "address"
        }
      ],
      "payable": false,
      "stateMutability": "nonpayable",
      "type": "constructor"
    },
    {
      "payable": true,
      "stateMutability": "payable",
      "type": "fallback"
    },
    {
      "anonymous": false,
      "inputs": [
        {
          "indexed": true,
          "name": "sender",
          "type": "address"
        },
        {
          "indexed": false,
          "name": "fund",
          "type": "address"
        }
      ],
      "name": "NewFund",
      "type": "event"
    },
    {
      "anonymous": false,
      "inputs": [
        {
          "indexed": true,
          "name": "sender",
          "type": "address"
        },
        {
          "indexed": true,
          "name": "investor",
          "type": "address"
        },
        {
          "indexed": false,
          "name": "weiValue",
          "type": "uint256"
        }
      ],
      "name": "ReceivedEther",
      "type": "event"
    },
    {
      "anonymous": false,
      "inputs": [
        {
          "indexed": true,
          "name": "sender",
          "type": "address"
        },
        {
          "indexed": true,
          "name": "investor",
          "type": "address"
        },
        {
          "indexed": false,
          "name": "weiValue",
          "type": "uint256"
        }
      ],
      "name": "RefundedEther",
      "type": "event"
    },
    {
      "anonymous": false,
      "inputs": [
        {
          "indexed": true,
          "name": "sender",
          "type": "address"
        },
        {
          "indexed": true,
          "name": "investor",
          "type": "address"
        },
        {
          "indexed": false,
          "name": "erc20Value",
          "type": "uint256"
        },
        {
          "indexed": false,
          "name": "symbol",
          "type": "bytes32"
        }
      ],
      "name": "ReceivedERC20",
      "type": "event"
    },
    {
      "anonymous": false,
      "inputs": [
        {
          "indexed": true,
          "name": "sender",
          "type": "address"
        },
        {
          "indexed": true,
          "name": "investor",
          "type": "address"
        },
        {
          "indexed": false,
          "name": "erc20Value",
          "type": "uint256"
        },
        {
          "indexed": false,
          "name": "symbol",
          "type": "bytes32"
        }
      ],
      "name": "RefundedERC20",
      "type": "event"
    },
    {
      "anonymous": false,
      "inputs": [
        {
          "indexed": true,
          "name": "sender",
          "type": "address"
        },
        {
          "indexed": false,
          "name": "amout",
          "type": "uint256"
        }
      ],
      "name": "WithdrawEther",
      "type": "event"
    },
    {
      "anonymous": false,
      "inputs": [
        {
          "indexed": true,
          "name": "sender",
          "type": "address"
        },
        {
          "indexed": false,
          "name": "saleAgent",
          "type": "address"
        },
        {
          "indexed": false,
          "name": "symbol",
          "type": "bytes32"
        }
      ],
      "name": "SaleAgentRegistered",
      "type": "event"
    },
    {
      "anonymous": false,
      "inputs": [
        {
          "indexed": true,
          "name": "sender",
          "type": "address"
        },
        {
          "indexed": false,
          "name": "saleAgent",
          "type": "address"
        },
        {
          "indexed": false,
          "name": "symbol",
          "type": "bytes32"
        }
      ],
      "name": "SaleAgentDeleted",
      "type": "event"
    },
    {
      "anonymous": false,
      "inputs": [
        {
          "indexed": true,
          "name": "sender",
          "type": "address"
        },
        {
          "indexed": false,
          "name": "investor",
          "type": "address"
        },
        {
          "indexed": false,
          "name": "value",
          "type": "uint256"
        },
        {
          "indexed": false,
          "name": "currencyCode",
          "type": "bytes32"
        }
      ],
      "name": "NewSaleDone",
      "type": "event"
    },
    {
      "anonymous": false,
      "inputs": [
        {
          "indexed": true,
          "name": "sender",
          "type": "address"
        },
        {
          "indexed": false,
          "name": "investor",
          "type": "address"
        },
        {
          "indexed": false,
          "name": "value",
          "type": "uint256"
        },
        {
          "indexed": false,
          "name": "currencyCode",
          "type": "bytes32"
        }
      ],
      "name": "NewRefund",
      "type": "event"
    },
    {
      "anonymous": false,
      "inputs": [
        {
          "indexed": true,
          "name": "sender",
          "type": "address"
        },
        {
          "indexed": false,
          "name": "investor",
          "type": "address"
        },
        {
          "indexed": false,
          "name": "value",
          "type": "uint256"
        },
        {
          "indexed": false,
          "name": "currencyCode",
          "type": "bytes32"
        },
        {
          "indexed": false,
          "name": "query",
          "type": "bytes32"
        }
      ],
      "name": "PriceRequested",
      "type": "event"
    },
    {
      "anonymous": false,
      "inputs": [
        {
          "indexed": true,
          "name": "sender",
          "type": "address"
        },
        {
          "indexed": false,
          "name": "investor",
          "type": "address"
        },
        {
          "indexed": false,
          "name": "value",
          "type": "uint256"
        },
        {
          "indexed": false,
          "name": "currencyCode",
          "type": "bytes32"
        },
        {
          "indexed": false,
          "name": "query",
          "type": "bytes32"
        }
      ],
      "name": "PriceRequestFailed",
      "type": "event"
    },
    {
      "anonymous": false,
      "inputs": [
        {
          "indexed": true,
          "name": "sender",
          "type": "address"
        },
        {
          "indexed": false,
          "name": "beneficiary",
          "type": "address"
        },
        {
          "indexed": false,
          "name": "amount",
          "type": "uint256"
        }
      ],
      "name": "MintTokenEvent",
      "type": "event"
    },
    {
      "anonymous": false,
      "inputs": [
        {
          "indexed": true,
          "name": "sender",
          "type": "address"
        },
        {
          "indexed": false,
          "name": "holder",
          "type": "address"
        },
        {
          "indexed": false,
          "name": "amount",
          "type": "uint256"
        }
      ],
      "name": "WithdrawToken",
      "type": "event"
    }
  ],
  "bytecode": "0x6060604052600060035534156200001557600080fd5b60405160608062002d3b83398101604052808051919060200180519190602001805160008054600160a060020a03191633600160a060020a03908116919091179091559092508491508390839083908390839083908390821615156200007a57600080fd5b8015156200008757600080fd5b60048054600160a060020a031916600160a060020a038416179055620000ba640100000000620001938102620018be1704565b600160a060020a031663d5ed0d17826000604051602001526040517c010000000000000000000000000000000000000000000000000000000063ffffffff84160281526004810191909152602401602060405180830381600087803b15156200012257600080fd5b6102c65a03f115156200013457600080fd5b5050506040518051905015156200014a57600080fd5b60025550600160a060020a03811615156200016457600080fd5b60098054600160a060020a031916600160a060020a039290921691909117905550620002789650505050505050565b6000620001ce7f4173736574734d616e616765720000000000000000000000000000000000000064010000000062001960620001d382021704565b905090565b600454600090600160a060020a031663bc6579278383604051602001526040517c010000000000000000000000000000000000000000000000000000000063ffffffff84160281526004810191909152602401602060405180830381600087803b15156200024057600080fd5b6102c65a03f115156200025257600080fd5b5050506040518051915050600160a060020a03811615156200027357600080fd5b919050565b612ab380620002886000396000f3006060604052600436106101d45763ffffffff60e060020a6000350416631507040181146102be5780632014e5d1146102e35780632bac85ad1461030a57806337b6ee7e146103205780633ccfd60b146103425780634207ad67146103575780634592cd1d146103795780634b6585f11461038c578063522d8083146103db5780635471b709146103ee578063557f4bc914610410578063590e1ae31461042f5780635aa77d3c146104425780635e8fac661461047157806365ef326c14610490578063692a1960146104b85780636e94a629146104cb5780637123778e146104df5780637507db0a146104fe57806379502c55146105185780637ea915471461054357806381a73ad51461055657806383197ef0146105755780638522585a146105885780638fe858d91461059e578063a843c51f146105b1578063b0744a60146105d0578063b60d4288146105e6578063b97a7d24146105f9578063bfd7ae771461063d578063c18c35da14610653578063c91122d014610675578063ce606ee014610689578063d8f9659b1461069c578063ecb70fb7146106f6578063ee7c0db014610709578063f07d76f11461071c578063f41633401461076b578063f50bf0291461077e578063fc09e4931461079a575b6101dc6107ad565b15156101e757600080fd5b601154600160a060020a031615156101fe57600080fd5b30600160a060020a0316637507db0a333460405160e060020a63ffffffff8516028152600160a060020a039092166004830152602482015260eb60020a6208aa89026044820152606401600060405180830381600087803b151561026157600080fd5b6102c65a03f1151561027257600080fd5b50505033600160a060020a031630600160a060020a03167feeec398a06c4cfafcea2052bdb0817bab61da1505bf6b2a84e69deb00815f2933460405190815260200160405180910390a3005b34156102c957600080fd5b6102d16107d7565b60405190815260200160405180910390f35b34156102ee57600080fd5b6102f66107ad565b604051901515815260200160405180910390f35b341561031557600080fd5b6102d16004356107dd565b341561032b57600080fd5b6102d1600160a060020a03600435166024356107ef565b341561034d57600080fd5b610355610865565b005b341561036257600080fd5b610355600160a060020a0360043516602435610992565b341561038457600080fd5b6102f6610a27565b341561039757600080fd5b6102d16004602481358181019083013580602081810201604051908101604052809392919081815260200183836020028082843750949650610a7195505050505050565b34156103e657600080fd5b6102d1610bff565b34156103f957600080fd5b6102d1600435600160a060020a0360243516610cb1565b341561041b57600080fd5b6102f6600160a060020a0360043516610cce565b341561043a57600080fd5b610355610d20565b341561044d57600080fd5b610455610e32565b604051600160a060020a03909116815260200160405180910390f35b341561047c57600080fd5b610355600160a060020a0360043516610e41565b341561049b57600080fd5b61035560043560243560443560643560843560a43560c435610efd565b34156104c357600080fd5b6102f6611007565b610355600160a060020a0360043516611011565b34156104ea57600080fd5b6102d1600160a060020a0360043516611315565b610355600160a060020a03600435166024356044356113e9565b341561052357600080fd5b61052b61179b565b60405191825260208201526040908101905180910390f35b341561054e57600080fd5b6104556117a4565b341561056157600080fd5b6102d1600160a060020a03600435166117b3565b341561058057600080fd5b61035561186f565b341561059357600080fd5b6104556004356118a3565b34156105a957600080fd5b6104556118be565b34156105bc57600080fd5b6102f6600160a060020a03600435166118e9565b34156105db57600080fd5b610455600435611960565b34156105f157600080fd5b6104556119e4565b341561060457600080fd5b61060c6119f3565b60405194855260208501939093526040808501929092526060840152608083019190915260a0909101905180910390f35b341561064857600080fd5b610455600435611a09565b341561065e57600080fd5b610355600160a060020a0360043516602435611a24565b610355600160a060020a0360043516611ab5565b341561069457600080fd5b610455611dd5565b34156106a757600080fd5b6102d1600460248135818101908301358060208181020160405190810160405280939291908181526020018383602002808284375094965050509235600160a060020a03169250611de4915050565b341561070157600080fd5b6102f6611f33565b341561071457600080fd5b6102d1611f98565b341561072757600080fd5b6102d16004602481358181019083013580602081810201604051908101604052809392919081815260200183836020028082843750949650611f9e95505050505050565b341561077657600080fd5b6102f661211c565b341561078957600080fd5b610355600435602435604435612139565b34156107a557600080fd5b6104556122bf565b601354600090421180156107c2575060145442105b80156107d157506107d16122ea565b90505b90565b60025490565b60076020526000908152604090205481565b6000818152600860205260408120548190839033600160a060020a0390811691161461081a57600080fd5b61082261211c565b151561082d57600080fd5b6000848152600660209081526040808320600160a060020a0389168452909152902054915061085d8585846122f4565b509392505050565b600061086f611007565b151561087a57600080fd5b6108826118be565b600160a060020a03166325742b466002543360006040516020015260405160e060020a63ffffffff85160281526004810192909252600160a060020a03166024820152604401602060405180830381600087803b15156108e157600080fd5b6102c65a03f115156108f257600080fd5b505050604051805190501561098f57601154600160a060020a0316151561091857600080fd5b50601154600160a060020a0330811631911681156108fc0282604051600060405180830381858888f19350505050151561095157600080fd5b30600160a060020a03167fdb35132c111efe920cede025e819975671cfd1b8fcc1174762c8670c4e94c2118260405190815260200160405180910390a25b50565b61099a6118be565b600160a060020a03166325742b466002543360006040516020015260405160e060020a63ffffffff85160281526004810192909252600160a060020a03166024820152604401602060405180830381600087803b15156109f957600080fd5b6102c65a03f11515610a0a57600080fd5b5050506040518051905015610a2357610a238282612433565b5050565b60015460009033600160a060020a03908116911614610a48575060006107d4565b506001805460008054600160a060020a0319908116600160a060020a0384161790915516815590565b600080600080610a7f6118be565b600160a060020a03166325742b466002543360006040516020015260405160e060020a63ffffffff85160281526004810192909252600160a060020a03166024820152604401602060405180830381600087803b1515610ade57600080fd5b6102c65a03f11515610aef57600080fd5b5050506040518051905015610bf757610b066122bf565b9250600091505b8451821015610bf25782600160a060020a031663fa7fdeb7868481518110610b3157fe5b9060200190602002015160006040516020015260405160e060020a63ffffffff84160281526004810191909152602401602060405180830381600087803b1515610b7a57600080fd5b6102c65a03f11515610b8b57600080fd5b5050506040518051915050600160a060020a03811615610be757600160a060020a0381166000908152601260205260409020805460ff19166001179055610be730868481518110610bd857fe5b906020019060200201516124c6565b600190910190610b0d565b600193505b505050919050565b6000610c096118be565b600160a060020a03166325742b466002543360006040516020015260405160e060020a63ffffffff85160281526004810192909252600160a060020a03166024820152604401602060405180830381600087803b1515610c6857600080fd5b6102c65a03f11515610c7957600080fd5b50505060405180519050156107d45760118054600160a060020a0319169055610cab3060eb60020a6208aa8902612433565b50600190565b600660209081526000928352604080842090915290825290205481565b6000805433600160a060020a0390811691161415610d1b57600160a060020a0382161515610cfe57506000610d1b565b5060018054600160a060020a031916600160a060020a0383161781555b919050565b6000610d2a61211c565b1515610d3557600080fd5b30600160a060020a03166337b6ee7e3360006040516020015260405160e060020a63ffffffff8416028152600160a060020a03909116600482015260eb60020a6208aa89026024820152604401602060405180830381600087803b1515610d9b57600080fd5b6102c65a03f11515610dac57600080fd5b5050506040518051915050600160a060020a03331681156108fc0282604051600060405180830381858888f193505050501515610de857600080fd5b33600160a060020a031630600160a060020a03167f26fc102d9e9d6a9441e7a052f6e93961cbe7bc481f0453332f956352c6480aa28360405190815260200160405180910390a350565b600154600160a060020a031681565b610e496118be565b600160a060020a03166325742b466002543360006040516020015260405160e060020a63ffffffff85160281526004810192909252600160a060020a03166024820152604401602060405180830381600087803b1515610ea857600080fd5b6102c65a03f11515610eb957600080fd5b505050604051805190501561098f57600160a060020a0381161515610edd57600080fd5b60098054600160a060020a038316600160a060020a031990911617905550565b610f056118be565b600160a060020a03166325742b466002543360006040516020015260405160e060020a63ffffffff85160281526004810192909252600160a060020a03166024820152604401602060405180830381600087803b1515610f6457600080fd5b6102c65a03f11515610f7557600080fd5b5050506040518051905015610ffe5760008035600160e060020a03191681526005602052604090205460ff161515610ffe57818111610fb357600080fd5b42819010610fc057600080fd5b610fcd8787878787612561565b6013829055601481905560008035600160e060020a03191681526005602052604090208054600160ff199091161790555b50505050505050565b600c546010541190565b600080600061101e61211c565b151561102957600080fd5b600160a060020a038416151561103e57600080fd5b6110466122bf565b600160a060020a0316639ed4fa5a8560006040516020015260405160e060020a63ffffffff8416028152600160a060020a039091166004820152602401602060405180830381600087803b151561109c57600080fd5b6102c65a03f115156110ad57600080fd5b5050506040518051905015156110c257600080fd5b30600160a060020a03166337b6ee7e336110db876117b3565b60006040516020015260405160e060020a63ffffffff8516028152600160a060020a0390921660048301526024820152604401602060405180830381600087803b151561112757600080fd5b6102c65a03f1151561113857600080fd5b50505060405180519050925061114d846117b3565b915083600160a060020a03166370a082313060006040516020015260405160e060020a63ffffffff8416028152600160a060020a039091166004820152602401602060405180830381600087803b15156111a657600080fd5b6102c65a03f115156111b757600080fd5b5050506040518051915050600160a060020a03841663a9059cbb338560006040516020015260405160e060020a63ffffffff8516028152600160a060020a0390921660048301526024820152604401602060405180830381600087803b151561121f57600080fd5b6102c65a03f1151561123057600080fd5b50505060405180519050151561124557600080fd5b83600160a060020a03166370a082313060006040516020015260405160e060020a63ffffffff8416028152600160a060020a039091166004820152602401602060405180830381600087803b151561129c57600080fd5b6102c65a03f115156112ad57600080fd5b50505060405180518203841490506112c157fe5b33600160a060020a031630600160a060020a03167f3bfaaea2fb6654fc1575d7b03c0581fb4f6e32636c683a69f3b2ad35568a6e2e858560405191825260208201526040908101905180910390a350505050565b600061131f6118be565b600160a060020a03166325742b466002543360006040516020015260405160e060020a63ffffffff85160281526004810192909252600160a060020a03166024820152604401602060405180830381600087803b151561137e57600080fd5b6102c65a03f1151561138f57600080fd5b5050506040518051905015610d1b57600160a060020a03821615156113b357600080fd5b60118054600160a060020a031916600160a060020a0384161790556113e13060eb60020a6208aa89026124c6565b506001919050565b600081815260086020526040812054819081908190859033600160a060020a0390811691161461141857600080fd5b6114206107ad565b151561142b57600080fd5b600160a060020a038816151561144057600080fd5b85151561144c57600080fd5b6000868152600660209081526040808320600160a060020a038c16845290915290205461147f908863ffffffff61268316565b6000878152600660209081526040808320600160a060020a038d1684528252808320939093558882526007905220546114be908863ffffffff61268316565b60008781526007602052604080822092909255600954600b54600160a060020a039091169263e5a59e07928a9291516020015260405160e060020a63ffffffff851602815260048101929092526024820152604401602060405180830381600087803b151561152c57600080fd5b6102c65a03f1151561153d57600080fd5b505050604051805190501561163a57600954600b54600160a060020a0390911690637d5ecbab90889060006040516040015260405160e060020a63ffffffff8516028152600481019290925260248201526044016040805180830381600087803b15156115a957600080fd5b6102c65a03f115156115ba57600080fd5b50505060405180519060200180519050945094506115da88888787612699565b33600160a060020a03167f0fe32763974f828f27ba609ad471890fffc7812b1b048ba7c43434c4fb27ff3b898989604051600160a060020a03909316835260208301919091526040808301919091526060909101905180910390a2611791565b600954600b54600160a060020a03909116906306915ba390889060006040516040015260405160e060020a63ffffffff8516028152600481019290925260248201526044016040805180830381600087803b151561169757600080fd5b6102c65a03f115156116a857600080fd5b505050604051805190602001805191945090925050600182146116c757fe5b60606040519081016040908152600160a060020a038a16825260208083018990528183018a90526000868152600a9091522081518154600160a060020a031916600160a060020a039190911617815560208201516001820155604082015160029091015550600160a060020a0333167f5e131299f28a97769167a3143422eb7beea2089bbf30ff00e36501db77f541a789898987604051600160a060020a039094168452602084019290925260408084019190915260608301919091526080909101905180910390a25b5050505050505050565b60135460145482565b600954600160a060020a031690565b6000806000806000806000806117c76122bf565b600160a060020a0316637abccac98a600060405160e0015260405160e060020a63ffffffff8416028152600160a060020a03909116600482015260240160e060405180830381600087803b151561181d57600080fd5b6102c65a03f1151561182e57600080fd5b505050604051805190602001805190602001805190602001805190602001805190602001805190602001805150939f9e505050505050505050505050505050565b60005433600160a060020a03908116911614156118a15761188e611f33565b151561189957600080fd5b6118a1612711565b565b600860205260009081526040902054600160a060020a031681565b60006107d17f4173736574734d616e6167657200000000000000000000000000000000000000611960565b6000805433600160a060020a0390811691161415610d1b57600160a060020a038216151561191957506000610d1b565b600154600160a060020a03161561193b5760018054600160a060020a03191690555b5060008054600160a060020a038316600160a060020a03199091161790556001919050565b600454600090600160a060020a031663bc65792783836040516020015260405160e060020a63ffffffff84160281526004810191909152602401602060405180830381600087803b15156119b357600080fd5b6102c65a03f115156119c457600080fd5b5050506040518051915050600160a060020a0381161515610d1b57600080fd5b601154600160a060020a031681565b600b54600c54600d54600e54600f549091929394565b600090815260086020526040902054600160a060020a031690565b611a2c6118be565b600160a060020a03166325742b466002543360006040516020015260405160e060020a63ffffffff85160281526004810192909252600160a060020a03166024820152604401602060405180830381600087803b1515611a8b57600080fd5b6102c65a03f11515611a9c57600080fd5b5050506040518051905015610a2357610a2382826124c6565b6000806000611ac26107ad565b1515611acd57600080fd5b83600160a060020a0381161580611afd5750600160a060020a03811660009081526012602052604090205460ff16155b15611b0757600080fd5b84600160a060020a031663dd62ed3e333060006040516020015260405160e060020a63ffffffff8516028152600160a060020a03928316600482015291166024820152604401602060405180830381600087803b1515611b6657600080fd5b6102c65a03f11515611b7757600080fd5b505050604051805190509350611b8c856117b3565b925084600160a060020a03166370a082313060006040516020015260405160e060020a63ffffffff8416028152600160a060020a039091166004820152602401602060405180830381600087803b1515611be557600080fd5b6102c65a03f11515611bf657600080fd5b5050506040518051925050600160a060020a0385166323b872dd33308760006040516020015260405160e060020a63ffffffff8616028152600160a060020a0393841660048201529190921660248201526044810191909152606401602060405180830381600087803b1515611c6b57600080fd5b6102c65a03f11515611c7c57600080fd5b505050604051805190501515611c9157600080fd5b8185600160a060020a03166370a082313060006040516020015260405160e060020a63ffffffff8416028152600160a060020a039091166004820152602401602060405180830381600087803b1515611ce957600080fd5b6102c65a03f11515611cfa57600080fd5b505050604051805190500384141515611d0f57fe5b30600160a060020a0316637507db0a33868660405160e060020a63ffffffff8616028152600160a060020a03909316600484015260248301919091526044820152606401600060405180830381600087803b1515611d6c57600080fd5b6102c65a03f11515611d7d57600080fd5b50505033600160a060020a031630600160a060020a03167fd1ba297d0f06cabe07bab03006be067cb42e2655372ddc334314f806210c7eba868660405191825260208201526040908101905180910390a35050505050565b600054600160a060020a031681565b6000805481908190819033600160a060020a0390811691161415611f2a57600092505b8551831015611f2557858381518110611e1c57fe5b90602001906020020151915081600160a060020a03166370a082313060006040516020015260405160e060020a63ffffffff8416028152600160a060020a039091166004820152602401602060405180830381600087803b1515611e7f57600080fd5b6102c65a03f11515611e9057600080fd5b50505060405180519150508015611f1a5781600160a060020a031663a9059cbb868360006040516020015260405160e060020a63ffffffff8516028152600160a060020a0390921660048301526024820152604401602060405180830381600087803b1515611efe57600080fd5b6102c65a03f11515611f0f57600080fd5b505050604051805150505b600190920191611e07565b600193505b50505092915050565b6000611f3d611007565b8015611f535750600030600160a060020a031631115b15611f60575060006107d4565b611f6861211c565b8015611f7657506000600354115b15611f83575060006107d4565b611f8b6107ad565b15610cab575060006107d4565b60035490565b600080600080611fac6118be565b600160a060020a03166325742b466002543360006040516020015260405160e060020a63ffffffff85160281526004810192909252600160a060020a03166024820152604401602060405180830381600087803b151561200b57600080fd5b6102c65a03f1151561201c57600080fd5b5050506040518051905015610bf7576120336122bf565b9250600091505b8451821015610bf25782600160a060020a031663fa7fdeb786848151811061205e57fe5b9060200190602002015160006040516020015260405160e060020a63ffffffff84160281526004810191909152602401602060405180830381600087803b15156120a757600080fd5b6102c65a03f115156120b857600080fd5b5050506040518051915050600160a060020a0381161561211157600160a060020a0381166000908152601260205260409020805460ff191690556121113086848151811061210257fe5b90602001906020020151612433565b60019091019061203a565b601454600090421180156107d15750612133611007565b15905090565b612141612a67565b60095433600160a060020a0390811691161461215c57600080fd5b6000848152600a602052604090819020906060905190810160409081528254600160a060020a03168252600183015460208301526002909201549181019190915290508051600160a060020a031615156121b557600080fd5b6000831115612238576121cf815182604001518585612699565b600160a060020a0333167f0fe32763974f828f27ba609ad471890fffc7812b1b048ba7c43434c4fb27ff3b825183604001518460200151604051600160a060020a03909316835260208301919091526040808301919091526060909101905180910390a26122b9565b600160a060020a0333167fbd690f6d499e86a225f39764c1dfa72f9f877999f6615fb72bcb98bbd76d15aa82518360400151846020015188604051600160a060020a039094168452602084019290925260408084019190915260608301919091526080909101905180910390a26122b98151826020015183604001516122f4565b50505050565b60006107d17f45524332304d616e616765720000000000000000000000000000000000000000611960565b600d546010541090565b6000600160a060020a038416151561230b57600080fd5b82151561231757600080fd5b506000828152600660209081526040808320600160a060020a03871684529091529020548082111561234857600080fd5b6000838152600660209081526040808320600160a060020a038816845290915290205461237b908363ffffffff61273416565b6000848152600660209081526040808320600160a060020a03891684528252808320939093558582526007905220546123ba908363ffffffff61273416565b6000848152600760205260409020556123d284612746565b33600160a060020a03167f0ca340c7eb0c72255d18072bcd6ba161aaa02d6eeb2e444248c36cc1b2e1cd7f858486604051600160a060020a03909316835260208301919091526040808301919091526060909101905180910390a250505050565b600160a060020a038216151561244857600080fd5b80151561245457600080fd5b600081815260086020526040908190208054600160a060020a031916905533600160a060020a0316907fabca56d1f15a292caf4603c5e711645fa6e448a933e81739491bfd8396eb5bce908490849051600160a060020a03909216825260208201526040908101905180910390a25050565b600160a060020a03821615156124db57600080fd5b8015156124e757600080fd5b600081815260086020526040908190208054600160a060020a031916600160a060020a03858116919091179091553316907f3dbb1ba766df8e6bad32efd25596d9834cb129d8c22929c5f361e2dd25728084908490849051600160a060020a03909216825260208201526040908101905180910390a25050565b6125696118be565b600160a060020a03166325742b466002543360006040516020015260405160e060020a63ffffffff85160281526004810192909252600160a060020a03166024820152604401602060405180830381600087803b15156125c857600080fd5b6102c65a03f115156125d957600080fd5b505050604051805190501561267c5760008035600160e060020a03191681526005602052604090205460ff16151561267c5784151561261757600080fd5b83151561262357600080fd5b82151561262f57600080fd5b6000821161263c57600080fd5b600b859055600c849055600d839055600e829055600f81905560008035600160e060020a03191681526005602052604090208054600160ff199091161790555b5050505050565b60008282018381101561269257fe5b9392505050565b600080600a83900a6126b1868663ffffffff6127c216565b8115156126ba57fe5b0491506126d28260105461268390919063ffffffff16565b601055600f54600e54600a9190910a906126f390849063ffffffff6127c216565b8115156126fc57fe5b04905061270986826127e6565b505050505050565b60005433600160a060020a03908116911614156118a15733600160a060020a0316ff5b60008282111561274057fe5b50900390565b61274e61211c565b151561275957600080fd5b60035461276d90600063ffffffff61273416565b600355600160a060020a0330167f037238854fe57fbf51f09946f854fc3916fe83938d6521f09bd05463839f1304826000604051600160a060020a03909216825260208201526040908101905180910390a250565b60008282028315806127de57508284828115156127db57fe5b04145b151561269257fe5b60008060006127f36107ad565b15156127fe57600080fd5b600354612811908563ffffffff61268316565b60035561283d7f45524332304d616e616765720000000000000000000000000000000000000000611960565b925082600160a060020a031663fa7fdeb760025460006040516020015260405160e060020a63ffffffff84160281526004810191909152602401602060405180830381600087803b151561289057600080fd5b6102c65a03f115156128a157600080fd5b5050506040518051925050600160a060020a0382166349752baf6000604051602001526040518163ffffffff1660e060020a028152600401602060405180830381600087803b15156128f257600080fd5b6102c65a03f1151561290357600080fd5b505050604051805190509050600181600160a060020a031663e0873c066002548760006040516020015260405160e060020a63ffffffff851602815260048101929092526024820152604401602060405180830381600087803b151561296857600080fd5b6102c65a03f1151561297957600080fd5b5050506040518051905014151561298f57600080fd5b81600160a060020a031663a9059cbb868660006040516020015260405160e060020a63ffffffff8516028152600160a060020a0390921660048301526024820152604401602060405180830381600087803b15156129ec57600080fd5b6102c65a03f115156129fd57600080fd5b505050604051805190501515612a1257600080fd5b30600160a060020a03167f2912ae33cd67a6df1c3e8a1fe3899ad8722819df1ed47e86aae4ac8d85cfe0418686604051600160a060020a03909216825260208201526040908101905180910390a25050505050565b6060604051908101604090815260008083526020830181905290820152905600a165627a7a723058201f118e5a1daaf458646102b7a2bcd8174172ffe0d050d9c0d08a910f30aa8e510029",
  "source": "pragma solidity ^0.4.11;\n\nimport \"../base/ChronoMintCrowdsale.sol\";\n\n/**\n * @title TimeLimitedCrowdsale is a crowdsale contract.\n *\n * Crowdsales have a start and end time,\n * where investors can make token purchases and\n * the crowdsale will assign them tokens based on a token per exchange rate.\n *\n * See ChronoMintCrowdsale.\n */\ncontract TimeLimitedCrowdsale is ChronoMintCrowdsale {\n    /* Time limited crowdfunding configuration */\n    struct Params {\n        uint startTime;\n        uint endTime;\n    }\n\n    Params public config;\n\n    function TimeLimitedCrowdsale(address _serviceProvider, bytes32 _symbol, address _priceTicker)\n            ChronoMintCrowdsale(_serviceProvider, _symbol, _priceTicker)\n    {\n    }\n\n    function init(\n        bytes32 _currencyCode,\n        uint _minValue,\n        uint _maxValue,\n        uint _exchangeRate,\n        uint _exchangeRateDecimals,\n        uint _startTime,\n        uint _endTime\n    ) onlyAuthorised onlyOnce {\n        require(_endTime > _startTime);\n        require(now < _endTime);\n\n        init(_currencyCode, _minValue, _maxValue, _exchangeRate, _exchangeRateDecimals);\n\n        config.startTime = _startTime;\n        config.endTime = _endTime;\n    }\n\n    function isRunning() constant returns (bool) {\n        return now > config.startTime\n                && now < config.endTime\n                && GenericCrowdsale.isRunning();\n    }\n\n    function isFailed() constant returns (bool) {\n        return now > config.endTime\n                && !GenericCrowdsale.isSuccessed();\n    }\n}\n",
  "sourcePath": "/Users/ahiatsevich/Development/chronobank/SmartContracts/contracts/crowdsale/crowdsales/TimeLimitedCrowdsale.sol",
  "compiler": {
    "name": "solc",
    "version": "0.4.18+commit.9cf6e910.Emscripten.clang"
  },
  "schemaVersion": "1.0.1",
  "updatedAt": "2017-12-11T12:14:44.631Z"
}