{
  "contractName": "TimeHolder",
  "abi": [
    {
      "constant": false,
      "inputs": [
        {
          "name": "who",
          "type": "address"
        },
        {
          "name": "amount",
          "type": "uint256"
        }
      ],
      "name": "emitWithdrawShares",
      "outputs": [],
      "payable": false,
      "stateMutability": "nonpayable",
      "type": "function"
    },
    {
      "constant": false,
      "inputs": [
        {
          "name": "_contractsManager",
          "type": "address"
        },
        {
          "name": "_sharesContract",
          "type": "address"
        },
        {
          "name": "_wallet",
          "type": "address"
        },
        {
          "name": "_feeWallet",
          "type": "address"
        }
      ],
      "name": "init",
      "outputs": [
        {
          "name": "",
          "type": "uint256"
        }
      ],
      "payable": false,
      "stateMutability": "nonpayable",
      "type": "function"
    },
    {
      "constant": true,
      "inputs": [],
      "name": "shareholdersCount",
      "outputs": [
        {
          "name": "",
          "type": "uint256"
        }
      ],
      "payable": false,
      "stateMutability": "view",
      "type": "function"
    },
    {
      "constant": true,
      "inputs": [],
      "name": "totalSupply",
      "outputs": [
        {
          "name": "",
          "type": "uint256"
        }
      ],
      "payable": false,
      "stateMutability": "view",
      "type": "function"
    },
    {
      "constant": false,
      "inputs": [
        {
          "name": "_amount",
          "type": "uint256"
        }
      ],
      "name": "withdrawShares",
      "outputs": [
        {
          "name": "resultCode",
          "type": "uint256"
        }
      ],
      "payable": false,
      "stateMutability": "nonpayable",
      "type": "function"
    },
    {
      "constant": false,
      "inputs": [
        {
          "name": "listener",
          "type": "address"
        }
      ],
      "name": "emitListenerRemoved",
      "outputs": [],
      "payable": false,
      "stateMutability": "nonpayable",
      "type": "function"
    },
    {
      "constant": false,
      "inputs": [
        {
          "name": "_limitAmount",
          "type": "uint256"
        }
      ],
      "name": "setLimit",
      "outputs": [],
      "payable": false,
      "stateMutability": "nonpayable",
      "type": "function"
    },
    {
      "constant": false,
      "inputs": [
        {
          "name": "who",
          "type": "address"
        },
        {
          "name": "amount",
          "type": "uint256"
        }
      ],
      "name": "emitDeposit",
      "outputs": [],
      "payable": false,
      "stateMutability": "nonpayable",
      "type": "function"
    },
    {
      "constant": false,
      "inputs": [
        {
          "name": "_address",
          "type": "address"
        },
        {
          "name": "_amount",
          "type": "uint256"
        }
      ],
      "name": "depositFor",
      "outputs": [
        {
          "name": "",
          "type": "uint256"
        }
      ],
      "payable": false,
      "stateMutability": "nonpayable",
      "type": "function"
    },
    {
      "constant": false,
      "inputs": [
        {
          "name": "listener",
          "type": "address"
        }
      ],
      "name": "emitListenerAdded",
      "outputs": [],
      "payable": false,
      "stateMutability": "nonpayable",
      "type": "function"
    },
    {
      "constant": true,
      "inputs": [],
      "name": "totalShares",
      "outputs": [
        {
          "name": "",
          "type": "uint256"
        }
      ],
      "payable": false,
      "stateMutability": "view",
      "type": "function"
    },
    {
      "constant": false,
      "inputs": [],
      "name": "claimContractOwnership",
      "outputs": [
        {
          "name": "",
          "type": "bool"
        }
      ],
      "payable": false,
      "stateMutability": "nonpayable",
      "type": "function"
    },
    {
      "constant": true,
      "inputs": [
        {
          "name": "_identifier",
          "type": "bytes32"
        }
      ],
      "name": "lookupManager",
      "outputs": [
        {
          "name": "manager",
          "type": "address"
        }
      ],
      "payable": false,
      "stateMutability": "view",
      "type": "function"
    },
    {
      "constant": true,
      "inputs": [],
      "name": "wallet",
      "outputs": [
        {
          "name": "",
          "type": "address"
        }
      ],
      "payable": false,
      "stateMutability": "view",
      "type": "function"
    },
    {
      "constant": true,
      "inputs": [],
      "name": "contractsManager",
      "outputs": [
        {
          "name": "",
          "type": "address"
        }
      ],
      "payable": false,
      "stateMutability": "view",
      "type": "function"
    },
    {
      "constant": false,
      "inputs": [
        {
          "name": "_to",
          "type": "address"
        }
      ],
      "name": "changeContractOwnership",
      "outputs": [
        {
          "name": "",
          "type": "bool"
        }
      ],
      "payable": false,
      "stateMutability": "nonpayable",
      "type": "function"
    },
    {
      "constant": true,
      "inputs": [],
      "name": "pendingContractOwner",
      "outputs": [
        {
          "name": "",
          "type": "address"
        }
      ],
      "payable": false,
      "stateMutability": "view",
      "type": "function"
    },
    {
      "constant": false,
      "inputs": [
        {
          "name": "_eventsHistory",
          "type": "address"
        }
      ],
      "name": "setEventsHistory",
      "outputs": [],
      "payable": false,
      "stateMutability": "nonpayable",
      "type": "function"
    },
    {
      "constant": false,
      "inputs": [
        {
          "name": "_contractsManager",
          "type": "address"
        }
      ],
      "name": "setContractsManager",
      "outputs": [],
      "payable": false,
      "stateMutability": "nonpayable",
      "type": "function"
    },
    {
      "constant": true,
      "inputs": [],
      "name": "sharesContract",
      "outputs": [
        {
          "name": "",
          "type": "address"
        }
      ],
      "payable": false,
      "stateMutability": "view",
      "type": "function"
    },
    {
      "constant": false,
      "inputs": [],
      "name": "destroy",
      "outputs": [],
      "payable": false,
      "stateMutability": "nonpayable",
      "type": "function"
    },
    {
      "constant": false,
      "inputs": [
        {
          "name": "_feeWallet",
          "type": "address"
        }
      ],
      "name": "setFeeWallet",
      "outputs": [],
      "payable": false,
      "stateMutability": "nonpayable",
      "type": "function"
    },
    {
      "constant": true,
      "inputs": [
        {
          "name": "_address",
          "type": "address"
        }
      ],
      "name": "depositBalance",
      "outputs": [
        {
          "name": "",
          "type": "uint256"
        }
      ],
      "payable": false,
      "stateMutability": "view",
      "type": "function"
    },
    {
      "constant": false,
      "inputs": [
        {
          "name": "_from",
          "type": "address"
        },
        {
          "name": "_to",
          "type": "address"
        },
        {
          "name": "_amount",
          "type": "uint256"
        }
      ],
      "name": "emitFeatureFeeTaken",
      "outputs": [],
      "payable": false,
      "stateMutability": "nonpayable",
      "type": "function"
    },
    {
      "constant": false,
      "inputs": [
        {
          "name": "_listener",
          "type": "address"
        }
      ],
      "name": "removeListener",
      "outputs": [],
      "payable": false,
      "stateMutability": "nonpayable",
      "type": "function"
    },
    {
      "constant": false,
      "inputs": [
        {
          "name": "_to",
          "type": "address"
        }
      ],
      "name": "transferContractOwnership",
      "outputs": [
        {
          "name": "",
          "type": "bool"
        }
      ],
      "payable": false,
      "stateMutability": "nonpayable",
      "type": "function"
    },
    {
      "constant": true,
      "inputs": [],
      "name": "getLimit",
      "outputs": [
        {
          "name": "",
          "type": "uint256"
        }
      ],
      "payable": false,
      "stateMutability": "view",
      "type": "function"
    },
    {
      "constant": false,
      "inputs": [
        {
          "name": "_amount",
          "type": "uint256"
        }
      ],
      "name": "deposit",
      "outputs": [
        {
          "name": "",
          "type": "uint256"
        }
      ],
      "payable": false,
      "stateMutability": "nonpayable",
      "type": "function"
    },
    {
      "constant": true,
      "inputs": [],
      "name": "contractOwner",
      "outputs": [
        {
          "name": "",
          "type": "address"
        }
      ],
      "payable": false,
      "stateMutability": "view",
      "type": "function"
    },
    {
      "constant": false,
      "inputs": [
        {
          "name": "_listener",
          "type": "address"
        }
      ],
      "name": "addListener",
      "outputs": [
        {
          "name": "",
          "type": "uint256"
        }
      ],
      "payable": false,
      "stateMutability": "nonpayable",
      "type": "function"
    },
    {
      "constant": false,
      "inputs": [
        {
          "name": "tokens",
          "type": "address[]"
        },
        {
          "name": "_to",
          "type": "address"
        }
      ],
      "name": "withdrawnTokens",
      "outputs": [
        {
          "name": "",
          "type": "uint256"
        }
      ],
      "payable": false,
      "stateMutability": "nonpayable",
      "type": "function"
    },
    {
      "constant": false,
      "inputs": [
        {
          "name": "error",
          "type": "uint256"
        }
      ],
      "name": "emitError",
      "outputs": [],
      "payable": false,
      "stateMutability": "nonpayable",
      "type": "function"
    },
    {
      "constant": false,
      "inputs": [
        {
          "name": "_account",
          "type": "address"
        },
        {
          "name": "_amount",
          "type": "uint256"
        }
      ],
      "name": "takeFeatureFee",
      "outputs": [
        {
          "name": "resultCode",
          "type": "uint256"
        }
      ],
      "payable": false,
      "stateMutability": "nonpayable",
      "type": "function"
    },
    {
      "constant": true,
      "inputs": [],
      "name": "feeWallet",
      "outputs": [
        {
          "name": "",
          "type": "address"
        }
      ],
      "payable": false,
      "stateMutability": "view",
      "type": "function"
    },
    {
      "constant": true,
      "inputs": [
        {
          "name": "key",
          "type": "address"
        }
      ],
      "name": "isAuthorized",
      "outputs": [
        {
          "name": "",
          "type": "bool"
        }
      ],
      "payable": false,
      "stateMutability": "view",
      "type": "function"
    },
    {
      "constant": true,
      "inputs": [],
      "name": "getEventsHistory",
      "outputs": [
        {
          "name": "",
          "type": "address"
        }
      ],
      "payable": false,
      "stateMutability": "view",
      "type": "function"
    },
    {
      "inputs": [
        {
          "name": "_store",
          "type": "address"
        },
        {
          "name": "_crate",
          "type": "bytes32"
        }
      ],
      "payable": false,
      "stateMutability": "nonpayable",
      "type": "constructor"
    },
    {
      "payable": false,
      "stateMutability": "nonpayable",
      "type": "fallback"
    },
    {
      "anonymous": false,
      "inputs": [
        {
          "indexed": false,
          "name": "who",
          "type": "address"
        },
        {
          "indexed": false,
          "name": "amount",
          "type": "uint256"
        }
      ],
      "name": "Deposit",
      "type": "event"
    },
    {
      "anonymous": false,
      "inputs": [
        {
          "indexed": false,
          "name": "who",
          "type": "address"
        },
        {
          "indexed": false,
          "name": "amount",
          "type": "uint256"
        }
      ],
      "name": "WithdrawShares",
      "type": "event"
    },
    {
      "anonymous": false,
      "inputs": [
        {
          "indexed": false,
          "name": "listener",
          "type": "address"
        }
      ],
      "name": "ListenerAdded",
      "type": "event"
    },
    {
      "anonymous": false,
      "inputs": [
        {
          "indexed": false,
          "name": "listener",
          "type": "address"
        }
      ],
      "name": "ListenerRemoved",
      "type": "event"
    },
    {
      "anonymous": false,
      "inputs": [
        {
          "indexed": false,
          "name": "self",
          "type": "address"
        },
        {
          "indexed": true,
          "name": "from",
          "type": "address"
        },
        {
          "indexed": true,
          "name": "to",
          "type": "address"
        },
        {
          "indexed": false,
          "name": "amount",
          "type": "uint256"
        }
      ],
      "name": "FeatureFeeTaken",
      "type": "event"
    },
    {
      "anonymous": false,
      "inputs": [
        {
          "indexed": true,
          "name": "self",
          "type": "address"
        },
        {
          "indexed": false,
          "name": "errorCode",
          "type": "uint256"
        }
      ],
      "name": "Error",
      "type": "event"
    }
  ],
  "bytecode": "0x606060405234156200001057600080fd5b60405160408062002d2083398101604052808051919060200180519150829050818181818181816200005360008383640100000000620025476200032182021704565b505060028054600160a060020a03338116600160a060020a03199283161790925560058054309093169290911691909117905550620000c89250600691507f7368617265686f6c64657273000000000000000000000000000000000000000090506401000000006200256d6200034782021704565b62000103600b7f6465706f736974730000000000000000000000000000000000000000000000006401000000006200257b6200036582021704565b6200013e60107f6465706f736974734964436f756e746572000000000000000000000000000000640100000000620025856200037f82021704565b6200017960117f616d6f756e747300000000000000000000000000000000000000000000000000640100000000620025956200039f82021704565b620001b460127f74696d657374616d707300000000000000000000000000000000000000000000640100000000620025956200039f82021704565b620001ef60137f746f74616c53686172657353746f726167650000000000000000000000000000640100000000620025856200037f82021704565b6200022a60147f736861726573436f6e747261637453746f726167650000000000000000000000640100000000620025856200037f82021704565b5062000268905060157f6c697374656e65727300000000000000000000000000000000000000000000006401000000006200256d6200034782021704565b620002a3601c7f6c696d6974416d6f756e74000000000000000000000000000000000000000000640100000000620025856200037f82021704565b620002de601b7f74696d65486f6c64657246656557616c6c657453746f72616765000000000000640100000000620025856200037f82021704565b62000319601a7f74696d65486f6c64657257616c6c657453746f72616765000000000000000000640100000000620025856200037f82021704565b505062000590565b8254600160a060020a031916600160a060020a0392909216919091178255600190910155565b620003618282640100000000620025ab620003b982021704565b5050565b6200036182826401000000006200256d6200034782021704565b81546200039b9082640100000000620027066200057882021704565b9055565b620003618282640100000000620025856200037f82021704565b6200041082826040519081527f75696e742f636f756e74000000000000000000000000000000000000000000006020820152602a0160405180910390206200037f6401000000000262002585176401000000009004565b6200046a82600101826040519081527f75696e742f6669727374000000000000000000000000000000000000000000006020820152602a0160405180910390206200037f6401000000000262002585176401000000009004565b620004c482600201826040519081527f75696e742f6c6173740000000000000000000000000000000000000000000000602082015260290160405180910390206200037f6401000000000262002585176401000000009004565b6200051e82600301826040519081527f75696e742f6e6578740000000000000000000000000000000000000000000000602082015260290160405180910390206200037f6401000000000262002585176401000000009004565b6200036182600401826040519081527f75696e742f707265760000000000000000000000000000000000000000000000602082015260290160405180910390206200037f6401000000000262002585176401000000009004565b8115158062000585575080155b156200036157600080fd5b61278080620005a06000396000f3006060604052600436106101a85763ffffffff60e060020a6000350416630561de9b81146101b857806306552ff3146101dc5780631638a3fb1461021f57806318160ddd1461023257806319810f3c146102455780631c3a19ed1461025b57806327ea6f2b1461027a57806328ba84ca146102905780632f4f21e2146102b25780633864a9a9146102d45780633a98ef39146102f35780634592cd1d146103065780634fe590121461032d578063521eb2731461035f57806353253d3114610372578063557f4bc9146103855780635aa77d3c146103a45780636521afd7146103b757806371d3b573146103d65780637bc1ed63146103f557806383197ef01461040857806390d49b9d1461041b578063956501bb1461043a5780639826ad69146104595780639bc5741f14610481578063a843c51f146104a0578063b295a00e146104bf578063b6b55f25146104d2578063ce606ee0146104e8578063d5b50252146104fb578063d8f9659b1461051a578063df26ca0814610574578063eca879181461058a578063f25f4b56146105ac578063fe9fbb80146105bf578063fff10aba146105de575b34156101b357600080fd5b600080fd5b34156101c357600080fd5b6101da600160a060020a03600435166024356105f1565b005b34156101e757600080fd5b61020d600160a060020a0360043581169060243581169060443581169060643516610639565b60405190815260200160405180910390f35b341561022a57600080fd5b61020d610735565b341561023d57600080fd5b61020d61074e565b341561025057600080fd5b61020d6004356107ca565b341561026657600080fd5b6101da600160a060020a0360043516610800565b341561028557600080fd5b6101da600435610840565b341561029b57600080fd5b6101da600160a060020a036004351660243561086d565b34156102bd57600080fd5b61020d600160a060020a03600435166024356108b5565b34156102df57600080fd5b6101da600160a060020a0360043516610b80565b34156102fe57600080fd5b61020d610bc0565b341561031157600080fd5b610319610bd3565b604051901515815260200160405180910390f35b341561033857600080fd5b610343600435610c1f565b604051600160a060020a03909116815260200160405180910390f35b341561036a57600080fd5b610343610ca3565b341561037d57600080fd5b610343610cb6565b341561039057600080fd5b610319600160a060020a0360043516610cc5565b34156103af57600080fd5b610343610d1c565b34156103c257600080fd5b6101da600160a060020a0360043516610d2b565b34156103e157600080fd5b6101da600160a060020a0360043516610d62565b341561040057600080fd5b610343610d99565b341561041357600080fd5b6101da610dac565b341561042657600080fd5b6101da600160a060020a0360043516610dd1565b341561044557600080fd5b61020d600160a060020a0360043516610e10565b341561046457600080fd5b6101da600160a060020a0360043581169060243516604435610e9c565b341561048c57600080fd5b6101da600160a060020a0360043516610f00565b34156104ab57600080fd5b610319600160a060020a0360043516610f42565b34156104ca57600080fd5b61020d610fbb565b34156104dd57600080fd5b61020d600435610fce565b34156104f357600080fd5b610343610fe0565b341561050657600080fd5b61020d600160a060020a0360043516610fef565b341561052557600080fd5b61020d600460248135818101908301358060208181020160405190810160405280939291908181526020018383602002808284375094965050509235600160a060020a0316925061114a915050565b341561057f57600080fd5b6101da60043561129b565b341561059557600080fd5b61020d600160a060020a03600435166024356112e2565b34156105b757600080fd5b610343611392565b34156105ca57600080fd5b610319600160a060020a03600435166113a5565b34156105e957600080fd5b61034361144b565b7f65acde034bd1126095b070c3dab2499d374f97ad47387adfb86ba47b0240a24f8282604051600160a060020a03909216825260208201526040908101905180910390a15050565b60025460009033600160a060020a039081169116141561072d57600160a060020a038316151561066857600080fd5b600160a060020a038416151561067d57600080fd5b600160a060020a038216151561069257600080fd5b6106bc857f54696d65486f6c6465720000000000000000000000000000000000000000000061145a565b506106d0600060148663ffffffff61164b16565b6107036000601c7f800000000000000000000000000000000000000000000000000000000000000063ffffffff6116cd16565b6107166000601a8563ffffffff61164b16565b6107296000601b8463ffffffff61164b16565b5060015b949350505050565b600061074881600663ffffffff61172d16565b90505b90565b60008061076281601463ffffffff61174016565b905080600160a060020a03166318160ddd6000604051602001526040518163ffffffff1660e060020a028152600401602060405180830381600087803b15156107aa57600080fd5b6102c65a03f115156107bb57600080fd5b50505060405180519250505090565b60006107d733338461179f565b9050600181146107f1576107ea81611b0e565b90506107fb565b6107fb3383611b77565b919050565b7ff8719b53666b7bc68a4c9d081dccc309d69026d56bdeaa8518620d6ff831d18981604051600160a060020a03909116815260200160405180910390a150565b60025433600160a060020a039081169116141561086a5761086a6000601c8363ffffffff6116cd16565b50565b7fe1fffcc4923d04b559f4d29a8bfc6cda04eb5b0d3c460751c2402c5c5cc9109c8282604051600160a060020a03909216825260208201526040908101905180910390a15050565b6000806000806000806108c6612520565b60008060006108d3610fbb565b8b11156108ec576108e5612ee7611b0e565b9950610b71565b6108fe6000601463ffffffff61174016565b98508a15806109955750610910610ca3565b600160a060020a0316638340f5498a338e60006040516020015260405160e060020a63ffffffff8616028152600160a060020a0393841660048201529190921660248201526044810191909152606401602060405180830381600087803b151561097957600080fd5b6102c65a03f1151561098a57600080fd5b505050604051805190505b15156109a6576108e5612ee3611b0e565b6109b9600060068e63ffffffff611bea16565b15156109d2576109d2600060068e63ffffffff611c0016565b6109e46000601063ffffffff611c1916565b97506001880196506109ff600060108963ffffffff6116cd16565b610a1c6000600b600160a060020a038f168a63ffffffff611c7816565b610a31600060118e8a8f63ffffffff611c8a16565b610a46600060128e8a4263ffffffff611c8a16565b610a4f8c610e10565b9550610a636000601563ffffffff611ca016565b9350600092505b610a7d600060158663ffffffff611cb216565b15610b3757610a95600060158663ffffffff611cbf16565b915081600160a060020a0316630efe6a8b8d8d8960006040516020015260405160e060020a63ffffffff8616028152600160a060020a03909316600484015260248301919091526044820152606401602060405180830381600087803b1515610afd57600080fd5b6102c65a03f11515610b0e57600080fd5b505050604051805195505060018514610b2c57610b2a85611b0e565b505b600190920191610a6a565b610b418c8c611ccc565b610b536000601363ffffffff611c1916565b9a8b019a9050610b6c600060138d63ffffffff6116cd16565b600199505b50505050505050505092915050565b7ff4b5d7970f8d26d7e8c6b74e8ffad0e1b0f67bc7f92238bd7efd485731eceafa81604051600160a060020a03909116815260200160405180910390a150565b600061074881601363ffffffff611c1916565b60035460009033600160a060020a03908116911614610bf45750600061074b565b506003805460028054600160a060020a0319908116600160a060020a03841617909155169055600190565b600454600090600160a060020a031663bc65792783836040516020015260405160e060020a63ffffffff84160281526004810191909152602401602060405180830381600087803b1515610c7257600080fd5b6102c65a03f11515610c8357600080fd5b5050506040518051915050600160a060020a03811615156107fb57600080fd5b600061074881601a63ffffffff61174016565b600454600160a060020a031681565b60025460009033600160a060020a03908116911614156107fb57600160a060020a0382161515610cf7575060006107fb565b5060038054600160a060020a038316600160a060020a03199091161790556001919050565b600354600160a060020a031681565b60025433600160a060020a039081169116141561086a5760058054600160a060020a038316600160a060020a031990911617905550565b60025433600160a060020a039081169116141561086a5760048054600160a060020a038316600160a060020a031990911617905550565b600061074881601463ffffffff61174016565b60025433600160a060020a0390811691161415610dcf5733600160a060020a0316ff5b565b60025433600160a060020a039081169116141561086a57600160a060020a0381161515610dfd57600080fd5b61086a6000601b8363ffffffff61164b16565b600080610e1b612520565b600080610e3981600b600160a060020a03891663ffffffff611d2716565b9250600091505b610e536000600b8563ffffffff611d3a16565b15610e9257610e81601187610e716000600b8863ffffffff611d4716565b600092919063ffffffff611d5416565b938401936001909201919050610e40565b5091949350505050565b81600160a060020a031683600160a060020a03167f2943030ec8237acc21c9f7b88449db73d4b0f8e1c64675fa50b58844c9fb69ec610ed9611d74565b84604051600160a060020a03909216825260208201526040908101905180910390a3505050565b610f09336113a5565b1561086a57610f21600060158363ffffffff611bea16565b1561086a57610f39600060158363ffffffff611d7816565b61086a81611d8c565b60025460009033600160a060020a03908116911614156107fb57600160a060020a0382161515610f74575060006107fb565b600354600160a060020a031615610f965760038054600160a060020a03191690555b5060028054600160a060020a038316600160a060020a03199091161790556001919050565b600061074881601c63ffffffff611c1916565b6000610fda33836108b5565b92915050565b600254600160a060020a031681565b6000610ffa336113a5565b156107fb5781600160a060020a0316630efe6a8b3060008060006040516020015260405160e060020a63ffffffff8616028152600160a060020a03909316600484015260248301919091526044820152606401602060405180830381600087803b151561106657600080fd5b6102c65a03f1151561107757600080fd5b50505060405180515050600160a060020a03821663fb26441f30600080806040516020015260405160e060020a63ffffffff8616028152600160a060020a03909316600484015260248301919091526044820152606401602060405180830381600087803b15156110e757600080fd5b6102c65a03f115156110f857600080fd5b5050506040518051506111169050600060158463ffffffff611bea16565b15611126576107ea612ee0611b0e565b611139600060158463ffffffff611c0016565b61114282611df2565b506001919050565b60025460009081908190819033600160a060020a039081169116141561129257600092505b855183101561128d5785838151811061118457fe5b90602001906020020151915081600160a060020a03166370a082313060006040516020015260405160e060020a63ffffffff8416028152600160a060020a039091166004820152602401602060405180830381600087803b15156111e757600080fd5b6102c65a03f115156111f857600080fd5b505050604051805191505080156112825781600160a060020a031663a9059cbb868360006040516020015260405160e060020a63ffffffff8516028152600160a060020a0390921660048301526024820152604401602060405180830381600087803b151561126657600080fd5b6102c65a03f1151561127757600080fd5b505050604051805150505b60019092019161116f565b600193505b50505092915050565b6112a3611d74565b600160a060020a03167f9cf38cf2dbf9139f5c32639950507b10775fbbe0421f3e168bc2d1bb1ae3208c8260405190815260200160405180910390a250565b600061130d7f466561747572654665654d616e61676572000000000000000000000000000000610c1f565b600160a060020a031633600160a060020a03161415610fda57600160a060020a038316151561133b57600080fd5b611343611392565b600160a060020a0316151561135457fe5b61136683611360611392565b8461179f565b9050600181146113805761137981611b0e565b9050610fda565b610fda8361138c611392565b84611e47565b600061074881601b63ffffffff61174016565b6000806113d17f557365724d616e61676572000000000000000000000000000000000000000000610c1f565b905080600160a060020a0316632aa09e5a8460006040516020015260405160e060020a63ffffffff8416028152600160a060020a039091166004820152602401602060405180830381600087803b151561142a57600080fd5b6102c65a03f1151561143b57600080fd5b5050506040518051949350505050565b600554600160a060020a031690565b60025460009081908190819033600160a060020a0390811691161461147e57600080fd5b600160a060020a038616151561149357600080fd5b600454600160a060020a03161580159350806114bd5750600454600160a060020a03878116911614155b156114de5760048054600160a060020a031916600160a060020a0388161790555b600454600160a060020a031691508163bc65792760006040516020015260405160e060020a63ffffffff83160281527f4d756c74694576656e7473486973746f727900000000000000000000000000006004820152602401602060405180830381600087803b151561154f57600080fd5b6102c65a03f1151561156057600080fd5b5050506040518051915050600160a060020a038116158015906115915750600554600160a060020a03828116911614155b156115b25760058054600160a060020a031916600160a060020a0383161790555b84156116395781600160a060020a031663b7c46cd5308760006040516020015260405160e060020a63ffffffff8516028152600160a060020a0390921660048301526024820152604401602060405180830381600087803b151561161557600080fd5b6102c65a03f1151561162657600080fd5b5050506040518051600114905061163957fe5b821561128d5760069695505050505050565b825460018401548354600160a060020a03909216916379a7cfee91908460405160e060020a63ffffffff861602815260048101939093526024830191909152600160a060020a03166044820152606401600060405180830381600087803b15156116b457600080fd5b6102c65a03f115156116c557600080fd5b505050505050565b825460018401548354600160a060020a03909216916353e7168b91908460405160e060020a63ffffffff8616028152600481019390935260248301919091526044820152606401600060405180830381600087803b15156116b457600080fd5b60006117398383611eaf565b9392505050565b815460018301548254600092600160a060020a03169163d3a3968691846040516020015260405160e060020a63ffffffff851602815260048101929092526024820152604401602060405180830381600087803b151561142a57600080fd5b60008060006117ac612520565b6000806000806000806117bd610fbb565b8b11156117d6576117cf612ee7611b0e565b9950611afe565b6117df8d610e10565b8b11156117f1576117cf612ee6611b0e565b6117f9610ca3565b600160a060020a031663d9caed1261180f610d99565b8e8e60006040516020015260405160e060020a63ffffffff8616028152600160a060020a0393841660048201529190921660248201526044810191909152606401602060405180830381600087803b151561186957600080fd5b6102c65a03f1151561187a57600080fd5b505050604051805190501515611895576117cf612ee3611b0e565b8a98506118a18d610e10565b156119e0576118c9600b8e600160a060020a03166001026000611d279092919063ffffffff16565b96506118d487611eca565b955085156119c657600097505b6118f46000600b8963ffffffff611d3a16565b156119c65761190c6000600b8963ffffffff611d4716565b9450611922600060118f8863ffffffff611d5416565b9350838b101561194857611943600060118f888f890363ffffffff611c8a16565b6119c6565b838b141561198157611975600b8e600160a060020a0316600102876000611ed7909392919063ffffffff16565b600019909501946119c6565b838b11156119bb57838b039a506119b3600b8e600160a060020a0316600102876000611ed7909392919063ffffffff16565b600019909501945b6001909701966118e1565b8515156119e0576119e0600060068f63ffffffff611d7816565b6119e98d610e10565b91506119fd6000601563ffffffff611ca016565b9650600097505b611a17600060158963ffffffff611cb216565b15611ad157611a2f600060158963ffffffff611cbf16565b905080600160a060020a031663fb26441f8e8b8560006040516020015260405160e060020a63ffffffff8616028152600160a060020a03909316600484015260248301919091526044820152606401602060405180830381600087803b1515611a9757600080fd5b6102c65a03f11515611aa857600080fd5b505050604051805193505060018314611ac657611ac483611b0e565b505b600190970196611a04565b611af960138a611ae860008363ffffffff611c1916565b60009291900363ffffffff6116cd16565b600199505b5050505050505050509392505050565b6000611b1861144b565b600160a060020a031663df26ca088360405160e060020a63ffffffff84160281526004810191909152602401600060405180830381600087803b1515611b5d57600080fd5b6102c65a03f11515611b6e57600080fd5b50929392505050565b611b7f61144b565b600160a060020a0316630561de9b838360405160e060020a63ffffffff8516028152600160a060020a0390921660048301526024820152604401600060405180830381600087803b1515611bd257600080fd5b6102c65a03f11515611be357600080fd5b5050505050565b600061072d8484600160a060020a038516611ee3565b611c148383600160a060020a038416611eff565b505050565b815460018301548254600092600160a060020a0316916353aa3f5e91846040516020015260405160e060020a63ffffffff851602815260048101929092526024820152604401602060405180830381600087803b151561142a57600080fd5b611c8484848484611f19565b50505050565b611be38585600160a060020a0386168585611f25565b611ca8612520565b6117398383611f49565b600061072d848484611f6a565b600061072d848484611fa5565b611cd461144b565b600160a060020a03166328ba84ca838360405160e060020a63ffffffff8516028152600160a060020a0390921660048301526024820152604401600060405180830381600087803b1515611bd257600080fd5b611d2f612520565b61072d848484611ff1565b600061072d848484611cb2565b600061072d848484611cbf565b6000611d6b8585600160a060020a03861685612004565b95945050505050565b3390565b611c148383600160a060020a038416612029565b611d9461144b565b600160a060020a0316631c3a19ed8260405160e060020a63ffffffff8416028152600160a060020a039091166004820152602401600060405180830381600087803b1515611de157600080fd5b6102c65a03f11515611c8457600080fd5b611dfa61144b565b600160a060020a0316633864a9a98260405160e060020a63ffffffff8416028152600160a060020a039091166004820152602401600060405180830381600087803b1515611de157600080fd5b611e4f61144b565b600160a060020a0316639826ad6984848460405160e060020a63ffffffff8616028152600160a060020a0393841660048201529190921660248201526044810191909152606401600060405180830381600087803b15156116b457600080fd5b60006117398383600080516020612735833981519152612043565b6000816020015192915050565b611c8484848484612050565b600061072d84846000805160206127358339815191528561205c565b611c14838360008051602061273583398151915284612098565b611c8484848484612098565b611be385858585604051918252602082015260409081019051809103902084612160565b611f51612520565b61173983836000805160206127358339815191526121f2565b600081602001511580611f8e5750611f8c84848460600151856040015161205c565b155b15611f9b57506000611739565b5060019392505050565b6000611fb2848484611f6a565b1515611fbd57600080fd5b81604001519050611fd8848484606001518560400151612210565b6040830152600160208301818151039052509392505050565b611ff9612520565b61072d8484846121f2565b6000611d6b858585856040519182526020820152604090810190518091039020612221565b611c148383600080516020612735833981519152846122bb565b600061072d8484846123b6565b611c84848484846122bb565b60008115801590611d6b575061207785856003018585612004565b151580611d6b57508161208e866002870186612221565b1495945050505050565b8015156120a457600080fd5b6120b08484848461205c565b156120ba57611c84565b6120c5848484612043565b15156120da576120da84846001018484612160565b6120e8848460020184612221565b156121275761210a848460030184612104888860020188612221565b8561242e565b61212784846004018484612122898960020189612221565b61242e565b61213884600385018484600061242e565b61214784846002018484612160565b611c848484846121588383836123b6565b600101612441565b835460018501548454600160a060020a039092169163a14ff85791908560405191825260208201526040908101905180910390208460405160e060020a63ffffffff8616028152600481019390935260248301919091526044820152606401600060405180830381600087803b15156121d857600080fd5b6102c65a03f115156121e957600080fd5b50505050505050565b6121fa612520565b61072d84848461220b8383836123b6565b6124b9565b6000611d6b85856003018585612004565b825460018401548354600092600160a060020a0316916337d9d7fc9185604051918252602082015260409081019051809103902060006040516020015260405160e060020a63ffffffff851602815260048101929092526024820152604401602060405180830381600087803b151561229957600080fd5b6102c65a03f115156122aa57600080fd5b505050604051805195945050505050565b6122c78484848461205c565b15156122d257611c84565b6122f98484600301846122ea88886004018888612004565b61212289896003018989612004565b61232084846004018461231188886003018888612004565b61212289896004018989612004565b61232e848460010184612221565b8114156123525761235284846001018461234d88886003018888612004565b612160565b612360848460020184612221565b81141561237f5761237f84846002018461234d88886004018888612004565b61238e848460030184846124d9565b61239d848460040184846124d9565b611c8484848460016123b08484846123b6565b03612441565b825460018401548354600092600160a060020a0316916353aa3f5e9185604051918252602082015260409081019051809103902060006040516020015260405160e060020a63ffffffff851602815260048101929092526024820152604401602060405180830381600087803b151561229957600080fd5b8115611be357611be38585858585611f25565b835460018501548454600160a060020a03909216916353e7168b91908560405191825260208201526040908101905180910390208460405160e060020a63ffffffff8616028152600481019390935260248301919091526044820152606401600060405180830381600087803b15156121d857600080fd5b6124c1612520565b611d6b836124d3878760010187612221565b846124ed565b8015611c8457611c84848484846000611f25565b6124f5612520565b6080604051908101604090815283825260208201939093529182019290925260608101929092525090565b60806040519081016040908152600080835260208301819052908201819052606082015290565b8254600160a060020a031916600160a060020a0392909216919091178255600190910155565b61257782826125ab565b5050565b612577828261256d565b81546125919082612706565b9055565b6125778282612585565b81546125919082612706565b6125ec82826040519081527f75696e742f636f756e74000000000000000000000000000000000000000000006020820152602a016040518091039020612585565b61263082600101826040519081527f75696e742f6669727374000000000000000000000000000000000000000000006020820152602a016040518091039020612585565b61267482600201826040519081527f75696e742f6c617374000000000000000000000000000000000000000000000060208201526029016040518091039020612585565b6126b882600301826040519081527f75696e742f6e657874000000000000000000000000000000000000000000000060208201526029016040518091039020612585565b61257782600401826040519081527f75696e742f70726576000000000000000000000000000000000000000000000060208201526029016040518091039020612585565b61257782826125ab565b81151580612712575080155b1561257757600080fd5b81546125919082612706565b8154612591908261270656006f7264657265645f736574000000000000000000000000000000000000000000a165627a7a72305820ad7b3f1ed9d5bb9f735c4f4aaee582138d98db73fd104ad06007d753c848cc730029",
  "source": "pragma solidity ^0.4.11;\n\nimport \"./TimeHolderEmmiter.sol\";\nimport \"../core/common/BaseManager.sol\";\nimport \"../core/common/ListenerInterface.sol\";\nimport \"../core/common/Deposits.sol\";\nimport {ERC20Interface as Asset} from \"../core/erc20/ERC20Interface.sol\";\nimport \"./DepositWalletInterface.sol\";\n\ncontract TimeHolder is Deposits, TimeHolderEmmiter {\n\n    uint constant ERROR_TIMEHOLDER_ALREADY_ADDED = 12000;\n    uint constant ERROR_TIMEHOLDER_INVALID_INVOCATION = 12001;\n    uint constant ERROR_TIMEHOLDER_INVALID_STATE = 12002;\n    uint constant ERROR_TIMEHOLDER_TRANSFER_FAILED = 12003;\n    uint constant ERROR_TIMEHOLDER_WITHDRAWN_FAILED = 12004;\n    uint constant ERROR_TIMEHOLDER_DEPOSIT_FAILED = 12005;\n    uint constant ERROR_TIMEHOLDER_INSUFFICIENT_BALANCE = 12006;\n    uint constant ERROR_TIMEHOLDER_LIMIT_EXCEEDED = 12007;\n\n    StorageInterface.OrderedAddressesSet listeners;\n    StorageInterface.Address walletStorage;\n    StorageInterface.Address feeWalletStorage;\n    StorageInterface.UInt limitAmount;\n\n    modifier onlyFeatureFeeManager() {\n        if (msg.sender == lookupManager(\"FeatureFeeManager\")) {\n            _;\n        }\n    }\n\n    function TimeHolder(Storage _store, bytes32 _crate) Deposits(_store, _crate) {\n        listeners.init('listeners');\n        limitAmount.init('limitAmount');\n        feeWalletStorage.init(\"timeHolderFeeWalletStorage\");\n        walletStorage.init(\"timeHolderWalletStorage\");\n    }\n\n    /**\n     * Init TimeHolder contract.\n     *\n     *\n     * @param _contractsManager address.\n     * @param _sharesContract ERC20 token address to act as shares.\n     *\n     * @return success.\n     */\n    function init(address _contractsManager, address _sharesContract, address _wallet, address _feeWallet) onlyContractOwner returns (uint) {\n        require(_wallet != 0x0);\n        require(_sharesContract != 0x0);\n        require(_feeWallet != 0x0);\n\n        BaseManager.init(_contractsManager, \"TimeHolder\");\n\n        store.set(sharesContractStorage, _sharesContract);\n        store.set(limitAmount, 2**255);\n        store.set(walletStorage, _wallet);\n        store.set(feeWalletStorage, _feeWallet);\n\n        return OK;\n    }\n\n    function destroy() onlyContractOwner {\n        selfdestruct(msg.sender);\n    }\n\n    function addListener(address _listener) onlyAuthorized returns (uint) {\n        //if(store.includes(listeners,_listener) || !_listener.call.gas(3000).value(0)(bytes4(sha3(\"deposit(address,uint256,uint256)\")),this,0,0) || !_listener.call.gas(3000).value(0)(bytes4(sha3(\"withdrawn(address,uint256,uint256)\")),this,0,0)) {\n        //    return _emitError(ERROR_TIMEHOLDER_INVALID_INVOCATION);\n        //}\n        ListenerInterface(_listener).deposit(this,0,0);\n        ListenerInterface(_listener).withdrawn(this,0,0);\n        if(store.includes(listeners,_listener)) {\n            return _emitError( ERROR_TIMEHOLDER_ALREADY_ADDED);\n        }\n\n        store.add(listeners,_listener);\n\n        _emitListenerAdded(_listener);\n\n        return OK;\n    }\n\n    /**\n    *  Sets fee wallet address.\n    */\n    function setFeeWallet(address _feeWallet) onlyContractOwner {\n        require(_feeWallet != 0x0);\n        store.set(feeWalletStorage, _feeWallet);\n    }\n\n    function removeListener(address _listener) onlyAuthorized {\n        if (store.includes(listeners, _listener)) {\n            store.remove(listeners, _listener);\n            _emitListenerRemoved(_listener);\n        }\n    }\n\n    /**\n    * Gets an associated wallet for the time holder\n    */\n    function wallet() constant returns (address) {\n        return store.get(walletStorage);\n    }\n\n    /**\n    * Gets an associated fee wallet for the time holder\n    */\n    function feeWallet() constant returns (address) {\n        return store.get(feeWalletStorage);\n    }\n\n    /**\n    * Total amount of shares\n    *\n    * @return total amount of shares\n    */\n    function totalShares() constant returns (uint) {\n        return store.get(totalSharesStorage);\n    }\n\n    /**\n    * Contract address of shares\n    *\n    * @return address of shares contract\n    */\n    function sharesContract() constant returns (address) {\n        return store.get(sharesContractStorage);\n    }\n\n    /**\n    * Number of shareholders\n    *\n    * @return number of shareholders\n    */\n    function shareholdersCount() constant returns (uint) {\n        return store.count(shareholders);\n    }\n\n    /**\n    * Returns deposit/withdraw limit\n    *\n    * @return limit\n    */\n    function getLimit() constant returns (uint) {\n        return store.get(limitAmount);\n    }\n\n    /**\n    * Setter deposit/withdraw limit\n    *\n    * @param _limitAmount is limit\n    */\n    function setLimit(uint _limitAmount) onlyContractOwner {\n        store.set(limitAmount, _limitAmount);\n    }\n\n    /**\n     * Deposit shares and prove possession.\n     * Amount should be less than or equal to current allowance value.\n     *\n     * Proof should be repeated for each active period. To prove possesion without\n     * depositing more shares, specify 0 amount.\n     *\n     * @param _amount amount of shares to deposit, or 0 to just prove.\n     *\n     * @return success.\n     */\n    function deposit(uint _amount) returns (uint) {\n        return depositFor(msg.sender, _amount);\n    }\n\n    /**\n     * Deposit own shares and prove possession for arbitrary shareholder.\n     * Amount should be less than or equal to caller current allowance value.\n     *\n     * Proof should be repeated for each active period. To prove possesion without\n     * depositing more shares, specify 0 amount.\n     *\n     * This function meant to be used by some backend application to prove shares possesion\n     * of arbitrary shareholders.\n     *\n     * @param _address to deposit and prove for.\n     * @param _amount amount of shares to deposit, or 0 to just prove.\n     *\n     * @return success.\n     */\n    function depositFor(address _address, uint _amount) returns (uint) {\n        if (_amount > getLimit()) {\n            return _emitError(ERROR_TIMEHOLDER_LIMIT_EXCEEDED);\n        }\n\n        address asset = store.get(sharesContractStorage);\n        if (!(_amount == 0 || DepositWalletInterface(wallet()).deposit(asset, msg.sender, _amount))) {\n            return _emitError(ERROR_TIMEHOLDER_TRANSFER_FAILED);\n        }\n\n        if(!store.includes(shareholders,_address)) {\n            store.add(shareholders,_address);\n        }\n\n        uint prevId = store.get(depositsIdCounter);\n        uint id = prevId + 1;\n        store.set(depositsIdCounter, id);\n        store.add(deposits,bytes32(_address),id);\n        store.set(amounts,_address,id,_amount);\n        store.set(timestamps,_address,id,now);\n\n        uint balance = depositBalance(_address);\n        uint errorCode;\n        StorageInterface.Iterator memory iterator = store.listIterator(listeners);\n        for(uint i = 0; store.canGetNextWithIterator(listeners,iterator); i++) {\n            address listener = store.getNextWithIterator(listeners,iterator);\n            errorCode = ListenerInterface(listener).deposit(_address, _amount, balance);\n            if (OK != errorCode) {\n                _emitError(errorCode);\n            }\n        }\n\n        _emitDeposit(_address, _amount);\n\n        uint prevAmount = store.get(totalSharesStorage);\n        _amount += prevAmount;\n        store.set(totalSharesStorage,_amount);\n\n        return OK;\n    }\n\n    /**\n    * Withdraw shares from the contract, updating the possesion proof in active period.\n    *\n    * @param _amount amount of shares to withdraw.\n    *\n    * @return success.\n    */\n    function withdrawShares(uint _amount) returns (uint resultCode) {\n        resultCode = _withdrawShares(msg.sender, msg.sender, _amount);\n        if (resultCode != OK) {\n            return _emitError(resultCode);\n        }\n\n        _emitWithdrawShares(msg.sender, _amount);\n    }\n\n    /**\n    * @dev Provides a way to support getting additional fee for using features of the system.\n    *\n    * @param _account holder of deposits, will pay for using a features\n    * @param _amount size of a fee\n    *\n    * @return resultCode result code of the operation\n    */\n    function takeFeatureFee(address _account, uint _amount) onlyFeatureFeeManager\n    public returns (uint resultCode)\n    {\n        require(_account != 0x0);\n\n        assert(feeWallet() != 0x0);\n\n        resultCode = _withdrawShares(_account, feeWallet(), _amount);\n        if (resultCode != OK) {\n            return _emitError(resultCode);\n        }\n\n        _emitFeatureFeeTaken(_account, feeWallet(), _amount);\n    }\n\n    /**\n    * @dev Withdraws deposited amount of tokens from account to a receiver address.\n    * Emits its own errorCodes if some will be encountered.\n    *\n    * @param _account an address that have deposited tokens\n    * @param _receiver an address that will receive tokens from _account\n    * @param _amount amount of tokens to withdraw to the _receiver\n    *\n    * @return result code of the operation\n    */\n    function _withdrawShares(address _account, address _receiver, uint _amount) internal returns (uint) {\n        if (_amount > getLimit()) {\n            return _emitError(ERROR_TIMEHOLDER_LIMIT_EXCEEDED);\n        }\n\n        if (_amount > depositBalance(_account)) {\n            return _emitError(ERROR_TIMEHOLDER_INSUFFICIENT_BALANCE);\n        }\n\n        if (!DepositWalletInterface(wallet()).withdraw(sharesContract(), _receiver, _amount)) {\n            return _emitError(ERROR_TIMEHOLDER_TRANSFER_FAILED);\n        }\n\n        uint _original_amount = _amount;\n        uint i;\n\n        StorageInterface.Iterator memory iterator;\n\n        if (depositBalance(_account) != 0) {\n            iterator = store.listIterator(deposits, bytes32(_account));\n            uint deposits_count = iterator.count();\n            if (deposits_count != 0) {\n                for (i = 0; store.canGetNextWithIterator(deposits,iterator); i++) {\n                    uint _id = store.getNextWithIterator(deposits,iterator);\n                    uint _cur_amount = store.get(amounts, _account, _id);\n                    if (_amount < _cur_amount) {\n                        store.set(amounts, _account, _id, _cur_amount - _amount);\n                        break;\n                    }\n                    if (_amount == _cur_amount) {\n                        store.remove(deposits, bytes32(_account), _id);\n                        deposits_count--;\n                        break;\n                    }\n                    if (_amount > _cur_amount) {\n                        _amount -= _cur_amount;\n                        store.remove(deposits, bytes32(_account), _id);\n                        deposits_count--;\n                    }\n                }\n            }\n            if (deposits_count == 0) {\n                store.remove(shareholders, _account);\n            }\n        }\n\n        uint errorCode;\n        uint balance = depositBalance(_account);\n\n        iterator = store.listIterator(listeners);\n        for (i = 0; store.canGetNextWithIterator(listeners,iterator); i++) {\n            address listener = store.getNextWithIterator(listeners, iterator);\n            errorCode = ListenerInterface(listener).withdrawn(_account, _original_amount, balance);\n            if (errorCode != OK) {\n                _emitError(errorCode);\n            }\n        }\n\n        store.set(totalSharesStorage,store.get(totalSharesStorage) - _original_amount);\n\n        return OK;\n    }\n\n    function totalSupply() constant returns (uint) {\n        address asset = store.get(sharesContractStorage);\n        return ERC20Interface(asset).totalSupply();\n    }\n\n    function _emitDeposit(address who, uint amount) private {\n        TimeHolder(getEventsHistory()).emitDeposit(who, amount);\n    }\n\n    function _emitWithdrawShares(address who, uint amount) private {\n        TimeHolder(getEventsHistory()).emitWithdrawShares(who, amount);\n    }\n\n    function _emitListenerAdded(address listener) private {\n        TimeHolder(getEventsHistory()).emitListenerAdded(listener);\n    }\n\n    function _emitListenerRemoved(address listener) private {\n        TimeHolder(getEventsHistory()).emitListenerRemoved(listener);\n    }\n\n    function _emitFeatureFeeTaken(address _from, address _to, uint _amount) private {\n        TimeHolder(getEventsHistory()).emitFeatureFeeTaken(_from, _to, _amount);\n    }\n\n    function _emitError(uint e) private returns (uint) {\n        TimeHolder(getEventsHistory()).emitError(e);\n        return e;\n    }\n\n    function() {\n        revert();\n    }\n}\n",
  "sourcePath": "/Users/ahiatsevich/Development/chronobank/SmartContracts/contracts/timeholder/TimeHolder.sol",
  "compiler": {
    "name": "solc",
    "version": "0.4.18+commit.9cf6e910.Emscripten.clang"
  },
  "schemaVersion": "1.0.1",
  "updatedAt": "2017-12-11T12:14:44.838Z"
}