{
  "contractName": "UserManagerEmitter",
  "abi": [
    {
      "constant": false,
      "inputs": [
        {
          "name": "required",
          "type": "uint256"
        }
      ],
      "name": "emitSetRequired",
      "outputs": [],
      "payable": false,
      "stateMutability": "nonpayable",
      "type": "function"
    },
    {
      "constant": false,
      "inputs": [
        {
          "name": "key",
          "type": "address"
        }
      ],
      "name": "emitNewUserRegistered",
      "outputs": [],
      "payable": false,
      "stateMutability": "nonpayable",
      "type": "function"
    },
    {
      "constant": false,
      "inputs": [
        {
          "name": "key",
          "type": "address"
        }
      ],
      "name": "emitCBEUpdate",
      "outputs": [],
      "payable": false,
      "stateMutability": "nonpayable",
      "type": "function"
    },
    {
      "constant": false,
      "inputs": [
        {
          "name": "error",
          "type": "uint256"
        }
      ],
      "name": "emitError",
      "outputs": [],
      "payable": false,
      "stateMutability": "nonpayable",
      "type": "function"
    },
    {
      "constant": false,
      "inputs": [
        {
          "name": "key",
          "type": "address"
        },
        {
          "name": "oldHash",
          "type": "bytes32"
        },
        {
          "name": "newHash",
          "type": "bytes32"
        }
      ],
      "name": "emitHashUpdate",
      "outputs": [],
      "payable": false,
      "stateMutability": "nonpayable",
      "type": "function"
    },
    {
      "anonymous": false,
      "inputs": [
        {
          "indexed": true,
          "name": "self",
          "type": "address"
        },
        {
          "indexed": false,
          "name": "key",
          "type": "address"
        }
      ],
      "name": "NewUserRegistered",
      "type": "event"
    },
    {
      "anonymous": false,
      "inputs": [
        {
          "indexed": true,
          "name": "self",
          "type": "address"
        },
        {
          "indexed": false,
          "name": "key",
          "type": "address"
        }
      ],
      "name": "CBEUpdate",
      "type": "event"
    },
    {
      "anonymous": false,
      "inputs": [
        {
          "indexed": true,
          "name": "self",
          "type": "address"
        },
        {
          "indexed": false,
          "name": "required",
          "type": "uint256"
        }
      ],
      "name": "SetRequired",
      "type": "event"
    },
    {
      "anonymous": false,
      "inputs": [
        {
          "indexed": true,
          "name": "self",
          "type": "address"
        },
        {
          "indexed": true,
          "name": "key",
          "type": "address"
        },
        {
          "indexed": false,
          "name": "oldHash",
          "type": "bytes32"
        },
        {
          "indexed": false,
          "name": "newHash",
          "type": "bytes32"
        }
      ],
      "name": "SetHash",
      "type": "event"
    },
    {
      "anonymous": false,
      "inputs": [
        {
          "indexed": true,
          "name": "self",
          "type": "address"
        },
        {
          "indexed": false,
          "name": "errorCode",
          "type": "uint256"
        }
      ],
      "name": "Error",
      "type": "event"
    }
  ],
  "bytecode": "0x6060604052341561000f57600080fd5b6102bc8061001e6000396000f30060606040526004361061006c5763ffffffff7c010000000000000000000000000000000000000000000000000000000060003504166326c325f881146100715780637f52e06f14610089578063cb979a2f146100a8578063df26ca08146100c7578063f8ac9f53146100dd575b600080fd5b341561007c57600080fd5b610087600435610102565b005b341561009457600080fd5b610087600160a060020a0360043516610149565b34156100b357600080fd5b610087600160a060020a036004351661019a565b34156100d257600080fd5b6100876004356101eb565b34156100e857600080fd5b610087600160a060020a0360043516602435604435610232565b61010a61028c565b600160a060020a03167f0b690e53a6be709e0cc01ef89225cbf2c276dd502acfd5577de9af86971afd298260405190815260200160405180910390a250565b61015161028c565b600160a060020a03167f6375fd6fc2ddd4dbe542dc0a550ddd2de124bd5ae37738254e72894dc8807dfe82604051600160a060020a03909116815260200160405180910390a250565b6101a261028c565b600160a060020a03167f9678dbf6359a7a9c6485a121abb25cccca4f9bf168d030f39227cc429b8e4a1782604051600160a060020a03909116815260200160405180910390a250565b6101f361028c565b600160a060020a03167f9cf38cf2dbf9139f5c32639950507b10775fbbe0421f3e168bc2d1bb1ae3208c8260405190815260200160405180910390a250565b82600160a060020a031661024461028c565b600160a060020a03167fb47d03ee3dee8637e72e00524192c281f6e61af55ee25d7f7f96e522f93dd11b848460405191825260208201526040908101905180910390a3505050565b33905600a165627a7a7230582022585b2a4d479d9fc2e348b6adad47c71e173730d79e8e23602b21a0bce21ba80029",
  "source": "pragma solidity ^0.4.11;\n\nimport '../event/MultiEventsHistoryAdapter.sol';\n\ncontract UserManagerEmitter is MultiEventsHistoryAdapter {\n\n    event NewUserRegistered(address indexed self, address key);\n    event CBEUpdate(address indexed self, address key);\n    event SetRequired(address indexed self, uint required);\n    event SetHash(address indexed self, address indexed key, bytes32 oldHash, bytes32 newHash);\n    event Error(address indexed self, uint errorCode);\n\n    function emitNewUserRegistered(address key) {\n        NewUserRegistered(_self(), key);\n    }\n\n    function emitCBEUpdate(address key) {\n        CBEUpdate(_self(), key);\n    }\n\n    function emitSetRequired(uint required) {\n        SetRequired(_self(), required);\n    }\n\n    function emitHashUpdate(address key, bytes32 oldHash, bytes32 newHash) {\n        SetHash(_self(), key, oldHash, newHash);\n    }\n\n    function emitError(uint error) {\n        Error(_self(), error);\n    }\n}\n",
  "sourcePath": "/Users/ahiatsevich/Development/chronobank/SmartContracts/contracts/core/user/UserManagerEmitter.sol",
  "compiler": {
    "name": "solc",
    "version": "0.4.18+commit.9cf6e910.Emscripten.clang"
  },
  "schemaVersion": "1.0.1",
  "updatedAt": "2017-12-15T11:25:49.975Z"
}