{
  "contractName": "UserManager",
  "abi": [
    {
      "constant": false,
      "inputs": [
        {
          "name": "_required",
          "type": "uint256"
        }
      ],
      "name": "setRequired",
      "outputs": [
        {
          "name": "errorCode",
          "type": "uint256"
        }
      ],
      "payable": false,
      "stateMutability": "nonpayable",
      "type": "function"
    },
    {
      "constant": true,
      "inputs": [],
      "name": "userCount",
      "outputs": [
        {
          "name": "",
          "type": "uint256"
        }
      ],
      "payable": false,
      "stateMutability": "view",
      "type": "function"
    },
    {
      "constant": false,
      "inputs": [
        {
          "name": "_contractsManager",
          "type": "address"
        }
      ],
      "name": "init",
      "outputs": [
        {
          "name": "",
          "type": "uint256"
        }
      ],
      "payable": false,
      "stateMutability": "nonpayable",
      "type": "function"
    },
    {
      "constant": false,
      "inputs": [
        {
          "name": "required",
          "type": "uint256"
        }
      ],
      "name": "emitSetRequired",
      "outputs": [],
      "payable": false,
      "stateMutability": "nonpayable",
      "type": "function"
    },
    {
      "constant": true,
      "inputs": [
        {
          "name": "key",
          "type": "address"
        }
      ],
      "name": "getCBE",
      "outputs": [
        {
          "name": "",
          "type": "bool"
        }
      ],
      "payable": false,
      "stateMutability": "view",
      "type": "function"
    },
    {
      "constant": true,
      "inputs": [],
      "name": "adminCount",
      "outputs": [
        {
          "name": "",
          "type": "uint256"
        }
      ],
      "payable": false,
      "stateMutability": "view",
      "type": "function"
    },
    {
      "constant": false,
      "inputs": [],
      "name": "claimContractOwnership",
      "outputs": [
        {
          "name": "",
          "type": "bool"
        }
      ],
      "payable": false,
      "stateMutability": "nonpayable",
      "type": "function"
    },
    {
      "constant": true,
      "inputs": [
        {
          "name": "_identifier",
          "type": "bytes32"
        }
      ],
      "name": "lookupManager",
      "outputs": [
        {
          "name": "manager",
          "type": "address"
        }
      ],
      "payable": false,
      "stateMutability": "view",
      "type": "function"
    },
    {
      "constant": true,
      "inputs": [],
      "name": "contractsManager",
      "outputs": [
        {
          "name": "",
          "type": "address"
        }
      ],
      "payable": false,
      "stateMutability": "view",
      "type": "function"
    },
    {
      "constant": false,
      "inputs": [
        {
          "name": "key",
          "type": "address"
        },
        {
          "name": "_hash",
          "type": "bytes32"
        }
      ],
      "name": "setMemberHash",
      "outputs": [
        {
          "name": "errorCode",
          "type": "uint256"
        }
      ],
      "payable": false,
      "stateMutability": "nonpayable",
      "type": "function"
    },
    {
      "constant": false,
      "inputs": [
        {
          "name": "_to",
          "type": "address"
        }
      ],
      "name": "changeContractOwnership",
      "outputs": [
        {
          "name": "",
          "type": "bool"
        }
      ],
      "payable": false,
      "stateMutability": "nonpayable",
      "type": "function"
    },
    {
      "constant": true,
      "inputs": [],
      "name": "pendingContractOwner",
      "outputs": [
        {
          "name": "",
          "type": "address"
        }
      ],
      "payable": false,
      "stateMutability": "view",
      "type": "function"
    },
    {
      "constant": false,
      "inputs": [
        {
          "name": "_key",
          "type": "address"
        },
        {
          "name": "_hash",
          "type": "bytes32"
        }
      ],
      "name": "addCBE",
      "outputs": [
        {
          "name": "errorCode",
          "type": "uint256"
        }
      ],
      "payable": false,
      "stateMutability": "nonpayable",
      "type": "function"
    },
    {
      "constant": false,
      "inputs": [
        {
          "name": "_eventsHistory",
          "type": "address"
        }
      ],
      "name": "setEventsHistory",
      "outputs": [],
      "payable": false,
      "stateMutability": "nonpayable",
      "type": "function"
    },
    {
      "constant": false,
      "inputs": [
        {
          "name": "_contractsManager",
          "type": "address"
        }
      ],
      "name": "setContractsManager",
      "outputs": [],
      "payable": false,
      "stateMutability": "nonpayable",
      "type": "function"
    },
    {
      "constant": false,
      "inputs": [
        {
          "name": "_key",
          "type": "address"
        }
      ],
      "name": "revokeCBE",
      "outputs": [
        {
          "name": "errorCode",
          "type": "uint256"
        }
      ],
      "payable": false,
      "stateMutability": "nonpayable",
      "type": "function"
    },
    {
      "constant": false,
      "inputs": [
        {
          "name": "key",
          "type": "address"
        }
      ],
      "name": "emitNewUserRegistered",
      "outputs": [],
      "payable": false,
      "stateMutability": "nonpayable",
      "type": "function"
    },
    {
      "constant": false,
      "inputs": [],
      "name": "destroy",
      "outputs": [],
      "payable": false,
      "stateMutability": "nonpayable",
      "type": "function"
    },
    {
      "constant": true,
      "inputs": [
        {
          "name": "key",
          "type": "address"
        }
      ],
      "name": "getMemberHash",
      "outputs": [
        {
          "name": "",
          "type": "bytes32"
        }
      ],
      "payable": false,
      "stateMutability": "view",
      "type": "function"
    },
    {
      "constant": true,
      "inputs": [],
      "name": "getCBEMembers",
      "outputs": [
        {
          "name": "_addresses",
          "type": "address[]"
        },
        {
          "name": "_hashes",
          "type": "bytes32[]"
        }
      ],
      "payable": false,
      "stateMutability": "view",
      "type": "function"
    },
    {
      "constant": false,
      "inputs": [
        {
          "name": "_to",
          "type": "address"
        }
      ],
      "name": "transferContractOwnership",
      "outputs": [
        {
          "name": "",
          "type": "bool"
        }
      ],
      "payable": false,
      "stateMutability": "nonpayable",
      "type": "function"
    },
    {
      "constant": false,
      "inputs": [
        {
          "name": "_hash",
          "type": "bytes32"
        }
      ],
      "name": "setOwnHash",
      "outputs": [
        {
          "name": "errorCode",
          "type": "uint256"
        }
      ],
      "payable": false,
      "stateMutability": "nonpayable",
      "type": "function"
    },
    {
      "constant": true,
      "inputs": [
        {
          "name": "sender",
          "type": "address"
        }
      ],
      "name": "getMemberId",
      "outputs": [
        {
          "name": "",
          "type": "uint256"
        }
      ],
      "payable": false,
      "stateMutability": "view",
      "type": "function"
    },
    {
      "constant": false,
      "inputs": [
        {
          "name": "key",
          "type": "address"
        }
      ],
      "name": "emitCBEUpdate",
      "outputs": [],
      "payable": false,
      "stateMutability": "nonpayable",
      "type": "function"
    },
    {
      "constant": true,
      "inputs": [],
      "name": "contractOwner",
      "outputs": [
        {
          "name": "",
          "type": "address"
        }
      ],
      "payable": false,
      "stateMutability": "view",
      "type": "function"
    },
    {
      "constant": false,
      "inputs": [
        {
          "name": "tokens",
          "type": "address[]"
        },
        {
          "name": "_to",
          "type": "address"
        }
      ],
      "name": "withdrawnTokens",
      "outputs": [
        {
          "name": "",
          "type": "uint256"
        }
      ],
      "payable": false,
      "stateMutability": "nonpayable",
      "type": "function"
    },
    {
      "constant": true,
      "inputs": [],
      "name": "required",
      "outputs": [
        {
          "name": "",
          "type": "uint256"
        }
      ],
      "payable": false,
      "stateMutability": "view",
      "type": "function"
    },
    {
      "constant": false,
      "inputs": [
        {
          "name": "error",
          "type": "uint256"
        }
      ],
      "name": "emitError",
      "outputs": [],
      "payable": false,
      "stateMutability": "nonpayable",
      "type": "function"
    },
    {
      "constant": false,
      "inputs": [
        {
          "name": "key",
          "type": "address"
        },
        {
          "name": "oldHash",
          "type": "bytes32"
        },
        {
          "name": "newHash",
          "type": "bytes32"
        }
      ],
      "name": "emitHashUpdate",
      "outputs": [],
      "payable": false,
      "stateMutability": "nonpayable",
      "type": "function"
    },
    {
      "constant": true,
      "inputs": [
        {
          "name": "key",
          "type": "address"
        }
      ],
      "name": "isAuthorized",
      "outputs": [
        {
          "name": "",
          "type": "bool"
        }
      ],
      "payable": false,
      "stateMutability": "view",
      "type": "function"
    },
    {
      "constant": true,
      "inputs": [],
      "name": "getEventsHistory",
      "outputs": [
        {
          "name": "",
          "type": "address"
        }
      ],
      "payable": false,
      "stateMutability": "view",
      "type": "function"
    },
    {
      "inputs": [
        {
          "name": "_store",
          "type": "address"
        },
        {
          "name": "_crate",
          "type": "bytes32"
        }
      ],
      "payable": false,
      "stateMutability": "nonpayable",
      "type": "constructor"
    },
    {
      "payable": false,
      "stateMutability": "nonpayable",
      "type": "fallback"
    },
    {
      "anonymous": false,
      "inputs": [
        {
          "indexed": true,
          "name": "self",
          "type": "address"
        },
        {
          "indexed": false,
          "name": "key",
          "type": "address"
        }
      ],
      "name": "NewUserRegistered",
      "type": "event"
    },
    {
      "anonymous": false,
      "inputs": [
        {
          "indexed": true,
          "name": "self",
          "type": "address"
        },
        {
          "indexed": false,
          "name": "key",
          "type": "address"
        }
      ],
      "name": "CBEUpdate",
      "type": "event"
    },
    {
      "anonymous": false,
      "inputs": [
        {
          "indexed": true,
          "name": "self",
          "type": "address"
        },
        {
          "indexed": false,
          "name": "required",
          "type": "uint256"
        }
      ],
      "name": "SetRequired",
      "type": "event"
    },
    {
      "anonymous": false,
      "inputs": [
        {
          "indexed": true,
          "name": "self",
          "type": "address"
        },
        {
          "indexed": true,
          "name": "key",
          "type": "address"
        },
        {
          "indexed": false,
          "name": "oldHash",
          "type": "bytes32"
        },
        {
          "indexed": false,
          "name": "newHash",
          "type": "bytes32"
        }
      ],
      "name": "SetHash",
      "type": "event"
    },
    {
      "anonymous": false,
      "inputs": [
        {
          "indexed": true,
          "name": "self",
          "type": "address"
        },
        {
          "indexed": false,
          "name": "errorCode",
          "type": "uint256"
        }
      ],
      "name": "Error",
      "type": "event"
    }
  ],
  "bytecode": "0x606060405234156200001057600080fd5b604051604080620021a1833981016040528080519190602001805191508290508181818181620000516000838364010000000062001d0c6200017f82021704565b505060028054600160a060020a03338116600160a060020a03199283161790925560058054309093169290911691909117905550620000c69250600691507f7265710000000000000000000000000000000000000000000000000000000000905064010000000062001d32620001a582021704565b62000101600a7f61646d696e73000000000000000000000000000000000000000000000000000064010000000062001d42620001c582021704565b6200013c60077f6d656d626572730000000000000000000000000000000000000000000000000064010000000062001d42620001c582021704565b62000177600d7f686173686573000000000000000000000000000000000000000000000000000064010000000062001d50620001e382021704565b505062000320565b8254600160a060020a031916600160a060020a0392909216919091178255600190910155565b8154620001c1908264010000000062001d5a620001fd82021704565b9055565b620001df828264010000000062001d706200021582021704565b5050565b620001df828264010000000062001d32620001a582021704565b811515806200020a575080155b15620001df57600080fd5b6200026c82826040519081527f636f756e7400000000000000000000000000000000000000000000000000000060208201526025016040518091039020620001a56401000000000262001d32176401000000009004565b620002c682600101826040519081527f696e64657865730000000000000000000000000000000000000000000000000060208201526027016040518091039020620001a56401000000000262001d32176401000000009004565b620001df82600201826040519081527f76616c756573000000000000000000000000000000000000000000000000000060208201526026016040518091039020620001a56401000000000262001d32176401000000009004565b611e7180620003306000396000f3006060604052600436106101715763ffffffff60e060020a6000350416630457d6f2811461018157806307973ccf146101a957806319ab453c146101bc57806326c325f8146101db5780632aa09e5a146101f35780632b7832b3146102265780634592cd1d146102395780634fe590121461024c57806353253d311461027e578063539e22e214610291578063557f4bc9146102b35780635aa77d3c146102d257806363eef4b0146102e55780636521afd71461030757806371d3b573146103265780637784ec47146103455780637f52e06f1461036457806383197ef0146103835780638e7ea62a14610396578063a083b7c3146103b5578063a843c51f14610461578063bca2188914610480578063c269014b14610496578063cb979a2f146104b5578063ce606ee0146104d4578063d8f9659b146104e7578063dc8452cd14610541578063df26ca0814610554578063f8ac9f531461056a578063fe9fbb801461058f578063fff10aba146105ae575b341561017c57600080fd5b600080fd5b341561018c57600080fd5b6101976004356105c1565b60405190815260200160405180910390f35b34156101b457600080fd5b61019761062e565b34156101c757600080fd5b610197600160a060020a0360043516610647565b34156101e657600080fd5b6101f16004356106c5565b005b34156101fe57600080fd5b610212600160a060020a036004351661070c565b604051901515815260200160405180910390f35b341561023157600080fd5b610197610726565b341561024457600080fd5b610212610739565b341561025757600080fd5b610262600435610785565b604051600160a060020a03909116815260200160405180910390f35b341561028957600080fd5b610262610809565b341561029c57600080fd5b610197600160a060020a0360043516602435610818565b34156102be57600080fd5b610212600160a060020a036004351661084e565b34156102dd57600080fd5b6102626108a5565b34156102f057600080fd5b610197600160a060020a03600435166024356108b4565b341561031257600080fd5b6101f1600160a060020a036004351661093e565b341561033157600080fd5b6101f1600160a060020a0360043516610974565b341561035057600080fd5b610197600160a060020a03600435166109ab565b341561036f57600080fd5b6101f1600160a060020a0360043516610a09565b341561038e57600080fd5b6101f1610a5a565b34156103a157600080fd5b610197600160a060020a0360043516610af0565b34156103c057600080fd5b6103c8610b04565b604051808060200180602001838103835285818151815260200191508051906020019060200280838360005b8381101561040c5780820151838201526020016103f4565b50505050905001838103825284818151815260200191508051906020019060200280838360005b8381101561044b578082015183820152602001610433565b5050505090500194505050505060405180910390f35b341561046c57600080fd5b610212600160a060020a0360043516610bb0565b341561048b57600080fd5b610197600435610c29565b34156104a157600080fd5b610197600160a060020a0360043516610c40565b34156104c057600080fd5b6101f1600160a060020a0360043516610c54565b34156104df57600080fd5b610262610ca5565b34156104f257600080fd5b610197600460248135818101908301358060208181020160405190810160405280939291908181526020018383602002808284375094965050509235600160a060020a03169250610cb4915050565b341561054c57600080fd5b610197610e05565b341561055f57600080fd5b6101f1600435610e18565b341561057557600080fd5b6101f1600160a060020a0360043516602435604435610e5f565b341561059a57600080fd5b610212600160a060020a0360043516610eb9565b34156105b957600080fd5b610262610f5f565b60006105cb610f6e565b9050600181146105e5576105de816110a6565b9050610629565b6105f76000600a63ffffffff6110cc16565b821115610609576105de6107d56110d8565b61061c600060068463ffffffff61114116565b610625826111ba565b5060015b919050565b600061064181600763ffffffff6110cc16565b90505b90565b600254600090819033600160a060020a03908116911614156106bf5761068d837f557365724d616e6167657200000000000000000000000000000000000000000061121e565b506106973361070c565b15156106ba576106a833600161140f565b9050600181146106ba578091506106bf565b600191505b50919050565b6106cd611446565b600160a060020a03167f0b690e53a6be709e0cc01ef89225cbf2c276dd502acfd5577de9af86971afd298260405190815260200160405180910390a250565b600061072081600a8463ffffffff61144a16565b92915050565b600061064181600a63ffffffff6110cc16565b60035460009033600160a060020a0390811691161461075a57506000610644565b506003805460028054600160a060020a0319908116600160a060020a03841617909155169055600190565b600454600090600160a060020a031663bc65792783836040516020015260405160e060020a63ffffffff84160281526004810191909152602401602060405180830381600087803b15156107d857600080fd5b6102c65a03f115156107e957600080fd5b5050506040518051915050600160a060020a038116151561062957600080fd5b600454600160a060020a031681565b600061082333610eb9565b156107205761083183611468565b5061083c8383611475565b9050610847816110a6565b9392505050565b60025460009033600160a060020a039081169116141561062957600160a060020a038216151561088057506000610629565b5060038054600160a060020a038316600160a060020a03199091161790556001919050565b600354600160a060020a031681565b60006108be610f6e565b9050600181146108d8576108d1816110a6565b9050610720565b6108e18361070c565b156108f1576108d16107d26110d8565b6108fc83600161140f565b90506001811461090f576108d1816110d8565b6109198383611475565b90506001811461092c576108d1816110d8565b610935836114c5565b50600192915050565b60025433600160a060020a03908116911614156109715760058054600160a060020a031916600160a060020a0383161790555b50565b60025433600160a060020a03908116911614156109715760048054600160a060020a038316600160a060020a031990911617905550565b60006109b5610f6e565b9050600181146109c8576105de816110a6565b6109d18261070c565b15156109e2576105de6107d36110d8565b6109ed82600061151a565b905060018114610a00576105de816110d8565b610625826114c5565b610a11611446565b600160a060020a03167f6375fd6fc2ddd4dbe542dc0a550ddd2de124bd5ae37738254e72894dc8807dfe82604051600160a060020a03909116815260200160405180910390a250565b60025433600160a060020a0390811691161415610aee57600454600160a060020a031663c375c2ef3060006040516020015260405160e060020a63ffffffff8416028152600160a060020a039091166004820152602401602060405180830381600087803b1515610aca57600080fd5b6102c65a03f11515610adb57600080fd5b5050506040518051905050610aee6115a0565b565b600061072081600d8463ffffffff6115c316565b610b0c611cfa565b610b14611cfa565b6000610b1e610726565b604051805910610b2b5750595b90808252806020026020018201604052509150600090505b610b4b610726565b811015610b9757610b79600d610b6a6000600a8563ffffffff6115d916565b6000919063ffffffff6115c316565b828281518110610b8557fe5b60209081029091010152600101610b43565b610ba96000600a63ffffffff6115e616565b9250509091565b60025460009033600160a060020a039081169116141561062957600160a060020a0382161515610be257506000610629565b600354600160a060020a031615610c045760038054600160a060020a03191690555b5060028054600160a060020a038316600160a060020a03199091161790556001919050565b6000610c353383611475565b9050610720816110a6565b60006107208160078463ffffffff61160016565b610c5c611446565b600160a060020a03167f9678dbf6359a7a9c6485a121abb25cccca4f9bf168d030f39227cc429b8e4a1782604051600160a060020a03909116815260200160405180910390a250565b600254600160a060020a031681565b60025460009081908190819033600160a060020a0390811691161415610dfc57600092505b8551831015610df757858381518110610cee57fe5b90602001906020020151915081600160a060020a03166370a082313060006040516020015260405160e060020a63ffffffff8416028152600160a060020a039091166004820152602401602060405180830381600087803b1515610d5157600080fd5b6102c65a03f11515610d6257600080fd5b50505060405180519150508015610dec5781600160a060020a031663a9059cbb868360006040516020015260405160e060020a63ffffffff8516028152600160a060020a0390921660048301526024820152604401602060405180830381600087803b1515610dd057600080fd5b6102c65a03f11515610de157600080fd5b505050604051805150505b600190920191610cd9565b600193505b50505092915050565b600061064181600663ffffffff61161616565b610e20611446565b600160a060020a03167f9cf38cf2dbf9139f5c32639950507b10775fbbe0421f3e168bc2d1bb1ae3208c8260405190815260200160405180910390a250565b82600160a060020a0316610e71611446565b600160a060020a03167fb47d03ee3dee8637e72e00524192c281f6e61af55ee25d7f7f96e522f93dd11b848460405191825260208201526040908101905180910390a3505050565b600080610ee57f557365724d616e61676572000000000000000000000000000000000000000000610785565b905080600160a060020a0316632aa09e5a8460006040516020015260405160e060020a63ffffffff8416028152600160a060020a039091166004820152602401602060405180830381600087803b1515610f3e57600080fd5b6102c65a03f11515610f4f57600080fd5b5050506040518051949350505050565b600554600160a060020a031690565b6000806000610f9c7f50656e64696e674d616e61676572000000000000000000000000000000000000610785565b915081600160a060020a031633600160a060020a031614151561109c57600036604051808383808284378201915050925050506040518091039020905081600160a060020a0316630fee1efc82600036303360006040516020015260405160e060020a63ffffffff881602815260048101868152600160a060020a0380851660448401528316606483015260806024830190815260848301869052909160a40186868082843782019150509650505050505050602060405180830381600087803b151561106857600080fd5b6102c65a03f1151561107957600080fd5b5050506040518051935050600183146110925782611095565b60035b92506110a1565b600192505b505090565b6000600182141580156110ba575060038214155b156110c8576105de826110d8565b5090565b60006108478383611675565b60006110e2610f5f565b600160a060020a031663df26ca088360405160e060020a63ffffffff84160281526004810191909152602401600060405180830381600087803b151561112757600080fd5b6102c65a03f1151561113857600080fd5b50929392505050565b825460018401548354600160a060020a03909216916353e7168b91908460405160e060020a63ffffffff8616028152600481019390935260248301919091526044820152606401600060405180830381600087803b15156111a157600080fd5b6102c65a03f115156111b257600080fd5b505050505050565b6111c2610f5f565b600160a060020a03166326c325f88260405160e060020a63ffffffff84160281526004810191909152602401600060405180830381600087803b151561120757600080fd5b6102c65a03f1151561121857600080fd5b50505050565b60025460009081908190819033600160a060020a0390811691161461124257600080fd5b600160a060020a038616151561125757600080fd5b600454600160a060020a03161580159350806112815750600454600160a060020a03878116911614155b156112a25760048054600160a060020a031916600160a060020a0388161790555b600454600160a060020a031691508163bc65792760006040516020015260405160e060020a63ffffffff83160281527f4d756c74694576656e7473486973746f727900000000000000000000000000006004820152602401602060405180830381600087803b151561131357600080fd5b6102c65a03f1151561132457600080fd5b5050506040518051915050600160a060020a038116158015906113555750600554600160a060020a03828116911614155b156113765760058054600160a060020a031916600160a060020a0383161790555b84156113fd5781600160a060020a031663b7c46cd5308760006040516020015260405160e060020a63ffffffff8516028152600160a060020a0390921660048301526024820152604401602060405180830381600087803b15156113d957600080fd5b6102c65a03f115156113ea57600080fd5b505050604051805160011490506113fd57fe5b8215610df75760069695505050505050565b600061141a83610c40565b151561143c57611433600060078563ffffffff61168b16565b61143c836116a4565b610847838361151a565b3390565b60006114608484600160a060020a038516611715565b949350505050565b600061072082600061140f565b60008061148184610af0565b905082811415611495576107d491506114be565b61149f848461172c565b9150600182146114ae576114be565b6114b9848285611741565b600191505b5092915050565b6114cd610f5f565b600160a060020a031663cb979a2f8260405160e060020a63ffffffff8416028152600160a060020a039091166004820152602401600060405180830381600087803b151561120757600080fd5b6000811561153a576115356000600a8563ffffffff61168b16565b610935565b61154d6000600a8563ffffffff6117a516565b61155f6000600a63ffffffff6110cc16565b6115716000600663ffffffff61161616565b1115610935576109356006600161158f60008363ffffffff61161616565b60009291900363ffffffff61114116565b60025433600160a060020a0390811691161415610aee5733600160a060020a0316ff5b60006114608484600160a060020a0385166117b9565b6000611460848484611853565b6115ee611cfa565b6108476115fb848461186a565b611886565b60006114608484600160a060020a038516611909565b815460018301548254600092600160a060020a0316916353aa3f5e91846040516020015260405160e060020a63ffffffff851602815260048101929092526024820152604401602060405180830381600087803b1515610f3e57600080fd5b6000610847838360ea60020a621cd95d02611920565b61169f8383600160a060020a03841661192d565b505050565b6116ac610f5f565b600160a060020a031615156116c057610971565b6116c8610f5f565b600160a060020a0316637f52e06f8260405160e060020a63ffffffff8416028152600160a060020a039091166004820152602401600060405180830381600087803b151561120757600080fd5b6000611460848460ea60020a621cd95d0285611942565b600061093581600d858563ffffffff61195e16565b611749610f5f565b600160a060020a031663f8ac9f5384848460405160e060020a63ffffffff8616028152600160a060020a03909316600484015260248301919091526044820152606401600060405180830381600087803b15156111a157600080fd5b61169f8383600160a060020a038416611973565b825460018401548354600092600160a060020a0316916337d9d7fc9185604051918252602082015260409081019051809103902060006040516020015260405160e060020a63ffffffff851602815260048101929092526024820152604401602060405180830381600087803b151561183157600080fd5b6102c65a03f1151561184257600080fd5b505050604051805195945050505050565b6000611460848460ea60020a621cd95d0285611988565b611872611cfa565b610847838360ea60020a621cd95d026119a5565b61188e611cfa565b611896611cfa565b600083516040518059106118a75750595b90808252806020026020018201604052509150600090505b83518110156114be578381815181106118d457fe5b906020019060200201518282815181106118ea57fe5b600160a060020a039092166020928302909101909101526001016118bf565b6000611460848460ea60020a621cd95d0285611a1e565b6000611460848484611a2f565b61169f838360ea60020a621cd95d0284611aa7565b600061195385856001018585611b02565b151595945050505050565b6112188484600160a060020a03851684611b27565b61169f838360ea60020a621cd95d0284611bb9565b600061199c85600286018560018601611b02565b95945050505050565b6119ad611cfa565b6000806119bb868686611920565b9150816040518059106119cb5750595b90808252806020026020018201604052509250600090505b81811015611a15576119f786868684611988565b838281518110611a0357fe5b602090810290910101526001016119e3565b50509392505050565b600061199c85856001018585611b02565b825460018401548354600092600160a060020a0316916353aa3f5e9185604051918252602082015260409081019051809103902060006040516020015260405160e060020a63ffffffff851602815260048101929092526024820152604401602060405180830381600087803b151561183157600080fd5b6000611ab585858585611942565b15611abf57611afb565b611aca858585611920565b6001019050611adf8560028601858486611c5e565b611aef8560018601858585611c5e565b611afb85858584611c82565b5050505050565b600061199c8585858560405191825260208201526040908101905180910390206117b9565b835460018501548454600160a060020a039092169163a14ff85791908560405191825260208201526040908101905180910390208460405160e060020a63ffffffff8616028152600481019390935260248301919091526044820152606401600060405180830381600087803b1515611b9f57600080fd5b6102c65a03f11515611bb057600080fd5b50505050505050565b6000806000611bca87878787611942565b1515611bd557611bb0565b611be0878787611920565b9250611bf187600288018786611b02565b9150611c0287876001018787611b02565b905082811015611c2c57611c1c8760018801878585611c5e565b611c2c8760028801878486611c5e565b611c3d876001880187876000611c5e565b611c4e876002880187866000611c5e565b611bb08787876000198701611c82565b611afb85858585604051918252602082015260409081019051809103902084611b27565b835460018501548454600160a060020a03909216916353e7168b91908560405191825260208201526040908101905180910390208460405160e060020a63ffffffff8616028152600481019390935260248301919091526044820152606401600060405180830381600087803b1515611b9f57600080fd5b60206040519081016040526000815290565b8254600160a060020a031916600160a060020a0392909216919091178255600190910155565b8154611d3e9082611d5a565b9055565b611d4c8282611d70565b5050565b611d4c8282611d32565b81151580611d66575080155b15611d4c57600080fd5b611db182826040519081527f636f756e7400000000000000000000000000000000000000000000000000000060208201526025016040518091039020611d32565b611df582600101826040519081527f696e64657865730000000000000000000000000000000000000000000000000060208201526027016040518091039020611d32565b611d4c82600201826040519081527f76616c756573000000000000000000000000000000000000000000000000000060208201526026016040518091039020611d32565b8154611d3e9082611d5a5600a165627a7a72305820c7a5255efb05f2167e00af3f21e1dcd9c9cfc4832a9f344160065881afb322c10029",
  "source": "pragma solidity ^0.4.11;\n\nimport \"../common/BaseManager.sol\";\nimport \"./UserManagerEmitter.sol\";\n\ncontract UserManager is UserManagerEmitter, BaseManager {\n\n    uint constant ERROR_USER_NOT_FOUND = 2000;\n    uint constant ERROR_USER_INVALID_PARAMETER = 2001;\n    uint constant ERROR_USER_ALREADY_CBE = 2002;\n    uint constant ERROR_USER_NOT_CBE = 2003;\n    uint constant ERROR_USER_SAME_HASH = 2004;\n    uint constant ERROR_USER_INVALID_REQURED = 2005;\n    uint constant ERROR_USER_INVALID_STATE = 2006;\n\n    StorageInterface.UInt req;\n    StorageInterface.AddressesSet members;\n    StorageInterface.AddressesSet admins;\n    StorageInterface.AddressBytes32Mapping hashes;\n\n    function UserManager(Storage _store, bytes32 _crate) BaseManager(_store, _crate) {\n        req.init('req');\n        admins.init('admins');\n        members.init('members');\n        hashes.init('hashes');\n    }\n\n    function init(address _contractsManager) onlyContractOwner returns (uint) {\n        BaseManager.init(_contractsManager, \"UserManager\");\n\n        if (!getCBE(msg.sender)) {\n            uint e = addMember(msg.sender, true);\n            if (OK != e) {\n                return e;\n            }\n        }\n\n        return OK;\n    }\n\n    function addCBE(address _key, bytes32 _hash) returns (uint errorCode) {\n        errorCode = multisig();\n        if (OK != errorCode) {\n            return _handleResult(errorCode);\n        }\n\n        if (getCBE(_key)) {\n            return _emitError(ERROR_USER_ALREADY_CBE);\n        }\n\n        errorCode = addMember(_key, true);\n        if (OK != errorCode) {\n            return _emitError(errorCode);\n        }\n\n        errorCode = setMemberHashInt(_key, _hash);\n        if (OK != errorCode) {\n            return _emitError(errorCode);\n        }\n\n        _emitCBEUpdate(_key);\n        return OK;\n    }\n\n    function revokeCBE(address _key) returns (uint errorCode) {\n        errorCode = multisig();\n        if (OK != errorCode) {\n            return _handleResult(errorCode);\n        }\n\n        if (!getCBE(_key)) {\n            return _emitError(ERROR_USER_NOT_CBE);\n        }\n\n        errorCode = setCBE(_key, false);\n        if (OK != errorCode) {\n            return _emitError(errorCode);\n        }\n\n        _emitCBEUpdate(_key);\n        return OK;\n    }\n\n    function setMemberHash(address key, bytes32 _hash) onlyAuthorized returns (uint errorCode) {\n        createMemberIfNotExist(key);\n        errorCode = setMemberHashInt(key, _hash);\n        return _handleResult(errorCode);\n    }\n\n    function setOwnHash(bytes32 _hash) returns (uint errorCode) {\n        errorCode = setMemberHashInt(msg.sender, _hash);\n        return _handleResult(errorCode);\n    }\n\n    function setRequired(uint _required) returns (uint errorCode) {\n        errorCode= multisig();\n        if (OK != errorCode) {\n            return _handleResult(errorCode);\n        }\n\n        if (!(_required <= store.count(admins))) {\n            return _emitError(ERROR_USER_INVALID_REQURED);\n        }\n\n        store.set(req, _required);\n        _emitSetRequired(_required);\n\n        return OK;\n    }\n\n    function createMemberIfNotExist(address key) internal returns (uint) {\n        return addMember(key, false);\n    }\n\n    function addMember(address key, bool isCBE) internal returns (uint) {\n        if (getMemberId(key) == 0x0) {\n            store.add(members, key);\n            _emitNewUserRegistered(key);\n        }\n\n        return setCBE(key, isCBE);\n    }\n\n    function setMemberHashInt(address key, bytes32 _hash) internal returns (uint errorCode) {\n        bytes32 oldHash = getMemberHash(key);\n        if (_hash == oldHash) {\n            return ERROR_USER_SAME_HASH;\n        }\n\n        errorCode = setHashes(key, _hash);\n        if (OK != errorCode) {\n            return errorCode;\n        }\n\n        _emitHashUpdate(key, oldHash, _hash);\n        return OK;\n    }\n\n    function setCBE(address key, bool isCBE) internal returns (uint) {\n        if (isCBE) {\n            store.add(admins, key);\n        } else {\n            store.remove(admins, key);\n            if (store.get(req) > store.count(admins)) {\n                store.set(req, store.get(req) - 1);\n            }\n        }\n        return OK;\n    }\n\n    function setHashes(address key, bytes32 _hash) internal returns (uint) {\n        store.set(hashes, key, _hash);\n        return OK;\n    }\n\n    function getMemberHash(address key) constant returns (bytes32) {\n        return store.get(hashes, key);\n    }\n\n    function getCBE(address key) constant returns (bool) {\n        return store.includes(admins, key);\n    }\n\n    function getMemberId(address sender) constant returns (uint) {\n        return store.getIndex(members, sender);\n    }\n\n    function required() constant returns (uint) {\n        return store.get(req);\n    }\n\n    function adminCount() constant returns (uint) {\n        return store.count(admins);\n    }\n\n    function userCount() constant returns (uint) {\n        return store.count(members);\n    }\n\n    function getCBEMembers() constant returns (address[] _addresses, bytes32[] _hashes) {\n        _hashes = new bytes32[](adminCount());\n        for (uint i = 0; i < adminCount(); i++) {\n            _hashes[i] = store.get(hashes, store.get(admins, i));\n        }\n        return (store.get(admins), _hashes);\n    }\n\n    function _emitCBEUpdate(address key) internal {\n        UserManager(getEventsHistory()).emitCBEUpdate(key);\n    }\n\n    function _emitNewUserRegistered(address key) internal {\n        if (getEventsHistory() == 0x0) {\n            return;\n        }\n        UserManager(getEventsHistory()).emitNewUserRegistered(key);\n    }\n\n    function _emitSetRequired(uint required) internal {\n        UserManager(getEventsHistory()).emitSetRequired(required);\n    }\n\n    function _emitHashUpdate(address key, bytes32 oldHash, bytes32 newHash) internal {\n        UserManager(getEventsHistory()).emitHashUpdate(key, oldHash, newHash);\n    }\n\n    function _emitError(uint error) internal returns (uint) {\n        UserManager(getEventsHistory()).emitError(error);\n        return error;\n    }\n\n    function _handleResult(uint error) internal returns (uint) {\n        if (error != OK && error != MULTISIG_ADDED) {\n            return _emitError(error);\n        }\n        return error;\n    }\n\n    function() {\n        throw;\n    }\n}\n",
  "sourcePath": "/Users/ahiatsevich/Development/chronobank/SmartContracts/contracts/core/user/UserManager.sol",
  "compiler": {
    "name": "solc",
    "version": "0.4.18+commit.9cf6e910.Emscripten.clang"
  },
  "schemaVersion": "1.0.1",
  "updatedAt": "2017-12-15T11:25:50.028Z"
}