{
  "contractName": "VoteActor",
  "abi": [
    {
      "constant": false,
      "inputs": [
        {
          "name": "_address",
          "type": "address"
        },
        {
          "name": "_amount",
          "type": "uint256"
        },
        {
          "name": "_total",
          "type": "uint256"
        }
      ],
      "name": "deposit",
      "outputs": [
        {
          "name": "",
          "type": "uint256"
        }
      ],
      "payable": false,
      "stateMutability": "nonpayable",
      "type": "function"
    },
    {
      "constant": true,
      "inputs": [
        {
          "name": "_id",
          "type": "uint256"
        }
      ],
      "name": "isPollOwner",
      "outputs": [
        {
          "name": "",
          "type": "bool"
        }
      ],
      "payable": false,
      "stateMutability": "view",
      "type": "function"
    },
    {
      "constant": false,
      "inputs": [
        {
          "name": "_contractsManager",
          "type": "address"
        }
      ],
      "name": "init",
      "outputs": [
        {
          "name": "",
          "type": "uint256"
        }
      ],
      "payable": false,
      "stateMutability": "nonpayable",
      "type": "function"
    },
    {
      "constant": false,
      "inputs": [],
      "name": "claimContractOwnership",
      "outputs": [
        {
          "name": "",
          "type": "bool"
        }
      ],
      "payable": false,
      "stateMutability": "nonpayable",
      "type": "function"
    },
    {
      "constant": true,
      "inputs": [
        {
          "name": "_identifier",
          "type": "bytes32"
        }
      ],
      "name": "lookupManager",
      "outputs": [
        {
          "name": "manager",
          "type": "address"
        }
      ],
      "payable": false,
      "stateMutability": "view",
      "type": "function"
    },
    {
      "constant": true,
      "inputs": [],
      "name": "contractsManager",
      "outputs": [
        {
          "name": "",
          "type": "address"
        }
      ],
      "payable": false,
      "stateMutability": "view",
      "type": "function"
    },
    {
      "constant": false,
      "inputs": [
        {
          "name": "_to",
          "type": "address"
        }
      ],
      "name": "changeContractOwnership",
      "outputs": [
        {
          "name": "",
          "type": "bool"
        }
      ],
      "payable": false,
      "stateMutability": "nonpayable",
      "type": "function"
    },
    {
      "constant": true,
      "inputs": [],
      "name": "pendingContractOwner",
      "outputs": [
        {
          "name": "",
          "type": "address"
        }
      ],
      "payable": false,
      "stateMutability": "view",
      "type": "function"
    },
    {
      "constant": false,
      "inputs": [
        {
          "name": "_eventsHistory",
          "type": "address"
        }
      ],
      "name": "setEventsHistory",
      "outputs": [],
      "payable": false,
      "stateMutability": "nonpayable",
      "type": "function"
    },
    {
      "constant": false,
      "inputs": [
        {
          "name": "_contractsManager",
          "type": "address"
        }
      ],
      "name": "setContractsManager",
      "outputs": [],
      "payable": false,
      "stateMutability": "nonpayable",
      "type": "function"
    },
    {
      "constant": false,
      "inputs": [],
      "name": "destroy",
      "outputs": [],
      "payable": false,
      "stateMutability": "nonpayable",
      "type": "function"
    },
    {
      "constant": false,
      "inputs": [
        {
          "name": "pollId",
          "type": "uint256"
        }
      ],
      "name": "emitPollEnded",
      "outputs": [],
      "payable": false,
      "stateMutability": "nonpayable",
      "type": "function"
    },
    {
      "constant": false,
      "inputs": [
        {
          "name": "_to",
          "type": "address"
        }
      ],
      "name": "transferContractOwnership",
      "outputs": [
        {
          "name": "",
          "type": "bool"
        }
      ],
      "payable": false,
      "stateMutability": "nonpayable",
      "type": "function"
    },
    {
      "constant": false,
      "inputs": [
        {
          "name": "_pollId",
          "type": "uint256"
        },
        {
          "name": "_choice",
          "type": "uint256"
        }
      ],
      "name": "vote",
      "outputs": [
        {
          "name": "errorCode",
          "type": "uint256"
        }
      ],
      "payable": false,
      "stateMutability": "nonpayable",
      "type": "function"
    },
    {
      "constant": true,
      "inputs": [],
      "name": "contractOwner",
      "outputs": [
        {
          "name": "",
          "type": "address"
        }
      ],
      "payable": false,
      "stateMutability": "view",
      "type": "function"
    },
    {
      "constant": false,
      "inputs": [
        {
          "name": "tokens",
          "type": "address[]"
        },
        {
          "name": "_to",
          "type": "address"
        }
      ],
      "name": "withdrawnTokens",
      "outputs": [
        {
          "name": "",
          "type": "uint256"
        }
      ],
      "payable": false,
      "stateMutability": "nonpayable",
      "type": "function"
    },
    {
      "constant": false,
      "inputs": [
        {
          "name": "errorCode",
          "type": "uint256"
        }
      ],
      "name": "emitError",
      "outputs": [],
      "payable": false,
      "stateMutability": "nonpayable",
      "type": "function"
    },
    {
      "constant": true,
      "inputs": [
        {
          "name": "_pollId",
          "type": "uint256"
        }
      ],
      "name": "checkPollIsActive",
      "outputs": [
        {
          "name": "",
          "type": "bool"
        }
      ],
      "payable": false,
      "stateMutability": "view",
      "type": "function"
    },
    {
      "constant": false,
      "inputs": [
        {
          "name": "choice",
          "type": "uint256"
        },
        {
          "name": "pollId",
          "type": "uint256"
        }
      ],
      "name": "emitVoteCreated",
      "outputs": [],
      "payable": false,
      "stateMutability": "nonpayable",
      "type": "function"
    },
    {
      "constant": false,
      "inputs": [
        {
          "name": "_address",
          "type": "address"
        },
        {
          "name": "_amount",
          "type": "uint256"
        },
        {
          "name": "_total",
          "type": "uint256"
        }
      ],
      "name": "withdrawn",
      "outputs": [
        {
          "name": "",
          "type": "uint256"
        }
      ],
      "payable": false,
      "stateMutability": "nonpayable",
      "type": "function"
    },
    {
      "constant": true,
      "inputs": [
        {
          "name": "key",
          "type": "address"
        }
      ],
      "name": "isAuthorized",
      "outputs": [
        {
          "name": "",
          "type": "bool"
        }
      ],
      "payable": false,
      "stateMutability": "view",
      "type": "function"
    },
    {
      "constant": true,
      "inputs": [],
      "name": "getEventsHistory",
      "outputs": [
        {
          "name": "",
          "type": "address"
        }
      ],
      "payable": false,
      "stateMutability": "view",
      "type": "function"
    },
    {
      "inputs": [
        {
          "name": "_store",
          "type": "address"
        },
        {
          "name": "_crate",
          "type": "bytes32"
        }
      ],
      "payable": false,
      "stateMutability": "nonpayable",
      "type": "constructor"
    },
    {
      "payable": false,
      "stateMutability": "nonpayable",
      "type": "fallback"
    },
    {
      "anonymous": false,
      "inputs": [
        {
          "indexed": false,
          "name": "pollId",
          "type": "uint256"
        }
      ],
      "name": "PollCreated",
      "type": "event"
    },
    {
      "anonymous": false,
      "inputs": [
        {
          "indexed": false,
          "name": "pollId",
          "type": "uint256"
        }
      ],
      "name": "PollDeleted",
      "type": "event"
    },
    {
      "anonymous": false,
      "inputs": [
        {
          "indexed": false,
          "name": "pollId",
          "type": "uint256"
        }
      ],
      "name": "PollEnded",
      "type": "event"
    },
    {
      "anonymous": false,
      "inputs": [
        {
          "indexed": false,
          "name": "pollId",
          "type": "uint256"
        }
      ],
      "name": "PollActivated",
      "type": "event"
    },
    {
      "anonymous": false,
      "inputs": [
        {
          "indexed": false,
          "name": "choice",
          "type": "uint256"
        },
        {
          "indexed": false,
          "name": "pollId",
          "type": "uint256"
        }
      ],
      "name": "VoteCreated",
      "type": "event"
    },
    {
      "anonymous": false,
      "inputs": [
        {
          "indexed": true,
          "name": "self",
          "type": "address"
        }
      ],
      "name": "SharesPercentUpdated",
      "type": "event"
    },
    {
      "anonymous": false,
      "inputs": [
        {
          "indexed": true,
          "name": "id",
          "type": "uint256"
        },
        {
          "indexed": false,
          "name": "hash",
          "type": "bytes32"
        },
        {
          "indexed": false,
          "name": "count",
          "type": "uint256"
        }
      ],
      "name": "IpfsHashToPollAdded",
      "type": "event"
    },
    {
      "anonymous": false,
      "inputs": [
        {
          "indexed": true,
          "name": "id",
          "type": "uint256"
        },
        {
          "indexed": false,
          "name": "option",
          "type": "bytes32"
        },
        {
          "indexed": false,
          "name": "count",
          "type": "uint256"
        }
      ],
      "name": "OptionAdded",
      "type": "event"
    },
    {
      "anonymous": false,
      "inputs": [
        {
          "indexed": true,
          "name": "id",
          "type": "uint256"
        },
        {
          "indexed": false,
          "name": "option",
          "type": "bytes32"
        },
        {
          "indexed": false,
          "name": "count",
          "type": "uint256"
        }
      ],
      "name": "OptionRemoved",
      "type": "event"
    },
    {
      "anonymous": false,
      "inputs": [
        {
          "indexed": true,
          "name": "id",
          "type": "uint256"
        }
      ],
      "name": "PollDetailsUpdated",
      "type": "event"
    },
    {
      "anonymous": false,
      "inputs": [
        {
          "indexed": true,
          "name": "self",
          "type": "address"
        },
        {
          "indexed": false,
          "name": "errorCode",
          "type": "uint256"
        }
      ],
      "name": "Error",
      "type": "event"
    }
  ],
  "bytecode": "0x606060405234156200001057600080fd5b604051604080620026528339810160405280805191906020018051915082905081818181818181620000536000838364010000000062001d006200048282021704565b505060028054600160a060020a03338116600160a060020a03199283161790925560058054309093169290911691909117905550620000c89250600691507f616374697665506f6c6c73436f756e7400000000000000000000000000000000905064010000000062001d26620004a882021704565b6200010360077f706f6c6c7300000000000000000000000000000000000000000000000000000064010000000062001d36620004c882021704565b6200013e600c7f6f776e657200000000000000000000000000000000000000000000000000000064010000000062001d40620004e682021704565b62000179600d7f64657461696c734970667348617368000000000000000000000000000000000064010000000062001d40620004e682021704565b620001b4600e7f766f74656c696d6974000000000000000000000000000000000000000000000064010000000062001d40620004e682021704565b620001ef600f7f646561646c696e6500000000000000000000000000000000000000000000000064010000000062001d40620004e682021704565b6200022a60107f737461747573000000000000000000000000000000000000000000000000000064010000000062001d40620004e682021704565b6200026560117f616374697665000000000000000000000000000000000000000000000000000064010000000062001d40620004e682021704565b620002a060137f6d656d6265724f7074696f6e000000000000000000000000000000000000000064010000000062001d40620004e682021704565b620002db60147f6d656d626572566f74657300000000000000000000000000000000000000000064010000000062001d40620004e682021704565b6200031660157f6f7074696f6e730000000000000000000000000000000000000000000000000064010000000062001d40620004e682021704565b6200035160167f6f7074696f6e735374617473000000000000000000000000000000000000000064010000000062001d40620004e682021704565b6200038c60177f6d656d626572730000000000000000000000000000000000000000000000000064010000000062001d7c6200050082021704565b620003c7601c7f6d656d626572506f6c6c7300000000000000000000000000000000000000000064010000000062001d7c6200050082021704565b6200040260217f697066734861736865730000000000000000000000000000000000000000000064010000000062001d36620004c882021704565b6200043d60267f6f7074696f6e734964000000000000000000000000000000000000000000000064010000000062001d36620004c882021704565b6200047860127f6372656174696f6e54696d65000000000000000000000000000000000000000064010000000062001d40620004e682021704565b50505050620006f1565b8254600160a060020a031916600160a060020a0392909216919091178255600190910155565b8154620004c4908264010000000062001d9a6200051a82021704565b9055565b620004e2828264010000000062001db06200053282021704565b5050565b620004e2828264010000000062001d26620004a882021704565b620004e2828264010000000062001d36620004c882021704565b8115158062000527575080155b15620004e257600080fd5b6200058982826040519081527f75696e742f636f756e74000000000000000000000000000000000000000000006020820152602a016040518091039020620004a86401000000000262001d26176401000000009004565b620005e382600101826040519081527f75696e742f6669727374000000000000000000000000000000000000000000006020820152602a016040518091039020620004a86401000000000262001d26176401000000009004565b6200063d82600201826040519081527f75696e742f6c617374000000000000000000000000000000000000000000000060208201526029016040518091039020620004a86401000000000262001d26176401000000009004565b6200069782600301826040519081527f75696e742f6e657874000000000000000000000000000000000000000000000060208201526029016040518091039020620004a86401000000000262001d26176401000000009004565b620004e282600401826040519081527f75696e742f70726576000000000000000000000000000000000000000000000060208201526029016040518091039020620004a86401000000000262001d26176401000000009004565b611f5180620007016000396000f30060606040526004361061010e5763ffffffff60e060020a6000350416630efe6a8b811461011e57806315601a211461015557806319ab453c1461017f5780634592cd1d1461019e5780634fe59012146101b157806353253d31146101e3578063557f4bc9146101f65780635aa77d3c146102155780636521afd71461022857806371d3b5731461024957806383197ef0146102685780638d65e2b51461027b578063a843c51f14610291578063b384abef146102b0578063ce606ee0146102c9578063d8f9659b146102dc578063df26ca0814610336578063eaffbbb61461034c578063ec205e4b14610362578063fb26441f1461037b578063fe9fbb80146103a0578063fff10aba146103bf575b341561011957600080fd5b600080fd5b341561012957600080fd5b610143600160a060020a03600435166024356044356103d2565b60405190815260200160405180910390f35b341561016057600080fd5b61016b600435610561565b604051901515815260200160405180910390f35b341561018a57600080fd5b610143600160a060020a0360043516610591565b34156101a957600080fd5b61016b6105de565b34156101bc57600080fd5b6101c760043561062b565b604051600160a060020a03909116815260200160405180910390f35b34156101ee57600080fd5b6101c76106af565b341561020157600080fd5b61016b600160a060020a03600435166106be565b341561022057600080fd5b6101c7610715565b341561023357600080fd5b610247600160a060020a0360043516610724565b005b341561025457600080fd5b610247600160a060020a036004351661075a565b341561027357600080fd5b610247610791565b341561028657600080fd5b610247600435610827565b341561029c57600080fd5b61016b600160a060020a036004351661085d565b34156102bb57600080fd5b6101436004356024356108d6565b34156102d457600080fd5b6101c7610b63565b34156102e757600080fd5b610143600460248135818101908301358060208181020160405190810160405280939291908181526020018383602002808284375094965050509235600160a060020a03169250610b72915050565b341561034157600080fd5b610247600435610cc3565b341561035757600080fd5b61016b600435610d0a565b341561036d57600080fd5b610247600435602435610d24565b341561038657600080fd5b610143600160a060020a0360043516602435604435610d62565b34156103ab57600080fd5b61016b600160a060020a0360043516610edf565b34156103ca57600080fd5b6101c7610f85565b60006103dc611cd9565b60008060008061040b7f54696d65486f6c6465720000000000000000000000000000000000000000000061062b565b600160a060020a031633600160a060020a03161415610555576104406000601c600160a060020a038c1663ffffffff610f9416565b94505b6104566000601c8763ffffffff610fb116565b156105505761046e6000601c8763ffffffff610fbe16565b9350610483600060108663ffffffff610fcb16565b801561049d575061049d600060118663ffffffff610fcb16565b156104fa576104b660006013868c63ffffffff610fd816565b92506104cc60006015868663ffffffff610ff816565b880191506104e560006014868c8b63ffffffff61100616565b6104fa6000601586868663ffffffff61102316565b61050d6000600e8663ffffffff61103016565b905080821015801561053b5750600081118061053b5750426105386000600f8763ffffffff61103016565b11155b1561054b576105498461103d565b505b610443565b600195505b50505050509392505050565b6000600160a060020a03331661057f82600c8563ffffffff61103016565b600160a060020a03161490505b919050565b60025460009033600160a060020a039081169116141561058c576105d5827f566f74654163746f7200000000000000000000000000000000000000000000006110c2565b50600192915050565b60035460009033600160a060020a039081169116146105ff57506000610628565b506003805460028054600160a060020a0319908116600160a060020a0384161790915516905560015b90565b600454600090600160a060020a031663bc65792783836040516020015260405160e060020a63ffffffff84160281526004810191909152602401602060405180830381600087803b151561067e57600080fd5b6102c65a03f1151561068f57600080fd5b5050506040518051915050600160a060020a038116151561058c57600080fd5b600454600160a060020a031681565b60025460009033600160a060020a039081169116141561058c57600160a060020a03821615156106f05750600061058c565b5060038054600160a060020a038316600160a060020a03199091161790556001919050565b600354600160a060020a031681565b60025433600160a060020a03908116911614156107575760058054600160a060020a031916600160a060020a0383161790555b50565b60025433600160a060020a03908116911614156107575760048054600160a060020a038316600160a060020a031990911617905550565b60025433600160a060020a039081169116141561082557600454600160a060020a031663c375c2ef3060006040516020015260405160e060020a63ffffffff8416028152600160a060020a039091166004820152602401602060405180830381600087803b151561080157600080fd5b6102c65a03f1151561081257600080fd5b50505060405180519050506108256112b3565b565b7f14d4cfc1c2a6f37c8f97ad80fc12bd9d943ea6d4dd7684137850125597ce9bf78160405190815260200160405180910390a150565b60025460009033600160a060020a039081169116141561058c57600160a060020a038216151561088f5750600061058c565b600354600160a060020a0316156108b15760038054600160a060020a03191690555b5060028054600160a060020a038316600160a060020a03199091161790556001919050565b60008060008060006108e7876112d6565b15156108ff576108f8611f4e6112ea565b9450610b59565b600086118015610921575061091d600060268963ffffffff61135316565b8611155b1515610932576108f8611f4f6112ea565b610945600060108963ffffffff610fcb16565b1515610956576108f8611f456112ea565b61095f87611360565b1561096f576108f8611f466112ea565b61098360006013893363ffffffff610fd816565b15610993576108f8611f486112ea565b6109bc7f54696d65486f6c6465720000000000000000000000000000000000000000000061062b565b935083600160a060020a031663956501bb3360006040516020015260405160e060020a63ffffffff8416028152600160a060020a039091166004820152602401602060405180830381600087803b1515610a1557600080fd5b6102c65a03f11515610a2657600080fd5b5050506040518051935050821515610a43576108f8611f476112ea565b82610a58600060158a8a63ffffffff610ff816565b019150610a706000601589898663ffffffff61102316565b610a9e60168888610a8a600084848463ffffffff610ff816565b60009392919060010163ffffffff61102316565b610ab36000601489338763ffffffff61100616565b610ac760006017893363ffffffff61137216565b610adc6000601389338a63ffffffff61100616565b610af96000601c600160a060020a0333168a63ffffffff61138d16565b610b038688611399565b610b166000600e8963ffffffff61103016565b9050808210158015610b4457506000811180610b44575042610b416000600f8a63ffffffff61103016565b11155b15610b5457610b528761103d565b505b600194505b5050505092915050565b600254600160a060020a031681565b60025460009081908190819033600160a060020a0390811691161415610cba57600092505b8551831015610cb557858381518110610bac57fe5b90602001906020020151915081600160a060020a03166370a082313060006040516020015260405160e060020a63ffffffff8416028152600160a060020a039091166004820152602401602060405180830381600087803b1515610c0f57600080fd5b6102c65a03f11515610c2057600080fd5b50505060405180519150508015610caa5781600160a060020a031663a9059cbb868360006040516020015260405160e060020a63ffffffff8516028152600160a060020a0390921660048301526024820152604401602060405180830381600087803b1515610c8e57600080fd5b6102c65a03f11515610c9f57600080fd5b505050604051805150505b600190920191610b97565b600193505b50505092915050565b610ccb6113fd565b600160a060020a03167f9cf38cf2dbf9139f5c32639950507b10775fbbe0421f3e168bc2d1bb1ae3208c8260405190815260200160405180910390a250565b6000610d1e8160118463ffffffff610fcb16565b92915050565b7ff558b17e24256d39da5ae39993b5a201700ef76769a6067cb8d1d33f769a3bc1828260405191825260208201526040908101905180910390a15050565b6000610d6c611cd9565b6000806000610d9a7f54696d65486f6c6465720000000000000000000000000000000000000000000061062b565b600160a060020a031633600160a060020a03161415610ed457610dcf6000601c600160a060020a038b1663ffffffff610f9416565b93505b610de56000601c8663ffffffff610fb116565b15610ecf57610dfd6000601c8663ffffffff610fbe16565b9250610e12600060108563ffffffff610fcb16565b8015610e2c5750610e2c600060118563ffffffff610fcb16565b15610eca57610e4560006013858b63ffffffff610fd816565b9150610e5b60006015858563ffffffff610ff816565b8790039050610e7560006014858b8a63ffffffff61100616565b610e8a6000601585858563ffffffff61102316565b851515610eca57610e9b8389611401565b610eca601684846001610eb7600085858563ffffffff610ff816565b600094939291900363ffffffff61102316565b610dd2565b600194505b505050509392505050565b600080610f0b7f557365724d616e6167657200000000000000000000000000000000000000000061062b565b905080600160a060020a0316632aa09e5a8460006040516020015260405160e060020a63ffffffff8416028152600160a060020a039091166004820152602401602060405180830381600087803b1515610f6457600080fd5b6102c65a03f11515610f7557600080fd5b5050506040518051949350505050565b600554600160a060020a031690565b610f9c611cd9565b610fa7848484611460565b90505b9392505050565b6000610fa7848484611473565b6000610fa7848484611480565b6000610fa784848461148d565b6000610fef858585600160a060020a038616611527565b95945050505050565b6000610fef85858585611527565b61101c858585600160a060020a0386168561154c565b5050505050565b61101c858585858561154c565b6000610fa7848484611570565b60006110518160108463ffffffff610fcb16565b15156110605750611f4061058c565b61107460006010848263ffffffff6115e816565b61108860006011848263ffffffff6115e816565b6110b1600660016110a060008363ffffffff6115f416565b60009291900363ffffffff61165316565b6110ba826116cc565b506001919050565b60025460009081908190819033600160a060020a039081169116146110e657600080fd5b600160a060020a03861615156110fb57600080fd5b600454600160a060020a03161580159350806111255750600454600160a060020a03878116911614155b156111465760048054600160a060020a031916600160a060020a0388161790555b600454600160a060020a031691508163bc65792760006040516020015260405160e060020a63ffffffff83160281527f4d756c74694576656e7473486973746f727900000000000000000000000000006004820152602401602060405180830381600087803b15156111b757600080fd5b6102c65a03f115156111c857600080fd5b5050506040518051915050600160a060020a038116158015906111f95750600554600160a060020a03828116911614155b1561121a5760058054600160a060020a031916600160a060020a0383161790555b84156112a15781600160a060020a031663b7c46cd5308760006040516020015260405160e060020a63ffffffff8516028152600160a060020a0390921660048301526024820152604401602060405180830381600087803b151561127d57600080fd5b6102c65a03f1151561128e57600080fd5b505050604051805160011490506112a157fe5b8215610cb55760069695505050505050565b60025433600160a060020a03908116911614156108255733600160a060020a0316ff5b6000610d1e8160078463ffffffff61172d16565b60006112f4610f85565b600160a060020a031663df26ca088360405160e060020a63ffffffff84160281526004810191909152602401600060405180830381600087803b151561133957600080fd5b6102c65a03f1151561134a57600080fd5b50929392505050565b6000610fa784848461173a565b600061136b82610d0a565b1592915050565b611387848484600160a060020a038516611747565b50505050565b61138784848484611747565b6113a1610f85565b600160a060020a031663ec205e4b838360405160e060020a63ffffffff851602815260048101929092526024820152604401600060405180830381600087803b15156113ec57600080fd5b6102c65a03f1151561101c57600080fd5b3390565b6114166000601384848363ffffffff61100616565b61142b6000601484848363ffffffff61100616565b6114486000601c600160a060020a0384168563ffffffff61175316565b61145c60006017848463ffffffff61175f16565b5050565b611468611cd9565b610fa7848484611774565b6000610fa7848484611792565b6000610fa78484846117cd565b825460018401548354600092600160a060020a0316916398eaf11c9185604051918252602082015260409081019051809103902060006040516020015260405160e060020a63ffffffff851602815260048101929092526024820152604401602060405180830381600087803b151561150557600080fd5b6102c65a03f1151561151657600080fd5b505050604051805195945050505050565b6000610fef858585856040519182526020820152604090810190518091039020611570565b61101c85858585604051918252602082015260409081019051809103902084611819565b825460018401548354600092600160a060020a0316916337d9d7fc9185604051918252602082015260409081019051809103902060006040516020015260405160e060020a63ffffffff851602815260048101929092526024820152604401602060405180830381600087803b151561150557600080fd5b611387848484846118ab565b815460018301548254600092600160a060020a0316916353aa3f5e91846040516020015260405160e060020a63ffffffff851602815260048101929092526024820152604401602060405180830381600087803b1515610f6457600080fd5b825460018401548354600160a060020a03909216916353e7168b91908460405160e060020a63ffffffff8616028152600481019390935260248301919091526044820152606401600060405180830381600087803b15156116b357600080fd5b6102c65a03f115156116c457600080fd5b505050505050565b60006116d6610f85565b9050600160a060020a0381161561145c5780600160a060020a0316638d65e2b58360405160e060020a63ffffffff84160281526004810191909152602401600060405180830381600087803b15156113ec57600080fd5b6000610fa7848484611925565b6000610fa7848484611953565b611387848484846119cb565b61138784848484611a93565b611387848484600160a060020a038516611a93565b61177c611cd9565b610fa784848461178d838383611953565b611a9f565b6000816020015115806117b657506117b4848484606001518560400151611abf565b155b156117c357506000610faa565b5060019392505050565b60006117da848484611792565b15156117e557600080fd5b81604001519050611800848484606001518560400151611afb565b6040830152600160208301818151039052509392505050565b835460018501548454600160a060020a039092169163a14ff85791908560405191825260208201526040908101905180910390208460405160e060020a63ffffffff8616028152600481019390935260248301919091526044820152606401600060405180830381600087803b151561189157600080fd5b6102c65a03f115156118a257600080fd5b50505050505050565b835460018501548454600160a060020a039092169163f0f53ee491908560405191825260208201526040908101905180910390208460405160e060020a63ffffffff86160281526004810193909352602483019190915215156044820152606401600060405180830381600087803b151561189157600080fd5b6000610fa784847f6f7264657265645f73657400000000000000000000000000000000000000000085611abf565b825460018401548354600092600160a060020a0316916353aa3f5e9185604051918252602082015260409081019051809103902060006040516020015260405160e060020a63ffffffff851602815260048101929092526024820152604401602060405180830381600087803b151561150557600080fd5b8015156119d757600080fd5b6119e384848484611abf565b156119ed57611387565b6119f884848461173a565b1515611a0d57611a0d84846001018484611819565b611a1b848460020184611570565b15611a5a57611a3d848460030184611a37888860020188611570565b85611b0c565b611a5a84846004018484611a55898960020189611570565b611b0c565b611a6b846003850184846000611b0c565b611a7a84846002018484611819565b611387848484611a8b838383611953565b600101611b1f565b61138784848484611b97565b611aa7611cd9565b610fef83611ab9878760010187611570565b84611c92565b60008115801590610fef5750611ada85856003018585611527565b151580610fef575081611af1866002870186611570565b1495945050505050565b6000610fef85856003018585611527565b811561101c5761101c858585858561154c565b835460018501548454600160a060020a03909216916353e7168b91908560405191825260208201526040908101905180910390208460405160e060020a63ffffffff8616028152600481019390935260248301919091526044820152606401600060405180830381600087803b151561189157600080fd5b611ba384848484611abf565b1515611bae57611387565b611bd5848460030184611bc688886004018888611527565b611a5589896003018989611527565b611bfc848460040184611bed88886003018888611527565b611a5589896004018989611527565b611c0a848460010184611570565b811415611c2e57611c2e848460010184611c2988886003018888611527565b611819565b611c3c848460020184611570565b811415611c5b57611c5b848460020184611c2988886004018888611527565b611c6a84846003018484611cc5565b611c7984846004018484611cc5565b6113878484846001611c8c848484611953565b03611b1f565b611c9a611cd9565b6080604051908101604090815283825260208201939093529182019290925260608101929092525090565b80156113875761138784848484600061154c565b60806040519081016040908152600080835260208301819052908201819052606082015290565b8254600160a060020a031916600160a060020a0392909216919091178255600190910155565b8154611d329082611d9a565b9055565b61145c8282611db0565b61145c8282611d26565b61145c8282611d26565b61145c8282611d26565b61145c8282611d26565b61145c8282611d26565b61145c8282611d26565b61145c8282611d36565b61145c8282611d36565b61145c8282611db0565b81151580611da6575080155b1561145c57600080fd5b611df182826040519081527f75696e742f636f756e74000000000000000000000000000000000000000000006020820152602a016040518091039020611d26565b611e3582600101826040519081527f75696e742f6669727374000000000000000000000000000000000000000000006020820152602a016040518091039020611d26565b611e7982600201826040519081527f75696e742f6c617374000000000000000000000000000000000000000000000060208201526029016040518091039020611d26565b611ebd82600301826040519081527f75696e742f6e657874000000000000000000000000000000000000000000000060208201526029016040518091039020611d26565b61145c82600401826040519081527f75696e742f70726576000000000000000000000000000000000000000000000060208201526029016040518091039020611d26565b8154611d329082611d9a565b8154611d329082611d9a565b8154611d329082611d9a5600a165627a7a72305820539172f2f3cc501fd65f0c88edd69e6eb8729502ce7e667f46dcca4669a4192b0029",
  "source": "pragma solidity ^0.4.11;\n\nimport \"./Vote.sol\";\nimport \"./VoteActorEmitter.sol\";\nimport {TimeHolderInterface as TimeHolder} from \"../timeholder/TimeHolderInterface.sol\";\nimport \"../core/common/ListenerInterface.sol\";\n\ncontract VoteActor is Vote, VoteActorEmitter, ListenerInterface {\n\n    function VoteActor(Storage _store, bytes32 _crate) Vote(_store, _crate) {\n    }\n\n    function init(address _contractsManager) onlyContractOwner returns (uint) {\n        BaseManager.init(_contractsManager, \"VoteActor\");\n        return OK;\n    }\n\n    /**\n    * Vote for a some option from a strings list\n    *\n    * @param _pollId poll identifier\n    * @param _choice user's pick from a list of options. Must be between 1 and N\n    *\n    * @return errorCode result code of operation\n    */\n    function vote(uint _pollId, uint _choice) returns (uint errorCode) {\n        if (!isPollExist(_pollId)) {\n            return _emitError(ERROR_VOTE_POLL_DOES_NOT_EXIST);\n        }\n        if (!(_choice > 0 && _choice <= store.count(optionsId, bytes32(_pollId)))) {\n            return _emitError(ERROR_VOTE_OPTION_CHOICE_OUT_OF_RANGE);\n        }\n\n        if (!store.get(status, _pollId)) {\n            return _emitError(ERROR_VOTE_POLL_WRONG_STATUS);\n        }\n\n        if (checkPollIsInactive(_pollId)) {\n            return _emitError(ERROR_VOTE_POLL_INACTIVE);\n        }\n\n        if (store.get(memberOption, _pollId, msg.sender) != 0) {\n            return _emitError(ERROR_VOTE_POLL_ALREADY_VOTED);\n        }\n\n        address timeHolder = lookupManager(\"TimeHolder\");\n        uint balance = TimeHolder(timeHolder).depositBalance(msg.sender);\n\n        if (balance == 0) {\n            return _emitError(ERROR_VOTE_POLL_NO_SHARES);\n        }\n\n        uint optionsValue = store.get(options, _pollId, _choice) + balance;\n        store.set(options, _pollId, _choice, optionsValue);\n        store.set(optionsStats, _pollId, _choice, store.get(optionsStats, _pollId, _choice) + 1);\n        store.set(memberVotes, _pollId, msg.sender, balance);\n        store.add(members, bytes32(_pollId), msg.sender);\n        store.set(memberOption, _pollId, msg.sender, _choice);\n        store.add(memberPolls, bytes32(msg.sender), _pollId);\n        _emitVoteCreated(_choice, _pollId);\n        // if votelimit reached, end poll\n        uint voteLimitNumber = store.get(votelimit, _pollId);\n        if (optionsValue >= voteLimitNumber && (voteLimitNumber > 0 || store.get(deadline, _pollId) <= now)) {\n            endPoll(_pollId);\n        }\n        return OK;\n    }\n\n    //TimeHolder interface implementation\n    modifier onlyTimeHolder() {\n        if (msg.sender == lookupManager(\"TimeHolder\")) {\n            _;\n        }\n    }\n\n    function deposit(address _address, uint _amount, uint _total) onlyTimeHolder returns (uint) {\n        StorageInterface.Iterator memory memberPollsIterator = store.listIterator(memberPolls, bytes32(_address));\n        while (store.canGetNextWithIterator(memberPolls, memberPollsIterator)) {\n            uint pollId = store.getNextWithIterator(memberPolls, memberPollsIterator);\n            if (store.get(status, pollId) && store.get(active, pollId)) {\n                uint choice = store.get(memberOption, pollId, _address);\n                uint value = store.get(options, pollId, choice);\n                value = value + _amount;\n                store.set(memberVotes, pollId, _address, _total);\n                store.set(options, pollId, choice, value);\n            }\n            uint voteLimitNumber = store.get(votelimit, pollId);\n            if (value >= voteLimitNumber && (voteLimitNumber > 0 || store.get(deadline, pollId) <= now)) {\n                endPoll(pollId);\n            }\n        }\n        return OK;\n    }\n\n    function withdrawn(address _address, uint _amount, uint _total) onlyTimeHolder returns (uint) {\n        StorageInterface.Iterator memory memberPollsIterator = store.listIterator(memberPolls, bytes32(_address));\n        while (store.canGetNextWithIterator(memberPolls, memberPollsIterator)) {\n            uint pollId = uint(store.getNextWithIterator(memberPolls, memberPollsIterator));\n\n            if (store.get(status, pollId) && store.get(active, pollId)) {\n                uint choice = store.get(memberOption, pollId, _address);\n                uint value = store.get(options, pollId, choice);\n                value = value - _amount;\n                store.set(memberVotes, pollId, _address, _total);\n                store.set(options, pollId, choice, value);\n                if (_total == 0) {\n                    removeMember(pollId, _address);\n                    store.set(optionsStats, pollId, choice, store.get(optionsStats, pollId, choice) - 1);\n                }\n            }\n        }\n        return OK;\n    }\n\n    function removeMember(uint _pollId, address _address) internal {\n        store.set(memberOption, _pollId, _address, 0);\n        store.set(memberVotes, _pollId, _address, 0);\n        store.remove(memberPolls, bytes32(_address), _pollId);\n        store.remove(members, bytes32(_pollId), _address);\n    }\n\n    function _emitError(uint error) internal returns (uint) {\n        VoteActorEmitter(getEventsHistory()).emitError(error);\n        return error;\n    }\n\n    function _emitVoteCreated(uint choice, uint pollId) internal {\n        VoteActorEmitter(getEventsHistory()).emitVoteCreated(choice, pollId);\n    }\n}\n",
  "sourcePath": "/Users/mikefluff/Documents/Programming/Chronobank/test/SmartContracts/contracts/vote/VoteActor.sol",
  "compiler": {
    "name": "solc",
    "version": "0.4.18+commit.9cf6e910.Emscripten.clang"
  },
  "schemaVersion": "1.0.1",
  "updatedAt": "2018-01-12T11:40:45.550Z"
}