{
  "contractName": "VoteActorEmitter",
  "abi": [
    {
      "constant": false,
      "inputs": [
        {
          "name": "pollId",
          "type": "uint256"
        }
      ],
      "name": "emitPollEnded",
      "outputs": [],
      "payable": false,
      "stateMutability": "nonpayable",
      "type": "function"
    },
    {
      "constant": false,
      "inputs": [
        {
          "name": "errorCode",
          "type": "uint256"
        }
      ],
      "name": "emitError",
      "outputs": [],
      "payable": false,
      "stateMutability": "nonpayable",
      "type": "function"
    },
    {
      "constant": false,
      "inputs": [
        {
          "name": "choice",
          "type": "uint256"
        },
        {
          "name": "pollId",
          "type": "uint256"
        }
      ],
      "name": "emitVoteCreated",
      "outputs": [],
      "payable": false,
      "stateMutability": "nonpayable",
      "type": "function"
    },
    {
      "anonymous": false,
      "inputs": [
        {
          "indexed": false,
          "name": "pollId",
          "type": "uint256"
        }
      ],
      "name": "PollCreated",
      "type": "event"
    },
    {
      "anonymous": false,
      "inputs": [
        {
          "indexed": false,
          "name": "pollId",
          "type": "uint256"
        }
      ],
      "name": "PollDeleted",
      "type": "event"
    },
    {
      "anonymous": false,
      "inputs": [
        {
          "indexed": false,
          "name": "pollId",
          "type": "uint256"
        }
      ],
      "name": "PollEnded",
      "type": "event"
    },
    {
      "anonymous": false,
      "inputs": [
        {
          "indexed": false,
          "name": "pollId",
          "type": "uint256"
        }
      ],
      "name": "PollActivated",
      "type": "event"
    },
    {
      "anonymous": false,
      "inputs": [
        {
          "indexed": false,
          "name": "choice",
          "type": "uint256"
        },
        {
          "indexed": false,
          "name": "pollId",
          "type": "uint256"
        }
      ],
      "name": "VoteCreated",
      "type": "event"
    },
    {
      "anonymous": false,
      "inputs": [
        {
          "indexed": true,
          "name": "self",
          "type": "address"
        }
      ],
      "name": "SharesPercentUpdated",
      "type": "event"
    },
    {
      "anonymous": false,
      "inputs": [
        {
          "indexed": true,
          "name": "id",
          "type": "uint256"
        },
        {
          "indexed": false,
          "name": "hash",
          "type": "bytes32"
        },
        {
          "indexed": false,
          "name": "count",
          "type": "uint256"
        }
      ],
      "name": "IpfsHashToPollAdded",
      "type": "event"
    },
    {
      "anonymous": false,
      "inputs": [
        {
          "indexed": true,
          "name": "id",
          "type": "uint256"
        },
        {
          "indexed": false,
          "name": "option",
          "type": "bytes32"
        },
        {
          "indexed": false,
          "name": "count",
          "type": "uint256"
        }
      ],
      "name": "OptionAdded",
      "type": "event"
    },
    {
      "anonymous": false,
      "inputs": [
        {
          "indexed": true,
          "name": "id",
          "type": "uint256"
        },
        {
          "indexed": false,
          "name": "option",
          "type": "bytes32"
        },
        {
          "indexed": false,
          "name": "count",
          "type": "uint256"
        }
      ],
      "name": "OptionRemoved",
      "type": "event"
    },
    {
      "anonymous": false,
      "inputs": [
        {
          "indexed": true,
          "name": "id",
          "type": "uint256"
        }
      ],
      "name": "PollDetailsUpdated",
      "type": "event"
    },
    {
      "anonymous": false,
      "inputs": [
        {
          "indexed": true,
          "name": "self",
          "type": "address"
        },
        {
          "indexed": false,
          "name": "errorCode",
          "type": "uint256"
        }
      ],
      "name": "Error",
      "type": "event"
    }
  ],
  "bytecode": "0x6060604052341561000f57600080fd5b61019a8061001e6000396000f3006060604052600436106100565763ffffffff7c01000000000000000000000000000000000000000000000000000000006000350416638d65e2b5811461005b578063df26ca0814610073578063ec205e4b14610089575b600080fd5b341561006657600080fd5b6100716004356100a2565b005b341561007e57600080fd5b6100716004356100d8565b341561009457600080fd5b61007160043560243561012c565b7f14d4cfc1c2a6f37c8f97ad80fc12bd9d943ea6d4dd7684137850125597ce9bf78160405190815260200160405180910390a150565b6100e061016a565b73ffffffffffffffffffffffffffffffffffffffff167f9cf38cf2dbf9139f5c32639950507b10775fbbe0421f3e168bc2d1bb1ae3208c8260405190815260200160405180910390a250565b7ff558b17e24256d39da5ae39993b5a201700ef76769a6067cb8d1d33f769a3bc1828260405191825260208201526040908101905180910390a15050565b33905600a165627a7a723058203162784621fda8838af1461e14acc6c08d7b463abd150b3fa0ed3c06f245545f0029",
  "source": "pragma solidity ^0.4.11;\n\nimport \"./VoteEmitter.sol\";\n\ncontract VoteActorEmitter is VoteEmitter {\n    function emitError(uint errorCode) {\n        Error(_self(), errorCode);\n    }\n\n    function emitVoteCreated(uint choice, uint pollId) {\n        VoteCreated(choice, pollId);\n    }\n}\n",
  "sourcePath": "/Users/ahiatsevich/Development/chronobank/SmartContracts/contracts/vote/VoteActorEmitter.sol",
  "compiler": {
    "name": "solc",
    "version": "0.4.18+commit.9cf6e910.Emscripten.clang"
  },
  "schemaVersion": "1.0.1",
  "updatedAt": "2017-11-15T09:25:14.979Z"
}