{
  "contractName": "Vote",
  "abi": [
    {
      "constant": true,
      "inputs": [
        {
          "name": "_id",
          "type": "uint256"
        }
      ],
      "name": "isPollOwner",
      "outputs": [
        {
          "name": "",
          "type": "bool"
        }
      ],
      "payable": false,
      "stateMutability": "view",
      "type": "function"
    },
    {
      "constant": false,
      "inputs": [],
      "name": "claimContractOwnership",
      "outputs": [
        {
          "name": "",
          "type": "bool"
        }
      ],
      "payable": false,
      "stateMutability": "nonpayable",
      "type": "function"
    },
    {
      "constant": true,
      "inputs": [
        {
          "name": "_identifier",
          "type": "bytes32"
        }
      ],
      "name": "lookupManager",
      "outputs": [
        {
          "name": "manager",
          "type": "address"
        }
      ],
      "payable": false,
      "stateMutability": "view",
      "type": "function"
    },
    {
      "constant": true,
      "inputs": [],
      "name": "contractsManager",
      "outputs": [
        {
          "name": "",
          "type": "address"
        }
      ],
      "payable": false,
      "stateMutability": "view",
      "type": "function"
    },
    {
      "constant": false,
      "inputs": [
        {
          "name": "_to",
          "type": "address"
        }
      ],
      "name": "changeContractOwnership",
      "outputs": [
        {
          "name": "",
          "type": "bool"
        }
      ],
      "payable": false,
      "stateMutability": "nonpayable",
      "type": "function"
    },
    {
      "constant": true,
      "inputs": [],
      "name": "pendingContractOwner",
      "outputs": [
        {
          "name": "",
          "type": "address"
        }
      ],
      "payable": false,
      "stateMutability": "view",
      "type": "function"
    },
    {
      "constant": false,
      "inputs": [
        {
          "name": "_eventsHistory",
          "type": "address"
        }
      ],
      "name": "setEventsHistory",
      "outputs": [],
      "payable": false,
      "stateMutability": "nonpayable",
      "type": "function"
    },
    {
      "constant": false,
      "inputs": [
        {
          "name": "_contractsManager",
          "type": "address"
        }
      ],
      "name": "setContractsManager",
      "outputs": [],
      "payable": false,
      "stateMutability": "nonpayable",
      "type": "function"
    },
    {
      "constant": false,
      "inputs": [],
      "name": "destroy",
      "outputs": [],
      "payable": false,
      "stateMutability": "nonpayable",
      "type": "function"
    },
    {
      "constant": false,
      "inputs": [
        {
          "name": "pollId",
          "type": "uint256"
        }
      ],
      "name": "emitPollEnded",
      "outputs": [],
      "payable": false,
      "stateMutability": "nonpayable",
      "type": "function"
    },
    {
      "constant": false,
      "inputs": [
        {
          "name": "_to",
          "type": "address"
        }
      ],
      "name": "transferContractOwnership",
      "outputs": [
        {
          "name": "",
          "type": "bool"
        }
      ],
      "payable": false,
      "stateMutability": "nonpayable",
      "type": "function"
    },
    {
      "constant": true,
      "inputs": [],
      "name": "contractOwner",
      "outputs": [
        {
          "name": "",
          "type": "address"
        }
      ],
      "payable": false,
      "stateMutability": "view",
      "type": "function"
    },
    {
      "constant": false,
      "inputs": [
        {
          "name": "tokens",
          "type": "address[]"
        },
        {
          "name": "_to",
          "type": "address"
        }
      ],
      "name": "withdrawnTokens",
      "outputs": [
        {
          "name": "",
          "type": "uint256"
        }
      ],
      "payable": false,
      "stateMutability": "nonpayable",
      "type": "function"
    },
    {
      "constant": true,
      "inputs": [
        {
          "name": "_pollId",
          "type": "uint256"
        }
      ],
      "name": "checkPollIsActive",
      "outputs": [
        {
          "name": "",
          "type": "bool"
        }
      ],
      "payable": false,
      "stateMutability": "view",
      "type": "function"
    },
    {
      "constant": true,
      "inputs": [
        {
          "name": "key",
          "type": "address"
        }
      ],
      "name": "isAuthorized",
      "outputs": [
        {
          "name": "",
          "type": "bool"
        }
      ],
      "payable": false,
      "stateMutability": "view",
      "type": "function"
    },
    {
      "constant": true,
      "inputs": [],
      "name": "getEventsHistory",
      "outputs": [
        {
          "name": "",
          "type": "address"
        }
      ],
      "payable": false,
      "stateMutability": "view",
      "type": "function"
    },
    {
      "inputs": [
        {
          "name": "_store",
          "type": "address"
        },
        {
          "name": "_crate",
          "type": "bytes32"
        }
      ],
      "payable": false,
      "stateMutability": "nonpayable",
      "type": "constructor"
    },
    {
      "payable": false,
      "stateMutability": "nonpayable",
      "type": "fallback"
    },
    {
      "anonymous": false,
      "inputs": [
        {
          "indexed": false,
          "name": "pollId",
          "type": "uint256"
        }
      ],
      "name": "PollCreated",
      "type": "event"
    },
    {
      "anonymous": false,
      "inputs": [
        {
          "indexed": false,
          "name": "pollId",
          "type": "uint256"
        }
      ],
      "name": "PollDeleted",
      "type": "event"
    },
    {
      "anonymous": false,
      "inputs": [
        {
          "indexed": false,
          "name": "pollId",
          "type": "uint256"
        }
      ],
      "name": "PollEnded",
      "type": "event"
    },
    {
      "anonymous": false,
      "inputs": [
        {
          "indexed": false,
          "name": "pollId",
          "type": "uint256"
        }
      ],
      "name": "PollActivated",
      "type": "event"
    },
    {
      "anonymous": false,
      "inputs": [
        {
          "indexed": false,
          "name": "choice",
          "type": "uint256"
        },
        {
          "indexed": false,
          "name": "pollId",
          "type": "uint256"
        }
      ],
      "name": "VoteCreated",
      "type": "event"
    },
    {
      "anonymous": false,
      "inputs": [
        {
          "indexed": true,
          "name": "self",
          "type": "address"
        }
      ],
      "name": "SharesPercentUpdated",
      "type": "event"
    },
    {
      "anonymous": false,
      "inputs": [
        {
          "indexed": true,
          "name": "id",
          "type": "uint256"
        },
        {
          "indexed": false,
          "name": "hash",
          "type": "bytes32"
        },
        {
          "indexed": false,
          "name": "count",
          "type": "uint256"
        }
      ],
      "name": "IpfsHashToPollAdded",
      "type": "event"
    },
    {
      "anonymous": false,
      "inputs": [
        {
          "indexed": true,
          "name": "id",
          "type": "uint256"
        },
        {
          "indexed": false,
          "name": "option",
          "type": "bytes32"
        },
        {
          "indexed": false,
          "name": "count",
          "type": "uint256"
        }
      ],
      "name": "OptionAdded",
      "type": "event"
    },
    {
      "anonymous": false,
      "inputs": [
        {
          "indexed": true,
          "name": "id",
          "type": "uint256"
        },
        {
          "indexed": false,
          "name": "option",
          "type": "bytes32"
        },
        {
          "indexed": false,
          "name": "count",
          "type": "uint256"
        }
      ],
      "name": "OptionRemoved",
      "type": "event"
    },
    {
      "anonymous": false,
      "inputs": [
        {
          "indexed": true,
          "name": "id",
          "type": "uint256"
        }
      ],
      "name": "PollDetailsUpdated",
      "type": "event"
    },
    {
      "anonymous": false,
      "inputs": [
        {
          "indexed": true,
          "name": "self",
          "type": "address"
        },
        {
          "indexed": false,
          "name": "errorCode",
          "type": "uint256"
        }
      ],
      "name": "Error",
      "type": "event"
    }
  ],
  "bytecode": "0x606060405234156200001057600080fd5b604051604080620012df83398101604052808051919060200180519150829050818181818162000051600083836401000000006200098d6200047e82021704565b505060028054600160a060020a03338116600160a060020a03199283161790925560058054309093169290911691909117905550620000c69250600691507f616374697665506f6c6c73436f756e74000000000000000000000000000000009050640100000000620009b3620004a482021704565b6200010160077f706f6c6c73000000000000000000000000000000000000000000000000000000640100000000620009c3620004c482021704565b6200013c600c7f6f776e6572000000000000000000000000000000000000000000000000000000640100000000620009d1620004e282021704565b62000177600d7f64657461696c7349706673486173680000000000000000000000000000000000640100000000620009d1620004e282021704565b620001b2600e7f766f74656c696d69740000000000000000000000000000000000000000000000640100000000620009d1620004e282021704565b620001ed600f7f646561646c696e65000000000000000000000000000000000000000000000000640100000000620009d1620004e282021704565b6200022860107f7374617475730000000000000000000000000000000000000000000000000000640100000000620009d1620004e282021704565b6200026360117f6163746976650000000000000000000000000000000000000000000000000000640100000000620009d1620004e282021704565b6200029e60137f6d656d6265724f7074696f6e0000000000000000000000000000000000000000640100000000620009d1620004e282021704565b620002d960147f6d656d626572566f746573000000000000000000000000000000000000000000640100000000620009d1620004e282021704565b6200031460157f6f7074696f6e7300000000000000000000000000000000000000000000000000640100000000620009d1620004e282021704565b6200034f60167f6f7074696f6e7353746174730000000000000000000000000000000000000000640100000000620009d1620004e282021704565b6200038a60177f6d656d626572730000000000000000000000000000000000000000000000000064010000000062000a0d620004fc82021704565b620003c5601c7f6d656d626572506f6c6c7300000000000000000000000000000000000000000064010000000062000a0d620004fc82021704565b6200040060217f6970667348617368657300000000000000000000000000000000000000000000640100000000620009c3620004c482021704565b6200043b60267f6f7074696f6e7349640000000000000000000000000000000000000000000000640100000000620009c3620004c482021704565b6200047660127f6372656174696f6e54696d650000000000000000000000000000000000000000640100000000620009d1620004e282021704565b5050620006ed565b8254600160a060020a031916600160a060020a0392909216919091178255600190910155565b8154620004c0908264010000000062000a2b6200051682021704565b9055565b620004de828264010000000062000a416200052e82021704565b5050565b620004de8282640100000000620009b3620004a482021704565b620004de8282640100000000620009c3620004c482021704565b8115158062000523575080155b15620004de57600080fd5b6200058582826040519081527f75696e742f636f756e74000000000000000000000000000000000000000000006020820152602a016040518091039020620004a464010000000002620009b3176401000000009004565b620005df82600101826040519081527f75696e742f6669727374000000000000000000000000000000000000000000006020820152602a016040518091039020620004a464010000000002620009b3176401000000009004565b6200063982600201826040519081527f75696e742f6c617374000000000000000000000000000000000000000000000060208201526029016040518091039020620004a464010000000002620009b3176401000000009004565b6200069382600301826040519081527f75696e742f6e657874000000000000000000000000000000000000000000000060208201526029016040518091039020620004a464010000000002620009b3176401000000009004565b620004de82600401826040519081527f75696e742f70726576000000000000000000000000000000000000000000000060208201526029016040518091039020620004a464010000000002620009b3176401000000009004565b610be280620006fd6000396000f3006060604052600436106100cc5763ffffffff60e060020a60003504166315601a2181146100dc5780634592cd1d146101065780634fe590121461011957806353253d311461014b578063557f4bc91461015e5780635aa77d3c1461017d5780636521afd71461019057806371d3b573146101b157806383197ef0146101d05780638d65e2b5146101e3578063a843c51f146101f9578063ce606ee014610218578063d8f9659b1461022b578063eaffbbb614610297578063fe9fbb80146102ad578063fff10aba146102cc575b34156100d757600080fd5b600080fd5b34156100e757600080fd5b6100f26004356102df565b604051901515815260200160405180910390f35b341561011157600080fd5b6100f261030f565b341561012457600080fd5b61012f60043561035c565b604051600160a060020a03909116815260200160405180910390f35b341561015657600080fd5b61012f6103e0565b341561016957600080fd5b6100f2600160a060020a03600435166103ef565b341561018857600080fd5b61012f610446565b341561019b57600080fd5b6101af600160a060020a0360043516610455565b005b34156101bc57600080fd5b6101af600160a060020a036004351661048b565b34156101db57600080fd5b6101af6104c2565b34156101ee57600080fd5b6101af600435610558565b341561020457600080fd5b6100f2600160a060020a036004351661058e565b341561022357600080fd5b61012f610607565b341561023657600080fd5b610285600460248135818101908301358060208181020160405190810160405280939291908181526020018383602002808284375094965050509235600160a060020a03169250610616915050565b60405190815260200160405180910390f35b34156102a257600080fd5b6100f2600435610767565b34156102b857600080fd5b6100f2600160a060020a0360043516610781565b34156102d757600080fd5b61012f610827565b6000600160a060020a0333166102fd82600c8563ffffffff61083616565b600160a060020a03161490505b919050565b60035460009033600160a060020a0390811691161461033057506000610359565b506003805460028054600160a060020a0319908116600160a060020a0384161790915516905560015b90565b600454600090600160a060020a031663bc65792783836040516020015260405160e060020a63ffffffff84160281526004810191909152602401602060405180830381600087803b15156103af57600080fd5b6102c65a03f115156103c057600080fd5b5050506040518051915050600160a060020a038116151561030a57600080fd5b600454600160a060020a031681565b60025460009033600160a060020a039081169116141561030a57600160a060020a03821615156104215750600061030a565b5060038054600160a060020a038316600160a060020a03199091161790556001919050565b600354600160a060020a031681565b60025433600160a060020a03908116911614156104885760058054600160a060020a031916600160a060020a0383161790555b50565b60025433600160a060020a03908116911614156104885760048054600160a060020a038316600160a060020a031990911617905550565b60025433600160a060020a039081169116141561055657600454600160a060020a031663c375c2ef3060006040516020015260405160e060020a63ffffffff8416028152600160a060020a039091166004820152602401602060405180830381600087803b151561053257600080fd5b6102c65a03f1151561054357600080fd5b505050604051805190505061055661084b565b565b7f14d4cfc1c2a6f37c8f97ad80fc12bd9d943ea6d4dd7684137850125597ce9bf78160405190815260200160405180910390a150565b60025460009033600160a060020a039081169116141561030a57600160a060020a03821615156105c05750600061030a565b600354600160a060020a0316156105e25760038054600160a060020a03191690555b5060028054600160a060020a038316600160a060020a03199091161790556001919050565b600254600160a060020a031681565b60025460009081908190819033600160a060020a039081169116141561075e57600092505b85518310156107595785838151811061065057fe5b90602001906020020151915081600160a060020a03166370a082313060006040516020015260405160e060020a63ffffffff8416028152600160a060020a039091166004820152602401602060405180830381600087803b15156106b357600080fd5b6102c65a03f115156106c457600080fd5b5050506040518051915050801561074e5781600160a060020a031663a9059cbb868360006040516020015260405160e060020a63ffffffff8516028152600160a060020a0390921660048301526024820152604401602060405180830381600087803b151561073257600080fd5b6102c65a03f1151561074357600080fd5b505050604051805150505b60019092019161063b565b600193505b50505092915050565b600061077b8160118463ffffffff61086e16565b92915050565b6000806107ad7f557365724d616e6167657200000000000000000000000000000000000000000061035c565b905080600160a060020a0316632aa09e5a8460006040516020015260405160e060020a63ffffffff8416028152600160a060020a039091166004820152602401602060405180830381600087803b151561080657600080fd5b6102c65a03f1151561081757600080fd5b5050506040518051949350505050565b600554600160a060020a031690565b600061084384848461087b565b949350505050565b60025433600160a060020a03908116911614156105565733600160a060020a0316ff5b6000610843848484610915565b825460018401548354600092600160a060020a0316916337d9d7fc9185604051918252602082015260409081019051809103902060006040516020015260405160e060020a63ffffffff851602815260048101929092526024820152604401602060405180830381600087803b15156108f357600080fd5b6102c65a03f1151561090457600080fd5b505050604051805195945050505050565b825460018401548354600092600160a060020a0316916398eaf11c9185604051918252602082015260409081019051809103902060006040516020015260405160e060020a63ffffffff851602815260048101929092526024820152604401602060405180830381600087803b15156108f357600080fd5b8254600160a060020a031916600160a060020a0392909216919091178255600190910155565b81546109bf9082610a2b565b9055565b6109cd8282610a41565b5050565b6109cd82826109b3565b6109cd82826109b3565b6109cd82826109b3565b6109cd82826109b3565b6109cd82826109b3565b6109cd82826109b3565b6109cd82826109c3565b6109cd82826109c3565b6109cd8282610a41565b81151580610a37575080155b156109cd57600080fd5b610a8282826040519081527f75696e742f636f756e74000000000000000000000000000000000000000000006020820152602a0160405180910390206109b3565b610ac682600101826040519081527f75696e742f6669727374000000000000000000000000000000000000000000006020820152602a0160405180910390206109b3565b610b0a82600201826040519081527f75696e742f6c6173740000000000000000000000000000000000000000000000602082015260290160405180910390206109b3565b610b4e82600301826040519081527f75696e742f6e6578740000000000000000000000000000000000000000000000602082015260290160405180910390206109b3565b6109cd82600401826040519081527f75696e742f707265760000000000000000000000000000000000000000000000602082015260290160405180910390206109b3565b81546109bf9082610a2b565b81546109bf9082610a2b565b81546109bf9082610a2b5600a165627a7a72305820f964f719a4b986306d75763276bc859645a660702554fdb099d29ed634080e350029",
  "source": "pragma solidity ^0.4.11;\n\nimport \"../core/common/BaseManager.sol\";\nimport \"./VoteEmitter.sol\";\n\ncontract Vote is VoteEmitter, BaseManager {\n  // Vote errors\n    uint constant ERROR_VOTE_INVALID_PARAMETER = 8000;\n    uint constant ERROR_VOTE_INVALID_INVOCATION = 8001;\n    uint constant ERROR_VOTE_ADD_CONTRACT = 8002;\n    uint constant ERROR_VOTE_LIMIT_EXCEEDED = 8003;\n    uint constant ERROR_VOTE_POLL_LIMIT_REACHED = 8004;\n    uint constant ERROR_VOTE_POLL_WRONG_STATUS = 8005;\n    uint constant ERROR_VOTE_POLL_INACTIVE = 8006;\n    uint constant ERROR_VOTE_POLL_NO_SHARES = 8007;\n    uint constant ERROR_VOTE_POLL_ALREADY_VOTED = 8008;\n    uint constant ERROR_VOTE_ACTIVE_POLL_LIMIT_REACHED = 8009;\n    uint constant ERROR_VOTE_UNABLE_TO_ACTIVATE_POLL = 8010;\n    uint constant ERROR_VOTE_OPTIONS_LIMIT_REACHED = 8011;\n    uint constant ERROR_VOTE_POLL_SHOULD_BE_INACTIVE = 8013;\n    uint constant ERROR_VOTE_POLL_DOES_NOT_EXIST = 8014;\n    uint constant ERROR_VOTE_OPTION_CHOICE_OUT_OF_RANGE = 8015;\n    uint constant ERROR_VOTE_OPTIONS_EMPTY_LIST = 8016;\n    uint constant ERROR_VOTE_DETAILS_HASH_INVALID_PARAMETER = 8017;\n    uint constant ERROR_VOTE_DEADLINE_INVALID_PARAMETER = 8018;\n    uint constant ERROR_VOTE_HASH_INVALID_PARAMETER = 8019;\n    uint constant ERROR_VOTE_SHARES_PERCENT_OUT_OF_RANGE = 8020;\n    uint constant ERROR_VOTE_OPTION_INVALID_PARAMETER = 8021;\n\n    StorageInterface.UInt activePollsCount;\n\n    StorageInterface.OrderedUIntSet polls;\n\n    StorageInterface.UIntAddressMapping owner;\n    StorageInterface.UIntBytes32Mapping detailsIpfsHash;\n    StorageInterface.UIntUIntMapping votelimit;\n    StorageInterface.UIntUIntMapping deadline;\n    StorageInterface.UIntBoolMapping status;\n    StorageInterface.UIntBoolMapping active;\n    StorageInterface.UIntUIntMapping creationTime;\n\n    StorageInterface.UIntAddressUIntMapping memberOption;\n    StorageInterface.UIntAddressUIntMapping memberVotes;\n    StorageInterface.UIntUIntUIntMapping options;\n    StorageInterface.UIntUIntUIntMapping optionsStats;\n\n    StorageInterface.AddressOrderedSetMapping members;\n    StorageInterface.UIntOrderedSetMapping memberPolls;\n    StorageInterface.Bytes32OrderedSetMapping ipfsHashes;\n    StorageInterface.Bytes32OrderedSetMapping optionsId;\n\n     function Vote(Storage _store, bytes32 _crate) BaseManager(_store, _crate) {\n        activePollsCount.init('activePollsCount');\n        polls.init('polls');\n        owner.init('owner');\n        detailsIpfsHash.init('detailsIpfsHash');\n        votelimit.init('votelimit');\n        deadline.init('deadline');\n        status.init('status');\n        active.init('active');\n        memberOption.init('memberOption');\n        memberVotes.init('memberVotes');\n        options.init('options');\n        optionsStats.init('optionsStats');\n        members.init('members');\n        memberPolls.init('memberPolls');\n        ipfsHashes.init('ipfsHashes');\n        optionsId.init('optionsId');\n        creationTime.init('creationTime');\n    }\n\n    function checkPollIsActive(uint _pollId) constant returns (bool) {\n        return store.get(active, _pollId);\n    }\n\n    function checkPollIsInactive(uint _pollId) internal constant returns (bool) {\n        return !checkPollIsActive(_pollId);\n    }\n\n    modifier onlyCreator(uint _id) {\n        if (isPollOwner(_id)) {\n            _;\n        }\n    }\n\n    function isPollOwner(uint _id) constant returns (bool) {\n        return store.get(owner, _id) == msg.sender;\n    }\n\n    //when time or vote limit is reached, set the poll status to false\n    function endPoll(uint _pollId) internal returns (uint) {\n        if (!store.get(status, _pollId))  {\n            return ERROR_VOTE_INVALID_PARAMETER;\n        }\n\n        store.set(status, _pollId, false);\n        store.set(active, _pollId, false);\n        store.set(activePollsCount, store.get(activePollsCount) - 1);\n\n        _emitPollEnded(_pollId);\n        return OK;\n    }\n\n    function _emitPollEnded(uint pollId) internal {\n        address eventsHistory = getEventsHistory();\n        if (eventsHistory != 0x0) {\n            VoteEmitter(eventsHistory).emitPollEnded(pollId);\n        }\n    }\n\n    function isPollExist(uint _id) internal constant returns (bool) {\n        return store.includes(polls, _id);\n    }\n\n    function() {\n        throw;\n    }\n}\n",
  "sourcePath": "/Users/ahiatsevich/Development/chronobank/SmartContracts/contracts/vote/Vote.sol",
  "compiler": {
    "name": "solc",
    "version": "0.4.18+commit.9cf6e910.Emscripten.clang"
  },
  "schemaVersion": "1.0.1",
  "updatedAt": "2017-11-15T09:25:14.976Z"
}