{
  "contractName": "WalletsManager",
  "abi": [
    {
      "constant": false,
      "inputs": [],
      "name": "removeWallet",
      "outputs": [
        {
          "name": "",
          "type": "uint256"
        }
      ],
      "payable": false,
      "stateMutability": "nonpayable",
      "type": "function"
    },
    {
      "constant": false,
      "inputs": [
        {
          "name": "wallet",
          "type": "address"
        },
        {
          "name": "by",
          "type": "address"
        }
      ],
      "name": "emitWalletCreated",
      "outputs": [],
      "payable": false,
      "stateMutability": "nonpayable",
      "type": "function"
    },
    {
      "constant": false,
      "inputs": [
        {
          "name": "tokens",
          "type": "address[]"
        }
      ],
      "name": "kill",
      "outputs": [
        {
          "name": "",
          "type": "uint256"
        }
      ],
      "payable": false,
      "stateMutability": "nonpayable",
      "type": "function"
    },
    {
      "constant": false,
      "inputs": [],
      "name": "claimContractOwnership",
      "outputs": [
        {
          "name": "",
          "type": "bool"
        }
      ],
      "payable": false,
      "stateMutability": "nonpayable",
      "type": "function"
    },
    {
      "constant": false,
      "inputs": [
        {
          "name": "_address",
          "type": "address"
        }
      ],
      "name": "setOracleAddress",
      "outputs": [
        {
          "name": "",
          "type": "uint256"
        }
      ],
      "payable": false,
      "stateMutability": "nonpayable",
      "type": "function"
    },
    {
      "constant": true,
      "inputs": [
        {
          "name": "_identifier",
          "type": "bytes32"
        }
      ],
      "name": "lookupManager",
      "outputs": [
        {
          "name": "manager",
          "type": "address"
        }
      ],
      "payable": false,
      "stateMutability": "view",
      "type": "function"
    },
    {
      "constant": true,
      "inputs": [],
      "name": "contractsManager",
      "outputs": [
        {
          "name": "",
          "type": "address"
        }
      ],
      "payable": false,
      "stateMutability": "view",
      "type": "function"
    },
    {
      "constant": false,
      "inputs": [
        {
          "name": "_to",
          "type": "address"
        }
      ],
      "name": "changeContractOwnership",
      "outputs": [
        {
          "name": "",
          "type": "bool"
        }
      ],
      "payable": false,
      "stateMutability": "nonpayable",
      "type": "function"
    },
    {
      "constant": true,
      "inputs": [],
      "name": "pendingContractOwner",
      "outputs": [
        {
          "name": "",
          "type": "address"
        }
      ],
      "payable": false,
      "stateMutability": "view",
      "type": "function"
    },
    {
      "constant": false,
      "inputs": [
        {
          "name": "_eventsHistory",
          "type": "address"
        }
      ],
      "name": "setEventsHistory",
      "outputs": [],
      "payable": false,
      "stateMutability": "nonpayable",
      "type": "function"
    },
    {
      "constant": false,
      "inputs": [
        {
          "name": "_owners",
          "type": "address[]"
        },
        {
          "name": "_required",
          "type": "uint256"
        },
        {
          "name": "_releaseTime",
          "type": "uint256"
        }
      ],
      "name": "createWallet",
      "outputs": [
        {
          "name": "errorCode",
          "type": "uint256"
        }
      ],
      "payable": false,
      "stateMutability": "nonpayable",
      "type": "function"
    },
    {
      "constant": false,
      "inputs": [
        {
          "name": "_contractsManager",
          "type": "address"
        }
      ],
      "name": "setContractsManager",
      "outputs": [],
      "payable": false,
      "stateMutability": "nonpayable",
      "type": "function"
    },
    {
      "constant": true,
      "inputs": [],
      "name": "getOraclePrice",
      "outputs": [
        {
          "name": "",
          "type": "uint256"
        }
      ],
      "payable": false,
      "stateMutability": "view",
      "type": "function"
    },
    {
      "constant": false,
      "inputs": [],
      "name": "destroy",
      "outputs": [],
      "payable": false,
      "stateMutability": "nonpayable",
      "type": "function"
    },
    {
      "constant": false,
      "inputs": [
        {
          "name": "_to",
          "type": "address"
        }
      ],
      "name": "transferContractOwnership",
      "outputs": [
        {
          "name": "",
          "type": "bool"
        }
      ],
      "payable": false,
      "stateMutability": "nonpayable",
      "type": "function"
    },
    {
      "constant": true,
      "inputs": [],
      "name": "getOracleAddress",
      "outputs": [
        {
          "name": "",
          "type": "address"
        }
      ],
      "payable": false,
      "stateMutability": "view",
      "type": "function"
    },
    {
      "constant": false,
      "inputs": [
        {
          "name": "wallet",
          "type": "address"
        }
      ],
      "name": "emitWalletDeleted",
      "outputs": [],
      "payable": false,
      "stateMutability": "nonpayable",
      "type": "function"
    },
    {
      "constant": false,
      "inputs": [
        {
          "name": "_price",
          "type": "uint256"
        }
      ],
      "name": "setOraclePrice",
      "outputs": [
        {
          "name": "",
          "type": "uint256"
        }
      ],
      "payable": false,
      "stateMutability": "nonpayable",
      "type": "function"
    },
    {
      "constant": true,
      "inputs": [],
      "name": "contractOwner",
      "outputs": [
        {
          "name": "",
          "type": "address"
        }
      ],
      "payable": false,
      "stateMutability": "view",
      "type": "function"
    },
    {
      "constant": false,
      "inputs": [
        {
          "name": "_releaseTime",
          "type": "uint256"
        }
      ],
      "name": "create2FAWallet",
      "outputs": [
        {
          "name": "errorCode",
          "type": "uint256"
        }
      ],
      "payable": false,
      "stateMutability": "nonpayable",
      "type": "function"
    },
    {
      "constant": false,
      "inputs": [
        {
          "name": "tokens",
          "type": "address[]"
        },
        {
          "name": "_to",
          "type": "address"
        }
      ],
      "name": "withdrawnTokens",
      "outputs": [
        {
          "name": "",
          "type": "uint256"
        }
      ],
      "payable": false,
      "stateMutability": "nonpayable",
      "type": "function"
    },
    {
      "constant": true,
      "inputs": [],
      "name": "getWallets",
      "outputs": [
        {
          "name": "result",
          "type": "address[]"
        },
        {
          "name": "result2",
          "type": "bool[]"
        }
      ],
      "payable": false,
      "stateMutability": "view",
      "type": "function"
    },
    {
      "constant": false,
      "inputs": [
        {
          "name": "errorCode",
          "type": "uint256"
        }
      ],
      "name": "emitError",
      "outputs": [],
      "payable": false,
      "stateMutability": "nonpayable",
      "type": "function"
    },
    {
      "constant": false,
      "inputs": [
        {
          "name": "wallet",
          "type": "address"
        },
        {
          "name": "by",
          "type": "address"
        }
      ],
      "name": "emitWalletAdded",
      "outputs": [],
      "payable": false,
      "stateMutability": "nonpayable",
      "type": "function"
    },
    {
      "constant": false,
      "inputs": [
        {
          "name": "_wallet",
          "type": "address"
        }
      ],
      "name": "addWallet",
      "outputs": [
        {
          "name": "",
          "type": "uint256"
        }
      ],
      "payable": false,
      "stateMutability": "nonpayable",
      "type": "function"
    },
    {
      "constant": false,
      "inputs": [
        {
          "name": "_contractsManager",
          "type": "address"
        },
        {
          "name": "_walletsFactory",
          "type": "address"
        }
      ],
      "name": "init",
      "outputs": [
        {
          "name": "",
          "type": "uint256"
        }
      ],
      "payable": false,
      "stateMutability": "nonpayable",
      "type": "function"
    },
    {
      "constant": true,
      "inputs": [
        {
          "name": "key",
          "type": "address"
        }
      ],
      "name": "isAuthorized",
      "outputs": [
        {
          "name": "",
          "type": "bool"
        }
      ],
      "payable": false,
      "stateMutability": "view",
      "type": "function"
    },
    {
      "constant": true,
      "inputs": [],
      "name": "getEventsHistory",
      "outputs": [
        {
          "name": "",
          "type": "address"
        }
      ],
      "payable": false,
      "stateMutability": "view",
      "type": "function"
    },
    {
      "inputs": [
        {
          "name": "_store",
          "type": "address"
        },
        {
          "name": "_crate",
          "type": "bytes32"
        }
      ],
      "payable": false,
      "stateMutability": "nonpayable",
      "type": "constructor"
    },
    {
      "payable": false,
      "stateMutability": "nonpayable",
      "type": "fallback"
    },
    {
      "anonymous": false,
      "inputs": [
        {
          "indexed": true,
          "name": "self",
          "type": "address"
        },
        {
          "indexed": false,
          "name": "errorCode",
          "type": "uint256"
        }
      ],
      "name": "Error",
      "type": "event"
    },
    {
      "anonymous": false,
      "inputs": [
        {
          "indexed": true,
          "name": "self",
          "type": "address"
        },
        {
          "indexed": false,
          "name": "wallet",
          "type": "address"
        },
        {
          "indexed": true,
          "name": "by",
          "type": "address"
        }
      ],
      "name": "WalletAdded",
      "type": "event"
    },
    {
      "anonymous": false,
      "inputs": [
        {
          "indexed": true,
          "name": "self",
          "type": "address"
        },
        {
          "indexed": false,
          "name": "wallet",
          "type": "address"
        },
        {
          "indexed": true,
          "name": "by",
          "type": "address"
        }
      ],
      "name": "WalletCreated",
      "type": "event"
    },
    {
      "anonymous": false,
      "inputs": [
        {
          "indexed": true,
          "name": "self",
          "type": "address"
        },
        {
          "indexed": false,
          "name": "wallet",
          "type": "address"
        }
      ],
      "name": "WalletDeleted",
      "type": "event"
    }
  ],
  "bytecode": "0x606060405234156200001057600080fd5b60405160408062002b3e83398101604052808051919060200180519150829050818181818162000051600083836401000000006200255d6200017f82021704565b505060028054600160a060020a03338116600160a060020a03199283161790925560058054309093169290911691909117905550620000c69250600b91507f77616c6c657473466163746f7279000000000000000000000000000000000000905064010000000062002583620001a582021704565b6200010160067f77616c6c6574730000000000000000000000000000000000000000000000000064010000000062002593620001c582021704565b6200013c600c7f6f7261636c65416464726573730000000000000000000000000000000000000064010000000062002583620001a582021704565b62000177600d7f6f7261636c65507269636500000000000000000000000000000000000000000064010000000062002583620001a582021704565b5050620003ba565b8254600160a060020a031916600160a060020a0392909216919091178255600190910155565b8154620001c19082640100000000620025a9620001e382021704565b9055565b620001df8282640100000000620025bf620001fb82021704565b5050565b81151580620001f0575080155b15620001df57600080fd5b6200025282826040519081527f75696e742f636f756e74000000000000000000000000000000000000000000006020820152602a016040518091039020620001a56401000000000262002583176401000000009004565b620002ac82600101826040519081527f75696e742f6669727374000000000000000000000000000000000000000000006020820152602a016040518091039020620001a56401000000000262002583176401000000009004565b6200030682600201826040519081527f75696e742f6c617374000000000000000000000000000000000000000000000060208201526029016040518091039020620001a56401000000000262002583176401000000009004565b6200036082600301826040519081527f75696e742f6e657874000000000000000000000000000000000000000000000060208201526029016040518091039020620001a56401000000000262002583176401000000009004565b620001df82600401826040519081527f75696e742f70726576000000000000000000000000000000000000000000000060208201526029016040518091039020620001a56401000000000262002583176401000000009004565b61277480620003ca6000396000f3006060604052600436106101505763ffffffff60e060020a6000350416632286975c8114610160578063250aa1a1146101855780633c0fc6ea146101ac5780634592cd1d146101fb5780634c69c00f146102225780634fe590121461024157806353253d3114610273578063557f4bc9146102865780635aa77d3c146102a55780636521afd7146102b85780636830bcf0146102d757806371d3b5731461032d578063796da7af1461034c57806383197ef01461035f578063a843c51f14610372578063b18b78dd14610391578063bea99566146103a4578063c65cd86d146103c3578063ce606ee0146103d9578063d06c6566146103ec578063d8f9659b14610402578063db7a46051461045c578063df26ca0814610508578063e136ea8d1461051e578063efeb5f1f14610543578063f09a401614610562578063fe9fbb8014610587578063fff10aba146105a6575b341561015b57600080fd5b600080fd5b341561016b57600080fd5b6101736105b9565b60405190815260200160405180910390f35b341561019057600080fd5b6101aa600160a060020a0360043581169060243516610608565b005b34156101b757600080fd5b610173600460248135818101908301358060208181020160405190810160405280939291908181526020018383602002808284375094965061066495505050505050565b341561020657600080fd5b61020e61069a565b604051901515815260200160405180910390f35b341561022d57600080fd5b610173600160a060020a03600435166106e6565b341561024c57600080fd5b610257600435610711565b604051600160a060020a03909116815260200160405180910390f35b341561027e57600080fd5b610257610795565b341561029157600080fd5b61020e600160a060020a03600435166107a4565b34156102b057600080fd5b6102576107fb565b34156102c357600080fd5b6101aa600160a060020a036004351661080a565b34156102e257600080fd5b61017360046024813581810190830135806020818102016040519081016040528093929190818152602001838360200280828437509496505084359460200135935061084092505050565b341561033857600080fd5b6101aa600160a060020a0360043516610866565b341561035757600080fd5b61017361089d565b341561036a57600080fd5b6101aa6108b5565b341561037d57600080fd5b61020e600160a060020a036004351661094b565b341561039c57600080fd5b6102576109c4565b34156103af57600080fd5b6101aa600160a060020a03600435166109d7565b34156103ce57600080fd5b610173600435610a28565b34156103e457600080fd5b610257610a4b565b34156103f757600080fd5b610173600435610a5a565b341561040d57600080fd5b610173600460248135818101908301358060208181020160405190810160405280939291908181526020018383602002808284375094965050509235600160a060020a03169250610a7a915050565b341561046757600080fd5b61046f610bcb565b604051808060200180602001838103835285818151815260200191508051906020019060200280838360005b838110156104b357808201518382015260200161049b565b50505050905001838103825284818151815260200191508051906020019060200280838360005b838110156104f25780820151838201526020016104da565b5050505090500194505050505060405180910390f35b341561051357600080fd5b6101aa600435610d47565b341561052957600080fd5b6101aa600160a060020a0360043581169060243516610d8e565b341561054e57600080fd5b610173600160a060020a0360043516610dea565b341561056d57600080fd5b610173600160a060020a0360043581169060243516610e04565b341561059257600080fd5b61020e600160a060020a0360043516610e65565b34156105b157600080fd5b610257610f0b565b60006105cd8160063363ffffffff610f1a16565b15156105e5576105de6136b4610f30565b9050610605565b6105f8600060063363ffffffff610f9916565b61060133610fb2565b5060015b90565b80600160a060020a031661061a61101e565b600160a060020a03167fca0b7dde26052d34217ef1a0cee48085a07ca32da0a918609937a307d496bbf584604051600160a060020a03909116815260200160405180910390a35050565b60025460009033600160a060020a0390811691161415610695576106888233610a7a565b5033600160a060020a0316ff5b919050565b60035460009033600160a060020a039081169116146106bb57506000610605565b506003805460028054600160a060020a0319908116600160a060020a03841617909155169055600190565b60006106f133610e65565b15610695576107096000600c8463ffffffff61102216565b506001919050565b600454600090600160a060020a031663bc65792783836040516020015260405160e060020a63ffffffff84160281526004810191909152602401602060405180830381600087803b151561076457600080fd5b6102c65a03f1151561077557600080fd5b5050506040518051915050600160a060020a038116151561069557600080fd5b600454600160a060020a031681565b60025460009033600160a060020a039081169116141561069557600160a060020a03821615156107d657506000610695565b5060038054600160a060020a038316600160a060020a03199091161790556001919050565b600354600160a060020a031681565b60025433600160a060020a039081169116141561083d5760058054600160a060020a031916600160a060020a0383161790555b50565b600061085c8484846020604051908101604052600081526110a4565b90505b9392505050565b60025433600160a060020a039081169116141561083d5760048054600160a060020a038316600160a060020a031990911617905550565b60006108b081600d63ffffffff6113e316565b905090565b60025433600160a060020a039081169116141561094957600454600160a060020a031663c375c2ef3060006040516020015260405160e060020a63ffffffff8416028152600160a060020a039091166004820152602401602060405180830381600087803b151561092557600080fd5b6102c65a03f1151561093657600080fd5b5050506040518051905050610949611442565b565b60025460009033600160a060020a039081169116141561069557600160a060020a038216151561097d57506000610695565b600354600160a060020a03161561099f5760038054600160a060020a03191690555b5060028054600160a060020a038316600160a060020a03199091161790556001919050565b60006108b081600c63ffffffff61146516565b6109df61101e565b600160a060020a03167f49de411f58cbd9799f63088434ff82d488c93ad291d4844de5c68b6bc6704cdd82604051600160a060020a03909116815260200160405180910390a250565b6000610a3333610e65565b15610695576107096000600d8463ffffffff6114c416565b600254600160a060020a031681565b6000610a7482602060405190810160405260008152611524565b92915050565b60025460009081908190819033600160a060020a0390811691161415610bc257600092505b8551831015610bbd57858381518110610ab457fe5b90602001906020020151915081600160a060020a03166370a082313060006040516020015260405160e060020a63ffffffff8416028152600160a060020a039091166004820152602401602060405180830381600087803b1515610b1757600080fd5b6102c65a03f11515610b2857600080fd5b50505060405180519150508015610bb25781600160a060020a031663a9059cbb868360006040516020015260405160e060020a63ffffffff8516028152600160a060020a0390921660048301526024820152604401602060405180830381600087803b1515610b9657600080fd5b6102c65a03f11515610ba757600080fd5b505050604051805150505b600190920191610a9f565b600193505b50505092915050565b610bd3612524565b610bdb612524565b610be3612536565b600080610bf781600663ffffffff6118f016565b9250610c0b6000600663ffffffff61190216565b604051805910610c185750595b90808252806020026020018201604052509450610c3d6000600663ffffffff61190216565b604051805910610c4a5750595b90808252806020026020018201604052509350600090505b610c75600060068563ffffffff61190e16565b15610d4057610c8d600060068563ffffffff61191b16565b9150610c998233611928565b15610d3b5781858281518110610cab57fe5b600160a060020a03928316602091820290920101528216639d2a43ad6000604051602001526040518163ffffffff1660e060020a028152600401602060405180830381600087803b1515610cfe57600080fd5b6102c65a03f11515610d0f57600080fd5b50505060405180519050848280600101935081518110610d2b57fe5b9115156020928302909101909101525b610c62565b5050509091565b610d4f61101e565b600160a060020a03167f9cf38cf2dbf9139f5c32639950507b10775fbbe0421f3e168bc2d1bb1ae3208c8260405190815260200160405180910390a250565b80600160a060020a0316610da061101e565b600160a060020a03167fab5e58da9d3260e1f73a5b4f6a270e75b7230b399ec2e3b3879089e10a15799c84604051600160a060020a03909116815260200160405180910390a35050565b6000610a7482602060405190810160405260008152611981565b60025460009033600160a060020a0390811691161415610a7457610e48837f57616c6c6574734d616e61676572000000000000000000000000000000000000611bfc565b50610e5c6000600b8463ffffffff61102216565b50600192915050565b600080610e917f557365724d616e61676572000000000000000000000000000000000000000000610711565b905080600160a060020a0316632aa09e5a8460006040516020015260405160e060020a63ffffffff8416028152600160a060020a039091166004820152602401602060405180830381600087803b1515610eea57600080fd5b6102c65a03f11515610efb57600080fd5b5050506040518051949350505050565b600554600160a060020a031690565b600061085c8484600160a060020a038516611ded565b6000610f3a610f0b565b600160a060020a031663df26ca088360405160e060020a63ffffffff84160281526004810191909152602401600060405180830381600087803b1515610f7f57600080fd5b6102c65a03f11515610f9057600080fd5b50929392505050565b610fad8383600160a060020a038416611e09565b505050565b610fba610f0b565b600160a060020a031663bea995668260405160e060020a63ffffffff8416028152600160a060020a039091166004820152602401600060405180830381600087803b151561100757600080fd5b6102c65a03f1151561101857600080fd5b50505050565b3390565b825460018401548354600160a060020a03909216916379a7cfee91908460405160e060020a63ffffffff861602815260048101939093526024830191909152600160a060020a03166044820152606401600060405180830381600087803b151561108b57600080fd5b6102c65a03f1151561109c57600080fd5b505050505050565b6000806000836110b2611e23565b600160a060020a031663709586c13330600035600160e060020a03191660006040516020015260405160e060020a63ffffffff8616028152600160a060020a039384166004820152919092166024820152600160e060020a03199091166044820152606401602060405180830381600087803b151561113057600080fd5b6102c65a03f1151561114157600080fd5b50505060405180519050151561115d576155f060005260206000f35b868851101561116b57600080fd5b61117d6000600b63ffffffff61146516565b600454909350600160a060020a038085169163768ca538918b918b91166111a2610f0b565b60008c60006040516020015260405160e060020a63ffffffff891602815260248101869052600160a060020a03808616604483015284166064820152821515608482015260a4810182905260c06004820190815290819060c40188818151815260200191508051906020019060200280838360005b8381101561122f578082015183820152602001611217565b50505050905001975050505050505050602060405180830381600087803b151561125857600080fd5b6102c65a03f1151561126957600080fd5b50505060405180519050915061127d610f0b565b600160a060020a031663b6a5d7de8360006040516020015260405160e060020a63ffffffff8416028152600160a060020a039091166004820152602401602060405180830381600087803b15156112d357600080fd5b6102c65a03f115156112e457600080fd5b5050506040518051905015156112f957600080fd5b61130c600060068463ffffffff611e4e16565b6113168233611e62565b600180865293508381511480156113ce57506001611332611e23565b600160a060020a03166384509ca83330600035600160e060020a03191660006040516020015260405160e060020a63ffffffff8616028152600160a060020a039384166004820152919092166024820152600160e060020a03199091166044820152606401602060405180830381600087803b15156113b057600080fd5b6102c65a03f115156113c157600080fd5b5050506040518051905014155b156113d857600080fd5b505050949350505050565b815460018301548254600092600160a060020a0316916353aa3f5e91846040516020015260405160e060020a63ffffffff851602815260048101929092526024820152604401602060405180830381600087803b1515610eea57600080fd5b60025433600160a060020a03908116911614156109495733600160a060020a0316ff5b815460018301548254600092600160a060020a03169163d3a3968691846040516020015260405160e060020a63ffffffff851602815260048101929092526024820152604401602060405180830381600087803b1515610eea57600080fd5b825460018401548354600160a060020a03909216916353e7168b91908460405160e060020a63ffffffff8616028152600481019390935260248301919091526044820152606401600060405180830381600087803b151561108b57600080fd5b60008061152f612524565b60008461153a611e23565b600160a060020a031663709586c13330600035600160e060020a03191660006040516020015260405160e060020a63ffffffff8616028152600160a060020a039384166004820152919092166024820152600160e060020a03199091166044820152606401602060405180830381600087803b15156115b857600080fd5b6102c65a03f115156115c957600080fd5b5050506040518051905015156115e5576155f060005260206000f35b6115ed6109c4565b600160a060020a0316151561160e576116076136b0610f30565b945061182a565b6116206000600b63ffffffff61146516565b935060026040518059106116315750595b90808252806020026020018201604052509250338360008151811061165257fe5b600160a060020a039092166020928302909101909101526116716109c4565b8360018151811061167e57fe5b600160a060020a03928316602091820290920101526004548582169163768ca538918691600291166116ae610f0b565b60018d60006040516020015260405160e060020a63ffffffff891602815260248101869052600160a060020a03808616604483015284166064820152821515608482015260a4810182905260c06004820190815290819060c40188818151815260200191508051906020019060200280838360005b8381101561173b578082015183820152602001611723565b50505050905001975050505050505050602060405180830381600087803b151561176457600080fd5b6102c65a03f1151561177557600080fd5b505050604051805190509150611789610f0b565b600160a060020a031663b6a5d7de8360006040516020015260405160e060020a63ffffffff8416028152600160a060020a039091166004820152602401602060405180830381600087803b15156117df57600080fd5b6102c65a03f115156117f057600080fd5b50505060405180519050151561180557600080fd5b611818600060068463ffffffff611e4e16565b6118228233611e62565b600180875294505b600181511480156118dc57506001611840611e23565b600160a060020a03166384509ca83330600035600160e060020a03191660006040516020015260405160e060020a63ffffffff8616028152600160a060020a039384166004820152919092166024820152600160e060020a03199091166044820152606401602060405180830381600087803b15156118be57600080fd5b6102c65a03f115156118cf57600080fd5b5050506040518051905014155b156118e657600080fd5b5050505092915050565b6118f8612536565b61085f8383611ed7565b600061085f8383611ef8565b600061085c848484611f13565b600061085c848484611f4e565b600082600160a060020a0316632f54bf6e8360006040516020015260405160e060020a63ffffffff8416028152600160a060020a039091166004820152602401602060405180830381600087803b1515610eea57600080fd5b6000808261198d611e23565b600160a060020a031663709586c13330600035600160e060020a03191660006040516020015260405160e060020a63ffffffff8616028152600160a060020a039384166004820152919092166024820152600160e060020a03199091166044820152606401602060405180830381600087803b1515611a0b57600080fd5b6102c65a03f11515611a1c57600080fd5b505050604051805190501515611a38576155f060005260206000f35b84600160a060020a0316610bb860006040517f69734f776e6572286164647265737329000000000000000000000000000000008152601001604051809103902060e060020a900491903360405160e060020a63ffffffff8616028152600160a060020a039091166004820152602401600060405180830381858988f19450505050509150811515611ad557611ace6136b4610f30565b9250611b38565b611ae8600060068763ffffffff610f1a16565b15611af857611ace6136b1610f30565b611b028533611928565b1515611b1357611ace6136b3610f30565b611b26600060068763ffffffff611e4e16565b611b308533611f9a565b600180855292505b60018151148015611bea57506001611b4e611e23565b600160a060020a03166384509ca83330600035600160e060020a03191660006040516020015260405160e060020a63ffffffff8616028152600160a060020a039384166004820152919092166024820152600160e060020a03199091166044820152606401602060405180830381600087803b1515611bcc57600080fd5b6102c65a03f11515611bdd57600080fd5b5050506040518051905014155b15611bf457600080fd5b505092915050565b60025460009081908190819033600160a060020a03908116911614611c2057600080fd5b600160a060020a0386161515611c3557600080fd5b600454600160a060020a0316158015935080611c5f5750600454600160a060020a03878116911614155b15611c805760048054600160a060020a031916600160a060020a0388161790555b600454600160a060020a031691508163bc65792760006040516020015260405160e060020a63ffffffff83160281527f4d756c74694576656e7473486973746f727900000000000000000000000000006004820152602401602060405180830381600087803b1515611cf157600080fd5b6102c65a03f11515611d0257600080fd5b5050506040518051915050600160a060020a03811615801590611d335750600554600160a060020a03828116911614155b15611d545760058054600160a060020a031916600160a060020a0383161790555b8415611ddb5781600160a060020a031663b7c46cd5308760006040516020015260405160e060020a63ffffffff8516028152600160a060020a0390921660048301526024820152604401602060405180830381600087803b1515611db757600080fd5b6102c65a03f11515611dc857600080fd5b50505060405180516001149050611ddb57fe5b8215610bbd5760069695505050505050565b600061085c848460008051602061272983398151915285611ff7565b610fad838360008051602061272983398151915284612034565b60006108b07f466561747572654665654d616e61676572000000000000000000000000000000610711565b610fad8383600160a060020a038416612134565b611e6a610f0b565b600160a060020a031663250aa1a1838360405160e060020a63ffffffff8516028152600160a060020a03928316600482015291166024820152604401600060405180830381600087803b1515611ebf57600080fd5b6102c65a03f11515611ed057600080fd5b5050505050565b611edf612536565b61085f838360008051602061272983398151915261214e565b600061085f838360008051602061272983398151915261216c565b600081602001511580611f375750611f35848484606001518560400151611ff7565b155b15611f445750600061085f565b5060019392505050565b6000611f5b848484611f13565b1515611f6657600080fd5b81604001519050611f81848484606001518560400151612179565b6040830152600160208301818151039052509392505050565b611fa2610f0b565b600160a060020a031663e136ea8d838360405160e060020a63ffffffff8516028152600160a060020a03928316600482015291166024820152604401600060405180830381600087803b1515611ebf57600080fd5b6000811580159061202b575061201285856003018585612186565b15158061202b5750816120298660028701866121a7565b145b95945050505050565b61204084848484611ff7565b151561204b57611018565b61207784846003018461206388886004018888612186565b61207289896003018989612186565b612241565b61209e84846004018461208f88886003018888612186565b61207289896004018989612186565b6120ac8484600101846121a7565b8114156120d0576120d08484600101846120cb88886003018888612186565b612254565b6120de8484600201846121a7565b8114156120fd576120fd8484600201846120cb88886004018888612186565b61210c848460030184846122e6565b61211b848460040184846122e6565b611018848484600161212e8484846122fa565b03612372565b610fad8383600080516020612729833981519152846123ea565b612156612536565b61085c8484846121678383836122fa565b6124ad565b600061085c8484846122fa565b600061202b858560030185855b600061202b8585858560405191825260208201526040908101905180910390205b825460018401548354600092600160a060020a0316916337d9d7fc9185604051918252602082015260409081019051809103902060006040516020015260405160e060020a63ffffffff851602815260048101929092526024820152604401602060405180830381600087803b151561221f57600080fd5b6102c65a03f1151561223057600080fd5b505050604051805195945050505050565b8115611ed057611ed085858585856124cd565b835460018501548454600160a060020a039092169163a14ff85791908560405191825260208201526040908101905180910390208460405160e060020a63ffffffff8616028152600481019390935260248301919091526044820152606401600060405180830381600087803b15156122cc57600080fd5b6102c65a03f115156122dd57600080fd5b50505050505050565b8015611018576110188484848460006124cd565b825460018401548354600092600160a060020a0316916353aa3f5e9185604051918252602082015260409081019051809103902060006040516020015260405160e060020a63ffffffff851602815260048101929092526024820152604401602060405180830381600087803b151561221f57600080fd5b835460018501548454600160a060020a03909216916353e7168b91908560405191825260208201526040908101905180910390208460405160e060020a63ffffffff8616028152600481019390935260248301919091526044820152606401600060405180830381600087803b15156122cc57600080fd5b8015156123f657600080fd5b61240284848484611ff7565b1561240c57611018565b61241784848461216c565b151561242c5761242c84846001018484612254565b61243a8484600201846121a7565b156124745761245c8484600301846124568888600201886121a7565b85612241565b612474848460040184846120728989600201896121a7565b612485846003850184846000612241565b61249484846002018484612254565b6110188484846124a58383836122fa565b600101612372565b6124b5612536565b61202b836124c78787600101876121a7565b846124f1565b611ed085858585604051918252602082015260409081019051809103902084612254565b6124f9612536565b6080604051908101604090815283825260208201939093529182019290925260608101929092525090565b60206040519081016040526000815290565b60806040519081016040908152600080835260208301819052908201819052606082015290565b8254600160a060020a031916600160a060020a0392909216919091178255600190910155565b815461258f90826125a9565b9055565b61259d82826125bf565b5050565b815461258f90825b811515806125b5575080155b1561259d57600080fd5b61260082826040519081527f75696e742f636f756e74000000000000000000000000000000000000000000006020820152602a016040518091039020612583565b61264482600101826040519081527f75696e742f6669727374000000000000000000000000000000000000000000006020820152602a016040518091039020612583565b61268882600201826040519081527f75696e742f6c617374000000000000000000000000000000000000000000000060208201526029016040518091039020612583565b6126cc82600301826040519081527f75696e742f6e657874000000000000000000000000000000000000000000000060208201526029016040518091039020612583565b61259d82600401826040519081527f75696e742f70726576000000000000000000000000000000000000000000000060208201526029016040518091039020612583565b815461258f90826125a9565b815461258f90826125a956006f7264657265645f736574000000000000000000000000000000000000000000a165627a7a72305820c728e7b5f4398cb55ceb234440b993e9ffc9474992a8fb3b96460c077bccf0340029",
  "source": "pragma solidity ^0.4.11;\n\nimport \"../core/common/BaseManager.sol\";\nimport \"./WalletsManagerEmitter.sol\";\nimport \"../timeholder/FeatureFeeAdapter.sol\";\n\ncontract WalletsFactoryInterface {\n    function createWallet(address[] _owners, uint _required, address _contractsManager, address _eventsEmiter, bool _use2FA, uint _releaseTime) returns(address);\n}\n\ncontract WalletInterface {\n    bool public use2FA;\n    function isOwner(address _addr) returns (bool);\n}\n\ncontract MultiEventsHistoryInterface {\n    function authorize(address _caller) returns(bool);\n}\n\ncontract WalletsManager is WalletsManagerEmitter, FeatureFeeAdapter, BaseManager {\n    uint constant ERROR_WALLET_INVALID_INVOCATION = 14000;\n    uint constant ERROR_WALLET_EXISTS = 14001;\n    uint constant ERROR_WALLET_OWNER_ONLY = 14002;\n    uint constant ERROR_WALLET_CANNOT_ADD_TO_REGISTRY = 14003;\n    uint constant ERROR_WALLET_UNKNOWN = 14004;\n\n    StorageInterface.OrderedAddressesSet wallets;\n    StorageInterface.Address walletsFactory;\n    StorageInterface.Address oracleAddress;\n    StorageInterface.UInt oraclePrice;\n\n    function WalletsManager(Storage _store, bytes32 _crate) BaseManager(_store, _crate) {\n        walletsFactory.init(\"walletsFactory\");\n        wallets.init('wallets');\n        oracleAddress.init('oracleAddress');\n        oraclePrice.init('oraclePrice');\n    }\n\n    function init(address _contractsManager, address _walletsFactory)\n    public\n    onlyContractOwner\n    returns (uint)\n    {\n        BaseManager.init(_contractsManager, \"WalletsManager\");\n        store.set(walletsFactory, _walletsFactory);\n        return OK;\n    }\n\n    function kill(address[] tokens)\n    public\n    onlyContractOwner\n    returns (uint)\n    {\n        withdrawnTokens(tokens,msg.sender);\n        selfdestruct(msg.sender);\n        return OK;\n    }\n\n    function getOraclePrice() public constant returns (uint) {\n        return store.get(oraclePrice);\n    }\n\n    function getOracleAddress() public constant returns (address) {\n        return store.get(oracleAddress);\n    }\n\n    function getWallets() public constant returns (address[] result, bool[] result2) {\n        StorageInterface.Iterator memory iterator = store.listIterator(wallets);\n        address wallet;\n        result = new address[](store.count(wallets));\n        result2 = new bool[](store.count(wallets));\n        for(uint j = 0; store.canGetNextWithIterator(wallets, iterator);) {\n            wallet = store.getNextWithIterator(wallets, iterator);\n            if (isWalletOwner(wallet,msg.sender)) {\n                result[j] = wallet;\n                result2[j++] = WalletInterface(wallet).use2FA();\n            }\n        }\n        return (result,result2);\n    }\n\n    function setOraclePrice(uint _price) external onlyAuthorized returns (uint) {\n        store.set(oraclePrice,_price);\n        return OK;\n    }\n\n    function setOracleAddress(address _address) external onlyAuthorized returns (uint) {\n        store.set(oracleAddress,_address);\n        return OK;\n    }\n\n    function createWallet(address[] _owners, uint _required, uint _releaseTime)\n    public\n    returns (uint errorCode)\n    {\n        return _createWallet(_owners, _required, _releaseTime, [uint(0)]);\n    }\n\n    function create2FAWallet(uint _releaseTime)\n    public\n    returns (uint errorCode)\n    {\n        return _create2FAWallet(_releaseTime, [uint(0)]);\n    }\n\n    function addWallet(address _wallet) public returns (uint) {\n        return _addWallet(_wallet, [uint(0)]);\n    }\n\n    /**\n    *  Deletes sender from a list of wallets if present.\n    *  Designed to be called only by wallet.\n    */\n    function removeWallet() public returns (uint) {\n        if(!store.includes(wallets, msg.sender)) {\n            return _emitError(ERROR_WALLET_UNKNOWN);\n        }\n\n        store.remove(wallets, msg.sender);\n        _emitWalletDeleted(msg.sender);\n        return OK;\n    }\n\n    function isWalletOwner(address _wallet, address _owner) internal returns (bool) {\n        return WalletInterface(_wallet).isOwner(_owner);\n    }\n\n    function _addWallet(address _wallet, uint[1] memory _result)\n    private\n    featured(_result)\n    returns (uint)\n    {\n        bool r = _wallet.call.gas(3000).value(0)(bytes4(sha3(\"isOwner(address)\")),msg.sender);\n        if(!r) {\n            return _emitError(ERROR_WALLET_UNKNOWN);\n        }\n\n        if(store.includes(wallets,_wallet)) {\n            return _emitError(ERROR_WALLET_EXISTS);\n        }\n\n        if(!isWalletOwner(_wallet,msg.sender)) {\n            return _emitError(ERROR_WALLET_CANNOT_ADD_TO_REGISTRY);\n        }\n\n        store.add(wallets, _wallet);\n\n        _emitWalletAdded(_wallet, msg.sender);\n\n        _result[0] = OK;\n        return OK;\n    }\n\n    function _createWallet(address[] _owners, uint _required, uint _releaseTime, uint[1] memory _result)\n    private\n    featured(_result)\n    returns (uint errorCode)\n    {\n        require(_owners.length >= _required);\n        \n        WalletsFactoryInterface factory = WalletsFactoryInterface(store.get(walletsFactory));\n        address _wallet = factory.createWallet(_owners, _required, contractsManager, getEventsHistory(), false, _releaseTime);\n        if (!MultiEventsHistoryInterface(getEventsHistory()).authorize(_wallet)) {\n            revert();\n        }\n\n        store.add(wallets, _wallet);\n\n        _emitWalletCreated(_wallet, msg.sender);\n\n        _result[0] = OK;\n        return OK;\n    }\n\n    function _create2FAWallet(uint _releaseTime, uint[1] memory _result)\n    private\n    featured(_result)\n    returns (uint errorCode)\n    {\n        if (getOracleAddress() == 0x0) {\n            return _emitError(ERROR_WALLET_INVALID_INVOCATION);\n        }\n\n        WalletsFactoryInterface factory = WalletsFactoryInterface(store.get(walletsFactory));\n\n        address[] memory _owners = new address[](2);\n        _owners[0] = msg.sender;\n        _owners[1] = getOracleAddress();\n\n        address _wallet = factory.createWallet(_owners,2,contractsManager,getEventsHistory(), true, _releaseTime);\n        if (!MultiEventsHistoryInterface(getEventsHistory()).authorize(_wallet)) {\n            revert();\n        }\n\n        store.add(wallets, _wallet);\n\n        _emitWalletCreated(_wallet, msg.sender);\n\n        _result[0] = OK;\n        return OK;\n    }\n\n    function _emitError(uint error) internal returns (uint) {\n        WalletsManager(getEventsHistory()).emitError(error);\n        return error;\n    }\n\n    function _emitWalletAdded(address wallet, address by) internal {\n        WalletsManager(getEventsHistory()).emitWalletAdded(wallet, by);\n    }\n\n    function _emitWalletCreated(address wallet, address by) internal {\n        WalletsManager(getEventsHistory()).emitWalletCreated(wallet, by);\n    }\n\n    function _emitWalletDeleted(address wallet) internal {\n        WalletsManager(getEventsHistory()).emitWalletDeleted(wallet);\n    }\n\n    function() {\n        revert();\n    }\n}\n",
  "sourcePath": "/Users/ahiatsevich/Development/chronobank/SmartContracts/contracts/wallet/WalletsManager.sol",
  "compiler": {
    "name": "solc",
    "version": "0.4.18+commit.9cf6e910.Emscripten.clang"
  },
  "schemaVersion": "1.0.1",
  "updatedAt": "2017-11-15T09:25:15.048Z"
}