{
  "contractName": "WalletsFactory",
  "abi": [
    {
      "constant": false,
      "inputs": [
        {
          "name": "_owners",
          "type": "address[]"
        },
        {
          "name": "_required",
          "type": "uint256"
        },
        {
          "name": "_contractsManager",
          "type": "address"
        },
        {
          "name": "_eventsEmiter",
          "type": "address"
        },
        {
          "name": "_use2FA",
          "type": "bool"
        },
        {
          "name": "_releaseTime",
          "type": "uint256"
        }
      ],
      "name": "createWallet",
      "outputs": [
        {
          "name": "",
          "type": "address"
        }
      ],
      "payable": false,
      "stateMutability": "nonpayable",
      "type": "function"
    },
    {
      "payable": false,
      "stateMutability": "nonpayable",
      "type": "fallback"
    }
  ],
  "bytecode": "0x6060604052341561000f57600080fd5b612e908061001e6000396000f3006060604052600436106100405763ffffffff7c0100000000000000000000000000000000000000000000000000000000600035041663768ca5388114610050575b341561004b57600080fd5b600080fd5b341561005b57600080fd5b6100d160046024813581810190830135806020818102016040519081016040528093929190818152602001838360200280828437509496505084359473ffffffffffffffffffffffffffffffffffffffff60208201358116955060408201351693506060810135151592506080013590506100fa565b60405173ffffffffffffffffffffffffffffffffffffffff909116815260200160405180910390f35b60008087878787878761010b6101b3565b6020810186905273ffffffffffffffffffffffffffffffffffffffff808616604083015284166060820152821515608082015260a0810182905260c08082528190810188818151815260200191508051906020019060200280838360005b83811015610181578082015183820152602001610169565b50505050905001975050505050505050604051809103906000f08015156101a757600080fd5b98975050505050505050565b604051612ca1806101c4833901905600606060405234156200001057600080fd5b60405162002ca138038062002ca183398101604052808051820191906020018051919060200180519190602001805191906020018051919060200180519150869050856000825115156200006357600080fd5b5060005b8251811015620000f2578281815181106200007e57fe5b90602001906020020151600160a060020a03166005600183016101008110620000a357fe5b0155600181016101056000858481518110620000bb57fe5b90602001906020020151600160a060020a031681526020810191909152604001600020556003805460019081019091550162000067565b6003548211620001075760028290556200010e565b6003546002555b50506001805460008054600160a060020a03978816600160a060020a031991821617909155941515740100000000000000000000000000000000000000000260a060020a60ff0219969097169416939093179390931693909317905550610109555050612b2080620001816000396000f3006060604052600436106102005763ffffffff60e060020a60003504166306d4427881146102155780630bcfdf471461023d57806311673db91461026957806314da079714610288578063173825d9146102aa57806328ba84ca146102c95780632f54bf6e146102eb5780633311f99a1461031e5780634123cb6b14610331578063418cbda9146103445780634367f19a1461035a5780634f39cb531461037257806354fd4d50146103a2578063557027ba146103b557806357cfeeee146103e45780635b0b6f66146103fe578063660918ca146102695780636c004411146104235780637065cb4814610445578063746c91711461046457806376583f6614610477578063797af627146104a357806390606e30146104b957806393b50d98146104d85780639d2a43ad146104fa578063b6e4c5bf1461050d578063b75c7dc614610525578063b91d40011461053b578063ba51a6df1461054e578063babdd81114610564578063c28d11ca146104b9578063c2cf73261461057a578063c41a360a1461059c578063cbf0b0c0146105ce578063d4554737146105ed578063d5b3c27a1461060f578063df26ca0814610634578063e037fc901461064a578063eb559c141461066c578063ee8c24b81461069b578063f00d4b5d14610701578063fd8cd80614610726578063ff55ed6d146108a1578063fff10aba146108d1575b60003411156102135761021333346108e4565b005b341561022057600080fd5b61022b600435610957565b60405190815260200160405180910390f35b341561024857600080fd5b610213600160a060020a0360043581169060243590604435166064356109c0565b341561027457600080fd5b610213600160a060020a0360043516610a49565b341561029357600080fd5b610213600160a060020a0360043516602435610a93565b34156102b557600080fd5b61022b600160a060020a0360043516610ae5565b34156102d457600080fd5b610213600160a060020a0360043516602435610bfd565b34156102f657600080fd5b61030a600160a060020a0360043516610c56565b604051901515815260200160405180910390f35b341561032957600080fd5b61022b610c73565b341561033c57600080fd5b61022b610f33565b341561034f57600080fd5b610213600435610f39565b341561036557600080fd5b6102136004351515610f80565b341561037d57600080fd5b610213600160a060020a03600435811690602435906044359060643516608435610fc9565b34156103ad57600080fd5b61022b611044565b34156103c057600080fd5b610213600435600160a060020a03602435811690604435906064351660843561104a565b61022b600160a060020a03600435166024356044356110db565b341561040957600080fd5b610213600160a060020a036004358116906024351661160a565b341561042e57600080fd5b610213600160a060020a036004351660243561165f565b341561045057600080fd5b61022b600160a060020a03600435166116ba565b341561046f57600080fd5b61022b6117d8565b341561048257600080fd5b610213600160a060020a0360043581169060243590604435166064356117de565b34156104ae57600080fd5b61022b60043561184e565b34156104c457600080fd5b610213600160a060020a0360043516611b42565b34156104e357600080fd5b610213600160a060020a0360043516602435611bae565b341561050557600080fd5b61030a611c09565b341561051857600080fd5b6102136004351515611c19565b341561053057600080fd5b61022b600435611c66565b341561054657600080fd5b61022b611ce9565b341561055957600080fd5b61022b600435611cf0565b341561056f57600080fd5b610213600435611d87565b341561058557600080fd5b61030a600435600160a060020a0360243516611dd4565b34156105a757600080fd5b6105b2600435611e29565b604051600160a060020a03909116815260200160405180910390f35b34156105d957600080fd5b61022b600160a060020a0360043516611e44565b34156105f857600080fd5b610213600160a060020a0360043516602435611fef565b341561061a57600080fd5b610213600160a060020a0360043581169060243516612041565b341561063f57600080fd5b61021360043561209e565b341561065557600080fd5b610213600160a060020a03600435166024356108e4565b341561067757600080fd5b610213600435600160a060020a0360243581169060443590606435166084356120e5565b34156106a657600080fd5b6106ae612160565b60405160208082528190810183818151815260200191508051906020019060200280838360005b838110156106ed5780820151838201526020016106d5565b505050509050019250505060405180910390f35b341561070c57600080fd5b61022b600160a060020a0360043581169060243516612321565b341561073157600080fd5b610739612445565b60405180806020018060200180602001806020018060200186810386528b818151815260200191508051906020019060200280838360005b83811015610789578082015183820152602001610771565b5050505090500186810385528a818151815260200191508051906020019060200280838360005b838110156107c85780820151838201526020016107b0565b50505050905001868103845289818151815260200191508051906020019060200280838360005b838110156108075780820151838201526020016107ef565b50505050905001868103835288818151815260200191508051906020019060200280838360005b8381101561084657808201518382015260200161082e565b50505050905001868103825287818151815260200191508051906020019060200280838360005b8381101561088557808201518382015260200161086d565b505050509050019a505050505050505050505060405180910390f35b34156108ac57600080fd5b610213600160a060020a036004358116906024359060443590606435166084356126ad565b34156108dc57600080fd5b6105b2612726565b6108ec612726565b600160a060020a03166328ba84ca838360405160e060020a63ffffffff8516028152600160a060020a0390921660048301526024820152604401600060405180830381600087803b151561093f57600080fd5b6102c65a03f1151561095057600080fd5b5050505050565b6000610961612726565b600160a060020a031663df26ca088360405160e060020a63ffffffff84160281526004810191909152602401600060405180830381600087803b15156109a657600080fd5b6102c65a03f115156109b757600080fd5b50929392505050565b6109c8612726565b600160a060020a03166376583f668585858560405160e060020a63ffffffff8716028152600160a060020a0394851660048201526024810193909352921660448201526064810191909152608401600060405180830381600087803b1515610a2f57600080fd5b6102c65a03f11515610a4057600080fd5b50505050505050565b80600160a060020a0316610a5b612736565b600160a060020a03167ffda769962711e3e34f112435e5900b6f209a31363e82cdbb4bf28ef0fe810baf60405160405180910390a350565b81600160a060020a0316610aa5612736565b600160a060020a03167f619980af4e2d2067d8772c53365a0449d1bdd2ccd48b6e504ea1cab5a50ca7528360405190815260200160405180910390a35050565b600080600080600160149054906101000a900460ff1615610b0f576136ba90508060005260206000f35b60015460a060020a900460ff1615610b2357fe5b610b4960003660405180838380828437820191505092505050604051809103902061273a565b925060018314610b6357610b5c83610957565b9350610bf5565b600160a060020a038516600090815261010560205260409020549150811515610b9157610b5c6136bc610957565b6001600354036002541115610bab57610b5c6136ba610957565b60006005836101008110610bbb57fe5b0155600160a060020a03851660009081526101056020526040812055610bdf612867565b610be76128e4565b610bf085611b42565b600193505b505050919050565b610c05612736565b600160a060020a03167fbee6d2975bcdff8dc26bc64942959415ca30aff94e84977a5954a760da30fbfe8383604051600160a060020a03909216825260208201526040908101905180910390a25050565b600160a060020a0316600090815261010560205260408120541190565b600160a060020a033316600090815261010560205260408120548190819081901515610cab57610ca46136bc610957565b9350610f2d565b600154600160a060020a031663bc6579277f57616c6c6574734d616e6167657200000000000000000000000000000000000060006040516020015260405160e060020a63ffffffff84160281526004810191909152602401602060405180830381600087803b1515610d1c57600080fd5b6102c65a03f11515610d2d57600080fd5b5050506040518051935050600160a060020a03831663b18b78dd6000604051602001526040518163ffffffff1660e060020a028152600401602060405180830381600087803b1515610d7e57600080fd5b6102c65a03f11515610d8f57600080fd5b5050506040518051925050600160a060020a0382161515610db557610ca46136ba610957565b60015460a060020a900460ff16158015610dd157506002546001145b15610e52576001805474ff0000000000000000000000000000000000000000191660a060020a17905560028055610e06612867565b6003805460010190819055600160a060020a038316906005906101008110610e2a57fe5b0155600354600160a060020a0383166000908152610105602052604090205560019350610f2d565b60015460a060020a900460ff168015610e6d57506002546002145b8015610e925750600160a060020a038216600090815261010560205260409020546001145b15610f1757506001805474ff000000000000000000000000000000000000000019168155600255600160a060020a03811660009081526101056020526040812054906005826101008110610ee257fe5b0155600160a060020a03821660009081526101056020526040812055610f06612867565b610f0e6128e4565b60019350610f2d565b600154610f2d9060a060020a900460ff16611c19565b50505090565b60035481565b610f41612736565b600160a060020a03167fb26123dbf7a81d26e5f647fcaabebe1583079e0c43904aae3954496eba952c4a8260405190815260200160405180910390a250565b610f88612736565b600160a060020a03167f3c05c875f0fe54dcedd51664a7ceb9a463f3b1f1bbf04bdd0a1c15c1758967b182604051901515815260200160405180910390a250565b84600160a060020a0316610fdb612736565b600160a060020a03167fec604b4a62b21dd5d4021a01def168795513550bcf89c8fac0363bee0e763ca6868686866040519384526020840192909252600160a060020a031660408084019190915260608301919091526080909101905180910390a35050505050565b60045481565b611052612726565b600160a060020a031663eb559c14868686868660405160e060020a63ffffffff88160281526004810195909552600160a060020a03938416602486015260448501929092529091166064830152608482015260a401600060405180830381600087803b15156110c057600080fd5b6102c65a03f115156110d157600080fd5b5050505050505050565b6000806000806000806000806110f033610c56565b1515611108576111016136bc610957565b97506115fc565b4261010954111561111e576111016136c4610957565b60015460a060020a900460ff16156112f057600154600160a060020a031663bc6579277f57616c6c6574734d616e6167657200000000000000000000000000000000000060006040516020015260405160e060020a63ffffffff84160281526004810191909152602401602060405180830381600087803b15156111a157600080fd5b6102c65a03f115156111b257600080fd5b5050506040518051975050600160a060020a03871663796da7af6000604051602001526040518163ffffffff1660e060020a028152600401602060405180830381600087803b151561120357600080fd5b6102c65a03f1151561121457600080fd5b5050506040518051965050600160a060020a03871663b18b78dd6000604051602001526040518163ffffffff1660e060020a028152600401602060405180830381600087803b151561126557600080fd5b6102c65a03f1151561127657600080fd5b50505060405180519550508515806112955750600160a060020a038516155b156112a5576111016136ba610957565b853410156112b8576111016136ba610957565b600160a060020a0385163480156108fc0290604051600060405180830381858888f1935050505015156112f0576111016136ba610957565b7f455448000000000000000000000000000000000000000000000000000000000089148061131c575088155b15611343578930600160a060020a031631101561133e576111016136c3610957565b611544565b600154600160a060020a031663bc6579277f45524332304d616e61676572000000000000000000000000000000000000000060006040516020015260405160e060020a63ffffffff84160281526004810191909152602401602060405180830381600087803b15156113b457600080fd5b6102c65a03f115156113c557600080fd5b5050506040518051945050600160a060020a03841663fa7fdeb78a60006040516020015260405160e060020a63ffffffff84160281526004810191909152602401602060405180830381600087803b151561141f57600080fd5b6102c65a03f1151561143057600080fd5b5050506040518051600160a060020a031615159050611454576111016136c1610957565b83600160a060020a031663fa7fdeb78a60006040516020015260405160e060020a63ffffffff84160281526004810191909152602401602060405180830381600087803b15156114a357600080fd5b6102c65a03f115156114b457600080fd5b5050506040518051905092508983600160a060020a03166370a082313060006040516020015260405160e060020a63ffffffff8416028152600160a060020a039091166004820152602401602060405180830381600087803b151561151857600080fd5b6102c65a03f1151561152957600080fd5b505050604051805190501015611544576111016136c3610957565b600036426040518084848082843790910192835250506020019150604090505190819003902060008181526101086020526040902054909250600160a060020a031615156115ee57600082815261010860205260409020805473ffffffffffffffffffffffffffffffffffffffff1916600160a060020a038d16178155600181018b90556002018990556115db82338c8e8d61104a565b6115e48261184e565b90508097506115fc565b6115f96136c2610957565b97505b505050505050509392505050565b80600160a060020a031682600160a060020a0316611626612736565b600160a060020a03167ff326492b55079c92d5144c6c5e02fe1f6cb1ec9064e12de0d269f0615171e8df60405160405180910390a45050565b611667612726565b600160a060020a03166314da0797838360405160e060020a63ffffffff8516028152600160a060020a0390921660048301526024820152604401600060405180830381600087803b151561093f57600080fd5b6000806000600160149054906101000a900460ff16156116e3576136ba90508060005260206000f35b60015460a060020a900460ff16156116f757fe5b61171d60003660405180838380828437820191505092505050604051809103902061273a565b9150600182146117375761173082610957565b92506117d1565b61174084610c56565b15611750576117306136bd610957565b611758612867565b60035460fa901061176b5761176b6128e4565b60035460fa9010611780576136c092506117d1565b6003805460010190819055600160a060020a0385169060059061010081106117a457fe5b0155600354600160a060020a038516600090815261010560205260409020556117cc84611b42565b600192505b5050919050565b60025481565b83600160a060020a03166117f0612736565b600160a060020a03167f113341d7c6797c7fd2ab72bb6f21014dc77b4bfaaffde795ad5f9b5fd70c76f0858585604051928352600160a060020a0390911660208301526040808301919091526060909101905180910390a350505050565b60008060008061185d8561273a565b92506001831461186f57829350610bf5565b60008581526101086020526040902054600160a060020a031615611b2e57600085815261010860205260409020600201547f455448000000000000000000000000000000000000000000000000000000000014156119175760008581526101086020526040908190208054600190910154600160a060020a039091169181156108fc02919051600060405180830381858888f19350505050151561191257600080fd5b611ab7565b600154600160a060020a031663bc6579277f45524332304d616e61676572000000000000000000000000000000000000000060006040516020015260405160e060020a63ffffffff84160281526004810191909152602401602060405180830381600087803b151561198857600080fd5b6102c65a03f1151561199957600080fd5b50505060405180516000878152610108602052604080822060020154929550600160a060020a038616935063fa7fdeb7929190516020015260405160e060020a63ffffffff84160281526004810191909152602401602060405180830381600087803b1515611a0757600080fd5b6102c65a03f11515611a1857600080fd5b5050506040518051600087815261010860205260408082208054600190910154939550600160a060020a03808716955063a9059cbb949116929091516020015260405160e060020a63ffffffff8516028152600160a060020a0390921660048301526024820152604401602060405180830381600087803b1515611a9b57600080fd5b6102c65a03f11515611aac57600080fd5b505050604051805150505b60008581526101086020526040902060018101548154600290920154611aec92339289929091600160a060020a0316906126ad565b600085815261010860205260408120805473ffffffffffffffffffffffffffffffffffffffff1916815560018082018390556002909101919091559350610bf5565b611b396136ba610957565b95945050505050565b611b4a612726565b600160a060020a03166311673db98260405160e060020a63ffffffff8416028152600160a060020a039091166004820152602401600060405180830381600087803b1515611b9757600080fd5b6102c65a03f11515611ba857600080fd5b50505050565b611bb6612726565b600160a060020a031663d4554737838360405160e060020a63ffffffff8516028152600160a060020a0390921660048301526024820152604401600060405180830381600087803b151561093f57600080fd5b60015460a060020a900460ff1681565b611c21612726565b600160a060020a0316634367f19a8260405160e060020a63ffffffff84160281529015156004820152602401600060405180830381600087803b1515611b9757600080fd5b600160a060020a033316600090815261010560205260408120548180821515611c9457610b5c6136bc610957565b50506000838152610106602052604081206001810154600284900a929083161115611cde57805460019081018255810180548390039055611cd53386611bae565b60019350610bf5565b611b396136bf610957565b6101095481565b6000806000600160149054906101000a900460ff1615611d19576136ba90508060005260206000f35b60015460a060020a900460ff1615611d2d57fe5b611d5360003660405180838380828437820191505092505050604051809103902061273a565b915060018214611d665761173082610957565b600354841115611d75576117d1565b6002849055611d82612867565b6117cc845b611d8f612726565b600160a060020a031663418cbda98260405160e060020a63ffffffff84160281526004810191909152602401600060405180830381600087803b1515611b9757600080fd5b600082815261010660209081526040808320600160a060020a038516845261010590925282205482811515611e0c5760009350611e20565b8160020a9050808360010154166000141593505b50505092915050565b60006005600183016101008110611e3c57fe5b015492915050565b600080611e4f612a81565b60008060008042610109541115611e7257611e6b6136c4610957565b9650611fe4565b611e9860003660405180838380828437820191505092505050604051809103902061273a565b955060018614611eab57611e6b86610957565b611eb3612160565b9450600093505b8451841015611fd857848481518110611ecf57fe5b90602001906020020151925082600160a060020a03166370a082313060006040516020015260405160e060020a63ffffffff8416028152600160a060020a039091166004820152602401602060405180830381600087803b1515611f3257600080fd5b6102c65a03f11515611f4357600080fd5b50505060405180519250508115611fcd5782600160a060020a031663a9059cbb898460006040516020015260405160e060020a63ffffffff8516028152600160a060020a0390921660048301526024820152604401602060405180830381600087803b1515611fb157600080fd5b6102c65a03f11515611fc257600080fd5b505050604051805150505b600190930192611eba565b87600160a060020a0316ff5b505050505050919050565b81600160a060020a0316612001612736565b600160a060020a03167f19488fab9001d4fd32730335b6e16f41b8d0fffe8f210fe291016d939f8290528360405190815260200160405180910390a35050565b612049612726565b600160a060020a0316635b0b6f66838360405160e060020a63ffffffff8516028152600160a060020a03928316600482015291166024820152604401600060405180830381600087803b151561093f57600080fd5b6120a6612736565b600160a060020a03167f9cf38cf2dbf9139f5c32639950507b10775fbbe0421f3e168bc2d1bb1ae3208c8260405190815260200160405180910390a250565b83600160a060020a03166120f7612736565b600160a060020a03167f99650330103279c27894c26446e08829e4f4a97c737d9de68ee66b0070b47551878686866040519384526020840192909252600160a060020a031660408084019190915260608301919091526080909101905180910390a35050505050565b612168612a81565b60015460009081908190600160a060020a031663bc6579277f45524332304d616e616765720000000000000000000000000000000000000000836040516020015260405160e060020a63ffffffff84160281526004810191909152602401602060405180830381600087803b15156121df57600080fd5b6102c65a03f115156121f057600080fd5b5050506040518051935050600160a060020a03831663a64ed8ba6000604051602001526040518163ffffffff1660e060020a028152600401602060405180830381600087803b151561224157600080fd5b6102c65a03f1151561225257600080fd5b5050506040518051905091508160405180591061226c5750595b90808252806020026020018201604052509350600090505b81811015610f2d5782600160a060020a0316638d80c9228260006040516020015260405160e060020a63ffffffff84160281526004810191909152602401602060405180830381600087803b15156122db57600080fd5b6102c65a03f115156122ec57600080fd5b5050506040518051905084828151811061230257fe5b600160a060020a03909216602092830290910190910152600101612284565b600080600080600160149054906101000a900460ff161561234b576136ba90508060005260206000f35b60015460a060020a900460ff161561235f57fe5b61238560003660405180838380828437820191505092505050604051809103902061273a565b92506001831461239f5761239883610957565b9350611e20565b6123a885610c56565b156123b8576123986136bd610957565b600160a060020a0386166000908152610105602052604090205491508115156123e6576123986136bc610957565b6123ee612867565b600160a060020a038516600583610100811061240657fe5b0155600160a060020a03808716600090815261010560205260408082208290559187168152208290556124398686612041565b50600195945050505050565b61244d612a81565b612455612a81565b61245d612a81565b612465612a81565b61246d612a81565b610107546000906040518059106124815750595b9080825280602002602001820160405250610107549096506040518059106124a65750595b9080825280602002602001820160405250610107549095506040518059106124cb5750595b9080825280602002602001820160405250610107549094506040518059106124f05750595b9080825280602002602001820160405250610107549093506040518059106125155750595b90808252806020026020018201604052509150600090505b610107548110156126a55761010860006101078381548110151561254d57fe5b60009182526020808320909101548352820192909252604001902054600160a060020a031686828151811061257e57fe5b600160a060020a03909216602092830290910190910152610107805461010891600091849081106125ab57fe5b600091825260208083209091015483528201929092526040019020600101548582815181106125d657fe5b60209081029091010152610107805461010891600091849081106125f657fe5b6000918252602080832090910154835282019290925260400190206002015484828151811061262157fe5b6020908102909101015261010780548290811061263a57fe5b90600052602060002090015483828151811061265257fe5b60209081029091010152610107805461268291908390811061267057fe5b90600052602060002090015433611dd4565b82828151811061268e57fe5b91151560209283029091019091015260010161252d565b509091929394565b6126b5612726565b600160a060020a0316634f39cb53868686868660405160e060020a63ffffffff8816028152600160a060020a039586166004820152602481019490945260448401929092529092166064820152608481019190915260a401600060405180830381600087803b15156110c057600080fd5b600054600160a060020a03165b90565b3390565b600160a060020a03331660009081526101056020526040812054818082151561276857610b5c6136bc610957565b600085815261010660205260409020805490925015156127c857600254825560006001808401919091556101078054916127a491908301612a93565b60028301819055610107805487929081106127bb57fe5b6000918252602090912001555b8260020a90508082600101541660001415610bf5576127e7338661165f565b81546001901161284b57600085815261010660205260409020600201546101078054909190811061281457fe5b6000918252602080832090910182905586825261010690526040812081815560018082018390556002909101919091559350610bf5565b8154600019018255600182018054821790556136be9350610bf5565b6101075460005b818110156128d85761010860006101078381548110151561288b57fe5b600091825260208083209091015483528201929092526040018120805473ffffffffffffffffffffffffffffffffffffffff1916815560018082018390556002909101919091550161286e565b6128e06129fe565b5050565b60015b6003548110156129fb575b600354811080156129115750600581610100811061290c57fe5b015415155b1561291e576001016128f2565b60016003541180156129405750600354600590610100811061293c57fe5b0154155b15612954576003805460001901905561291e565b600354811080156129765750600354600590610100811061297157fe5b015415155b801561298f5750600581610100811061298b57fe5b0154155b156129f65760035460059061010081106129a557fe5b015460058261010081106129b557fe5b015580610105600060058361010081106129cb57fe5b015481526020019081526020016000208190555060006005600354610100811015156129f357fe5b01555b6128e7565b50565b6101075460005b81811015612a7457610107805482908110612a1c57fe5b60009182526020909120015415612a6c57610106600061010783815481101515612a4257fe5b60009182526020808320909101548352820192909252604001812081815560018101829055600201555b600101612a05565b6128e06101076000612abc565b60206040519081016040526000815290565b815481835581811511612ab757600083815260209020612ab7918101908301612ad6565b505050565b50805460008255906000526020600020908101906129fb91905b61273391905b80821115612af05760008155600101612adc565b50905600a165627a7a723058209cf2748cb511b7997f9870efb6824dea06804dc1721ea7ba216ff1d9a89e74640029a165627a7a7230582001118e623a31c887c5c663555a69975c52b0713d62df99ff493dbb0339b822aa0029",
  "source": "pragma solidity ^0.4.11;\n\nimport \"./Wallet.sol\";\n\ncontract WalletsFactory {\n\n    function createWallet(address[] _owners, uint _required, address _contractsManager, address _eventsEmiter, bool _use2FA, uint _releaseTime) returns(address) {\n        address wallet;\n        wallet = new Wallet(_owners,_required, _contractsManager, _eventsEmiter, _use2FA, _releaseTime);\n        return wallet;\n    }\n\n    function() {\n        revert();\n    }\n}\n",
  "sourcePath": "/Users/ahiatsevich/Development/chronobank/SmartContracts/contracts/wallet/WalletsFactory.sol",
  "compiler": {
    "name": "solc",
    "version": "0.4.18+commit.9cf6e910.Emscripten.clang"
  },
  "schemaVersion": "1.0.1",
  "updatedAt": "2017-11-15T09:25:15.039Z"
}