{
  "contractName": "WalletsFactory",
  "abi": [
    {
      "constant": false,
      "inputs": [
        {
          "name": "_owners",
          "type": "address[]"
        },
        {
          "name": "_required",
          "type": "uint256"
        },
        {
          "name": "_contractsManager",
          "type": "address"
        },
        {
          "name": "_use2FA",
          "type": "bool"
        },
        {
          "name": "_releaseTime",
          "type": "uint256"
        }
      ],
      "name": "createWallet",
      "outputs": [
        {
          "name": "",
          "type": "address"
        }
      ],
      "payable": false,
      "stateMutability": "nonpayable",
      "type": "function"
    }
  ],
  "bytecode": "0x6060604052341561000f57600080fd5b61302d8061001e6000396000f3006060604052600436106100405763ffffffff7c01000000000000000000000000000000000000000000000000000000006000350416634f1347af8114610045575b600080fd5b341561005057600080fd5b6100bf60046024813581810190830135806020818102016040519081016040528093929190818152602001838360200280828437509496505084359473ffffffffffffffffffffffffffffffffffffffff60208201351694506040810135151593506060013591506100e89050565b60405173ffffffffffffffffffffffffffffffffffffffff909116815260200160405180910390f35b600085858585856100f7610194565b6020810185905273ffffffffffffffffffffffffffffffffffffffff8416604082015282151560608201526080810182905260a08082528190810187818151815260200191508051906020019060200280838360005b8381101561016557808201518382015260200161014d565b505050509050019650505050505050604051809103906000f080151561018a57600080fd5b9695505050505050565b604051612e5d806101a583390190560060606040527f312e302e3000000000000000000000000000000000000000000000000000000060035534156200003457600080fd5b60405162002e5d38038062002e5d833981016040528080518201919060200180519190602001805191906020018051919060200180519150859050846000825115156200008057600080fd5b81835110156200008f57600080fd5b5060005b82518110156200011e57828181518110620000aa57fe5b90602001906020020151600160a060020a03166004600183016101008110620000cf57fe5b0155600181016101046000858481518110620000e757fe5b90602001906020020151600160a060020a031681526020810191909152604001600020556002805460019081019091550162000093565b5060015550600160a060020a03831615156200013957600080fd5b6101078054600160a060020a03909416600160a060020a0319909416939093179092556000805491151560ff19909216919091179055610109555050612cd880620001856000396000f3006060604052600436106101875763ffffffff60e060020a60003504166311673db9811461019c57806313de3d2b146101bb57806314da079714610229578063173825d91461024b57806328ba84ca1461027c5780632f54bf6e1461029e5780633311f99a146102d15780634123cb6b146102e4578063418cbda9146102f75780634367f19a1461030d57806349a008581461032557806354f6127f1461039357806354fd4d501461042057806357cfeeee146104335780635b0b6f661461044d578063660918ca146104725780637065cb4814610491578063746c9171146104b057806376583f66146104c3578063797af627146104ef5780639d2a43ad14610505578063b75c7dc614610518578063b91d40011461052e578063ba51a6df14610541578063c2cf732614610557578063c41a360a14610579578063cbf0b0c0146105ab578063d4554737146105ca578063d8f9659b146105ec578063df26ca081461060d578063f00d4b5d14610623578063fd8cd80614610648578063fff10aba14610739575b600034111561019a5761019a333461074c565b005b34156101a757600080fd5b61019a600160a060020a03600435166107bf565b34156101c657600080fd5b61019a600160a060020a0360048035821691602480359260443592606435169160a49060843590810190830135806020601f8201819004810201604051908101604052818152929190602084018383808284375094965061080995505050505050565b341561023457600080fd5b61019a600160a060020a03600435166024356108e5565b341561025657600080fd5b61026a600160a060020a0360043516610937565b60405190815260200160405180910390f35b341561028757600080fd5b61019a600160a060020a0360043516602435610b9a565b34156102a957600080fd5b6102bd600160a060020a0360043516610bf3565b604051901515815260200160405180910390f35b34156102dc57600080fd5b61026a610c14565b34156102ef57600080fd5b61026a610e5d565b341561030257600080fd5b61019a600435610e63565b341561031857600080fd5b61019a6004351515610eaa565b341561033057600080fd5b61019a6004803590600160a060020a036024803582169260443592606435169160a49060843590810190830135806020601f82018190048102016040519081016040528181529291906020840183838082843750949650610ef395505050505050565b341561039e57600080fd5b6103a9600435610f8a565b60405160208082528190810183818151815260200191508051906020019080838360005b838110156103e55780820151838201526020016103cd565b50505050905090810190601f1680156104125780820380516001836020036101000a031916815260200191505b509250505060405180910390f35b341561042b57600080fd5b61026a611051565b61026a600160a060020a0360043516602435604435611057565b341561045857600080fd5b61019a600160a060020a0360043581169060243516611413565b341561047d57600080fd5b61019a600160a060020a0360043516611468565b341561049c57600080fd5b61026a600160a060020a03600435166114b1565b34156104bb57600080fd5b61026a6115d1565b34156104ce57600080fd5b61019a600160a060020a0360043581169060243590604435166064356115d7565b34156104fa57600080fd5b61026a600435611647565b341561051057600080fd5b6102bd611869565b341561052357600080fd5b61026a600435611872565b341561053957600080fd5b61026a611919565b341561054c57600080fd5b61026a600435611920565b341561056257600080fd5b6102bd600435600160a060020a03602435166119c2565b341561058457600080fd5b61058f600435611a17565b604051600160a060020a03909116815260200160405180910390f35b34156105b657600080fd5b61026a600160a060020a0360043516611a32565b34156105d557600080fd5b61019a600160a060020a0360043516602435611d54565b61026a6024600480358281019291013590600160a060020a03903516611da6565b341561061857600080fd5b61019a600435611f61565b341561062e57600080fd5b61026a600160a060020a0360043581169060243516611fa8565b341561065357600080fd5b61065b6120c8565b60405180806020018060200180602001848103845287818151815260200191508051906020019060200280838360005b838110156106a357808201518382015260200161068b565b50505050905001848103835286818151815260200191508051906020019060200280838360005b838110156106e25780820151838201526020016106ca565b50505050905001848103825285818151815260200191508051906020019060200280838360005b83811015610721578082015183820152602001610709565b50505050905001965050505050505060405180910390f35b341561074457600080fd5b61058f612228565b610754612228565b600160a060020a03166328ba84ca838360405160e060020a63ffffffff8516028152600160a060020a0390921660048301526024820152604401600060405180830381600087803b15156107a757600080fd5b6102c65a03f115156107b857600080fd5b5050505050565b80600160a060020a03166107d1612259565b600160a060020a03167ffda769962711e3e34f112435e5900b6f209a31363e82cdbb4bf28ef0fe810baf60405160405180910390a350565b84600160a060020a031661081b612259565b600160a060020a03167f4610c27e2d78ce09675d82db64898d8c008a50f8db6d18e49835fc4bafce645f8686868660405184815260208101849052600160a060020a038316604082015260806060820181815290820183818151815260200191508051906020019080838360005b838110156108a1578082015183820152602001610889565b50505050905090810190601f1680156108ce5780820380516001836020036101000a031916815260200191505b509550505050505060405180910390a35050505050565b81600160a060020a03166108f7612259565b600160a060020a03167f619980af4e2d2067d8772c53365a0449d1bdd2ccd48b6e504ea1cab5a50ca7528360405190815260200160405180910390a35050565b600080548190819060ff1615610956576136ba90508060005260206000f35b60005460ff161561096357fe5b60008061096f33610bf3565b15610add5760005460ff1615610a9757610996600080516020612c8d83398151915261225d565b915081600160a060020a031663796da7af6000604051602001526040518163ffffffff1660e060020a028152600401602060405180830381600087803b15156109de57600080fd5b6102c65a03f115156109ef57600080fd5b50505060405180519050341015610a0557600080fd5b81600160a060020a031663b18b78dd6000604051602001526040518163ffffffff1660e060020a028152600401602060405180830381600087803b1515610a4b57600080fd5b6102c65a03f11515610a5c57600080fd5b5050506040518051600160a060020a031690503480156108fc0290604051600060405180830381858888f193505050501515610a9757600080fd5b610ad1346000368080601f0160208091040260200160405190810160405281815292919060208401838380828437506122e2945050505050565b90508060005260206000f35b30600160a060020a031633600160a060020a03161415610b8c57600160a060020a038616600090815261010460205260409020549350831515610b1c57fe5b6001600254036001541115610b3d57610b366136ba6123cd565b9450610b87565b60006004856101008110610b4d57fe5b0155600160a060020a03861660009081526101046020526040812055610b71612436565b610b7961249c565b610b82866125b6565b600194505b610b91565b600080fd5b50505050919050565b610ba2612259565b600160a060020a03167fbee6d2975bcdff8dc26bc64942959415ca30aff94e84977a5954a760da30fbfe8383604051600160a060020a03909216825260208201526040908101905180910390a25050565b600160a060020a03811660009081526101046020526040812054115b919050565b600080600080610c2333610bf3565b80610c3f575030600160a060020a031633600160a060020a0316145b1515610c4a57600080fd5b600160a060020a033316600090815261010460205260409020541515610c6c57fe5b610c83600080516020612c8d83398151915261225d565b925082600160a060020a031663b18b78dd6000604051602001526040518163ffffffff1660e060020a028152600401602060405180830381600087803b1515610ccb57600080fd5b6102c65a03f11515610cdc57600080fd5b5050506040518051925050600160a060020a0382161515610d0957610d026136ba6123cd565b9350610e57565b60005460ff16158015610d1e57506001546001145b15610d9b576000805460ff1916600190811790915560029055610d3f612436565b6002805460010190819055600160a060020a038316906004906101008110610d6357fe5b0155600254600160a060020a0383166000908152610104602052604081209190915554610d929060ff16612622565b60019350610e57565b60005460ff168015610daf57506001546002145b8015610dd45750600160a060020a038216600090815261010460205260409020546001145b15610e4957506000805460ff1916815560018055600160a060020a03821681526101046020526040812054906004826101008110610e0e57fe5b0155600160a060020a03821660009081526101046020526040812055610e32612436565b610e3a61249c565b600054610d929060ff16612622565b610e546136ba6123cd565b93505b50505090565b60025481565b610e6b612259565b600160a060020a03167fb26123dbf7a81d26e5f647fcaabebe1583079e0c43904aae3954496eba952c4a8260405190815260200160405180910390a250565b610eb2612259565b600160a060020a03167f3c05c875f0fe54dcedd51664a7ceb9a463f3b1f1bbf04bdd0a1c15c1758967b182604051901515815260200160405180910390a250565b83600160a060020a0316610f05612259565b600160a060020a03167fb34e114caca0a1485cad8d85fe392613f827825cf9135035e78500a4f8aed4398786868660405184815260208101849052600160a060020a03831660408201526080606082018181529082018381815181526020019150805190602001908083836000838110156108a1578082015183820152602001610889565b610f92612b5b565b610108600083600019166000191681526020019081526020016000206001018054600181600116156101000203166002900480601f0160208091040260200160405190810160405280929190818152602001828054600181600116156101000203166002900480156110455780601f1061101a57610100808354040283529160200191611045565b820191906000526020600020905b81548152906001019060200180831161102857829003601f168201915b50505050509050919050565b60035481565b60008060004261010954111561107257610ad16136c46123cd565b610109544290111561108057fe5b8484600080807f45544800000000000000000000000000000000000000000000000000000000008414806110b2575083155b156110da578430600160a060020a031631106110cf5760016110d3565b6136c35b9250611210565b6111037f45524332304d616e61676572000000000000000000000000000000000000000061225d565b915081600160a060020a031663fa7fdeb78560006040516020015260405160e060020a63ffffffff84160281526004810191909152602401602060405180830381600087803b151561115457600080fd5b6102c65a03f1151561116557600080fd5b5050506040518051915050600160a060020a038116151561118a576136c19250611210565b8481600160a060020a03166370a082313060006040516020015260405160e060020a63ffffffff8416028152600160a060020a039091166004820152602401602060405180830381600087803b15156111e257600080fd5b6102c65a03f115156111f357600080fd5b505050604051805190501061120957600161120d565b6136c35b92505b6001831461122c57611221836123cd565b508260005260206000f35b6001831461123657fe5b60008061124233610bf3565b156112695760005460ff1615610a9757610996600080516020612c8d83398151915261225d565b30600160a060020a031633600160a060020a03161415610b8c577f45544800000000000000000000000000000000000000000000000000000000008b14806112af57508a155b156112ea57600160a060020a038d168c156108fc028d604051600060405180830381858888f1935050505015156112e557600080fd5b611400565b6113137f45524332304d616e61676572000000000000000000000000000000000000000061225d565b600160a060020a031663fa7fdeb78c60006040516020015260405160e060020a63ffffffff84160281526004810191909152602401602060405180830381600087803b151561136157600080fd5b6102c65a03f1151561137257600080fd5b5050506040518051995050600160a060020a03891663a9059cbb8e8e60006040516020015260405160e060020a63ffffffff8516028152600160a060020a0390921660048301526024820152604401602060405180830381600087803b15156113da57600080fd5b6102c65a03f115156113eb57600080fd5b50505060405180519050151561140057600080fd5b5060019c9b505050505050505050505050565b80600160a060020a031682600160a060020a031661142f612259565b600160a060020a03167ff326492b55079c92d5144c6c5e02fe1f6cb1ec9064e12de0d269f0615171e8df60405160405180910390a45050565b80600160a060020a031661147a612259565b600160a060020a03167ed0db01d039330b725890e8de587ddb67d2c41528c68f07057500e4026c487760405160405180910390a350565b60008054819060ff16156114ce576136ba90508060005260206000f35b60005460ff16156114db57fe5b6000806114e733610bf3565b1561150e5760005460ff1615610a9757610996600080516020612c8d83398151915261225d565b30600160a060020a031633600160a060020a03161415610b8c5761153185610bf3565b15611548576115416136bd6123cd565b93506115c9565b611550612436565b60025460fa90106115635761156361249c565b60025460fa9010611578576136c093506115c9565b6002805460010190819055600160a060020a03861690600490610100811061159c57fe5b0155600254600160a060020a038616600090815261010460205260409020556115c48561266f565b600193505b505050919050565b60015481565b83600160a060020a03166115e9612259565b600160a060020a03167f113341d7c6797c7fd2ab72bb6f21014dc77b4bfaaffde795ad5f9b5fd70c76f0858585604051928352600160a060020a0390911660208301526040808301919091526060909101905180910390a350505050565b600061165233610bf3565b8061166e575030600160a060020a031633600160a060020a0316145b151561167957600080fd5b6000828152610108602052604090206001908101546002610100928216159290920260001901160415156116b9576116b26136bf6123cd565b9050610c0f565b6116c2826126c4565b9050600181146116d157610c0f565b6000828152610108602052604090819020600160a060020a033016916001909101905180828054600181600116156101000203166002900480156117565780601f1061172b57610100808354040283529160200191611756565b820191906000526020600020905b81548152906001019060200180831161173957829003601f168201915b505091505060006040518083038160008661646e5a03f1915050151561177b57600080fd5b6000828152610108602052604081208181559061179b6001830182612b6d565b50506000828152610108602090815260409182902080546001918201805461186195339589953094936002610100928216159290920260001901160491601f83018290048202909101905190810160405280929190818152602001828054600181600116156101000203166002900480156118575780601f1061182c57610100808354040283529160200191611857565b820191906000526020600020905b81548152906001019060200180831161183a57829003601f168201915b50505050506127ec565b506001919050565b60005460ff1681565b60008060008061188133610bf3565b8061189d575030600160a060020a031633600160a060020a0316145b15156118a857600080fd5b600160a060020a0333166000908152610104602052604090205492508215156118cd57fe5b50506000838152610105602052604090206001810154600283900a9190821615156118fd576115416136ba6123cd565b8054600190810182558101805483900390556115c433866128e9565b6101095481565b60008054819060ff161561193d576136ba90508060005260206000f35b60005460ff161561194a57fe5b60008061195633610bf3565b1561197d5760005460ff1615610a9757610996600080516020612c8d83398151915261225d565b30600160a060020a031633600160a060020a03161415610b8c576002548511156119ac576115416136ba6123cd565b60018590556119b9612436565b6115c485612944565b600082815261010560209081526040808320600160a060020a0385168452610104909252822054828115156119fa5760009350611a0e565b8160020a9050808360010154166000141593505b50505092915050565b60006004600183016101008110611a2a57fe5b015492915050565b6000806000806000806000806000611a4933610bf3565b15611a705760005460ff1615610a9757610996600080516020612c8d83398151915261225d565b30600160a060020a031633600160a060020a03161415610b8c5742610109541115611aa757611aa06136c46123cd565b9850611d47565b611ad07f45524332304d616e61676572000000000000000000000000000000000000000061225d565b975087600160a060020a031663a64ed8ba6000604051602001526040518163ffffffff1660e060020a028152600401602060405180830381600087803b1515611b1857600080fd5b6102c65a03f11515611b2957600080fd5b5050506040518051975060009650505b86861015611cb35787600160a060020a0316638d80c9228760006040516020015260405160e060020a63ffffffff84160281526004810191909152602401602060405180830381600087803b1515611b9057600080fd5b6102c65a03f11515611ba157600080fd5b5050506040518051955050600160a060020a0385166370a082313060006040516020015260405160e060020a63ffffffff8416028152600160a060020a039091166004820152602401602060405180830381600087803b1515611c0357600080fd5b6102c65a03f11515611c1457600080fd5b50505060405180519450508315611ca85784600160a060020a031663a9059cbb8b8660006040516020015260405160e060020a63ffffffff8516028152600160a060020a0390921660048301526024820152604401602060405180830381600087803b1515611c8257600080fd5b6102c65a03f11515611c9357600080fd5b505050604051805190501515611ca857600080fd5b600190950194611b39565b611cca600080516020612c8d83398151915261225d565b9250600183600160a060020a0316632286975c6000604051602001526040518163ffffffff1660e060020a028152600401602060405180830381600087803b1515611d1457600080fd5b6102c65a03f11515611d2557600080fd5b50505060405180519050141515611d3b57600080fd5b89600160a060020a0316ff5b5050505050505050919050565b81600160a060020a0316611d66612259565b600160a060020a03167f19488fab9001d4fd32730335b6e16f41b8d0fffe8f210fe291016d939f8290528360405190815260200160405180910390a35050565b600080600080600042610109541115611dc457610ad16136c46123cd565b6101095442901115611dd257fe5b600080611dde33610bf3565b15611e055760005460ff1615610a9757610996600080516020612c8d83398151915261225d565b30600160a060020a031633600160a060020a03161415610b8c57600095505b88861015611f5157898987818110611e3857fe5b90506020020135600160a060020a0316945084600160a060020a03166370a082313060006040516020015260405160e060020a63ffffffff8416028152600160a060020a039091166004820152602401602060405180830381600087803b1515611ea157600080fd5b6102c65a03f11515611eb257600080fd5b50505060405180519450508315611f465784600160a060020a031663a9059cbb898660006040516020015260405160e060020a63ffffffff8516028152600160a060020a0390921660048301526024820152604401602060405180830381600087803b1515611f2057600080fd5b6102c65a03f11515611f3157600080fd5b505050604051805190501515611f4657600080fd5b600190950194611e24565b5060019998505050505050505050565b611f69612259565b600160a060020a03167f9cf38cf2dbf9139f5c32639950507b10775fbbe0421f3e168bc2d1bb1ae3208c8260405190815260200160405180910390a250565b600080548190819060ff1615611fc7576136ba90508060005260206000f35b60005460ff1615611fd457fe5b600080611fe033610bf3565b156120075760005460ff1615610a9757610996600080516020612c8d83398151915261225d565b30600160a060020a031633600160a060020a03161415610b8c57600160a060020a03871660009081526101046020526040902054935083151561204657fe5b61204f86610bf3565b156120665761205f6136bd6123cd565b94506120be565b61206e612436565b600160a060020a038616600485610100811061208657fe5b0155600160a060020a03808816600090815261010460205260408082208290559188168152208490556120b98787612991565b600194505b5050505092915050565b6120d0612b5b565b6120d8612b5b565b6120e0612b5b565b610106546000906040518059106120f45750595b9080825280602002602001820160405250610106549094506040518059106121195750595b90808252806020026020018201604052506101065490935060405180591061213e5750595b90808252806020026020018201604052509150600090505b610106548110156122225761010860006101068381548110151561217657fe5b6000918252602080832090910154835282019290925260400190205484828151811061219e57fe5b602090810290910101526101068054829081106121b757fe5b9060005260206000209001548382815181106121cf57fe5b6020908102909101015261010680546121ff9190839081106121ed57fe5b906000526020600020900154336119c2565b82828151811061220b57fe5b911515602092830290910190910152600101612156565b50909192565b60006122537f4d756c74694576656e7473486973746f7279000000000000000000000000000061225d565b90505b90565b3390565b61010754600090600160a060020a031663bc65792783836040516020015260405160e060020a63ffffffff84160281526004810191909152602401602060405180830381600087803b15156122b157600080fd5b6102c65a03f115156122c257600080fd5b5050506040518051915050600160a060020a0381161515610c0f57600080fd5b60008060003643604051808484808284379091019283525050602001915060409050519081900390206000818152610108602052604090206001908101549192506002610100918316159190910260001901909116041561234f576123486136c26123cd565b91506123c6565b600081815261010860205260409020600101838051612372929160200190612bb1565b5060008181526101086020526040902084905561238e81611647565b9150600182146123c1576136be82146123aa57612348826123cd565b6123b781338630876129ee565b6136be91506123c6565b600191505b5092915050565b60006123d7612228565b600160a060020a031663df26ca088360405160e060020a63ffffffff84160281526004810191909152602401600060405180830381600087803b151561241c57600080fd5b6102c65a03f1151561242d57600080fd5b50929392505050565b6101065460005b818110156124905761010860006101068381548110151561245a57fe5b600091825260208083209091015483528201929092526040018120818155906124866001830182612b6d565b505060010161243d565b612498612a7d565b5050565b60015b6002548110156125b3575b600254811080156124c9575060048161010081106124c457fe5b015415155b156124d6576001016124aa565b60016002541180156124f8575060025460049061010081106124f457fe5b0154155b1561250c57600280546000190190556124d6565b6002548110801561252e5750600254600490610100811061252957fe5b015415155b80156125475750600481610100811061254357fe5b0154155b156125ae57600254600490610100811061255d57fe5b0154600482610100811061256d57fe5b0155806101046000600483610100811061258357fe5b015481526020019081526020016000208190555060006004600254610100811015156125ab57fe5b01555b61249f565b50565b6125be612228565b600160a060020a031663660918ca8260405160e060020a63ffffffff8416028152600160a060020a039091166004820152602401600060405180830381600087803b151561260b57600080fd5b6102c65a03f1151561261c57600080fd5b50505050565b61262a612228565b600160a060020a0316634367f19a8260405160e060020a63ffffffff84160281529015156004820152602401600060405180830381600087803b151561260b57600080fd5b612677612228565b600160a060020a03166311673db98260405160e060020a63ffffffff8416028152600160a060020a039091166004820152602401600060405180830381600087803b151561260b57600080fd5b600160a060020a0333166000908152610104602052604081205481808215156126e957fe5b600085815261010560205260409020805490925015156127455760018054835560008382015561010680549161272191908301612c2f565b600283018190556101068054879290811061273857fe5b6000918252602090912001555b506001810154600283900a90811615612762576136ba93506115c9565b61276c3386612b00565b8154600190116127d057600085815261010560205260409020600201546101068054909190811061279957fe5b60009182526020808320909101829055868252610105905260408120818155600180820183905560029091019190915593506115c9565b8154600019018255600182018054821790556136be93506115c9565b6127f4612228565b600160a060020a03166313de3d2b868686868660405160e060020a63ffffffff8816028152600160a060020a03808716600483019081526024830187905260448301869052908416606483015260a060848301908152909160a40183818151815260200191508051906020019080838360005b8381101561287f578082015183820152602001612867565b50505050905090810190601f1680156128ac5780820380516001836020036101000a031916815260200191505b509650505050505050600060405180830381600087803b15156128ce57600080fd5b6102c65a03f115156128df57600080fd5b5050505050505050565b6128f1612228565b600160a060020a031663d4554737838360405160e060020a63ffffffff8516028152600160a060020a0390921660048301526024820152604401600060405180830381600087803b15156107a757600080fd5b61294c612228565b600160a060020a031663418cbda98260405160e060020a63ffffffff84160281526004810191909152602401600060405180830381600087803b151561260b57600080fd5b612999612228565b600160a060020a0316635b0b6f66838360405160e060020a63ffffffff8516028152600160a060020a03928316600482015291166024820152604401600060405180830381600087803b15156107a757600080fd5b6129f6612228565b600160a060020a03166349a00858868686868660405160e060020a63ffffffff881602815260048101868152600160a060020a038087166024840152604483018690528416606483015260a060848301908152909160a40183818151815260200191508051906020019080838360008381101561287f578082015183820152602001612867565b6101065460005b81811015612af357610106805482908110612a9b57fe5b60009182526020909120015415612aeb57610105600061010683815481101515612ac157fe5b60009182526020808320909101548352820192909252604001812081815560018101829055600201555b600101612a84565b6124986101066000612c58565b612b08612228565b600160a060020a03166314da0797838360405160e060020a63ffffffff8516028152600160a060020a0390921660048301526024820152604401600060405180830381600087803b15156107a757600080fd5b60206040519081016040526000815290565b50805460018160011615610100020316600290046000825580601f10612b9357506125b3565b601f0160209004906000526020600020908101906125b39190612c72565b828054600181600116156101000203166002900490600052602060002090601f016020900481019282601f10612bf257805160ff1916838001178555612c1f565b82800160010185558215612c1f579182015b82811115612c1f578251825591602001919060010190612c04565b50612c2b929150612c72565b5090565b815481835581811511612c5357600083815260209020612c53918101908301612c72565b505050565b50805460008255906000526020600020908101906125b391905b61225691905b80821115612c2b5760008155600101612c78560057616c6c6574734d616e61676572000000000000000000000000000000000000a165627a7a72305820bd37caf482bec4072d6b0464fead73dc207a5b383787806aafc7921a294976530029a165627a7a7230582015e77ece9610fb9a6ffccf1f61bf3943b2e26cfca5b546cfc0dd2549980c10440029",
  "source": "pragma solidity ^0.4.11;\n\nimport \"./Wallet.sol\";\n\ncontract WalletsFactory {\n    function createWallet(\n        address[] _owners,\n        uint _required,\n        address _contractsManager,\n        bool _use2FA,\n        uint _releaseTime)\n    public returns(address) {\n        return new Wallet(_owners, _required, _contractsManager, _use2FA, _releaseTime);\n    }\n}\n",
  "sourcePath": "/Users/mikefluff/Documents/Programming/Chronobank/test/SmartContracts/contracts/wallet/WalletsFactory.sol",
  "compiler": {
    "name": "solc",
    "version": "0.4.18+commit.9cf6e910.Emscripten.clang"
  },
  "schemaVersion": "1.0.1",
  "updatedAt": "2018-01-13T06:43:37.399Z"
}