{
  "contractName": "WalletsManagerEmitter",
  "abi": [
    {
      "constant": false,
      "inputs": [
        {
          "name": "wallet",
          "type": "address"
        },
        {
          "name": "by",
          "type": "address"
        }
      ],
      "name": "emitWalletCreated",
      "outputs": [],
      "payable": false,
      "stateMutability": "nonpayable",
      "type": "function"
    },
    {
      "constant": false,
      "inputs": [
        {
          "name": "wallet",
          "type": "address"
        }
      ],
      "name": "emitWalletDeleted",
      "outputs": [],
      "payable": false,
      "stateMutability": "nonpayable",
      "type": "function"
    },
    {
      "constant": false,
      "inputs": [
        {
          "name": "errorCode",
          "type": "uint256"
        }
      ],
      "name": "emitError",
      "outputs": [],
      "payable": false,
      "stateMutability": "nonpayable",
      "type": "function"
    },
    {
      "constant": false,
      "inputs": [
        {
          "name": "wallet",
          "type": "address"
        },
        {
          "name": "by",
          "type": "address"
        }
      ],
      "name": "emitWalletAdded",
      "outputs": [],
      "payable": false,
      "stateMutability": "nonpayable",
      "type": "function"
    },
    {
      "anonymous": false,
      "inputs": [
        {
          "indexed": true,
          "name": "self",
          "type": "address"
        },
        {
          "indexed": false,
          "name": "errorCode",
          "type": "uint256"
        }
      ],
      "name": "Error",
      "type": "event"
    },
    {
      "anonymous": false,
      "inputs": [
        {
          "indexed": true,
          "name": "self",
          "type": "address"
        },
        {
          "indexed": false,
          "name": "wallet",
          "type": "address"
        },
        {
          "indexed": true,
          "name": "by",
          "type": "address"
        }
      ],
      "name": "WalletAdded",
      "type": "event"
    },
    {
      "anonymous": false,
      "inputs": [
        {
          "indexed": true,
          "name": "self",
          "type": "address"
        },
        {
          "indexed": false,
          "name": "wallet",
          "type": "address"
        },
        {
          "indexed": true,
          "name": "by",
          "type": "address"
        }
      ],
      "name": "WalletCreated",
      "type": "event"
    },
    {
      "anonymous": false,
      "inputs": [
        {
          "indexed": true,
          "name": "self",
          "type": "address"
        },
        {
          "indexed": false,
          "name": "wallet",
          "type": "address"
        }
      ],
      "name": "WalletDeleted",
      "type": "event"
    }
  ],
  "bytecode": "0x6060604052341561000f57600080fd5b6102678061001e6000396000f3006060604052600436106100615763ffffffff7c0100000000000000000000000000000000000000000000000000000000600035041663250aa1a18114610066578063bea995661461008d578063df26ca08146100ac578063e136ea8d146100c2575b600080fd5b341561007157600080fd5b61008b600160a060020a03600435811690602435166100e7565b005b341561009857600080fd5b61008b600160a060020a0360043516610143565b34156100b757600080fd5b61008b600435610194565b34156100cd57600080fd5b61008b600160a060020a03600435811690602435166101db565b80600160a060020a03166100f9610237565b600160a060020a03167fca0b7dde26052d34217ef1a0cee48085a07ca32da0a918609937a307d496bbf584604051600160a060020a03909116815260200160405180910390a35050565b61014b610237565b600160a060020a03167f49de411f58cbd9799f63088434ff82d488c93ad291d4844de5c68b6bc6704cdd82604051600160a060020a03909116815260200160405180910390a250565b61019c610237565b600160a060020a03167f9cf38cf2dbf9139f5c32639950507b10775fbbe0421f3e168bc2d1bb1ae3208c8260405190815260200160405180910390a250565b80600160a060020a03166101ed610237565b600160a060020a03167fab5e58da9d3260e1f73a5b4f6a270e75b7230b399ec2e3b3879089e10a15799c84604051600160a060020a03909116815260200160405180910390a35050565b33905600a165627a7a72305820456ea51e8f536d0065de9c180fbf73ec57629ed739aee60e6d955c51507794f30029",
  "source": "pragma solidity ^0.4.11;\n\nimport '../core/event/MultiEventsHistoryAdapter.sol';\n\ncontract WalletsManagerEmitter is MultiEventsHistoryAdapter {\n    event Error(address indexed self, uint errorCode);\n    event WalletAdded(address indexed self, address wallet, address indexed by);\n    event WalletCreated(address indexed self, address wallet, address indexed by);\n    event WalletDeleted(address indexed self, address wallet);\n\n    function emitError(uint errorCode) public {\n        Error(_self(), errorCode);\n    }\n\n    function emitWalletAdded(address wallet, address by) public {\n        WalletAdded(_self(), wallet, by);\n    }\n\n    function emitWalletCreated(address wallet, address by) public {\n        WalletCreated(_self(), wallet, by);\n    }\n\n    function emitWalletDeleted(address wallet) public {\n        WalletDeleted(_self(), wallet);\n    }\n}\n",
  "sourcePath": "/Users/ahiatsevich/Development/chronobank/SmartContracts/contracts/wallet/WalletsManagerEmitter.sol",
  "compiler": {
    "name": "solc",
    "version": "0.4.18+commit.9cf6e910.Emscripten.clang"
  },
  "schemaVersion": "1.0.1",
  "updatedAt": "2017-11-15T09:25:15.051Z"
}